{
  "_format": "hh3-artifact-1",
  "contractName": "LockBox",
  "sourceName": "contracts/DCBTreasury/v2/LockBox.sol",
  "abi": [
    {
      "inputs": [
        {
          "internalType": "address",
          "name": "_usdToken",
          "type": "address"
        },
        {
          "internalType": "address",
          "name": "_admin",
          "type": "address"
        },
        {
          "internalType": "address[]",
          "name": "_initialSigners",
          "type": "address[]"
        },
        {
          "internalType": "uint256",
          "name": "_requiredSignatures",
          "type": "uint256"
        }
      ],
      "stateMutability": "nonpayable",
      "type": "constructor"
    },
    {
      "inputs": [],
      "name": "AlreadyApproved",
      "type": "error"
    },
    {
      "inputs": [],
      "name": "CannotRemoveSigner",
      "type": "error"
    },
    {
      "inputs": [],
      "name": "ContractPaused",
      "type": "error"
    },
    {
      "inputs": [],
      "name": "EmergencyAlreadyRequested",
      "type": "error"
    },
    {
      "inputs": [],
      "name": "EmergencyDelayNotPassed",
      "type": "error"
    },
    {
      "inputs": [],
      "name": "EmergencyNotRequested",
      "type": "error"
    },
    {
      "inputs": [],
      "name": "InsufficientApprovals",
      "type": "error"
    },
    {
      "inputs": [],
      "name": "InvalidRequiredSignatures",
      "type": "error"
    },
    {
      "inputs": [],
      "name": "InvalidUnlockTime",
      "type": "error"
    },
    {
      "inputs": [],
      "name": "LockNotActive",
      "type": "error"
    },
    {
      "inputs": [],
      "name": "LockNotFound",
      "type": "error"
    },
    {
      "inputs": [],
      "name": "LockStillLocked",
      "type": "error"
    },
    {
      "inputs": [],
      "name": "NotAdmin",
      "type": "error"
    },
    {
      "inputs": [],
      "name": "NotSigner",
      "type": "error"
    },
    {
      "inputs": [],
      "name": "ReentrancyGuard",
      "type": "error"
    },
    {
      "inputs": [],
      "name": "TransferFailed",
      "type": "error"
    },
    {
      "inputs": [],
      "name": "ZeroAddress",
      "type": "error"
    },
    {
      "inputs": [],
      "name": "ZeroAmount",
      "type": "error"
    },
    {
      "anonymous": false,
      "inputs": [
        {
          "indexed": true,
          "internalType": "address",
          "name": "previousAdmin",
          "type": "address"
        },
        {
          "indexed": true,
          "internalType": "address",
          "name": "newAdmin",
          "type": "address"
        }
      ],
      "name": "AdminTransferred",
      "type": "event"
    },
    {
      "anonymous": false,
      "inputs": [
        {
          "indexed": true,
          "internalType": "bytes32",
          "name": "lockId",
          "type": "bytes32"
        }
      ],
      "name": "EmergencyCancelled",
      "type": "event"
    },
    {
      "anonymous": false,
      "inputs": [
        {
          "indexed": true,
          "internalType": "bytes32",
          "name": "lockId",
          "type": "bytes32"
        },
        {
          "indexed": true,
          "internalType": "address",
          "name": "recipient",
          "type": "address"
        },
        {
          "indexed": false,
          "internalType": "uint256",
          "name": "amount",
          "type": "uint256"
        }
      ],
      "name": "EmergencyExecuted",
      "type": "event"
    },
    {
      "anonymous": false,
      "inputs": [
        {
          "indexed": true,
          "internalType": "bytes32",
          "name": "lockId",
          "type": "bytes32"
        },
        {
          "indexed": true,
          "internalType": "address",
          "name": "requester",
          "type": "address"
        },
        {
          "indexed": false,
          "internalType": "uint256",
          "name": "availableAt",
          "type": "uint256"
        }
      ],
      "name": "EmergencyRequested",
      "type": "event"
    },
    {
      "anonymous": false,
      "inputs": [
        {
          "indexed": true,
          "internalType": "bytes32",
          "name": "lockId",
          "type": "bytes32"
        },
        {
          "indexed": true,
          "internalType": "address",
          "name": "signer",
          "type": "address"
        },
        {
          "indexed": false,
          "internalType": "uint256",
          "name": "approvalsCount",
          "type": "uint256"
        },
        {
          "indexed": false,
          "internalType": "uint256",
          "name": "requiredSignatures",
          "type": "uint256"
        }
      ],
      "name": "LockApproved",
      "type": "event"
    },
    {
      "anonymous": false,
      "inputs": [
        {
          "indexed": true,
          "internalType": "bytes32",
          "name": "lockId",
          "type": "bytes32"
        },
        {
          "indexed": false,
          "internalType": "uint256",
          "name": "oldUnlockTime",
          "type": "uint256"
        },
        {
          "indexed": false,
          "internalType": "uint256",
          "name": "newUnlockTime",
          "type": "uint256"
        }
      ],
      "name": "LockExtended",
      "type": "event"
    },
    {
      "anonymous": false,
      "inputs": [
        {
          "indexed": true,
          "internalType": "address",
          "name": "account",
          "type": "address"
        }
      ],
      "name": "Paused",
      "type": "event"
    },
    {
      "anonymous": false,
      "inputs": [
        {
          "indexed": false,
          "internalType": "uint256",
          "name": "oldValue",
          "type": "uint256"
        },
        {
          "indexed": false,
          "internalType": "uint256",
          "name": "newValue",
          "type": "uint256"
        }
      ],
      "name": "RequiredSignaturesChanged",
      "type": "event"
    },
    {
      "anonymous": false,
      "inputs": [
        {
          "indexed": true,
          "internalType": "address",
          "name": "signer",
          "type": "address"
        }
      ],
      "name": "SignerAdded",
      "type": "event"
    },
    {
      "anonymous": false,
      "inputs": [
        {
          "indexed": true,
          "internalType": "address",
          "name": "signer",
          "type": "address"
        }
      ],
      "name": "SignerRemoved",
      "type": "event"
    },
    {
      "anonymous": false,
      "inputs": [
        {
          "indexed": true,
          "internalType": "bytes32",
          "name": "lockId",
          "type": "bytes32"
        },
        {
          "indexed": true,
          "internalType": "address",
          "name": "depositor",
          "type": "address"
        },
        {
          "indexed": true,
          "internalType": "address",
          "name": "beneficiary",
          "type": "address"
        },
        {
          "indexed": false,
          "internalType": "uint256",
          "name": "amount",
          "type": "uint256"
        },
        {
          "indexed": false,
          "internalType": "uint256",
          "name": "unlockTime",
          "type": "uint256"
        },
        {
          "indexed": false,
          "internalType": "string",
          "name": "refId",
          "type": "string"
        }
      ],
      "name": "USDLocked",
      "type": "event"
    },
    {
      "anonymous": false,
      "inputs": [
        {
          "indexed": true,
          "internalType": "bytes32",
          "name": "lockId",
          "type": "bytes32"
        },
        {
          "indexed": true,
          "internalType": "address",
          "name": "beneficiary",
          "type": "address"
        },
        {
          "indexed": false,
          "internalType": "uint256",
          "name": "amount",
          "type": "uint256"
        },
        {
          "indexed": false,
          "internalType": "string",
          "name": "releaseNote",
          "type": "string"
        },
        {
          "indexed": false,
          "internalType": "uint256",
          "name": "timestamp",
          "type": "uint256"
        }
      ],
      "name": "USDReleased",
      "type": "event"
    },
    {
      "anonymous": false,
      "inputs": [
        {
          "indexed": true,
          "internalType": "address",
          "name": "account",
          "type": "address"
        }
      ],
      "name": "Unpaused",
      "type": "event"
    },
    {
      "inputs": [],
      "name": "ISSUER",
      "outputs": [
        {
          "internalType": "string",
          "name": "",
          "type": "string"
        }
      ],
      "stateMutability": "view",
      "type": "function"
    },
    {
      "inputs": [],
      "name": "MAX_LOCK_DURATION",
      "outputs": [
        {
          "internalType": "uint256",
          "name": "",
          "type": "uint256"
        }
      ],
      "stateMutability": "view",
      "type": "function"
    },
    {
      "inputs": [],
      "name": "MIN_LOCK_DURATION",
      "outputs": [
        {
          "internalType": "uint256",
          "name": "",
          "type": "uint256"
        }
      ],
      "stateMutability": "view",
      "type": "function"
    },
    {
      "inputs": [],
      "name": "NAME",
      "outputs": [
        {
          "internalType": "string",
          "name": "",
          "type": "string"
        }
      ],
      "stateMutability": "view",
      "type": "function"
    },
    {
      "inputs": [],
      "name": "VERSION",
      "outputs": [
        {
          "internalType": "string",
          "name": "",
          "type": "string"
        }
      ],
      "stateMutability": "view",
      "type": "function"
    },
    {
      "inputs": [],
      "name": "activeLockCount",
      "outputs": [
        {
          "internalType": "uint256",
          "name": "",
          "type": "uint256"
        }
      ],
      "stateMutability": "view",
      "type": "function"
    },
    {
      "inputs": [
        {
          "internalType": "address",
          "name": "signer",
          "type": "address"
        }
      ],
      "name": "addSigner",
      "outputs": [],
      "stateMutability": "nonpayable",
      "type": "function"
    },
    {
      "inputs": [],
      "name": "admin",
      "outputs": [
        {
          "internalType": "address",
          "name": "",
          "type": "address"
        }
      ],
      "stateMutability": "view",
      "type": "function"
    },
    {
      "inputs": [
        {
          "internalType": "bytes32",
          "name": "lockId",
          "type": "bytes32"
        }
      ],
      "name": "approveLockRelease",
      "outputs": [],
      "stateMutability": "nonpayable",
      "type": "function"
    },
    {
      "inputs": [
        {
          "internalType": "address",
          "name": "",
          "type": "address"
        },
        {
          "internalType": "uint256",
          "name": "",
          "type": "uint256"
        }
      ],
      "name": "beneficiaryLocks",
      "outputs": [
        {
          "internalType": "bytes32",
          "name": "",
          "type": "bytes32"
        }
      ],
      "stateMutability": "view",
      "type": "function"
    },
    {
      "inputs": [
        {
          "internalType": "bytes32",
          "name": "lockId",
          "type": "bytes32"
        }
      ],
      "name": "cancelEmergencyRequest",
      "outputs": [],
      "stateMutability": "nonpayable",
      "type": "function"
    },
    {
      "inputs": [],
      "name": "currentLocked",
      "outputs": [
        {
          "internalType": "uint256",
          "name": "",
          "type": "uint256"
        }
      ],
      "stateMutability": "view",
      "type": "function"
    },
    {
      "inputs": [
        {
          "internalType": "address",
          "name": "",
          "type": "address"
        },
        {
          "internalType": "uint256",
          "name": "",
          "type": "uint256"
        }
      ],
      "name": "depositorLocks",
      "outputs": [
        {
          "internalType": "bytes32",
          "name": "",
          "type": "bytes32"
        }
      ],
      "stateMutability": "view",
      "type": "function"
    },
    {
      "inputs": [],
      "name": "emergencyDelay",
      "outputs": [
        {
          "internalType": "uint256",
          "name": "",
          "type": "uint256"
        }
      ],
      "stateMutability": "view",
      "type": "function"
    },
    {
      "inputs": [
        {
          "internalType": "bytes32",
          "name": "lockId",
          "type": "bytes32"
        },
        {
          "internalType": "address",
          "name": "recipient",
          "type": "address"
        }
      ],
      "name": "executeEmergencyWithdrawal",
      "outputs": [],
      "stateMutability": "nonpayable",
      "type": "function"
    },
    {
      "inputs": [
        {
          "internalType": "bytes32",
          "name": "lockId",
          "type": "bytes32"
        },
        {
          "internalType": "string",
          "name": "releaseNote",
          "type": "string"
        }
      ],
      "name": "executeRelease",
      "outputs": [],
      "stateMutability": "nonpayable",
      "type": "function"
    },
    {
      "inputs": [
        {
          "internalType": "bytes32",
          "name": "lockId",
          "type": "bytes32"
        },
        {
          "internalType": "uint256",
          "name": "newUnlockTime",
          "type": "uint256"
        }
      ],
      "name": "extendLock",
      "outputs": [],
      "stateMutability": "nonpayable",
      "type": "function"
    },
    {
      "inputs": [],
      "name": "getAllLockIds",
      "outputs": [
        {
          "internalType": "bytes32[]",
          "name": "",
          "type": "bytes32[]"
        }
      ],
      "stateMutability": "view",
      "type": "function"
    },
    {
      "inputs": [],
      "name": "getAllSigners",
      "outputs": [
        {
          "internalType": "address[]",
          "name": "",
          "type": "address[]"
        }
      ],
      "stateMutability": "view",
      "type": "function"
    },
    {
      "inputs": [],
      "name": "getBalance",
      "outputs": [
        {
          "internalType": "uint256",
          "name": "",
          "type": "uint256"
        }
      ],
      "stateMutability": "view",
      "type": "function"
    },
    {
      "inputs": [
        {
          "internalType": "bytes32",
          "name": "lockId",
          "type": "bytes32"
        }
      ],
      "name": "getLock",
      "outputs": [
        {
          "internalType": "address",
          "name": "depositor",
          "type": "address"
        },
        {
          "internalType": "address",
          "name": "beneficiary",
          "type": "address"
        },
        {
          "internalType": "uint256",
          "name": "amount",
          "type": "uint256"
        },
        {
          "internalType": "uint256",
          "name": "originalAmount",
          "type": "uint256"
        },
        {
          "internalType": "uint256",
          "name": "lockTime",
          "type": "uint256"
        },
        {
          "internalType": "uint256",
          "name": "unlockTime",
          "type": "uint256"
        },
        {
          "internalType": "enum LockBox.LockStatus",
          "name": "status",
          "type": "uint8"
        },
        {
          "internalType": "uint256",
          "name": "approvalsCount",
          "type": "uint256"
        },
        {
          "internalType": "string",
          "name": "refId",
          "type": "string"
        }
      ],
      "stateMutability": "view",
      "type": "function"
    },
    {
      "inputs": [],
      "name": "getStats",
      "outputs": [
        {
          "internalType": "uint256",
          "name": "_totalLocked",
          "type": "uint256"
        },
        {
          "internalType": "uint256",
          "name": "_totalReleased",
          "type": "uint256"
        },
        {
          "internalType": "uint256",
          "name": "_currentLocked",
          "type": "uint256"
        },
        {
          "internalType": "uint256",
          "name": "_lockCount",
          "type": "uint256"
        },
        {
          "internalType": "uint256",
          "name": "_activeLockCount",
          "type": "uint256"
        },
        {
          "internalType": "uint256",
          "name": "_signersCount",
          "type": "uint256"
        },
        {
          "internalType": "uint256",
          "name": "_requiredSignatures",
          "type": "uint256"
        }
      ],
      "stateMutability": "view",
      "type": "function"
    },
    {
      "inputs": [
        {
          "internalType": "bytes32",
          "name": "lockId",
          "type": "bytes32"
        },
        {
          "internalType": "address",
          "name": "signer",
          "type": "address"
        }
      ],
      "name": "hasApproved",
      "outputs": [
        {
          "internalType": "bool",
          "name": "",
          "type": "bool"
        }
      ],
      "stateMutability": "view",
      "type": "function"
    },
    {
      "inputs": [
        {
          "internalType": "bytes32",
          "name": "lockId",
          "type": "bytes32"
        }
      ],
      "name": "isReleasable",
      "outputs": [
        {
          "internalType": "bool",
          "name": "",
          "type": "bool"
        }
      ],
      "stateMutability": "view",
      "type": "function"
    },
    {
      "inputs": [
        {
          "internalType": "address",
          "name": "",
          "type": "address"
        }
      ],
      "name": "isSigner",
      "outputs": [
        {
          "internalType": "bool",
          "name": "",
          "type": "bool"
        }
      ],
      "stateMutability": "view",
      "type": "function"
    },
    {
      "inputs": [],
      "name": "lockCount",
      "outputs": [
        {
          "internalType": "uint256",
          "name": "",
          "type": "uint256"
        }
      ],
      "stateMutability": "view",
      "type": "function"
    },
    {
      "inputs": [
        {
          "internalType": "uint256",
          "name": "",
          "type": "uint256"
        }
      ],
      "name": "lockIds",
      "outputs": [
        {
          "internalType": "bytes32",
          "name": "",
          "type": "bytes32"
        }
      ],
      "stateMutability": "view",
      "type": "function"
    },
    {
      "inputs": [
        {
          "internalType": "address",
          "name": "beneficiary",
          "type": "address"
        },
        {
          "internalType": "uint256",
          "name": "amount",
          "type": "uint256"
        },
        {
          "internalType": "uint256",
          "name": "unlockTime",
          "type": "uint256"
        },
        {
          "internalType": "string",
          "name": "refId",
          "type": "string"
        }
      ],
      "name": "lockUSD",
      "outputs": [
        {
          "internalType": "bytes32",
          "name": "lockId",
          "type": "bytes32"
        }
      ],
      "stateMutability": "nonpayable",
      "type": "function"
    },
    {
      "inputs": [
        {
          "internalType": "address",
          "name": "depositor",
          "type": "address"
        },
        {
          "internalType": "address",
          "name": "beneficiary",
          "type": "address"
        },
        {
          "internalType": "uint256",
          "name": "amount",
          "type": "uint256"
        },
        {
          "internalType": "uint256",
          "name": "unlockTime",
          "type": "uint256"
        },
        {
          "internalType": "string",
          "name": "refId",
          "type": "string"
        }
      ],
      "name": "lockUSDDirect",
      "outputs": [
        {
          "internalType": "bytes32",
          "name": "lockId",
          "type": "bytes32"
        }
      ],
      "stateMutability": "nonpayable",
      "type": "function"
    },
    {
      "inputs": [],
      "name": "pause",
      "outputs": [],
      "stateMutability": "nonpayable",
      "type": "function"
    },
    {
      "inputs": [],
      "name": "paused",
      "outputs": [
        {
          "internalType": "bool",
          "name": "",
          "type": "bool"
        }
      ],
      "stateMutability": "view",
      "type": "function"
    },
    {
      "inputs": [
        {
          "internalType": "bytes32",
          "name": "lockId",
          "type": "bytes32"
        },
        {
          "internalType": "string",
          "name": "releaseNote",
          "type": "string"
        }
      ],
      "name": "releaseLockDirect",
      "outputs": [],
      "stateMutability": "nonpayable",
      "type": "function"
    },
    {
      "inputs": [
        {
          "internalType": "address",
          "name": "signer",
          "type": "address"
        }
      ],
      "name": "removeSigner",
      "outputs": [],
      "stateMutability": "nonpayable",
      "type": "function"
    },
    {
      "inputs": [
        {
          "internalType": "bytes32",
          "name": "lockId",
          "type": "bytes32"
        }
      ],
      "name": "requestEmergencyWithdrawal",
      "outputs": [],
      "stateMutability": "nonpayable",
      "type": "function"
    },
    {
      "inputs": [],
      "name": "requiredSignatures",
      "outputs": [
        {
          "internalType": "uint256",
          "name": "",
          "type": "uint256"
        }
      ],
      "stateMutability": "view",
      "type": "function"
    },
    {
      "inputs": [
        {
          "internalType": "uint256",
          "name": "delay",
          "type": "uint256"
        }
      ],
      "name": "setEmergencyDelay",
      "outputs": [],
      "stateMutability": "nonpayable",
      "type": "function"
    },
    {
      "inputs": [
        {
          "internalType": "uint256",
          "name": "required",
          "type": "uint256"
        }
      ],
      "name": "setRequiredSignatures",
      "outputs": [],
      "stateMutability": "nonpayable",
      "type": "function"
    },
    {
      "inputs": [
        {
          "internalType": "uint256",
          "name": "",
          "type": "uint256"
        }
      ],
      "name": "signers",
      "outputs": [
        {
          "internalType": "address",
          "name": "",
          "type": "address"
        }
      ],
      "stateMutability": "view",
      "type": "function"
    },
    {
      "inputs": [],
      "name": "totalLocked",
      "outputs": [
        {
          "internalType": "uint256",
          "name": "",
          "type": "uint256"
        }
      ],
      "stateMutability": "view",
      "type": "function"
    },
    {
      "inputs": [],
      "name": "totalReleased",
      "outputs": [
        {
          "internalType": "uint256",
          "name": "",
          "type": "uint256"
        }
      ],
      "stateMutability": "view",
      "type": "function"
    },
    {
      "inputs": [
        {
          "internalType": "address",
          "name": "newAdmin",
          "type": "address"
        }
      ],
      "name": "transferAdmin",
      "outputs": [],
      "stateMutability": "nonpayable",
      "type": "function"
    },
    {
      "inputs": [],
      "name": "unpause",
      "outputs": [],
      "stateMutability": "nonpayable",
      "type": "function"
    },
    {
      "inputs": [],
      "name": "usdToken",
      "outputs": [
        {
          "internalType": "contract IERC20",
          "name": "",
          "type": "address"
        }
      ],
      "stateMutability": "view",
      "type": "function"
    }
  ],
  "bytecode": "0x604060a0815234620002f25762002bbb803803806200001e816200030d565b928339810191608082840312620002f2576200003a8262000333565b906020926200004b84820162000333565b828201516001600160401b039691929190878111620002f257820181601f82011215620002f2578051978811620002f7578760051b908780620000908185016200030d565b809b81520192820101928311620002f25787809101915b838310620002d757505050506060015162093a806009556001600160a01b03938416959091908615620002c657848216948515620002b5578315620002a457876080949394526000968660018060a01b03198954161788558688526006928382528689206200012460019760ff1992898482541617905562000348565b7f47d1c22a25bb3a5d4e481b9b1e6944c2eade3181a0a20b495ed61d35b5323f249489868c80a28a885b620001db575b505050505050506007548111620001ca57600855600b5551917ff8ccb027dfcd135e000e9d45e6cc2d662578a8825d4c45b5e32e0adf67e79ec68180a36127dc9081620003df823960805181818161025d015281816105a101528181610a090152818161184601528181611e8801526125de0152f35b825163458bb42160e01b8152600490fd5b83518110156200029e5785620001f28286620003c9565b51161515806200027b575b6200022a575b600019811462000216578801886200014e565b634e487b7160e01b8c52601160045260248cfd5b85620002378286620003c9565b51168c52818552898c20898482541617905562000262866200025a8387620003c9565b511662000348565b856200026f8286620003c9565b5116878d80a262000203565b5085620002898286620003c9565b51168c5281855260ff8a8d20541615620001fd565b62000154565b845163458bb42160e01b8152600490fd5b845163d92e233d60e01b8152600490fd5b835163d92e233d60e01b8152600490fd5b8190620002e48462000333565b8152019101908790620000a7565b600080fd5b634e487b7160e01b600052604160045260246000fd5b6040519190601f01601f191682016001600160401b03811183821017620002f757604052565b51906001600160a01b0382168203620002f257565b60075468010000000000000000811015620002f7576001810180600755811015620003b35760076000527fa66cc928b5edb82af9bd49922954155ab7b0942694bea4ce44661d9a8736c6880180546001600160a01b0319166001600160a01b03909216919091179055565b634e487b7160e01b600052603260045260246000fd5b8051821015620003b35760209160051b01019056fe608080604052600436101561001357600080fd5b60003560e01c9081630e316ab714611f475750806310337bdd14611efd57806312065fe014611e5c578063154b71ae14611deb5780632079fb9a14611da957806323cdc3f114611d5c5780633375a54d14611ca657806334476f791461176b5780633f4ba83a146117165780634339b421146116b857806348ddc5fe146116825780634ac3a13a146116645780634d463f7e146115e05780634f1bfc9e146115c157806356891412146115a35780635c975abb1461158057806375829def1461151057806378b4330f146114f35780637c74ac841461149b5780637d2b9cc01461141a5780637df73e27146113db5780637f862a111461135c5780638456cb59146113045780638d068043146112e65780639b10b6f5146112c8578063a3f4df7e1461127c578063a552528a146110c0578063a9dab16714610fe4578063aa7c964414610f93578063bc4ab7fb14610edd578063bc7f47981461091e578063c59d4847146108cd578063d42f2f3514610805578063d6f27b58146106bc578063ddba1b9314610455578063e33b7de314610437578063eb12d61e14610401578063ecb8cb7c146103e3578063edeb3f44146103c5578063f462005b146102b5578063f851a4401461028c578063f897a22b146102475763ffa1ad74146101f857600080fd5b346102425760003660031901126102425761023e604051610218816121eb565b60058152640322e302e360dc1b6020820152604051918291602083526020830190612227565b0390f35b600080fd5b34610242576000366003190112610242576040517f00000000000000000000000000000000000000000000000000000000000000006001600160a01b03168152602090f35b34610242576000366003190112610242576000546040516001600160a01b039091168152602090f35b3461024257602036600319011261024257600054600435906001600160a01b031633036103b35780600052600160205260406000209060ff600983015416600681101561039d57801561038b5760010361037957600d820191825461036757600e9061032360095442612267565b80945501336001600160601b0360a01b8254161790556040519182527f67adb5544d258f1bc214b58c1566da814ba0b586130b35f870a54e5ba891f9d360203393a3005b60405163095db7fb60e01b8152600490fd5b6040516304a417d360e31b8152600490fd5b604051636086ee6f60e11b8152600490fd5b634e487b7160e01b600052602160045260246000fd5b604051637bfa4b9f60e01b8152600490fd5b34610242576000366003190112610242576020600954604051908152f35b34610242576000366003190112610242576020600e54604051908152f35b346102425760203660031901126102425761041a6120c3565b6000546001600160a01b031633036103b3576104359061245b565b005b34610242576000366003190112610242576020600d54604051908152f35b34610242576040366003190112610242576004356104716120d9565b6000546001600160a01b03929190831633036103b3576002600b54146106aa576002600b558281169283156106985782600052602090600182526040600020600981019182549060ff8216600681101561039d57801561038b5760010361037957600d830154801561068657421061067457600095600c8461059d966004808a98019687549b8c985560ff19161790554260088201550161051281546122ea565b601f8111610653575b50602873115b595c99d95b98de481dda5d1a191c985dd85b60621b01905561054583600e54612441565b600e5561055483600d54612267565b600d5561056260105461244e565b60105560405163a9059cbb60e01b81526001600160a01b03909116600482015260248101929092529092839190829060009082906044820190565b03927f0000000000000000000000000000000000000000000000000000000000000000165af19081156106475760009161061a575b5015610608577f73e427fbefc7f810a4172174bf11154925b5842a97d559e8cdb31b1f7f273b2491604051908152a36001600b55005b6040516312171d8360e31b8152600490fd5b61063a9150823d8411610640575b6106328183612206565b810190612274565b856105d2565b503d610628565b6040513d6000823e3d90fd5b61066e9082600052601f87600020910160051c810190612324565b8a61051b565b6040516302aee1fb60e21b8152600490fd5b604051633941451160e11b8152600490fd5b60405163d92e233d60e01b8152600490fd5b6040516345f5ce8b60e11b8152600490fd5b346102425760208060031936011261024257600435600052600180825260406000209160018060a01b039283600282015416936003820154166004820154600583015460068401549160078501549360ff60098701541696600a870154986040518098600b6000910192835493610732856122ea565b948585528683821691826000146107e35750506001146107a3575b505061075b92500388612206565b604051998a5289015260408801526060870152608086015260a0850152600682101561039d57839261023e9260c085015260e084015261012080610100850152830190612227565b85925060005281600020906000915b8583106107ca57505061075b93508201018d8061074d565b819484848396959654920101520191018a9285926107b2565b925093505061075b94915060ff191682840152151560051b8201018d8061074d565b3461024257600036600319011261024257604051806007548083526020809301809160076000527fa66cc928b5edb82af9bd49922954155ab7b0942694bea4ce44661d9a8736c6889060005b868282106108b057868661086782880383612206565b604051928392818401908285525180915260408401929160005b82811061089057505050500390f35b83516001600160a01b031685528695509381019392810192600101610881565b83546001600160a01b031685529093019260019283019201610851565b346102425760003660031901126102425760e0600c54600d54600e54600f54601054906007549260085494604051968752602087015260408601526060850152608084015260a083015260c0820152f35b346102425760a0366003190112610242576109376120c3565b61093f6120d9565b906084356001600160401b0381116102425761095f903690600401612154565b600054909291906001600160a01b031633036103b35760ff600a5416610ecb576002600b54146106aa576002600b556001600160a01b03821615610698576001600160a01b038416156106985760443515610eb957426064351115610ea7576109ce606435604435868561271d565b6040516323b872dd60e01b81526001600160a01b038416600482015230602482015260448035908201529093906020818060648101038160007f00000000000000000000000000000000000000000000000000000000000000006001600160a01b03165af190811561064757600091610e88575b5015610608576003549460405195610a59876121b4565b85875260208701526001600160a01b038481166040880152811660608701526044356080870181905260a08701524260c087015260643560e0870152600061010087018190526001610120880152610140870152610ab836838561228c565b610160870152604051610aca816121d0565b6000815261018087015260006101a087015260006101c0870152846000526001602052604060002091865183556020870151600184015560018060a01b036040880151166001600160601b0360a01b6002850154161760028401556003830160018060a01b036060890151166001600160601b0360a01b8254161790556080870151600484015560a0870151600584015560c0870151600684015560e087015160078401556101008701516008840155610120870151600681101561039d57610b9690600985016122d2565b610140870151600a8401556101608701518051906001600160401b038211610df5578190610bd482610bcb600b8901546122ea565b600b890161233b565b602090601f8311600114610e1657600092610e0b575b50508160011b916000199060031b1c191617600b8401555b610180870151918251976001600160401b038911610df557888894610c3960209b610c30600c8a01546122ea565b600c8a0161233b565b8a90601f8311600114610d6f579180600080516020612787833981519152979892600e94600092610d64575b50508160011b916000199060031b1c191617600c8201555b6101a0830151600d82015501906101c060018060a01b03910151166001600160601b0360a01b825416179055610cb284612382565b60018060a01b03861660005260048852610cd08460406000206123ca565b60018060a01b03811660005260058852610cee8460406000206123ca565b610cfc604435600c54612267565b600c55610d0d604435600e54612267565b600e55610d1b600f546123ff565b600f55610d296010546123ff565b6010556040516001600160a01b03918216969091169490918291610d5491906064356044358561240e565b0390a46001600b55604051908152f35b015190508d80610c65565b600c88939298016000528b6000209060005b601f1984168110610ddb5750916001916000805160206127878339815191529899600e959483601f19811610610dc2575b505050811b01600c820155610c7d565b015160001960f88460031b161c191690558d8080610db2565b818a01518355988d01988c98506001909201918d01610d81565b634e487b7160e01b600052604160045260246000fd5b015190508980610bea565b9250600b86016000526020600020906000935b601f1984168510610e6d576001945083601f19811610610e54575b505050811b01600b840155610c02565b015160001960f88460031b161c19169055898080610e44565b81810151835560209485019460019093019290910190610e29565b610ea1915060203d602011610640576106328183612206565b86610a42565b6040516352aba6d360e11b8152600490fd5b604051631f2a200560e01b8152600490fd5b60405163ab35696f60e01b8152600490fd5b3461024257600036600319011261024257604051806003548083526020809301809160036000527fc2575a0e9e593c00f959f8c92f12db2869c3395a3b0502d05e2516446f71f85b9060005b86828210610f7f578686610f3f82880383612206565b604051928392818401908285525180915260408401929160005b828110610f6857505050500390f35b835185528695509381019392810192600101610f59565b835485529093019260019283019201610f29565b34610242576020366003190112610242576004356003548110156102425760209060036000527fc2575a0e9e593c00f959f8c92f12db2869c3395a3b0502d05e2516446f71f85b0154604051908152f35b3461024257604036600319011261024257600435602435816000526001602052604060002060ff600982015416600681101561039d57801561038b57600103610379576002810154336001600160a01b03918216141590816110b1575b506103b357600701805480831115610ea7576312cc0300420180421161109b578311610ea757827f8492cf8182a54d275aede16b3ea81b7116d0c80324e011e17d24f5c41d7135d4936040935582519182526020820152a2005b634e487b7160e01b600052601160045260246000fd5b90506000541633141584611041565b346102425760208060031936011261024257600435336000526006825260ff604060002054161561126a578060005260018252604060002060028352604060002060ff600983015416600681101561039d57801561038b576001036103795760078201544210611258573360005280845260ff60406000205416611246576001903360005280855260406000208260ff1982541617905501908154600160401b811015610df55761117c81600a94600161119a9401815561213c565b81546001600160a01b0360039290921b91821b19163390911b179055565b016111a581546123ff565b809155600854906040518181528285820152837f265e3e9881e2fd6c2f631f95d2d084521cecc4d14ec1839ff0501f56a2e3ff5960403393a310156111e657005b60405190606082018281106001600160401b03821117610df557610435937f4175746f2d72656c65617365642061667465722073756666696369656e7420619160405260288452830152677070726f76616c7360c01b60408301526124f2565b60405163080fc0bd60e11b8152600490fd5b604051636e8f295d60e01b8152600490fd5b60405163143606b960e31b8152600490fd5b346102425760003660031901126102425761023e60405161129c816121eb565b600b81526a08886844098dec6d684def60ab1b6020820152604051918291602083526020830190612227565b34610242576000366003190112610242576020600f54604051908152f35b34610242576000366003190112610242576020600854604051908152f35b34610242576000366003190112610242576000546001600160a01b031633036103b357600160ff19600a541617600a55337f62e78cea01bee320cd4e420270b5ea74000d11b0c9f74754ebdbfc544b05a258600080a2005b3461024257602036600319011261024257600054600435906001600160a01b031633036103b3578060005260016020526040600020600d810190815415610686576000600e9255016001600160601b0360a01b81541690557faca715ee8486991a0434ae970d7398267671fedabf3020d53ced52c9490425c9600080a2005b34610242576020366003190112610242576001600160a01b036113fc6120c3565b166000526006602052602060ff604060002054166040519015158152f35b3461024257602036600319011261024257600054600435906001600160a01b031633036103b35780156114895760075481116114895760407f98d8faeedf88f6341105a65c72ee2d5ad053386b2012b676290811538b267a4f91600854908060085582519182526020820152a1005b60405163458bb42160e01b8152600490fd5b34610242576040366003190112610242576114b46120c3565b6001600160a01b0316600090815260046020526040902080546024359190821015610242576020916114e59161213c565b90546040519160031b1c8152f35b34610242576000366003190112610242576020604051610e108152f35b34610242576020366003190112610242576115296120c3565b600054906001600160a01b0380831691338390036103b35716918215610698576001600160a01b031916821760009081557ff8ccb027dfcd135e000e9d45e6cc2d662578a8825d4c45b5e32e0adf67e79ec69080a3005b3461024257600036600319011261024257602060ff600a54166040519015158152f35b34610242576000366003190112610242576020600c54604051908152f35b346102425760003660031901126102425760206040516312cc03008152f35b34610242576115ee36612181565b6000549192916001600160a01b031633036103b3576002600b54146106aa576002600b55816000526001602052604060002060ff600982015416600681101561039d57801561038b57600103610379576007015442106112585761165d9261165791369161228c565b906124f2565b6001600b55005b34610242576000366003190112610242576020601054604051908152f35b3461024257602036600319011261024257600054600435906001600160a01b031633036103b35762015180811061148957600955005b346102425760003660031901126102425761023e6040516116d8816121eb565b601b81527f4469676974616c20436f6d6d65726369616c2042616e6b204c746400000000006020820152604051918291602083526020830190612227565b34610242576000366003190112610242576000546001600160a01b031633036103b35760ff19600a5416600a55337f5db9ee0a495bf2e6ff9c91a7834c1ba4fdd244a5e8aa4e537bd38aeae4b073aa600080a2005b34610242576080366003190112610242576117846120c3565b6064356001600160401b038111610242576117a3903690600401612154565b60ff600a5416610ecb576002600b54146106aa576002600b556001600160a01b038316156106985760243515610eb957610e10420180421161109b576044351115610ea7576312cc0300420180421161109b5760443511610ea75761180e604435602435853361271d565b6040516323b872dd60e01b81523360048201523060248083019190915235604482015290929060208160648160006001600160a01b037f0000000000000000000000000000000000000000000000000000000000000000165af190811561064757600091611c87575b5015610608576003546040519061188d826121b4565b84825260208201523360408201526001600160a01b03851660608201526024356080820181905260a08201524260c082015260443560e08201526000610100820181905260016101208301526101408201526118ea36848461228c565b6101608201526040516118fc816121d0565b6000815261018082015260006101a082015260006101c0820152836000526001602052604060002094815186556020820151600187015560018060a01b036040830151166001600160601b0360a01b6002880154161760028701556003860160018060a01b036060840151166001600160601b0360a01b8254161790556080820151600487015560a0820151600587015560c0820151600687015560e082015160078701556101008201516008870155610120820151600681101561039d576119c890600988016122d2565b610140820151600a8701556101608201518051906001600160401b038211610df5578190611a06826119fd600b8c01546122ea565b600b8c0161233b565b602090601f8311600114611c1557600092611c0a575b50508160011b916000199060031b1c191617600b8701555b610180820151918251966001600160401b038811610df557878794611a6b60209a611a62600c8601546122ea565b600c860161233b565b8990601f8311600114611b82579282610d549593600e936000805160206127878339815191529896600092611b77575b50508160011b916000199060031b1c191617600c8201555b6101a0830151600d82015501906101c060018060a01b03910151166001600160601b0360a01b825416179055611ae884612382565b3360005260048852611afe8460406000206123ca565b60018060a01b03811660005260058852611b1c8460406000206123ca565b611b2a602435600c54612267565b600c55611b3b602435600e54612267565b600e55611b49600f546123ff565b600f55611b576010546123ff565b60105560405191829160018060a01b03169633966044356024358561240e565b015190508d80611a9b565b90600c84016000528a6000209160005b601f1985168110611bf0575083600e93600080516020612787833981519152989693600193610d549997601f19811610611bd7575b505050811b01600c820155611ab3565b015160001960f88460031b161c191690558d8080611bc7565b8183015184558b9850600190930192918c01918c01611b92565b015190508880611a1c565b9250600b89016000526020600020906000935b601f1984168510611c6c576001945083601f19811610611c53575b505050811b01600b870155611a34565b015160001960f88460031b161c19169055888080611c43565b81810151835560209485019460019093019290910190611c28565b611ca0915060203d602011610640576106328183612206565b85611877565b3461024257611cb436612181565b6000549192916001600160a01b031633141580611d43575b61126a576002600b54146106aa576002600b55816000526001602052604060002060ff600982015416600681101561039d57801561038b57600103610379576007810154421061125857600a015460085411611d315761165d9261165791369161228c565b604051638af69cf160e01b8152600490fd5b5033600052600660205260ff6040600020541615611ccc565b3461024257604036600319011261024257611d756120d9565b600435600052600260205260406000209060018060a01b0316600052602052602060ff604060002054166040519015158152f35b346102425760203660031901126102425760043560075481101561024257611dd26020916120ef565b905460405160039290921b1c6001600160a01b03168152f35b34610242576020366003190112610242576004356000526001602052604060002060ff60098201541690600682101561039d576001602092149081611e4d575b81611e3c575b506040519015158152f35b600a91500154600854111582611e31565b60078101544210159150611e2b565b34610242576000366003190112610242576040516370a0823160e01b81523060048201526020816024817f00000000000000000000000000000000000000000000000000000000000000006001600160a01b03165afa801561064757600090611ecb575b602090604051908152f35b506020813d8211611ef5575b81611ee460209383612206565b810103126102425760209051611ec0565b3d9150611ed7565b3461024257604036600319011261024257611f166120c3565b6001600160a01b0316600090815260056020526040902080546024359190821015610242576020916114e59161213c565b3461024257602036600319011261024257611f606120c3565b6000546001600160a01b039190821633036120b45781169081600052600660205260ff604060002054161561126a57600790815460085410156120a25790826000526006602052604060002060ff19815416905560005b8154908181101561209957839185611fce836120ef565b969054600397881b1c1614611ff25750611fea919293506123ff565b919091611fb7565b6000199181830191821161109b5761201d8461201061203c946120ef565b905490891b1c16916120ef565b90919082549060031b9160018060a01b03809116831b921b1916179055565b8254801561208357019261204f846120ef565b81939154921b1b19169055555b7f3525e22824a8a7df2c9a6029941c824cf95b6447f1e13d5128fd3826d35afe8b600080a2005b634e487b7160e01b600052603160045260246000fd5b5050505061205c565b604051630106ee8360e21b8152600490fd5b637bfa4b9f60e01b8352600483fd5b600435906001600160a01b038216820361024257565b602435906001600160a01b038216820361024257565b6007548110156121265760076000527fa66cc928b5edb82af9bd49922954155ab7b0942694bea4ce44661d9a8736c6880190600090565b634e487b7160e01b600052603260045260246000fd5b80548210156121265760005260206000200190600090565b9181601f84011215610242578235916001600160401b038311610242576020838186019501011161024257565b9060406003198301126102425760043591602435906001600160401b038211610242576121b091600401612154565b9091565b6101e081019081106001600160401b03821117610df557604052565b602081019081106001600160401b03821117610df557604052565b604081019081106001600160401b03821117610df557604052565b90601f801991011681019081106001600160401b03821117610df557604052565b919082519283825260005b848110612253575050826000602080949584010152601f8019910116010190565b602081830181015184830182015201612232565b9190820180921161109b57565b90816020910312610242575180151581036102425790565b9291926001600160401b038211610df557604051916122b5601f8201601f191660200184612206565b829481845281830111610242578281602093846000960137010152565b90600681101561039d5760ff80198354169116179055565b90600182811c9216801561231a575b602083101461230457565b634e487b7160e01b600052602260045260246000fd5b91607f16916122f9565b81811061232f575050565b60008155600101612324565b9190601f811161234a57505050565b612376926000526020600020906020601f840160051c83019310612378575b601f0160051c0190612324565b565b9091508190612369565b600354600160401b811015610df55760018101806003558110156121265760036000527fc2575a0e9e593c00f959f8c92f12db2869c3395a3b0502d05e2516446f71f85b0155565b8054600160401b811015610df5576123e79160018201815561213c565b819291549060031b91821b91600019901b1916179055565b600019811461109b5760010190565b928492608095928552602085015260606040850152816060850152848401376000828201840152601f01601f1916010190565b9190820391821161109b57565b801561109b576000190190565b6001600160a01b03811690811561069857600090828252600660205260408220805460ff81166124eb5760ff19166001179055600754600160401b8110156124d7577f47d1c22a25bb3a5d4e481b9b1e6944c2eade3181a0a20b495ed61d35b5323f24929161201d8260016124d394016007556120ef565b80a2565b634e487b7160e01b83526041600452602483fd5b5050505050565b91906000928084526001936020908582526040808220916004830192818454945560098101600360ff19825416179055426008820155600c810187516001600160401b038111612709576125508161254a84546122ea565b8461233b565b869a601f82116001146126a557818091869798999a9b9c9d6003979361269a575b501b9160001990861b1c19161790555b61258d85600e54612441565b600e5561259c85600d54612267565b600d556125aa60105461244e565b601055018054835163a9059cbb60e01b81526001600160a01b039182166004820152602481018690529092908681604481857f000000000000000000000000000000000000000000000000000000000000000089165af191821561268f5791612672575b5015612661577fcea6b3da8a40b011b9dac53851fb70683de1fe46f38d7ede94fc38617cae10a894939291612656915416966060835195869586528501526060840190612227565b9042908301520390a3565b82516312171d8360e31b8152600490fd5b6126899150863d8811610640576106328183612206565b3861260e565b8551903d90823e3d90fd5b8d0151925038612571565b828552878520601f1983169c919291868e5b81106126f357508260039798999a9b9c9d9e106126db575b5050811b019055612581565b8c015160001983881b60f8161c1916905538806126cf565b8c820151835591840191908a01908a018e6126b7565b634e487b7160e01b84526041600452602484fd5b919092600f54916040519360208501956001600160601b0319809260601b16875260601b166034850152604884015260688301524260888301524660a883015260c882015260c8815261010081018181106001600160401b03821117610df5576040525190209056fe0157a9e78215a8f614203fef4244fa7708ebc92ef1ab6037bcd79f85be750c68a2646970667358221220cfd93d4167cf51d895581f20bd563e70f5c2decdcd4e60ec7b104887ee969f5564736f6c63430008140033",
  "linkReferences": {},
  "deployedLinkReferences": {},
  "immutableReferences": {
    "19564": [
      {
        "length": 32,
        "start": 605
      },
      {
        "length": 32,
        "start": 1441
      },
      {
        "length": 32,
        "start": 2569
      },
      {
        "length": 32,
        "start": 6214
      },
      {
        "length": 32,
        "start": 7816
      },
      {
        "length": 32,
        "start": 9694
      }
    ]
  },
  "inputSourceName": "project/contracts/DCBTreasury/v2/LockBox.sol",
  "buildInfoId": "solc-0_8_20-a1c61539025f0654ad3a75bdb2b55239eb68e7f3"
}