{
  "_format": "hh3-artifact-1",
  "contractName": "PostQuantumSignatureVerifier",
  "sourceName": "contracts/DCBTreasury/v3/quantum/PostQuantumSignatureVerifier.sol",
  "abi": [
    {
      "inputs": [
        {
          "internalType": "address",
          "name": "_admin",
          "type": "address"
        }
      ],
      "stateMutability": "nonpayable",
      "type": "constructor"
    },
    {
      "inputs": [],
      "name": "AccessControlBadConfirmation",
      "type": "error"
    },
    {
      "inputs": [
        {
          "internalType": "address",
          "name": "account",
          "type": "address"
        },
        {
          "internalType": "bytes32",
          "name": "neededRole",
          "type": "bytes32"
        }
      ],
      "name": "AccessControlUnauthorizedAccount",
      "type": "error"
    },
    {
      "inputs": [],
      "name": "ECDSAInvalidSignature",
      "type": "error"
    },
    {
      "inputs": [
        {
          "internalType": "uint256",
          "name": "length",
          "type": "uint256"
        }
      ],
      "name": "ECDSAInvalidSignatureLength",
      "type": "error"
    },
    {
      "inputs": [
        {
          "internalType": "bytes32",
          "name": "s",
          "type": "bytes32"
        }
      ],
      "name": "ECDSAInvalidSignatureS",
      "type": "error"
    },
    {
      "inputs": [],
      "name": "EnforcedPause",
      "type": "error"
    },
    {
      "inputs": [],
      "name": "ExpectedPause",
      "type": "error"
    },
    {
      "anonymous": false,
      "inputs": [
        {
          "indexed": true,
          "internalType": "bytes32",
          "name": "signatureId",
          "type": "bytes32"
        },
        {
          "indexed": false,
          "internalType": "bytes32",
          "name": "messageHash",
          "type": "bytes32"
        },
        {
          "indexed": false,
          "internalType": "bool",
          "name": "ecdsaValid",
          "type": "bool"
        },
        {
          "indexed": false,
          "internalType": "bool",
          "name": "pqcValid",
          "type": "bool"
        },
        {
          "indexed": false,
          "internalType": "bool",
          "name": "overallValid",
          "type": "bool"
        }
      ],
      "name": "HybridSignatureVerified",
      "type": "event"
    },
    {
      "anonymous": false,
      "inputs": [
        {
          "indexed": true,
          "internalType": "bytes32",
          "name": "keyId",
          "type": "bytes32"
        },
        {
          "indexed": true,
          "internalType": "address",
          "name": "owner",
          "type": "address"
        },
        {
          "indexed": false,
          "internalType": "enum PostQuantumSignatureVerifier.PQCAlgorithm",
          "name": "algorithm",
          "type": "uint8"
        },
        {
          "indexed": false,
          "internalType": "bytes32",
          "name": "publicKeyHash",
          "type": "bytes32"
        },
        {
          "indexed": false,
          "internalType": "uint256",
          "name": "expiresAt",
          "type": "uint256"
        }
      ],
      "name": "PQCPublicKeyRegistered",
      "type": "event"
    },
    {
      "anonymous": false,
      "inputs": [
        {
          "indexed": true,
          "internalType": "bytes32",
          "name": "keyId",
          "type": "bytes32"
        },
        {
          "indexed": true,
          "internalType": "address",
          "name": "owner",
          "type": "address"
        },
        {
          "indexed": false,
          "internalType": "string",
          "name": "reason",
          "type": "string"
        }
      ],
      "name": "PQCPublicKeyRevoked",
      "type": "event"
    },
    {
      "anonymous": false,
      "inputs": [
        {
          "indexed": false,
          "internalType": "address",
          "name": "account",
          "type": "address"
        }
      ],
      "name": "Paused",
      "type": "event"
    },
    {
      "anonymous": false,
      "inputs": [
        {
          "indexed": false,
          "internalType": "uint8",
          "name": "oldLevel",
          "type": "uint8"
        },
        {
          "indexed": false,
          "internalType": "uint8",
          "name": "newLevel",
          "type": "uint8"
        },
        {
          "indexed": false,
          "internalType": "string",
          "name": "reason",
          "type": "string"
        }
      ],
      "name": "QuantumThreatLevelUpdated",
      "type": "event"
    },
    {
      "anonymous": false,
      "inputs": [
        {
          "indexed": true,
          "internalType": "bytes32",
          "name": "role",
          "type": "bytes32"
        },
        {
          "indexed": true,
          "internalType": "bytes32",
          "name": "previousAdminRole",
          "type": "bytes32"
        },
        {
          "indexed": true,
          "internalType": "bytes32",
          "name": "newAdminRole",
          "type": "bytes32"
        }
      ],
      "name": "RoleAdminChanged",
      "type": "event"
    },
    {
      "anonymous": false,
      "inputs": [
        {
          "indexed": true,
          "internalType": "bytes32",
          "name": "role",
          "type": "bytes32"
        },
        {
          "indexed": true,
          "internalType": "address",
          "name": "account",
          "type": "address"
        },
        {
          "indexed": true,
          "internalType": "address",
          "name": "sender",
          "type": "address"
        }
      ],
      "name": "RoleGranted",
      "type": "event"
    },
    {
      "anonymous": false,
      "inputs": [
        {
          "indexed": true,
          "internalType": "bytes32",
          "name": "role",
          "type": "bytes32"
        },
        {
          "indexed": true,
          "internalType": "address",
          "name": "account",
          "type": "address"
        },
        {
          "indexed": true,
          "internalType": "address",
          "name": "sender",
          "type": "address"
        }
      ],
      "name": "RoleRevoked",
      "type": "event"
    },
    {
      "anonymous": false,
      "inputs": [
        {
          "indexed": true,
          "internalType": "bytes32",
          "name": "signatureId",
          "type": "bytes32"
        },
        {
          "indexed": true,
          "internalType": "bytes32",
          "name": "messageHash",
          "type": "bytes32"
        },
        {
          "indexed": true,
          "internalType": "address",
          "name": "signer",
          "type": "address"
        },
        {
          "indexed": false,
          "internalType": "enum PostQuantumSignatureVerifier.PQCAlgorithm",
          "name": "algorithm",
          "type": "uint8"
        },
        {
          "indexed": false,
          "internalType": "bool",
          "name": "isValid",
          "type": "bool"
        },
        {
          "indexed": false,
          "internalType": "bool",
          "name": "isHybrid",
          "type": "bool"
        }
      ],
      "name": "SignatureVerified",
      "type": "event"
    },
    {
      "anonymous": false,
      "inputs": [
        {
          "indexed": true,
          "internalType": "address",
          "name": "verifier",
          "type": "address"
        },
        {
          "indexed": false,
          "internalType": "bool",
          "name": "isTrusted",
          "type": "bool"
        }
      ],
      "name": "TrustedVerifierUpdated",
      "type": "event"
    },
    {
      "anonymous": false,
      "inputs": [
        {
          "indexed": false,
          "internalType": "address",
          "name": "account",
          "type": "address"
        }
      ],
      "name": "Unpaused",
      "type": "event"
    },
    {
      "anonymous": false,
      "inputs": [
        {
          "indexed": false,
          "internalType": "enum PostQuantumSignatureVerifier.VerificationMode",
          "name": "oldMode",
          "type": "uint8"
        },
        {
          "indexed": false,
          "internalType": "enum PostQuantumSignatureVerifier.VerificationMode",
          "name": "newMode",
          "type": "uint8"
        }
      ],
      "name": "VerificationModeChanged",
      "type": "event"
    },
    {
      "inputs": [],
      "name": "DEFAULT_ADMIN_ROLE",
      "outputs": [
        {
          "internalType": "bytes32",
          "name": "",
          "type": "bytes32"
        }
      ],
      "stateMutability": "view",
      "type": "function"
    },
    {
      "inputs": [],
      "name": "KEY_MANAGER_ROLE",
      "outputs": [
        {
          "internalType": "bytes32",
          "name": "",
          "type": "bytes32"
        }
      ],
      "stateMutability": "view",
      "type": "function"
    },
    {
      "inputs": [],
      "name": "ML_DSA_65_PK_SIZE",
      "outputs": [
        {
          "internalType": "uint256",
          "name": "",
          "type": "uint256"
        }
      ],
      "stateMutability": "view",
      "type": "function"
    },
    {
      "inputs": [],
      "name": "ML_DSA_65_SIG_SIZE",
      "outputs": [
        {
          "internalType": "uint256",
          "name": "",
          "type": "uint256"
        }
      ],
      "stateMutability": "view",
      "type": "function"
    },
    {
      "inputs": [],
      "name": "ML_DSA_87_PK_SIZE",
      "outputs": [
        {
          "internalType": "uint256",
          "name": "",
          "type": "uint256"
        }
      ],
      "stateMutability": "view",
      "type": "function"
    },
    {
      "inputs": [],
      "name": "ML_DSA_87_SIG_SIZE",
      "outputs": [
        {
          "internalType": "uint256",
          "name": "",
          "type": "uint256"
        }
      ],
      "stateMutability": "view",
      "type": "function"
    },
    {
      "inputs": [],
      "name": "PQC_ADMIN_ROLE",
      "outputs": [
        {
          "internalType": "bytes32",
          "name": "",
          "type": "bytes32"
        }
      ],
      "stateMutability": "view",
      "type": "function"
    },
    {
      "inputs": [],
      "name": "SLH_DSA_128F_PK_SIZE",
      "outputs": [
        {
          "internalType": "uint256",
          "name": "",
          "type": "uint256"
        }
      ],
      "stateMutability": "view",
      "type": "function"
    },
    {
      "inputs": [],
      "name": "SLH_DSA_128F_SIG_SIZE",
      "outputs": [
        {
          "internalType": "uint256",
          "name": "",
          "type": "uint256"
        }
      ],
      "stateMutability": "view",
      "type": "function"
    },
    {
      "inputs": [],
      "name": "SLH_DSA_256F_PK_SIZE",
      "outputs": [
        {
          "internalType": "uint256",
          "name": "",
          "type": "uint256"
        }
      ],
      "stateMutability": "view",
      "type": "function"
    },
    {
      "inputs": [],
      "name": "SLH_DSA_256F_SIG_SIZE",
      "outputs": [
        {
          "internalType": "uint256",
          "name": "",
          "type": "uint256"
        }
      ],
      "stateMutability": "view",
      "type": "function"
    },
    {
      "inputs": [],
      "name": "STANDARD",
      "outputs": [
        {
          "internalType": "string",
          "name": "",
          "type": "string"
        }
      ],
      "stateMutability": "view",
      "type": "function"
    },
    {
      "inputs": [],
      "name": "VERIFIER_ROLE",
      "outputs": [
        {
          "internalType": "bytes32",
          "name": "",
          "type": "bytes32"
        }
      ],
      "stateMutability": "view",
      "type": "function"
    },
    {
      "inputs": [],
      "name": "VERSION",
      "outputs": [
        {
          "internalType": "string",
          "name": "",
          "type": "string"
        }
      ],
      "stateMutability": "view",
      "type": "function"
    },
    {
      "inputs": [],
      "name": "activateQuantumEmergency",
      "outputs": [],
      "stateMutability": "nonpayable",
      "type": "function"
    },
    {
      "inputs": [
        {
          "internalType": "enum PostQuantumSignatureVerifier.PQCAlgorithm",
          "name": "",
          "type": "uint8"
        }
      ],
      "name": "algorithmUsage",
      "outputs": [
        {
          "internalType": "uint256",
          "name": "",
          "type": "uint256"
        }
      ],
      "stateMutability": "view",
      "type": "function"
    },
    {
      "inputs": [],
      "name": "defaultAlgorithm",
      "outputs": [
        {
          "internalType": "enum PostQuantumSignatureVerifier.PQCAlgorithm",
          "name": "",
          "type": "uint8"
        }
      ],
      "stateMutability": "view",
      "type": "function"
    },
    {
      "inputs": [
        {
          "internalType": "address",
          "name": "owner",
          "type": "address"
        }
      ],
      "name": "getActiveKeyForOwner",
      "outputs": [
        {
          "internalType": "bytes32",
          "name": "",
          "type": "bytes32"
        }
      ],
      "stateMutability": "view",
      "type": "function"
    },
    {
      "inputs": [
        {
          "internalType": "enum PostQuantumSignatureVerifier.PQCAlgorithm",
          "name": "algorithm",
          "type": "uint8"
        }
      ],
      "name": "getAlgorithmName",
      "outputs": [
        {
          "internalType": "string",
          "name": "",
          "type": "string"
        }
      ],
      "stateMutability": "pure",
      "type": "function"
    },
    {
      "inputs": [
        {
          "internalType": "address",
          "name": "owner",
          "type": "address"
        }
      ],
      "name": "getOwnerKeys",
      "outputs": [
        {
          "internalType": "bytes32[]",
          "name": "",
          "type": "bytes32[]"
        }
      ],
      "stateMutability": "view",
      "type": "function"
    },
    {
      "inputs": [
        {
          "internalType": "bytes32",
          "name": "keyId",
          "type": "bytes32"
        }
      ],
      "name": "getPublicKey",
      "outputs": [
        {
          "components": [
            {
              "internalType": "bytes32",
              "name": "keyId",
              "type": "bytes32"
            },
            {
              "internalType": "address",
              "name": "owner",
              "type": "address"
            },
            {
              "internalType": "enum PostQuantumSignatureVerifier.PQCAlgorithm",
              "name": "algorithm",
              "type": "uint8"
            },
            {
              "internalType": "bytes",
              "name": "publicKeyData",
              "type": "bytes"
            },
            {
              "internalType": "bytes32",
              "name": "publicKeyHash",
              "type": "bytes32"
            },
            {
              "internalType": "bool",
              "name": "isActive",
              "type": "bool"
            },
            {
              "internalType": "uint256",
              "name": "createdAt",
              "type": "uint256"
            },
            {
              "internalType": "uint256",
              "name": "expiresAt",
              "type": "uint256"
            },
            {
              "internalType": "uint256",
              "name": "usageCount",
              "type": "uint256"
            },
            {
              "internalType": "string",
              "name": "metadata",
              "type": "string"
            }
          ],
          "internalType": "struct PostQuantumSignatureVerifier.PQCPublicKey",
          "name": "",
          "type": "tuple"
        }
      ],
      "stateMutability": "view",
      "type": "function"
    },
    {
      "inputs": [
        {
          "internalType": "bytes32",
          "name": "role",
          "type": "bytes32"
        }
      ],
      "name": "getRoleAdmin",
      "outputs": [
        {
          "internalType": "bytes32",
          "name": "",
          "type": "bytes32"
        }
      ],
      "stateMutability": "view",
      "type": "function"
    },
    {
      "inputs": [
        {
          "internalType": "bytes32",
          "name": "sigId",
          "type": "bytes32"
        }
      ],
      "name": "getSignatureRecord",
      "outputs": [
        {
          "components": [
            {
              "internalType": "bytes32",
              "name": "signatureId",
              "type": "bytes32"
            },
            {
              "internalType": "bytes32",
              "name": "messageHash",
              "type": "bytes32"
            },
            {
              "internalType": "address",
              "name": "signer",
              "type": "address"
            },
            {
              "internalType": "enum PostQuantumSignatureVerifier.PQCAlgorithm",
              "name": "algorithm",
              "type": "uint8"
            },
            {
              "internalType": "bool",
              "name": "isValid",
              "type": "bool"
            },
            {
              "internalType": "uint256",
              "name": "verifiedAt",
              "type": "uint256"
            },
            {
              "internalType": "bytes32",
              "name": "classicalSigHash",
              "type": "bytes32"
            },
            {
              "internalType": "bytes32",
              "name": "pqcSigHash",
              "type": "bytes32"
            }
          ],
          "internalType": "struct PostQuantumSignatureVerifier.SignatureRecord",
          "name": "",
          "type": "tuple"
        }
      ],
      "stateMutability": "view",
      "type": "function"
    },
    {
      "inputs": [],
      "name": "getStatistics",
      "outputs": [
        {
          "internalType": "uint256",
          "name": "_totalKeys",
          "type": "uint256"
        },
        {
          "internalType": "uint256",
          "name": "_totalVerifications",
          "type": "uint256"
        },
        {
          "internalType": "enum PostQuantumSignatureVerifier.VerificationMode",
          "name": "_currentMode",
          "type": "uint8"
        },
        {
          "internalType": "enum PostQuantumSignatureVerifier.PQCAlgorithm",
          "name": "_defaultAlgorithm",
          "type": "uint8"
        }
      ],
      "stateMutability": "view",
      "type": "function"
    },
    {
      "inputs": [
        {
          "internalType": "bytes32",
          "name": "role",
          "type": "bytes32"
        },
        {
          "internalType": "address",
          "name": "account",
          "type": "address"
        }
      ],
      "name": "grantRole",
      "outputs": [],
      "stateMutability": "nonpayable",
      "type": "function"
    },
    {
      "inputs": [
        {
          "internalType": "bytes32",
          "name": "role",
          "type": "bytes32"
        },
        {
          "internalType": "address",
          "name": "account",
          "type": "address"
        }
      ],
      "name": "hasRole",
      "outputs": [
        {
          "internalType": "bool",
          "name": "",
          "type": "bool"
        }
      ],
      "stateMutability": "view",
      "type": "function"
    },
    {
      "inputs": [
        {
          "internalType": "bytes32",
          "name": "messageHash",
          "type": "bytes32"
        },
        {
          "internalType": "address",
          "name": "signer",
          "type": "address"
        },
        {
          "internalType": "bytes",
          "name": "signature",
          "type": "bytes"
        },
        {
          "internalType": "bytes32",
          "name": "pqcKeyHash",
          "type": "bytes32"
        },
        {
          "internalType": "bytes",
          "name": "pqcSig",
          "type": "bytes"
        },
        {
          "internalType": "bytes",
          "name": "verifierAttestation",
          "type": "bytes"
        }
      ],
      "name": "isSignatureValid",
      "outputs": [
        {
          "internalType": "bool",
          "name": "",
          "type": "bool"
        }
      ],
      "stateMutability": "nonpayable",
      "type": "function"
    },
    {
      "inputs": [
        {
          "internalType": "address",
          "name": "",
          "type": "address"
        },
        {
          "internalType": "uint256",
          "name": "",
          "type": "uint256"
        }
      ],
      "name": "ownerToKeys",
      "outputs": [
        {
          "internalType": "bytes32",
          "name": "",
          "type": "bytes32"
        }
      ],
      "stateMutability": "view",
      "type": "function"
    },
    {
      "inputs": [],
      "name": "pause",
      "outputs": [],
      "stateMutability": "nonpayable",
      "type": "function"
    },
    {
      "inputs": [],
      "name": "paused",
      "outputs": [
        {
          "internalType": "bool",
          "name": "",
          "type": "bool"
        }
      ],
      "stateMutability": "view",
      "type": "function"
    },
    {
      "inputs": [
        {
          "internalType": "bytes32",
          "name": "",
          "type": "bytes32"
        }
      ],
      "name": "pqcPublicKeys",
      "outputs": [
        {
          "internalType": "bytes32",
          "name": "keyId",
          "type": "bytes32"
        },
        {
          "internalType": "address",
          "name": "owner",
          "type": "address"
        },
        {
          "internalType": "enum PostQuantumSignatureVerifier.PQCAlgorithm",
          "name": "algorithm",
          "type": "uint8"
        },
        {
          "internalType": "bytes",
          "name": "publicKeyData",
          "type": "bytes"
        },
        {
          "internalType": "bytes32",
          "name": "publicKeyHash",
          "type": "bytes32"
        },
        {
          "internalType": "bool",
          "name": "isActive",
          "type": "bool"
        },
        {
          "internalType": "uint256",
          "name": "createdAt",
          "type": "uint256"
        },
        {
          "internalType": "uint256",
          "name": "expiresAt",
          "type": "uint256"
        },
        {
          "internalType": "uint256",
          "name": "usageCount",
          "type": "uint256"
        },
        {
          "internalType": "string",
          "name": "metadata",
          "type": "string"
        }
      ],
      "stateMutability": "view",
      "type": "function"
    },
    {
      "inputs": [
        {
          "internalType": "bytes32",
          "name": "",
          "type": "bytes32"
        }
      ],
      "name": "publicKeyHashToId",
      "outputs": [
        {
          "internalType": "bytes32",
          "name": "",
          "type": "bytes32"
        }
      ],
      "stateMutability": "view",
      "type": "function"
    },
    {
      "inputs": [
        {
          "internalType": "uint256",
          "name": "",
          "type": "uint256"
        }
      ],
      "name": "publicKeyIds",
      "outputs": [
        {
          "internalType": "bytes32",
          "name": "",
          "type": "bytes32"
        }
      ],
      "stateMutability": "view",
      "type": "function"
    },
    {
      "inputs": [
        {
          "internalType": "address",
          "name": "owner",
          "type": "address"
        },
        {
          "internalType": "enum PostQuantumSignatureVerifier.PQCAlgorithm",
          "name": "algorithm",
          "type": "uint8"
        },
        {
          "internalType": "bytes",
          "name": "publicKeyData",
          "type": "bytes"
        },
        {
          "internalType": "uint256",
          "name": "validityPeriod",
          "type": "uint256"
        },
        {
          "internalType": "string",
          "name": "metadata",
          "type": "string"
        }
      ],
      "name": "registerPublicKey",
      "outputs": [
        {
          "internalType": "bytes32",
          "name": "keyId",
          "type": "bytes32"
        }
      ],
      "stateMutability": "nonpayable",
      "type": "function"
    },
    {
      "inputs": [
        {
          "internalType": "bytes32",
          "name": "role",
          "type": "bytes32"
        },
        {
          "internalType": "address",
          "name": "callerConfirmation",
          "type": "address"
        }
      ],
      "name": "renounceRole",
      "outputs": [],
      "stateMutability": "nonpayable",
      "type": "function"
    },
    {
      "inputs": [
        {
          "internalType": "bytes32",
          "name": "keyId",
          "type": "bytes32"
        },
        {
          "internalType": "string",
          "name": "reason",
          "type": "string"
        }
      ],
      "name": "revokePublicKey",
      "outputs": [],
      "stateMutability": "nonpayable",
      "type": "function"
    },
    {
      "inputs": [
        {
          "internalType": "bytes32",
          "name": "role",
          "type": "bytes32"
        },
        {
          "internalType": "address",
          "name": "account",
          "type": "address"
        }
      ],
      "name": "revokeRole",
      "outputs": [],
      "stateMutability": "nonpayable",
      "type": "function"
    },
    {
      "inputs": [
        {
          "internalType": "enum PostQuantumSignatureVerifier.PQCAlgorithm",
          "name": "algorithm",
          "type": "uint8"
        }
      ],
      "name": "setDefaultAlgorithm",
      "outputs": [],
      "stateMutability": "nonpayable",
      "type": "function"
    },
    {
      "inputs": [
        {
          "internalType": "address",
          "name": "verifier",
          "type": "address"
        },
        {
          "internalType": "bool",
          "name": "isTrusted",
          "type": "bool"
        }
      ],
      "name": "setTrustedVerifier",
      "outputs": [],
      "stateMutability": "nonpayable",
      "type": "function"
    },
    {
      "inputs": [
        {
          "internalType": "enum PostQuantumSignatureVerifier.VerificationMode",
          "name": "newMode",
          "type": "uint8"
        }
      ],
      "name": "setVerificationMode",
      "outputs": [],
      "stateMutability": "nonpayable",
      "type": "function"
    },
    {
      "inputs": [
        {
          "internalType": "uint256",
          "name": "",
          "type": "uint256"
        }
      ],
      "name": "signatureIds",
      "outputs": [
        {
          "internalType": "bytes32",
          "name": "",
          "type": "bytes32"
        }
      ],
      "stateMutability": "view",
      "type": "function"
    },
    {
      "inputs": [
        {
          "internalType": "bytes32",
          "name": "",
          "type": "bytes32"
        }
      ],
      "name": "signatureRecords",
      "outputs": [
        {
          "internalType": "bytes32",
          "name": "signatureId",
          "type": "bytes32"
        },
        {
          "internalType": "bytes32",
          "name": "messageHash",
          "type": "bytes32"
        },
        {
          "internalType": "address",
          "name": "signer",
          "type": "address"
        },
        {
          "internalType": "enum PostQuantumSignatureVerifier.PQCAlgorithm",
          "name": "algorithm",
          "type": "uint8"
        },
        {
          "internalType": "bool",
          "name": "isValid",
          "type": "bool"
        },
        {
          "internalType": "uint256",
          "name": "verifiedAt",
          "type": "uint256"
        },
        {
          "internalType": "bytes32",
          "name": "classicalSigHash",
          "type": "bytes32"
        },
        {
          "internalType": "bytes32",
          "name": "pqcSigHash",
          "type": "bytes32"
        }
      ],
      "stateMutability": "view",
      "type": "function"
    },
    {
      "inputs": [
        {
          "internalType": "bytes4",
          "name": "interfaceId",
          "type": "bytes4"
        }
      ],
      "name": "supportsInterface",
      "outputs": [
        {
          "internalType": "bool",
          "name": "",
          "type": "bool"
        }
      ],
      "stateMutability": "view",
      "type": "function"
    },
    {
      "inputs": [],
      "name": "totalKeys",
      "outputs": [
        {
          "internalType": "uint256",
          "name": "",
          "type": "uint256"
        }
      ],
      "stateMutability": "view",
      "type": "function"
    },
    {
      "inputs": [],
      "name": "totalVerifications",
      "outputs": [
        {
          "internalType": "uint256",
          "name": "",
          "type": "uint256"
        }
      ],
      "stateMutability": "view",
      "type": "function"
    },
    {
      "inputs": [
        {
          "internalType": "address",
          "name": "",
          "type": "address"
        }
      ],
      "name": "trustedVerifiers",
      "outputs": [
        {
          "internalType": "bool",
          "name": "",
          "type": "bool"
        }
      ],
      "stateMutability": "view",
      "type": "function"
    },
    {
      "inputs": [],
      "name": "unpause",
      "outputs": [],
      "stateMutability": "nonpayable",
      "type": "function"
    },
    {
      "inputs": [],
      "name": "verificationMode",
      "outputs": [
        {
          "internalType": "enum PostQuantumSignatureVerifier.VerificationMode",
          "name": "",
          "type": "uint8"
        }
      ],
      "stateMutability": "view",
      "type": "function"
    },
    {
      "inputs": [
        {
          "internalType": "bytes32",
          "name": "messageHash",
          "type": "bytes32"
        },
        {
          "internalType": "bytes",
          "name": "signature",
          "type": "bytes"
        },
        {
          "internalType": "address",
          "name": "expectedSigner",
          "type": "address"
        }
      ],
      "name": "verifyECDSA",
      "outputs": [
        {
          "internalType": "bool",
          "name": "isValid",
          "type": "bool"
        }
      ],
      "stateMutability": "pure",
      "type": "function"
    },
    {
      "inputs": [
        {
          "internalType": "bytes32",
          "name": "messageHash",
          "type": "bytes32"
        },
        {
          "components": [
            {
              "internalType": "bytes",
              "name": "ecdsaSignature",
              "type": "bytes"
            },
            {
              "internalType": "bytes",
              "name": "pqcSignature",
              "type": "bytes"
            },
            {
              "internalType": "enum PostQuantumSignatureVerifier.PQCAlgorithm",
              "name": "pqcAlgorithm",
              "type": "uint8"
            },
            {
              "internalType": "bytes32",
              "name": "pqcPublicKeyHash",
              "type": "bytes32"
            }
          ],
          "internalType": "struct PostQuantumSignatureVerifier.HybridSignature",
          "name": "hybridSig",
          "type": "tuple"
        },
        {
          "internalType": "address",
          "name": "expectedSigner",
          "type": "address"
        },
        {
          "internalType": "bytes",
          "name": "verifierAttestation",
          "type": "bytes"
        }
      ],
      "name": "verifyHybridSignature",
      "outputs": [
        {
          "internalType": "bool",
          "name": "isValid",
          "type": "bool"
        }
      ],
      "stateMutability": "nonpayable",
      "type": "function"
    },
    {
      "inputs": [
        {
          "internalType": "bytes32",
          "name": "messageHash",
          "type": "bytes32"
        },
        {
          "internalType": "bytes32",
          "name": "pqcPublicKeyHash",
          "type": "bytes32"
        },
        {
          "internalType": "bytes32",
          "name": "pqcSignatureHash",
          "type": "bytes32"
        },
        {
          "internalType": "bytes",
          "name": "verifierAttestation",
          "type": "bytes"
        }
      ],
      "name": "verifyPQCSignature",
      "outputs": [
        {
          "internalType": "bool",
          "name": "isValid",
          "type": "bool"
        }
      ],
      "stateMutability": "nonpayable",
      "type": "function"
    }
  ],
  "bytecode": "0x608034620000e157601f620030bc38819003918201601f19168301916001600160401b03831184841017620000e657808492602094604052833981010312620000e157516001600160a01b038116808203620000e15715620000ac57806200006b6200008a92620000fc565b5062000077816200017c565b5062000083816200021e565b50620002bb565b506201030062ffff00196001541617600155604051612d439081620003598239f35b60405162461bcd60e51b815260206004820152600d60248201526c24b73b30b634b21030b236b4b760991b6044820152606490fd5b600080fd5b634e487b7160e01b600052604160045260246000fd5b6001600160a01b031660008181527fad3228b676f7d3cd4284a5443f17f1962b36e491b30a40b2405849e597ba5fb5602052604081205490919060ff166200017857818052816020526040822081835260205260408220600160ff1982541617905533916000805160206200309c8339815191528180a4600190565b5090565b6001600160a01b031660008181527f3800a64ce92fbf51f6ab12d5c9c532f5eec76292277273c52132b341e70e996460205260408120549091907f94dd6a691adaa8a6cb4ba0c2e7d684c2b62c8eb97cdbec191eccb34f5bc08a669060ff166200021957808352826020526040832082845260205260408320600160ff198254161790556000805160206200309c833981519152339380a4600190565b505090565b6001600160a01b031660008181527f91ac135a7759c3de66c9ee046e846ac2c98f3f5f66d7c5e3fac327dc963f10f360205260408120549091907f1b1ee864c53639d7462b773f7c8b4cea14a6ae3615743b9373a3a5879770711c9060ff166200021957808352826020526040832082845260205260408320600160ff198254161790556000805160206200309c833981519152339380a4600190565b6001600160a01b031660008181527f1da0b5176dfe03406af5a6eed66ca01dda9b45ac4da671c3fa379cb93717ef8160205260408120549091907f0ce23c3e399818cfee81a7ab0880f714e53d7672b08df0fa62f2843416e1ea099060ff166200021957808352826020526040832082845260205260408320600160ff198254161790556000805160206200309c833981519152339380a460019056fe608080604052600436101561001357600080fd5b60003560e01c90816301ffc9a714611c9c575080630d89748d14611b835780631ee4190314611b0357806323dc170b146119c8578063248a9ca314611999578063263198331461195a5780632c066400146119315780632f2ff15d146118f257806336568abe146118ab578063372d6b27146118585780633764380e1461181257806338bed18c146117e65780633ab81915146117bb5780633b865728146116f05780633f4ba83a14611686578063402c51b81461165957806340929b871461163c57806343514baa14611592578063488bdabc14611574578063504765a214611558578063531821f0146114cc57806354f93e2e1461140557806359f9b559146113e85780635c975abb146113c55780636d026e9c146113745780636e642fb11461131c5780636f1b7918146112cb5780637eacb7da1461123c578063814e6b761461121f5780638456cb59146111b2578063894c6107146111955780638a00a7361461115a57806391d148541461110d5780639234afe9146110bf5780639db311a614611084578063a217fddf14611068578063ac90c1401461104a578063b1c551ca14610ea8578063bbaaf2a614610e6b578063bcaedade14610e19578063c132182814610dfe578063c4e023011461063d578063d29594621461060c578063d547741f146105cb578063da3b102f146105ae578063e0ad2a9b146103f7578063e7705db6146103bc578063ef15944e14610370578063f476404a14610353578063fb5f45e51461029f5763ffa1ad741461025057600080fd5b3461029a57600036600319011261029a5761029660405161027081611de7565b60058152640312e302e360dc1b6020820152604051918291602083526020830190611ec9565b0390f35b600080fd5b3461029a5760208060031936011261029a576001600160a01b036102c1611d12565b1660005260048152604060002060405190818382549182815201908192600052846000209060005b8682821061033f5786866102ff82880383611e02565b604051928392818401908285525180915260408401929160005b82811061032857505050500390f35b835185528695509381019392810192600101610319565b8354855290930192600192830192016102e9565b3461029a57600036600319011261029a576020604051610cdd8152f35b3461029a57602036600319011261029a57600435600681101561029a57610395611fee565b6103a0811515612163565b62ff00006001549160101b169062ff0000191617600155600080f35b3461029a57600036600319011261029a5760206040517f0ce23c3e399818cfee81a7ab0880f714e53d7672b08df0fa62f2843416e1ea098152f35b3461029a5760031960803682011261029a576004356001600160401b0360243581811161029a5760808160040194823603011261029a57610436611d28565b9160643590811161029a576020947fe4997a46d4745933c19132f199467bdaacb5181b1e2eee5dde6841d8b227ae5e92856104bc61049161047d6080963690600401611d3e565b91909861048a87806129c3565b908661229f565b97602485019460646104ad6104a6888a6129c3565b36916121a3565b8d815191012091013585612457565b9160ff60015460081c166104cf81611d6b565b806105525750610529606088955b6104f26104ea82806129c3565b9590926129c3565b90818660405197602095899687019a8b52604087013784019160408301600081523701426040820152036040810184520182611e02565b5190209460405196875215158787015215156040860152151593846060820152a2604051908152f35b61055b81611d6b565b600181036105705750610529606084956104dd565b8061057c600292611d6b565b0361059b578680610594575b606061052991956104dd565b5082610588565b86871561059457606061052991956104dd565b3461029a57600036600319011261029a5760206040516107a08152f35b3461029a57604036600319011261029a5761060a6004356105ea611cfc565b9080600052600060205261060560016040600020015461204a565b6120ee565b005b3461029a57602036600319011261029a57600435600681101561029a57610634602091611f21565b54604051908152f35b3461029a5760a036600319011261029a57610656611d12565b6006602435101561029a576044356001600160401b03811161029a57610680903690600401611d3e565b6084356001600160401b03811161029a5761069f903690600401611d3e565b9190926106aa611f3a565b6001600160a01b03851615610dc9576106c66024351515612163565b8115610d9157606435151580610d81575b15610d49576000602435600103610c32576107a08303610bed575b600954604051916001600160601b03198860601b166020840152610b58576075826107469260243560f81b603483015286866035840137868201904260358301526055820152036055810184520182611e02565b6020815191012093846000526002602052600560406000200154610bb35761076f3684846121a3565b6020815191012093846000526005602052604060002054610b6e576107f8926107cc61079d606435426121e9565b91604051966107ab88611dcb565b8988526001600160a01b038b1660208901526104a660243560408a0161220c565b6060860152856080860152600160a08601524260c086015260e0850152600061010085015236916121a3565b610120820152826000526002602052604060002090805182556001820160018060a01b036020830151166001600160601b0360a01b82541617815560408201516006811015610b585761084a91612218565b606081015180516001600160401b038111610a4b57806002850192610879826108738654611d75565b8661223c565b602090601f8311600114610af257600092610ae7575b50508160011b916000199060031b1c19161790555b6101206008608083015193600394858201556108d560a08501511515600483019060ff801983541691151516179055565b60c0840151600582015560e084015160068201556101008401516007820155019101518051906001600160401b038211610a4b578190610919826108738654611d75565b602090601f8311600114610a8257600092610a77575b50508160011b9160001990851b1c19161790555b8054600160401b9081811015610a4b5760018101808455811015610a61577fc2575a0e9e593c00f959f8c92f12db2869c3395a3b0502d05e2516446f71f85b018490556001600160a01b038516600090815260046020526040902080549091811015610a4b5760209585936109e1837ff4273274d5af9e92643bc38e11407ead34761801e882b048d658b45539e76d4f956001606096018155611f09565b81929154911b9086821b91600019901b1916179055846000526005875283604060002055610a10600954612290565b600955610a1f606435426121e9565b60405195610a2f87602435611cef565b8689015260408601526001600160a01b031693a3604051908152f35b634e487b7160e01b600052604160045260246000fd5b634e487b7160e01b600052603260045260246000fd5b01519050878061092f565b6000858152602081209350601f198516905b818110610acf5750908460019594939210610ab7575b505050811b019055610943565b015160001983871b60f8161c19169055878080610aaa565b92936020600181928786015181550195019301610a94565b01519050888061088f565b6000858152602081209350601f198516905b818110610b405750908460019594939210610b27575b505050811b0190556108a4565b015160001960f88460031b161c19169055888080610b1a565b92936020600181928786015181550195019301610b04565b634e487b7160e01b600052602160045260246000fd5b60405162461bcd60e51b815260206004820152601b60248201527f4b6579206861736820616c7265616479207265676973746572656400000000006044820152606490fd5b60405162461bcd60e51b81526020600482015260126024820152714b657920616c72656164792065786973747360701b6044820152606490fd5b60405162461bcd60e51b815260206004820152601a60248201527f496e76616c6964204d4c2d4453412d3635206b65792073697a650000000000006044820152606490fd5b506000602435600203610c9357610a208303610c4e575b6106f2565b60405162461bcd60e51b815260206004820152601a60248201527f496e76616c6964204d4c2d4453412d3837206b65792073697a650000000000006044820152606490fd5b506000602435600303610cee5760208303156106f25760405162461bcd60e51b815260206004820152601d60248201527f496e76616c696420534c482d4453412d31323866206b65792073697a650000006044820152606490fd5b506000600460243503610c49576040830315610c495760405162461bcd60e51b815260206004820152601d60248201527f496e76616c696420534c482d4453412d32353666206b65792073697a650000006044820152606490fd5b60405162461bcd60e51b815260206004820152601060248201526f496e76616c69642076616c696469747960801b6044820152606490fd5b50630966018060643511156106d7565b60405162461bcd60e51b815260206004820152601060248201526f456d707479207075626c6963206b657960801b6044820152606490fd5b60405162461bcd60e51b815260206004820152600d60248201526c24b73b30b634b21037bbb732b960991b6044820152606490fd5b3461029a57600036600319011261029a576020604051818152f35b3461029a57600036600319011261029a57610296604051610e3981611de7565b60118152704e4953542046495053203230342f32303560781b6020820152604051918291602083526020830190611ec9565b3461029a57602036600319011261029a57600435600681101561029a57610e9461029691612baa565b604051918291602083526020830190611ec9565b3461029a57602036600319011261029a576060610120604051610eca81611dcb565b600081526000602082015260006040820152828082015260006080820152600060a0820152600060c0820152600060e08201526000610100820152015260043560005260026020526102966040600020610fa6600860405192610f2c84611dcb565b8054845260018101546001600160a01b0381166020860152610f579060a01c60ff166040860161220c565b610f6360028201611e23565b60608501526003810154608085015260ff600482015416151560a0850152600581015460c0850152600681015460e0850152600781015461010085015201611e23565b610120820152604051918291602083528051602084015260018060a01b036020820151166040840152610fe160408201516060850190611cef565b606081015161012061100161014092836080880152610160870190611ec9565b92608081015160a087015260a0810151151560c087015260c081015160e087015260e081015161010087015261010081015182870152015190601f198584030190850152611ec9565b3461029a57600036600319011261029a576020600a54604051908152f35b3461029a57600036600319011261029a57602060405160008152f35b3461029a57600036600319011261029a5760206040517f94dd6a691adaa8a6cb4ba0c2e7d684c2b62c8eb97cdbec191eccb34f5bc08a668152f35b3461029a57608036600319011261029a576064356001600160401b03811161029a576111036110f46020923690600401611d3e565b90604435602435600435612457565b6040519015158152f35b3461029a57604036600319011261029a57611126611cfc565b600435600052600060205260406000209060018060a01b0316600052602052602060ff604060002054166040519015158152f35b3461029a57600036600319011261029a5760206040517f1b1ee864c53639d7462b773f7c8b4cea14a6ae3615743b9373a3a5879770711c8152f35b3461029a57600036600319011261029a57602060405161c2c08152f35b3461029a57600036600319011261029a576111cb611fb4565b60015460ff811661120d5760019060ff1916176001557f62e78cea01bee320cd4e420270b5ea74000d11b0c9f74754ebdbfc544b05a2586020604051338152a1005b60405163d93c066560e01b8152600490fd5b3461029a57600036600319011261029a5760206040516111f38152f35b3461029a57602036600319011261029a57600435600481101561029a5760407f136cc2f00f6dca2a25f4569572484c160094010f14b773bb13a9c7be9b0a3b5991611285611fee565b6001549060ff8260081c169161129a82611d6b565b61ff001916600882901b61ff0016176001558251916112b881611d6b565b82526112c381611d6b565b6020820152a1005b3461029a57602036600319011261029a5760043560035481101561029a5760209060036000527fc2575a0e9e593c00f959f8c92f12db2869c3395a3b0502d05e2516446f71f85b0154604051908152f35b3461029a57604036600319011261029a57611335611d12565b6001600160a01b031660009081526004602052604090208054602435919082101561029a5760209161136691611f09565b90546040519160031b1c8152f35b3461029a57602036600319011261029a5760043560075481101561029a5760209060076000527fa66cc928b5edb82af9bd49922954155ab7b0942694bea4ce44661d9a8736c6880154604051908152f35b3461029a57600036600319011261029a57602060ff600154166040519015158152f35b3461029a57600036600319011261029a5760206040516142c08152f35b3461029a57604036600319011261029a5761141e611d12565b602435908115159081830361029a57611435611fee565b6001600160a01b0316918215611494577f219edb2f18ae643c294e37c3a3b580559bac6e565a450c772617b811b05aae859161148b602092856000526008845260406000209060ff801983541691151516179055565b604051908152a2005b60405162461bcd60e51b815260206004820152601060248201526f24b73b30b634b2103b32b934b334b2b960811b6044820152606490fd5b3461029a57602036600319011261029a5760043560005260066020526101006040600020805490600181015490600281015460ff6003830154916005600485015494015494604051968752602087015260018060a01b038116604087015261153c60608701838360a01c16611cef565b60a81c161515608085015260a084015260c083015260e0820152f35b3461029a57600036600319011261029a57602060405160408152f35b3461029a57600036600319011261029a576020600954604051908152f35b3461029a57600036600319011261029a576115ab611fb4565b61010061ff001960015416176001557fd17b3256179daf4614fb484eca13ff37781c4c86b7ae5d47cecbba727b64266060c060405160008152600a602082015260606040820152603160608201527f5175616e74756d20746872656174206465746563746564202d20505143206f6e6080820152701b1e481b5bd919481858dd1a5d985d1959607a1b60a0820152a1005b3461029a57600036600319011261029a576020604051610a208152f35b3461029a57600036600319011261029a57602060ff60015460081c166040519061168281611d6b565b8152f35b3461029a57600036600319011261029a5761169f611fb4565b60015460ff8116156116de5760ff19166001557f5db9ee0a495bf2e6ff9c91a7834c1ba4fdd244a5e8aa4e537bd38aeae4b073aa6020604051338152a1005b604051638dfc202b60e01b8152600490fd5b3461029a57602036600319011261029a5760043560005260026020526040600020805461029660018301549261172860028201611e23565b60038201549160ff6004820154166005820154600683015491611790611755600860078701549601611e23565b9561177f6040519b8c9b8c5260018060a01b03811660208d015260ff60408d019160a01c16611cef565b6101408060608c01528a0190611ec9565b956080890152151560a088015260c087015260e0860152610100850152838203610120850152611ec9565b3461029a57602036600319011261029a5760206117de6117d9611d12565b612adc565b604051908152f35b3461029a57602036600319011261029a5760043560005260056020526020604060002054604051908152f35b3461029a57606036600319011261029a576024356001600160401b03811161029a576111036118476020923690600401611d3e565b61184f611d28565b9160043561229f565b3461029a57600036600319011261029a5760806009546118a9600a546001549060ff8260081c1690604051948552602085015261189481611d6b565b604084015260ff606084019160101c16611cef565bf35b3461029a57604036600319011261029a576118c4611cfc565b336001600160a01b038216036118e05761060a906004356120ee565b60405163334bd91960e11b8152600490fd5b3461029a57604036600319011261029a5761060a600435611911611cfc565b9080600052600060205261192c60016040600020015461204a565b612070565b3461029a57600036600319011261029a57602060ff60015460101c166118a96040518092611cef565b3461029a57602036600319011261029a576001600160a01b0361197b611d12565b166000526008602052602060ff604060002054166040519015158152f35b3461029a57602036600319011261029a5760043560005260006020526020600160406000200154604051908152f35b3461029a57604036600319011261029a576004356024356001600160401b03811161029a576119fb903690600401611d3e565b611a06929192611f3a565b816000526002602052604060002090600582015415611ace57600482019182549060ff821615611a93577f0f0733521636094b40203c96fda6a11ab97b6996b4863070f8fb1535d3b7f6f79360409260ff191690556001808060a01b03910154169482825193849260208452816020850152848401376000828201840152601f01601f19168101030190a3005b60405162461bcd60e51b815260206004820152601360248201527212d95e48185b1c9958591e481c995d9bdad959606a1b6044820152606490fd5b60405162461bcd60e51b815260206004820152600d60248201526c12d95e481b9bdd08199bdd5b99609a1b6044820152606490fd5b3461029a5760c036600319011261029a57611b1c611cfc565b6001600160401b0360443581811161029a57611b3c903690600401611d3e565b9060843583811161029a57611b55903690600401611d3e565b9060a43594851161029a57602095611b74611103963690600401611d3e565b959094606435926004356129f5565b3461029a57602036600319011261029a57600060e0604051611ba481611daf565b8281528260208201528260408201528260608201528260808201528260a08201528260c082015201526004356000526006602052610100604060002060405190611bed82611daf565b805482526001810154906020830191825260028101546040840190611c8060018060a01b0380831684526060870190611c2c60ff8560a01c168361220c565b60ff608089019460a81c161515845260038601549460a08901958652600560048801549760c08b0198895201549760e08a0198895260405199518a525160208a015251166040880152516060870190611cef565b51151560808501525160a08401525160c08301525160e0820152f35b3461029a57602036600319011261029a576004359063ffffffff60e01b821680920361029a57602091637965db0b60e01b8114908115611cde575b5015158152f35b6301ffc9a760e01b14905083611cd7565b906006821015610b585752565b602435906001600160a01b038216820361029a57565b600435906001600160a01b038216820361029a57565b604435906001600160a01b038216820361029a57565b9181601f8401121561029a578235916001600160401b03831161029a576020838186019501011161029a57565b60041115610b5857565b90600182811c92168015611da5575b6020831014611d8f57565b634e487b7160e01b600052602260045260246000fd5b91607f1691611d84565b61010081019081106001600160401b03821117610a4b57604052565b61014081019081106001600160401b03821117610a4b57604052565b604081019081106001600160401b03821117610a4b57604052565b90601f801991011681019081106001600160401b03821117610a4b57604052565b9060405191826000825492611e3784611d75565b908184526001948581169081600014611ea65750600114611e63575b5050611e6192500383611e02565b565b9093915060005260209081600020936000915b818310611e8e575050611e6193508201013880611e53565b85548884018501529485019487945091830191611e76565b915050611e6194506020925060ff191682840152151560051b8201013880611e53565b919082519283825260005b848110611ef5575050826000602080949584010152601f8019910116010190565b602081830181015184830182015201611ed4565b8054821015610a615760005260206000200190600090565b6006811015610b5857600052600b602052604060002090565b3360009081527f91ac135a7759c3de66c9ee046e846ac2c98f3f5f66d7c5e3fac327dc963f10f360205260409020547f1b1ee864c53639d7462b773f7c8b4cea14a6ae3615743b9373a3a5879770711c9060ff1615611f965750565b6044906040519063e2517d3f60e01b82523360048301526024820152fd5b3360009081527fad3228b676f7d3cd4284a5443f17f1962b36e491b30a40b2405849e597ba5fb5602052604081205460ff1615611f965750565b3360009081527f3800a64ce92fbf51f6ab12d5c9c532f5eec76292277273c52132b341e70e996460205260409020547f94dd6a691adaa8a6cb4ba0c2e7d684c2b62c8eb97cdbec191eccb34f5bc08a669060ff1615611f965750565b80600052600060205260406000203360005260205260ff6040600020541615611f965750565b9060009180835282602052604083209160018060a01b03169182845260205260ff604084205416156000146120e957808352826020526040832082845260205260408320600160ff198254161790557f2f8788117e7eff1d82e926ec794901d17c78024a50270940304540a733656f0d339380a4600190565b505090565b9060009180835282602052604083209160018060a01b03169182845260205260ff6040842054166000146120e95780835282602052604083208284526020526040832060ff1981541690557ff6391f5c32d9c69d2a47ea670b442974b53935d1edc7fd64eb21e047a839171b339380a4600190565b1561216a57565b60405162461bcd60e51b8152602060048201526011602482015270496e76616c696420616c676f726974686d60781b6044820152606490fd5b9291926001600160401b038211610a4b57604051916121cc601f8201601f191660200184611e02565b82948184528183011161029a578281602093846000960137010152565b919082018092116121f657565b634e487b7160e01b600052601160045260246000fd5b6006821015610b585752565b906006811015610b5857815460ff60a01b191660a09190911b60ff60a01b16179055565b90601f811161224a57505050565b600091825260208220906020601f850160051c83019410612286575b601f0160051c01915b82811061227b57505050565b81815560010161226f565b9092508290612266565b60001981146121f65760010190565b916122e06122e6926122ef95947f19457468657265756d205369676e6564204d6573736167653a0a333200000000600052601c52603c6000209236916121a3565b90612300565b909391936123cc565b6001600160a01b0391821691161490565b81519190604183036123315761232a92506020820151906060604084015193015160001a9061233c565b9192909190565b505060009160029190565b91907f7fffffffffffffffffffffffffffffff5d576e7357a4501ddfe92f46681b20a084116123c057926020929160ff608095604051948552168484015260408301526060820152600092839182805260015afa156123b45780516001600160a01b038116156123ab57918190565b50809160019190565b604051903d90823e3d90fd5b50505060009160039190565b6123d581611d6b565b806123de575050565b6123e781611d6b565b600181036124015760405163f645eedf60e01b8152600490fd5b61240a81611d6b565b6002810361242b5760405163fce698f760e01b815260048101839052602490fd5b80612437600392611d6b565b1461243f5750565b602490604051906335e2f38360e21b82526004820152fd5b909194939260008381526020936005855260409283832054801561298b5783526002865283832060049160ff838301541615612956576006820154421161292157607689106128e857886014116128e457803560601c908186526008895260ff8787205416156128ac57896034116128a8576014810135998a42034281116128955761012c1061285c578060341015612849578c600160f81b60ff60f81b603485013516149b8951918c8301988c8a528b840152606083015260808201528b60f81b60a08201526081815260c08101926001600160401b03978285108986111761283657848b52825190209260761161283257610140820184811089821117612836578a52604184523660768201116128325791886101216125c29b9a999897969593604160356125b9970160e083013701527f19457468657265756d205369676e6564204d6573736167653a0a3332000000008852601c52603c8720612300565b909891986123cc565b6001600160a01b03968716036127ef57806007600192016125e38154612290565b905501916125f760ff845460a01c16611f21565b6126018154612290565b905584519a8b81878b8301928b845201528c60604291015260608d5260808d01928d8410908411176127dc578a9b9c888b9c8b9c60069c8a95888d52855190209d8e928b54936126508b611daf565b808b5260a0880193845260c08801968516875261267760ff60e08a019660a01c168661220c565b6101008801958652610160610120890198428a5261014081019a8b5201998a528d52528b8b20975188555160018801558b600288019351166001600160601b0360a01b8454161783555160068110156127c957906126db8392600597969594612218565b51815460ff60a81b191690151560a81b60ff60a81b1617905551600385015551848401555191015560075490600160401b8210156127b65760018201806007558210156127a357509160609391867fe3cb335fd4b671836122c6669d4a2042d13a0f58ea3d1628fd860a314d3449109694600784527fa66cc928b5edb82af9bd49922954155ab7b0942694bea4ce44661d9a8736c688015561277e600a54612290565b600a555491898151996127978b60ff8760a01c16611cef565b8a01528801521694a490565b634e487b7160e01b845260329052602483fd5b634e487b7160e01b845260419052602483fd5b634e487b7160e01b8a526021885260248afd5b634e487b7160e01b865260418452602486fd5b845162461bcd60e51b8152808301899052601a60248201527f496e76616c6964207665726966696572207369676e61747572650000000000006044820152606490fd5b8880fd5b634e487b7160e01b8a526041885260248afd5b634e487b7160e01b875260328552602487fd5b875162461bcd60e51b81528086018b90526013602482015272105d1d195cdd185d1a5bdb88195e1c1a5c9959606a1b6044820152606490fd5b634e487b7160e01b885260118652602488fd5b8580fd5b865162461bcd60e51b81528085018a905260126024820152712ab73a393ab9ba32b2103b32b934b334b2b960711b6044820152606490fd5b8480fd5b855162461bcd60e51b8152808401899052601360248201527224b73b30b634b21030ba3a32b9ba30ba34b7b760691b6044820152606490fd5b855162461bcd60e51b8152808401899052600f60248201526e141450c81ad95e48195e1c1a5c9959608a1b6044820152606490fd5b855162461bcd60e51b8152808401899052600f60248201526e141450c81ad95e481c995d9bdad959608a1b6044820152606490fd5b845162461bcd60e51b8152600481018890526011602482015270141450c81ad95e481b9bdd08199bdd5b99607a1b6044820152606490fd5b903590601e198136030182121561029a57018035906001600160401b03821161029a5760200191813603831361029a57565b93929091979596949760ff60015460081c16612a1081611d6b565b15612ab45790612a2192918561229f565b9560009582151580612aab575b612a82575b50505050505060ff60015460081c16612a4b81611d6b565b60018103612a595750905090565b80612a65600292611d6b565b03612a785781612a73575090565b905090565b8115612a73575090565b612aa0965090612a939136916121a3565b6020815191012091612457565b388080808080612a33565b50801515612a2e565b94509450945050612ac5945061229f565b90565b8051821015610a615760209160051b010190565b6001600160a01b031660009081526004602081815260408084208151815480825291865283862093959094939091859081880190845b89828210612b9457505050612b2992500385611e02565b805b8451811015612b8b57612b3e8186612ac8565b5182526002865282822060ff85820154169081612b7c575b50612b6957612b6490612290565b612b2b565b9392505050612b789250612ac8565b5190565b60069150015442111538612b56565b50935050505090565b855484526001958601958a955093019201612b12565b6006811015610b585760018114612cda5760028114612ca75760038114612c6d5760048114612c3357600514612bfa57604051612be681611de7565b60048152634e4f4e4560e01b602082015290565b604051612c0681611de7565b601881527f487962726964204543445341202b204d4c2d4453412d36350000000000000000602082015290565b50604051612c4081611de7565b601d81527f534c482d4453412d5348414b452d323536662028535048494e43532b29000000602082015290565b50604051612c7a81611de7565b601d81527f534c482d4453412d5348414b452d313238662028535048494e43532b29000000602082015290565b50604051612cb481611de7565b60168152754d4c2d4453412d3837202844696c69746869756d352960501b602082015290565b50604051612ce781611de7565b60168152754d4c2d4453412d3635202844696c69746869756d332960501b60208201529056fea2646970667358221220c7a355b287bb7cc38a01137f00b3a81421f831991dc14d44de1d3ca43e9416c864736f6c634300081400332f8788117e7eff1d82e926ec794901d17c78024a50270940304540a733656f0d",
  "linkReferences": {},
  "deployedLinkReferences": {},
  "immutableReferences": {},
  "inputSourceName": "project/contracts/DCBTreasury/v3/quantum/PostQuantumSignatureVerifier.sol",
  "buildInfoId": "solc-0_8_20-a1c61539025f0654ad3a75bdb2b55239eb68e7f3"
}