{
  "_format": "hh3-artifact-1",
  "contractName": "USD_Enhanced",
  "sourceName": "contracts/DCBTreasury/v3/USD_Enhanced.sol",
  "abi": [
    {
      "inputs": [
        {
          "internalType": "address",
          "name": "_admin",
          "type": "address"
        }
      ],
      "stateMutability": "nonpayable",
      "type": "constructor"
    },
    {
      "inputs": [],
      "name": "AccessControlBadConfirmation",
      "type": "error"
    },
    {
      "inputs": [
        {
          "internalType": "address",
          "name": "account",
          "type": "address"
        },
        {
          "internalType": "bytes32",
          "name": "neededRole",
          "type": "bytes32"
        }
      ],
      "name": "AccessControlUnauthorizedAccount",
      "type": "error"
    },
    {
      "inputs": [],
      "name": "ECDSAInvalidSignature",
      "type": "error"
    },
    {
      "inputs": [
        {
          "internalType": "uint256",
          "name": "length",
          "type": "uint256"
        }
      ],
      "name": "ECDSAInvalidSignatureLength",
      "type": "error"
    },
    {
      "inputs": [
        {
          "internalType": "bytes32",
          "name": "s",
          "type": "bytes32"
        }
      ],
      "name": "ECDSAInvalidSignatureS",
      "type": "error"
    },
    {
      "inputs": [
        {
          "internalType": "address",
          "name": "spender",
          "type": "address"
        },
        {
          "internalType": "uint256",
          "name": "allowance",
          "type": "uint256"
        },
        {
          "internalType": "uint256",
          "name": "needed",
          "type": "uint256"
        }
      ],
      "name": "ERC20InsufficientAllowance",
      "type": "error"
    },
    {
      "inputs": [
        {
          "internalType": "address",
          "name": "sender",
          "type": "address"
        },
        {
          "internalType": "uint256",
          "name": "balance",
          "type": "uint256"
        },
        {
          "internalType": "uint256",
          "name": "needed",
          "type": "uint256"
        }
      ],
      "name": "ERC20InsufficientBalance",
      "type": "error"
    },
    {
      "inputs": [
        {
          "internalType": "address",
          "name": "approver",
          "type": "address"
        }
      ],
      "name": "ERC20InvalidApprover",
      "type": "error"
    },
    {
      "inputs": [
        {
          "internalType": "address",
          "name": "receiver",
          "type": "address"
        }
      ],
      "name": "ERC20InvalidReceiver",
      "type": "error"
    },
    {
      "inputs": [
        {
          "internalType": "address",
          "name": "sender",
          "type": "address"
        }
      ],
      "name": "ERC20InvalidSender",
      "type": "error"
    },
    {
      "inputs": [
        {
          "internalType": "address",
          "name": "spender",
          "type": "address"
        }
      ],
      "name": "ERC20InvalidSpender",
      "type": "error"
    },
    {
      "inputs": [
        {
          "internalType": "uint256",
          "name": "deadline",
          "type": "uint256"
        }
      ],
      "name": "ERC2612ExpiredSignature",
      "type": "error"
    },
    {
      "inputs": [
        {
          "internalType": "address",
          "name": "signer",
          "type": "address"
        },
        {
          "internalType": "address",
          "name": "owner",
          "type": "address"
        }
      ],
      "name": "ERC2612InvalidSigner",
      "type": "error"
    },
    {
      "inputs": [],
      "name": "EnforcedPause",
      "type": "error"
    },
    {
      "inputs": [],
      "name": "ExpectedPause",
      "type": "error"
    },
    {
      "inputs": [
        {
          "internalType": "address",
          "name": "account",
          "type": "address"
        },
        {
          "internalType": "uint256",
          "name": "currentNonce",
          "type": "uint256"
        }
      ],
      "name": "InvalidAccountNonce",
      "type": "error"
    },
    {
      "inputs": [],
      "name": "InvalidShortString",
      "type": "error"
    },
    {
      "inputs": [],
      "name": "ReentrancyGuardReentrantCall",
      "type": "error"
    },
    {
      "inputs": [
        {
          "internalType": "string",
          "name": "str",
          "type": "string"
        }
      ],
      "name": "StringTooLong",
      "type": "error"
    },
    {
      "anonymous": false,
      "inputs": [
        {
          "indexed": true,
          "internalType": "address",
          "name": "account",
          "type": "address"
        },
        {
          "indexed": false,
          "internalType": "bool",
          "name": "status",
          "type": "bool"
        },
        {
          "indexed": false,
          "internalType": "uint256",
          "name": "timestamp",
          "type": "uint256"
        }
      ],
      "name": "AddressBlacklisted",
      "type": "event"
    },
    {
      "anonymous": false,
      "inputs": [
        {
          "indexed": true,
          "internalType": "address",
          "name": "account",
          "type": "address"
        },
        {
          "indexed": false,
          "internalType": "bool",
          "name": "status",
          "type": "bool"
        },
        {
          "indexed": false,
          "internalType": "uint256",
          "name": "timestamp",
          "type": "uint256"
        }
      ],
      "name": "AddressWhitelisted",
      "type": "event"
    },
    {
      "anonymous": false,
      "inputs": [
        {
          "indexed": true,
          "internalType": "address",
          "name": "owner",
          "type": "address"
        },
        {
          "indexed": true,
          "internalType": "address",
          "name": "spender",
          "type": "address"
        },
        {
          "indexed": false,
          "internalType": "uint256",
          "name": "value",
          "type": "uint256"
        }
      ],
      "name": "Approval",
      "type": "event"
    },
    {
      "anonymous": false,
      "inputs": [
        {
          "indexed": false,
          "internalType": "address",
          "name": "resetBy",
          "type": "address"
        },
        {
          "indexed": false,
          "internalType": "uint256",
          "name": "timestamp",
          "type": "uint256"
        }
      ],
      "name": "CircuitBreakerReset",
      "type": "event"
    },
    {
      "anonymous": false,
      "inputs": [
        {
          "indexed": false,
          "internalType": "uint256",
          "name": "hourlyVolume",
          "type": "uint256"
        },
        {
          "indexed": false,
          "internalType": "uint256",
          "name": "timestamp",
          "type": "uint256"
        }
      ],
      "name": "CircuitBreakerTriggered",
      "type": "event"
    },
    {
      "anonymous": false,
      "inputs": [
        {
          "indexed": true,
          "internalType": "bytes32",
          "name": "accountId",
          "type": "bytes32"
        },
        {
          "indexed": false,
          "internalType": "string",
          "name": "accountName",
          "type": "string"
        },
        {
          "indexed": false,
          "internalType": "string",
          "name": "bankName",
          "type": "string"
        },
        {
          "indexed": false,
          "internalType": "string",
          "name": "swiftBic",
          "type": "string"
        },
        {
          "indexed": true,
          "internalType": "address",
          "name": "owner",
          "type": "address"
        },
        {
          "indexed": false,
          "internalType": "uint256",
          "name": "timestamp",
          "type": "uint256"
        }
      ],
      "name": "CustodyAccountCreated",
      "type": "event"
    },
    {
      "anonymous": false,
      "inputs": [
        {
          "indexed": true,
          "internalType": "bytes32",
          "name": "accountId",
          "type": "bytes32"
        },
        {
          "indexed": false,
          "internalType": "uint256",
          "name": "amount",
          "type": "uint256"
        },
        {
          "indexed": false,
          "internalType": "uint256",
          "name": "newBalance",
          "type": "uint256"
        },
        {
          "indexed": false,
          "internalType": "uint256",
          "name": "timestamp",
          "type": "uint256"
        }
      ],
      "name": "CustodyDeposit",
      "type": "event"
    },
    {
      "anonymous": false,
      "inputs": [],
      "name": "EIP712DomainChanged",
      "type": "event"
    },
    {
      "anonymous": false,
      "inputs": [
        {
          "indexed": true,
          "internalType": "bytes32",
          "name": "injectionId",
          "type": "bytes32"
        },
        {
          "indexed": false,
          "internalType": "address",
          "name": "cancelledBy",
          "type": "address"
        },
        {
          "indexed": false,
          "internalType": "string",
          "name": "reason",
          "type": "string"
        },
        {
          "indexed": false,
          "internalType": "uint256",
          "name": "timestamp",
          "type": "uint256"
        }
      ],
      "name": "InjectionCancelled",
      "type": "event"
    },
    {
      "anonymous": false,
      "inputs": [
        {
          "indexed": true,
          "internalType": "bytes32",
          "name": "injectionId",
          "type": "bytes32"
        },
        {
          "indexed": false,
          "internalType": "uint256",
          "name": "timestamp",
          "type": "uint256"
        }
      ],
      "name": "InjectionExpired",
      "type": "event"
    },
    {
      "anonymous": false,
      "inputs": [
        {
          "indexed": true,
          "internalType": "address",
          "name": "oldAddress",
          "type": "address"
        },
        {
          "indexed": true,
          "internalType": "address",
          "name": "newAddress",
          "type": "address"
        },
        {
          "indexed": false,
          "internalType": "uint256",
          "name": "timestamp",
          "type": "uint256"
        }
      ],
      "name": "LocksTreasuryLUSDUpdated",
      "type": "event"
    },
    {
      "anonymous": false,
      "inputs": [
        {
          "indexed": true,
          "internalType": "bytes32",
          "name": "operationId",
          "type": "bytes32"
        },
        {
          "indexed": false,
          "internalType": "address",
          "name": "approver",
          "type": "address"
        },
        {
          "indexed": false,
          "internalType": "uint256",
          "name": "approvalCount",
          "type": "uint256"
        },
        {
          "indexed": false,
          "internalType": "uint256",
          "name": "timestamp",
          "type": "uint256"
        }
      ],
      "name": "MultisigOperationApproved",
      "type": "event"
    },
    {
      "anonymous": false,
      "inputs": [
        {
          "indexed": true,
          "internalType": "bytes32",
          "name": "operationId",
          "type": "bytes32"
        },
        {
          "indexed": true,
          "internalType": "bytes32",
          "name": "injectionId",
          "type": "bytes32"
        },
        {
          "indexed": false,
          "internalType": "uint256",
          "name": "amount",
          "type": "uint256"
        },
        {
          "indexed": false,
          "internalType": "address",
          "name": "initiator",
          "type": "address"
        },
        {
          "indexed": false,
          "internalType": "uint256",
          "name": "timestamp",
          "type": "uint256"
        }
      ],
      "name": "MultisigOperationCreated",
      "type": "event"
    },
    {
      "anonymous": false,
      "inputs": [
        {
          "indexed": true,
          "internalType": "bytes32",
          "name": "operationId",
          "type": "bytes32"
        },
        {
          "indexed": false,
          "internalType": "uint256",
          "name": "timestamp",
          "type": "uint256"
        }
      ],
      "name": "MultisigOperationExecuted",
      "type": "event"
    },
    {
      "anonymous": false,
      "inputs": [
        {
          "indexed": false,
          "internalType": "address",
          "name": "account",
          "type": "address"
        }
      ],
      "name": "Paused",
      "type": "event"
    },
    {
      "anonymous": false,
      "inputs": [
        {
          "indexed": true,
          "internalType": "bytes32",
          "name": "role",
          "type": "bytes32"
        },
        {
          "indexed": true,
          "internalType": "bytes32",
          "name": "previousAdminRole",
          "type": "bytes32"
        },
        {
          "indexed": true,
          "internalType": "bytes32",
          "name": "newAdminRole",
          "type": "bytes32"
        }
      ],
      "name": "RoleAdminChanged",
      "type": "event"
    },
    {
      "anonymous": false,
      "inputs": [
        {
          "indexed": true,
          "internalType": "bytes32",
          "name": "role",
          "type": "bytes32"
        },
        {
          "indexed": true,
          "internalType": "address",
          "name": "account",
          "type": "address"
        },
        {
          "indexed": true,
          "internalType": "address",
          "name": "sender",
          "type": "address"
        }
      ],
      "name": "RoleGranted",
      "type": "event"
    },
    {
      "anonymous": false,
      "inputs": [
        {
          "indexed": true,
          "internalType": "bytes32",
          "name": "role",
          "type": "bytes32"
        },
        {
          "indexed": true,
          "internalType": "address",
          "name": "account",
          "type": "address"
        },
        {
          "indexed": true,
          "internalType": "address",
          "name": "sender",
          "type": "address"
        }
      ],
      "name": "RoleRevoked",
      "type": "event"
    },
    {
      "anonymous": false,
      "inputs": [
        {
          "indexed": true,
          "internalType": "address",
          "name": "from",
          "type": "address"
        },
        {
          "indexed": true,
          "internalType": "address",
          "name": "to",
          "type": "address"
        },
        {
          "indexed": false,
          "internalType": "uint256",
          "name": "value",
          "type": "uint256"
        }
      ],
      "name": "Transfer",
      "type": "event"
    },
    {
      "anonymous": false,
      "inputs": [
        {
          "indexed": true,
          "internalType": "bytes32",
          "name": "injectionId",
          "type": "bytes32"
        },
        {
          "indexed": true,
          "internalType": "bytes32",
          "name": "custodyAccountId",
          "type": "bytes32"
        },
        {
          "indexed": false,
          "internalType": "uint256",
          "name": "amount",
          "type": "uint256"
        },
        {
          "indexed": true,
          "internalType": "address",
          "name": "beneficiary",
          "type": "address"
        },
        {
          "indexed": false,
          "internalType": "string",
          "name": "authorizationCode",
          "type": "string"
        },
        {
          "indexed": false,
          "internalType": "uint256",
          "name": "expiresAt",
          "type": "uint256"
        },
        {
          "indexed": false,
          "internalType": "uint256",
          "name": "timestamp",
          "type": "uint256"
        }
      ],
      "name": "USDInjectionInitiated",
      "type": "event"
    },
    {
      "anonymous": false,
      "inputs": [
        {
          "indexed": false,
          "internalType": "address",
          "name": "account",
          "type": "address"
        }
      ],
      "name": "Unpaused",
      "type": "event"
    },
    {
      "inputs": [],
      "name": "CHAIN_ID",
      "outputs": [
        {
          "internalType": "uint256",
          "name": "",
          "type": "uint256"
        }
      ],
      "stateMutability": "view",
      "type": "function"
    },
    {
      "inputs": [],
      "name": "CIRCUIT_BREAKER_THRESHOLD",
      "outputs": [
        {
          "internalType": "uint256",
          "name": "",
          "type": "uint256"
        }
      ],
      "stateMutability": "view",
      "type": "function"
    },
    {
      "inputs": [],
      "name": "COMPLIANCE_ROLE",
      "outputs": [
        {
          "internalType": "bytes32",
          "name": "",
          "type": "bytes32"
        }
      ],
      "stateMutability": "view",
      "type": "function"
    },
    {
      "inputs": [],
      "name": "CUSTODY_MANAGER_ROLE",
      "outputs": [
        {
          "internalType": "bytes32",
          "name": "",
          "type": "bytes32"
        }
      ],
      "stateMutability": "view",
      "type": "function"
    },
    {
      "inputs": [],
      "name": "DEFAULT_ADMIN_ROLE",
      "outputs": [
        {
          "internalType": "bytes32",
          "name": "",
          "type": "bytes32"
        }
      ],
      "stateMutability": "view",
      "type": "function"
    },
    {
      "inputs": [],
      "name": "DOMAIN_SEPARATOR",
      "outputs": [
        {
          "internalType": "bytes32",
          "name": "",
          "type": "bytes32"
        }
      ],
      "stateMutability": "view",
      "type": "function"
    },
    {
      "inputs": [],
      "name": "EMERGENCY_ROLE",
      "outputs": [
        {
          "internalType": "bytes32",
          "name": "",
          "type": "bytes32"
        }
      ],
      "stateMutability": "view",
      "type": "function"
    },
    {
      "inputs": [],
      "name": "INSTITUTION_NAME",
      "outputs": [
        {
          "internalType": "string",
          "name": "",
          "type": "string"
        }
      ],
      "stateMutability": "view",
      "type": "function"
    },
    {
      "inputs": [],
      "name": "ISO_CURRENCY_CODE",
      "outputs": [
        {
          "internalType": "string",
          "name": "",
          "type": "string"
        }
      ],
      "stateMutability": "view",
      "type": "function"
    },
    {
      "inputs": [],
      "name": "ISO_VALIDATOR_ROLE",
      "outputs": [
        {
          "internalType": "bytes32",
          "name": "",
          "type": "bytes32"
        }
      ],
      "stateMutability": "view",
      "type": "function"
    },
    {
      "inputs": [],
      "name": "LOCK_EXPIRATION",
      "outputs": [
        {
          "internalType": "uint256",
          "name": "",
          "type": "uint256"
        }
      ],
      "stateMutability": "view",
      "type": "function"
    },
    {
      "inputs": [],
      "name": "LUSD_CONTRACT",
      "outputs": [
        {
          "internalType": "address",
          "name": "",
          "type": "address"
        }
      ],
      "stateMutability": "view",
      "type": "function"
    },
    {
      "inputs": [],
      "name": "MAX_DAILY_INJECTION",
      "outputs": [
        {
          "internalType": "uint256",
          "name": "",
          "type": "uint256"
        }
      ],
      "stateMutability": "view",
      "type": "function"
    },
    {
      "inputs": [],
      "name": "MAX_STRING_LENGTH",
      "outputs": [
        {
          "internalType": "uint256",
          "name": "",
          "type": "uint256"
        }
      ],
      "stateMutability": "view",
      "type": "function"
    },
    {
      "inputs": [],
      "name": "MINTER_ROLE",
      "outputs": [
        {
          "internalType": "bytes32",
          "name": "",
          "type": "bytes32"
        }
      ],
      "stateMutability": "view",
      "type": "function"
    },
    {
      "inputs": [],
      "name": "MULTISIG_THRESHOLD",
      "outputs": [
        {
          "internalType": "uint256",
          "name": "",
          "type": "uint256"
        }
      ],
      "stateMutability": "view",
      "type": "function"
    },
    {
      "inputs": [],
      "name": "PRICE_PRECISION",
      "outputs": [
        {
          "internalType": "uint256",
          "name": "",
          "type": "uint256"
        }
      ],
      "stateMutability": "view",
      "type": "function"
    },
    {
      "inputs": [],
      "name": "REQUIRED_APPROVALS",
      "outputs": [
        {
          "internalType": "uint256",
          "name": "",
          "type": "uint256"
        }
      ],
      "stateMutability": "view",
      "type": "function"
    },
    {
      "inputs": [],
      "name": "SWIFT_BIC",
      "outputs": [
        {
          "internalType": "string",
          "name": "",
          "type": "string"
        }
      ],
      "stateMutability": "view",
      "type": "function"
    },
    {
      "inputs": [],
      "name": "TREASURY_OPERATOR_ROLE",
      "outputs": [
        {
          "internalType": "bytes32",
          "name": "",
          "type": "bytes32"
        }
      ],
      "stateMutability": "view",
      "type": "function"
    },
    {
      "inputs": [],
      "name": "VERSION",
      "outputs": [
        {
          "internalType": "string",
          "name": "",
          "type": "string"
        }
      ],
      "stateMutability": "view",
      "type": "function"
    },
    {
      "inputs": [
        {
          "internalType": "address",
          "name": "owner",
          "type": "address"
        },
        {
          "internalType": "address",
          "name": "spender",
          "type": "address"
        }
      ],
      "name": "allowance",
      "outputs": [
        {
          "internalType": "uint256",
          "name": "",
          "type": "uint256"
        }
      ],
      "stateMutability": "view",
      "type": "function"
    },
    {
      "inputs": [
        {
          "internalType": "address",
          "name": "spender",
          "type": "address"
        },
        {
          "internalType": "uint256",
          "name": "value",
          "type": "uint256"
        }
      ],
      "name": "approve",
      "outputs": [
        {
          "internalType": "bool",
          "name": "",
          "type": "bool"
        }
      ],
      "stateMutability": "nonpayable",
      "type": "function"
    },
    {
      "inputs": [
        {
          "internalType": "bytes32",
          "name": "operationId",
          "type": "bytes32"
        }
      ],
      "name": "approveMultisigOperation",
      "outputs": [],
      "stateMutability": "nonpayable",
      "type": "function"
    },
    {
      "inputs": [
        {
          "internalType": "string",
          "name": "",
          "type": "string"
        }
      ],
      "name": "authCodeToInjection",
      "outputs": [
        {
          "internalType": "bytes32",
          "name": "",
          "type": "bytes32"
        }
      ],
      "stateMutability": "view",
      "type": "function"
    },
    {
      "inputs": [
        {
          "internalType": "address",
          "name": "account",
          "type": "address"
        }
      ],
      "name": "balanceOf",
      "outputs": [
        {
          "internalType": "uint256",
          "name": "",
          "type": "uint256"
        }
      ],
      "stateMutability": "view",
      "type": "function"
    },
    {
      "inputs": [
        {
          "internalType": "address",
          "name": "",
          "type": "address"
        }
      ],
      "name": "blacklisted",
      "outputs": [
        {
          "internalType": "bool",
          "name": "",
          "type": "bool"
        }
      ],
      "stateMutability": "view",
      "type": "function"
    },
    {
      "inputs": [
        {
          "internalType": "uint256",
          "name": "value",
          "type": "uint256"
        }
      ],
      "name": "burn",
      "outputs": [],
      "stateMutability": "nonpayable",
      "type": "function"
    },
    {
      "inputs": [
        {
          "internalType": "address",
          "name": "account",
          "type": "address"
        },
        {
          "internalType": "uint256",
          "name": "value",
          "type": "uint256"
        }
      ],
      "name": "burnFrom",
      "outputs": [],
      "stateMutability": "nonpayable",
      "type": "function"
    },
    {
      "inputs": [
        {
          "internalType": "bytes32",
          "name": "injectionId",
          "type": "bytes32"
        },
        {
          "internalType": "string",
          "name": "reason",
          "type": "string"
        }
      ],
      "name": "cancelInjection",
      "outputs": [],
      "stateMutability": "nonpayable",
      "type": "function"
    },
    {
      "inputs": [
        {
          "internalType": "bytes32",
          "name": "injectionId",
          "type": "bytes32"
        }
      ],
      "name": "checkAndExpireInjection",
      "outputs": [],
      "stateMutability": "nonpayable",
      "type": "function"
    },
    {
      "inputs": [],
      "name": "circuitBreakerTriggered",
      "outputs": [
        {
          "internalType": "bool",
          "name": "",
          "type": "bool"
        }
      ],
      "stateMutability": "view",
      "type": "function"
    },
    {
      "inputs": [
        {
          "internalType": "string",
          "name": "accountName",
          "type": "string"
        },
        {
          "internalType": "string",
          "name": "bankName",
          "type": "string"
        },
        {
          "internalType": "string",
          "name": "swiftBic",
          "type": "string"
        },
        {
          "internalType": "string",
          "name": "accountNumber",
          "type": "string"
        }
      ],
      "name": "createCustodyAccount",
      "outputs": [
        {
          "internalType": "bytes32",
          "name": "accountId",
          "type": "bytes32"
        }
      ],
      "stateMutability": "nonpayable",
      "type": "function"
    },
    {
      "inputs": [
        {
          "internalType": "uint256",
          "name": "",
          "type": "uint256"
        }
      ],
      "name": "custodyAccountIds",
      "outputs": [
        {
          "internalType": "bytes32",
          "name": "",
          "type": "bytes32"
        }
      ],
      "stateMutability": "view",
      "type": "function"
    },
    {
      "inputs": [
        {
          "internalType": "bytes32",
          "name": "",
          "type": "bytes32"
        }
      ],
      "name": "custodyAccounts",
      "outputs": [
        {
          "internalType": "bytes32",
          "name": "accountId",
          "type": "bytes32"
        },
        {
          "internalType": "string",
          "name": "accountName",
          "type": "string"
        },
        {
          "internalType": "string",
          "name": "bankName",
          "type": "string"
        },
        {
          "internalType": "string",
          "name": "swiftBic",
          "type": "string"
        },
        {
          "internalType": "string",
          "name": "accountNumber",
          "type": "string"
        },
        {
          "internalType": "uint256",
          "name": "balance",
          "type": "uint256"
        },
        {
          "internalType": "uint256",
          "name": "lockedBalance",
          "type": "uint256"
        },
        {
          "internalType": "bool",
          "name": "isActive",
          "type": "bool"
        },
        {
          "internalType": "address",
          "name": "owner",
          "type": "address"
        },
        {
          "internalType": "uint256",
          "name": "createdAt",
          "type": "uint256"
        },
        {
          "internalType": "uint256",
          "name": "lastActivityAt",
          "type": "uint256"
        }
      ],
      "stateMutability": "view",
      "type": "function"
    },
    {
      "inputs": [],
      "name": "dailyInjected",
      "outputs": [
        {
          "internalType": "uint256",
          "name": "",
          "type": "uint256"
        }
      ],
      "stateMutability": "view",
      "type": "function"
    },
    {
      "inputs": [],
      "name": "decimals",
      "outputs": [
        {
          "internalType": "uint8",
          "name": "",
          "type": "uint8"
        }
      ],
      "stateMutability": "pure",
      "type": "function"
    },
    {
      "inputs": [],
      "name": "eip712Domain",
      "outputs": [
        {
          "internalType": "bytes1",
          "name": "fields",
          "type": "bytes1"
        },
        {
          "internalType": "string",
          "name": "name",
          "type": "string"
        },
        {
          "internalType": "string",
          "name": "version",
          "type": "string"
        },
        {
          "internalType": "uint256",
          "name": "chainId",
          "type": "uint256"
        },
        {
          "internalType": "address",
          "name": "verifyingContract",
          "type": "address"
        },
        {
          "internalType": "bytes32",
          "name": "salt",
          "type": "bytes32"
        },
        {
          "internalType": "uint256[]",
          "name": "extensions",
          "type": "uint256[]"
        }
      ],
      "stateMutability": "view",
      "type": "function"
    },
    {
      "inputs": [
        {
          "internalType": "uint256",
          "name": "offset",
          "type": "uint256"
        },
        {
          "internalType": "uint256",
          "name": "limit",
          "type": "uint256"
        }
      ],
      "name": "getCustodyAccountIdsPaginated",
      "outputs": [
        {
          "internalType": "bytes32[]",
          "name": "",
          "type": "bytes32[]"
        }
      ],
      "stateMutability": "view",
      "type": "function"
    },
    {
      "inputs": [
        {
          "internalType": "uint256",
          "name": "offset",
          "type": "uint256"
        },
        {
          "internalType": "uint256",
          "name": "limit",
          "type": "uint256"
        }
      ],
      "name": "getInjectionIdsPaginated",
      "outputs": [
        {
          "internalType": "bytes32[]",
          "name": "",
          "type": "bytes32[]"
        }
      ],
      "stateMutability": "view",
      "type": "function"
    },
    {
      "inputs": [],
      "name": "getRateLimitStatus",
      "outputs": [
        {
          "internalType": "uint256",
          "name": "_dailyInjected",
          "type": "uint256"
        },
        {
          "internalType": "uint256",
          "name": "_dailyLimit",
          "type": "uint256"
        },
        {
          "internalType": "uint256",
          "name": "_hourlyVolume",
          "type": "uint256"
        },
        {
          "internalType": "uint256",
          "name": "_hourlyLimit",
          "type": "uint256"
        },
        {
          "internalType": "bool",
          "name": "_circuitBreakerActive",
          "type": "bool"
        }
      ],
      "stateMutability": "view",
      "type": "function"
    },
    {
      "inputs": [
        {
          "internalType": "bytes32",
          "name": "role",
          "type": "bytes32"
        }
      ],
      "name": "getRoleAdmin",
      "outputs": [
        {
          "internalType": "bytes32",
          "name": "",
          "type": "bytes32"
        }
      ],
      "stateMutability": "view",
      "type": "function"
    },
    {
      "inputs": [],
      "name": "getStatistics",
      "outputs": [
        {
          "internalType": "uint256",
          "name": "_totalCustodyBalance",
          "type": "uint256"
        },
        {
          "internalType": "uint256",
          "name": "_totalLockedForLUSD",
          "type": "uint256"
        },
        {
          "internalType": "uint256",
          "name": "_totalInjections",
          "type": "uint256"
        },
        {
          "internalType": "uint256",
          "name": "_totalSupply",
          "type": "uint256"
        }
      ],
      "stateMutability": "view",
      "type": "function"
    },
    {
      "inputs": [
        {
          "internalType": "bytes32",
          "name": "role",
          "type": "bytes32"
        },
        {
          "internalType": "address",
          "name": "account",
          "type": "address"
        }
      ],
      "name": "grantRole",
      "outputs": [],
      "stateMutability": "nonpayable",
      "type": "function"
    },
    {
      "inputs": [
        {
          "internalType": "bytes32",
          "name": "role",
          "type": "bytes32"
        },
        {
          "internalType": "address",
          "name": "account",
          "type": "address"
        }
      ],
      "name": "hasRole",
      "outputs": [
        {
          "internalType": "bool",
          "name": "",
          "type": "bool"
        }
      ],
      "stateMutability": "view",
      "type": "function"
    },
    {
      "inputs": [],
      "name": "hourlyVolume",
      "outputs": [
        {
          "internalType": "uint256",
          "name": "",
          "type": "uint256"
        }
      ],
      "stateMutability": "view",
      "type": "function"
    },
    {
      "inputs": [
        {
          "internalType": "bytes32",
          "name": "custodyAccountId",
          "type": "bytes32"
        },
        {
          "internalType": "uint256",
          "name": "amount",
          "type": "uint256"
        },
        {
          "internalType": "address",
          "name": "beneficiary",
          "type": "address"
        },
        {
          "internalType": "string",
          "name": "authorizationCode",
          "type": "string"
        }
      ],
      "name": "initiateInjection",
      "outputs": [
        {
          "internalType": "bytes32",
          "name": "injectionId",
          "type": "bytes32"
        }
      ],
      "stateMutability": "nonpayable",
      "type": "function"
    },
    {
      "inputs": [
        {
          "internalType": "uint256",
          "name": "",
          "type": "uint256"
        }
      ],
      "name": "injectionIds",
      "outputs": [
        {
          "internalType": "bytes32",
          "name": "",
          "type": "bytes32"
        }
      ],
      "stateMutability": "view",
      "type": "function"
    },
    {
      "inputs": [
        {
          "internalType": "bytes32",
          "name": "",
          "type": "bytes32"
        }
      ],
      "name": "injections",
      "outputs": [
        {
          "internalType": "bytes32",
          "name": "injectionId",
          "type": "bytes32"
        },
        {
          "internalType": "bytes32",
          "name": "custodyAccountId",
          "type": "bytes32"
        },
        {
          "internalType": "uint256",
          "name": "amount",
          "type": "uint256"
        },
        {
          "internalType": "enum USD_Enhanced.ISO20022Type",
          "name": "isoType",
          "type": "uint8"
        },
        {
          "internalType": "string",
          "name": "isoMessageCode",
          "type": "string"
        },
        {
          "internalType": "bytes32",
          "name": "isoMessageHash",
          "type": "bytes32"
        },
        {
          "internalType": "string",
          "name": "uetr",
          "type": "string"
        },
        {
          "internalType": "string",
          "name": "instructionId",
          "type": "string"
        },
        {
          "internalType": "string",
          "name": "endToEndId",
          "type": "string"
        },
        {
          "internalType": "bytes32",
          "name": "jsonProofHash",
          "type": "bytes32"
        },
        {
          "internalType": "bytes32",
          "name": "xmlProofHash",
          "type": "bytes32"
        },
        {
          "internalType": "string",
          "name": "proofUri",
          "type": "string"
        },
        {
          "internalType": "enum USD_Enhanced.InjectionStatus",
          "name": "status",
          "type": "uint8"
        },
        {
          "internalType": "address",
          "name": "beneficiary",
          "type": "address"
        },
        {
          "internalType": "uint256",
          "name": "createdAt",
          "type": "uint256"
        },
        {
          "internalType": "uint256",
          "name": "expiresAt",
          "type": "uint256"
        },
        {
          "internalType": "uint256",
          "name": "sentToLemxAt",
          "type": "uint256"
        },
        {
          "internalType": "uint256",
          "name": "lockAcceptedAt",
          "type": "uint256"
        },
        {
          "internalType": "uint256",
          "name": "consumedAt",
          "type": "uint256"
        },
        {
          "internalType": "uint256",
          "name": "completedAt",
          "type": "uint256"
        },
        {
          "internalType": "bytes32",
          "name": "lemxLockId",
          "type": "bytes32"
        },
        {
          "internalType": "bytes32",
          "name": "lusdMintTxHash",
          "type": "bytes32"
        },
        {
          "internalType": "string",
          "name": "authorizationCode",
          "type": "string"
        }
      ],
      "stateMutability": "view",
      "type": "function"
    },
    {
      "inputs": [],
      "name": "lastDayReset",
      "outputs": [
        {
          "internalType": "uint256",
          "name": "",
          "type": "uint256"
        }
      ],
      "stateMutability": "view",
      "type": "function"
    },
    {
      "inputs": [],
      "name": "lastHourReset",
      "outputs": [
        {
          "internalType": "uint256",
          "name": "",
          "type": "uint256"
        }
      ],
      "stateMutability": "view",
      "type": "function"
    },
    {
      "inputs": [
        {
          "internalType": "bytes32",
          "name": "",
          "type": "bytes32"
        }
      ],
      "name": "lemxLockToInjection",
      "outputs": [
        {
          "internalType": "bytes32",
          "name": "",
          "type": "bytes32"
        }
      ],
      "stateMutability": "view",
      "type": "function"
    },
    {
      "inputs": [],
      "name": "locksTreasuryLUSD",
      "outputs": [
        {
          "internalType": "address",
          "name": "",
          "type": "address"
        }
      ],
      "stateMutability": "view",
      "type": "function"
    },
    {
      "inputs": [],
      "name": "name",
      "outputs": [
        {
          "internalType": "string",
          "name": "",
          "type": "string"
        }
      ],
      "stateMutability": "view",
      "type": "function"
    },
    {
      "inputs": [
        {
          "internalType": "address",
          "name": "owner",
          "type": "address"
        }
      ],
      "name": "nonces",
      "outputs": [
        {
          "internalType": "uint256",
          "name": "",
          "type": "uint256"
        }
      ],
      "stateMutability": "view",
      "type": "function"
    },
    {
      "inputs": [],
      "name": "pause",
      "outputs": [],
      "stateMutability": "nonpayable",
      "type": "function"
    },
    {
      "inputs": [],
      "name": "paused",
      "outputs": [
        {
          "internalType": "bool",
          "name": "",
          "type": "bool"
        }
      ],
      "stateMutability": "view",
      "type": "function"
    },
    {
      "inputs": [
        {
          "internalType": "uint256",
          "name": "",
          "type": "uint256"
        }
      ],
      "name": "pendingOperationIds",
      "outputs": [
        {
          "internalType": "bytes32",
          "name": "",
          "type": "bytes32"
        }
      ],
      "stateMutability": "view",
      "type": "function"
    },
    {
      "inputs": [
        {
          "internalType": "bytes32",
          "name": "",
          "type": "bytes32"
        }
      ],
      "name": "pendingOperations",
      "outputs": [
        {
          "internalType": "bytes32",
          "name": "operationId",
          "type": "bytes32"
        },
        {
          "internalType": "bytes32",
          "name": "injectionId",
          "type": "bytes32"
        },
        {
          "internalType": "uint256",
          "name": "amount",
          "type": "uint256"
        },
        {
          "internalType": "address",
          "name": "initiator",
          "type": "address"
        },
        {
          "internalType": "uint256",
          "name": "createdAt",
          "type": "uint256"
        },
        {
          "internalType": "uint256",
          "name": "expiresAt",
          "type": "uint256"
        },
        {
          "internalType": "bool",
          "name": "executed",
          "type": "bool"
        },
        {
          "internalType": "bool",
          "name": "cancelled",
          "type": "bool"
        }
      ],
      "stateMutability": "view",
      "type": "function"
    },
    {
      "inputs": [
        {
          "internalType": "address",
          "name": "owner",
          "type": "address"
        },
        {
          "internalType": "address",
          "name": "spender",
          "type": "address"
        },
        {
          "internalType": "uint256",
          "name": "value",
          "type": "uint256"
        },
        {
          "internalType": "uint256",
          "name": "deadline",
          "type": "uint256"
        },
        {
          "internalType": "uint8",
          "name": "v",
          "type": "uint8"
        },
        {
          "internalType": "bytes32",
          "name": "r",
          "type": "bytes32"
        },
        {
          "internalType": "bytes32",
          "name": "s",
          "type": "bytes32"
        }
      ],
      "name": "permit",
      "outputs": [],
      "stateMutability": "nonpayable",
      "type": "function"
    },
    {
      "inputs": [
        {
          "internalType": "bytes32",
          "name": "accountId",
          "type": "bytes32"
        },
        {
          "internalType": "uint256",
          "name": "amount",
          "type": "uint256"
        }
      ],
      "name": "recordCustodyDeposit",
      "outputs": [],
      "stateMutability": "nonpayable",
      "type": "function"
    },
    {
      "inputs": [
        {
          "internalType": "bytes32",
          "name": "role",
          "type": "bytes32"
        },
        {
          "internalType": "address",
          "name": "callerConfirmation",
          "type": "address"
        }
      ],
      "name": "renounceRole",
      "outputs": [],
      "stateMutability": "nonpayable",
      "type": "function"
    },
    {
      "inputs": [],
      "name": "resetCircuitBreaker",
      "outputs": [],
      "stateMutability": "nonpayable",
      "type": "function"
    },
    {
      "inputs": [
        {
          "internalType": "bytes32",
          "name": "role",
          "type": "bytes32"
        },
        {
          "internalType": "address",
          "name": "account",
          "type": "address"
        }
      ],
      "name": "revokeRole",
      "outputs": [],
      "stateMutability": "nonpayable",
      "type": "function"
    },
    {
      "inputs": [
        {
          "internalType": "address",
          "name": "account",
          "type": "address"
        },
        {
          "internalType": "bool",
          "name": "status",
          "type": "bool"
        }
      ],
      "name": "setBlacklist",
      "outputs": [],
      "stateMutability": "nonpayable",
      "type": "function"
    },
    {
      "inputs": [
        {
          "internalType": "address",
          "name": "_locksTreasuryLUSD",
          "type": "address"
        }
      ],
      "name": "setLocksTreasuryLUSD",
      "outputs": [],
      "stateMutability": "nonpayable",
      "type": "function"
    },
    {
      "inputs": [
        {
          "internalType": "address",
          "name": "account",
          "type": "address"
        },
        {
          "internalType": "bool",
          "name": "status",
          "type": "bool"
        }
      ],
      "name": "setWhitelist",
      "outputs": [],
      "stateMutability": "nonpayable",
      "type": "function"
    },
    {
      "inputs": [
        {
          "internalType": "bool",
          "name": "enabled",
          "type": "bool"
        }
      ],
      "name": "setWhitelistEnabled",
      "outputs": [],
      "stateMutability": "nonpayable",
      "type": "function"
    },
    {
      "inputs": [
        {
          "internalType": "bytes4",
          "name": "interfaceId",
          "type": "bytes4"
        }
      ],
      "name": "supportsInterface",
      "outputs": [
        {
          "internalType": "bool",
          "name": "",
          "type": "bool"
        }
      ],
      "stateMutability": "view",
      "type": "function"
    },
    {
      "inputs": [],
      "name": "symbol",
      "outputs": [
        {
          "internalType": "string",
          "name": "",
          "type": "string"
        }
      ],
      "stateMutability": "view",
      "type": "function"
    },
    {
      "inputs": [],
      "name": "totalCustodyBalance",
      "outputs": [
        {
          "internalType": "uint256",
          "name": "",
          "type": "uint256"
        }
      ],
      "stateMutability": "view",
      "type": "function"
    },
    {
      "inputs": [],
      "name": "totalISOMessages",
      "outputs": [
        {
          "internalType": "uint256",
          "name": "",
          "type": "uint256"
        }
      ],
      "stateMutability": "view",
      "type": "function"
    },
    {
      "inputs": [],
      "name": "totalInjections",
      "outputs": [
        {
          "internalType": "uint256",
          "name": "",
          "type": "uint256"
        }
      ],
      "stateMutability": "view",
      "type": "function"
    },
    {
      "inputs": [],
      "name": "totalLockedForLUSD",
      "outputs": [
        {
          "internalType": "uint256",
          "name": "",
          "type": "uint256"
        }
      ],
      "stateMutability": "view",
      "type": "function"
    },
    {
      "inputs": [],
      "name": "totalSupply",
      "outputs": [
        {
          "internalType": "uint256",
          "name": "",
          "type": "uint256"
        }
      ],
      "stateMutability": "view",
      "type": "function"
    },
    {
      "inputs": [
        {
          "internalType": "address",
          "name": "to",
          "type": "address"
        },
        {
          "internalType": "uint256",
          "name": "value",
          "type": "uint256"
        }
      ],
      "name": "transfer",
      "outputs": [
        {
          "internalType": "bool",
          "name": "",
          "type": "bool"
        }
      ],
      "stateMutability": "nonpayable",
      "type": "function"
    },
    {
      "inputs": [
        {
          "internalType": "address",
          "name": "from",
          "type": "address"
        },
        {
          "internalType": "address",
          "name": "to",
          "type": "address"
        },
        {
          "internalType": "uint256",
          "name": "value",
          "type": "uint256"
        }
      ],
      "name": "transferFrom",
      "outputs": [
        {
          "internalType": "bool",
          "name": "",
          "type": "bool"
        }
      ],
      "stateMutability": "nonpayable",
      "type": "function"
    },
    {
      "inputs": [],
      "name": "unpause",
      "outputs": [],
      "stateMutability": "nonpayable",
      "type": "function"
    },
    {
      "inputs": [],
      "name": "whitelistEnabled",
      "outputs": [
        {
          "internalType": "bool",
          "name": "",
          "type": "bool"
        }
      ],
      "stateMutability": "view",
      "type": "function"
    },
    {
      "inputs": [
        {
          "internalType": "address",
          "name": "",
          "type": "address"
        }
      ],
      "name": "whitelisted",
      "outputs": [
        {
          "internalType": "bool",
          "name": "",
          "type": "bool"
        }
      ],
      "stateMutability": "view",
      "type": "function"
    }
  ],
  "bytecode": "0x610160346200056d57601f6200568338819003918201601f19168301916001600160401b0383118484101762000343578084926020946040528339810103126200056d57516001600160a01b03811681036200056d57604051620000638162000572565b60038152621554d160ea1b9182602083015260405191620000848362000572565b60038352836020840152604051936200009d8562000572565b60038552602085015260405192620000b58462000572565b60018452603160f81b60208501528051906001600160401b038211620003435760035490600182811c9216801562000562575b6020831014620004385781601f849311620004f0575b50602090601f8311600114620004655760009262000459575b50508160011b916000199060031b1c1916176003555b83516001600160401b0381116200034357600454600181811c911680156200044e575b60208210146200043857601f8111620003d2575b50602094601f8211600114620003655794819293949560009262000359575b50508160011b916000199060031b1c1916176004555b620001a481620009c8565b91610120928352620001b68462000b8c565b9161014092835260208151910120938460e0526020815191012093610100948086524660a0526040519060208201927f8b73c3c69bb8fe3d512ecc4cf759cc79239f7b179b0ffacaa9a75d522b39400f8452604083015260608201524660808201523060a082015260a0815260c081019181831060018060401b0384111762000343576040839052815190206080523060c05260016009556001600160a01b038316156200030f5750508062000270620002b3926200058e565b506200027c816200060f565b506200028881620006b2565b50620002948162000750565b50620002a081620007ee565b50620002ac816200088c565b506200092a565b50620151804204601055610e1042046012556040519161491e938462000d458539608051846135e2015260a051846136ad015260c051846135ac015260e0518461363101525183613657015251826118f60152518161191f0152f35b62461bcd60e51b8252602060c4820152600d60e48201526c24b73b30b634b21030b236b4b760991b61010490910152606490fd5b634e487b7160e01b600052604160045260246000fd5b01519050388062000183565b601f19821695600460005260206000209160005b888110620003b9575083600195969798106200039f575b505050811b0160045562000199565b015160001960f88460031b161c1916905538808062000390565b9192602060018192868501518155019401920162000379565b60046000527f8a35acfbc15ff81a39ae7d344fd709f28e8600b4aa8c65c6b64bfe7fe36bd19b601f830160051c81016020841062000430575b601f830160051c820181106200042357505062000164565b600081556001016200040b565b50806200040b565b634e487b7160e01b600052602260045260246000fd5b90607f169062000150565b01519050388062000117565b600360009081527fc2575a0e9e593c00f959f8c92f12db2869c3395a3b0502d05e2516446f71f85b9350601f198516905b818110620004d75750908460019594939210620004bd575b505050811b016003556200012d565b015160001960f88460031b161c19169055388080620004ae565b9293602060018192878601518155019501930162000496565b60036000529091507fc2575a0e9e593c00f959f8c92f12db2869c3395a3b0502d05e2516446f71f85b601f840160051c8101602085106200055a575b90849392915b601f830160051c820181106200054a575050620000fe565b6000815585945060010162000532565b50806200052c565b91607f1691620000e8565b600080fd5b604081019081106001600160401b038211176200034357604052565b6001600160a01b031660008181527f5eff886ea0ce6ca488a3d6e336d6c0f75f46d19b42c06ce5ee98e42c96d256c7602052604081205490919060ff166200060b5781805260086020526040822081835260205260408220600160ff198254161790553391600080516020620056638339815191528180a4600190565b5090565b6001600160a01b031660008181527f1fe5d65500e862f15eec7039c2f59aca107712a4acac3bc21da873270d5d054060205260408120549091907fef11b8e82d6cedc106fa9b56a5f50aa91fb8ce054d1df4894e4f24ac144da2c49060ff16620006ad5780835260086020526040832082845260205260408320600160ff1982541617905560008051602062005663833981519152339380a4600190565b505090565b6001600160a01b031660008181527ff681cad7d50dd9cd6c83a2d2470db5bb2a51980420227fd401fe37252daa914960205260408120549091907fdcb31f2d8a996e00035e18986eee76de80ff9f3b22ea28bd777707455b2f69ae9060ff16620006ad5780835260086020526040832082845260205260408320600160ff1982541617905560008051602062005663833981519152339380a4600190565b6001600160a01b031660008181527fc55ad4e3a5b7fc63e7504308964be3f3e39a94aecdafb478b85307face005d2a60205260408120549091907f0b0bcf4cdacf2bed9599ee82090fa32a13463665a55dedd7a7844671862738f49060ff16620006ad5780835260086020526040832082845260205260408320600160ff1982541617905560008051602062005663833981519152339380a4600190565b6001600160a01b031660008181527f51a495916474fe1a0c0fcfb65a8a97682b84a054118858cdd1f5dfd7fc0919eb60205260408120549091907f9f2df0fed2c77648de5860a4cc508cd0818c85b8b8a1ab4ceeef8d981c8956a69060ff16620006ad5780835260086020526040832082845260205260408320600160ff1982541617905560008051602062005663833981519152339380a4600190565b6001600160a01b031660008181527f3a54d3bb72002ebc46ec1be03640b96650cbb07229988cc6a67dc89bbf20ccff60205260408120549091907f442a94f1a1fac79af32856af2a64f63648cfa2ef3b98610a5bb7cbec4cee69859060ff16620006ad5780835260086020526040832082845260205260408320600160ff1982541617905560008051602062005663833981519152339380a4600190565b6001600160a01b031660008181527fd0ace181325f2752fffd34ba89c7cdd9a12a53878f04f052528093c7482edee360205260408120549091907fbf233dd2aafeb4d50879c4aa5c81e96d92f6e6945c906a58f9f2d1c1631b4b269060ff16620006ad5780835260086020526040832082845260205260408320600160ff1982541617905560008051602062005663833981519152339380a4600190565b8051602091908281101562000a67575090601f82511162000a065780825192015190808310620009f757501790565b82600019910360031b1b161790565b90604051809263305a27a960e01b82528060048301528251908160248401526000935b82851062000a4d575050604492506000838284010152601f80199101168101030190fd5b848101820151868601604401529381019385935062000a29565b6001600160401b03811162000343576005928354926001938481811c9116801562000b81575b838210146200043857601f811162000b4a575b5081601f841160011462000ae0575092829391839260009462000ad4575b50501b916000199060031b1c191617905560ff90565b01519250388062000abe565b919083601f1981168760005284600020946000905b8883831062000b2f575050501062000b15575b505050811b01905560ff90565b015160001960f88460031b161c1916905538808062000b08565b85870151885590960195948501948793509081019062000af5565b8560005284601f846000209201871c820191601f8601881c015b82811062000b7457505062000aa0565b6000815501859062000b64565b90607f169062000a8d565b80516020908181101562000c1a5750601f82511162000bb95780825192015190808310620009f757501790565b90604051809263305a27a960e01b82528060048301528251908160248401526000935b82851062000c00575050604492506000838284010152601f80199101168101030190fd5b848101820151868601604401529381019385935062000bdc565b906001600160401b0382116200034357600654926001938481811c9116801562000d39575b838210146200043857601f811162000cff575b5081601f841160011462000c93575092829391839260009462000c87575b50501b916000199060031b1c19161760065560ff90565b01519250388062000c70565b919083601f198116600660005284600020946000905b8883831062000ce4575050501062000cca575b505050811b0160065560ff90565b015160001960f88460031b161c1916905538808062000cbc565b85870151885590960195948501948793509081019062000ca9565b600660005284601f84600020920160051c820191601f860160051c015b82811062000d2c57505062000c52565b6000815501859062000d1c565b90607f169062000c3f56fe6101a080604052600436101561001457600080fd5b60003560e01c90816301ffc9a714612bf0575080630497586c14612bb5578063052d9e7e14612b7c578063062d3bd714612b4157806306fdde0314612a9b578063095ea7b314612a755780630ca55cd714612a5457806313caf0ce14612811578063153b0d1e1461279757806318160ddd146127795780631aaa901e1461275b5780631f706a591461270a57806320df4359146126cf5780632130e7901461266257806321fe531414612642578063232462a51461261957806323b872dd146125e1578063248a9ca3146125b25780632f2ff15d14612573578063313ce5671461255757806334ccc5ea1461253b5780633644e5151461251857806336568abe146124d1578063370ea3b0146124b3578063372d6b271461247c5780633950b82a1461244d5780633f4ba83a146123e35780633fa6504a14612385578063428b9f561461227757806342966c681461225a5780634c989a381461220e57806351108cac146121eb57806351332346146121d157806351fb012d146121ae57806353d6fd591461211b57806355680afa14611fe95780635847720114611fcb578063596f65ad14611f90578063599c553314611f745780635a71952214611ccd5780635c975abb14611caa5780635cc95ee814611c6f5780635d1599a114611c235780636e41de7414611ad457806370a0823114611a9a57806379cc679014611a6a5780637ecebe0014611a305780638456cb59146119d657806384b0196e146118dd57806385e1f4d0146118c057806388723c9614611611578063889aec2f14610d8a5780638e3a802914610d6c578063912096ec14610d4e57806391d1485414610d0157806394c49cac14610c7957806395082d2514610c5b57806395d89b4114610b795780639b4d9d9f146109da578063a217fddf146109be578063a9059cbb1461098d578063b1b60c531461096f578063b53648ce14610951578063c6bd2be31461090d578063cfd380fc146108d6578063d505accf1461076a578063d53913931461072f578063d547741f146106ee578063d598012f146106c2578063d936547e14610683578063da549f6b14610665578063dbac26e914610626578063dd62ed3e146105d5578063de5f8d9314610574578063e06e91ba14610556578063e57c96db14610535578063e5e71cd314610508578063e83920fd14610405578063ed17c634146103df5763ffa1ad741461039057600080fd5b346103da5760003660031901126103da576103d66040516103b081612d62565b60058152640312e312e360dc1b6020820152604051918291602083526020830190612c75565b0390f35b600080fd5b346103da576103d66103f96103f336612dff565b906147f8565b60405191829182612e15565b346103da5760403660031901126103da57600435602435610424612fb3565b8160005260206017815261044260ff6007604060002001541661391c565b81156104cf577f0f231cae8c936f9888749680f7e1f2f9d80bb69ac7399875b7740d0f320c7a969160609184600052601781526005604060002001610488838254613266565b90558460005260178152426009604060002001556104a882600b54613266565b600b55846000526017815260056040600020015490604051928352820152426040820152a2005b6064906040519062461bcd60e51b8252600482015260126024820152710416d6f756e74206d757374206265203e20360741b6044820152fd5b346103da5760003660031901126103da57600a5460405160089190911c6001600160a01b03168152602090f35b346103da5760003660031901126103da5760206040516509184e72a0008152f35b346103da5760003660031901126103da576020600b54604051908152f35b346103da5760003660031901126103da5761058d61300f565b60ff19601354166013556000601155610e1042046012557fdf2c80869f8349ad696d44d9b3bd9e12796ede774eccaeefcf974f9629d223fa60408051338152426020820152a1005b346103da5760403660031901126103da576105ee612c9a565b6105f6612cb0565b9060018060a01b038091166000526001602052604060002091166000526020526020604060002054604051908152f35b346103da5760203660031901126103da576001600160a01b03610647612c9a565b166000526014602052602060ff604060002054166040519015158152f35b346103da5760003660031901126103da576020601254604051908152f35b346103da5760203660031901126103da576001600160a01b036106a4612c9a565b166000526015602052602060ff604060002054166040519015158152f35b346103da5760203660031901126103da57600435600052601c6020526020604060002054604051908152f35b346103da5760403660031901126103da5761072d60043561070d612cb0565b9080600052600860205261072860016040600020015461306b565b613111565b005b346103da5760003660031901126103da5760206040517f9f2df0fed2c77648de5860a4cc508cd0818c85b8b8a1ab4ceeef8d981c8956a68152f35b346103da5760e03660031901126103da57610783612c9a565b61078b612cb0565b60443590606435926084359360ff851685036103da578042116108be5760018060a01b0390818316958660005260076020526040600020908154916001830190556040519260208401927f6e71edae12b1b97f4d1f60370fef10105fa2faae0126114a169c64845d6126c98452896040860152858816606086015288608086015260a085015260c084015260c0835260e08301918383106001600160401b038411176108a8576108779361086e936040525190206108476135a9565b906040519161190160f01b83526002830152602282015260c43591604260a435922061348e565b9092919261351e565b1684810361088a575061072d9350613289565b60449085604051916325c0072360e11b835260048301526024820152fd5b634e487b7160e01b600052604160045260246000fd5b6024906040519063313c898160e11b82526004820152fd5b346103da5760203660031901126103da57600435601a548110156103da576108ff602091612d13565b90546040519160031b1c8152f35b346103da5760003660031901126103da576103d660405161092d81612d62565b60038152621554d160ea1b6020820152604051918291602083526020830190612c75565b346103da5760003660031901126103da576020600c54604051908152f35b346103da5760003660031901126103da576020601054604051908152f35b346103da5760403660031901126103da576109b36109a9612c9a565b6024359033613188565b602060405160018152f35b346103da5760003660031901126103da57602060405160008152f35b346103da576020806003193601126103da576004359081600052601981526040600020610a0c600d8201541515614770565b600e810154421115610b4257600c81019060ff82541660088110159081610b1e578015918215610b34575b8215610b0d575b505015610ac85790610ab18260017f93b3cc9eae0a921a605891f42bc2b262f3708e2a0b480f1e1c93edd15903311d9594015460005260178452600260406000209101908154610a9360058301918254613266565b9055610aa6600683549201918254614763565b905554600c54614763565b600c55805460ff19166007179055604051428152a2005b60405162461bcd60e51b815260048101849052601b60248201527f43616e6e6f7420657870697265206174207468697320737461676500000000006044820152606490fd5b909150610b1e576002148580610a3e565b634e487b7160e01b600052602160045260246000fd5b506001811491506000610a37565b60405162461bcd60e51b815260048101839052600f60248201526e139bdd08195e1c1a5c9959081e595d608a1b6044820152606490fd5b346103da5760003660031901126103da576040516000600454610b9b81612e50565b80845290600190818116908115610c345750600114610bd9575b6103d684610bc581860382612d98565b604051918291602083526020830190612c75565b6004600090815292507f8a35acfbc15ff81a39ae7d344fd709f28e8600b4aa8c65c6b64bfe7fe36bd19b5b828410610c1c575050508101602001610bc582610bb5565b80546020858701810191909152909301928101610c04565b60ff191660208087019190915292151560051b85019092019250610bc59150839050610bb5565b346103da5760003660031901126103da576020604051620f42408152f35b346103da5760203660031901126103da57600435600052601d602052610100604060002060ff815491600181015490600281015460018060a01b036003830154166005830154916007600685015494015494604051978852602088015260408701526060860152608085015260a0840152818116151560c084015260081c16151560e0820152f35b346103da5760403660031901126103da57610d1a612cb0565b600435600052600860205260406000209060018060a01b0316600052602052602060ff604060002054166040519015158152f35b346103da5760003660031901126103da576020600d54604051908152f35b346103da5760003660031901126103da576020600e54604051908152f35b346103da5760803660031901126103da576004356001600160401b0381116103da57610dba903690600401612f20565b6024356001600160401b0381116103da57610dd9903690600401612f20565b91906044356001600160401b0381116103da57610dfa903690600401612f20565b6064949194356001600160401b0381116103da57610e1c903690600401612f20565b3360009081527ff681cad7d50dd9cd6c83a2d2470db5bb2a51980420227fd401fe37252daa91496020526040902054909691907fdcb31f2d8a996e00035e18986eee76de80ff9f3b22ea28bd777707455b2f69ae9060ff16156115f35750851515806115e8575b610e8c906138a0565b831515806115dd575b610e9e906138a0565b6008831480156115d3575b1561158e5786151580611583575b610ec0906138a0565b8784610f1c6054898b88858c60405197858996602088019b8c3786019160208301600081523701818a602083016000815237018188602083016000815237014260208201523360601b6040820152036034810184520182612d98565b5190209687600052601760205260086040600020015461154d5760405191826101608101106001600160401b03610160850111176108a857610f9a916101608401604052898452610f6e368a8d612db9565b6020850152610f7e36888a612db9565b6040850152610f8e368787612db9565b60608501523691612db9565b6080820152600060a0820152600060c0820152600160e08201523361010082015242610120820152426101408201528660005260176020526040600020908051825560208101518051906001600160401b0382116108a85781906110016001860154612e50565b601f8111611518575b50602090601f83116001146114a65760009261149b575b50508160011b916000199060031b1c19161760018301555b60408101518051906001600160401b0382116108a857819061105e6002860154612e50565b601f8111611466575b50602090601f83116001146113f4576000926113e9575b50508160011b916000199060031b1c19161760028301555b60608101518051906001600160401b0382116108a85781906110bb6003860154612e50565b601f81116113b4575b50602090601f831160011461134257600092611337575b50508160011b916000199060031b1c19161760038301555b60808101518051906001600160401b0382116108a8576111166004850154612e50565b601f81116112f7575b50602090601f83116001146112815791806009949261014094600092611276575b50508160011b916000199060031b1c19161760048501555b60a0810151600585015560c081015160068501556111b76007850161118f60e08401511515829060ff801983541691151516179055565b6101008301518154610100600160a81b03191660089190911b610100600160a81b0316179055565b6101208101516008850155015191015560185491600160401b8310156108a85761125387957f6f5640d9daf12011b619cd81e8b4162a0f2c73c360b0108dc8e237c354c855879561124660209b8961123261121b8a60016112619c01601855612cc6565b819391549060031b91821b91600019901b19161790565b90556040519a60808c5260808c01916138fb565b918983038c8b01526138fb565b9186830360408801526138fb565b924260608201528033940390a3604051908152f35b015190508d80611140565b906004850160005260206000209160005b601f19851681106112df575092600994926001926101409583601f198116106112c6575b505050811b016004850155611158565b015160001960f88460031b161c191690558d80806112b6565b91926020600181928685015181550194019201611292565b61132790600486016000526020600020601f850160051c8101916020861061132d575b601f0160051c01906138e4565b8b61111f565b909150819061131a565b015190508b806110db565b9250600385016000526020600020906000935b601f1984168510611399576001945083601f19811610611380575b505050811b0160038301556110f3565b015160001960f88460031b161c191690558b8080611370565b81810151835560209485019460019093019290910190611355565b6113e390600387016000526020600020601f850160051c8101916020861061132d57601f0160051c01906138e4565b8c6110c4565b015190508b8061107e565b9250600285016000526020600020906000935b601f198416851061144b576001945083601f19811610611432575b505050811b016002830155611096565b015160001960f88460031b161c191690558b8080611422565b81810151835560209485019460019093019290910190611407565b61149590600287016000526020600020601f850160051c8101916020861061132d57601f0160051c01906138e4565b8c611067565b015190508b80611021565b9250600185016000526020600020906000935b601f19841685106114fd576001945083601f198116106114e4575b505050811b016001830155611039565b015160001960f88460031b161c191690558b80806114d4565b818101518355602094850194600190930192909101906114b9565b61154790600187016000526020600020601f850160051c8101916020861061132d57601f0160051c01906138e4565b8c61100a565b60405162461bcd60e51b815260206004820152600e60248201526d4163636f756e742065786973747360901b6044820152606490fd5b506032871115610eb7565b60405162461bcd60e51b815260206004820152601860248201527f496e76616c69642053574946542f42494320666f726d617400000000000000006044820152606490fd5b50600b8314610ea9565b506064841115610e95565b506064861115610e83565b6044906040519063e2517d3f60e01b82523360048301526024820152fd5b346103da5760203660031901126103da57600435600052601960205260406000208060c0528054906001810154916002820154608052600382015460ff16906040518060048195019061166391612e8a565b0361166e9084612d98565b60c0516005810154906040518060068193019061168a91612e8a565b036116959082612d98565b60405191828060c051600701906116ab91612e8a565b036116b69084612d98565b604051808060c051600801906116cb91612e8a565b036116d69082612d98565b60c05193600985015493600a8601549360405180600b819901906116f991612e8a565b036117049088612d98565b60c051998a99600c8b015461012052600d8b015461016052600e8b015461014052600f8b01549c60108c01549a60118d01549c601201549d601381015461018052601481015460e052604051809181610100526015019061176491612e8a565b03610100519061177391612d98565b6040518060a0525260a0516020015260805160a0516040015261179581612f4d565b60a051606001526102e08060a0516080015260a051016117b491612c75565b9060a05160a0015260a0518082039060c001526117d091612c75565b60a0518082039060e001526117e491612c75565b60a0518082039061010001526117f991612c75565b9160a051610120015260a051610140015260a05180820390610160015261181f91612c75565b936101205160ff166008811015610b1e5761018060a051015260018060a01b036101205160081c166101a060a0510152610160516101c060a0510152610140516101e060a051015261020060a051015261022060a051015261024060a051015261026060a05101526101805161028060a051015260e0516102a060a051015260a0516102c08183039101526118ba60a0519161010051612c75565b0360a051f35b346103da5760003660031901126103da5760206040516103ed8152f35b346103da5760003660031901126103da5761198661191a7f00000000000000000000000000000000000000000000000000000000000000006136ea565b6119437f00000000000000000000000000000000000000000000000000000000000000006137e6565b906040519061195182612d7d565b60008252604051938493600f60f81b855261197860209360e08588015260e0870190612c75565b908582036040870152612c75565b466060850152306080850152600060a085015283810360c085015281808451928381520193019160005b8281106119bf57505050500390f35b8351855286955093810193928101926001016119b0565b346103da5760003660031901126103da576119ef61300f565b6119f76146fb565b600160ff19600a541617600a557f62e78cea01bee320cd4e420270b5ea74000d11b0c9f74754ebdbfc544b05a2586020604051338152a1005b346103da5760203660031901126103da576001600160a01b03611a51612c9a565b1660005260076020526020604060002054604051908152f35b346103da5760403660031901126103da5761072d611a86612c9a565b60243590611a9582338361331c565b6133ef565b346103da5760203660031901126103da576001600160a01b03611abb612c9a565b1660005260006020526020604060002054604051908152f35b346103da5760403660031901126103da576004356024356001600160401b0381116103da57611b07903690600401612f20565b90611b10612fb3565b826000526019602052604060002091611b2e600d8401541515614770565b600c830160ff8154166008811015610b1e578015908115611c18575b5015611bd357611b9d8460017fd12305b8ef027eb4288edfd3749d5dafdf2a14e32a337b6ab4597b059dc57b2b9601546000526017602052600260406000209101908154610a9360058301918254613266565b600c55600660ff19825416179055611bc86040519283923384526060602085015260608401916138fb565b4260408301520390a2005b60405162461bcd60e51b815260206004820152601b60248201527f43616e6e6f742063616e63656c206174207468697320737461676500000000006044820152606490fd5b600191501486611b4a565b346103da5760003660031901126103da576103d6604051611c4381612d62565b600b81526a088868496aaa66666b0b0b60ab1b6020820152604051918291602083526020830190612c75565b346103da5760003660031901126103da5760206040517fef11b8e82d6cedc106fa9b56a5f50aa91fb8ce054d1df4894e4f24ac144da2c48152f35b346103da5760003660031901126103da57602060ff600a54166040519015158152f35b346103da5760803660031901126103da576024356044356001600160a01b038116908181036103da576064356001600160401b0381116103da57611d15903690600401612f20565b91611d1e612fb3565b600260095414611f62576002600955611d356146fb565b836000526020936014855260ff60406000205416611f275760ff60165416611ec7575b506201518042046010548111611eb9575b50600f546509184e72a000611d7e8783613266565b11611e7d5785611d8d91613266565b600f55610e1042046012548111611e65575b506013549460ff8616611e2757611dda9495611dbd82601154613266565b9081601155652d79883d20008211611de7575b505060043561395d565b6001600955604051908152f35b60ff19166001176013556040805191825242888301527fc1b68f84e2906898e13e04dfea4f2ca4c44015fceb114b71916f54a7072712a691a18680611dd0565b60405162461bcd60e51b81526004810186905260166024820152754369726375697420627265616b65722061637469766560501b6044820152606490fd5b600060115560125560ff196013541660135585611d9f565b60405162461bcd60e51b815260048101869052601460248201527311185a5b1e481b1a5b5a5d08195e18d95959195960621b6044820152606490fd5b6000600f5560105585611d69565b6000526015845260ff6040600020541615611ee25785611d58565b60405162461bcd60e51b815260048101859052601760248201527f4163636f756e74206e6f742077686974656c69737465640000000000000000006044820152606490fd5b60405162461bcd60e51b81526004810186905260136024820152721058d8dbdd5b9d08189b1858dadb1a5cdd1959606a1b6044820152606490fd5b604051633ee5aeb560e01b8152600490fd5b346103da5760003660031901126103da57602060405160028152f35b346103da5760003660031901126103da5760206040517f0b0bcf4cdacf2bed9599ee82090fa32a13463665a55dedd7a7844671862738f48152f35b346103da5760003660031901126103da576020601154604051908152f35b346103da5760203660031901126103da5760043560005260176020526040600020805460405191612028836120218160018501612e8a565b0384612d98565b6040516120438161203c8160028601612e8a565b0382612d98565b60405191612058836120218160038501612e8a565b604051926120748461206d8160048601612e8a565b0385612d98565b6005820154936120e16006840154916120d36007860154946120c560096008890154980154986120b76040519d8e9d8e528d610160908160208201520190612c75565b8c810360408e015290612c75565b908a820360608c0152612c75565b9088820360808a0152612c75565b60a087019590955260c086015260ff8116151560e086015260081c6001600160a01b03166101008501526101208401526101408301520390f35b346103da5760403660031901126103da57612134612c9a565b7ff754ea90eae40356b027ad5939504598d0b5590361a4609ecc4d0c5cbefd88866121a9612160612c43565b92612169612f57565b6001600160a01b03166000818152601560205260409020805460ff191660ff86151516179055925b60408051911515825242602083015290918291820190565b0390a2005b346103da5760003660031901126103da57602060ff601654166040519015158152f35b346103da576103d66103f96121e536612dff565b90614890565b346103da5760003660031901126103da57602060ff601354166040519015158152f35b346103da5760003660031901126103da5760a0600f5460115460ff60135416906040519283526509184e72a00060208401526040830152652d79883d2000606083015215156080820152f35b346103da5760203660031901126103da5761072d600435336133ef565b346103da5760203660031901126103da57612290612c9a565b3360009081527f5eff886ea0ce6ca488a3d6e336d6c0f75f46d19b42c06ce5ee98e42c96d256c7602052604090205460ff1615612366576001600160a01b038181169190821561232f57600a8054610100600160a81b03198116600894851b610100600160a81b031617909155604051428152921c16907ff067b680b7035928a8ae1b1c7d824ab055c8c9d0ddc25eb74c00c81806324bf390602090a3005b60405162461bcd60e51b815260206004820152600f60248201526e496e76616c6964206164647265737360881b6044820152606490fd5b60405163e2517d3f60e01b815233600482015260006024820152604490fd5b346103da5760003660031901126103da576103d66040516123a581612d62565b601b81527f4469676974616c20436f6d6d65726369616c2042616e6b204c746400000000006020820152604051918291602083526020830190612c75565b346103da5760003660031901126103da576123fc61300f565b600a5460ff81161561243b5760ff1916600a557f5db9ee0a495bf2e6ff9c91a7834c1ba4fdd244a5e8aa4e537bd38aeae4b073aa6020604051338152a1005b604051638dfc202b60e01b8152600490fd5b346103da5760003660031901126103da576020604051738de60f88f19dad42dde0d9ed2eeba68269722a998152f35b346103da5760003660031901126103da576080600b54600c54600d5460025491604051938452602084015260408301526060820152f35b346103da5760003660031901126103da57602060405162278d008152f35b346103da5760403660031901126103da576124ea612cb0565b336001600160a01b038216036125065761072d90600435613111565b60405163334bd91960e11b8152600490fd5b346103da5760003660031901126103da5760206125336135a9565b604051908152f35b346103da5760003660031901126103da57602060405160648152f35b346103da5760003660031901126103da57602060405160068152f35b346103da5760403660031901126103da5761072d600435612592612cb0565b908060005260086020526125ad60016040600020015461306b565b613091565b346103da5760203660031901126103da5760043560005260086020526020600160406000200154604051908152f35b346103da5760603660031901126103da576109b36125fd612c9a565b612605612cb0565b6044359161261483338361331c565b613188565b346103da5760203660031901126103da576004356018548110156103da576108ff602091612cc6565b346103da5760003660031901126103da57602060405164e8d4a510008152f35b346103da5760203660031901126103da576004356001600160401b0381116103da57366023820112156103da576126bc60206126a981933690602481600401359101612db9565b8160405193828580945193849201612c52565b8101601b81520301902054604051908152f35b346103da5760003660031901126103da5760206040517fbf233dd2aafeb4d50879c4aa5c81e96d92f6e6945c906a58f9f2d1c1631b4b268152f35b346103da5760203660031901126103da57600435601e548110156103da57602090601e6000527f50bb669a95c7b50b7e8a6f09454034b2b14cf2b85c730dca9a539ca82cb6e3500154604051908152f35b346103da5760003660031901126103da576020600f54604051908152f35b346103da5760003660031901126103da576020600254604051908152f35b346103da5760403660031901126103da576127b0612c9a565b7f142d5045ab1341f66fef679656ba2034a2ebee260be07a6327b8512075d2dd246121a96127dc612c43565b926127e5612f57565b6001600160a01b03166000818152601460205260409020805460ff191660ff8615151617905592612191565b346103da576020806003193601126103da576004359061282f612fb3565b81600052601d8152604060002090600582015415612a1a576007820191825460ff81166129e25760081c60ff166129a7576006810154421161296e57600401805460005b8181106129065750506002906128893382614719565b546040805133815260208101839052429181019190915285907f714ecc0e0a88fe6393fab4095555466dacc17806a88f34e3e999360210b9faa990606090a210156128d057005b7f27d7dd6f9282a96995b1e70c660d1ee91a0fc149ee5809a153f01917499628e691600160ff19825416179055604051428152a2005b6129108184612d4a565b905460039190911b1c6001600160a01b031633146129365761293190614754565b612873565b60405162461bcd60e51b815260048101859052601060248201526f105b1c9958591e48185c1c1c9bdd995960821b6044820152606490fd5b60405162461bcd60e51b815260048101839052601160248201527013dc195c985d1a5bdb88195e1c1a5c9959607a1b6044820152606490fd5b60405162461bcd60e51b815260048101839052601360248201527213dc195c985d1a5bdb8818d85b98d95b1b1959606a1b6044820152606490fd5b60405162461bcd60e51b815260048101849052601060248201526f105b1c9958591e48195e1958dd5d195960821b6044820152606490fd5b6064906040519062461bcd60e51b82526004820152601360248201527213dc195c985d1a5bdb881b9bdd08199bdd5b99606a1b6044820152fd5b346103da5760003660031901126103da576020604051652d79883d20008152f35b346103da5760403660031901126103da576109b3612a91612c9a565b6024359033613289565b346103da5760003660031901126103da576040516000600354612abd81612e50565b80845290600190818116908115610c345750600114612ae6576103d684610bc581860382612d98565b6003600090815292507fc2575a0e9e593c00f959f8c92f12db2869c3395a3b0502d05e2516446f71f85b5b828410612b29575050508101602001610bc582610bb5565b80546020858701810191909152909301928101612b11565b346103da5760003660031901126103da5760206040517f442a94f1a1fac79af32856af2a64f63648cfa2ef3b98610a5bb7cbec4cee69858152f35b346103da5760203660031901126103da576004358015158091036103da57612ba2612f57565b60ff801960165416911617601655600080f35b346103da5760003660031901126103da5760206040517fdcb31f2d8a996e00035e18986eee76de80ff9f3b22ea28bd777707455b2f69ae8152f35b346103da5760203660031901126103da576004359063ffffffff60e01b82168092036103da57602091637965db0b60e01b8114908115612c32575b5015158152f35b6301ffc9a760e01b14905083612c2b565b6024359081151582036103da57565b60005b838110612c655750506000910152565b8181015183820152602001612c55565b90602091612c8e81518092818552858086019101612c52565b601f01601f1916010190565b600435906001600160a01b03821682036103da57565b602435906001600160a01b03821682036103da57565b601854811015612cfd5760186000527fb13d2d76d1f4b7be834882e410b3e3a8afaf69f83600ae24db354391d2378d2e0190600090565b634e487b7160e01b600052603260045260246000fd5b601a54811015612cfd57601a6000527f057c384a7d1c54f3a1b2e5e67b2617b8224fdfd1ea7234eea573a6ff665ff63e0190600090565b8054821015612cfd5760005260206000200190600090565b604081019081106001600160401b038211176108a857604052565b602081019081106001600160401b038211176108a857604052565b90601f801991011681019081106001600160401b038211176108a857604052565b9291926001600160401b0382116108a85760405191612de2601f8201601f191660200184612d98565b8294818452818301116103da578281602093846000960137010152565b60409060031901126103da576004359060243590565b6020908160408183019282815285518094520193019160005b828110612e3c575050505090565b835185529381019392810192600101612e2e565b90600182811c92168015612e80575b6020831014612e6a57565b634e487b7160e01b600052602260045260246000fd5b91607f1691612e5f565b9060009291805491612e9b83612e50565b918282526001938481169081600014612efd5750600114612ebd575b50505050565b90919394506000526020928360002092846000945b838610612ee9575050505001019038808080612eb7565b805485870183015294019385908201612ed2565b9294505050602093945060ff191683830152151560051b01019038808080612eb7565b9181601f840112156103da578235916001600160401b0383116103da57602083818601950101116103da57565b60041115610b1e57565b3360009081527f3a54d3bb72002ebc46ec1be03640b96650cbb07229988cc6a67dc89bbf20ccff60205260409020547f442a94f1a1fac79af32856af2a64f63648cfa2ef3b98610a5bb7cbec4cee69859060ff16156115f35750565b3360009081527f1fe5d65500e862f15eec7039c2f59aca107712a4acac3bc21da873270d5d054060205260409020547fef11b8e82d6cedc106fa9b56a5f50aa91fb8ce054d1df4894e4f24ac144da2c49060ff16156115f35750565b3360009081527fd0ace181325f2752fffd34ba89c7cdd9a12a53878f04f052528093c7482edee360205260409020547fbf233dd2aafeb4d50879c4aa5c81e96d92f6e6945c906a58f9f2d1c1631b4b269060ff16156115f35750565b80600052600860205260406000203360005260205260ff60406000205416156115f35750565b906000918083526008602052604083209160018060a01b03169182845260205260ff6040842054161560001461310c5780835260086020526040832082845260205260408320600160ff198254161790557f2f8788117e7eff1d82e926ec794901d17c78024a50270940304540a733656f0d339380a4600190565b505090565b906000918083526008602052604083209160018060a01b03169182845260205260ff60408420541660001461310c578083526008602052604083208284526020526040832060ff1981541690557ff6391f5c32d9c69d2a47ea670b442974b53935d1edc7fd64eb21e047a839171b339380a4600190565b916001600160a01b0380841692831561324d57169283156132345760009083825281602052604082205490838210613202575091604082827fddf252ad1be2c89b69c2b068fc378daa952ba7f163c4a11628f55a4df523b3ef958760209652828652038282205586815220818154019055604051908152a3565b60405163391434e360e21b81526001600160a01b03919091166004820152602481019190915260448101839052606490fd5b60405163ec442f0560e01b815260006004820152602490fd5b604051634b637e8f60e11b815260006004820152602490fd5b9190820180921161327357565b634e487b7160e01b600052601160045260246000fd5b6001600160a01b0390811691821561330357169182156132ea5760207f8c5be1e5ebec7d5bd14f71427d1e84f3dd0314c0f7b2291e5b200ac8c7c3b925918360005260018252604060002085600052825280604060002055604051908152a3565b604051634a1406b160e11b815260006004820152602490fd5b60405163e602df0560e01b815260006004820152602490fd5b9160018060a01b03809316916000938385526001602052604093848620918316918287526020528486205492600019841061335b575b50505050505050565b8484106133bf575080156133a757811561338f57855260016020528385209085526020520391205538808080808080613352565b8451634a1406b160e11b815260048101879052602490fd5b845163e602df0560e01b815260048101879052602490fd5b8551637dc7a0d960e11b81526001600160a01b039190911660048201526024810184905260448101859052606490fd5b906001600160a01b03821690811561324d576000928284528360205260408420549082821061345c5750817fddf252ad1be2c89b69c2b068fc378daa952ba7f163c4a11628f55a4df523b3ef926020928587528684520360408620558060025403600255604051908152a3565b60405163391434e360e21b81526001600160a01b03919091166004820152602481019190915260448101829052606490fd5b91907f7fffffffffffffffffffffffffffffff5d576e7357a4501ddfe92f46681b20a0841161351257926020929160ff608095604051948552168484015260408301526060820152600092839182805260015afa156135065780516001600160a01b038116156134fd57918190565b50809160019190565b604051903d90823e3d90fd5b50505060009160039190565b61352781612f4d565b80613530575050565b61353981612f4d565b600181036135535760405163f645eedf60e01b8152600490fd5b61355c81612f4d565b6002810361357d5760405163fce698f760e01b815260048101839052602490fd5b80613589600392612f4d565b146135915750565b602490604051906335e2f38360e21b82526004820152fd5b307f00000000000000000000000000000000000000000000000000000000000000006001600160a01b031614806136aa575b15613604577f000000000000000000000000000000000000000000000000000000000000000090565b60405160208101907f8b73c3c69bb8fe3d512ecc4cf759cc79239f7b179b0ffacaa9a75d522b39400f82527f000000000000000000000000000000000000000000000000000000000000000060408201527f000000000000000000000000000000000000000000000000000000000000000060608201524660808201523060a082015260a0815260c081018181106001600160401b038211176108a85760405251902090565b507f000000000000000000000000000000000000000000000000000000000000000046146135db565b6001600160401b0381116108a85760051b60200190565b60ff81146137285760ff811690601f8211613716576040519161370c83612d62565b8252602082015290565b604051632cd44ac360e21b8152600490fd5b5060405160055481600061373b83612e50565b808352926001908181169081156137c45750600114613765575b5061376292500382612d98565b90565b6005600090815291507f036b6384b5eca791c62761152d0c79bb0604c104a5fb6f4eb0703f3154bb3db05b8483106137a95750613762935050810160200138613755565b81935090816020925483858901015201910190918492613790565b90506020925061376294915060ff191682840152151560051b82010138613755565b60ff81146138085760ff811690601f8211613716576040519161370c83612d62565b5060405160065481600061381b83612e50565b808352926001908181169081156137c45750600114613841575061376292500382612d98565b6006600090815291507ff652222313e28459528d920b65115c16c04f3efc82aaedc97be59f3f377c0d3f5b8483106138855750613762935050810160200138613755565b8193509081602092548385890101520191019091849261386c565b156138a757565b60405162461bcd60e51b8152602060048201526015602482015274092dcecc2d8d2c840e6e8e4d2dcce40d8cadccee8d605b1b6044820152606490fd5b8181106138ef575050565b600081556001016138e4565b908060209392818452848401376000828201840152601f01601f1916010190565b1561392357565b60405162461bcd60e51b81526020600482015260126024820152714163636f756e74206e6f742061637469766560701b6044820152606490fd5b9192826000526017602052816005604060002061398060ff60078301541661391c565b0154106146bf576001600160a01b038416156146845784151580614679575b156146405760405185828237602081878101601b8152030190205461460a5764e8d4a510008210156143a457826000526017602052604060002094600d54604051613a2b60b48260208101948986528860408301526001600160601b03198b60601b16606083015286886074840137868201904260748301526094820152036094810184520182612d98565b5190209560058101613a3e858254614763565b905560068101613a4f858254613266565b9055600942910155613a6383600c54613266565b600c5562278d0042014211613273576040516102e081018181106001600160401b038211176108a85760405286815284602082015283604082015260006060820152604051613ab181612d7d565b600081526080820152600060a0820152604051613acd81612d7d565b6000815260c0820152604051613ae281612d7d565b6000815260e0820152604051613af781612d7d565b6000815261010082015260006101208201526000610140820152604051613b1d81612d7d565b60008152610160820152600061018082015260018060a01b0386166101a0820152426101c082015262278d0042016101e08201526000610200820152600061022082015260006102408201526000610260820152600061028082015260006102a0820152613b8c368385612db9565b6102c0820152866000526019602052604060002090805182556020810151600183015560408101516002830155600382016060820151613bcb81612f4d565b613bd481612f4d565b60ff8019835416911617905560808101518051906001600160401b0382116108a8578190613c056004860154612e50565b601f811161436f575b50602090601f83116001146142fd576000926142f2575b50508160011b916000199060031b1c19161760048301555b60a0810151600583015560c08101518051906001600160401b0382116108a8578190613c6c6006860154612e50565b601f81116142bd575b50602090601f831160011461424b57600092614240575b50508160011b916000199060031b1c19161760068301555b60e08101518051906001600160401b0382116108a8578190613cc96007860154612e50565b601f811161420b575b50602090601f83116001146141995760009261418e575b50508160011b916000199060031b1c19161760078301555b6101008101518051906001600160401b0382116108a8578190613d276008860154612e50565b601f8111614159575b50602090601f83116001146140e7576000926140dc575b50508160011b916000199060031b1c19161760088301555b6101208101516009830155610140810151600a8301556101608101518051906001600160401b0382116108a8578190613d9b600b860154612e50565b601f81116140a7575b50602090601f83116001146140355760009261402a575b50508160011b916000199060031b1c191617600b8301555b600c8201906101808101516008811015610b1e5782546101a0830151610100600160a81b0360089190911b1660ff929092166001600160a81b031990911617179091556102c0906101c0810151600d8401556101e0810151600e840155610200810151600f84015561022081015160108401556102408101516011840155610260810151601284015561028081015160138401556102a0810151601484015501518051906001600160401b0382116108a857613e926015840154612e50565b601f8111613ff5575b50602090601f8311600114613f85576015929160009183613f7a575b50508160011b916000199060031b1c1916179101555b601a5492600160401b8410156108a857613f577fc3bb4628d3198ccde6435b2c03f9ab8f5131068054feecc07ed657202ada62019388613f1761121b886001849a01601a55612d13565b90558560405185838237602081878101601b81520301902055613f3b600d54614754565b600d5560405193849384526080602085015260808401916138fb565b4262278d008101604084015260608301526001600160a01b03909616950390a490565b015190503880613eb7565b906015840160005260206000209160005b601f1985168110613fdd5750918391600193601595601f19811610613fc4575b505050811b01910155613ecd565b015160001960f88460031b161c19169055388080613fb6565b91926020600181928685015181550194019201613f96565b61402490601585016000526020600020601f850160051c8101916020861061132d57601f0160051c01906138e4565b38613e9b565b015190503880613dbb565b9250600b85016000526020600020906000935b601f198416851061408c576001945083601f19811610614073575b505050811b01600b830155613dd3565b015160001960f88460031b161c19169055388080614063565b81810151835560209485019460019093019290910190614048565b6140d690600b87016000526020600020601f850160051c8101916020861061132d57601f0160051c01906138e4565b38613da4565b015190503880613d47565b9250600885016000526020600020906000935b601f198416851061413e576001945083601f19811610614125575b505050811b016008830155613d5f565b015160001960f88460031b161c19169055388080614115565b818101518355602094850194600190930192909101906140fa565b61418890600887016000526020600020601f850160051c8101916020861061132d57601f0160051c01906138e4565b38613d30565b015190503880613ce9565b9250600785016000526020600020906000935b601f19841685106141f0576001945083601f198116106141d7575b505050811b016007830155613d01565b015160001960f88460031b161c191690553880806141c7565b818101518355602094850194600190930192909101906141ac565b61423a90600787016000526020600020601f850160051c8101916020861061132d57601f0160051c01906138e4565b38613cd2565b015190503880613c8c565b9250600685016000526020600020906000935b601f19841685106142a2576001945083601f19811610614289575b505050811b016006830155613ca4565b015160001960f88460031b161c19169055388080614279565b8181015183556020948501946001909301929091019061425e565b6142ec90600687016000526020600020601f850160051c8101916020861061132d57601f0160051c01906138e4565b38613c75565b015190503880613c25565b9250600485016000526020600020906000935b601f1984168510614354576001945083601f1981161061433b575b505050811b016004830155613c3d565b015160001960f88460031b161c1916905538808061432b565b81810151835560209485019460019093019290910190614310565b61439e90600487016000526020600020601f850160051c8101916020861061132d57601f0160051c01906138e4565b38613c0e565b9192609490856143f09396604051958693602085019889528960408601526001600160601b03199060601b16606085015260748401378101426074820152036074810184520182612d98565b5190209060405161440081612d7d565b6000815262093a804201804211613273576040516001600160401b0392906101208101848111828210176108a857604052858152602081019060008252604081019386855260608201933385526080830190815260a083019042825260c0840192835260e084019560008752610100850195600087528b600052601d602052604060002095518655519760019889870155516002860155600385019060018060a01b039051166001600160601b0360a01b825416179055519687519081116108a857600160401b978882116108a8576020600486019182548484558085106145ed575b50019060005260206000208860005b8481106145d057505050505091600791614529935160058301555160068201550192511515839060ff801983541691151516179055565b51815461ff00191690151560081b61ff0016179055601e54918210156108a857810180601e55811015612cfd577fec12b8a88e9d57cdbad4f671b0ceb1154cc0d47e2ebf52b4c32abd380844ce8660606000938580947f50bb669a95c7b50b7e8a6f09454034b2b14cf2b85c730dca9a539ca82cb6e3500155838552601d6020526145ba3360046040882001614719565b604051908152336020820152426040820152a390565b83516001600160a01b0316818401556020909301928a91016144f2565b6146049084600052858460002091820191016138e4565b386144e3565b60405162461bcd60e51b815260206004820152600e60248201526d105d5d1a0818dbd919481d5cd95960921b6044820152606490fd5b60405162461bcd60e51b8152602060048201526011602482015270496e76616c6964206175746820636f646560781b6044820152606490fd5b50603285111561399f565b60405162461bcd60e51b8152602060048201526013602482015272496e76616c69642062656e656669636961727960681b6044820152606490fd5b60405162461bcd60e51b8152602060048201526014602482015273496e73756666696369656e742062616c616e636560601b6044820152606490fd5b60ff600a541661470757565b60405163d93c066560e01b8152600490fd5b8054600160401b8110156108a85761473691600182018155612d4a565b819291549060031b9160018060a01b03809116831b921b1916179055565b60001981146132735760010190565b9190820391821161327357565b1561477757565b60405162461bcd60e51b8152602060048201526013602482015272125b9a9958dd1a5bdb881b9bdd08199bdd5b99606a1b6044820152606490fd5b906147bc826136d3565b6147c96040519182612d98565b82815280926147da601f19916136d3565b0190602036910137565b8051821015612cfd5760209160051b010190565b9060185490818310156148755761480f9083613266565b9080821161486d575b5061482b6148268383614763565b6147b2565b91805b82811061483b5750505090565b8061484861486892612cc6565b90549060031b1c61486261485c8584614763565b876147e4565b52614754565b61482e565b905038614818565b50505060405161488481612d7d565b60008152600036813790565b90601a549081831015614875576148a79083613266565b908082116148e0575b506148be6148268383614763565b91805b8281106148ce5750505090565b806148486148db92612d13565b6148c1565b9050386148b056fea264697066735822122022c7c86216b70eef7a37168ac89740f4f3206bd8201f8626acbe85a3171369ef64736f6c634300081400332f8788117e7eff1d82e926ec794901d17c78024a50270940304540a733656f0d",
  "linkReferences": {},
  "deployedLinkReferences": {},
  "immutableReferences": {
    "4423": [
      {
        "length": 32,
        "start": 13794
      }
    ],
    "4425": [
      {
        "length": 32,
        "start": 13997
      }
    ],
    "4427": [
      {
        "length": 32,
        "start": 13740
      }
    ],
    "4429": [
      {
        "length": 32,
        "start": 13873
      }
    ],
    "4431": [
      {
        "length": 32,
        "start": 13911
      }
    ],
    "4434": [
      {
        "length": 32,
        "start": 6390
      }
    ],
    "4437": [
      {
        "length": 32,
        "start": 6431
      }
    ]
  },
  "inputSourceName": "project/contracts/DCBTreasury/v3/USD_Enhanced.sol",
  "buildInfoId": "solc-0_8_20-a1c61539025f0654ad3a75bdb2b55239eb68e7f3"
}