{
  "_format": "hh3-artifact-1",
  "contractName": "FlashLoanArbitrage",
  "sourceName": "contracts/FlashLoanArbitrage.sol",
  "abi": [
    {
      "inputs": [
        {
          "internalType": "address",
          "name": "_poolAddressesProvider",
          "type": "address"
        },
        {
          "internalType": "address",
          "name": "_uniswapV3Router",
          "type": "address"
        },
        {
          "internalType": "address",
          "name": "_sushiRouter",
          "type": "address"
        },
        {
          "internalType": "address",
          "name": "_weth",
          "type": "address"
        },
        {
          "internalType": "address",
          "name": "_usdc",
          "type": "address"
        }
      ],
      "stateMutability": "nonpayable",
      "type": "constructor"
    },
    {
      "anonymous": false,
      "inputs": [
        {
          "indexed": false,
          "internalType": "string",
          "name": "strategy",
          "type": "string"
        },
        {
          "indexed": false,
          "internalType": "uint256",
          "name": "amountIn",
          "type": "uint256"
        },
        {
          "indexed": false,
          "internalType": "uint256",
          "name": "amountOut",
          "type": "uint256"
        },
        {
          "indexed": false,
          "internalType": "uint256",
          "name": "profit",
          "type": "uint256"
        }
      ],
      "name": "ArbitrageExecuted",
      "type": "event"
    },
    {
      "anonymous": false,
      "inputs": [
        {
          "indexed": false,
          "internalType": "string",
          "name": "param",
          "type": "string"
        },
        {
          "indexed": false,
          "internalType": "uint256",
          "name": "value",
          "type": "uint256"
        }
      ],
      "name": "ConfigUpdated",
      "type": "event"
    },
    {
      "anonymous": false,
      "inputs": [
        {
          "indexed": true,
          "internalType": "address",
          "name": "asset",
          "type": "address"
        },
        {
          "indexed": false,
          "internalType": "uint256",
          "name": "amount",
          "type": "uint256"
        },
        {
          "indexed": false,
          "internalType": "uint256",
          "name": "premium",
          "type": "uint256"
        },
        {
          "indexed": false,
          "internalType": "uint256",
          "name": "profit",
          "type": "uint256"
        }
      ],
      "name": "FlashLoanExecuted",
      "type": "event"
    },
    {
      "anonymous": false,
      "inputs": [
        {
          "indexed": true,
          "internalType": "address",
          "name": "to",
          "type": "address"
        },
        {
          "indexed": false,
          "internalType": "uint256",
          "name": "amount",
          "type": "uint256"
        }
      ],
      "name": "ProfitWithdrawn",
      "type": "event"
    },
    {
      "inputs": [],
      "name": "AAVE_POOL",
      "outputs": [
        {
          "internalType": "address",
          "name": "",
          "type": "address"
        }
      ],
      "stateMutability": "view",
      "type": "function"
    },
    {
      "inputs": [],
      "name": "DAI",
      "outputs": [
        {
          "internalType": "address",
          "name": "",
          "type": "address"
        }
      ],
      "stateMutability": "view",
      "type": "function"
    },
    {
      "inputs": [],
      "name": "POOL_ADDRESSES_PROVIDER",
      "outputs": [
        {
          "internalType": "address",
          "name": "",
          "type": "address"
        }
      ],
      "stateMutability": "view",
      "type": "function"
    },
    {
      "inputs": [],
      "name": "USDC",
      "outputs": [
        {
          "internalType": "address",
          "name": "",
          "type": "address"
        }
      ],
      "stateMutability": "view",
      "type": "function"
    },
    {
      "inputs": [],
      "name": "USDT",
      "outputs": [
        {
          "internalType": "address",
          "name": "",
          "type": "address"
        }
      ],
      "stateMutability": "view",
      "type": "function"
    },
    {
      "inputs": [],
      "name": "WETH",
      "outputs": [
        {
          "internalType": "address",
          "name": "",
          "type": "address"
        }
      ],
      "stateMutability": "view",
      "type": "function"
    },
    {
      "inputs": [
        {
          "internalType": "address",
          "name": "asset",
          "type": "address"
        },
        {
          "internalType": "uint256",
          "name": "amount",
          "type": "uint256"
        },
        {
          "internalType": "uint8",
          "name": "strategy",
          "type": "uint8"
        },
        {
          "internalType": "bytes",
          "name": "strategyParams",
          "type": "bytes"
        }
      ],
      "name": "executeDirectArbitrage",
      "outputs": [
        {
          "internalType": "uint256",
          "name": "profit",
          "type": "uint256"
        }
      ],
      "stateMutability": "nonpayable",
      "type": "function"
    },
    {
      "inputs": [
        {
          "internalType": "address",
          "name": "asset",
          "type": "address"
        },
        {
          "internalType": "uint256",
          "name": "amount",
          "type": "uint256"
        },
        {
          "internalType": "bytes",
          "name": "params",
          "type": "bytes"
        }
      ],
      "name": "executeFlashLoan",
      "outputs": [],
      "stateMutability": "nonpayable",
      "type": "function"
    },
    {
      "inputs": [
        {
          "internalType": "address",
          "name": "asset",
          "type": "address"
        },
        {
          "internalType": "uint256",
          "name": "amount",
          "type": "uint256"
        },
        {
          "internalType": "uint256",
          "name": "premium",
          "type": "uint256"
        },
        {
          "internalType": "address",
          "name": "initiator",
          "type": "address"
        },
        {
          "internalType": "bytes",
          "name": "params",
          "type": "bytes"
        }
      ],
      "name": "executeOperation",
      "outputs": [
        {
          "internalType": "bool",
          "name": "",
          "type": "bool"
        }
      ],
      "stateMutability": "nonpayable",
      "type": "function"
    },
    {
      "inputs": [],
      "name": "getConfig",
      "outputs": [
        {
          "internalType": "uint256",
          "name": "_minProfitBps",
          "type": "uint256"
        },
        {
          "internalType": "uint256",
          "name": "_maxSlippageBps",
          "type": "uint256"
        },
        {
          "internalType": "bool",
          "name": "_paused",
          "type": "bool"
        }
      ],
      "stateMutability": "view",
      "type": "function"
    },
    {
      "inputs": [],
      "name": "getStats",
      "outputs": [
        {
          "internalType": "uint256",
          "name": "_totalFlashLoans",
          "type": "uint256"
        },
        {
          "internalType": "uint256",
          "name": "_totalProfitWei",
          "type": "uint256"
        },
        {
          "internalType": "uint256",
          "name": "_successfulArbitrages",
          "type": "uint256"
        }
      ],
      "stateMutability": "view",
      "type": "function"
    },
    {
      "inputs": [],
      "name": "maxSlippageBps",
      "outputs": [
        {
          "internalType": "uint256",
          "name": "",
          "type": "uint256"
        }
      ],
      "stateMutability": "view",
      "type": "function"
    },
    {
      "inputs": [],
      "name": "minProfitBps",
      "outputs": [
        {
          "internalType": "uint256",
          "name": "",
          "type": "uint256"
        }
      ],
      "stateMutability": "view",
      "type": "function"
    },
    {
      "inputs": [],
      "name": "owner",
      "outputs": [
        {
          "internalType": "address",
          "name": "",
          "type": "address"
        }
      ],
      "stateMutability": "view",
      "type": "function"
    },
    {
      "inputs": [],
      "name": "paused",
      "outputs": [
        {
          "internalType": "bool",
          "name": "",
          "type": "bool"
        }
      ],
      "stateMutability": "view",
      "type": "function"
    },
    {
      "inputs": [
        {
          "internalType": "uint256",
          "name": "_maxSlippageBps",
          "type": "uint256"
        }
      ],
      "name": "setMaxSlippageBps",
      "outputs": [],
      "stateMutability": "nonpayable",
      "type": "function"
    },
    {
      "inputs": [
        {
          "internalType": "uint256",
          "name": "_minProfitBps",
          "type": "uint256"
        }
      ],
      "name": "setMinProfitBps",
      "outputs": [],
      "stateMutability": "nonpayable",
      "type": "function"
    },
    {
      "inputs": [
        {
          "internalType": "bool",
          "name": "_paused",
          "type": "bool"
        }
      ],
      "name": "setPaused",
      "outputs": [],
      "stateMutability": "nonpayable",
      "type": "function"
    },
    {
      "inputs": [
        {
          "internalType": "address",
          "name": "_uniRouter",
          "type": "address"
        },
        {
          "internalType": "address",
          "name": "_sushiRouter",
          "type": "address"
        }
      ],
      "name": "setRouters",
      "outputs": [],
      "stateMutability": "nonpayable",
      "type": "function"
    },
    {
      "inputs": [
        {
          "internalType": "address",
          "name": "_weth",
          "type": "address"
        },
        {
          "internalType": "address",
          "name": "_usdc",
          "type": "address"
        },
        {
          "internalType": "address",
          "name": "_usdt",
          "type": "address"
        },
        {
          "internalType": "address",
          "name": "_dai",
          "type": "address"
        }
      ],
      "name": "setTokens",
      "outputs": [],
      "stateMutability": "nonpayable",
      "type": "function"
    },
    {
      "inputs": [],
      "name": "successfulArbitrages",
      "outputs": [
        {
          "internalType": "uint256",
          "name": "",
          "type": "uint256"
        }
      ],
      "stateMutability": "view",
      "type": "function"
    },
    {
      "inputs": [],
      "name": "sushiRouter",
      "outputs": [
        {
          "internalType": "address",
          "name": "",
          "type": "address"
        }
      ],
      "stateMutability": "view",
      "type": "function"
    },
    {
      "inputs": [],
      "name": "totalFlashLoans",
      "outputs": [
        {
          "internalType": "uint256",
          "name": "",
          "type": "uint256"
        }
      ],
      "stateMutability": "view",
      "type": "function"
    },
    {
      "inputs": [],
      "name": "totalProfitWei",
      "outputs": [
        {
          "internalType": "uint256",
          "name": "",
          "type": "uint256"
        }
      ],
      "stateMutability": "view",
      "type": "function"
    },
    {
      "inputs": [
        {
          "internalType": "address",
          "name": "newOwner",
          "type": "address"
        }
      ],
      "name": "transferOwnership",
      "outputs": [],
      "stateMutability": "nonpayable",
      "type": "function"
    },
    {
      "inputs": [],
      "name": "uniswapV3Router",
      "outputs": [
        {
          "internalType": "address",
          "name": "",
          "type": "address"
        }
      ],
      "stateMutability": "view",
      "type": "function"
    },
    {
      "inputs": [],
      "name": "withdrawETH",
      "outputs": [],
      "stateMutability": "nonpayable",
      "type": "function"
    },
    {
      "inputs": [
        {
          "internalType": "address",
          "name": "token",
          "type": "address"
        }
      ],
      "name": "withdrawProfit",
      "outputs": [],
      "stateMutability": "nonpayable",
      "type": "function"
    },
    {
      "stateMutability": "payable",
      "type": "receive"
    }
  ],
  "bytecode": "0x60c08060405234620001965760a0816200254180380380916200002382856200019a565b83398101031262000196576200003981620001d2565b906200004860208201620001d2565b916200005760408301620001d2565b916200007460806200006c60608401620001d2565b9201620001d2565b90600a80556064600b5560ff19600c5416600c5560018060a01b0319935f9533868854161787558460805260405163026b1d5f60e01b815260208160048160018060a01b03809a165afa9081156200018b57888798999796979262000136575b5050849291839160a052168760015416176001551685600254161760025516836003541617600355169060045416176004556040516123599081620001e88239608051816109db015260a05181818161027601528181610cde015261111c0152f35b915091929394506020823d821162000182575b8162000158602093836200019a565b810103126200017f5750918580949392620001748294620001d2565b9181939450620000d4565b80fd5b3d915062000149565b6040513d8a823e3d90fd5b5f80fd5b601f909101601f19168101906001600160401b03821190821017620001be57604052565b634e487b7160e01b5f52604160045260245ffd5b51906001600160a01b0382168203620001965756fe60806040818152600480361015610020575b505050361561001e575f80fd5b005b5f92833560e01c908163079a598b1461114b5750806308a0167514611107578063114cad2c146110e857806316c38b3c146110a55780631b11d0ff14610c9157806324e2624114610ae657806325fc1b3d14610a335780632c76d7a614610a0a578063311cd5a4146109c6578063383aeeae146109a75780633c4e380514610988578063537820bf146108f65780635c975abb146108d25780635ead6fb01461086f5780636d13582c146108465780638447b9aa1461058757806389a30271146105605780638da5cb5b14610538578063ad5c46481461050f578063c3f909d4146104da578063c4aa7395146104bb578063c54e44eb14610492578063c59d48471461045c578063e086e5ec146103e5578063e0bab4c4146103bc578063f2fde38b14610339578063f3df1253146102115763fcff2c2803610011573461020d57602036600319011261020d5780359061018460018060a01b0385541633146111db565b6103e882116101e057507f12c9dccd129ff783f1c8228eacdfa8e334ddecb7ec5c9a79ec662a4aed3d012a9181608092600a55600c8251928084528301526b6d696e50726f66697442707360a01b60608301526020820152a180f35b606490602084519162461bcd60e51b835282015260076024820152664d61782031302560c81b6044820152fd5b8280fd5b50903461020d57606036600319011261020d5761022c611167565b9167ffffffffffffffff846044358281116103355761024e90369085016111ad565b9560018060a01b036102648185541633146111db565b61027360ff600c541615611214565b807f00000000000000000000000000000000000000000000000000000000000000001691823b156103315760c485918a8a519b8c97889687946310ac2ddf60e21b86528d3090870152166024850152602435604485015260a060648501528160a48501528484013783838284010152836084830152601f801991011681010301925af1801561032757610304578480f35b83116103145750525f8080808480f35b634e487b7160e01b845260419052602483fd5b83513d87823e3d90fd5b8480fd5b5080fd5b503461020d57602036600319011261020d57610353611167565b835491906001600160a01b039061036d33838616146111db565b169283156103875750506001600160a01b03191617815580f35b906020606492519162461bcd60e51b8352820152600f60248201526e496e76616c6964206164647265737360881b6044820152fd5b50503461033557816003193601126103355760065490516001600160a01b039091168152602090f35b503461020d578260031936011261020d5782546001600160a01b031661040c3382146111db565b47918215610430575083808093819382f115610426575080f35b51903d90823e3d90fd5b606490602085519162461bcd60e51b8352820152600660248201526509cde408aa8960d31b6044820152fd5b82843461048f578060031936011261048f5750600754600854600954925191825260208201526040810191909152606090f35b80fd5b50503461033557816003193601126103355760055490516001600160a01b039091168152602090f35b505034610335578160031936011261033557602090600b549051908152f35b505034610335578160031936011261033557606090600a5490600b5460ff600c54169082519384526020840152151590820152f35b50503461033557816003193601126103355760035490516001600160a01b039091168152602090f35b505034610335578160031936011261033557905490516001600160a01b039091168152602090f35b503461020d578260031936011261020d575490516001600160a01b03909116815260209150f35b50919034610335576080366003190112610335576105a3611167565b602435926044359460ff86168096036103355760643567ffffffffffffffff811161020d576105d590369083016111ad565b83549194916001600160a01b03906105f090821633146111db565b6105ff60ff600c541615611214565b8216918651956370a0823160e01b92838852308689015260209a8b89602481895afa98891561083c578899610809575b508a89106107cf57918a918360018e979695145f14610741575061066093929161065a9136916112c0565b91611425565b505b6024875180948193825230878301525afa928315610736578093610704575b5050828211156106d557506106a961069f6106b29361271093611327565b94600a5490611334565b04831015611347565b6106be82600854611306565b6008556106cc600954611397565b60095551908152f35b835162461bcd60e51b81529081018690526009602482015268139bc81c1c9bd99a5d60ba1b6044820152606490fd5b909192508682813d831161072f575b61071d818361129e565b8101031261048f575051905f80610681565b503d610713565b8551903d90823e3d90fd5b60028103610767575061076193929161075b9136916112c0565b91611833565b50610662565b90925060039193949550145f1461079157918961078b610761938d969536916112c0565b91611e5b565b885162461bcd60e51b815260208188018181526010918101919091526f496e76616c696420737472617465677960801b604082015281906060010390fd5b895162461bcd60e51b81528088018d90526014602482015273496e73756666696369656e742062616c616e636560601b6044820152606490fd5b9098508b81813d8311610835575b610821818361129e565b810103126108315751975f61062f565b8780fd5b503d610817565b8a513d8a823e3d90fd5b50503461033557816003193601126103355760025490516001600160a01b039091168152602090f35b5050346103355736600319011261048f57610888611167565b610890611197565b82546001600160a01b0391906108a990831633146111db565b816bffffffffffffffffffffffff60a01b93168360015416176001551690600254161760025580f35b50503461033557816003193601126103355760209060ff600c541690519015158152f35b83823461033557608036600319011261033557610911611167565b9061091a611197565b6001600160a01b03916044358381169190829003610984578361093b611181565b9361094a8289541633146111db565b816bffffffffffffffffffffffff60a01b971687600354161760035516858254161790558360055416176005551690600654161760065580f35b8580fd5b5050346103355781600319360112610335576020906009549051908152f35b505034610335578160031936011261033557602090600a549051908152f35b505034610335578160031936011261033557517f00000000000000000000000000000000000000000000000000000000000000006001600160a01b03168152602090f35b50503461033557816003193601126103355760015490516001600160a01b039091168152602090f35b503461020d57602036600319011261020d57803590610a5c60018060a01b0385541633146111db565b6101f48211610aba57507f12c9dccd129ff783f1c8228eacdfa8e334ddecb7ec5c9a79ec662a4aed3d012a9181608092600b55600e8251928084528301526d6d6178536c69707061676542707360901b60608301526020820152a180f35b606490602084519162461bcd60e51b835282015260066024820152654d617820352560d01b6044820152fd5b509190346103355760208060031936011261020d57610b03611167565b83546001600160a01b0390811695918190610b1f3389146111db565b16958451926370a0823160e01b8452308185015284846024818b5afa938415610c87578794610c54575b508315610c2457855163a9059cbb60e01b81526001600160a01b0390921690820190815260208101849052959694959094849186919082908a90829060400103925af18015610c1a57610bc6575b7f016e128b6bdadd9e9068abd0b18db2fc8b27ed3dbced50e4aa6cc0a6934251ab93508554169351908152a280f35b8284813d8311610c13575b610bdb818361129e565b8101031261098457610c0d7f016e128b6bdadd9e9068abd0b18db2fc8b27ed3dbced50e4aa6cc0a6934251ab9461138a565b50610b97565b503d610bd1565b85513d88823e3d90fd5b855162461bcd60e51b8152908101859052600a6024820152694e6f2062616c616e636560b01b6044820152606490fd5b9093508481813d8311610c80575b610c6c818361129e565b81010312610c7c5751925f610b49565b8680fd5b503d610c62565b86513d89823e3d90fd5b50913461048f5760a036600319011261048f57610cac611167565b92602435610cb8611181565b916084359367ffffffffffffffff9485811161033557610cdb90369084016111ad565b977f0000000000000000000000000000000000000000000000000000000000000000956001600160a01b0390818816330361107157813091160361103a578116968851996370a0823160e01b8b5230868c015260209a8b816024818d5afa801561103057908c91611007575b505083019089848303126103315783359360ff8516809503610984578b810135918211610984570181601f82011215610331578691818c610d8a933591016112c0565b9160018403610f9a57610d9d9350611425565b505b85516370a0823160e01b81523083820152908782602481895afa918215610f1c578192610f6b575b5060443594610dd68686611306565b92838110610f285790610dea848b93611327565b94610e06612710610dfd600a548a611334565b04871015611347565b895163095ea7b360e01b81526001600160a01b03909216908201908152602081019490945292839081906040010381848a5af18015610f1c57610ebe575b505090610eb47fe03a36d920ad8de5a978a8f1917280e202ae9193e6dc19e08ef1f6c2a051eba49392610e78600754611397565b600755610e8781600854611306565b600855610e95600954611397565b6009558651938493846040919493926060820195825260208201520152565b0390a25160018152f35b8782813d8311610f15575b610ed3818361129e565b8101031261048f57507fe03a36d920ad8de5a978a8f1917280e202ae9193e6dc19e08ef1f6c2a051eba4939291610f0c610eb49261138a565b50919293610e44565b503d610ec9565b508651903d90823e3d90fd5b885162461bcd60e51b81528086018b9052601b60248201527f496e73756666696369656e742066756e647320746f20726570617900000000006044820152606490fd5b9091508781813d8311610f93575b610f83818361129e565b810103126103355751905f610dc7565b503d610f79565b60028403610fb257610fac9350611833565b50610d9f565b9192600314159050610fc9579084610fac92611e5b565b875162461bcd60e51b815260208186018181526010918101919091526f496e76616c696420737472617465677960801b604082015281906060010390fd5b813d8311611029575b61101a818361129e565b81010312610331578a5f610d47565b503d611010565b8b513d88823e3d90fd5b885162461bcd60e51b8152602081870152601160248201527024b73b30b634b21034b734ba34b0ba37b960791b6044820152606490fd5b895162461bcd60e51b8152602081880152600e60248201526d13db9b1e4810585d9948141bdbdb60921b6044820152606490fd5b8382346103355760203660031901126103355735801515809103610335576110d760018060a01b0383541633146111db565b60ff8019600c5416911617600c5580f35b5050346103355781600319360112610335576020906007549051908152f35b505034610335578160031936011261033557517f00000000000000000000000000000000000000000000000000000000000000006001600160a01b03168152602090f35b8490346103355781600319360112610335576020906008548152f35b600435906001600160a01b038216820361117d57565b5f80fd5b606435906001600160a01b038216820361117d57565b602435906001600160a01b038216820361117d57565b9181601f8401121561117d5782359167ffffffffffffffff831161117d576020838186019501011161117d57565b156111e257565b60405162461bcd60e51b815260206004820152600a60248201526927b7363c9037bbb732b960b11b6044820152606490fd5b1561121b57565b60405162461bcd60e51b815260206004820152600f60248201526e10dbdb9d1c9858dd081c185d5cd959608a1b6044820152606490fd5b60e0810190811067ffffffffffffffff82111761126e57604052565b634e487b7160e01b5f52604160045260245ffd5b6060810190811067ffffffffffffffff82111761126e57604052565b90601f8019910116810190811067ffffffffffffffff82111761126e57604052565b92919267ffffffffffffffff821161126e57604051916112ea601f8201601f19166020018461129e565b82948184528183011161117d578281602093845f960137010152565b9190820180921161131357565b634e487b7160e01b5f52601160045260245ffd5b9190820391821161131357565b8181029291811591840414171561131357565b1561134e57565b60405162461bcd60e51b815260206004820152601460248201527350726f6669742062656c6f77206d696e696d756d60601b6044820152606490fd5b5190811515820361117d57565b5f1981146113135760010190565b51906001600160a01b038216820361117d57565b519062ffffff8216820361117d57565b91909160c060e08201938160018060a01b039182815116855282602082015116602086015262ffffff60408201511660408601528260608201511660608601526080810151608086015260a081015160a0860152015116910152565b9092919260608480518101031261117d576020916114448386016113a5565b9060409161145f6060611458858a016113b9565b98016113b9565b600154845163095ea7b360e01b8082526001600160a01b039283166004830152602482018890525f9a948316958316949093909189816044818f8a5af1801561172c576116f4575b508260015416928b8851956114bb87611252565b878752888c88015262ffffff8095168a8801523060608801528a60808801528160a08801528160c08801528b8a5180978185816115066304e45aaf60e01b9d8e8352600483016113c9565b03925af19586156116ea579082918d93976116b7575b506001548b5191825284166001600160a01b0316600482015260248101879052919082908180604481015b03918c5af180156116ad5761165f575b5091899593916115ac9b9c979593600154169489519661157688611252565b875287870152168785015230606085015260808401528660a08401528460c0840152848651809a819582948352600483016113c9565b03925af1948515611653578195611621575b5091845f8051602061230483398151915294928460c095508383115f1461161b57506115ea8383611327565b925b8151946080865260096080870152680929ca8a482be888ab60bb1b60a08701528501528301526060820152a190565b926115ec565b909194508381813d831161164c575b61163a818361129e565b810103126103355751939060c06115be565b503d611630565b509051903d90823e3d90fd5b8a81813d83116116a6575b611674818361129e565b810103126116a257916115ac9b9c979593916116928c98969461138a565b50919395979c9b50919395611557565b8c80fd5b503d61166a565b89513d8f823e3d90fd5b9196509181813d81116116e3575b6116cf818361129e565b810103126109845751948b9161154761151c565b503d6116c5565b8a513d84823e3d90fd5b8981813d8311611725575b611709818361129e565b810103126117215761171a9061138a565b505f6114a7565b8b80fd5b503d6116ff565b88513d8e823e3d90fd5b8051156117435760200190565b634e487b7160e01b5f52603260045260245ffd5b8051600110156117435760400190565b80518210156117435760209160051b010190565b90602090818382031261117d57825167ffffffffffffffff9384821161117d570181601f8201121561117d57805193841161126e578360051b90604051946117c58584018761129e565b8552838086019282010192831161117d578301905b8282106117e8575050505090565b815181529083019083016117da565b9081518082526020808093019301915f5b828110611816575050505090565b83516001600160a01b031685529381019392810192600101611808565b919060608280518101031261117d576020916118508382016113a5565b9360409461186b60606118648886016113b9565b940161138a565b6001600160a01b0391821692905f9015611b945750600154875163095ea7b360e01b8082529184166001600160a01b03166004808301919091526024820188905295928416929088816044815f885af18015611b8a579089969594939291611b4e575b509461192a5f9685600154169062ffffff8d51916118eb83611252565b8783528986840152168d8201523060608201528a60808201528860a08201528860c08201528c519889809481936304e45aaf60e01b83528d83016113c9565b03925af1948515611b0c579088915f96611b16575b506002548a5191825284166001600160a01b0316878201908152602081018790529091908290819060400103815f885af18015611b0c57611ad8575b5087519261198884611282565b6002845288368986013761199b84611736565b526119a583611757565b52600254169061012c420192834211611ac557916119ee915f80948a51968795869485936338ed173960e01b85528b8501528b602485015260a0604485015260a48401906117f7565b90306064840152608483015203925af1908115611abb575f91611a9a575b5080515f19810192908311611a87575091611a385f80516020612304833981519152949260c094611767565b5180955b5f83831115611a815750611a508383611327565b925b815194608086526009608087015268086a49ea6a6be888ab60bb1b60a08701528501528301526060820152a190565b92611a52565b601190634e487b7160e01b5f525260245ffd5b611ab5913d8091833e611aad818361129e565b81019061177b565b5f611a0c565b85513d5f823e3d90fd5b601185634e487b7160e01b5f525260245ffd5b8781813d8311611b05575b611aed818361129e565b8101031261117d57611afe9061138a565b505f61197b565b503d611ae3565b89513d5f823e3d90fd5b9182819792949596973d8311611b47575b611b31818361129e565b8101031261048f5750519392919087905f61193f565b503d611b27565b9586813d8311611b83575b611b63818361129e565b8101031261117d5761192a8991611b7a5f9861138a565b509196506118ce565b503d611b59565b8a513d5f823e3d90fd5b600254885163095ea7b360e01b8082529185166001600160a01b031660048083019190915260248201899052929694959493861693919089816044818b895af18015611ddd57611e27575b508951611beb81611282565b600281528a368b83013784611bff82611736565b5285611c0a82611757565b52866002541661012c420191824211611e14578991611c5491838f8e9051968795869485936338ed173960e01b85528d85015284602485015260a0604485015260a48401906117f7565b90306064840152608483015203925af1908115611ddd578891611dfa575b5080515f19810191908211611de757611c8f8c9493928c92611767565b5160015494519283529388166001600160a01b0316858301908152602081018590528290819060400103818b8a5af18015611ddd57908a969594939291611d93575b5062ffffff90611d289760015416948c5196611cec88611252565b875287870152168a85015230606085015260808401528660a08401528560c08401528589518096819582946304e45aaf60e01b845283016113c9565b03925af1918215610736578092611d56575b50509160c0915f80516020612304833981519152938095611a3c565b9091508382813d8311611d8c575b611d6e818361129e565b8101031261048f575051815f80516020612304833981519152611d3a565b503d611d64565b9092949691939581813d8311611dd6575b611dae818361129e565b8101031261083157611d289694928a969492611dcd62ffffff9361138a565b50975090611cd1565b503d611da4565b8b513d8a823e3d90fd5b634e487b7160e01b895260118552602489fd5b611e0e91503d808a833e611aad818361129e565b5f611c72565b634e487b7160e01b8a526011865260248afd5b8981813d8311611e54575b611e3c818361129e565b8101031261083157611e4d9061138a565b505f611bdf565b503d611e32565b60a08380518101031261117d57611e74602084016113a5565b92611e81604082016113a5565b90611e8e606082016113b9565b90611ea760a0611ea0608084016113b9565b92016113b9565b60015460405163095ea7b360e01b81526001600160a01b03909116600482015260248101879052909290602081806044810103815f6001600160a01b038b165af180156121ba576122c0575b506020611f6c5f9260018060a01b03600154169062ffffff60405191611f1883611252565b6001600160a01b038b811684528d168684015216604080830191909152306060830152608082018b905260a0820186905260c08201869052516304e45aaf60e01b81529485938492839190600483016113c9565b03925af19081156121ba575f9161228e575b5060015460405163095ea7b360e01b81526001600160a01b03909116600482015260248101829052602081806044810103815f6001600160a01b038d165af180156121ba57612247575b506020915f9761203f9262ffffff60018060a01b03600154169360405193611fef85611252565b60018060a01b0316845260018060a01b0389168785015216604083015230606083015260808201528860a08201528860c08201526040519889809481936304e45aaf60e01b8352600483016113c9565b03925af19485156121ba575f95612213575b5060015460405163095ea7b360e01b81526001600160a01b03909116600482015260248101869052602081806044810103815f6001600160a01b0388165af180156121ba576121c5575b5091612112915f9562ffffff60209560018060a01b036001541694604051946120c386611252565b60018060a01b0316855260018060a01b03168785015216604083015230606083015260808201528460a08201528560c08201526040519586809481936304e45aaf60e01b8352600483016113c9565b03925af19182156121ba575f92612185575b5060c05f80516020612304833981519152918084115f1461217f576121498185611327565b6040519160808352600a6080840152692a2924a0a723aaa620a960b11b60a084015260208301528460408301526060820152a190565b5f612149565b9091506020813d6020116121b2575b816121a16020938361129e565b8101031261117d57519060c0612124565b3d9150612194565b6040513d5f823e3d90fd5b9290916020843d60201161220b575b816121e16020938361129e565b8101031261117d575f9562ffffff612112946121fe60209761138a565b509395505095509161209b565b3d91506121d4565b9094506020813d60201161223f575b8161222f6020938361129e565b8101031261117d5751935f612051565b3d9150612222565b90916020823d602011612286575b816122626020938361129e565b8101031261117d575f9760209361227b61203f9461138a565b509250975091611fc8565b3d9150612255565b90506020813d6020116122b8575b816122a96020938361129e565b8101031261117d57515f611f7e565b3d915061229c565b906020823d6020116122fb575b816122da6020938361129e565b8101031261117d57611f6c6020916122f25f9461138a565b50925050611ef3565b3d91506122cd56fe17078c68f2d19703a569814824fbd34e13a624e30a1a562b6fff0b278d9bd5faa2646970667358221220feab7fc37c605889c685d1c4ca221be166eda1ef89911595e192e72a1846365164736f6c63430008140033",
  "linkReferences": {},
  "deployedLinkReferences": {},
  "immutableReferences": {
    "229": [
      {
        "length": 32,
        "start": 2523
      }
    ],
    "231": [
      {
        "length": 32,
        "start": 630
      },
      {
        "length": 32,
        "start": 3294
      },
      {
        "length": 32,
        "start": 4380
      }
    ]
  },
  "inputSourceName": "project/contracts/FlashLoanArbitrage.sol",
  "buildInfoId": "solc-0_8_20-56ae0a0da09da2f0744d1a33f0a41ec0aaa5a983"
}