{
  "_format": "hh3-artifact-1",
  "contractName": "DCBTimelock",
  "sourceName": "contracts/DCBTreasury/v3/security/DCBTimelock.sol",
  "abi": [
    {
      "inputs": [
        {
          "internalType": "address",
          "name": "_admin",
          "type": "address"
        },
        {
          "internalType": "address[]",
          "name": "_proposers",
          "type": "address[]"
        },
        {
          "internalType": "address[]",
          "name": "_executors",
          "type": "address[]"
        },
        {
          "internalType": "uint256",
          "name": "_delay",
          "type": "uint256"
        }
      ],
      "stateMutability": "nonpayable",
      "type": "constructor"
    },
    {
      "inputs": [],
      "name": "AccessControlBadConfirmation",
      "type": "error"
    },
    {
      "inputs": [
        {
          "internalType": "address",
          "name": "account",
          "type": "address"
        },
        {
          "internalType": "bytes32",
          "name": "neededRole",
          "type": "bytes32"
        }
      ],
      "name": "AccessControlUnauthorizedAccount",
      "type": "error"
    },
    {
      "anonymous": false,
      "inputs": [
        {
          "indexed": false,
          "internalType": "uint256",
          "name": "oldDelay",
          "type": "uint256"
        },
        {
          "indexed": false,
          "internalType": "uint256",
          "name": "newDelay",
          "type": "uint256"
        }
      ],
      "name": "DelayUpdated",
      "type": "event"
    },
    {
      "anonymous": false,
      "inputs": [
        {
          "indexed": true,
          "internalType": "bytes32",
          "name": "operationId",
          "type": "bytes32"
        },
        {
          "indexed": true,
          "internalType": "address",
          "name": "approver",
          "type": "address"
        },
        {
          "indexed": false,
          "internalType": "uint256",
          "name": "approvalCount",
          "type": "uint256"
        }
      ],
      "name": "EmergencyApproval",
      "type": "event"
    },
    {
      "anonymous": false,
      "inputs": [
        {
          "indexed": true,
          "internalType": "bytes32",
          "name": "operationId",
          "type": "bytes32"
        },
        {
          "indexed": false,
          "internalType": "address",
          "name": "executor",
          "type": "address"
        }
      ],
      "name": "EmergencyExecuted",
      "type": "event"
    },
    {
      "anonymous": false,
      "inputs": [
        {
          "indexed": true,
          "internalType": "bytes32",
          "name": "operationId",
          "type": "bytes32"
        },
        {
          "indexed": false,
          "internalType": "address",
          "name": "canceller",
          "type": "address"
        }
      ],
      "name": "OperationCancelled",
      "type": "event"
    },
    {
      "anonymous": false,
      "inputs": [
        {
          "indexed": true,
          "internalType": "bytes32",
          "name": "operationId",
          "type": "bytes32"
        },
        {
          "indexed": true,
          "internalType": "address",
          "name": "target",
          "type": "address"
        },
        {
          "indexed": false,
          "internalType": "uint256",
          "name": "value",
          "type": "uint256"
        },
        {
          "indexed": false,
          "internalType": "bytes",
          "name": "data",
          "type": "bytes"
        },
        {
          "indexed": false,
          "internalType": "address",
          "name": "executor",
          "type": "address"
        }
      ],
      "name": "OperationExecuted",
      "type": "event"
    },
    {
      "anonymous": false,
      "inputs": [
        {
          "indexed": true,
          "internalType": "bytes32",
          "name": "operationId",
          "type": "bytes32"
        },
        {
          "indexed": true,
          "internalType": "address",
          "name": "target",
          "type": "address"
        },
        {
          "indexed": false,
          "internalType": "uint256",
          "name": "value",
          "type": "uint256"
        },
        {
          "indexed": false,
          "internalType": "bytes",
          "name": "data",
          "type": "bytes"
        },
        {
          "indexed": false,
          "internalType": "bytes32",
          "name": "predecessor",
          "type": "bytes32"
        },
        {
          "indexed": false,
          "internalType": "uint256",
          "name": "delay",
          "type": "uint256"
        },
        {
          "indexed": false,
          "internalType": "uint256",
          "name": "executesAt",
          "type": "uint256"
        },
        {
          "indexed": false,
          "internalType": "enum DCBTimelock.OperationType",
          "name": "opType",
          "type": "uint8"
        },
        {
          "indexed": false,
          "internalType": "string",
          "name": "description",
          "type": "string"
        }
      ],
      "name": "OperationScheduled",
      "type": "event"
    },
    {
      "anonymous": false,
      "inputs": [
        {
          "indexed": true,
          "internalType": "bytes32",
          "name": "role",
          "type": "bytes32"
        },
        {
          "indexed": true,
          "internalType": "bytes32",
          "name": "previousAdminRole",
          "type": "bytes32"
        },
        {
          "indexed": true,
          "internalType": "bytes32",
          "name": "newAdminRole",
          "type": "bytes32"
        }
      ],
      "name": "RoleAdminChanged",
      "type": "event"
    },
    {
      "anonymous": false,
      "inputs": [
        {
          "indexed": true,
          "internalType": "bytes32",
          "name": "role",
          "type": "bytes32"
        },
        {
          "indexed": true,
          "internalType": "address",
          "name": "account",
          "type": "address"
        },
        {
          "indexed": true,
          "internalType": "address",
          "name": "sender",
          "type": "address"
        }
      ],
      "name": "RoleGranted",
      "type": "event"
    },
    {
      "anonymous": false,
      "inputs": [
        {
          "indexed": true,
          "internalType": "bytes32",
          "name": "role",
          "type": "bytes32"
        },
        {
          "indexed": true,
          "internalType": "address",
          "name": "account",
          "type": "address"
        },
        {
          "indexed": true,
          "internalType": "address",
          "name": "sender",
          "type": "address"
        }
      ],
      "name": "RoleRevoked",
      "type": "event"
    },
    {
      "inputs": [],
      "name": "CANCELLER_ROLE",
      "outputs": [
        {
          "internalType": "bytes32",
          "name": "",
          "type": "bytes32"
        }
      ],
      "stateMutability": "view",
      "type": "function"
    },
    {
      "inputs": [],
      "name": "DEFAULT_ADMIN_ROLE",
      "outputs": [
        {
          "internalType": "bytes32",
          "name": "",
          "type": "bytes32"
        }
      ],
      "stateMutability": "view",
      "type": "function"
    },
    {
      "inputs": [],
      "name": "EMERGENCY_APPROVALS_REQUIRED",
      "outputs": [
        {
          "internalType": "uint256",
          "name": "",
          "type": "uint256"
        }
      ],
      "stateMutability": "view",
      "type": "function"
    },
    {
      "inputs": [],
      "name": "EMERGENCY_DELAY",
      "outputs": [
        {
          "internalType": "uint256",
          "name": "",
          "type": "uint256"
        }
      ],
      "stateMutability": "view",
      "type": "function"
    },
    {
      "inputs": [],
      "name": "EMERGENCY_ROLE",
      "outputs": [
        {
          "internalType": "bytes32",
          "name": "",
          "type": "bytes32"
        }
      ],
      "stateMutability": "view",
      "type": "function"
    },
    {
      "inputs": [],
      "name": "EXECUTOR_ROLE",
      "outputs": [
        {
          "internalType": "bytes32",
          "name": "",
          "type": "bytes32"
        }
      ],
      "stateMutability": "view",
      "type": "function"
    },
    {
      "inputs": [],
      "name": "GRACE_PERIOD",
      "outputs": [
        {
          "internalType": "uint256",
          "name": "",
          "type": "uint256"
        }
      ],
      "stateMutability": "view",
      "type": "function"
    },
    {
      "inputs": [],
      "name": "MAX_DELAY",
      "outputs": [
        {
          "internalType": "uint256",
          "name": "",
          "type": "uint256"
        }
      ],
      "stateMutability": "view",
      "type": "function"
    },
    {
      "inputs": [],
      "name": "MIN_DELAY",
      "outputs": [
        {
          "internalType": "uint256",
          "name": "",
          "type": "uint256"
        }
      ],
      "stateMutability": "view",
      "type": "function"
    },
    {
      "inputs": [],
      "name": "PROPOSER_ROLE",
      "outputs": [
        {
          "internalType": "bytes32",
          "name": "",
          "type": "bytes32"
        }
      ],
      "stateMutability": "view",
      "type": "function"
    },
    {
      "inputs": [],
      "name": "VERSION",
      "outputs": [
        {
          "internalType": "string",
          "name": "",
          "type": "string"
        }
      ],
      "stateMutability": "view",
      "type": "function"
    },
    {
      "inputs": [
        {
          "internalType": "bytes32",
          "name": "operationId",
          "type": "bytes32"
        }
      ],
      "name": "approveEmergency",
      "outputs": [],
      "stateMutability": "nonpayable",
      "type": "function"
    },
    {
      "inputs": [
        {
          "internalType": "bytes32",
          "name": "operationId",
          "type": "bytes32"
        }
      ],
      "name": "cancel",
      "outputs": [],
      "stateMutability": "nonpayable",
      "type": "function"
    },
    {
      "inputs": [],
      "name": "delay",
      "outputs": [
        {
          "internalType": "uint256",
          "name": "",
          "type": "uint256"
        }
      ],
      "stateMutability": "view",
      "type": "function"
    },
    {
      "inputs": [
        {
          "internalType": "bytes32",
          "name": "",
          "type": "bytes32"
        }
      ],
      "name": "emergencyOperations",
      "outputs": [
        {
          "internalType": "bytes32",
          "name": "operationId",
          "type": "bytes32"
        },
        {
          "internalType": "bool",
          "name": "executed",
          "type": "bool"
        }
      ],
      "stateMutability": "view",
      "type": "function"
    },
    {
      "inputs": [
        {
          "internalType": "bytes32",
          "name": "operationId",
          "type": "bytes32"
        }
      ],
      "name": "execute",
      "outputs": [],
      "stateMutability": "payable",
      "type": "function"
    },
    {
      "inputs": [
        {
          "internalType": "bytes32",
          "name": "operationId",
          "type": "bytes32"
        }
      ],
      "name": "executeEmergency",
      "outputs": [],
      "stateMutability": "payable",
      "type": "function"
    },
    {
      "inputs": [],
      "name": "getAllOperationIds",
      "outputs": [
        {
          "internalType": "bytes32[]",
          "name": "",
          "type": "bytes32[]"
        }
      ],
      "stateMutability": "view",
      "type": "function"
    },
    {
      "inputs": [
        {
          "internalType": "bytes32",
          "name": "operationId",
          "type": "bytes32"
        }
      ],
      "name": "getEmergencyApprovals",
      "outputs": [
        {
          "internalType": "uint256",
          "name": "",
          "type": "uint256"
        }
      ],
      "stateMutability": "view",
      "type": "function"
    },
    {
      "inputs": [
        {
          "internalType": "bytes32",
          "name": "operationId",
          "type": "bytes32"
        }
      ],
      "name": "getOperationState",
      "outputs": [
        {
          "internalType": "enum DCBTimelock.OperationState",
          "name": "",
          "type": "uint8"
        }
      ],
      "stateMutability": "view",
      "type": "function"
    },
    {
      "inputs": [
        {
          "internalType": "bytes32",
          "name": "role",
          "type": "bytes32"
        }
      ],
      "name": "getRoleAdmin",
      "outputs": [
        {
          "internalType": "bytes32",
          "name": "",
          "type": "bytes32"
        }
      ],
      "stateMutability": "view",
      "type": "function"
    },
    {
      "inputs": [
        {
          "internalType": "bytes32",
          "name": "role",
          "type": "bytes32"
        },
        {
          "internalType": "address",
          "name": "account",
          "type": "address"
        }
      ],
      "name": "grantRole",
      "outputs": [],
      "stateMutability": "nonpayable",
      "type": "function"
    },
    {
      "inputs": [
        {
          "internalType": "bytes32",
          "name": "role",
          "type": "bytes32"
        },
        {
          "internalType": "address",
          "name": "account",
          "type": "address"
        }
      ],
      "name": "hasRole",
      "outputs": [
        {
          "internalType": "bool",
          "name": "",
          "type": "bool"
        }
      ],
      "stateMutability": "view",
      "type": "function"
    },
    {
      "inputs": [
        {
          "internalType": "bytes32",
          "name": "operationId",
          "type": "bytes32"
        }
      ],
      "name": "isOperationReady",
      "outputs": [
        {
          "internalType": "bool",
          "name": "",
          "type": "bool"
        }
      ],
      "stateMutability": "view",
      "type": "function"
    },
    {
      "inputs": [
        {
          "internalType": "uint256",
          "name": "",
          "type": "uint256"
        }
      ],
      "name": "operationIds",
      "outputs": [
        {
          "internalType": "bytes32",
          "name": "",
          "type": "bytes32"
        }
      ],
      "stateMutability": "view",
      "type": "function"
    },
    {
      "inputs": [
        {
          "internalType": "bytes32",
          "name": "",
          "type": "bytes32"
        }
      ],
      "name": "operations",
      "outputs": [
        {
          "internalType": "bytes32",
          "name": "operationId",
          "type": "bytes32"
        },
        {
          "internalType": "address",
          "name": "target",
          "type": "address"
        },
        {
          "internalType": "uint256",
          "name": "value",
          "type": "uint256"
        },
        {
          "internalType": "bytes",
          "name": "data",
          "type": "bytes"
        },
        {
          "internalType": "bytes32",
          "name": "predecessor",
          "type": "bytes32"
        },
        {
          "internalType": "bytes32",
          "name": "salt",
          "type": "bytes32"
        },
        {
          "internalType": "uint256",
          "name": "delay",
          "type": "uint256"
        },
        {
          "internalType": "uint256",
          "name": "scheduledAt",
          "type": "uint256"
        },
        {
          "internalType": "uint256",
          "name": "executesAt",
          "type": "uint256"
        },
        {
          "internalType": "uint256",
          "name": "expiresAt",
          "type": "uint256"
        },
        {
          "internalType": "enum DCBTimelock.OperationType",
          "name": "opType",
          "type": "uint8"
        },
        {
          "internalType": "enum DCBTimelock.OperationState",
          "name": "state",
          "type": "uint8"
        },
        {
          "internalType": "address",
          "name": "proposer",
          "type": "address"
        },
        {
          "internalType": "string",
          "name": "description",
          "type": "string"
        }
      ],
      "stateMutability": "view",
      "type": "function"
    },
    {
      "inputs": [
        {
          "internalType": "bytes32",
          "name": "role",
          "type": "bytes32"
        },
        {
          "internalType": "address",
          "name": "callerConfirmation",
          "type": "address"
        }
      ],
      "name": "renounceRole",
      "outputs": [],
      "stateMutability": "nonpayable",
      "type": "function"
    },
    {
      "inputs": [
        {
          "internalType": "bytes32",
          "name": "role",
          "type": "bytes32"
        },
        {
          "internalType": "address",
          "name": "account",
          "type": "address"
        }
      ],
      "name": "revokeRole",
      "outputs": [],
      "stateMutability": "nonpayable",
      "type": "function"
    },
    {
      "inputs": [
        {
          "internalType": "address",
          "name": "target",
          "type": "address"
        },
        {
          "internalType": "uint256",
          "name": "value",
          "type": "uint256"
        },
        {
          "internalType": "bytes",
          "name": "data",
          "type": "bytes"
        },
        {
          "internalType": "bytes32",
          "name": "predecessor",
          "type": "bytes32"
        },
        {
          "internalType": "bytes32",
          "name": "salt",
          "type": "bytes32"
        },
        {
          "internalType": "string",
          "name": "description",
          "type": "string"
        }
      ],
      "name": "schedule",
      "outputs": [
        {
          "internalType": "bytes32",
          "name": "operationId",
          "type": "bytes32"
        }
      ],
      "stateMutability": "nonpayable",
      "type": "function"
    },
    {
      "inputs": [
        {
          "internalType": "address",
          "name": "target",
          "type": "address"
        },
        {
          "internalType": "uint256",
          "name": "value",
          "type": "uint256"
        },
        {
          "internalType": "bytes",
          "name": "data",
          "type": "bytes"
        },
        {
          "internalType": "bytes32",
          "name": "predecessor",
          "type": "bytes32"
        },
        {
          "internalType": "bytes32",
          "name": "salt",
          "type": "bytes32"
        },
        {
          "internalType": "string",
          "name": "description",
          "type": "string"
        }
      ],
      "name": "scheduleCritical",
      "outputs": [
        {
          "internalType": "bytes32",
          "name": "operationId",
          "type": "bytes32"
        }
      ],
      "stateMutability": "nonpayable",
      "type": "function"
    },
    {
      "inputs": [
        {
          "internalType": "address",
          "name": "target",
          "type": "address"
        },
        {
          "internalType": "uint256",
          "name": "value",
          "type": "uint256"
        },
        {
          "internalType": "bytes",
          "name": "data",
          "type": "bytes"
        },
        {
          "internalType": "string",
          "name": "description",
          "type": "string"
        }
      ],
      "name": "scheduleEmergency",
      "outputs": [
        {
          "internalType": "bytes32",
          "name": "operationId",
          "type": "bytes32"
        }
      ],
      "stateMutability": "nonpayable",
      "type": "function"
    },
    {
      "inputs": [
        {
          "internalType": "bytes4",
          "name": "interfaceId",
          "type": "bytes4"
        }
      ],
      "name": "supportsInterface",
      "outputs": [
        {
          "internalType": "bool",
          "name": "",
          "type": "bool"
        }
      ],
      "stateMutability": "view",
      "type": "function"
    },
    {
      "inputs": [],
      "name": "totalOperations",
      "outputs": [
        {
          "internalType": "uint256",
          "name": "",
          "type": "uint256"
        }
      ],
      "stateMutability": "view",
      "type": "function"
    },
    {
      "inputs": [
        {
          "internalType": "uint256",
          "name": "newDelay",
          "type": "uint256"
        }
      ],
      "name": "updateDelay",
      "outputs": [],
      "stateMutability": "nonpayable",
      "type": "function"
    },
    {
      "stateMutability": "payable",
      "type": "receive"
    }
  ],
  "bytecode": "0x608060405234620001da5762002d87803803806200001d81620001df565b928339810190608081830312620001da5762000039816200021b565b602082015190926001600160401b0391828111620001da57816200005f91850162000230565b916040840151908111620001da576060916200007d91850162000230565b9201516001600160a01b039380851615620001a557620151808210158062000197575b15620001625780620000b6620000e192620002f3565b50620000c28162000373565b50620000ce8162000415565b50620000da81620004b2565b506200054f565b5060005b82518110156200011a57806200010d8662000105620001149487620002c8565b511662000373565b50620002a2565b620000e5565b84828560005b81518110156200014e57806200010d8562000140620001489486620002c8565b511662000415565b62000120565b8260015560405161277a9081620005ed8239f35b60405162461bcd60e51b815260206004820152600d60248201526c496e76616c69642064656c617960981b6044820152606490fd5b5062278d00821115620000a0565b60405162461bcd60e51b815260206004820152600d60248201526c24b73b30b634b21030b236b4b760991b6044820152606490fd5b600080fd5b6040519190601f01601f191682016001600160401b038111838210176200020557604052565b634e487b7160e01b600052604160045260246000fd5b51906001600160a01b0382168203620001da57565b81601f82011215620001da578051916001600160401b03831162000205578260051b602092838062000264818501620001df565b809781520192820101928311620001da578301905b82821062000288575050505090565b83809162000296846200021b565b81520191019062000279565b6000198114620002b25760010190565b634e487b7160e01b600052601160045260246000fd5b8051821015620002dd5760209160051b010190565b634e487b7160e01b600052603260045260246000fd5b6001600160a01b031660008181527fad3228b676f7d3cd4284a5443f17f1962b36e491b30a40b2405849e597ba5fb5602052604081205490919060ff166200036f57818052816020526040822081835260205260408220600160ff19825416179055339160008051602062002d678339815191528180a4600190565b5090565b6001600160a01b031660008181527f3412d5605ac6cd444957cedb533e5dacad6378b4bc819ebe3652188a665066d560205260408120549091907fb09aa5aeb3702cfd50b6b62bc4532604938f21248a27a1d5ca736082b6819cc19060ff166200041057808352826020526040832082845260205260408320600160ff1982541617905560008051602062002d67833981519152339380a4600190565b505090565b6001600160a01b031660008181527fdae2aa361dfd1ca020a396615627d436107c35eff9fe7738a3512819782d706960205260408120549091907fd8aa0f3194971a2a116679f7c2090f6939c8d4e01a2a8d7e41d55e5351469e639060ff166200041057808352826020526040832082845260205260408320600160ff1982541617905560008051602062002d67833981519152339380a4600190565b6001600160a01b031660008181527fc3ad33e20b0c56a223ad5104fff154aa010f8715b9c981fd38fdc60a4d1a52fb60205260408120549091907ffd643c72710c63c0180259aba6b2d05451e3591a24e58b62239378085726f7839060ff166200041057808352826020526040832082845260205260408320600160ff1982541617905560008051602062002d67833981519152339380a4600190565b6001600160a01b031660008181527f3c1b1854ab1360abbb06c8d4c6b2672d4b8cedc5eff522ab19e51d5cb8fdbd4660205260408120549091907fbf233dd2aafeb4d50879c4aa5c81e96d92f6e6945c906a58f9f2d1c1631b4b269060ff166200041057808352826020526040832082845260205260408320600160ff1982541617905560008051602062002d67833981519152339380a460019056fe608080604052600436101561001d575b50361561001b57600080fd5b005b60003560e01c90816301ffc9a714611e815750806307bd026514611e4657806313bc9f2014611dd45780631c0740ab14611ca257806320df435914611c67578063248a9ca314611c3857806327708e9f146117e65780632f2ff15d146117a757806336568abe146117605780634125ff9014611742578063599a39f81461168c578063639b5a521461165257806364d62353146115715780636a42b8f814611553578063782b966d146113df5780637958004c146113b25780637faef3281461136157806382944e2d146113445780638f61f4f5146113095780638fb167ce146112ed57806391d14854146112a05780639dd3f11e14610c955780639f81aed714610c77578063a217fddf14610c5b578063b081868114610c2c578063b08e51c014610bf1578063b6c297b3146106ff578063c1a287e2146106e1578063c4d252f5146105e4578063c74f349b146104b9578063d547741f1461047a578063e751f27114610235578063ed232029146102175763ffa1ad74146101a0573861000f565b346102125760003660031901126102125760405160408101908082106001600160401b038311176101fc576101f89160405260058152640312e302e360dc1b60208201526040519182916020835260208301906120c9565b0390f35b634e487b7160e01b600052604160045260246000fd5b600080fd5b34610212576000366003190112610212576020600554604051908152f35b602080600319360112610212576004357fd8aa0f3194971a2a116679f7c2090f6939c8d4e01a2a8d7e41d55e5351469e638060005260008352604060002033600052835260ff604060002054161561045c575080600052600282526040600020916102a56007840154151561246d565b600a83019081549060ff8260081c1660068110156103e85760016102c991146124af565b6008850154421061042c57600985015442116103fe57600485015480610378575b50506103009061ff0019161790557fcc7d5e4692c2cf05794741ddedbdaa9b8da81f268e01dd2e9c9d18b66913eb1e600183019260018060a01b03808554169461035d600080600286019860038a54970196604051908161034b818b6124eb565b03925af161035761256d565b9061259d565b54169354906103736040519283923391846125cd565b0390a3005b6000526002815260ff600a6040600020015460081c1660068110156103e8576003036103a457806102ea565b6064906040519062461bcd60e51b82526004820152601860248201527f5072656465636573736f72206e6f7420657865637574656400000000000000006044820152fd5b634e487b7160e01b600052602160045260246000fd5b6064906040519062461bcd60e51b825260048201526007602482015266115e1c1a5c995960ca1b6044820152fd5b6064906040519062461bcd60e51b8252600482015260096024820152684e6f7420726561647960b81b6044820152fd5b6044906040519063e2517d3f60e01b82523360048301526024820152fd5b346102125760403660031901126102125761001b600435610499611ed4565b908060005260006020526104b46001604060002001546121dc565b612280565b346102125760203660031901126102125760043560005260026020526040600020805490600b60018060a01b036001830154166002830154906040519161050e836105078160038901611ff6565b03846120a8565b600485015492600586015460068701549061057560078901549360088a01549560098b015497610554600a8d01549c61054d604051809e819301611ff6565b038c6120a8565b6040519c8d5260208d015260408c01526101c08060608d01528b01906120c9565b9560808a015260a089015260c088015260e087015261010086015261012085015260ff83169160038310156103e85784936101f8936101408601526105c4610160860160ff8360081c16611f81565b60101c6001600160a01b03166101808501528382036101a08501526120c9565b346102125760208060031936011261021257600435907ffd643c72710c63c0180259aba6b2d05451e3591a24e58b62239378085726f7838060005260008252604060002033600052825260ff604060002054161561045c57508160005260028152600a604060002061065b6007820154151561246d565b01805460ff8160081c1660068110156103e8576001036106ac5761ff0019166104001790556040513381527f55e0dd61c29aac6fc36807628300ad3e3ec68655ae76ae4002f7fb101496fa9f9190a2005b60405162461bcd60e51b815260048101849052600d60248201526c10d85b9b9bdd0818d85b98d95b609a1b6044820152606490fd5b3461021257600036600319011261021257602060405162093a808152f35b346102125761070d36611f17565b9391969590949261071c612180565b600154966001600160a01b03811615610bbb5760405160208101906001600160601b03198360601b1682528460348201528587605483013761077e60b4828d8982019088605483015260748201524260948201520360948101845201826120a8565b5190209788600052600260205261079d600760406000200154156122f5565b6107a78142612334565b9062093a8082018211610ba5576040519a6107c18c61208c565b8a8c526001600160a01b03841660208d015260408c018690526107e536888a612341565b60608d01528460808d015260a08c01528060c08c01524260e08c0152816101008c015262093a8082016101208c015260006101408c015260016101608c0152336101808c015261083636898b612341565b6101a08c015289600052600260205260406000209a80518c5560018c0160018060a01b036020830151166001600160601b0360a01b825416179055604081015160028d015560608101518051906001600160401b0382116101fc578d82916108ae836108a56003850154611fbc565b6003850161238f565b602091601f8411600114610b335750600092610b28575b50508160011b916000199060031b1c19161760038d01555b608081015160048d015560a081015160058d015560c081015160068d015560e081015160078d015561010081015160088d015561012081015160098d0155600a8c019061014081015160038110156103e85760ff801984541691161782556101608101519160068310156103e8576109586101a093826123d6565b610180820151815462010000600160b01b03191660109190911b62010000600160b01b0316179055015180519b9097906001600160401b038d116101fc578c8c996109b560209f6109ac600b860154611fbc565b600b860161238f565b8e90601f8311600114610a795792600b83610a33946000805160206127258339815191529e9f999794610a639c9b9997600092610a6e575b50508160011b916000199060031b1c1916179101555b610a0c8c6123f5565b610a1760055461243d565b600555604051998a998a528f60e0908b015260e08a019161244c565b604088019590955260608701526080860152600060a086015284830360c08601526001600160a01b03169761244c565b0390a3604051908152f35b0151905038806109ed565b9b96959493929190600b83016000528f6000209c60005b601f1984168110610af457506001836000805160206127258339815191529e9f610a339694600b94610a639e9d9c9b9a9997601f19811610610adb575b505050811b01910155610a03565b015160001960f88460031b161c19169055388080610acd565b929496989a9c5090929496989a9c6020600181928685015181550194019201908f9c9a98969492919d9b999795939d610a90565b015190508e806108c5565b6003919450016000526020600020906000935b601f1984168510610b8a576001945083601f19811610610b71575b505050811b0160038d01556108dd565b015160001960f88460031b161c191690558e8080610b61565b81810151835560209485019460019093019290910190610b46565b634e487b7160e01b600052601160045260246000fd5b60405162461bcd60e51b815260206004820152600e60248201526d125b9d985b1a59081d185c99d95d60921b6044820152606490fd5b346102125760003660031901126102125760206040517ffd643c72710c63c0180259aba6b2d05451e3591a24e58b62239378085726f7838152f35b346102125760203660031901126102125760043560005260046020526020600160406000200154604051908152f35b3461021257600036600319011261021257602060405160008152f35b34610212576000366003190112610212576020604051620151808152f35b34610212576080366003190112610212576004356001600160a01b0381168103610212576044356001600160401b03811161021257610cd8903690600401611eea565b6064929192356001600160401b03811161021257610cfa903690600401611eea565b939091610d05612124565b60405160208101906001600160601b03198660601b168252602435603482015282846054830137610d5b607d8285810142605482015268454d455247454e435960b81b607482015203605d8101845201826120a8565b51902093846000526002602052610d7a600760406000200154156122f5565b611c2042014211610ba557620956a04201611c20420111610ba557604051610da18161208c565b8581526001600160a01b03821660208201526024356040820152610dc6368486612341565b606082015260006080820152600060a0820152611c2060c08201524260e0820152611c204201610100820152620956a042016101208201526002610140820152600161016082015233610180820152610e20368887612341565b6101a0820152856000526002602052604060002090805182556001820160018060a01b036020830151166001600160601b0360a01b8254161790556040810151600283015560608101518051906001600160401b0382116101fc578190610e9782610e8e6003880154611fbc565b6003880161238f565b602090601f831160011461122e57600092611223575b50508160011b916000199060031b1c19161760038301555b6080810151600483015560a0810151600583015560c0810151600683015560e0810151600783015561010081015160088301556101208101516009830155600a82019061014081015160038110156103e85760ff801984541691161782556101608101519160068310156103e857610f406101a093826123d6565b610180820151815462010000600160b01b03191660109190911b62010000600160b01b031617905501518051906001600160401b0382116101fc57610f8c826109ac600b860154611fbc565b602090601f83116001146111b357600b9291600091836111a8575b50508160011b916000199060031b1c1916179101555b604051958660208101106001600160401b036020890111176101fc5760208701604052600087526040518060608101106001600160401b036060830111176101fc576060810160405286815260208101978852600060408201528660005260046020526040600020978151895551978851986001600160401b038a116101fc57600160401b8a116101fc5760209060018301548b6001850155808c10611188575b500198600182016000526020600020996000905b82821061116b575060208a8a816000805160206127258339815191528c8c6111338d8d8d604060028f01910151151560ff801983541691161790558660005260048a526110c63360016040600020016125fb565b6110cf876123f5565b6110da60055461243d565b6005556110fb604051958695602435875260e08d88015260e087019161244c565b60006040860152611c206060860181905242016080860152600260a086015284810360c08601526001600160a01b039092169761244c565b0390a360405160018152817f31a04ed6c86e97a395c99877d8bc102799449d570d5500758d42fd372b6ab114843393a3604051908152f35b80516001600160a01b03168c830155600190910190602001611072565b6111a290600185016000528c846000209182019101612378565b8b61105e565b015190508a80610fa7565b90600b840160005260206000209160005b601f198516811061120b5750918391600193600b95601f198116106111f2575b505050811b01910155610fbd565b015160001960f88460031b161c191690558a80806111e4565b919260206001819286850151815501940192016111c4565b015190508a80610ead565b9250600385016000526020600020906000935b601f1984168510611285576001945083601f1981161061126c575b505050811b016003830155610ec5565b015160001960f88460031b161c191690558a808061125c565b81810151835560209485019460019093019290910190611241565b34610212576040366003190112610212576112b9611ed4565b600435600052600060205260406000209060018060a01b0316600052602052602060ff604060002054166040519015158152f35b3461021257600036600319011261021257602060405160038152f35b346102125760003660031901126102125760206040517fb09aa5aeb3702cfd50b6b62bc4532604938f21248a27a1d5ca736082b6819cc18152f35b34610212576000366003190112610212576020604051611c208152f35b34610212576020366003190112610212576004356003548110156102125760209060036000527fc2575a0e9e593c00f959f8c92f12db2869c3395a3b0502d05e2516446f71f85b0154604051908152f35b346102125760203660031901126102125760206113d06004356126b1565b6113dd6040518092611f81565bf35b6020366003190112610212576004356113f6612124565b8060005260046020526040600020906002602052604060002091600a830190815460ff81169060038210156103e857611433600260ff9314612636565b60081c1660068110156103e857600161144c91146124af565b60028101906003600183549261146560ff851615612672565b0154106115175760019060ff191617905561030061ff00198254161790557fcc7d5e4692c2cf05794741ddedbdaa9b8da81f268e01dd2e9c9d18b66913eb1e600183019260018060a01b0380855416946114d6600080600286019860038a54970196604051908161034b818b6124eb565b847f514e5c7bbd92dfb0d23ae7cd919aeb22e65c339f5cee1b89b35cc9c7b5218ec26020604051338152a254169354906103736040519283923391846125cd565b60405162461bcd60e51b81526020600482015260146024820152734e6f7420656e6f75676820617070726f76616c7360601b6044820152606490fd5b34610212576000366003190112610212576020600154604051908152f35b346102125760203660031901126102125760043530330361161957620151808110158061160c575b156115d75760407fa580b4a9812995ffed1b336481c3f3bfeb3414df9f587a9d73856bab25aa4eee91600154908060015582519182526020820152a1005b60405162461bcd60e51b815260206004820152600d60248201526c496e76616c69642064656c617960981b6044820152606490fd5b5062278d00811115611599565b60405162461bcd60e51b8152602060048201526011602482015270135d5cdd081899481cd95b198b58d85b1b607a1b6044820152606490fd5b3461021257602036600319011261021257600435600052600460205260408060002060ff6002825492015416825191825215156020820152f35b3461021257600036600319011261021257604051806003548083526020809301809160036000527fc2575a0e9e593c00f959f8c92f12db2869c3395a3b0502d05e2516446f71f85b9060005b8682821061172e5786866116ee828803836120a8565b604051928392818401908285525180915260408401929160005b82811061171757505050500390f35b835185528695509381019392810192600101611708565b8354855290930192600192830192016116d8565b3461021257600036600319011261021257602060405162278d008152f35b3461021257604036600319011261021257611779611ed4565b336001600160a01b038216036117955761001b90600435612280565b60405163334bd91960e11b8152600490fd5b346102125760403660031901126102125761001b6004356117c6611ed4565b908060005260006020526117e16001604060002001546121dc565b612202565b34610212576117f436611f17565b93919695909492611803612180565b60015496878060011b0460021488151715610ba5576001600160a01b03811615610bbb5760405160208101906001600160601b03198360601b1682528460348201528587605483013761187660b4828d8982019088605483015260748201524260948201520360948101845201826120a8565b51902097886000526002602052611895600760406000200154156122f5565b6118a28160011b42612334565b9062093a8082018211610ba5576040519a6118bc8c61208c565b8a8c526001600160a01b03841660208d015260408c018690526118e036888a612341565b60608d01528460808d015260a08c01528060011b60c08c01524260e08c0152816101008c015262093a8082016101208c015260016101408c015260016101608c0152336101808c015261193436898b612341565b6101a08c015289600052600260205260406000209a80518c5560018c0160018060a01b036020830151166001600160601b0360a01b825416179055604081015160028d015560608101518051906001600160401b0382116101fc578d82916119a3836108a56003850154611fbc565b602091601f8411600114611bc65750600092611bbb575b50508160011b916000199060031b1c19161760038d01555b608081015160048d015560a081015160058d015560c081015160068d015560e081015160078d015561010081015160088d015561012081015160098d0155600a8c019061014081015160038110156103e85760ff801984541691161782556101608101519160068310156103e857611a4d6101a093826123d6565b610180820151815462010000600160b01b03191660109190911b62010000600160b01b0316179055015180519b9097906001600160401b038d116101fc578c8c99611aa160209f6109ac600b860154611fbc565b8e90601f8311600114611b265792600b83611af6946000805160206127258339815191529e9f999794610a639c9b9997600092610a6e5750508160011b916000199060031b1c191617910155610a0c8c6123f5565b94604088015260011b60608701526080860152600160a086015284830360c086015260018060a01b03169761244c565b9b96959493929190600b83016000528f6000209c60005b601f1984168110611b8757506001836000805160206127258339815191529e9f611af69694600b94610a639e9d9c9b9a9997601f19811610610adb57505050811b01910155610a03565b929496989a9c5090929496989a9c6020600181928685015181550194019201908f9c9a98969492919d9b999795939d611b3d565b015190508e806119ba565b6003919450016000526020600020906000935b601f1984168510611c1d576001945083601f19811610611c04575b505050811b0160038d01556119d2565b015160001960f88460031b161c191690558e8080611bf4565b81810151835560209485019460019093019290910190611bd9565b346102125760203660031901126102125760043560005260006020526020600160406000200154604051908152f35b346102125760003660031901126102125760206040517fbf233dd2aafeb4d50879c4aa5c81e96d92f6e6945c906a58f9f2d1c1631b4b268152f35b34610212576020806003193601126102125760043590611cc0612124565b816000526004815260406000209160028252600a6040600020015460ff8116600391828210156103e857611cf8600260ff9314612636565b60081c1660068110156103e8576001611d1191146124af565b611d2260ff60028601541615612672565b600160009401908154945b858110611d6f5750507f31a04ed6c86e97a395c99877d8bc102799449d570d5500758d42fd372b6ab11490611d6233826125fb565b54926040519384523393a3005b611d798184611f8e565b905490831b1c6001600160a01b03163314611d9c57611d979061243d565b611d2d565b60405162461bcd60e51b815260048101869052601060248201526f105b1c9958591e48185c1c1c9bdd995960821b6044820152606490fd5b34610212576020366003190112610212576004356000526002602052604060002060ff600a82015460081c169060068210156103e8576001602092149081611e37575b81611e28575b506040519015158152f35b60099150015442111582611e1d565b60088101544210159150611e17565b346102125760003660031901126102125760206040517fd8aa0f3194971a2a116679f7c2090f6939c8d4e01a2a8d7e41d55e5351469e638152f35b34610212576020366003190112610212576004359063ffffffff60e01b821680920361021257602091637965db0b60e01b8114908115611ec3575b5015158152f35b6301ffc9a760e01b14905083611ebc565b602435906001600160a01b038216820361021257565b9181601f84011215610212578235916001600160401b038311610212576020838186019501011161021257565b9060c0600319830112610212576004356001600160a01b03811681036102125791602435916001600160401b036044358181116102125783611f5b91600401611eea565b93909392606435926084359260a43591821161021257611f7d91600401611eea565b9091565b9060068210156103e85752565b8054821015611fa65760005260206000200190600090565b634e487b7160e01b600052603260045260246000fd5b90600182811c92168015611fec575b6020831014611fd657565b634e487b7160e01b600052602260045260246000fd5b91607f1691611fcb565b906000929180549161200783611fbc565b9182825260019384811690816000146120695750600114612029575b50505050565b90919394506000526020928360002092846000945b838610612055575050505001019038808080612023565b80548587018301529401938590820161203e565b9294505050602093945060ff191683830152151560051b01019038808080612023565b6101c081019081106001600160401b038211176101fc57604052565b90601f801991011681019081106001600160401b038211176101fc57604052565b919082519283825260005b8481106120f5575050826000602080949584010152601f8019910116010190565b6020818301810151848301820152016120d4565b6001600160401b0381116101fc57601f01601f191660200190565b3360009081527f3c1b1854ab1360abbb06c8d4c6b2672d4b8cedc5eff522ab19e51d5cb8fdbd4660205260409020547fbf233dd2aafeb4d50879c4aa5c81e96d92f6e6945c906a58f9f2d1c1631b4b269060ff161561045c5750565b3360009081527f3412d5605ac6cd444957cedb533e5dacad6378b4bc819ebe3652188a665066d560205260409020547fb09aa5aeb3702cfd50b6b62bc4532604938f21248a27a1d5ca736082b6819cc19060ff161561045c5750565b80600052600060205260406000203360005260205260ff604060002054161561045c5750565b9060009180835282602052604083209160018060a01b03169182845260205260ff6040842054161560001461227b57808352826020526040832082845260205260408320600160ff198254161790557f2f8788117e7eff1d82e926ec794901d17c78024a50270940304540a733656f0d339380a4600190565b505090565b9060009180835282602052604083209160018060a01b03169182845260205260ff60408420541660001461227b5780835282602052604083208284526020526040832060ff1981541690557ff6391f5c32d9c69d2a47ea670b442974b53935d1edc7fd64eb21e047a839171b339380a4600190565b156122fc57565b60405162461bcd60e51b815260206004820152601060248201526f4f7065726174696f6e2065786973747360801b6044820152606490fd5b91908201809211610ba557565b92919261234d82612109565b9161235b60405193846120a8565b829481845281830111610212578281602093846000960137010152565b818110612383575050565b60008155600101612378565b9190601f811161239e57505050565b6123ca926000526020600020906020601f840160051c830193106123cc575b601f0160051c0190612378565b565b90915081906123bd565b9060068110156103e85761ff0082549160081b169061ff001916179055565b600354600160401b8110156101fc576001810180600355811015611fa65760036000527fc2575a0e9e593c00f959f8c92f12db2869c3395a3b0502d05e2516446f71f85b0155565b6000198114610ba55760010190565b908060209392818452848401376000828201840152601f01601f1916010190565b1561247457565b60405162461bcd60e51b815260206004820152601360248201527213dc195c985d1a5bdb881b9bdd08199bdd5b99606a1b6044820152606490fd5b156124b657565b60405162461bcd60e51b815260206004820152600d60248201526c496e76616c696420737461746560981b6044820152606490fd5b6000929181546124fa81611fbc565b9260019180831690811561255257506001146125165750505050565b90919293945060005260209081600020906000915b8583106125415750505050019038808080612023565b80548584015291830191810161252b565b60ff1916845250505081151590910201915038808080612023565b3d15612598573d9061257e82612109565b9161258c60405193846120a8565b82523d6000602084013e565b606090565b156125a55750565b60405162461bcd60e51b8152602060048201529081906125c99060248301906120c9565b0390fd5b916125eb906040929594958452606060208501526060840190611ff6565b6001600160a01b03909416910152565b8054600160401b8110156101fc5761261891600182018155611f8e565b819291549060031b9160018060a01b03809116831b921b1916179055565b1561263d57565b60405162461bcd60e51b815260206004820152600d60248201526c4e6f7420656d657267656e637960981b6044820152606490fd5b1561267957565b60405162461bcd60e51b815260206004820152601060248201526f105b1c9958591e48195e1958dd5d195960821b6044820152606490fd5b6000526002602052604060002060078101541561271e5760ff600a82015460081c1660068110156103e8576004811461271757600314612711576009810154421161270b576008015442101561270657600190565b600290565b50600590565b50600390565b5050600490565b5060009056feccc8eb14a3690402b61f2f1b7851f99d4f3ef5b6dbd57d7469edb5628a8b8497a2646970667358221220ae34be9812f016d7239be32e423198089fe15c75ac1ddebae0fb14439e19266f64736f6c634300081400332f8788117e7eff1d82e926ec794901d17c78024a50270940304540a733656f0d",
  "linkReferences": {},
  "deployedLinkReferences": {},
  "immutableReferences": {},
  "inputSourceName": "project/contracts/DCBTreasury/v3/security/DCBTimelock.sol",
  "buildInfoId": "solc-0_8_20-a1c61539025f0654ad3a75bdb2b55239eb68e7f3"
}