{"project/contracts/FlashLoanArbitrage.sol":{"FlashLoanArbitrage":{"abi":[{"inputs":[{"internalType":"address","name":"_poolAddressesProvider","type":"address"},{"internalType":"address","name":"_uniswapV3Router","type":"address"},{"internalType":"address","name":"_sushiRouter","type":"address"},{"internalType":"address","name":"_weth","type":"address"},{"internalType":"address","name":"_usdc","type":"address"}],"stateMutability":"nonpayable","type":"constructor"},{"anonymous":false,"inputs":[{"indexed":false,"internalType":"string","name":"strategy","type":"string"},{"indexed":false,"internalType":"uint256","name":"amountIn","type":"uint256"},{"indexed":false,"internalType":"uint256","name":"amountOut","type":"uint256"},{"indexed":false,"internalType":"uint256","name":"profit","type":"uint256"}],"name":"ArbitrageExecuted","type":"event"},{"anonymous":false,"inputs":[{"indexed":false,"internalType":"string","name":"param","type":"string"},{"indexed":false,"internalType":"uint256","name":"value","type":"uint256"}],"name":"ConfigUpdated","type":"event"},{"anonymous":false,"inputs":[{"indexed":true,"internalType":"address","name":"asset","type":"address"},{"indexed":false,"internalType":"uint256","name":"amount","type":"uint256"},{"indexed":false,"internalType":"uint256","name":"premium","type":"uint256"},{"indexed":false,"internalType":"uint256","name":"profit","type":"uint256"}],"name":"FlashLoanExecuted","type":"event"},{"anonymous":false,"inputs":[{"indexed":true,"internalType":"address","name":"to","type":"address"},{"indexed":false,"internalType":"uint256","name":"amount","type":"uint256"}],"name":"ProfitWithdrawn","type":"event"},{"inputs":[],"name":"AAVE_POOL","outputs":[{"internalType":"address","name":"","type":"address"}],"stateMutability":"view","type":"function"},{"inputs":[],"name":"DAI","outputs":[{"internalType":"address","name":"","type":"address"}],"stateMutability":"view","type":"function"},{"inputs":[],"name":"POOL_ADDRESSES_PROVIDER","outputs":[{"internalType":"address","name":"","type":"address"}],"stateMutability":"view","type":"function"},{"inputs":[],"name":"USDC","outputs":[{"internalType":"address","name":"","type":"address"}],"stateMutability":"view","type":"function"},{"inputs":[],"name":"USDT","outputs":[{"internalType":"address","name":"","type":"address"}],"stateMutability":"view","type":"function"},{"inputs":[],"name":"WETH","outputs":[{"internalType":"address","name":"","type":"address"}],"stateMutability":"view","type":"function"},{"inputs":[{"internalType":"address","name":"asset","type":"address"},{"internalType":"uint256","name":"amount","type":"uint256"},{"internalType":"uint8","name":"strategy","type":"uint8"},{"internalType":"bytes","name":"strategyParams","type":"bytes"}],"name":"executeDirectArbitrage","outputs":[{"internalType":"uint256","name":"profit","type":"uint256"}],"stateMutability":"nonpayable","type":"function"},{"inputs":[{"internalType":"address","name":"asset","type":"address"},{"internalType":"uint256","name":"amount","type":"uint256"},{"internalType":"bytes","name":"params","type":"bytes"}],"name":"executeFlashLoan","outputs":[],"stateMutability":"nonpayable","type":"function"},{"inputs":[{"internalType":"address","name":"asset","type":"address"},{"internalType":"uint256","name":"amount","type":"uint256"},{"internalType":"uint256","name":"premium","type":"uint256"},{"internalType":"address","name":"initiator","type":"address"},{"internalType":"bytes","name":"params","type":"bytes"}],"name":"executeOperation","outputs":[{"internalType":"bool","name":"","type":"bool"}],"stateMutability":"nonpayable","type":"function"},{"inputs":[],"name":"getConfig","outputs":[{"internalType":"uint256","name":"_minProfitBps","type":"uint256"},{"internalType":"uint256","name":"_maxSlippageBps","type":"uint256"},{"internalType":"bool","name":"_paused","type":"bool"}],"stateMutability":"view","type":"function"},{"inputs":[],"name":"getStats","outputs":[{"internalType":"uint256","name":"_totalFlashLoans","type":"uint256"},{"internalType":"uint256","name":"_totalProfitWei","type":"uint256"},{"internalType":"uint256","name":"_successfulArbitrages","type":"uint256"}],"stateMutability":"view","type":"function"},{"inputs":[],"name":"maxSlippageBps","outputs":[{"internalType":"uint256","name":"","type":"uint256"}],"stateMutability":"view","type":"function"},{"inputs":[],"name":"minProfitBps","outputs":[{"internalType":"uint256","name":"","type":"uint256"}],"stateMutability":"view","type":"function"},{"inputs":[],"name":"owner","outputs":[{"internalType":"address","name":"","type":"address"}],"stateMutability":"view","type":"function"},{"inputs":[],"name":"paused","outputs":[{"internalType":"bool","name":"","type":"bool"}],"stateMutability":"view","type":"function"},{"inputs":[{"internalType":"uint256","name":"_maxSlippageBps","type":"uint256"}],"name":"setMaxSlippageBps","outputs":[],"stateMutability":"nonpayable","type":"function"},{"inputs":[{"internalType":"uint256","name":"_minProfitBps","type":"uint256"}],"name":"setMinProfitBps","outputs":[],"stateMutability":"nonpayable","type":"function"},{"inputs":[{"internalType":"bool","name":"_paused","type":"bool"}],"name":"setPaused","outputs":[],"stateMutability":"nonpayable","type":"function"},{"inputs":[{"internalType":"address","name":"_uniRouter","type":"address"},{"internalType":"address","name":"_sushiRouter","type":"address"}],"name":"setRouters","outputs":[],"stateMutability":"nonpayable","type":"function"},{"inputs":[{"internalType":"address","name":"_weth","type":"address"},{"internalType":"address","name":"_usdc","type":"address"},{"internalType":"address","name":"_usdt","type":"address"},{"internalType":"address","name":"_dai","type":"address"}],"name":"setTokens","outputs":[],"stateMutability":"nonpayable","type":"function"},{"inputs":[],"name":"successfulArbitrages","outputs":[{"internalType":"uint256","name":"","type":"uint256"}],"stateMutability":"view","type":"function"},{"inputs":[],"name":"sushiRouter","outputs":[{"internalType":"address","name":"","type":"address"}],"stateMutability":"view","type":"function"},{"inputs":[],"name":"totalFlashLoans","outputs":[{"internalType":"uint256","name":"","type":"uint256"}],"stateMutability":"view","type":"function"},{"inputs":[],"name":"totalProfitWei","outputs":[{"internalType":"uint256","name":"","type":"uint256"}],"stateMutability":"view","type":"function"},{"inputs":[{"internalType":"address","name":"newOwner","type":"address"}],"name":"transferOwnership","outputs":[],"stateMutability":"nonpayable","type":"function"},{"inputs":[],"name":"uniswapV3Router","outputs":[{"internalType":"address","name":"","type":"address"}],"stateMutability":"view","type":"function"},{"inputs":[],"name":"withdrawETH","outputs":[],"stateMutability":"nonpayable","type":"function"},{"inputs":[{"internalType":"address","name":"token","type":"address"}],"name":"withdrawProfit","outputs":[],"stateMutability":"nonpayable","type":"function"},{"stateMutability":"payable","type":"receive"}],"evm":{"bytecode":{"linkReferences":{},"object":"60c08060405234620001965760a0816200254180380380916200002382856200019a565b83398101031262000196576200003981620001d2565b906200004860208201620001d2565b916200005760408301620001d2565b916200007460806200006c60608401620001d2565b9201620001d2565b90600a80556064600b5560ff19600c5416600c5560018060a01b0319935f9533868854161787558460805260405163026b1d5f60e01b815260208160048160018060a01b03809a165afa9081156200018b57888798999796979262000136575b5050849291839160a052168760015416176001551685600254161760025516836003541617600355169060045416176004556040516123599081620001e88239608051816109db015260a05181818161027601528181610cde015261111c0152f35b915091929394506020823d821162000182575b8162000158602093836200019a565b810103126200017f5750918580949392620001748294620001d2565b9181939450620000d4565b80fd5b3d915062000149565b6040513d8a823e3d90fd5b5f80fd5b601f909101601f19168101906001600160401b03821190821017620001be57604052565b634e487b7160e01b5f52604160045260245ffd5b51906001600160a01b0382168203620001965756fe60806040818152600480361015610020575b505050361561001e575f80fd5b005b5f92833560e01c908163079a598b1461114b5750806308a0167514611107578063114cad2c146110e857806316c38b3c146110a55780631b11d0ff14610c9157806324e2624114610ae657806325fc1b3d14610a335780632c76d7a614610a0a578063311cd5a4146109c6578063383aeeae146109a75780633c4e380514610988578063537820bf146108f65780635c975abb146108d25780635ead6fb01461086f5780636d13582c146108465780638447b9aa1461058757806389a30271146105605780638da5cb5b14610538578063ad5c46481461050f578063c3f909d4146104da578063c4aa7395146104bb578063c54e44eb14610492578063c59d48471461045c578063e086e5ec146103e5578063e0bab4c4146103bc578063f2fde38b14610339578063f3df1253146102115763fcff2c2803610011573461020d57602036600319011261020d5780359061018460018060a01b0385541633146111db565b6103e882116101e057507f12c9dccd129ff783f1c8228eacdfa8e334ddecb7ec5c9a79ec662a4aed3d012a9181608092600a55600c8251928084528301526b6d696e50726f66697442707360a01b60608301526020820152a180f35b606490602084519162461bcd60e51b835282015260076024820152664d61782031302560c81b6044820152fd5b8280fd5b50903461020d57606036600319011261020d5761022c611167565b9167ffffffffffffffff846044358281116103355761024e90369085016111ad565b9560018060a01b036102648185541633146111db565b61027360ff600c541615611214565b807f00000000000000000000000000000000000000000000000000000000000000001691823b156103315760c485918a8a519b8c97889687946310ac2ddf60e21b86528d3090870152166024850152602435604485015260a060648501528160a48501528484013783838284010152836084830152601f801991011681010301925af1801561032757610304578480f35b83116103145750525f8080808480f35b634e487b7160e01b845260419052602483fd5b83513d87823e3d90fd5b8480fd5b5080fd5b503461020d57602036600319011261020d57610353611167565b835491906001600160a01b039061036d33838616146111db565b169283156103875750506001600160a01b03191617815580f35b906020606492519162461bcd60e51b8352820152600f60248201526e496e76616c6964206164647265737360881b6044820152fd5b50503461033557816003193601126103355760065490516001600160a01b039091168152602090f35b503461020d578260031936011261020d5782546001600160a01b031661040c3382146111db565b47918215610430575083808093819382f115610426575080f35b51903d90823e3d90fd5b606490602085519162461bcd60e51b8352820152600660248201526509cde408aa8960d31b6044820152fd5b82843461048f578060031936011261048f5750600754600854600954925191825260208201526040810191909152606090f35b80fd5b50503461033557816003193601126103355760055490516001600160a01b039091168152602090f35b505034610335578160031936011261033557602090600b549051908152f35b505034610335578160031936011261033557606090600a5490600b5460ff600c54169082519384526020840152151590820152f35b50503461033557816003193601126103355760035490516001600160a01b039091168152602090f35b505034610335578160031936011261033557905490516001600160a01b039091168152602090f35b503461020d578260031936011261020d575490516001600160a01b03909116815260209150f35b50919034610335576080366003190112610335576105a3611167565b602435926044359460ff86168096036103355760643567ffffffffffffffff811161020d576105d590369083016111ad565b83549194916001600160a01b03906105f090821633146111db565b6105ff60ff600c541615611214565b8216918651956370a0823160e01b92838852308689015260209a8b89602481895afa98891561083c578899610809575b508a89106107cf57918a918360018e979695145f14610741575061066093929161065a9136916112c0565b91611425565b505b6024875180948193825230878301525afa928315610736578093610704575b5050828211156106d557506106a961069f6106b29361271093611327565b94600a5490611334565b04831015611347565b6106be82600854611306565b6008556106cc600954611397565b60095551908152f35b835162461bcd60e51b81529081018690526009602482015268139bc81c1c9bd99a5d60ba1b6044820152606490fd5b909192508682813d831161072f575b61071d818361129e565b8101031261048f575051905f80610681565b503d610713565b8551903d90823e3d90fd5b60028103610767575061076193929161075b9136916112c0565b91611833565b50610662565b90925060039193949550145f1461079157918961078b610761938d969536916112c0565b91611e5b565b885162461bcd60e51b815260208188018181526010918101919091526f496e76616c696420737472617465677960801b604082015281906060010390fd5b895162461bcd60e51b81528088018d90526014602482015273496e73756666696369656e742062616c616e636560601b6044820152606490fd5b9098508b81813d8311610835575b610821818361129e565b810103126108315751975f61062f565b8780fd5b503d610817565b8a513d8a823e3d90fd5b50503461033557816003193601126103355760025490516001600160a01b039091168152602090f35b5050346103355736600319011261048f57610888611167565b610890611197565b82546001600160a01b0391906108a990831633146111db565b816bffffffffffffffffffffffff60a01b93168360015416176001551690600254161760025580f35b50503461033557816003193601126103355760209060ff600c541690519015158152f35b83823461033557608036600319011261033557610911611167565b9061091a611197565b6001600160a01b03916044358381169190829003610984578361093b611181565b9361094a8289541633146111db565b816bffffffffffffffffffffffff60a01b971687600354161760035516858254161790558360055416176005551690600654161760065580f35b8580fd5b5050346103355781600319360112610335576020906009549051908152f35b505034610335578160031936011261033557602090600a549051908152f35b505034610335578160031936011261033557517f00000000000000000000000000000000000000000000000000000000000000006001600160a01b03168152602090f35b50503461033557816003193601126103355760015490516001600160a01b039091168152602090f35b503461020d57602036600319011261020d57803590610a5c60018060a01b0385541633146111db565b6101f48211610aba57507f12c9dccd129ff783f1c8228eacdfa8e334ddecb7ec5c9a79ec662a4aed3d012a9181608092600b55600e8251928084528301526d6d6178536c69707061676542707360901b60608301526020820152a180f35b606490602084519162461bcd60e51b835282015260066024820152654d617820352560d01b6044820152fd5b509190346103355760208060031936011261020d57610b03611167565b83546001600160a01b0390811695918190610b1f3389146111db565b16958451926370a0823160e01b8452308185015284846024818b5afa938415610c87578794610c54575b508315610c2457855163a9059cbb60e01b81526001600160a01b0390921690820190815260208101849052959694959094849186919082908a90829060400103925af18015610c1a57610bc6575b7f016e128b6bdadd9e9068abd0b18db2fc8b27ed3dbced50e4aa6cc0a6934251ab93508554169351908152a280f35b8284813d8311610c13575b610bdb818361129e565b8101031261098457610c0d7f016e128b6bdadd9e9068abd0b18db2fc8b27ed3dbced50e4aa6cc0a6934251ab9461138a565b50610b97565b503d610bd1565b85513d88823e3d90fd5b855162461bcd60e51b8152908101859052600a6024820152694e6f2062616c616e636560b01b6044820152606490fd5b9093508481813d8311610c80575b610c6c818361129e565b81010312610c7c5751925f610b49565b8680fd5b503d610c62565b86513d89823e3d90fd5b50913461048f5760a036600319011261048f57610cac611167565b92602435610cb8611181565b916084359367ffffffffffffffff9485811161033557610cdb90369084016111ad565b977f0000000000000000000000000000000000000000000000000000000000000000956001600160a01b0390818816330361107157813091160361103a578116968851996370a0823160e01b8b5230868c015260209a8b816024818d5afa801561103057908c91611007575b505083019089848303126103315783359360ff8516809503610984578b810135918211610984570181601f82011215610331578691818c610d8a933591016112c0565b9160018403610f9a57610d9d9350611425565b505b85516370a0823160e01b81523083820152908782602481895afa918215610f1c578192610f6b575b5060443594610dd68686611306565b92838110610f285790610dea848b93611327565b94610e06612710610dfd600a548a611334565b04871015611347565b895163095ea7b360e01b81526001600160a01b03909216908201908152602081019490945292839081906040010381848a5af18015610f1c57610ebe575b505090610eb47fe03a36d920ad8de5a978a8f1917280e202ae9193e6dc19e08ef1f6c2a051eba49392610e78600754611397565b600755610e8781600854611306565b600855610e95600954611397565b6009558651938493846040919493926060820195825260208201520152565b0390a25160018152f35b8782813d8311610f15575b610ed3818361129e565b8101031261048f57507fe03a36d920ad8de5a978a8f1917280e202ae9193e6dc19e08ef1f6c2a051eba4939291610f0c610eb49261138a565b50919293610e44565b503d610ec9565b508651903d90823e3d90fd5b885162461bcd60e51b81528086018b9052601b60248201527f496e73756666696369656e742066756e647320746f20726570617900000000006044820152606490fd5b9091508781813d8311610f93575b610f83818361129e565b810103126103355751905f610dc7565b503d610f79565b60028403610fb257610fac9350611833565b50610d9f565b9192600314159050610fc9579084610fac92611e5b565b875162461bcd60e51b815260208186018181526010918101919091526f496e76616c696420737472617465677960801b604082015281906060010390fd5b813d8311611029575b61101a818361129e565b81010312610331578a5f610d47565b503d611010565b8b513d88823e3d90fd5b885162461bcd60e51b8152602081870152601160248201527024b73b30b634b21034b734ba34b0ba37b960791b6044820152606490fd5b895162461bcd60e51b8152602081880152600e60248201526d13db9b1e4810585d9948141bdbdb60921b6044820152606490fd5b8382346103355760203660031901126103355735801515809103610335576110d760018060a01b0383541633146111db565b60ff8019600c5416911617600c5580f35b5050346103355781600319360112610335576020906007549051908152f35b505034610335578160031936011261033557517f00000000000000000000000000000000000000000000000000000000000000006001600160a01b03168152602090f35b8490346103355781600319360112610335576020906008548152f35b600435906001600160a01b038216820361117d57565b5f80fd5b606435906001600160a01b038216820361117d57565b602435906001600160a01b038216820361117d57565b9181601f8401121561117d5782359167ffffffffffffffff831161117d576020838186019501011161117d57565b156111e257565b60405162461bcd60e51b815260206004820152600a60248201526927b7363c9037bbb732b960b11b6044820152606490fd5b1561121b57565b60405162461bcd60e51b815260206004820152600f60248201526e10dbdb9d1c9858dd081c185d5cd959608a1b6044820152606490fd5b60e0810190811067ffffffffffffffff82111761126e57604052565b634e487b7160e01b5f52604160045260245ffd5b6060810190811067ffffffffffffffff82111761126e57604052565b90601f8019910116810190811067ffffffffffffffff82111761126e57604052565b92919267ffffffffffffffff821161126e57604051916112ea601f8201601f19166020018461129e565b82948184528183011161117d578281602093845f960137010152565b9190820180921161131357565b634e487b7160e01b5f52601160045260245ffd5b9190820391821161131357565b8181029291811591840414171561131357565b1561134e57565b60405162461bcd60e51b815260206004820152601460248201527350726f6669742062656c6f77206d696e696d756d60601b6044820152606490fd5b5190811515820361117d57565b5f1981146113135760010190565b51906001600160a01b038216820361117d57565b519062ffffff8216820361117d57565b91909160c060e08201938160018060a01b039182815116855282602082015116602086015262ffffff60408201511660408601528260608201511660608601526080810151608086015260a081015160a0860152015116910152565b9092919260608480518101031261117d576020916114448386016113a5565b9060409161145f6060611458858a016113b9565b98016113b9565b600154845163095ea7b360e01b8082526001600160a01b039283166004830152602482018890525f9a948316958316949093909189816044818f8a5af1801561172c576116f4575b508260015416928b8851956114bb87611252565b878752888c88015262ffffff8095168a8801523060608801528a60808801528160a08801528160c08801528b8a5180978185816115066304e45aaf60e01b9d8e8352600483016113c9565b03925af19586156116ea579082918d93976116b7575b506001548b5191825284166001600160a01b0316600482015260248101879052919082908180604481015b03918c5af180156116ad5761165f575b5091899593916115ac9b9c979593600154169489519661157688611252565b875287870152168785015230606085015260808401528660a08401528460c0840152848651809a819582948352600483016113c9565b03925af1948515611653578195611621575b5091845f8051602061230483398151915294928460c095508383115f1461161b57506115ea8383611327565b925b8151946080865260096080870152680929ca8a482be888ab60bb1b60a08701528501528301526060820152a190565b926115ec565b909194508381813d831161164c575b61163a818361129e565b810103126103355751939060c06115be565b503d611630565b509051903d90823e3d90fd5b8a81813d83116116a6575b611674818361129e565b810103126116a257916115ac9b9c979593916116928c98969461138a565b50919395979c9b50919395611557565b8c80fd5b503d61166a565b89513d8f823e3d90fd5b9196509181813d81116116e3575b6116cf818361129e565b810103126109845751948b9161154761151c565b503d6116c5565b8a513d84823e3d90fd5b8981813d8311611725575b611709818361129e565b810103126117215761171a9061138a565b505f6114a7565b8b80fd5b503d6116ff565b88513d8e823e3d90fd5b8051156117435760200190565b634e487b7160e01b5f52603260045260245ffd5b8051600110156117435760400190565b80518210156117435760209160051b010190565b90602090818382031261117d57825167ffffffffffffffff9384821161117d570181601f8201121561117d57805193841161126e578360051b90604051946117c58584018761129e565b8552838086019282010192831161117d578301905b8282106117e8575050505090565b815181529083019083016117da565b9081518082526020808093019301915f5b828110611816575050505090565b83516001600160a01b031685529381019392810192600101611808565b919060608280518101031261117d576020916118508382016113a5565b9360409461186b60606118648886016113b9565b940161138a565b6001600160a01b0391821692905f9015611b945750600154875163095ea7b360e01b8082529184166001600160a01b03166004808301919091526024820188905295928416929088816044815f885af18015611b8a579089969594939291611b4e575b509461192a5f9685600154169062ffffff8d51916118eb83611252565b8783528986840152168d8201523060608201528a60808201528860a08201528860c08201528c519889809481936304e45aaf60e01b83528d83016113c9565b03925af1948515611b0c579088915f96611b16575b506002548a5191825284166001600160a01b0316878201908152602081018790529091908290819060400103815f885af18015611b0c57611ad8575b5087519261198884611282565b6002845288368986013761199b84611736565b526119a583611757565b52600254169061012c420192834211611ac557916119ee915f80948a51968795869485936338ed173960e01b85528b8501528b602485015260a0604485015260a48401906117f7565b90306064840152608483015203925af1908115611abb575f91611a9a575b5080515f19810192908311611a87575091611a385f80516020612304833981519152949260c094611767565b5180955b5f83831115611a815750611a508383611327565b925b815194608086526009608087015268086a49ea6a6be888ab60bb1b60a08701528501528301526060820152a190565b92611a52565b601190634e487b7160e01b5f525260245ffd5b611ab5913d8091833e611aad818361129e565b81019061177b565b5f611a0c565b85513d5f823e3d90fd5b601185634e487b7160e01b5f525260245ffd5b8781813d8311611b05575b611aed818361129e565b8101031261117d57611afe9061138a565b505f61197b565b503d611ae3565b89513d5f823e3d90fd5b9182819792949596973d8311611b47575b611b31818361129e565b8101031261048f5750519392919087905f61193f565b503d611b27565b9586813d8311611b83575b611b63818361129e565b8101031261117d5761192a8991611b7a5f9861138a565b509196506118ce565b503d611b59565b8a513d5f823e3d90fd5b600254885163095ea7b360e01b8082529185166001600160a01b031660048083019190915260248201899052929694959493861693919089816044818b895af18015611ddd57611e27575b508951611beb81611282565b600281528a368b83013784611bff82611736565b5285611c0a82611757565b52866002541661012c420191824211611e14578991611c5491838f8e9051968795869485936338ed173960e01b85528d85015284602485015260a0604485015260a48401906117f7565b90306064840152608483015203925af1908115611ddd578891611dfa575b5080515f19810191908211611de757611c8f8c9493928c92611767565b5160015494519283529388166001600160a01b0316858301908152602081018590528290819060400103818b8a5af18015611ddd57908a969594939291611d93575b5062ffffff90611d289760015416948c5196611cec88611252565b875287870152168a85015230606085015260808401528660a08401528560c08401528589518096819582946304e45aaf60e01b845283016113c9565b03925af1918215610736578092611d56575b50509160c0915f80516020612304833981519152938095611a3c565b9091508382813d8311611d8c575b611d6e818361129e565b8101031261048f575051815f80516020612304833981519152611d3a565b503d611d64565b9092949691939581813d8311611dd6575b611dae818361129e565b8101031261083157611d289694928a969492611dcd62ffffff9361138a565b50975090611cd1565b503d611da4565b8b513d8a823e3d90fd5b634e487b7160e01b895260118552602489fd5b611e0e91503d808a833e611aad818361129e565b5f611c72565b634e487b7160e01b8a526011865260248afd5b8981813d8311611e54575b611e3c818361129e565b8101031261083157611e4d9061138a565b505f611bdf565b503d611e32565b60a08380518101031261117d57611e74602084016113a5565b92611e81604082016113a5565b90611e8e606082016113b9565b90611ea760a0611ea0608084016113b9565b92016113b9565b60015460405163095ea7b360e01b81526001600160a01b03909116600482015260248101879052909290602081806044810103815f6001600160a01b038b165af180156121ba576122c0575b506020611f6c5f9260018060a01b03600154169062ffffff60405191611f1883611252565b6001600160a01b038b811684528d168684015216604080830191909152306060830152608082018b905260a0820186905260c08201869052516304e45aaf60e01b81529485938492839190600483016113c9565b03925af19081156121ba575f9161228e575b5060015460405163095ea7b360e01b81526001600160a01b03909116600482015260248101829052602081806044810103815f6001600160a01b038d165af180156121ba57612247575b506020915f9761203f9262ffffff60018060a01b03600154169360405193611fef85611252565b60018060a01b0316845260018060a01b0389168785015216604083015230606083015260808201528860a08201528860c08201526040519889809481936304e45aaf60e01b8352600483016113c9565b03925af19485156121ba575f95612213575b5060015460405163095ea7b360e01b81526001600160a01b03909116600482015260248101869052602081806044810103815f6001600160a01b0388165af180156121ba576121c5575b5091612112915f9562ffffff60209560018060a01b036001541694604051946120c386611252565b60018060a01b0316855260018060a01b03168785015216604083015230606083015260808201528460a08201528560c08201526040519586809481936304e45aaf60e01b8352600483016113c9565b03925af19182156121ba575f92612185575b5060c05f80516020612304833981519152918084115f1461217f576121498185611327565b6040519160808352600a6080840152692a2924a0a723aaa620a960b11b60a084015260208301528460408301526060820152a190565b5f612149565b9091506020813d6020116121b2575b816121a16020938361129e565b8101031261117d57519060c0612124565b3d9150612194565b6040513d5f823e3d90fd5b9290916020843d60201161220b575b816121e16020938361129e565b8101031261117d575f9562ffffff612112946121fe60209761138a565b509395505095509161209b565b3d91506121d4565b9094506020813d60201161223f575b8161222f6020938361129e565b8101031261117d5751935f612051565b3d9150612222565b90916020823d602011612286575b816122626020938361129e565b8101031261117d575f9760209361227b61203f9461138a565b509250975091611fc8565b3d9150612255565b90506020813d6020116122b8575b816122a96020938361129e565b8101031261117d57515f611f7e565b3d915061229c565b906020823d6020116122fb575b816122da6020938361129e565b8101031261117d57611f6c6020916122f25f9461138a565b50925050611ef3565b3d91506122cd56fe17078c68f2d19703a569814824fbd34e13a624e30a1a562b6fff0b278d9bd5faa2646970667358221220feab7fc37c605889c685d1c4ca221be166eda1ef89911595e192e72a1846365164736f6c63430008140033","opcodes":"PUSH1 0xC0 DUP1 PUSH1 0x40 MSTORE CALLVALUE PUSH3 0x196 JUMPI PUSH1 0xA0 DUP2 PUSH3 0x2541 DUP1 CODESIZE SUB DUP1 SWAP2 PUSH3 0x23 DUP3 DUP6 PUSH3 0x19A JUMP JUMPDEST DUP4 CODECOPY DUP2 ADD SUB SLT PUSH3 0x196 JUMPI PUSH3 0x39 DUP2 PUSH3 0x1D2 JUMP JUMPDEST SWAP1 PUSH3 0x48 PUSH1 0x20 DUP3 ADD PUSH3 0x1D2 JUMP JUMPDEST SWAP2 PUSH3 0x57 PUSH1 0x40 DUP4 ADD PUSH3 0x1D2 JUMP JUMPDEST SWAP2 PUSH3 0x74 PUSH1 0x80 PUSH3 0x6C PUSH1 0x60 DUP5 ADD PUSH3 0x1D2 JUMP JUMPDEST SWAP3 ADD PUSH3 0x1D2 JUMP JUMPDEST SWAP1 PUSH1 0xA DUP1 SSTORE PUSH1 0x64 PUSH1 0xB SSTORE PUSH1 0xFF NOT PUSH1 0xC SLOAD AND PUSH1 0xC SSTORE PUSH1 0x1 DUP1 PUSH1 0xA0 SHL SUB NOT SWAP4 PUSH0 SWAP6 CALLER DUP7 DUP9 SLOAD AND OR DUP8 SSTORE DUP5 PUSH1 0x80 MSTORE PUSH1 0x40 MLOAD PUSH4 0x26B1D5F PUSH1 0xE0 SHL DUP2 MSTORE PUSH1 0x20 DUP2 PUSH1 0x4 DUP2 PUSH1 0x1 DUP1 PUSH1 0xA0 SHL SUB DUP1 SWAP11 AND GAS STATICCALL SWAP1 DUP2 ISZERO PUSH3 0x18B JUMPI DUP9 DUP8 SWAP9 SWAP10 SWAP8 SWAP7 SWAP8 SWAP3 PUSH3 0x136 JUMPI JUMPDEST POP POP DUP5 SWAP3 SWAP2 DUP4 SWAP2 PUSH1 0xA0 MSTORE AND DUP8 PUSH1 0x1 SLOAD AND OR PUSH1 0x1 SSTORE AND DUP6 PUSH1 0x2 SLOAD AND OR PUSH1 0x2 SSTORE AND DUP4 PUSH1 0x3 SLOAD AND OR PUSH1 0x3 SSTORE AND SWAP1 PUSH1 0x4 SLOAD AND OR PUSH1 0x4 SSTORE PUSH1 0x40 MLOAD PUSH2 0x2359 SWAP1 DUP2 PUSH3 0x1E8 DUP3 CODECOPY PUSH1 0x80 MLOAD DUP2 PUSH2 0x9DB ADD MSTORE PUSH1 0xA0 MLOAD DUP2 DUP2 DUP2 PUSH2 0x276 ADD MSTORE DUP2 DUP2 PUSH2 0xCDE ADD MSTORE PUSH2 0x111C ADD MSTORE RETURN JUMPDEST SWAP2 POP SWAP2 SWAP3 SWAP4 SWAP5 POP PUSH1 0x20 DUP3 RETURNDATASIZE DUP3 GT PUSH3 0x182 JUMPI JUMPDEST DUP2 PUSH3 0x158 PUSH1 0x20 SWAP4 DUP4 PUSH3 0x19A JUMP JUMPDEST DUP2 ADD SUB SLT PUSH3 0x17F JUMPI POP SWAP2 DUP6 DUP1 SWAP5 SWAP4 SWAP3 PUSH3 0x174 DUP3 SWAP5 PUSH3 0x1D2 JUMP JUMPDEST SWAP2 DUP2 SWAP4 SWAP5 POP PUSH3 0xD4 JUMP JUMPDEST DUP1 REVERT JUMPDEST RETURNDATASIZE SWAP2 POP PUSH3 0x149 JUMP JUMPDEST PUSH1 0x40 MLOAD RETURNDATASIZE DUP11 DUP3 RETURNDATACOPY RETURNDATASIZE SWAP1 REVERT JUMPDEST PUSH0 DUP1 REVERT JUMPDEST PUSH1 0x1F SWAP1 SWAP2 ADD PUSH1 0x1F NOT AND DUP2 ADD SWAP1 PUSH1 0x1 PUSH1 0x1 PUSH1 0x40 SHL SUB DUP3 GT SWAP1 DUP3 LT OR PUSH3 0x1BE JUMPI PUSH1 0x40 MSTORE JUMP JUMPDEST PUSH4 0x4E487B71 PUSH1 0xE0 SHL PUSH0 MSTORE PUSH1 0x41 PUSH1 0x4 MSTORE PUSH1 0x24 PUSH0 REVERT JUMPDEST MLOAD SWAP1 PUSH1 0x1 PUSH1 0x1 PUSH1 0xA0 SHL SUB DUP3 AND DUP3 SUB PUSH3 0x196 JUMPI JUMP INVALID PUSH1 0x80 PUSH1 0x40 DUP2 DUP2 MSTORE PUSH1 0x4 DUP1 CALLDATASIZE LT ISZERO PUSH2 0x20 JUMPI JUMPDEST POP POP POP CALLDATASIZE ISZERO PUSH2 0x1E JUMPI PUSH0 DUP1 REVERT JUMPDEST STOP JUMPDEST PUSH0 SWAP3 DUP4 CALLDATALOAD PUSH1 0xE0 SHR SWAP1 DUP2 PUSH4 0x79A598B EQ PUSH2 0x114B JUMPI POP DUP1 PUSH4 0x8A01675 EQ PUSH2 0x1107 JUMPI DUP1 PUSH4 0x114CAD2C EQ PUSH2 0x10E8 JUMPI DUP1 PUSH4 0x16C38B3C EQ PUSH2 0x10A5 JUMPI DUP1 PUSH4 0x1B11D0FF EQ PUSH2 0xC91 JUMPI DUP1 PUSH4 0x24E26241 EQ PUSH2 0xAE6 JUMPI DUP1 PUSH4 0x25FC1B3D EQ PUSH2 0xA33 JUMPI DUP1 PUSH4 0x2C76D7A6 EQ PUSH2 0xA0A JUMPI DUP1 PUSH4 0x311CD5A4 EQ PUSH2 0x9C6 JUMPI DUP1 PUSH4 0x383AEEAE EQ PUSH2 0x9A7 JUMPI DUP1 PUSH4 0x3C4E3805 EQ PUSH2 0x988 JUMPI DUP1 PUSH4 0x537820BF EQ PUSH2 0x8F6 JUMPI DUP1 PUSH4 0x5C975ABB EQ PUSH2 0x8D2 JUMPI DUP1 PUSH4 0x5EAD6FB0 EQ PUSH2 0x86F JUMPI DUP1 PUSH4 0x6D13582C EQ PUSH2 0x846 JUMPI DUP1 PUSH4 0x8447B9AA EQ PUSH2 0x587 JUMPI DUP1 PUSH4 0x89A30271 EQ PUSH2 0x560 JUMPI DUP1 PUSH4 0x8DA5CB5B EQ PUSH2 0x538 JUMPI DUP1 PUSH4 0xAD5C4648 EQ PUSH2 0x50F JUMPI DUP1 PUSH4 0xC3F909D4 EQ PUSH2 0x4DA JUMPI DUP1 PUSH4 0xC4AA7395 EQ PUSH2 0x4BB JUMPI DUP1 PUSH4 0xC54E44EB EQ PUSH2 0x492 JUMPI DUP1 PUSH4 0xC59D4847 EQ PUSH2 0x45C JUMPI DUP1 PUSH4 0xE086E5EC EQ PUSH2 0x3E5 JUMPI DUP1 PUSH4 0xE0BAB4C4 EQ PUSH2 0x3BC JUMPI DUP1 PUSH4 0xF2FDE38B EQ PUSH2 0x339 JUMPI DUP1 PUSH4 0xF3DF1253 EQ PUSH2 0x211 JUMPI PUSH4 0xFCFF2C28 SUB PUSH2 0x11 JUMPI CALLVALUE PUSH2 0x20D JUMPI PUSH1 0x20 CALLDATASIZE PUSH1 0x3 NOT ADD SLT PUSH2 0x20D JUMPI DUP1 CALLDATALOAD SWAP1 PUSH2 0x184 PUSH1 0x1 DUP1 PUSH1 0xA0 SHL SUB DUP6 SLOAD AND CALLER EQ PUSH2 0x11DB JUMP JUMPDEST PUSH2 0x3E8 DUP3 GT PUSH2 0x1E0 JUMPI POP PUSH32 0x12C9DCCD129FF783F1C8228EACDFA8E334DDECB7EC5C9A79EC662A4AED3D012A SWAP2 DUP2 PUSH1 0x80 SWAP3 PUSH1 0xA SSTORE PUSH1 0xC DUP3 MLOAD SWAP3 DUP1 DUP5 MSTORE DUP4 ADD MSTORE PUSH12 0x6D696E50726F666974427073 PUSH1 0xA0 SHL PUSH1 0x60 DUP4 ADD MSTORE PUSH1 0x20 DUP3 ADD MSTORE LOG1 DUP1 RETURN JUMPDEST PUSH1 0x64 SWAP1 PUSH1 0x20 DUP5 MLOAD SWAP2 PUSH3 0x461BCD PUSH1 0xE5 SHL DUP4 MSTORE DUP3 ADD MSTORE PUSH1 0x7 PUSH1 0x24 DUP3 ADD MSTORE PUSH7 0x4D617820313025 PUSH1 0xC8 SHL PUSH1 0x44 DUP3 ADD MSTORE REVERT JUMPDEST DUP3 DUP1 REVERT JUMPDEST POP SWAP1 CALLVALUE PUSH2 0x20D JUMPI PUSH1 0x60 CALLDATASIZE PUSH1 0x3 NOT ADD SLT PUSH2 0x20D JUMPI PUSH2 0x22C PUSH2 0x1167 JUMP JUMPDEST SWAP2 PUSH8 0xFFFFFFFFFFFFFFFF DUP5 PUSH1 0x44 CALLDATALOAD DUP3 DUP2 GT PUSH2 0x335 JUMPI PUSH2 0x24E SWAP1 CALLDATASIZE SWAP1 DUP6 ADD PUSH2 0x11AD JUMP JUMPDEST SWAP6 PUSH1 0x1 DUP1 PUSH1 0xA0 SHL SUB PUSH2 0x264 DUP2 DUP6 SLOAD AND CALLER EQ PUSH2 0x11DB JUMP JUMPDEST PUSH2 0x273 PUSH1 0xFF PUSH1 0xC SLOAD AND ISZERO PUSH2 0x1214 JUMP JUMPDEST DUP1 PUSH32 0x0 AND SWAP2 DUP3 EXTCODESIZE ISZERO PUSH2 0x331 JUMPI PUSH1 0xC4 DUP6 SWAP2 DUP11 DUP11 MLOAD SWAP12 DUP13 SWAP8 DUP9 SWAP7 DUP8 SWAP5 PUSH4 0x10AC2DDF PUSH1 0xE2 SHL DUP7 MSTORE DUP14 ADDRESS SWAP1 DUP8 ADD MSTORE AND PUSH1 0x24 DUP6 ADD MSTORE PUSH1 0x24 CALLDATALOAD PUSH1 0x44 DUP6 ADD MSTORE PUSH1 0xA0 PUSH1 0x64 DUP6 ADD MSTORE DUP2 PUSH1 0xA4 DUP6 ADD MSTORE DUP5 DUP5 ADD CALLDATACOPY DUP4 DUP4 DUP3 DUP5 ADD ADD MSTORE DUP4 PUSH1 0x84 DUP4 ADD MSTORE PUSH1 0x1F DUP1 NOT SWAP2 ADD AND DUP2 ADD SUB ADD SWAP3 GAS CALL DUP1 ISZERO PUSH2 0x327 JUMPI PUSH2 0x304 JUMPI DUP5 DUP1 RETURN JUMPDEST DUP4 GT PUSH2 0x314 JUMPI POP MSTORE PUSH0 DUP1 DUP1 DUP1 DUP5 DUP1 RETURN JUMPDEST PUSH4 0x4E487B71 PUSH1 0xE0 SHL DUP5 MSTORE PUSH1 0x41 SWAP1 MSTORE PUSH1 0x24 DUP4 REVERT JUMPDEST DUP4 MLOAD RETURNDATASIZE DUP8 DUP3 RETURNDATACOPY RETURNDATASIZE SWAP1 REVERT JUMPDEST DUP5 DUP1 REVERT JUMPDEST POP DUP1 REVERT JUMPDEST POP CALLVALUE PUSH2 0x20D JUMPI PUSH1 0x20 CALLDATASIZE PUSH1 0x3 NOT ADD SLT PUSH2 0x20D JUMPI PUSH2 0x353 PUSH2 0x1167 JUMP JUMPDEST DUP4 SLOAD SWAP2 SWAP1 PUSH1 0x1 PUSH1 0x1 PUSH1 0xA0 SHL SUB SWAP1 PUSH2 0x36D CALLER DUP4 DUP7 AND EQ PUSH2 0x11DB JUMP JUMPDEST AND SWAP3 DUP4 ISZERO PUSH2 0x387 JUMPI POP POP PUSH1 0x1 PUSH1 0x1 PUSH1 0xA0 SHL SUB NOT AND OR DUP2 SSTORE DUP1 RETURN JUMPDEST SWAP1 PUSH1 0x20 PUSH1 0x64 SWAP3 MLOAD SWAP2 PUSH3 0x461BCD PUSH1 0xE5 SHL DUP4 MSTORE DUP3 ADD MSTORE PUSH1 0xF PUSH1 0x24 DUP3 ADD MSTORE PUSH15 0x496E76616C69642061646472657373 PUSH1 0x88 SHL PUSH1 0x44 DUP3 ADD MSTORE REVERT JUMPDEST POP POP CALLVALUE PUSH2 0x335 JUMPI DUP2 PUSH1 0x3 NOT CALLDATASIZE ADD SLT PUSH2 0x335 JUMPI PUSH1 0x6 SLOAD SWAP1 MLOAD PUSH1 0x1 PUSH1 0x1 PUSH1 0xA0 SHL SUB SWAP1 SWAP2 AND DUP2 MSTORE PUSH1 0x20 SWAP1 RETURN JUMPDEST POP CALLVALUE PUSH2 0x20D JUMPI DUP3 PUSH1 0x3 NOT CALLDATASIZE ADD SLT PUSH2 0x20D JUMPI DUP3 SLOAD PUSH1 0x1 PUSH1 0x1 PUSH1 0xA0 SHL SUB AND PUSH2 0x40C CALLER DUP3 EQ PUSH2 0x11DB JUMP JUMPDEST SELFBALANCE SWAP2 DUP3 ISZERO PUSH2 0x430 JUMPI POP DUP4 DUP1 DUP1 SWAP4 DUP2 SWAP4 DUP3 CALL ISZERO PUSH2 0x426 JUMPI POP DUP1 RETURN JUMPDEST MLOAD SWAP1 RETURNDATASIZE SWAP1 DUP3 RETURNDATACOPY RETURNDATASIZE SWAP1 REVERT JUMPDEST PUSH1 0x64 SWAP1 PUSH1 0x20 DUP6 MLOAD SWAP2 PUSH3 0x461BCD PUSH1 0xE5 SHL DUP4 MSTORE DUP3 ADD MSTORE PUSH1 0x6 PUSH1 0x24 DUP3 ADD MSTORE PUSH6 0x9CDE408AA89 PUSH1 0xD3 SHL PUSH1 0x44 DUP3 ADD MSTORE REVERT JUMPDEST DUP3 DUP5 CALLVALUE PUSH2 0x48F JUMPI DUP1 PUSH1 0x3 NOT CALLDATASIZE ADD SLT PUSH2 0x48F JUMPI POP PUSH1 0x7 SLOAD PUSH1 0x8 SLOAD PUSH1 0x9 SLOAD SWAP3 MLOAD SWAP2 DUP3 MSTORE PUSH1 0x20 DUP3 ADD MSTORE PUSH1 0x40 DUP2 ADD SWAP2 SWAP1 SWAP2 MSTORE PUSH1 0x60 SWAP1 RETURN JUMPDEST DUP1 REVERT JUMPDEST POP POP CALLVALUE PUSH2 0x335 JUMPI DUP2 PUSH1 0x3 NOT CALLDATASIZE ADD SLT PUSH2 0x335 JUMPI PUSH1 0x5 SLOAD SWAP1 MLOAD PUSH1 0x1 PUSH1 0x1 PUSH1 0xA0 SHL SUB SWAP1 SWAP2 AND DUP2 MSTORE PUSH1 0x20 SWAP1 RETURN JUMPDEST POP POP CALLVALUE PUSH2 0x335 JUMPI DUP2 PUSH1 0x3 NOT CALLDATASIZE ADD SLT PUSH2 0x335 JUMPI PUSH1 0x20 SWAP1 PUSH1 0xB SLOAD SWAP1 MLOAD SWAP1 DUP2 MSTORE RETURN JUMPDEST POP POP CALLVALUE PUSH2 0x335 JUMPI DUP2 PUSH1 0x3 NOT CALLDATASIZE ADD SLT PUSH2 0x335 JUMPI PUSH1 0x60 SWAP1 PUSH1 0xA SLOAD SWAP1 PUSH1 0xB SLOAD PUSH1 0xFF PUSH1 0xC SLOAD AND SWAP1 DUP3 MLOAD SWAP4 DUP5 MSTORE PUSH1 0x20 DUP5 ADD MSTORE ISZERO ISZERO SWAP1 DUP3 ADD MSTORE RETURN JUMPDEST POP POP CALLVALUE PUSH2 0x335 JUMPI DUP2 PUSH1 0x3 NOT CALLDATASIZE ADD SLT PUSH2 0x335 JUMPI PUSH1 0x3 SLOAD SWAP1 MLOAD PUSH1 0x1 PUSH1 0x1 PUSH1 0xA0 SHL SUB SWAP1 SWAP2 AND DUP2 MSTORE PUSH1 0x20 SWAP1 RETURN JUMPDEST POP POP CALLVALUE PUSH2 0x335 JUMPI DUP2 PUSH1 0x3 NOT CALLDATASIZE ADD SLT PUSH2 0x335 JUMPI SWAP1 SLOAD SWAP1 MLOAD PUSH1 0x1 PUSH1 0x1 PUSH1 0xA0 SHL SUB SWAP1 SWAP2 AND DUP2 MSTORE PUSH1 0x20 SWAP1 RETURN JUMPDEST POP CALLVALUE PUSH2 0x20D JUMPI DUP3 PUSH1 0x3 NOT CALLDATASIZE ADD SLT PUSH2 0x20D JUMPI SLOAD SWAP1 MLOAD PUSH1 0x1 PUSH1 0x1 PUSH1 0xA0 SHL SUB SWAP1 SWAP2 AND DUP2 MSTORE PUSH1 0x20 SWAP2 POP RETURN JUMPDEST POP SWAP2 SWAP1 CALLVALUE PUSH2 0x335 JUMPI PUSH1 0x80 CALLDATASIZE PUSH1 0x3 NOT ADD SLT PUSH2 0x335 JUMPI PUSH2 0x5A3 PUSH2 0x1167 JUMP JUMPDEST PUSH1 0x24 CALLDATALOAD SWAP3 PUSH1 0x44 CALLDATALOAD SWAP5 PUSH1 0xFF DUP7 AND DUP1 SWAP7 SUB PUSH2 0x335 JUMPI PUSH1 0x64 CALLDATALOAD PUSH8 0xFFFFFFFFFFFFFFFF DUP2 GT PUSH2 0x20D JUMPI PUSH2 0x5D5 SWAP1 CALLDATASIZE SWAP1 DUP4 ADD PUSH2 0x11AD JUMP JUMPDEST DUP4 SLOAD SWAP2 SWAP5 SWAP2 PUSH1 0x1 PUSH1 0x1 PUSH1 0xA0 SHL SUB SWAP1 PUSH2 0x5F0 SWAP1 DUP3 AND CALLER EQ PUSH2 0x11DB JUMP JUMPDEST PUSH2 0x5FF PUSH1 0xFF PUSH1 0xC SLOAD AND ISZERO PUSH2 0x1214 JUMP JUMPDEST DUP3 AND SWAP2 DUP7 MLOAD SWAP6 PUSH4 0x70A08231 PUSH1 0xE0 SHL SWAP3 DUP4 DUP9 MSTORE ADDRESS DUP7 DUP10 ADD MSTORE PUSH1 0x20 SWAP11 DUP12 DUP10 PUSH1 0x24 DUP2 DUP10 GAS STATICCALL SWAP9 DUP10 ISZERO PUSH2 0x83C JUMPI DUP9 SWAP10 PUSH2 0x809 JUMPI JUMPDEST POP DUP11 DUP10 LT PUSH2 0x7CF JUMPI SWAP2 DUP11 SWAP2 DUP4 PUSH1 0x1 DUP15 SWAP8 SWAP7 SWAP6 EQ PUSH0 EQ PUSH2 0x741 JUMPI POP PUSH2 0x660 SWAP4 SWAP3 SWAP2 PUSH2 0x65A SWAP2 CALLDATASIZE SWAP2 PUSH2 0x12C0 JUMP JUMPDEST SWAP2 PUSH2 0x1425 JUMP JUMPDEST POP JUMPDEST PUSH1 0x24 DUP8 MLOAD DUP1 SWAP5 DUP2 SWAP4 DUP3 MSTORE ADDRESS DUP8 DUP4 ADD MSTORE GAS STATICCALL SWAP3 DUP4 ISZERO PUSH2 0x736 JUMPI DUP1 SWAP4 PUSH2 0x704 JUMPI JUMPDEST POP POP DUP3 DUP3 GT ISZERO PUSH2 0x6D5 JUMPI POP PUSH2 0x6A9 PUSH2 0x69F PUSH2 0x6B2 SWAP4 PUSH2 0x2710 SWAP4 PUSH2 0x1327 JUMP JUMPDEST SWAP5 PUSH1 0xA SLOAD SWAP1 PUSH2 0x1334 JUMP JUMPDEST DIV DUP4 LT ISZERO PUSH2 0x1347 JUMP JUMPDEST PUSH2 0x6BE DUP3 PUSH1 0x8 SLOAD PUSH2 0x1306 JUMP JUMPDEST PUSH1 0x8 SSTORE PUSH2 0x6CC PUSH1 0x9 SLOAD PUSH2 0x1397 JUMP JUMPDEST PUSH1 0x9 SSTORE MLOAD SWAP1 DUP2 MSTORE RETURN JUMPDEST DUP4 MLOAD PUSH3 0x461BCD PUSH1 0xE5 SHL DUP2 MSTORE SWAP1 DUP2 ADD DUP7 SWAP1 MSTORE PUSH1 0x9 PUSH1 0x24 DUP3 ADD MSTORE PUSH9 0x139BC81C1C9BD99A5D PUSH1 0xBA SHL PUSH1 0x44 DUP3 ADD MSTORE PUSH1 0x64 SWAP1 REVERT JUMPDEST SWAP1 SWAP2 SWAP3 POP DUP7 DUP3 DUP2 RETURNDATASIZE DUP4 GT PUSH2 0x72F JUMPI JUMPDEST PUSH2 0x71D DUP2 DUP4 PUSH2 0x129E JUMP JUMPDEST DUP2 ADD SUB SLT PUSH2 0x48F JUMPI POP MLOAD SWAP1 PUSH0 DUP1 PUSH2 0x681 JUMP JUMPDEST POP RETURNDATASIZE PUSH2 0x713 JUMP JUMPDEST DUP6 MLOAD SWAP1 RETURNDATASIZE SWAP1 DUP3 RETURNDATACOPY RETURNDATASIZE SWAP1 REVERT JUMPDEST PUSH1 0x2 DUP2 SUB PUSH2 0x767 JUMPI POP PUSH2 0x761 SWAP4 SWAP3 SWAP2 PUSH2 0x75B SWAP2 CALLDATASIZE SWAP2 PUSH2 0x12C0 JUMP JUMPDEST SWAP2 PUSH2 0x1833 JUMP JUMPDEST POP PUSH2 0x662 JUMP JUMPDEST SWAP1 SWAP3 POP PUSH1 0x3 SWAP2 SWAP4 SWAP5 SWAP6 POP EQ PUSH0 EQ PUSH2 0x791 JUMPI SWAP2 DUP10 PUSH2 0x78B PUSH2 0x761 SWAP4 DUP14 SWAP7 SWAP6 CALLDATASIZE SWAP2 PUSH2 0x12C0 JUMP JUMPDEST SWAP2 PUSH2 0x1E5B JUMP JUMPDEST DUP9 MLOAD PUSH3 0x461BCD PUSH1 0xE5 SHL DUP2 MSTORE PUSH1 0x20 DUP2 DUP9 ADD DUP2 DUP2 MSTORE PUSH1 0x10 SWAP2 DUP2 ADD SWAP2 SWAP1 SWAP2 MSTORE PUSH16 0x496E76616C6964207374726174656779 PUSH1 0x80 SHL PUSH1 0x40 DUP3 ADD MSTORE DUP2 SWAP1 PUSH1 0x60 ADD SUB SWAP1 REVERT JUMPDEST DUP10 MLOAD PUSH3 0x461BCD PUSH1 0xE5 SHL DUP2 MSTORE DUP1 DUP9 ADD DUP14 SWAP1 MSTORE PUSH1 0x14 PUSH1 0x24 DUP3 ADD MSTORE PUSH20 0x496E73756666696369656E742062616C616E6365 PUSH1 0x60 SHL PUSH1 0x44 DUP3 ADD MSTORE PUSH1 0x64 SWAP1 REVERT JUMPDEST SWAP1 SWAP9 POP DUP12 DUP2 DUP2 RETURNDATASIZE DUP4 GT PUSH2 0x835 JUMPI JUMPDEST PUSH2 0x821 DUP2 DUP4 PUSH2 0x129E JUMP JUMPDEST DUP2 ADD SUB SLT PUSH2 0x831 JUMPI MLOAD SWAP8 PUSH0 PUSH2 0x62F JUMP JUMPDEST DUP8 DUP1 REVERT JUMPDEST POP RETURNDATASIZE PUSH2 0x817 JUMP JUMPDEST DUP11 MLOAD RETURNDATASIZE DUP11 DUP3 RETURNDATACOPY RETURNDATASIZE SWAP1 REVERT JUMPDEST POP POP CALLVALUE PUSH2 0x335 JUMPI DUP2 PUSH1 0x3 NOT CALLDATASIZE ADD SLT PUSH2 0x335 JUMPI PUSH1 0x2 SLOAD SWAP1 MLOAD PUSH1 0x1 PUSH1 0x1 PUSH1 0xA0 SHL SUB SWAP1 SWAP2 AND DUP2 MSTORE PUSH1 0x20 SWAP1 RETURN JUMPDEST POP POP CALLVALUE PUSH2 0x335 JUMPI CALLDATASIZE PUSH1 0x3 NOT ADD SLT PUSH2 0x48F JUMPI PUSH2 0x888 PUSH2 0x1167 JUMP JUMPDEST PUSH2 0x890 PUSH2 0x1197 JUMP JUMPDEST DUP3 SLOAD PUSH1 0x1 PUSH1 0x1 PUSH1 0xA0 SHL SUB SWAP2 SWAP1 PUSH2 0x8A9 SWAP1 DUP4 AND CALLER EQ PUSH2 0x11DB JUMP JUMPDEST DUP2 PUSH12 0xFFFFFFFFFFFFFFFFFFFFFFFF PUSH1 0xA0 SHL SWAP4 AND DUP4 PUSH1 0x1 SLOAD AND OR PUSH1 0x1 SSTORE AND SWAP1 PUSH1 0x2 SLOAD AND OR PUSH1 0x2 SSTORE DUP1 RETURN JUMPDEST POP POP CALLVALUE PUSH2 0x335 JUMPI DUP2 PUSH1 0x3 NOT CALLDATASIZE ADD SLT PUSH2 0x335 JUMPI PUSH1 0x20 SWAP1 PUSH1 0xFF PUSH1 0xC SLOAD AND SWAP1 MLOAD SWAP1 ISZERO ISZERO DUP2 MSTORE RETURN JUMPDEST DUP4 DUP3 CALLVALUE PUSH2 0x335 JUMPI PUSH1 0x80 CALLDATASIZE PUSH1 0x3 NOT ADD SLT PUSH2 0x335 JUMPI PUSH2 0x911 PUSH2 0x1167 JUMP JUMPDEST SWAP1 PUSH2 0x91A PUSH2 0x1197 JUMP JUMPDEST PUSH1 0x1 PUSH1 0x1 PUSH1 0xA0 SHL SUB SWAP2 PUSH1 0x44 CALLDATALOAD DUP4 DUP2 AND SWAP2 SWAP1 DUP3 SWAP1 SUB PUSH2 0x984 JUMPI DUP4 PUSH2 0x93B PUSH2 0x1181 JUMP JUMPDEST SWAP4 PUSH2 0x94A DUP3 DUP10 SLOAD AND CALLER EQ PUSH2 0x11DB JUMP JUMPDEST DUP2 PUSH12 0xFFFFFFFFFFFFFFFFFFFFFFFF PUSH1 0xA0 SHL SWAP8 AND DUP8 PUSH1 0x3 SLOAD AND OR PUSH1 0x3 SSTORE AND DUP6 DUP3 SLOAD AND OR SWAP1 SSTORE DUP4 PUSH1 0x5 SLOAD AND OR PUSH1 0x5 SSTORE AND SWAP1 PUSH1 0x6 SLOAD AND OR PUSH1 0x6 SSTORE DUP1 RETURN JUMPDEST DUP6 DUP1 REVERT JUMPDEST POP POP CALLVALUE PUSH2 0x335 JUMPI DUP2 PUSH1 0x3 NOT CALLDATASIZE ADD SLT PUSH2 0x335 JUMPI PUSH1 0x20 SWAP1 PUSH1 0x9 SLOAD SWAP1 MLOAD SWAP1 DUP2 MSTORE RETURN JUMPDEST POP POP CALLVALUE PUSH2 0x335 JUMPI DUP2 PUSH1 0x3 NOT CALLDATASIZE ADD SLT PUSH2 0x335 JUMPI PUSH1 0x20 SWAP1 PUSH1 0xA SLOAD SWAP1 MLOAD SWAP1 DUP2 MSTORE RETURN JUMPDEST POP POP CALLVALUE PUSH2 0x335 JUMPI DUP2 PUSH1 0x3 NOT CALLDATASIZE ADD SLT PUSH2 0x335 JUMPI MLOAD PUSH32 0x0 PUSH1 0x1 PUSH1 0x1 PUSH1 0xA0 SHL SUB AND DUP2 MSTORE PUSH1 0x20 SWAP1 RETURN JUMPDEST POP POP CALLVALUE PUSH2 0x335 JUMPI DUP2 PUSH1 0x3 NOT CALLDATASIZE ADD SLT PUSH2 0x335 JUMPI PUSH1 0x1 SLOAD SWAP1 MLOAD PUSH1 0x1 PUSH1 0x1 PUSH1 0xA0 SHL SUB SWAP1 SWAP2 AND DUP2 MSTORE PUSH1 0x20 SWAP1 RETURN JUMPDEST POP CALLVALUE PUSH2 0x20D JUMPI PUSH1 0x20 CALLDATASIZE PUSH1 0x3 NOT ADD SLT PUSH2 0x20D JUMPI DUP1 CALLDATALOAD SWAP1 PUSH2 0xA5C PUSH1 0x1 DUP1 PUSH1 0xA0 SHL SUB DUP6 SLOAD AND CALLER EQ PUSH2 0x11DB JUMP JUMPDEST PUSH2 0x1F4 DUP3 GT PUSH2 0xABA JUMPI POP PUSH32 0x12C9DCCD129FF783F1C8228EACDFA8E334DDECB7EC5C9A79EC662A4AED3D012A SWAP2 DUP2 PUSH1 0x80 SWAP3 PUSH1 0xB SSTORE PUSH1 0xE DUP3 MLOAD SWAP3 DUP1 DUP5 MSTORE DUP4 ADD MSTORE PUSH14 0x6D6178536C697070616765427073 PUSH1 0x90 SHL PUSH1 0x60 DUP4 ADD MSTORE PUSH1 0x20 DUP3 ADD MSTORE LOG1 DUP1 RETURN JUMPDEST PUSH1 0x64 SWAP1 PUSH1 0x20 DUP5 MLOAD SWAP2 PUSH3 0x461BCD PUSH1 0xE5 SHL DUP4 MSTORE DUP3 ADD MSTORE PUSH1 0x6 PUSH1 0x24 DUP3 ADD MSTORE PUSH6 0x4D6178203525 PUSH1 0xD0 SHL PUSH1 0x44 DUP3 ADD MSTORE REVERT JUMPDEST POP SWAP2 SWAP1 CALLVALUE PUSH2 0x335 JUMPI PUSH1 0x20 DUP1 PUSH1 0x3 NOT CALLDATASIZE ADD SLT PUSH2 0x20D JUMPI PUSH2 0xB03 PUSH2 0x1167 JUMP JUMPDEST DUP4 SLOAD PUSH1 0x1 PUSH1 0x1 PUSH1 0xA0 SHL SUB SWAP1 DUP2 AND SWAP6 SWAP2 DUP2 SWAP1 PUSH2 0xB1F CALLER DUP10 EQ PUSH2 0x11DB JUMP JUMPDEST AND SWAP6 DUP5 MLOAD SWAP3 PUSH4 0x70A08231 PUSH1 0xE0 SHL DUP5 MSTORE ADDRESS DUP2 DUP6 ADD MSTORE DUP5 DUP5 PUSH1 0x24 DUP2 DUP12 GAS STATICCALL SWAP4 DUP5 ISZERO PUSH2 0xC87 JUMPI DUP8 SWAP5 PUSH2 0xC54 JUMPI JUMPDEST POP DUP4 ISZERO PUSH2 0xC24 JUMPI DUP6 MLOAD PUSH4 0xA9059CBB PUSH1 0xE0 SHL DUP2 MSTORE PUSH1 0x1 PUSH1 0x1 PUSH1 0xA0 SHL SUB SWAP1 SWAP3 AND SWAP1 DUP3 ADD SWAP1 DUP2 MSTORE PUSH1 0x20 DUP2 ADD DUP5 SWAP1 MSTORE SWAP6 SWAP7 SWAP5 SWAP6 SWAP1 SWAP5 DUP5 SWAP2 DUP7 SWAP2 SWAP1 DUP3 SWAP1 DUP11 SWAP1 DUP3 SWAP1 PUSH1 0x40 ADD SUB SWAP3 GAS CALL DUP1 ISZERO PUSH2 0xC1A JUMPI PUSH2 0xBC6 JUMPI JUMPDEST PUSH32 0x16E128B6BDADD9E9068ABD0B18DB2FC8B27ED3DBCED50E4AA6CC0A6934251AB SWAP4 POP DUP6 SLOAD AND SWAP4 MLOAD SWAP1 DUP2 MSTORE LOG2 DUP1 RETURN JUMPDEST DUP3 DUP5 DUP2 RETURNDATASIZE DUP4 GT PUSH2 0xC13 JUMPI JUMPDEST PUSH2 0xBDB DUP2 DUP4 PUSH2 0x129E JUMP JUMPDEST DUP2 ADD SUB SLT PUSH2 0x984 JUMPI PUSH2 0xC0D PUSH32 0x16E128B6BDADD9E9068ABD0B18DB2FC8B27ED3DBCED50E4AA6CC0A6934251AB SWAP5 PUSH2 0x138A JUMP JUMPDEST POP PUSH2 0xB97 JUMP JUMPDEST POP RETURNDATASIZE PUSH2 0xBD1 JUMP JUMPDEST DUP6 MLOAD RETURNDATASIZE DUP9 DUP3 RETURNDATACOPY RETURNDATASIZE SWAP1 REVERT JUMPDEST DUP6 MLOAD PUSH3 0x461BCD PUSH1 0xE5 SHL DUP2 MSTORE SWAP1 DUP2 ADD DUP6 SWAP1 MSTORE PUSH1 0xA PUSH1 0x24 DUP3 ADD MSTORE PUSH10 0x4E6F2062616C616E6365 PUSH1 0xB0 SHL PUSH1 0x44 DUP3 ADD MSTORE PUSH1 0x64 SWAP1 REVERT JUMPDEST SWAP1 SWAP4 POP DUP5 DUP2 DUP2 RETURNDATASIZE DUP4 GT PUSH2 0xC80 JUMPI JUMPDEST PUSH2 0xC6C DUP2 DUP4 PUSH2 0x129E JUMP JUMPDEST DUP2 ADD SUB SLT PUSH2 0xC7C JUMPI MLOAD SWAP3 PUSH0 PUSH2 0xB49 JUMP JUMPDEST DUP7 DUP1 REVERT JUMPDEST POP RETURNDATASIZE PUSH2 0xC62 JUMP JUMPDEST DUP7 MLOAD RETURNDATASIZE DUP10 DUP3 RETURNDATACOPY RETURNDATASIZE SWAP1 REVERT JUMPDEST POP SWAP2 CALLVALUE PUSH2 0x48F JUMPI PUSH1 0xA0 CALLDATASIZE PUSH1 0x3 NOT ADD SLT PUSH2 0x48F JUMPI PUSH2 0xCAC PUSH2 0x1167 JUMP JUMPDEST SWAP3 PUSH1 0x24 CALLDATALOAD PUSH2 0xCB8 PUSH2 0x1181 JUMP JUMPDEST SWAP2 PUSH1 0x84 CALLDATALOAD SWAP4 PUSH8 0xFFFFFFFFFFFFFFFF SWAP5 DUP6 DUP2 GT PUSH2 0x335 JUMPI PUSH2 0xCDB SWAP1 CALLDATASIZE SWAP1 DUP5 ADD PUSH2 0x11AD JUMP JUMPDEST SWAP8 PUSH32 0x0 SWAP6 PUSH1 0x1 PUSH1 0x1 PUSH1 0xA0 SHL SUB SWAP1 DUP2 DUP9 AND CALLER SUB PUSH2 0x1071 JUMPI DUP2 ADDRESS SWAP2 AND SUB PUSH2 0x103A JUMPI DUP2 AND SWAP7 DUP9 MLOAD SWAP10 PUSH4 0x70A08231 PUSH1 0xE0 SHL DUP12 MSTORE ADDRESS DUP7 DUP13 ADD MSTORE PUSH1 0x20 SWAP11 DUP12 DUP2 PUSH1 0x24 DUP2 DUP14 GAS STATICCALL DUP1 ISZERO PUSH2 0x1030 JUMPI SWAP1 DUP13 SWAP2 PUSH2 0x1007 JUMPI JUMPDEST POP POP DUP4 ADD SWAP1 DUP10 DUP5 DUP4 SUB SLT PUSH2 0x331 JUMPI DUP4 CALLDATALOAD SWAP4 PUSH1 0xFF DUP6 AND DUP1 SWAP6 SUB PUSH2 0x984 JUMPI DUP12 DUP2 ADD CALLDATALOAD SWAP2 DUP3 GT PUSH2 0x984 JUMPI ADD DUP2 PUSH1 0x1F DUP3 ADD SLT ISZERO PUSH2 0x331 JUMPI DUP7 SWAP2 DUP2 DUP13 PUSH2 0xD8A SWAP4 CALLDATALOAD SWAP2 ADD PUSH2 0x12C0 JUMP JUMPDEST SWAP2 PUSH1 0x1 DUP5 SUB PUSH2 0xF9A JUMPI PUSH2 0xD9D SWAP4 POP PUSH2 0x1425 JUMP JUMPDEST POP JUMPDEST DUP6 MLOAD PUSH4 0x70A08231 PUSH1 0xE0 SHL DUP2 MSTORE ADDRESS DUP4 DUP3 ADD MSTORE SWAP1 DUP8 DUP3 PUSH1 0x24 DUP2 DUP10 GAS STATICCALL SWAP2 DUP3 ISZERO PUSH2 0xF1C JUMPI DUP2 SWAP3 PUSH2 0xF6B JUMPI JUMPDEST POP PUSH1 0x44 CALLDATALOAD SWAP5 PUSH2 0xDD6 DUP7 DUP7 PUSH2 0x1306 JUMP JUMPDEST SWAP3 DUP4 DUP2 LT PUSH2 0xF28 JUMPI SWAP1 PUSH2 0xDEA DUP5 DUP12 SWAP4 PUSH2 0x1327 JUMP JUMPDEST SWAP5 PUSH2 0xE06 PUSH2 0x2710 PUSH2 0xDFD PUSH1 0xA SLOAD DUP11 PUSH2 0x1334 JUMP JUMPDEST DIV DUP8 LT ISZERO PUSH2 0x1347 JUMP JUMPDEST DUP10 MLOAD PUSH4 0x95EA7B3 PUSH1 0xE0 SHL DUP2 MSTORE PUSH1 0x1 PUSH1 0x1 PUSH1 0xA0 SHL SUB SWAP1 SWAP3 AND SWAP1 DUP3 ADD SWAP1 DUP2 MSTORE PUSH1 0x20 DUP2 ADD SWAP5 SWAP1 SWAP5 MSTORE SWAP3 DUP4 SWAP1 DUP2 SWAP1 PUSH1 0x40 ADD SUB DUP2 DUP5 DUP11 GAS CALL DUP1 ISZERO PUSH2 0xF1C JUMPI PUSH2 0xEBE JUMPI JUMPDEST POP POP SWAP1 PUSH2 0xEB4 PUSH32 0xE03A36D920AD8DE5A978A8F1917280E202AE9193E6DC19E08EF1F6C2A051EBA4 SWAP4 SWAP3 PUSH2 0xE78 PUSH1 0x7 SLOAD PUSH2 0x1397 JUMP JUMPDEST PUSH1 0x7 SSTORE PUSH2 0xE87 DUP2 PUSH1 0x8 SLOAD PUSH2 0x1306 JUMP JUMPDEST PUSH1 0x8 SSTORE PUSH2 0xE95 PUSH1 0x9 SLOAD PUSH2 0x1397 JUMP JUMPDEST PUSH1 0x9 SSTORE DUP7 MLOAD SWAP4 DUP5 SWAP4 DUP5 PUSH1 0x40 SWAP2 SWAP5 SWAP4 SWAP3 PUSH1 0x60 DUP3 ADD SWAP6 DUP3 MSTORE PUSH1 0x20 DUP3 ADD MSTORE ADD MSTORE JUMP JUMPDEST SUB SWAP1 LOG2 MLOAD PUSH1 0x1 DUP2 MSTORE RETURN JUMPDEST DUP8 DUP3 DUP2 RETURNDATASIZE DUP4 GT PUSH2 0xF15 JUMPI JUMPDEST PUSH2 0xED3 DUP2 DUP4 PUSH2 0x129E JUMP JUMPDEST DUP2 ADD SUB SLT PUSH2 0x48F JUMPI POP PUSH32 0xE03A36D920AD8DE5A978A8F1917280E202AE9193E6DC19E08EF1F6C2A051EBA4 SWAP4 SWAP3 SWAP2 PUSH2 0xF0C PUSH2 0xEB4 SWAP3 PUSH2 0x138A JUMP JUMPDEST POP SWAP2 SWAP3 SWAP4 PUSH2 0xE44 JUMP JUMPDEST POP RETURNDATASIZE PUSH2 0xEC9 JUMP JUMPDEST POP DUP7 MLOAD SWAP1 RETURNDATASIZE SWAP1 DUP3 RETURNDATACOPY RETURNDATASIZE SWAP1 REVERT JUMPDEST DUP9 MLOAD PUSH3 0x461BCD PUSH1 0xE5 SHL DUP2 MSTORE DUP1 DUP7 ADD DUP12 SWAP1 MSTORE PUSH1 0x1B PUSH1 0x24 DUP3 ADD MSTORE PUSH32 0x496E73756666696369656E742066756E647320746F2072657061790000000000 PUSH1 0x44 DUP3 ADD MSTORE PUSH1 0x64 SWAP1 REVERT JUMPDEST SWAP1 SWAP2 POP DUP8 DUP2 DUP2 RETURNDATASIZE DUP4 GT PUSH2 0xF93 JUMPI JUMPDEST PUSH2 0xF83 DUP2 DUP4 PUSH2 0x129E JUMP JUMPDEST DUP2 ADD SUB SLT PUSH2 0x335 JUMPI MLOAD SWAP1 PUSH0 PUSH2 0xDC7 JUMP JUMPDEST POP RETURNDATASIZE PUSH2 0xF79 JUMP JUMPDEST PUSH1 0x2 DUP5 SUB PUSH2 0xFB2 JUMPI PUSH2 0xFAC SWAP4 POP PUSH2 0x1833 JUMP JUMPDEST POP PUSH2 0xD9F JUMP JUMPDEST SWAP2 SWAP3 PUSH1 0x3 EQ ISZERO SWAP1 POP PUSH2 0xFC9 JUMPI SWAP1 DUP5 PUSH2 0xFAC SWAP3 PUSH2 0x1E5B JUMP JUMPDEST DUP8 MLOAD PUSH3 0x461BCD PUSH1 0xE5 SHL DUP2 MSTORE PUSH1 0x20 DUP2 DUP7 ADD DUP2 DUP2 MSTORE PUSH1 0x10 SWAP2 DUP2 ADD SWAP2 SWAP1 SWAP2 MSTORE PUSH16 0x496E76616C6964207374726174656779 PUSH1 0x80 SHL PUSH1 0x40 DUP3 ADD MSTORE DUP2 SWAP1 PUSH1 0x60 ADD SUB SWAP1 REVERT JUMPDEST DUP2 RETURNDATASIZE DUP4 GT PUSH2 0x1029 JUMPI JUMPDEST PUSH2 0x101A DUP2 DUP4 PUSH2 0x129E JUMP JUMPDEST DUP2 ADD SUB SLT PUSH2 0x331 JUMPI DUP11 PUSH0 PUSH2 0xD47 JUMP JUMPDEST POP RETURNDATASIZE PUSH2 0x1010 JUMP JUMPDEST DUP12 MLOAD RETURNDATASIZE DUP9 DUP3 RETURNDATACOPY RETURNDATASIZE SWAP1 REVERT JUMPDEST DUP9 MLOAD PUSH3 0x461BCD PUSH1 0xE5 SHL DUP2 MSTORE PUSH1 0x20 DUP2 DUP8 ADD MSTORE PUSH1 0x11 PUSH1 0x24 DUP3 ADD MSTORE PUSH17 0x24B73B30B634B21034B734BA34B0BA37B9 PUSH1 0x79 SHL PUSH1 0x44 DUP3 ADD MSTORE PUSH1 0x64 SWAP1 REVERT JUMPDEST DUP10 MLOAD PUSH3 0x461BCD PUSH1 0xE5 SHL DUP2 MSTORE PUSH1 0x20 DUP2 DUP9 ADD MSTORE PUSH1 0xE PUSH1 0x24 DUP3 ADD MSTORE PUSH14 0x13DB9B1E4810585D9948141BDBDB PUSH1 0x92 SHL PUSH1 0x44 DUP3 ADD MSTORE PUSH1 0x64 SWAP1 REVERT JUMPDEST DUP4 DUP3 CALLVALUE PUSH2 0x335 JUMPI PUSH1 0x20 CALLDATASIZE PUSH1 0x3 NOT ADD SLT PUSH2 0x335 JUMPI CALLDATALOAD DUP1 ISZERO ISZERO DUP1 SWAP2 SUB PUSH2 0x335 JUMPI PUSH2 0x10D7 PUSH1 0x1 DUP1 PUSH1 0xA0 SHL SUB DUP4 SLOAD AND CALLER EQ PUSH2 0x11DB JUMP JUMPDEST PUSH1 0xFF DUP1 NOT PUSH1 0xC SLOAD AND SWAP2 AND OR PUSH1 0xC SSTORE DUP1 RETURN JUMPDEST POP POP CALLVALUE PUSH2 0x335 JUMPI DUP2 PUSH1 0x3 NOT CALLDATASIZE ADD SLT PUSH2 0x335 JUMPI PUSH1 0x20 SWAP1 PUSH1 0x7 SLOAD SWAP1 MLOAD SWAP1 DUP2 MSTORE RETURN JUMPDEST POP POP CALLVALUE PUSH2 0x335 JUMPI DUP2 PUSH1 0x3 NOT CALLDATASIZE ADD SLT PUSH2 0x335 JUMPI MLOAD PUSH32 0x0 PUSH1 0x1 PUSH1 0x1 PUSH1 0xA0 SHL SUB AND DUP2 MSTORE PUSH1 0x20 SWAP1 RETURN JUMPDEST DUP5 SWAP1 CALLVALUE PUSH2 0x335 JUMPI DUP2 PUSH1 0x3 NOT CALLDATASIZE ADD SLT PUSH2 0x335 JUMPI PUSH1 0x20 SWAP1 PUSH1 0x8 SLOAD DUP2 MSTORE RETURN JUMPDEST PUSH1 0x4 CALLDATALOAD SWAP1 PUSH1 0x1 PUSH1 0x1 PUSH1 0xA0 SHL SUB DUP3 AND DUP3 SUB PUSH2 0x117D JUMPI JUMP JUMPDEST PUSH0 DUP1 REVERT JUMPDEST PUSH1 0x64 CALLDATALOAD SWAP1 PUSH1 0x1 PUSH1 0x1 PUSH1 0xA0 SHL SUB DUP3 AND DUP3 SUB PUSH2 0x117D JUMPI JUMP JUMPDEST PUSH1 0x24 CALLDATALOAD SWAP1 PUSH1 0x1 PUSH1 0x1 PUSH1 0xA0 SHL SUB DUP3 AND DUP3 SUB PUSH2 0x117D JUMPI JUMP JUMPDEST SWAP2 DUP2 PUSH1 0x1F DUP5 ADD SLT ISZERO PUSH2 0x117D JUMPI DUP3 CALLDATALOAD SWAP2 PUSH8 0xFFFFFFFFFFFFFFFF DUP4 GT PUSH2 0x117D JUMPI PUSH1 0x20 DUP4 DUP2 DUP7 ADD SWAP6 ADD ADD GT PUSH2 0x117D JUMPI JUMP JUMPDEST ISZERO PUSH2 0x11E2 JUMPI JUMP JUMPDEST PUSH1 0x40 MLOAD PUSH3 0x461BCD PUSH1 0xE5 SHL DUP2 MSTORE PUSH1 0x20 PUSH1 0x4 DUP3 ADD MSTORE PUSH1 0xA PUSH1 0x24 DUP3 ADD MSTORE PUSH10 0x27B7363C9037BBB732B9 PUSH1 0xB1 SHL PUSH1 0x44 DUP3 ADD MSTORE PUSH1 0x64 SWAP1 REVERT JUMPDEST ISZERO PUSH2 0x121B JUMPI JUMP JUMPDEST PUSH1 0x40 MLOAD PUSH3 0x461BCD PUSH1 0xE5 SHL DUP2 MSTORE PUSH1 0x20 PUSH1 0x4 DUP3 ADD MSTORE PUSH1 0xF PUSH1 0x24 DUP3 ADD MSTORE PUSH15 0x10DBDB9D1C9858DD081C185D5CD959 PUSH1 0x8A SHL PUSH1 0x44 DUP3 ADD MSTORE PUSH1 0x64 SWAP1 REVERT JUMPDEST PUSH1 0xE0 DUP2 ADD SWAP1 DUP2 LT PUSH8 0xFFFFFFFFFFFFFFFF DUP3 GT OR PUSH2 0x126E JUMPI PUSH1 0x40 MSTORE JUMP JUMPDEST PUSH4 0x4E487B71 PUSH1 0xE0 SHL PUSH0 MSTORE PUSH1 0x41 PUSH1 0x4 MSTORE PUSH1 0x24 PUSH0 REVERT JUMPDEST PUSH1 0x60 DUP2 ADD SWAP1 DUP2 LT PUSH8 0xFFFFFFFFFFFFFFFF DUP3 GT OR PUSH2 0x126E JUMPI PUSH1 0x40 MSTORE JUMP JUMPDEST SWAP1 PUSH1 0x1F DUP1 NOT SWAP2 ADD AND DUP2 ADD SWAP1 DUP2 LT PUSH8 0xFFFFFFFFFFFFFFFF DUP3 GT OR PUSH2 0x126E JUMPI PUSH1 0x40 MSTORE JUMP JUMPDEST SWAP3 SWAP2 SWAP3 PUSH8 0xFFFFFFFFFFFFFFFF DUP3 GT PUSH2 0x126E JUMPI PUSH1 0x40 MLOAD SWAP2 PUSH2 0x12EA PUSH1 0x1F DUP3 ADD PUSH1 0x1F NOT AND PUSH1 0x20 ADD DUP5 PUSH2 0x129E JUMP JUMPDEST DUP3 SWAP5 DUP2 DUP5 MSTORE DUP2 DUP4 ADD GT PUSH2 0x117D JUMPI DUP3 DUP2 PUSH1 0x20 SWAP4 DUP5 PUSH0 SWAP7 ADD CALLDATACOPY ADD ADD MSTORE JUMP JUMPDEST SWAP2 SWAP1 DUP3 ADD DUP1 SWAP3 GT PUSH2 0x1313 JUMPI JUMP JUMPDEST PUSH4 0x4E487B71 PUSH1 0xE0 SHL PUSH0 MSTORE PUSH1 0x11 PUSH1 0x4 MSTORE PUSH1 0x24 PUSH0 REVERT JUMPDEST SWAP2 SWAP1 DUP3 SUB SWAP2 DUP3 GT PUSH2 0x1313 JUMPI JUMP JUMPDEST DUP2 DUP2 MUL SWAP3 SWAP2 DUP2 ISZERO SWAP2 DUP5 DIV EQ OR ISZERO PUSH2 0x1313 JUMPI JUMP JUMPDEST ISZERO PUSH2 0x134E JUMPI JUMP JUMPDEST PUSH1 0x40 MLOAD PUSH3 0x461BCD PUSH1 0xE5 SHL DUP2 MSTORE PUSH1 0x20 PUSH1 0x4 DUP3 ADD MSTORE PUSH1 0x14 PUSH1 0x24 DUP3 ADD MSTORE PUSH20 0x50726F6669742062656C6F77206D696E696D756D PUSH1 0x60 SHL PUSH1 0x44 DUP3 ADD MSTORE PUSH1 0x64 SWAP1 REVERT JUMPDEST MLOAD SWAP1 DUP2 ISZERO ISZERO DUP3 SUB PUSH2 0x117D JUMPI JUMP JUMPDEST PUSH0 NOT DUP2 EQ PUSH2 0x1313 JUMPI PUSH1 0x1 ADD SWAP1 JUMP JUMPDEST MLOAD SWAP1 PUSH1 0x1 PUSH1 0x1 PUSH1 0xA0 SHL SUB DUP3 AND DUP3 SUB PUSH2 0x117D JUMPI JUMP JUMPDEST MLOAD SWAP1 PUSH3 0xFFFFFF DUP3 AND DUP3 SUB PUSH2 0x117D JUMPI JUMP JUMPDEST SWAP2 SWAP1 SWAP2 PUSH1 0xC0 PUSH1 0xE0 DUP3 ADD SWAP4 DUP2 PUSH1 0x1 DUP1 PUSH1 0xA0 SHL SUB SWAP2 DUP3 DUP2 MLOAD AND DUP6 MSTORE DUP3 PUSH1 0x20 DUP3 ADD MLOAD AND PUSH1 0x20 DUP7 ADD MSTORE PUSH3 0xFFFFFF PUSH1 0x40 DUP3 ADD MLOAD AND PUSH1 0x40 DUP7 ADD MSTORE DUP3 PUSH1 0x60 DUP3 ADD MLOAD AND PUSH1 0x60 DUP7 ADD MSTORE PUSH1 0x80 DUP2 ADD MLOAD PUSH1 0x80 DUP7 ADD MSTORE PUSH1 0xA0 DUP2 ADD MLOAD PUSH1 0xA0 DUP7 ADD MSTORE ADD MLOAD AND SWAP2 ADD MSTORE JUMP JUMPDEST SWAP1 SWAP3 SWAP2 SWAP3 PUSH1 0x60 DUP5 DUP1 MLOAD DUP2 ADD SUB SLT PUSH2 0x117D JUMPI PUSH1 0x20 SWAP2 PUSH2 0x1444 DUP4 DUP7 ADD PUSH2 0x13A5 JUMP JUMPDEST SWAP1 PUSH1 0x40 SWAP2 PUSH2 0x145F PUSH1 0x60 PUSH2 0x1458 DUP6 DUP11 ADD PUSH2 0x13B9 JUMP JUMPDEST SWAP9 ADD PUSH2 0x13B9 JUMP JUMPDEST PUSH1 0x1 SLOAD DUP5 MLOAD PUSH4 0x95EA7B3 PUSH1 0xE0 SHL DUP1 DUP3 MSTORE PUSH1 0x1 PUSH1 0x1 PUSH1 0xA0 SHL SUB SWAP3 DUP4 AND PUSH1 0x4 DUP4 ADD MSTORE PUSH1 0x24 DUP3 ADD DUP9 SWAP1 MSTORE PUSH0 SWAP11 SWAP5 DUP4 AND SWAP6 DUP4 AND SWAP5 SWAP1 SWAP4 SWAP1 SWAP2 DUP10 DUP2 PUSH1 0x44 DUP2 DUP16 DUP11 GAS CALL DUP1 ISZERO PUSH2 0x172C JUMPI PUSH2 0x16F4 JUMPI JUMPDEST POP DUP3 PUSH1 0x1 SLOAD AND SWAP3 DUP12 DUP9 MLOAD SWAP6 PUSH2 0x14BB DUP8 PUSH2 0x1252 JUMP JUMPDEST DUP8 DUP8 MSTORE DUP9 DUP13 DUP9 ADD MSTORE PUSH3 0xFFFFFF DUP1 SWAP6 AND DUP11 DUP9 ADD MSTORE ADDRESS PUSH1 0x60 DUP9 ADD MSTORE DUP11 PUSH1 0x80 DUP9 ADD MSTORE DUP2 PUSH1 0xA0 DUP9 ADD MSTORE DUP2 PUSH1 0xC0 DUP9 ADD MSTORE DUP12 DUP11 MLOAD DUP1 SWAP8 DUP2 DUP6 DUP2 PUSH2 0x1506 PUSH4 0x4E45AAF PUSH1 0xE0 SHL SWAP14 DUP15 DUP4 MSTORE PUSH1 0x4 DUP4 ADD PUSH2 0x13C9 JUMP JUMPDEST SUB SWAP3 GAS CALL SWAP6 DUP7 ISZERO PUSH2 0x16EA JUMPI SWAP1 DUP3 SWAP2 DUP14 SWAP4 SWAP8 PUSH2 0x16B7 JUMPI JUMPDEST POP PUSH1 0x1 SLOAD DUP12 MLOAD SWAP2 DUP3 MSTORE DUP5 AND PUSH1 0x1 PUSH1 0x1 PUSH1 0xA0 SHL SUB AND PUSH1 0x4 DUP3 ADD MSTORE PUSH1 0x24 DUP2 ADD DUP8 SWAP1 MSTORE SWAP2 SWAP1 DUP3 SWAP1 DUP2 DUP1 PUSH1 0x44 DUP2 ADD JUMPDEST SUB SWAP2 DUP13 GAS CALL DUP1 ISZERO PUSH2 0x16AD JUMPI PUSH2 0x165F JUMPI JUMPDEST POP SWAP2 DUP10 SWAP6 SWAP4 SWAP2 PUSH2 0x15AC SWAP12 SWAP13 SWAP8 SWAP6 SWAP4 PUSH1 0x1 SLOAD AND SWAP5 DUP10 MLOAD SWAP7 PUSH2 0x1576 DUP9 PUSH2 0x1252 JUMP JUMPDEST DUP8 MSTORE DUP8 DUP8 ADD MSTORE AND DUP8 DUP6 ADD MSTORE ADDRESS PUSH1 0x60 DUP6 ADD MSTORE PUSH1 0x80 DUP5 ADD MSTORE DUP7 PUSH1 0xA0 DUP5 ADD MSTORE DUP5 PUSH1 0xC0 DUP5 ADD MSTORE DUP5 DUP7 MLOAD DUP1 SWAP11 DUP2 SWAP6 DUP3 SWAP5 DUP4 MSTORE PUSH1 0x4 DUP4 ADD PUSH2 0x13C9 JUMP JUMPDEST SUB SWAP3 GAS CALL SWAP5 DUP6 ISZERO PUSH2 0x1653 JUMPI DUP2 SWAP6 PUSH2 0x1621 JUMPI JUMPDEST POP SWAP2 DUP5 PUSH0 DUP1 MLOAD PUSH1 0x20 PUSH2 0x2304 DUP4 CODECOPY DUP2 MLOAD SWAP2 MSTORE SWAP5 SWAP3 DUP5 PUSH1 0xC0 SWAP6 POP DUP4 DUP4 GT PUSH0 EQ PUSH2 0x161B JUMPI POP PUSH2 0x15EA DUP4 DUP4 PUSH2 0x1327 JUMP JUMPDEST SWAP3 JUMPDEST DUP2 MLOAD SWAP5 PUSH1 0x80 DUP7 MSTORE PUSH1 0x9 PUSH1 0x80 DUP8 ADD MSTORE PUSH9 0x929CA8A482BE888AB PUSH1 0xBB SHL PUSH1 0xA0 DUP8 ADD MSTORE DUP6 ADD MSTORE DUP4 ADD MSTORE PUSH1 0x60 DUP3 ADD MSTORE LOG1 SWAP1 JUMP JUMPDEST SWAP3 PUSH2 0x15EC JUMP JUMPDEST SWAP1 SWAP2 SWAP5 POP DUP4 DUP2 DUP2 RETURNDATASIZE DUP4 GT PUSH2 0x164C JUMPI JUMPDEST PUSH2 0x163A DUP2 DUP4 PUSH2 0x129E JUMP JUMPDEST DUP2 ADD SUB SLT PUSH2 0x335 JUMPI MLOAD SWAP4 SWAP1 PUSH1 0xC0 PUSH2 0x15BE JUMP JUMPDEST POP RETURNDATASIZE PUSH2 0x1630 JUMP JUMPDEST POP SWAP1 MLOAD SWAP1 RETURNDATASIZE SWAP1 DUP3 RETURNDATACOPY RETURNDATASIZE SWAP1 REVERT JUMPDEST DUP11 DUP2 DUP2 RETURNDATASIZE DUP4 GT PUSH2 0x16A6 JUMPI JUMPDEST PUSH2 0x1674 DUP2 DUP4 PUSH2 0x129E JUMP JUMPDEST DUP2 ADD SUB SLT PUSH2 0x16A2 JUMPI SWAP2 PUSH2 0x15AC SWAP12 SWAP13 SWAP8 SWAP6 SWAP4 SWAP2 PUSH2 0x1692 DUP13 SWAP9 SWAP7 SWAP5 PUSH2 0x138A JUMP JUMPDEST POP SWAP2 SWAP4 SWAP6 SWAP8 SWAP13 SWAP12 POP SWAP2 SWAP4 SWAP6 PUSH2 0x1557 JUMP JUMPDEST DUP13 DUP1 REVERT JUMPDEST POP RETURNDATASIZE PUSH2 0x166A JUMP JUMPDEST DUP10 MLOAD RETURNDATASIZE DUP16 DUP3 RETURNDATACOPY RETURNDATASIZE SWAP1 REVERT JUMPDEST SWAP2 SWAP7 POP SWAP2 DUP2 DUP2 RETURNDATASIZE DUP2 GT PUSH2 0x16E3 JUMPI JUMPDEST PUSH2 0x16CF DUP2 DUP4 PUSH2 0x129E JUMP JUMPDEST DUP2 ADD SUB SLT PUSH2 0x984 JUMPI MLOAD SWAP5 DUP12 SWAP2 PUSH2 0x1547 PUSH2 0x151C JUMP JUMPDEST POP RETURNDATASIZE PUSH2 0x16C5 JUMP JUMPDEST DUP11 MLOAD RETURNDATASIZE DUP5 DUP3 RETURNDATACOPY RETURNDATASIZE SWAP1 REVERT JUMPDEST DUP10 DUP2 DUP2 RETURNDATASIZE DUP4 GT PUSH2 0x1725 JUMPI JUMPDEST PUSH2 0x1709 DUP2 DUP4 PUSH2 0x129E JUMP JUMPDEST DUP2 ADD SUB SLT PUSH2 0x1721 JUMPI PUSH2 0x171A SWAP1 PUSH2 0x138A JUMP JUMPDEST POP PUSH0 PUSH2 0x14A7 JUMP JUMPDEST DUP12 DUP1 REVERT JUMPDEST POP RETURNDATASIZE PUSH2 0x16FF JUMP JUMPDEST DUP9 MLOAD RETURNDATASIZE DUP15 DUP3 RETURNDATACOPY RETURNDATASIZE SWAP1 REVERT JUMPDEST DUP1 MLOAD ISZERO PUSH2 0x1743 JUMPI PUSH1 0x20 ADD SWAP1 JUMP JUMPDEST PUSH4 0x4E487B71 PUSH1 0xE0 SHL PUSH0 MSTORE PUSH1 0x32 PUSH1 0x4 MSTORE PUSH1 0x24 PUSH0 REVERT JUMPDEST DUP1 MLOAD PUSH1 0x1 LT ISZERO PUSH2 0x1743 JUMPI PUSH1 0x40 ADD SWAP1 JUMP JUMPDEST DUP1 MLOAD DUP3 LT ISZERO PUSH2 0x1743 JUMPI PUSH1 0x20 SWAP2 PUSH1 0x5 SHL ADD ADD SWAP1 JUMP JUMPDEST SWAP1 PUSH1 0x20 SWAP1 DUP2 DUP4 DUP3 SUB SLT PUSH2 0x117D JUMPI DUP3 MLOAD PUSH8 0xFFFFFFFFFFFFFFFF SWAP4 DUP5 DUP3 GT PUSH2 0x117D JUMPI ADD DUP2 PUSH1 0x1F DUP3 ADD SLT ISZERO PUSH2 0x117D JUMPI DUP1 MLOAD SWAP4 DUP5 GT PUSH2 0x126E JUMPI DUP4 PUSH1 0x5 SHL SWAP1 PUSH1 0x40 MLOAD SWAP5 PUSH2 0x17C5 DUP6 DUP5 ADD DUP8 PUSH2 0x129E JUMP JUMPDEST DUP6 MSTORE DUP4 DUP1 DUP7 ADD SWAP3 DUP3 ADD ADD SWAP3 DUP4 GT PUSH2 0x117D JUMPI DUP4 ADD SWAP1 JUMPDEST DUP3 DUP3 LT PUSH2 0x17E8 JUMPI POP POP POP POP SWAP1 JUMP JUMPDEST DUP2 MLOAD DUP2 MSTORE SWAP1 DUP4 ADD SWAP1 DUP4 ADD PUSH2 0x17DA JUMP JUMPDEST SWAP1 DUP2 MLOAD DUP1 DUP3 MSTORE PUSH1 0x20 DUP1 DUP1 SWAP4 ADD SWAP4 ADD SWAP2 PUSH0 JUMPDEST DUP3 DUP2 LT PUSH2 0x1816 JUMPI POP POP POP POP SWAP1 JUMP JUMPDEST DUP4 MLOAD PUSH1 0x1 PUSH1 0x1 PUSH1 0xA0 SHL SUB AND DUP6 MSTORE SWAP4 DUP2 ADD SWAP4 SWAP3 DUP2 ADD SWAP3 PUSH1 0x1 ADD PUSH2 0x1808 JUMP JUMPDEST SWAP2 SWAP1 PUSH1 0x60 DUP3 DUP1 MLOAD DUP2 ADD SUB SLT PUSH2 0x117D JUMPI PUSH1 0x20 SWAP2 PUSH2 0x1850 DUP4 DUP3 ADD PUSH2 0x13A5 JUMP JUMPDEST SWAP4 PUSH1 0x40 SWAP5 PUSH2 0x186B PUSH1 0x60 PUSH2 0x1864 DUP9 DUP7 ADD PUSH2 0x13B9 JUMP JUMPDEST SWAP5 ADD PUSH2 0x138A JUMP JUMPDEST PUSH1 0x1 PUSH1 0x1 PUSH1 0xA0 SHL SUB SWAP2 DUP3 AND SWAP3 SWAP1 PUSH0 SWAP1 ISZERO PUSH2 0x1B94 JUMPI POP PUSH1 0x1 SLOAD DUP8 MLOAD PUSH4 0x95EA7B3 PUSH1 0xE0 SHL DUP1 DUP3 MSTORE SWAP2 DUP5 AND PUSH1 0x1 PUSH1 0x1 PUSH1 0xA0 SHL SUB AND PUSH1 0x4 DUP1 DUP4 ADD SWAP2 SWAP1 SWAP2 MSTORE PUSH1 0x24 DUP3 ADD DUP9 SWAP1 MSTORE SWAP6 SWAP3 DUP5 AND SWAP3 SWAP1 DUP9 DUP2 PUSH1 0x44 DUP2 PUSH0 DUP9 GAS CALL DUP1 ISZERO PUSH2 0x1B8A JUMPI SWAP1 DUP10 SWAP7 SWAP6 SWAP5 SWAP4 SWAP3 SWAP2 PUSH2 0x1B4E JUMPI JUMPDEST POP SWAP5 PUSH2 0x192A PUSH0 SWAP7 DUP6 PUSH1 0x1 SLOAD AND SWAP1 PUSH3 0xFFFFFF DUP14 MLOAD SWAP2 PUSH2 0x18EB DUP4 PUSH2 0x1252 JUMP JUMPDEST DUP8 DUP4 MSTORE DUP10 DUP7 DUP5 ADD MSTORE AND DUP14 DUP3 ADD MSTORE ADDRESS PUSH1 0x60 DUP3 ADD MSTORE DUP11 PUSH1 0x80 DUP3 ADD MSTORE DUP9 PUSH1 0xA0 DUP3 ADD MSTORE DUP9 PUSH1 0xC0 DUP3 ADD MSTORE DUP13 MLOAD SWAP9 DUP10 DUP1 SWAP5 DUP2 SWAP4 PUSH4 0x4E45AAF PUSH1 0xE0 SHL DUP4 MSTORE DUP14 DUP4 ADD PUSH2 0x13C9 JUMP JUMPDEST SUB SWAP3 GAS CALL SWAP5 DUP6 ISZERO PUSH2 0x1B0C JUMPI SWAP1 DUP9 SWAP2 PUSH0 SWAP7 PUSH2 0x1B16 JUMPI JUMPDEST POP PUSH1 0x2 SLOAD DUP11 MLOAD SWAP2 DUP3 MSTORE DUP5 AND PUSH1 0x1 PUSH1 0x1 PUSH1 0xA0 SHL SUB AND DUP8 DUP3 ADD SWAP1 DUP2 MSTORE PUSH1 0x20 DUP2 ADD DUP8 SWAP1 MSTORE SWAP1 SWAP2 SWAP1 DUP3 SWAP1 DUP2 SWAP1 PUSH1 0x40 ADD SUB DUP2 PUSH0 DUP9 GAS CALL DUP1 ISZERO PUSH2 0x1B0C JUMPI PUSH2 0x1AD8 JUMPI JUMPDEST POP DUP8 MLOAD SWAP3 PUSH2 0x1988 DUP5 PUSH2 0x1282 JUMP JUMPDEST PUSH1 0x2 DUP5 MSTORE DUP9 CALLDATASIZE DUP10 DUP7 ADD CALLDATACOPY PUSH2 0x199B DUP5 PUSH2 0x1736 JUMP JUMPDEST MSTORE PUSH2 0x19A5 DUP4 PUSH2 0x1757 JUMP JUMPDEST MSTORE PUSH1 0x2 SLOAD AND SWAP1 PUSH2 0x12C TIMESTAMP ADD SWAP3 DUP4 TIMESTAMP GT PUSH2 0x1AC5 JUMPI SWAP2 PUSH2 0x19EE SWAP2 PUSH0 DUP1 SWAP5 DUP11 MLOAD SWAP7 DUP8 SWAP6 DUP7 SWAP5 DUP6 SWAP4 PUSH4 0x38ED1739 PUSH1 0xE0 SHL DUP6 MSTORE DUP12 DUP6 ADD MSTORE DUP12 PUSH1 0x24 DUP6 ADD MSTORE PUSH1 0xA0 PUSH1 0x44 DUP6 ADD MSTORE PUSH1 0xA4 DUP5 ADD SWAP1 PUSH2 0x17F7 JUMP JUMPDEST SWAP1 ADDRESS PUSH1 0x64 DUP5 ADD MSTORE PUSH1 0x84 DUP4 ADD MSTORE SUB SWAP3 GAS CALL SWAP1 DUP2 ISZERO PUSH2 0x1ABB JUMPI PUSH0 SWAP2 PUSH2 0x1A9A JUMPI JUMPDEST POP DUP1 MLOAD PUSH0 NOT DUP2 ADD SWAP3 SWAP1 DUP4 GT PUSH2 0x1A87 JUMPI POP SWAP2 PUSH2 0x1A38 PUSH0 DUP1 MLOAD PUSH1 0x20 PUSH2 0x2304 DUP4 CODECOPY DUP2 MLOAD SWAP2 MSTORE SWAP5 SWAP3 PUSH1 0xC0 SWAP5 PUSH2 0x1767 JUMP JUMPDEST MLOAD DUP1 SWAP6 JUMPDEST PUSH0 DUP4 DUP4 GT ISZERO PUSH2 0x1A81 JUMPI POP PUSH2 0x1A50 DUP4 DUP4 PUSH2 0x1327 JUMP JUMPDEST SWAP3 JUMPDEST DUP2 MLOAD SWAP5 PUSH1 0x80 DUP7 MSTORE PUSH1 0x9 PUSH1 0x80 DUP8 ADD MSTORE PUSH9 0x86A49EA6A6BE888AB PUSH1 0xBB SHL PUSH1 0xA0 DUP8 ADD MSTORE DUP6 ADD MSTORE DUP4 ADD MSTORE PUSH1 0x60 DUP3 ADD MSTORE LOG1 SWAP1 JUMP JUMPDEST SWAP3 PUSH2 0x1A52 JUMP JUMPDEST PUSH1 0x11 SWAP1 PUSH4 0x4E487B71 PUSH1 0xE0 SHL PUSH0 MSTORE MSTORE PUSH1 0x24 PUSH0 REVERT JUMPDEST PUSH2 0x1AB5 SWAP2 RETURNDATASIZE DUP1 SWAP2 DUP4 RETURNDATACOPY PUSH2 0x1AAD DUP2 DUP4 PUSH2 0x129E JUMP JUMPDEST DUP2 ADD SWAP1 PUSH2 0x177B JUMP JUMPDEST PUSH0 PUSH2 0x1A0C JUMP JUMPDEST DUP6 MLOAD RETURNDATASIZE PUSH0 DUP3 RETURNDATACOPY RETURNDATASIZE SWAP1 REVERT JUMPDEST PUSH1 0x11 DUP6 PUSH4 0x4E487B71 PUSH1 0xE0 SHL PUSH0 MSTORE MSTORE PUSH1 0x24 PUSH0 REVERT JUMPDEST DUP8 DUP2 DUP2 RETURNDATASIZE DUP4 GT PUSH2 0x1B05 JUMPI JUMPDEST PUSH2 0x1AED DUP2 DUP4 PUSH2 0x129E JUMP JUMPDEST DUP2 ADD SUB SLT PUSH2 0x117D JUMPI PUSH2 0x1AFE SWAP1 PUSH2 0x138A JUMP JUMPDEST POP PUSH0 PUSH2 0x197B JUMP JUMPDEST POP RETURNDATASIZE PUSH2 0x1AE3 JUMP JUMPDEST DUP10 MLOAD RETURNDATASIZE PUSH0 DUP3 RETURNDATACOPY RETURNDATASIZE SWAP1 REVERT JUMPDEST SWAP2 DUP3 DUP2 SWAP8 SWAP3 SWAP5 SWAP6 SWAP7 SWAP8 RETURNDATASIZE DUP4 GT PUSH2 0x1B47 JUMPI JUMPDEST PUSH2 0x1B31 DUP2 DUP4 PUSH2 0x129E JUMP JUMPDEST DUP2 ADD SUB SLT PUSH2 0x48F JUMPI POP MLOAD SWAP4 SWAP3 SWAP2 SWAP1 DUP8 SWAP1 PUSH0 PUSH2 0x193F JUMP JUMPDEST POP RETURNDATASIZE PUSH2 0x1B27 JUMP JUMPDEST SWAP6 DUP7 DUP2 RETURNDATASIZE DUP4 GT PUSH2 0x1B83 JUMPI JUMPDEST PUSH2 0x1B63 DUP2 DUP4 PUSH2 0x129E JUMP JUMPDEST DUP2 ADD SUB SLT PUSH2 0x117D JUMPI PUSH2 0x192A DUP10 SWAP2 PUSH2 0x1B7A PUSH0 SWAP9 PUSH2 0x138A JUMP JUMPDEST POP SWAP2 SWAP7 POP PUSH2 0x18CE JUMP JUMPDEST POP RETURNDATASIZE PUSH2 0x1B59 JUMP JUMPDEST DUP11 MLOAD RETURNDATASIZE PUSH0 DUP3 RETURNDATACOPY RETURNDATASIZE SWAP1 REVERT JUMPDEST PUSH1 0x2 SLOAD DUP9 MLOAD PUSH4 0x95EA7B3 PUSH1 0xE0 SHL DUP1 DUP3 MSTORE SWAP2 DUP6 AND PUSH1 0x1 PUSH1 0x1 PUSH1 0xA0 SHL SUB AND PUSH1 0x4 DUP1 DUP4 ADD SWAP2 SWAP1 SWAP2 MSTORE PUSH1 0x24 DUP3 ADD DUP10 SWAP1 MSTORE SWAP3 SWAP7 SWAP5 SWAP6 SWAP5 SWAP4 DUP7 AND SWAP4 SWAP2 SWAP1 DUP10 DUP2 PUSH1 0x44 DUP2 DUP12 DUP10 GAS CALL DUP1 ISZERO PUSH2 0x1DDD JUMPI PUSH2 0x1E27 JUMPI JUMPDEST POP DUP10 MLOAD PUSH2 0x1BEB DUP2 PUSH2 0x1282 JUMP JUMPDEST PUSH1 0x2 DUP2 MSTORE DUP11 CALLDATASIZE DUP12 DUP4 ADD CALLDATACOPY DUP5 PUSH2 0x1BFF DUP3 PUSH2 0x1736 JUMP JUMPDEST MSTORE DUP6 PUSH2 0x1C0A DUP3 PUSH2 0x1757 JUMP JUMPDEST MSTORE DUP7 PUSH1 0x2 SLOAD AND PUSH2 0x12C TIMESTAMP ADD SWAP2 DUP3 TIMESTAMP GT PUSH2 0x1E14 JUMPI DUP10 SWAP2 PUSH2 0x1C54 SWAP2 DUP4 DUP16 DUP15 SWAP1 MLOAD SWAP7 DUP8 SWAP6 DUP7 SWAP5 DUP6 SWAP4 PUSH4 0x38ED1739 PUSH1 0xE0 SHL DUP6 MSTORE DUP14 DUP6 ADD MSTORE DUP5 PUSH1 0x24 DUP6 ADD MSTORE PUSH1 0xA0 PUSH1 0x44 DUP6 ADD MSTORE PUSH1 0xA4 DUP5 ADD SWAP1 PUSH2 0x17F7 JUMP JUMPDEST SWAP1 ADDRESS PUSH1 0x64 DUP5 ADD MSTORE PUSH1 0x84 DUP4 ADD MSTORE SUB SWAP3 GAS CALL SWAP1 DUP2 ISZERO PUSH2 0x1DDD JUMPI DUP9 SWAP2 PUSH2 0x1DFA JUMPI JUMPDEST POP DUP1 MLOAD PUSH0 NOT DUP2 ADD SWAP2 SWAP1 DUP3 GT PUSH2 0x1DE7 JUMPI PUSH2 0x1C8F DUP13 SWAP5 SWAP4 SWAP3 DUP13 SWAP3 PUSH2 0x1767 JUMP JUMPDEST MLOAD PUSH1 0x1 SLOAD SWAP5 MLOAD SWAP3 DUP4 MSTORE SWAP4 DUP9 AND PUSH1 0x1 PUSH1 0x1 PUSH1 0xA0 SHL SUB AND DUP6 DUP4 ADD SWAP1 DUP2 MSTORE PUSH1 0x20 DUP2 ADD DUP6 SWAP1 MSTORE DUP3 SWAP1 DUP2 SWAP1 PUSH1 0x40 ADD SUB DUP2 DUP12 DUP11 GAS CALL DUP1 ISZERO PUSH2 0x1DDD JUMPI SWAP1 DUP11 SWAP7 SWAP6 SWAP5 SWAP4 SWAP3 SWAP2 PUSH2 0x1D93 JUMPI JUMPDEST POP PUSH3 0xFFFFFF SWAP1 PUSH2 0x1D28 SWAP8 PUSH1 0x1 SLOAD AND SWAP5 DUP13 MLOAD SWAP7 PUSH2 0x1CEC DUP9 PUSH2 0x1252 JUMP JUMPDEST DUP8 MSTORE DUP8 DUP8 ADD MSTORE AND DUP11 DUP6 ADD MSTORE ADDRESS PUSH1 0x60 DUP6 ADD MSTORE PUSH1 0x80 DUP5 ADD MSTORE DUP7 PUSH1 0xA0 DUP5 ADD MSTORE DUP6 PUSH1 0xC0 DUP5 ADD MSTORE DUP6 DUP10 MLOAD DUP1 SWAP7 DUP2 SWAP6 DUP3 SWAP5 PUSH4 0x4E45AAF PUSH1 0xE0 SHL DUP5 MSTORE DUP4 ADD PUSH2 0x13C9 JUMP JUMPDEST SUB SWAP3 GAS CALL SWAP2 DUP3 ISZERO PUSH2 0x736 JUMPI DUP1 SWAP3 PUSH2 0x1D56 JUMPI JUMPDEST POP POP SWAP2 PUSH1 0xC0 SWAP2 PUSH0 DUP1 MLOAD PUSH1 0x20 PUSH2 0x2304 DUP4 CODECOPY DUP2 MLOAD SWAP2 MSTORE SWAP4 DUP1 SWAP6 PUSH2 0x1A3C JUMP JUMPDEST SWAP1 SWAP2 POP DUP4 DUP3 DUP2 RETURNDATASIZE DUP4 GT PUSH2 0x1D8C JUMPI JUMPDEST PUSH2 0x1D6E DUP2 DUP4 PUSH2 0x129E JUMP JUMPDEST DUP2 ADD SUB SLT PUSH2 0x48F JUMPI POP MLOAD DUP2 PUSH0 DUP1 MLOAD PUSH1 0x20 PUSH2 0x2304 DUP4 CODECOPY DUP2 MLOAD SWAP2 MSTORE PUSH2 0x1D3A JUMP JUMPDEST POP RETURNDATASIZE PUSH2 0x1D64 JUMP JUMPDEST SWAP1 SWAP3 SWAP5 SWAP7 SWAP2 SWAP4 SWAP6 DUP2 DUP2 RETURNDATASIZE DUP4 GT PUSH2 0x1DD6 JUMPI JUMPDEST PUSH2 0x1DAE DUP2 DUP4 PUSH2 0x129E JUMP JUMPDEST DUP2 ADD SUB SLT PUSH2 0x831 JUMPI PUSH2 0x1D28 SWAP7 SWAP5 SWAP3 DUP11 SWAP7 SWAP5 SWAP3 PUSH2 0x1DCD PUSH3 0xFFFFFF SWAP4 PUSH2 0x138A JUMP JUMPDEST POP SWAP8 POP SWAP1 PUSH2 0x1CD1 JUMP JUMPDEST POP RETURNDATASIZE PUSH2 0x1DA4 JUMP JUMPDEST DUP12 MLOAD RETURNDATASIZE DUP11 DUP3 RETURNDATACOPY RETURNDATASIZE SWAP1 REVERT JUMPDEST PUSH4 0x4E487B71 PUSH1 0xE0 SHL DUP10 MSTORE PUSH1 0x11 DUP6 MSTORE PUSH1 0x24 DUP10 REVERT JUMPDEST PUSH2 0x1E0E SWAP2 POP RETURNDATASIZE DUP1 DUP11 DUP4 RETURNDATACOPY PUSH2 0x1AAD DUP2 DUP4 PUSH2 0x129E JUMP JUMPDEST PUSH0 PUSH2 0x1C72 JUMP JUMPDEST PUSH4 0x4E487B71 PUSH1 0xE0 SHL DUP11 MSTORE PUSH1 0x11 DUP7 MSTORE PUSH1 0x24 DUP11 REVERT JUMPDEST DUP10 DUP2 DUP2 RETURNDATASIZE DUP4 GT PUSH2 0x1E54 JUMPI JUMPDEST PUSH2 0x1E3C DUP2 DUP4 PUSH2 0x129E JUMP JUMPDEST DUP2 ADD SUB SLT PUSH2 0x831 JUMPI PUSH2 0x1E4D SWAP1 PUSH2 0x138A JUMP JUMPDEST POP PUSH0 PUSH2 0x1BDF JUMP JUMPDEST POP RETURNDATASIZE PUSH2 0x1E32 JUMP JUMPDEST PUSH1 0xA0 DUP4 DUP1 MLOAD DUP2 ADD SUB SLT PUSH2 0x117D JUMPI PUSH2 0x1E74 PUSH1 0x20 DUP5 ADD PUSH2 0x13A5 JUMP JUMPDEST SWAP3 PUSH2 0x1E81 PUSH1 0x40 DUP3 ADD PUSH2 0x13A5 JUMP JUMPDEST SWAP1 PUSH2 0x1E8E PUSH1 0x60 DUP3 ADD PUSH2 0x13B9 JUMP JUMPDEST SWAP1 PUSH2 0x1EA7 PUSH1 0xA0 PUSH2 0x1EA0 PUSH1 0x80 DUP5 ADD PUSH2 0x13B9 JUMP JUMPDEST SWAP3 ADD PUSH2 0x13B9 JUMP JUMPDEST PUSH1 0x1 SLOAD PUSH1 0x40 MLOAD PUSH4 0x95EA7B3 PUSH1 0xE0 SHL DUP2 MSTORE PUSH1 0x1 PUSH1 0x1 PUSH1 0xA0 SHL SUB SWAP1 SWAP2 AND PUSH1 0x4 DUP3 ADD MSTORE PUSH1 0x24 DUP2 ADD DUP8 SWAP1 MSTORE SWAP1 SWAP3 SWAP1 PUSH1 0x20 DUP2 DUP1 PUSH1 0x44 DUP2 ADD SUB DUP2 PUSH0 PUSH1 0x1 PUSH1 0x1 PUSH1 0xA0 SHL SUB DUP12 AND GAS CALL DUP1 ISZERO PUSH2 0x21BA JUMPI PUSH2 0x22C0 JUMPI JUMPDEST POP PUSH1 0x20 PUSH2 0x1F6C PUSH0 SWAP3 PUSH1 0x1 DUP1 PUSH1 0xA0 SHL SUB PUSH1 0x1 SLOAD AND SWAP1 PUSH3 0xFFFFFF PUSH1 0x40 MLOAD SWAP2 PUSH2 0x1F18 DUP4 PUSH2 0x1252 JUMP JUMPDEST PUSH1 0x1 PUSH1 0x1 PUSH1 0xA0 SHL SUB DUP12 DUP2 AND DUP5 MSTORE DUP14 AND DUP7 DUP5 ADD MSTORE AND PUSH1 0x40 DUP1 DUP4 ADD SWAP2 SWAP1 SWAP2 MSTORE ADDRESS PUSH1 0x60 DUP4 ADD MSTORE PUSH1 0x80 DUP3 ADD DUP12 SWAP1 MSTORE PUSH1 0xA0 DUP3 ADD DUP7 SWAP1 MSTORE PUSH1 0xC0 DUP3 ADD DUP7 SWAP1 MSTORE MLOAD PUSH4 0x4E45AAF PUSH1 0xE0 SHL DUP2 MSTORE SWAP5 DUP6 SWAP4 DUP5 SWAP3 DUP4 SWAP2 SWAP1 PUSH1 0x4 DUP4 ADD PUSH2 0x13C9 JUMP JUMPDEST SUB SWAP3 GAS CALL SWAP1 DUP2 ISZERO PUSH2 0x21BA JUMPI PUSH0 SWAP2 PUSH2 0x228E JUMPI JUMPDEST POP PUSH1 0x1 SLOAD PUSH1 0x40 MLOAD PUSH4 0x95EA7B3 PUSH1 0xE0 SHL DUP2 MSTORE PUSH1 0x1 PUSH1 0x1 PUSH1 0xA0 SHL SUB SWAP1 SWAP2 AND PUSH1 0x4 DUP3 ADD MSTORE PUSH1 0x24 DUP2 ADD DUP3 SWAP1 MSTORE PUSH1 0x20 DUP2 DUP1 PUSH1 0x44 DUP2 ADD SUB DUP2 PUSH0 PUSH1 0x1 PUSH1 0x1 PUSH1 0xA0 SHL SUB DUP14 AND GAS CALL DUP1 ISZERO PUSH2 0x21BA JUMPI PUSH2 0x2247 JUMPI JUMPDEST POP PUSH1 0x20 SWAP2 PUSH0 SWAP8 PUSH2 0x203F SWAP3 PUSH3 0xFFFFFF PUSH1 0x1 DUP1 PUSH1 0xA0 SHL SUB PUSH1 0x1 SLOAD AND SWAP4 PUSH1 0x40 MLOAD SWAP4 PUSH2 0x1FEF DUP6 PUSH2 0x1252 JUMP JUMPDEST PUSH1 0x1 DUP1 PUSH1 0xA0 SHL SUB AND DUP5 MSTORE PUSH1 0x1 DUP1 PUSH1 0xA0 SHL SUB DUP10 AND DUP8 DUP6 ADD MSTORE AND PUSH1 0x40 DUP4 ADD MSTORE ADDRESS PUSH1 0x60 DUP4 ADD MSTORE PUSH1 0x80 DUP3 ADD MSTORE DUP9 PUSH1 0xA0 DUP3 ADD MSTORE DUP9 PUSH1 0xC0 DUP3 ADD MSTORE PUSH1 0x40 MLOAD SWAP9 DUP10 DUP1 SWAP5 DUP2 SWAP4 PUSH4 0x4E45AAF PUSH1 0xE0 SHL DUP4 MSTORE PUSH1 0x4 DUP4 ADD PUSH2 0x13C9 JUMP JUMPDEST SUB SWAP3 GAS CALL SWAP5 DUP6 ISZERO PUSH2 0x21BA JUMPI PUSH0 SWAP6 PUSH2 0x2213 JUMPI JUMPDEST POP PUSH1 0x1 SLOAD PUSH1 0x40 MLOAD PUSH4 0x95EA7B3 PUSH1 0xE0 SHL DUP2 MSTORE PUSH1 0x1 PUSH1 0x1 PUSH1 0xA0 SHL SUB SWAP1 SWAP2 AND PUSH1 0x4 DUP3 ADD MSTORE PUSH1 0x24 DUP2 ADD DUP7 SWAP1 MSTORE PUSH1 0x20 DUP2 DUP1 PUSH1 0x44 DUP2 ADD SUB DUP2 PUSH0 PUSH1 0x1 PUSH1 0x1 PUSH1 0xA0 SHL SUB DUP9 AND GAS CALL DUP1 ISZERO PUSH2 0x21BA JUMPI PUSH2 0x21C5 JUMPI JUMPDEST POP SWAP2 PUSH2 0x2112 SWAP2 PUSH0 SWAP6 PUSH3 0xFFFFFF PUSH1 0x20 SWAP6 PUSH1 0x1 DUP1 PUSH1 0xA0 SHL SUB PUSH1 0x1 SLOAD AND SWAP5 PUSH1 0x40 MLOAD SWAP5 PUSH2 0x20C3 DUP7 PUSH2 0x1252 JUMP JUMPDEST PUSH1 0x1 DUP1 PUSH1 0xA0 SHL SUB AND DUP6 MSTORE PUSH1 0x1 DUP1 PUSH1 0xA0 SHL SUB AND DUP8 DUP6 ADD MSTORE AND PUSH1 0x40 DUP4 ADD MSTORE ADDRESS PUSH1 0x60 DUP4 ADD MSTORE PUSH1 0x80 DUP3 ADD MSTORE DUP5 PUSH1 0xA0 DUP3 ADD MSTORE DUP6 PUSH1 0xC0 DUP3 ADD MSTORE PUSH1 0x40 MLOAD SWAP6 DUP7 DUP1 SWAP5 DUP2 SWAP4 PUSH4 0x4E45AAF PUSH1 0xE0 SHL DUP4 MSTORE PUSH1 0x4 DUP4 ADD PUSH2 0x13C9 JUMP JUMPDEST SUB SWAP3 GAS CALL SWAP2 DUP3 ISZERO PUSH2 0x21BA JUMPI PUSH0 SWAP3 PUSH2 0x2185 JUMPI JUMPDEST POP PUSH1 0xC0 PUSH0 DUP1 MLOAD PUSH1 0x20 PUSH2 0x2304 DUP4 CODECOPY DUP2 MLOAD SWAP2 MSTORE SWAP2 DUP1 DUP5 GT PUSH0 EQ PUSH2 0x217F JUMPI PUSH2 0x2149 DUP2 DUP6 PUSH2 0x1327 JUMP JUMPDEST PUSH1 0x40 MLOAD SWAP2 PUSH1 0x80 DUP4 MSTORE PUSH1 0xA PUSH1 0x80 DUP5 ADD MSTORE PUSH10 0x2A2924A0A723AAA620A9 PUSH1 0xB1 SHL PUSH1 0xA0 DUP5 ADD MSTORE PUSH1 0x20 DUP4 ADD MSTORE DUP5 PUSH1 0x40 DUP4 ADD MSTORE PUSH1 0x60 DUP3 ADD MSTORE LOG1 SWAP1 JUMP JUMPDEST PUSH0 PUSH2 0x2149 JUMP JUMPDEST SWAP1 SWAP2 POP PUSH1 0x20 DUP2 RETURNDATASIZE PUSH1 0x20 GT PUSH2 0x21B2 JUMPI JUMPDEST DUP2 PUSH2 0x21A1 PUSH1 0x20 SWAP4 DUP4 PUSH2 0x129E JUMP JUMPDEST DUP2 ADD SUB SLT PUSH2 0x117D JUMPI MLOAD SWAP1 PUSH1 0xC0 PUSH2 0x2124 JUMP JUMPDEST RETURNDATASIZE SWAP2 POP PUSH2 0x2194 JUMP JUMPDEST PUSH1 0x40 MLOAD RETURNDATASIZE PUSH0 DUP3 RETURNDATACOPY RETURNDATASIZE SWAP1 REVERT JUMPDEST SWAP3 SWAP1 SWAP2 PUSH1 0x20 DUP5 RETURNDATASIZE PUSH1 0x20 GT PUSH2 0x220B JUMPI JUMPDEST DUP2 PUSH2 0x21E1 PUSH1 0x20 SWAP4 DUP4 PUSH2 0x129E JUMP JUMPDEST DUP2 ADD SUB SLT PUSH2 0x117D JUMPI PUSH0 SWAP6 PUSH3 0xFFFFFF PUSH2 0x2112 SWAP5 PUSH2 0x21FE PUSH1 0x20 SWAP8 PUSH2 0x138A JUMP JUMPDEST POP SWAP4 SWAP6 POP POP SWAP6 POP SWAP2 PUSH2 0x209B JUMP JUMPDEST RETURNDATASIZE SWAP2 POP PUSH2 0x21D4 JUMP JUMPDEST SWAP1 SWAP5 POP PUSH1 0x20 DUP2 RETURNDATASIZE PUSH1 0x20 GT PUSH2 0x223F JUMPI JUMPDEST DUP2 PUSH2 0x222F PUSH1 0x20 SWAP4 DUP4 PUSH2 0x129E JUMP JUMPDEST DUP2 ADD SUB SLT PUSH2 0x117D JUMPI MLOAD SWAP4 PUSH0 PUSH2 0x2051 JUMP JUMPDEST RETURNDATASIZE SWAP2 POP PUSH2 0x2222 JUMP JUMPDEST SWAP1 SWAP2 PUSH1 0x20 DUP3 RETURNDATASIZE PUSH1 0x20 GT PUSH2 0x2286 JUMPI JUMPDEST DUP2 PUSH2 0x2262 PUSH1 0x20 SWAP4 DUP4 PUSH2 0x129E JUMP JUMPDEST DUP2 ADD SUB SLT PUSH2 0x117D JUMPI PUSH0 SWAP8 PUSH1 0x20 SWAP4 PUSH2 0x227B PUSH2 0x203F SWAP5 PUSH2 0x138A JUMP JUMPDEST POP SWAP3 POP SWAP8 POP SWAP2 PUSH2 0x1FC8 JUMP JUMPDEST RETURNDATASIZE SWAP2 POP PUSH2 0x2255 JUMP JUMPDEST SWAP1 POP PUSH1 0x20 DUP2 RETURNDATASIZE PUSH1 0x20 GT PUSH2 0x22B8 JUMPI JUMPDEST DUP2 PUSH2 0x22A9 PUSH1 0x20 SWAP4 DUP4 PUSH2 0x129E JUMP JUMPDEST DUP2 ADD SUB SLT PUSH2 0x117D JUMPI MLOAD PUSH0 PUSH2 0x1F7E JUMP JUMPDEST RETURNDATASIZE SWAP2 POP PUSH2 0x229C JUMP JUMPDEST SWAP1 PUSH1 0x20 DUP3 RETURNDATASIZE PUSH1 0x20 GT PUSH2 0x22FB JUMPI JUMPDEST DUP2 PUSH2 0x22DA PUSH1 0x20 SWAP4 DUP4 PUSH2 0x129E JUMP JUMPDEST DUP2 ADD SUB SLT PUSH2 0x117D JUMPI PUSH2 0x1F6C PUSH1 0x20 SWAP2 PUSH2 0x22F2 PUSH0 SWAP5 PUSH2 0x138A JUMP JUMPDEST POP SWAP3 POP POP PUSH2 0x1EF3 JUMP JUMPDEST RETURNDATASIZE SWAP2 POP PUSH2 0x22CD JUMP INVALID OR SMOD DUP13 PUSH9 0xF2D19703A569814824 0xFB 0xD3 0x4E SGT 0xA6 0x24 0xE3 EXP BYTE JUMP 0x2B PUSH16 0xFF0B278D9BD5FAA26469706673582212 KECCAK256 INVALID 0xAB PUSH32 0xC37C605889C685D1C4CA221BE166EDA1EF89911595E192E72A1846365164736F PUSH13 0x63430008140033000000000000 "},"methodIdentifiers":{"AAVE_POOL()":"08a01675","DAI()":"e0bab4c4","POOL_ADDRESSES_PROVIDER()":"311cd5a4","USDC()":"89a30271","USDT()":"c54e44eb","WETH()":"ad5c4648","executeDirectArbitrage(address,uint256,uint8,bytes)":"8447b9aa","executeFlashLoan(address,uint256,bytes)":"f3df1253","executeOperation(address,uint256,uint256,address,bytes)":"1b11d0ff","getConfig()":"c3f909d4","getStats()":"c59d4847","maxSlippageBps()":"c4aa7395","minProfitBps()":"383aeeae","owner()":"8da5cb5b","paused()":"5c975abb","setMaxSlippageBps(uint256)":"25fc1b3d","setMinProfitBps(uint256)":"fcff2c28","setPaused(bool)":"16c38b3c","setRouters(address,address)":"5ead6fb0","setTokens(address,address,address,address)":"537820bf","successfulArbitrages()":"3c4e3805","sushiRouter()":"6d13582c","totalFlashLoans()":"114cad2c","totalProfitWei()":"079a598b","transferOwnership(address)":"f2fde38b","uniswapV3Router()":"2c76d7a6","withdrawETH()":"e086e5ec","withdrawProfit(address)":"24e26241"}}}}}