{"project/contracts/MultiDexExecutor.sol":{"MultiDexExecutor":{"abi":[{"inputs":[{"internalType":"address","name":"_uniswapV3Router","type":"address"},{"internalType":"address","name":"_uniswapV3Quoter","type":"address"},{"internalType":"address","name":"_sushiRouter","type":"address"},{"internalType":"address","name":"_weth","type":"address"},{"internalType":"address","name":"_usdc","type":"address"}],"stateMutability":"nonpayable","type":"constructor"},{"anonymous":false,"inputs":[{"indexed":false,"internalType":"uint256","name":"swapCount","type":"uint256"},{"indexed":false,"internalType":"uint256","name":"totalProfit","type":"uint256"},{"indexed":false,"internalType":"uint256","name":"timestamp","type":"uint256"}],"name":"MultiSwapExecuted","type":"event"},{"anonymous":false,"inputs":[{"indexed":true,"internalType":"address","name":"token","type":"address"},{"indexed":false,"internalType":"uint256","name":"amount","type":"uint256"}],"name":"ProfitWithdrawn","type":"event"},{"anonymous":false,"inputs":[{"indexed":true,"internalType":"address","name":"tokenIn","type":"address"},{"indexed":true,"internalType":"address","name":"tokenOut","type":"address"},{"indexed":false,"internalType":"uint256","name":"amountIn","type":"uint256"},{"indexed":false,"internalType":"uint256","name":"amountOut","type":"uint256"},{"indexed":false,"internalType":"uint256","name":"profit","type":"uint256"},{"indexed":false,"internalType":"enum MultiDexExecutor.DEX","name":"dex","type":"uint8"}],"name":"TradeExecuted","type":"event"},{"inputs":[],"name":"DAI","outputs":[{"internalType":"address","name":"","type":"address"}],"stateMutability":"view","type":"function"},{"inputs":[],"name":"USDC","outputs":[{"internalType":"address","name":"","type":"address"}],"stateMutability":"view","type":"function"},{"inputs":[],"name":"USDT","outputs":[{"internalType":"address","name":"","type":"address"}],"stateMutability":"view","type":"function"},{"inputs":[],"name":"WETH","outputs":[{"internalType":"address","name":"","type":"address"}],"stateMutability":"view","type":"function"},{"inputs":[{"internalType":"address","name":"tokenA","type":"address"},{"internalType":"address","name":"tokenB","type":"address"},{"internalType":"uint256","name":"amountIn","type":"uint256"},{"internalType":"enum MultiDexExecutor.DEX","name":"buyDex","type":"uint8"},{"internalType":"enum MultiDexExecutor.DEX","name":"sellDex","type":"uint8"},{"internalType":"uint24","name":"uniFee","type":"uint24"},{"internalType":"uint256","name":"minProfit","type":"uint256"}],"name":"executeCrossDexArbitrage","outputs":[{"internalType":"uint256","name":"profit","type":"uint256"}],"stateMutability":"nonpayable","type":"function"},{"inputs":[{"internalType":"address","name":"tokenA","type":"address"},{"internalType":"address","name":"tokenB","type":"address"},{"internalType":"uint256","name":"amountIn","type":"uint256"},{"internalType":"uint24","name":"fee1","type":"uint24"},{"internalType":"uint24","name":"fee2","type":"uint24"},{"internalType":"uint256","name":"minProfit","type":"uint256"}],"name":"executeIntraDexArbitrage","outputs":[{"internalType":"uint256","name":"profit","type":"uint256"}],"stateMutability":"nonpayable","type":"function"},{"inputs":[{"components":[{"internalType":"enum MultiDexExecutor.DEX","name":"dex","type":"uint8"},{"internalType":"address","name":"tokenIn","type":"address"},{"internalType":"address","name":"tokenOut","type":"address"},{"internalType":"uint256","name":"amountIn","type":"uint256"},{"internalType":"uint256","name":"minAmountOut","type":"uint256"},{"internalType":"uint24","name":"fee","type":"uint24"},{"internalType":"bytes","name":"extraData","type":"bytes"}],"internalType":"struct MultiDexExecutor.SwapInstruction[]","name":"swaps","type":"tuple[]"},{"internalType":"uint256","name":"minFinalBalance","type":"uint256"}],"name":"executeMultiSwap","outputs":[{"internalType":"uint256","name":"finalBalance","type":"uint256"}],"stateMutability":"nonpayable","type":"function"},{"inputs":[{"internalType":"address","name":"tokenA","type":"address"},{"internalType":"address","name":"tokenB","type":"address"},{"internalType":"address","name":"tokenC","type":"address"},{"internalType":"uint256","name":"amountIn","type":"uint256"},{"internalType":"uint24","name":"feeAB","type":"uint24"},{"internalType":"uint24","name":"feeBC","type":"uint24"},{"internalType":"uint24","name":"feeCA","type":"uint24"},{"internalType":"uint256","name":"minProfit","type":"uint256"}],"name":"executeTriangularArbitrage","outputs":[{"internalType":"uint256","name":"profit","type":"uint256"}],"stateMutability":"nonpayable","type":"function"},{"inputs":[],"name":"getBalances","outputs":[{"internalType":"uint256","name":"ethBalance","type":"uint256"},{"internalType":"uint256","name":"wethBalance","type":"uint256"},{"internalType":"uint256","name":"usdcBalance","type":"uint256"}],"stateMutability":"view","type":"function"},{"inputs":[],"name":"getConfig","outputs":[{"internalType":"uint256","name":"_minProfitWei","type":"uint256"},{"internalType":"uint256","name":"_maxSlippageBps","type":"uint256"},{"internalType":"bool","name":"_paused","type":"bool"}],"stateMutability":"view","type":"function"},{"inputs":[],"name":"getStats","outputs":[{"internalType":"uint256","name":"_totalTrades","type":"uint256"},{"internalType":"uint256","name":"_successfulTrades","type":"uint256"},{"internalType":"uint256","name":"_totalProfitWei","type":"uint256"}],"stateMutability":"view","type":"function"},{"inputs":[],"name":"maxSlippageBps","outputs":[{"internalType":"uint256","name":"","type":"uint256"}],"stateMutability":"view","type":"function"},{"inputs":[],"name":"minProfitWei","outputs":[{"internalType":"uint256","name":"","type":"uint256"}],"stateMutability":"view","type":"function"},{"inputs":[],"name":"owner","outputs":[{"internalType":"address","name":"","type":"address"}],"stateMutability":"view","type":"function"},{"inputs":[],"name":"paused","outputs":[{"internalType":"bool","name":"","type":"bool"}],"stateMutability":"view","type":"function"},{"inputs":[{"internalType":"address","name":"tokenIn","type":"address"},{"internalType":"address","name":"tokenOut","type":"address"},{"internalType":"uint256","name":"amountIn","type":"uint256"}],"name":"quoteSushiSwap","outputs":[{"internalType":"uint256","name":"amountOut","type":"uint256"}],"stateMutability":"view","type":"function"},{"inputs":[{"internalType":"address","name":"tokenIn","type":"address"},{"internalType":"address","name":"tokenOut","type":"address"},{"internalType":"uint256","name":"amountIn","type":"uint256"},{"internalType":"uint24","name":"fee","type":"uint24"}],"name":"quoteUniswapV3","outputs":[{"internalType":"uint256","name":"amountOut","type":"uint256"}],"stateMutability":"nonpayable","type":"function"},{"inputs":[{"internalType":"uint256","name":"_maxSlippageBps","type":"uint256"}],"name":"setMaxSlippageBps","outputs":[],"stateMutability":"nonpayable","type":"function"},{"inputs":[{"internalType":"uint256","name":"_minProfitWei","type":"uint256"}],"name":"setMinProfitWei","outputs":[],"stateMutability":"nonpayable","type":"function"},{"inputs":[{"internalType":"bool","name":"_paused","type":"bool"}],"name":"setPaused","outputs":[],"stateMutability":"nonpayable","type":"function"},{"inputs":[{"internalType":"address","name":"_uniRouter","type":"address"},{"internalType":"address","name":"_uniQuoter","type":"address"},{"internalType":"address","name":"_sushiRouter","type":"address"}],"name":"setRouters","outputs":[],"stateMutability":"nonpayable","type":"function"},{"inputs":[{"internalType":"address","name":"_weth","type":"address"},{"internalType":"address","name":"_usdc","type":"address"},{"internalType":"address","name":"_usdt","type":"address"},{"internalType":"address","name":"_dai","type":"address"}],"name":"setTokens","outputs":[],"stateMutability":"nonpayable","type":"function"},{"inputs":[{"internalType":"address","name":"tokenA","type":"address"},{"internalType":"address","name":"tokenB","type":"address"},{"internalType":"uint256","name":"amountIn","type":"uint256"},{"internalType":"uint24","name":"fee1","type":"uint24"},{"internalType":"uint24","name":"fee2","type":"uint24"}],"name":"simulateArbitrage","outputs":[{"internalType":"int256","name":"expectedProfit","type":"int256"}],"stateMutability":"nonpayable","type":"function"},{"inputs":[],"name":"successfulTrades","outputs":[{"internalType":"uint256","name":"","type":"uint256"}],"stateMutability":"view","type":"function"},{"inputs":[],"name":"sushiRouter","outputs":[{"internalType":"address","name":"","type":"address"}],"stateMutability":"view","type":"function"},{"inputs":[{"internalType":"address","name":"tokenIn","type":"address"},{"internalType":"address","name":"tokenOut","type":"address"},{"internalType":"uint256","name":"amountIn","type":"uint256"},{"internalType":"uint256","name":"minAmountOut","type":"uint256"}],"name":"swapSushiSwap","outputs":[{"internalType":"uint256","name":"amountOut","type":"uint256"}],"stateMutability":"nonpayable","type":"function"},{"inputs":[{"internalType":"address","name":"tokenIn","type":"address"},{"internalType":"address","name":"tokenOut","type":"address"},{"internalType":"uint256","name":"amountIn","type":"uint256"},{"internalType":"uint256","name":"minAmountOut","type":"uint256"},{"internalType":"uint24","name":"fee","type":"uint24"}],"name":"swapUniswapV3","outputs":[{"internalType":"uint256","name":"amountOut","type":"uint256"}],"stateMutability":"nonpayable","type":"function"},{"inputs":[],"name":"totalProfitWei","outputs":[{"internalType":"uint256","name":"","type":"uint256"}],"stateMutability":"view","type":"function"},{"inputs":[],"name":"totalTrades","outputs":[{"internalType":"uint256","name":"","type":"uint256"}],"stateMutability":"view","type":"function"},{"inputs":[{"internalType":"address","name":"newOwner","type":"address"}],"name":"transferOwnership","outputs":[],"stateMutability":"nonpayable","type":"function"},{"inputs":[],"name":"uniswapV3Quoter","outputs":[{"internalType":"address","name":"","type":"address"}],"stateMutability":"view","type":"function"},{"inputs":[],"name":"uniswapV3Router","outputs":[{"internalType":"address","name":"","type":"address"}],"stateMutability":"view","type":"function"},{"inputs":[],"name":"withdrawETH","outputs":[],"stateMutability":"nonpayable","type":"function"},{"inputs":[{"internalType":"address","name":"token","type":"address"}],"name":"withdrawToken","outputs":[],"stateMutability":"nonpayable","type":"function"},{"stateMutability":"payable","type":"receive"}],"evm":{"bytecode":{"linkReferences":{},"object":"608034620000fd57601f6200237f38819003918201601f19168301916001600160401b03831184841017620001015780849260a094604052833981010312620000fd576200004d8162000115565b906200005c6020820162000115565b906200006b6040820162000115565b91620000886080620000806060850162000115565b930162000115565b915f600b556064600c5560ff19600d5416600d5560018060a01b03199433865f5416175f5560018060a01b0394858094818094168960015416176001551687600254161760025516856003541617600355168360045416176004551690600554161760055560405161225490816200012b8239f35b5f80fd5b634e487b7160e01b5f52604160045260245ffd5b51906001600160a01b0382168203620000fd5756fe608080604052600436101561001c575b50361561001a575f80fd5b005b5f3560e01c908162113e081461174857508063079a598b1461172b5780630b1e98cf146113df5780630d55044b146113ab578063139a2bbb14610eda57806316c38b3c14610e9657806325fc1b3d14610e325780632c76d7a614610e0a5780632dba780414610ded5780633f168afe14610c3c5780634cf0c18514610c0f5780634d20d0f814610be7578063537820bf14610b585780635c975abb14610b365780636d13582c14610b0e57806389476069146109b157806389a30271146109895780638c0f939f1461083e5780638da5cb5b146108175780639cc2ef39146107195780639ea29585146105335780639f4dcf7514610489578063ad5c464814610461578063bc206c371461041d578063c3f909d4146103ea578063c4aa7395146103cd578063c4ddf1f714610356578063c54e44eb1461032e578063c59d4847146102f9578063e086e5ec14610283578063e0bab4c41461025b578063e275c9971461023e578063f2fde38b146101be5763fc2139961461019d575f61000f565b346101ba575f3660031901126101ba576020600954604051908152f35b5f80fd5b346101ba5760203660031901126101ba576101d7611867565b5f54906001600160a01b03906101f033838516146118f3565b16908115610207576001600160a01b031916175f55005b60405162461bcd60e51b815260206004820152600f60248201526e496e76616c6964206164647265737360881b6044820152606490fd5b346101ba575f3660031901126101ba576020600854604051908152f35b346101ba575f3660031901126101ba576007546040516001600160a01b039091168152602090f35b346101ba575f3660031901126101ba575f546001600160a01b03166102a93382146118f3565b479081156102cb575f808093819382f1156102c057005b6040513d5f823e3d90fd5b60405162461bcd60e51b815260206004820152600660248201526509cde408aa8960d31b6044820152606490fd5b346101ba575f3660031901126101ba57600854600954600a5460408051938452602084019290925290820152606090f35b0390f35b346101ba575f3660031901126101ba576006546040516001600160a01b039091168152602090f35b346101ba5760603660031901126101ba5761036f611867565b61037761187d565b61037f611893565b5f546001600160a01b0392839161039990831633146118f3565b816bffffffffffffffffffffffff60a01b951685600154161760015516836002541617600255169060035416176003555f80f35b346101ba575f3660031901126101ba576020600c54604051908152f35b346101ba575f3660031901126101ba576060600b54600c5460ff600d541690604051928352602083015215156040820152f35b346101ba5760a03660031901126101ba57602061045961043b611867565b61044361187d565b61044b6118e1565b916064359160443591611b10565b604051908152f35b346101ba575f3660031901126101ba576004546040516001600160a01b039091168152602090f35b346101ba5760803660031901126101ba576104e560206104a7611867565b6104af61187d565b6104b76118cf565b5f60018060a01b0360025416926040519687958694859363f7729d4360e01b855260443592600486016121c9565b03925af180156102c0575f90610501575b602090604051908152f35b506020813d821161052b575b8161051a60209383611d74565b810103126101ba57602090516104f6565b3d915061050d565b346101ba576101003660031901126101ba5761054d611867565b61055561187d565b9061055e611893565b906064359161056b6118e1565b906105746118bd565b9260c43562ffffff811681036101ba575f546001600160a01b039061059c90821633146118f3565b6105ab60ff600d541615611cfe565b821695604051936370a0823160e01b938486523060048701526020998a876024818d5afa9788156102c0578b975f996106de575b509861060a91846106048b9c6105fc896106109c9d9e10156120ba565b88848861192c565b9161192c565b91611b10565b5060246040518095819382523060048301525afa80156102c0575f906106af575b61064692506106418282116120fd565b6120ad565b61065460e435821015612135565b61066081600a54611fe8565b600a5561066e600954611dae565b6009557fe25d4943d38f5c156f508fb56bf1b370f6725b109edd7a2bdade03608ec4e5856060604051600381528385820152426040820152a1604051908152f35b508282813d83116106d7575b6106c58183611d74565b810103126101ba576106469151610631565b503d6106bb565b888193989992969b9a503d8311610712575b6106fa8183611d74565b810103126101ba575196978a9695909361060a6105df565b503d6106f0565b346101ba5760603660031901126101ba576107ab5f610736611867565b61073e61187d565b906040519161074c83611d58565b60028352604036602085013761076183611fa3565b6001600160a01b0392831690528161077884611fc4565b9116905260035416604051808095819463d06ca61f60e01b83526044356004840152604060248401526044830190612071565b03915afa9081156102c0575f916107f5575b5080515f198101919082116107e1576020916107d891611fd4565b51604051908152f35b634e487b7160e01b5f52601160045260245ffd5b61081191503d805f833e6108098183611d74565b810190611ff5565b816107bd565b346101ba575f3660031901126101ba575f546040516001600160a01b039091168152602090f35b346101ba5760a03660031901126101ba57610857611867565b5f61086061187d565b6108686118cf565b9060206108a56108766118e1565b9360018060a01b03600254169060405196878094819363f7729d4360e01b835260443590898d600486016121c9565b03925af19283156102c0575f93610954575b50602092935f60018060a01b0360025416926108e96040519788968795869463f7729d4360e01b8652600486016121c9565b03925af19081156102c0575f91610922575b506044358103905f604435128183128116918313901516176107e157602090604051908152f35b90506020813d60201161094c575b8161093d60209383611d74565b810103126101ba5751816108fb565b3d9150610930565b92506020833d602011610981575b8161096f60209383611d74565b810103126101ba5760209251926108b7565b3d9150610962565b346101ba575f3660031901126101ba576005546040516001600160a01b039091168152602090f35b346101ba576020806003193601126101ba576109cb611867565b5f546001600160a01b0390811692916109e53385146118f3565b6040516370a0823160e01b81523060048201529116928282602481875afa9182156102c0575f92610adf575b508115610aad5760405163a9059cbb60e01b81526001600160a01b0391909116600482015260248101829052919081836044815f885af19283156102c0577f016e128b6bdadd9e9068abd0b18db2fc8b27ed3dbced50e4aa6cc0a6934251ab93610a80575b50604051908152a2005b610a9f90833d8511610aa6575b610a978183611d74565b810190611d96565b5084610a76565b503d610a8d565b60405162461bcd60e51b815260048101849052600a6024820152694e6f2062616c616e636560b01b6044820152606490fd5b9091508281813d8311610b07575b610af78183611d74565b810103126101ba57519084610a11565b503d610aed565b346101ba575f3660031901126101ba576003546040516001600160a01b039091168152602090f35b346101ba575f3660031901126101ba57602060ff600d54166040519015158152f35b346101ba5760803660031901126101ba57610b71611867565b610b7961187d565b90610b82611893565b6064356001600160a01b03818116949092918590036101ba578290610bab825f541633146118f3565b816bffffffffffffffffffffffff60a01b9516856004541617600455168360055416176005551681600654161760065560075416176007555f80f35b346101ba575f3660031901126101ba576002546040516001600160a01b039091168152602090f35b346101ba5760203660031901126101ba57610c3460018060a01b035f541633146118f3565b600435600b55005b346101ba5760c03660031901126101ba57610c55611867565b610c5d61187d565b9060443590610c6a6118cf565b90610c736118e1565b5f546001600160a01b0390610c8b90821633146118f3565b610c9a60ff600d541615611cfe565b821693604051916370a0823160e01b9182845230600485015260209788856024818b5afa9586156102c05789955f97610db6575b5061060a8798610ce585610ced98999a10156120ba565b84848461192c565b5060246040518095819382523060048301525afa80156102c0575f90610d87575b610d1e92506106418282116120fd565b610d2c60a435821015612135565b610d3881600a54611fe8565b600a55610d46600954611dae565b6009557fe25d4943d38f5c156f508fb56bf1b370f6725b109edd7a2bdade03608ec4e5856060604051600281528385820152426040820152a1604051908152f35b508282813d8311610daf575b610d9d8183611d74565b810103126101ba57610d1e9151610d0e565b503d610d93565b868196979298503d8311610de6575b610dcf8183611d74565b810103126101ba579251948894939061060a610cce565b503d610dc5565b346101ba575f3660031901126101ba576020600b54604051908152f35b346101ba575f3660031901126101ba576001546040516001600160a01b039091168152602090f35b346101ba5760203660031901126101ba57600435610e5a60018060a01b035f541633146118f3565b6101f48111610e6857600c55005b60405162461bcd60e51b81526020600482015260066024820152654d617820352560d01b6044820152606490fd5b346101ba5760203660031901126101ba576004358015158091036101ba57610ec860018060a01b035f541633146118f3565b60ff8019600d5416911617600d555f80f35b346101ba5760403660031901126101ba5760043567ffffffffffffffff81116101ba57366023820112156101ba5767ffffffffffffffff8160040135116101ba57366024826004013560051b830101116101ba57610f4260018060a01b035f541633146118f3565b610f5160ff600d541615611cfe565b80600401351561137b576001600160a01b03610f7f6020610f79600485013560248601612178565b016121b5565b166040516370a0823160e01b8152306004820152602081602481855afa9081156102c0575f91611349575b506060610fbe846004013560248601612178565b01355f5b8460040135811061117957505060048301355f1981019081116107e15782906001600160a01b039061100390604090610f7990600489013560248a01612193565b1603611134576020602492604051938480926370a0823160e01b82523060048301525afa9182156102c0575f92611100575b5060243582106110bb57602092611078826110727fe25d4943d38f5c156f508fb56bf1b370f6725b109edd7a2bdade03608ec4e5859486116120fd565b846120ad565b61108481600a54611fe8565b600a55611092600954611dae565b6009556040805160049390930135835260208301919091524290820152606090a1604051908152f35b60405162461bcd60e51b815260206004820152601b60248201527f42656c6f77206d696e696d756d2066696e616c2062616c616e636500000000006044820152606490fd5b9091506020813d60201161112c575b8161111c60209383611d74565b810103126101ba57519083611035565b3d915061110f565b60405162461bcd60e51b815260206004820152601960248201527f4d75737420656e64207769746820737461727420746f6b656e000000000000006044820152606490fd5b61118b81866004013560248801612193565b60e0813603126101ba576040516111a181611d3c565b6003823510156101ba57813581526111bb602083016118a9565b60208201526111cc604083016118a9565b6040820152606082013560608201526080808301358183015260a0928381013562ffffff811681036101ba578484015260c081013567ffffffffffffffff81116101ba5736601f8284010112156101ba5767ffffffffffffffff8183013511611335576040519161124a82820135601f01601f191660200184611d74565b8082018035808552369101602001116101ba575f9160209180820180359084018685013701358301015260c083015281516003811015611321576112cc576020820151604083015191830151939092015193946112c7946112c19462ffffff9091169390926001600160a01b039081169116611b10565b91611dae565b610fc2565b915080516003811015611321576001146112ec575b50506112c790611dae565b60208101516040820151929091015192936112c7936113199390926001600160a01b039182169116611dbc565b9190866112e1565b634e487b7160e01b5f52602160045260245ffd5b634e487b7160e01b5f52604160045260245ffd5b90506020813d602011611373575b8161136460209383611d74565b810103126101ba575183610faa565b3d9150611357565b60405162461bcd60e51b81526020600482015260086024820152674e6f20737761707360c01b6044820152606490fd5b346101ba5760803660031901126101ba5760206104596113c9611867565b6113d161187d565b906064359160443591611dbc565b346101ba5760e03660031901126101ba576113f8611867565b61140061187d565b60643560038110156101ba576084359260038410156101ba576114216118bd565b9160018060a01b0393845f541633149361143a856118f3565b60ff600d5416159461144b86611cfe565b6040519788956370a0823160e01b95868852306004890152898216998a89602460209e8f935afa998a156102c0578c995f9b6116fa575b5060443595611493878d10156120ba565b5f93806115545750505050506114ab8484878461192c565b915b8061152b57506114bc94611b10565b505b60246040518095819382523060048301525afa80156102c0575f906114fc575b6114ee92506106418282116120fd565b610d2c60c435821015612135565b508282813d8311611524575b6115128183611d74565b810103126101ba576114ee91516114de565b503d611508565b6001919293945014611541575b505050506114be565b61154a93611dbc565b5085808080611538565b939593600114611567575b5050506114ad565b61157991929a5061157e9395506118f3565b611cfe565b60035460405163095ea7b360e01b81529088166001600160a01b03166004820152602481018490528a816044815f8e5af180156102c0576116dd575b50604051966115c888611d58565b600288526040368c8a0137896115dd89611fa3565b526115e788611fc4565b908087168092526003541661012c4201988942116107e1575f916116369183604051809d819582946338ed173960e01b84528c600485015284602485015260a0604485015260a4840190612071565b90306064840152608483015203925af19788156102c0575f986116c1575b5087515f198101989089116107e1578b9861166e91611fd4565b519061167b600854611dae565b6008558a5f805160206121ff833981519152604051806116b5868a8360609060019294936080820195825260208201525f60408201520152565b0390a3918b808061155f565b6116d69198503d805f833e6108098183611d74565b968b611654565b6116f3908b3d8d11610aa657610a978183611d74565b508a6115ba565b8a819b929c503d8311611724575b6117128183611d74565b810103126101ba578b9851998d611482565b503d611708565b346101ba575f3660031901126101ba576020600a54604051908152f35b346101ba575f3660031901126101ba576004546001600160a01b039147918316801561185e57816024816020936370a0823160e01b82523060048301525afa9081156102c0575f9161182d575b50915b600554168015611823576020602491604051928380926370a0823160e01b82523060048301525afa80156102c0575f906117f0575b61032a91505b604051938493846040919493926060820195825260208201520152565b506020813d821161181b575b8161180960209383611d74565b810103126101ba5761032a90516117cd565b3d91506117fc565b5061032a5f6117d3565b90506020813d8211611856575b8161184760209383611d74565b810103126101ba575183611795565b3d915061183a565b50505f91611798565b600435906001600160a01b03821682036101ba57565b602435906001600160a01b03821682036101ba57565b604435906001600160a01b03821682036101ba57565b35906001600160a01b03821682036101ba57565b60a4359062ffffff821682036101ba57565b6064359062ffffff821682036101ba57565b6084359062ffffff821682036101ba57565b156118fa57565b60405162461bcd60e51b815260206004820152600a60248201526927b7363c9037bbb732b960b11b6044820152606490fd5b909180939260018060a01b03805f946119498287541633146118f3565b61195860ff600d541615611cfe565b6001546040805163095ea7b360e01b81529185166001600160a01b0316600483015260248201999099526020989190921695909390918881604481868b5af18015611b065790899291611ae9575b50836001541684848789838251966119bd88611d3c565b8d88528189890191169e8f825284890162ffffff80921681528360608b019330855260808c0196875260a08c019789895260c08d01998a52519e8f9c8d6304e45aaf60e01b9052511660048d0152511660248b015251166044890152511660648701525160848601525160a4850152511660c483015281845a9260e493f1968715611add578197611a96575b5050505f805160206121ff83398151915291611a908692611a6b600854611dae565b60085551928392836060905f9294936080820195825260208201528260408201520152565b0390a390565b90918093989750813d8311611ad6575b611ab08183611d74565b81010312611ad3575051939481611a905f805160206121ff833981519152611a49565b80fd5b503d611aa6565b508251903d90823e3d90fd5b611aff90833d8511610aa657610a978183611d74565b505f6119a6565b85513d85823e3d90fd5b909282611b719594611b2c60018060a01b035f541633146118f3565b611b3b60ff600d541615611cfe565b60015460405163095ea7b360e01b81526001600160a01b0390911660048201526024810192909252909586919082906044820190565b6020988992909103815f6001600160a01b0389165af19182156102c0578792611ce1575b5060015460405160e4915f906001600160a01b0316611bb383611d3c565b6001600160a01b03888116845294851686840181815262ffffff9b8c1660408087019182523060608801908152608088018e815260a089019c8d5260c0890188815292516304e45aaf60e01b815298518b1660048a015293518a1660248901529151909d1660448701525187166064860152516084850152965160a4840152985190931660c48201529396849283915af19485156102c0575f95611ca4575b5050835f805160206121ff83398151915291611c6f600854611dae565b6008556040805194855260208501929092525f91840182905260608401919091526001600160a01b0316918060808101611a90565b9080929550813d8311611cda575b611cbc8183611d74565b810103126101ba5751925f805160206121ff8339815191525f611c52565b503d611cb2565b611cf790833d8511610aa657610a978183611d74565b505f611b95565b15611d0557565b60405162461bcd60e51b815260206004820152600f60248201526e10dbdb9d1c9858dd081c185d5cd959608a1b6044820152606490fd5b60e0810190811067ffffffffffffffff82111761133557604052565b6060810190811067ffffffffffffffff82111761133557604052565b90601f8019910116810190811067ffffffffffffffff82111761133557604052565b908160209103126101ba575180151581036101ba5790565b5f1981146107e15760010190565b5f80546001600160a01b0396959394928791611ddb90831633146118f3565b611dea60ff600d541615611cfe565b6003546040805163095ea7b360e01b8152918a166001600160a01b03166004830152602482018690529891909216949160208180604481010381878a5af18015611f9957611f7b575b50875190611e4082611d58565b600282528836602084013785611e5583611fa3565b5280611e6083611fc4565b9716809752600354169061012c420192834211611f675791611eae918580948c51968795869485936338ed173960e01b85528c6004860152602485015260a0604485015260a4840190612071565b90306064840152608483015203925af1908115611f5d578291611f43575b5080515f19810192908311611f2f575091611efa611a909697925f805160206121ff83398151915294611fd4565b51958692611f09600854611dae565b600855519283928360609060019294936080820195825260208201525f60408201520152565b634e487b7160e01b81526011600452602490fd5b611f5791503d8084833e6108098183611d74565b5f611ecc565b87513d84823e3d90fd5b634e487b7160e01b85526011600452602485fd5b611f929060203d8111610aa657610a978183611d74565b505f611e33565b89513d86823e3d90fd5b805115611fb05760200190565b634e487b7160e01b5f52603260045260245ffd5b805160011015611fb05760400190565b8051821015611fb05760209160051b010190565b919082018092116107e157565b9060209081838203126101ba57825167ffffffffffffffff938482116101ba570181601f820112156101ba578051938411611335578360051b906040519461203f85840187611d74565b855283808601928201019283116101ba578301905b828210612062575050505090565b81518152908301908301612054565b9081518082526020808093019301915f5b828110612090575050505090565b83516001600160a01b031685529381019392810192600101612082565b919082039182116107e157565b156120c157565b60405162461bcd60e51b8152602060048201526014602482015273496e73756666696369656e742062616c616e636560601b6044820152606490fd5b1561210457565b60405162461bcd60e51b8152602060048201526009602482015268139bc81c1c9bd99a5d60ba1b6044820152606490fd5b1561213c57565b60405162461bcd60e51b815260206004820152601460248201527350726f6669742062656c6f77206d696e696d756d60601b6044820152606490fd5b9015611fb05780359060de19813603018212156101ba570190565b9190811015611fb05760051b8101359060de19813603018212156101ba570190565b356001600160a01b03811681036101ba5790565b6001600160a01b0391821681529116602082015262ffffff91909116604082015260608101919091525f608082015260a0019056fe5a8fedba09e94c52407b23c5d1eda996a34a7f37ffb5b2f7ebd8025b3c93893da26469706673582212208e105ed93706f3ff7c778583cbe31e201dfe4a68a300896ada446edb1b611cc064736f6c63430008140033","opcodes":"PUSH1 0x80 CALLVALUE PUSH3 0xFD JUMPI PUSH1 0x1F PUSH3 0x237F CODESIZE DUP2 SWAP1 SUB SWAP2 DUP3 ADD PUSH1 0x1F NOT AND DUP4 ADD SWAP2 PUSH1 0x1 PUSH1 0x1 PUSH1 0x40 SHL SUB DUP4 GT DUP5 DUP5 LT OR PUSH3 0x101 JUMPI DUP1 DUP5 SWAP3 PUSH1 0xA0 SWAP5 PUSH1 0x40 MSTORE DUP4 CODECOPY DUP2 ADD SUB SLT PUSH3 0xFD JUMPI PUSH3 0x4D DUP2 PUSH3 0x115 JUMP JUMPDEST SWAP1 PUSH3 0x5C PUSH1 0x20 DUP3 ADD PUSH3 0x115 JUMP JUMPDEST SWAP1 PUSH3 0x6B PUSH1 0x40 DUP3 ADD PUSH3 0x115 JUMP JUMPDEST SWAP2 PUSH3 0x88 PUSH1 0x80 PUSH3 0x80 PUSH1 0x60 DUP6 ADD PUSH3 0x115 JUMP JUMPDEST SWAP4 ADD PUSH3 0x115 JUMP JUMPDEST SWAP2 PUSH0 PUSH1 0xB SSTORE PUSH1 0x64 PUSH1 0xC SSTORE PUSH1 0xFF NOT PUSH1 0xD SLOAD AND PUSH1 0xD SSTORE PUSH1 0x1 DUP1 PUSH1 0xA0 SHL SUB NOT SWAP5 CALLER DUP7 PUSH0 SLOAD AND OR PUSH0 SSTORE PUSH1 0x1 DUP1 PUSH1 0xA0 SHL SUB SWAP5 DUP6 DUP1 SWAP5 DUP2 DUP1 SWAP5 AND DUP10 PUSH1 0x1 SLOAD AND OR PUSH1 0x1 SSTORE AND DUP8 PUSH1 0x2 SLOAD AND OR PUSH1 0x2 SSTORE AND DUP6 PUSH1 0x3 SLOAD AND OR PUSH1 0x3 SSTORE AND DUP4 PUSH1 0x4 SLOAD AND OR PUSH1 0x4 SSTORE AND SWAP1 PUSH1 0x5 SLOAD AND OR PUSH1 0x5 SSTORE PUSH1 0x40 MLOAD PUSH2 0x2254 SWAP1 DUP2 PUSH3 0x12B DUP3 CODECOPY RETURN JUMPDEST PUSH0 DUP1 REVERT JUMPDEST PUSH4 0x4E487B71 PUSH1 0xE0 SHL PUSH0 MSTORE PUSH1 0x41 PUSH1 0x4 MSTORE PUSH1 0x24 PUSH0 REVERT JUMPDEST MLOAD SWAP1 PUSH1 0x1 PUSH1 0x1 PUSH1 0xA0 SHL SUB DUP3 AND DUP3 SUB PUSH3 0xFD JUMPI JUMP INVALID PUSH1 0x80 DUP1 PUSH1 0x40 MSTORE PUSH1 0x4 CALLDATASIZE LT ISZERO PUSH2 0x1C JUMPI JUMPDEST POP CALLDATASIZE ISZERO PUSH2 0x1A JUMPI PUSH0 DUP1 REVERT JUMPDEST STOP JUMPDEST PUSH0 CALLDATALOAD PUSH1 0xE0 SHR SWAP1 DUP2 PUSH3 0x113E08 EQ PUSH2 0x1748 JUMPI POP DUP1 PUSH4 0x79A598B EQ PUSH2 0x172B JUMPI DUP1 PUSH4 0xB1E98CF EQ PUSH2 0x13DF JUMPI DUP1 PUSH4 0xD55044B EQ PUSH2 0x13AB JUMPI DUP1 PUSH4 0x139A2BBB EQ PUSH2 0xEDA JUMPI DUP1 PUSH4 0x16C38B3C EQ PUSH2 0xE96 JUMPI DUP1 PUSH4 0x25FC1B3D EQ PUSH2 0xE32 JUMPI DUP1 PUSH4 0x2C76D7A6 EQ PUSH2 0xE0A JUMPI DUP1 PUSH4 0x2DBA7804 EQ PUSH2 0xDED JUMPI DUP1 PUSH4 0x3F168AFE EQ PUSH2 0xC3C JUMPI DUP1 PUSH4 0x4CF0C185 EQ PUSH2 0xC0F JUMPI DUP1 PUSH4 0x4D20D0F8 EQ PUSH2 0xBE7 JUMPI DUP1 PUSH4 0x537820BF EQ PUSH2 0xB58 JUMPI DUP1 PUSH4 0x5C975ABB EQ PUSH2 0xB36 JUMPI DUP1 PUSH4 0x6D13582C EQ PUSH2 0xB0E JUMPI DUP1 PUSH4 0x89476069 EQ PUSH2 0x9B1 JUMPI DUP1 PUSH4 0x89A30271 EQ PUSH2 0x989 JUMPI DUP1 PUSH4 0x8C0F939F EQ PUSH2 0x83E JUMPI DUP1 PUSH4 0x8DA5CB5B EQ PUSH2 0x817 JUMPI DUP1 PUSH4 0x9CC2EF39 EQ PUSH2 0x719 JUMPI DUP1 PUSH4 0x9EA29585 EQ PUSH2 0x533 JUMPI DUP1 PUSH4 0x9F4DCF75 EQ PUSH2 0x489 JUMPI DUP1 PUSH4 0xAD5C4648 EQ PUSH2 0x461 JUMPI DUP1 PUSH4 0xBC206C37 EQ PUSH2 0x41D JUMPI DUP1 PUSH4 0xC3F909D4 EQ PUSH2 0x3EA JUMPI DUP1 PUSH4 0xC4AA7395 EQ PUSH2 0x3CD JUMPI DUP1 PUSH4 0xC4DDF1F7 EQ PUSH2 0x356 JUMPI DUP1 PUSH4 0xC54E44EB EQ PUSH2 0x32E JUMPI DUP1 PUSH4 0xC59D4847 EQ PUSH2 0x2F9 JUMPI DUP1 PUSH4 0xE086E5EC EQ PUSH2 0x283 JUMPI DUP1 PUSH4 0xE0BAB4C4 EQ PUSH2 0x25B JUMPI DUP1 PUSH4 0xE275C997 EQ PUSH2 0x23E JUMPI DUP1 PUSH4 0xF2FDE38B EQ PUSH2 0x1BE JUMPI PUSH4 0xFC213996 EQ PUSH2 0x19D JUMPI PUSH0 PUSH2 0xF JUMP JUMPDEST CALLVALUE PUSH2 0x1BA JUMPI PUSH0 CALLDATASIZE PUSH1 0x3 NOT ADD SLT PUSH2 0x1BA JUMPI PUSH1 0x20 PUSH1 0x9 SLOAD PUSH1 0x40 MLOAD SWAP1 DUP2 MSTORE RETURN JUMPDEST PUSH0 DUP1 REVERT JUMPDEST CALLVALUE PUSH2 0x1BA JUMPI PUSH1 0x20 CALLDATASIZE PUSH1 0x3 NOT ADD SLT PUSH2 0x1BA JUMPI PUSH2 0x1D7 PUSH2 0x1867 JUMP JUMPDEST PUSH0 SLOAD SWAP1 PUSH1 0x1 PUSH1 0x1 PUSH1 0xA0 SHL SUB SWAP1 PUSH2 0x1F0 CALLER DUP4 DUP6 AND EQ PUSH2 0x18F3 JUMP JUMPDEST AND SWAP1 DUP2 ISZERO PUSH2 0x207 JUMPI PUSH1 0x1 PUSH1 0x1 PUSH1 0xA0 SHL SUB NOT AND OR PUSH0 SSTORE STOP JUMPDEST PUSH1 0x40 MLOAD PUSH3 0x461BCD PUSH1 0xE5 SHL DUP2 MSTORE PUSH1 0x20 PUSH1 0x4 DUP3 ADD MSTORE PUSH1 0xF PUSH1 0x24 DUP3 ADD MSTORE PUSH15 0x496E76616C69642061646472657373 PUSH1 0x88 SHL PUSH1 0x44 DUP3 ADD MSTORE PUSH1 0x64 SWAP1 REVERT JUMPDEST CALLVALUE PUSH2 0x1BA JUMPI PUSH0 CALLDATASIZE PUSH1 0x3 NOT ADD SLT PUSH2 0x1BA JUMPI PUSH1 0x20 PUSH1 0x8 SLOAD PUSH1 0x40 MLOAD SWAP1 DUP2 MSTORE RETURN JUMPDEST CALLVALUE PUSH2 0x1BA JUMPI PUSH0 CALLDATASIZE PUSH1 0x3 NOT ADD SLT PUSH2 0x1BA JUMPI PUSH1 0x7 SLOAD PUSH1 0x40 MLOAD PUSH1 0x1 PUSH1 0x1 PUSH1 0xA0 SHL SUB SWAP1 SWAP2 AND DUP2 MSTORE PUSH1 0x20 SWAP1 RETURN JUMPDEST CALLVALUE PUSH2 0x1BA JUMPI PUSH0 CALLDATASIZE PUSH1 0x3 NOT ADD SLT PUSH2 0x1BA JUMPI PUSH0 SLOAD PUSH1 0x1 PUSH1 0x1 PUSH1 0xA0 SHL SUB AND PUSH2 0x2A9 CALLER DUP3 EQ PUSH2 0x18F3 JUMP JUMPDEST SELFBALANCE SWAP1 DUP2 ISZERO PUSH2 0x2CB JUMPI PUSH0 DUP1 DUP1 SWAP4 DUP2 SWAP4 DUP3 CALL ISZERO PUSH2 0x2C0 JUMPI STOP JUMPDEST PUSH1 0x40 MLOAD RETURNDATASIZE PUSH0 DUP3 RETURNDATACOPY RETURNDATASIZE SWAP1 REVERT JUMPDEST PUSH1 0x40 MLOAD PUSH3 0x461BCD PUSH1 0xE5 SHL DUP2 MSTORE PUSH1 0x20 PUSH1 0x4 DUP3 ADD MSTORE PUSH1 0x6 PUSH1 0x24 DUP3 ADD MSTORE PUSH6 0x9CDE408AA89 PUSH1 0xD3 SHL PUSH1 0x44 DUP3 ADD MSTORE PUSH1 0x64 SWAP1 REVERT JUMPDEST CALLVALUE PUSH2 0x1BA JUMPI PUSH0 CALLDATASIZE PUSH1 0x3 NOT ADD SLT PUSH2 0x1BA JUMPI PUSH1 0x8 SLOAD PUSH1 0x9 SLOAD PUSH1 0xA SLOAD PUSH1 0x40 DUP1 MLOAD SWAP4 DUP5 MSTORE PUSH1 0x20 DUP5 ADD SWAP3 SWAP1 SWAP3 MSTORE SWAP1 DUP3 ADD MSTORE PUSH1 0x60 SWAP1 RETURN JUMPDEST SUB SWAP1 RETURN JUMPDEST CALLVALUE PUSH2 0x1BA JUMPI PUSH0 CALLDATASIZE PUSH1 0x3 NOT ADD SLT PUSH2 0x1BA JUMPI PUSH1 0x6 SLOAD PUSH1 0x40 MLOAD PUSH1 0x1 PUSH1 0x1 PUSH1 0xA0 SHL SUB SWAP1 SWAP2 AND DUP2 MSTORE PUSH1 0x20 SWAP1 RETURN JUMPDEST CALLVALUE PUSH2 0x1BA JUMPI PUSH1 0x60 CALLDATASIZE PUSH1 0x3 NOT ADD SLT PUSH2 0x1BA JUMPI PUSH2 0x36F PUSH2 0x1867 JUMP JUMPDEST PUSH2 0x377 PUSH2 0x187D JUMP JUMPDEST PUSH2 0x37F PUSH2 0x1893 JUMP JUMPDEST PUSH0 SLOAD PUSH1 0x1 PUSH1 0x1 PUSH1 0xA0 SHL SUB SWAP3 DUP4 SWAP2 PUSH2 0x399 SWAP1 DUP4 AND CALLER EQ PUSH2 0x18F3 JUMP JUMPDEST DUP2 PUSH12 0xFFFFFFFFFFFFFFFFFFFFFFFF PUSH1 0xA0 SHL SWAP6 AND DUP6 PUSH1 0x1 SLOAD AND OR PUSH1 0x1 SSTORE AND DUP4 PUSH1 0x2 SLOAD AND OR PUSH1 0x2 SSTORE AND SWAP1 PUSH1 0x3 SLOAD AND OR PUSH1 0x3 SSTORE PUSH0 DUP1 RETURN JUMPDEST CALLVALUE PUSH2 0x1BA JUMPI PUSH0 CALLDATASIZE PUSH1 0x3 NOT ADD SLT PUSH2 0x1BA JUMPI PUSH1 0x20 PUSH1 0xC SLOAD PUSH1 0x40 MLOAD SWAP1 DUP2 MSTORE RETURN JUMPDEST CALLVALUE PUSH2 0x1BA JUMPI PUSH0 CALLDATASIZE PUSH1 0x3 NOT ADD SLT PUSH2 0x1BA JUMPI PUSH1 0x60 PUSH1 0xB SLOAD PUSH1 0xC SLOAD PUSH1 0xFF PUSH1 0xD SLOAD AND SWAP1 PUSH1 0x40 MLOAD SWAP3 DUP4 MSTORE PUSH1 0x20 DUP4 ADD MSTORE ISZERO ISZERO PUSH1 0x40 DUP3 ADD MSTORE RETURN JUMPDEST CALLVALUE PUSH2 0x1BA JUMPI PUSH1 0xA0 CALLDATASIZE PUSH1 0x3 NOT ADD SLT PUSH2 0x1BA JUMPI PUSH1 0x20 PUSH2 0x459 PUSH2 0x43B PUSH2 0x1867 JUMP JUMPDEST PUSH2 0x443 PUSH2 0x187D JUMP JUMPDEST PUSH2 0x44B PUSH2 0x18E1 JUMP JUMPDEST SWAP2 PUSH1 0x64 CALLDATALOAD SWAP2 PUSH1 0x44 CALLDATALOAD SWAP2 PUSH2 0x1B10 JUMP JUMPDEST PUSH1 0x40 MLOAD SWAP1 DUP2 MSTORE RETURN JUMPDEST CALLVALUE PUSH2 0x1BA JUMPI PUSH0 CALLDATASIZE PUSH1 0x3 NOT ADD SLT PUSH2 0x1BA JUMPI PUSH1 0x4 SLOAD PUSH1 0x40 MLOAD PUSH1 0x1 PUSH1 0x1 PUSH1 0xA0 SHL SUB SWAP1 SWAP2 AND DUP2 MSTORE PUSH1 0x20 SWAP1 RETURN JUMPDEST CALLVALUE PUSH2 0x1BA JUMPI PUSH1 0x80 CALLDATASIZE PUSH1 0x3 NOT ADD SLT PUSH2 0x1BA JUMPI PUSH2 0x4E5 PUSH1 0x20 PUSH2 0x4A7 PUSH2 0x1867 JUMP JUMPDEST PUSH2 0x4AF PUSH2 0x187D JUMP JUMPDEST PUSH2 0x4B7 PUSH2 0x18CF JUMP JUMPDEST PUSH0 PUSH1 0x1 DUP1 PUSH1 0xA0 SHL SUB PUSH1 0x2 SLOAD AND SWAP3 PUSH1 0x40 MLOAD SWAP7 DUP8 SWAP6 DUP7 SWAP5 DUP6 SWAP4 PUSH4 0xF7729D43 PUSH1 0xE0 SHL DUP6 MSTORE PUSH1 0x44 CALLDATALOAD SWAP3 PUSH1 0x4 DUP7 ADD PUSH2 0x21C9 JUMP JUMPDEST SUB SWAP3 GAS CALL DUP1 ISZERO PUSH2 0x2C0 JUMPI PUSH0 SWAP1 PUSH2 0x501 JUMPI JUMPDEST PUSH1 0x20 SWAP1 PUSH1 0x40 MLOAD SWAP1 DUP2 MSTORE RETURN JUMPDEST POP PUSH1 0x20 DUP2 RETURNDATASIZE DUP3 GT PUSH2 0x52B JUMPI JUMPDEST DUP2 PUSH2 0x51A PUSH1 0x20 SWAP4 DUP4 PUSH2 0x1D74 JUMP JUMPDEST DUP2 ADD SUB SLT PUSH2 0x1BA JUMPI PUSH1 0x20 SWAP1 MLOAD PUSH2 0x4F6 JUMP JUMPDEST RETURNDATASIZE SWAP2 POP PUSH2 0x50D JUMP JUMPDEST CALLVALUE PUSH2 0x1BA JUMPI PUSH2 0x100 CALLDATASIZE PUSH1 0x3 NOT ADD SLT PUSH2 0x1BA JUMPI PUSH2 0x54D PUSH2 0x1867 JUMP JUMPDEST PUSH2 0x555 PUSH2 0x187D JUMP JUMPDEST SWAP1 PUSH2 0x55E PUSH2 0x1893 JUMP JUMPDEST SWAP1 PUSH1 0x64 CALLDATALOAD SWAP2 PUSH2 0x56B PUSH2 0x18E1 JUMP JUMPDEST SWAP1 PUSH2 0x574 PUSH2 0x18BD JUMP JUMPDEST SWAP3 PUSH1 0xC4 CALLDATALOAD PUSH3 0xFFFFFF DUP2 AND DUP2 SUB PUSH2 0x1BA JUMPI PUSH0 SLOAD PUSH1 0x1 PUSH1 0x1 PUSH1 0xA0 SHL SUB SWAP1 PUSH2 0x59C SWAP1 DUP3 AND CALLER EQ PUSH2 0x18F3 JUMP JUMPDEST PUSH2 0x5AB PUSH1 0xFF PUSH1 0xD SLOAD AND ISZERO PUSH2 0x1CFE JUMP JUMPDEST DUP3 AND SWAP6 PUSH1 0x40 MLOAD SWAP4 PUSH4 0x70A08231 PUSH1 0xE0 SHL SWAP4 DUP5 DUP7 MSTORE ADDRESS PUSH1 0x4 DUP8 ADD MSTORE PUSH1 0x20 SWAP10 DUP11 DUP8 PUSH1 0x24 DUP2 DUP14 GAS STATICCALL SWAP8 DUP9 ISZERO PUSH2 0x2C0 JUMPI DUP12 SWAP8 PUSH0 SWAP10 PUSH2 0x6DE JUMPI JUMPDEST POP SWAP9 PUSH2 0x60A SWAP2 DUP5 PUSH2 0x604 DUP12 SWAP13 PUSH2 0x5FC DUP10 PUSH2 0x610 SWAP13 SWAP14 SWAP15 LT ISZERO PUSH2 0x20BA JUMP JUMPDEST DUP9 DUP5 DUP9 PUSH2 0x192C JUMP JUMPDEST SWAP2 PUSH2 0x192C JUMP JUMPDEST SWAP2 PUSH2 0x1B10 JUMP JUMPDEST POP PUSH1 0x24 PUSH1 0x40 MLOAD DUP1 SWAP6 DUP2 SWAP4 DUP3 MSTORE ADDRESS PUSH1 0x4 DUP4 ADD MSTORE GAS STATICCALL DUP1 ISZERO PUSH2 0x2C0 JUMPI PUSH0 SWAP1 PUSH2 0x6AF JUMPI JUMPDEST PUSH2 0x646 SWAP3 POP PUSH2 0x641 DUP3 DUP3 GT PUSH2 0x20FD JUMP JUMPDEST PUSH2 0x20AD JUMP JUMPDEST PUSH2 0x654 PUSH1 0xE4 CALLDATALOAD DUP3 LT ISZERO PUSH2 0x2135 JUMP JUMPDEST PUSH2 0x660 DUP2 PUSH1 0xA SLOAD PUSH2 0x1FE8 JUMP JUMPDEST PUSH1 0xA SSTORE PUSH2 0x66E PUSH1 0x9 SLOAD PUSH2 0x1DAE JUMP JUMPDEST PUSH1 0x9 SSTORE PUSH32 0xE25D4943D38F5C156F508FB56BF1B370F6725B109EDD7A2BDADE03608EC4E585 PUSH1 0x60 PUSH1 0x40 MLOAD PUSH1 0x3 DUP2 MSTORE DUP4 DUP6 DUP3 ADD MSTORE TIMESTAMP PUSH1 0x40 DUP3 ADD MSTORE LOG1 PUSH1 0x40 MLOAD SWAP1 DUP2 MSTORE RETURN JUMPDEST POP DUP3 DUP3 DUP2 RETURNDATASIZE DUP4 GT PUSH2 0x6D7 JUMPI JUMPDEST PUSH2 0x6C5 DUP2 DUP4 PUSH2 0x1D74 JUMP JUMPDEST DUP2 ADD SUB SLT PUSH2 0x1BA JUMPI PUSH2 0x646 SWAP2 MLOAD PUSH2 0x631 JUMP JUMPDEST POP RETURNDATASIZE PUSH2 0x6BB JUMP JUMPDEST DUP9 DUP2 SWAP4 SWAP9 SWAP10 SWAP3 SWAP7 SWAP12 SWAP11 POP RETURNDATASIZE DUP4 GT PUSH2 0x712 JUMPI JUMPDEST PUSH2 0x6FA DUP2 DUP4 PUSH2 0x1D74 JUMP JUMPDEST DUP2 ADD SUB SLT PUSH2 0x1BA JUMPI MLOAD SWAP7 SWAP8 DUP11 SWAP7 SWAP6 SWAP1 SWAP4 PUSH2 0x60A PUSH2 0x5DF JUMP JUMPDEST POP RETURNDATASIZE PUSH2 0x6F0 JUMP JUMPDEST CALLVALUE PUSH2 0x1BA JUMPI PUSH1 0x60 CALLDATASIZE PUSH1 0x3 NOT ADD SLT PUSH2 0x1BA JUMPI PUSH2 0x7AB PUSH0 PUSH2 0x736 PUSH2 0x1867 JUMP JUMPDEST PUSH2 0x73E PUSH2 0x187D JUMP JUMPDEST SWAP1 PUSH1 0x40 MLOAD SWAP2 PUSH2 0x74C DUP4 PUSH2 0x1D58 JUMP JUMPDEST PUSH1 0x2 DUP4 MSTORE PUSH1 0x40 CALLDATASIZE PUSH1 0x20 DUP6 ADD CALLDATACOPY PUSH2 0x761 DUP4 PUSH2 0x1FA3 JUMP JUMPDEST PUSH1 0x1 PUSH1 0x1 PUSH1 0xA0 SHL SUB SWAP3 DUP4 AND SWAP1 MSTORE DUP2 PUSH2 0x778 DUP5 PUSH2 0x1FC4 JUMP JUMPDEST SWAP2 AND SWAP1 MSTORE PUSH1 0x3 SLOAD AND PUSH1 0x40 MLOAD DUP1 DUP1 SWAP6 DUP2 SWAP5 PUSH4 0xD06CA61F PUSH1 0xE0 SHL DUP4 MSTORE PUSH1 0x44 CALLDATALOAD PUSH1 0x4 DUP5 ADD MSTORE PUSH1 0x40 PUSH1 0x24 DUP5 ADD MSTORE PUSH1 0x44 DUP4 ADD SWAP1 PUSH2 0x2071 JUMP JUMPDEST SUB SWAP2 GAS STATICCALL SWAP1 DUP2 ISZERO PUSH2 0x2C0 JUMPI PUSH0 SWAP2 PUSH2 0x7F5 JUMPI JUMPDEST POP DUP1 MLOAD PUSH0 NOT DUP2 ADD SWAP2 SWAP1 DUP3 GT PUSH2 0x7E1 JUMPI PUSH1 0x20 SWAP2 PUSH2 0x7D8 SWAP2 PUSH2 0x1FD4 JUMP JUMPDEST MLOAD PUSH1 0x40 MLOAD SWAP1 DUP2 MSTORE RETURN JUMPDEST PUSH4 0x4E487B71 PUSH1 0xE0 SHL PUSH0 MSTORE PUSH1 0x11 PUSH1 0x4 MSTORE PUSH1 0x24 PUSH0 REVERT JUMPDEST PUSH2 0x811 SWAP2 POP RETURNDATASIZE DUP1 PUSH0 DUP4 RETURNDATACOPY PUSH2 0x809 DUP2 DUP4 PUSH2 0x1D74 JUMP JUMPDEST DUP2 ADD SWAP1 PUSH2 0x1FF5 JUMP JUMPDEST DUP2 PUSH2 0x7BD JUMP JUMPDEST CALLVALUE PUSH2 0x1BA JUMPI PUSH0 CALLDATASIZE PUSH1 0x3 NOT ADD SLT PUSH2 0x1BA JUMPI PUSH0 SLOAD PUSH1 0x40 MLOAD PUSH1 0x1 PUSH1 0x1 PUSH1 0xA0 SHL SUB SWAP1 SWAP2 AND DUP2 MSTORE PUSH1 0x20 SWAP1 RETURN JUMPDEST CALLVALUE PUSH2 0x1BA JUMPI PUSH1 0xA0 CALLDATASIZE PUSH1 0x3 NOT ADD SLT PUSH2 0x1BA JUMPI PUSH2 0x857 PUSH2 0x1867 JUMP JUMPDEST PUSH0 PUSH2 0x860 PUSH2 0x187D JUMP JUMPDEST PUSH2 0x868 PUSH2 0x18CF JUMP JUMPDEST SWAP1 PUSH1 0x20 PUSH2 0x8A5 PUSH2 0x876 PUSH2 0x18E1 JUMP JUMPDEST SWAP4 PUSH1 0x1 DUP1 PUSH1 0xA0 SHL SUB PUSH1 0x2 SLOAD AND SWAP1 PUSH1 0x40 MLOAD SWAP7 DUP8 DUP1 SWAP5 DUP2 SWAP4 PUSH4 0xF7729D43 PUSH1 0xE0 SHL DUP4 MSTORE PUSH1 0x44 CALLDATALOAD SWAP1 DUP10 DUP14 PUSH1 0x4 DUP7 ADD PUSH2 0x21C9 JUMP JUMPDEST SUB SWAP3 GAS CALL SWAP3 DUP4 ISZERO PUSH2 0x2C0 JUMPI PUSH0 SWAP4 PUSH2 0x954 JUMPI JUMPDEST POP PUSH1 0x20 SWAP3 SWAP4 PUSH0 PUSH1 0x1 DUP1 PUSH1 0xA0 SHL SUB PUSH1 0x2 SLOAD AND SWAP3 PUSH2 0x8E9 PUSH1 0x40 MLOAD SWAP8 DUP9 SWAP7 DUP8 SWAP6 DUP7 SWAP5 PUSH4 0xF7729D43 PUSH1 0xE0 SHL DUP7 MSTORE PUSH1 0x4 DUP7 ADD PUSH2 0x21C9 JUMP JUMPDEST SUB SWAP3 GAS CALL SWAP1 DUP2 ISZERO PUSH2 0x2C0 JUMPI PUSH0 SWAP2 PUSH2 0x922 JUMPI JUMPDEST POP PUSH1 0x44 CALLDATALOAD DUP2 SUB SWAP1 PUSH0 PUSH1 0x44 CALLDATALOAD SLT DUP2 DUP4 SLT DUP2 AND SWAP2 DUP4 SGT SWAP1 ISZERO AND OR PUSH2 0x7E1 JUMPI PUSH1 0x20 SWAP1 PUSH1 0x40 MLOAD SWAP1 DUP2 MSTORE RETURN JUMPDEST SWAP1 POP PUSH1 0x20 DUP2 RETURNDATASIZE PUSH1 0x20 GT PUSH2 0x94C JUMPI JUMPDEST DUP2 PUSH2 0x93D PUSH1 0x20 SWAP4 DUP4 PUSH2 0x1D74 JUMP JUMPDEST DUP2 ADD SUB SLT PUSH2 0x1BA JUMPI MLOAD DUP2 PUSH2 0x8FB JUMP JUMPDEST RETURNDATASIZE SWAP2 POP PUSH2 0x930 JUMP JUMPDEST SWAP3 POP PUSH1 0x20 DUP4 RETURNDATASIZE PUSH1 0x20 GT PUSH2 0x981 JUMPI JUMPDEST DUP2 PUSH2 0x96F PUSH1 0x20 SWAP4 DUP4 PUSH2 0x1D74 JUMP JUMPDEST DUP2 ADD SUB SLT PUSH2 0x1BA JUMPI PUSH1 0x20 SWAP3 MLOAD SWAP3 PUSH2 0x8B7 JUMP JUMPDEST RETURNDATASIZE SWAP2 POP PUSH2 0x962 JUMP JUMPDEST CALLVALUE PUSH2 0x1BA JUMPI PUSH0 CALLDATASIZE PUSH1 0x3 NOT ADD SLT PUSH2 0x1BA JUMPI PUSH1 0x5 SLOAD PUSH1 0x40 MLOAD PUSH1 0x1 PUSH1 0x1 PUSH1 0xA0 SHL SUB SWAP1 SWAP2 AND DUP2 MSTORE PUSH1 0x20 SWAP1 RETURN JUMPDEST CALLVALUE PUSH2 0x1BA JUMPI PUSH1 0x20 DUP1 PUSH1 0x3 NOT CALLDATASIZE ADD SLT PUSH2 0x1BA JUMPI PUSH2 0x9CB PUSH2 0x1867 JUMP JUMPDEST PUSH0 SLOAD PUSH1 0x1 PUSH1 0x1 PUSH1 0xA0 SHL SUB SWAP1 DUP2 AND SWAP3 SWAP2 PUSH2 0x9E5 CALLER DUP6 EQ PUSH2 0x18F3 JUMP JUMPDEST PUSH1 0x40 MLOAD PUSH4 0x70A08231 PUSH1 0xE0 SHL DUP2 MSTORE ADDRESS PUSH1 0x4 DUP3 ADD MSTORE SWAP2 AND SWAP3 DUP3 DUP3 PUSH1 0x24 DUP2 DUP8 GAS STATICCALL SWAP2 DUP3 ISZERO PUSH2 0x2C0 JUMPI PUSH0 SWAP3 PUSH2 0xADF JUMPI JUMPDEST POP DUP2 ISZERO PUSH2 0xAAD JUMPI PUSH1 0x40 MLOAD PUSH4 0xA9059CBB PUSH1 0xE0 SHL DUP2 MSTORE PUSH1 0x1 PUSH1 0x1 PUSH1 0xA0 SHL SUB SWAP2 SWAP1 SWAP2 AND PUSH1 0x4 DUP3 ADD MSTORE PUSH1 0x24 DUP2 ADD DUP3 SWAP1 MSTORE SWAP2 SWAP1 DUP2 DUP4 PUSH1 0x44 DUP2 PUSH0 DUP9 GAS CALL SWAP3 DUP4 ISZERO PUSH2 0x2C0 JUMPI PUSH32 0x16E128B6BDADD9E9068ABD0B18DB2FC8B27ED3DBCED50E4AA6CC0A6934251AB SWAP4 PUSH2 0xA80 JUMPI JUMPDEST POP PUSH1 0x40 MLOAD SWAP1 DUP2 MSTORE LOG2 STOP JUMPDEST PUSH2 0xA9F SWAP1 DUP4 RETURNDATASIZE DUP6 GT PUSH2 0xAA6 JUMPI JUMPDEST PUSH2 0xA97 DUP2 DUP4 PUSH2 0x1D74 JUMP JUMPDEST DUP2 ADD SWAP1 PUSH2 0x1D96 JUMP JUMPDEST POP DUP5 PUSH2 0xA76 JUMP JUMPDEST POP RETURNDATASIZE PUSH2 0xA8D JUMP JUMPDEST PUSH1 0x40 MLOAD PUSH3 0x461BCD PUSH1 0xE5 SHL DUP2 MSTORE PUSH1 0x4 DUP2 ADD DUP5 SWAP1 MSTORE PUSH1 0xA PUSH1 0x24 DUP3 ADD MSTORE PUSH10 0x4E6F2062616C616E6365 PUSH1 0xB0 SHL PUSH1 0x44 DUP3 ADD MSTORE PUSH1 0x64 SWAP1 REVERT JUMPDEST SWAP1 SWAP2 POP DUP3 DUP2 DUP2 RETURNDATASIZE DUP4 GT PUSH2 0xB07 JUMPI JUMPDEST PUSH2 0xAF7 DUP2 DUP4 PUSH2 0x1D74 JUMP JUMPDEST DUP2 ADD SUB SLT PUSH2 0x1BA JUMPI MLOAD SWAP1 DUP5 PUSH2 0xA11 JUMP JUMPDEST POP RETURNDATASIZE PUSH2 0xAED JUMP JUMPDEST CALLVALUE PUSH2 0x1BA JUMPI PUSH0 CALLDATASIZE PUSH1 0x3 NOT ADD SLT PUSH2 0x1BA JUMPI PUSH1 0x3 SLOAD PUSH1 0x40 MLOAD PUSH1 0x1 PUSH1 0x1 PUSH1 0xA0 SHL SUB SWAP1 SWAP2 AND DUP2 MSTORE PUSH1 0x20 SWAP1 RETURN JUMPDEST CALLVALUE PUSH2 0x1BA JUMPI PUSH0 CALLDATASIZE PUSH1 0x3 NOT ADD SLT PUSH2 0x1BA JUMPI PUSH1 0x20 PUSH1 0xFF PUSH1 0xD SLOAD AND PUSH1 0x40 MLOAD SWAP1 ISZERO ISZERO DUP2 MSTORE RETURN JUMPDEST CALLVALUE PUSH2 0x1BA JUMPI PUSH1 0x80 CALLDATASIZE PUSH1 0x3 NOT ADD SLT PUSH2 0x1BA JUMPI PUSH2 0xB71 PUSH2 0x1867 JUMP JUMPDEST PUSH2 0xB79 PUSH2 0x187D JUMP JUMPDEST SWAP1 PUSH2 0xB82 PUSH2 0x1893 JUMP JUMPDEST PUSH1 0x64 CALLDATALOAD PUSH1 0x1 PUSH1 0x1 PUSH1 0xA0 SHL SUB DUP2 DUP2 AND SWAP5 SWAP1 SWAP3 SWAP2 DUP6 SWAP1 SUB PUSH2 0x1BA JUMPI DUP3 SWAP1 PUSH2 0xBAB DUP3 PUSH0 SLOAD AND CALLER EQ PUSH2 0x18F3 JUMP JUMPDEST DUP2 PUSH12 0xFFFFFFFFFFFFFFFFFFFFFFFF PUSH1 0xA0 SHL SWAP6 AND DUP6 PUSH1 0x4 SLOAD AND OR PUSH1 0x4 SSTORE AND DUP4 PUSH1 0x5 SLOAD AND OR PUSH1 0x5 SSTORE AND DUP2 PUSH1 0x6 SLOAD AND OR PUSH1 0x6 SSTORE PUSH1 0x7 SLOAD AND OR PUSH1 0x7 SSTORE PUSH0 DUP1 RETURN JUMPDEST CALLVALUE PUSH2 0x1BA JUMPI PUSH0 CALLDATASIZE PUSH1 0x3 NOT ADD SLT PUSH2 0x1BA JUMPI PUSH1 0x2 SLOAD PUSH1 0x40 MLOAD PUSH1 0x1 PUSH1 0x1 PUSH1 0xA0 SHL SUB SWAP1 SWAP2 AND DUP2 MSTORE PUSH1 0x20 SWAP1 RETURN JUMPDEST CALLVALUE PUSH2 0x1BA JUMPI PUSH1 0x20 CALLDATASIZE PUSH1 0x3 NOT ADD SLT PUSH2 0x1BA JUMPI PUSH2 0xC34 PUSH1 0x1 DUP1 PUSH1 0xA0 SHL SUB PUSH0 SLOAD AND CALLER EQ PUSH2 0x18F3 JUMP JUMPDEST PUSH1 0x4 CALLDATALOAD PUSH1 0xB SSTORE STOP JUMPDEST CALLVALUE PUSH2 0x1BA JUMPI PUSH1 0xC0 CALLDATASIZE PUSH1 0x3 NOT ADD SLT PUSH2 0x1BA JUMPI PUSH2 0xC55 PUSH2 0x1867 JUMP JUMPDEST PUSH2 0xC5D PUSH2 0x187D JUMP JUMPDEST SWAP1 PUSH1 0x44 CALLDATALOAD SWAP1 PUSH2 0xC6A PUSH2 0x18CF JUMP JUMPDEST SWAP1 PUSH2 0xC73 PUSH2 0x18E1 JUMP JUMPDEST PUSH0 SLOAD PUSH1 0x1 PUSH1 0x1 PUSH1 0xA0 SHL SUB SWAP1 PUSH2 0xC8B SWAP1 DUP3 AND CALLER EQ PUSH2 0x18F3 JUMP JUMPDEST PUSH2 0xC9A PUSH1 0xFF PUSH1 0xD SLOAD AND ISZERO PUSH2 0x1CFE JUMP JUMPDEST DUP3 AND SWAP4 PUSH1 0x40 MLOAD SWAP2 PUSH4 0x70A08231 PUSH1 0xE0 SHL SWAP2 DUP3 DUP5 MSTORE ADDRESS PUSH1 0x4 DUP6 ADD MSTORE PUSH1 0x20 SWAP8 DUP9 DUP6 PUSH1 0x24 DUP2 DUP12 GAS STATICCALL SWAP6 DUP7 ISZERO PUSH2 0x2C0 JUMPI DUP10 SWAP6 PUSH0 SWAP8 PUSH2 0xDB6 JUMPI JUMPDEST POP PUSH2 0x60A DUP8 SWAP9 PUSH2 0xCE5 DUP6 PUSH2 0xCED SWAP9 SWAP10 SWAP11 LT ISZERO PUSH2 0x20BA JUMP JUMPDEST DUP5 DUP5 DUP5 PUSH2 0x192C JUMP JUMPDEST POP PUSH1 0x24 PUSH1 0x40 MLOAD DUP1 SWAP6 DUP2 SWAP4 DUP3 MSTORE ADDRESS PUSH1 0x4 DUP4 ADD MSTORE GAS STATICCALL DUP1 ISZERO PUSH2 0x2C0 JUMPI PUSH0 SWAP1 PUSH2 0xD87 JUMPI JUMPDEST PUSH2 0xD1E SWAP3 POP PUSH2 0x641 DUP3 DUP3 GT PUSH2 0x20FD JUMP JUMPDEST PUSH2 0xD2C PUSH1 0xA4 CALLDATALOAD DUP3 LT ISZERO PUSH2 0x2135 JUMP JUMPDEST PUSH2 0xD38 DUP2 PUSH1 0xA SLOAD PUSH2 0x1FE8 JUMP JUMPDEST PUSH1 0xA SSTORE PUSH2 0xD46 PUSH1 0x9 SLOAD PUSH2 0x1DAE JUMP JUMPDEST PUSH1 0x9 SSTORE PUSH32 0xE25D4943D38F5C156F508FB56BF1B370F6725B109EDD7A2BDADE03608EC4E585 PUSH1 0x60 PUSH1 0x40 MLOAD PUSH1 0x2 DUP2 MSTORE DUP4 DUP6 DUP3 ADD MSTORE TIMESTAMP PUSH1 0x40 DUP3 ADD MSTORE LOG1 PUSH1 0x40 MLOAD SWAP1 DUP2 MSTORE RETURN JUMPDEST POP DUP3 DUP3 DUP2 RETURNDATASIZE DUP4 GT PUSH2 0xDAF JUMPI JUMPDEST PUSH2 0xD9D DUP2 DUP4 PUSH2 0x1D74 JUMP JUMPDEST DUP2 ADD SUB SLT PUSH2 0x1BA JUMPI PUSH2 0xD1E SWAP2 MLOAD PUSH2 0xD0E JUMP JUMPDEST POP RETURNDATASIZE PUSH2 0xD93 JUMP JUMPDEST DUP7 DUP2 SWAP7 SWAP8 SWAP3 SWAP9 POP RETURNDATASIZE DUP4 GT PUSH2 0xDE6 JUMPI JUMPDEST PUSH2 0xDCF DUP2 DUP4 PUSH2 0x1D74 JUMP JUMPDEST DUP2 ADD SUB SLT PUSH2 0x1BA JUMPI SWAP3 MLOAD SWAP5 DUP9 SWAP5 SWAP4 SWAP1 PUSH2 0x60A PUSH2 0xCCE JUMP JUMPDEST POP RETURNDATASIZE PUSH2 0xDC5 JUMP JUMPDEST CALLVALUE PUSH2 0x1BA JUMPI PUSH0 CALLDATASIZE PUSH1 0x3 NOT ADD SLT PUSH2 0x1BA JUMPI PUSH1 0x20 PUSH1 0xB SLOAD PUSH1 0x40 MLOAD SWAP1 DUP2 MSTORE RETURN JUMPDEST CALLVALUE PUSH2 0x1BA JUMPI PUSH0 CALLDATASIZE PUSH1 0x3 NOT ADD SLT PUSH2 0x1BA JUMPI PUSH1 0x1 SLOAD PUSH1 0x40 MLOAD PUSH1 0x1 PUSH1 0x1 PUSH1 0xA0 SHL SUB SWAP1 SWAP2 AND DUP2 MSTORE PUSH1 0x20 SWAP1 RETURN JUMPDEST CALLVALUE PUSH2 0x1BA JUMPI PUSH1 0x20 CALLDATASIZE PUSH1 0x3 NOT ADD SLT PUSH2 0x1BA JUMPI PUSH1 0x4 CALLDATALOAD PUSH2 0xE5A PUSH1 0x1 DUP1 PUSH1 0xA0 SHL SUB PUSH0 SLOAD AND CALLER EQ PUSH2 0x18F3 JUMP JUMPDEST PUSH2 0x1F4 DUP2 GT PUSH2 0xE68 JUMPI PUSH1 0xC SSTORE STOP JUMPDEST PUSH1 0x40 MLOAD PUSH3 0x461BCD PUSH1 0xE5 SHL DUP2 MSTORE PUSH1 0x20 PUSH1 0x4 DUP3 ADD MSTORE PUSH1 0x6 PUSH1 0x24 DUP3 ADD MSTORE PUSH6 0x4D6178203525 PUSH1 0xD0 SHL PUSH1 0x44 DUP3 ADD MSTORE PUSH1 0x64 SWAP1 REVERT JUMPDEST CALLVALUE PUSH2 0x1BA JUMPI PUSH1 0x20 CALLDATASIZE PUSH1 0x3 NOT ADD SLT PUSH2 0x1BA JUMPI PUSH1 0x4 CALLDATALOAD DUP1 ISZERO ISZERO DUP1 SWAP2 SUB PUSH2 0x1BA JUMPI PUSH2 0xEC8 PUSH1 0x1 DUP1 PUSH1 0xA0 SHL SUB PUSH0 SLOAD AND CALLER EQ PUSH2 0x18F3 JUMP JUMPDEST PUSH1 0xFF DUP1 NOT PUSH1 0xD SLOAD AND SWAP2 AND OR PUSH1 0xD SSTORE PUSH0 DUP1 RETURN JUMPDEST CALLVALUE PUSH2 0x1BA JUMPI PUSH1 0x40 CALLDATASIZE PUSH1 0x3 NOT ADD SLT PUSH2 0x1BA JUMPI PUSH1 0x4 CALLDATALOAD PUSH8 0xFFFFFFFFFFFFFFFF DUP2 GT PUSH2 0x1BA JUMPI CALLDATASIZE PUSH1 0x23 DUP3 ADD SLT ISZERO PUSH2 0x1BA JUMPI PUSH8 0xFFFFFFFFFFFFFFFF DUP2 PUSH1 0x4 ADD CALLDATALOAD GT PUSH2 0x1BA JUMPI CALLDATASIZE PUSH1 0x24 DUP3 PUSH1 0x4 ADD CALLDATALOAD PUSH1 0x5 SHL DUP4 ADD ADD GT PUSH2 0x1BA JUMPI PUSH2 0xF42 PUSH1 0x1 DUP1 PUSH1 0xA0 SHL SUB PUSH0 SLOAD AND CALLER EQ PUSH2 0x18F3 JUMP JUMPDEST PUSH2 0xF51 PUSH1 0xFF PUSH1 0xD SLOAD AND ISZERO PUSH2 0x1CFE JUMP JUMPDEST DUP1 PUSH1 0x4 ADD CALLDATALOAD ISZERO PUSH2 0x137B JUMPI PUSH1 0x1 PUSH1 0x1 PUSH1 0xA0 SHL SUB PUSH2 0xF7F PUSH1 0x20 PUSH2 0xF79 PUSH1 0x4 DUP6 ADD CALLDATALOAD PUSH1 0x24 DUP7 ADD PUSH2 0x2178 JUMP JUMPDEST ADD PUSH2 0x21B5 JUMP JUMPDEST AND PUSH1 0x40 MLOAD PUSH4 0x70A08231 PUSH1 0xE0 SHL DUP2 MSTORE ADDRESS PUSH1 0x4 DUP3 ADD MSTORE PUSH1 0x20 DUP2 PUSH1 0x24 DUP2 DUP6 GAS STATICCALL SWAP1 DUP2 ISZERO PUSH2 0x2C0 JUMPI PUSH0 SWAP2 PUSH2 0x1349 JUMPI JUMPDEST POP PUSH1 0x60 PUSH2 0xFBE DUP5 PUSH1 0x4 ADD CALLDATALOAD PUSH1 0x24 DUP7 ADD PUSH2 0x2178 JUMP JUMPDEST ADD CALLDATALOAD PUSH0 JUMPDEST DUP5 PUSH1 0x4 ADD CALLDATALOAD DUP2 LT PUSH2 0x1179 JUMPI POP POP PUSH1 0x4 DUP4 ADD CALLDATALOAD PUSH0 NOT DUP2 ADD SWAP1 DUP2 GT PUSH2 0x7E1 JUMPI DUP3 SWAP1 PUSH1 0x1 PUSH1 0x1 PUSH1 0xA0 SHL SUB SWAP1 PUSH2 0x1003 SWAP1 PUSH1 0x40 SWAP1 PUSH2 0xF79 SWAP1 PUSH1 0x4 DUP10 ADD CALLDATALOAD PUSH1 0x24 DUP11 ADD PUSH2 0x2193 JUMP JUMPDEST AND SUB PUSH2 0x1134 JUMPI PUSH1 0x20 PUSH1 0x24 SWAP3 PUSH1 0x40 MLOAD SWAP4 DUP5 DUP1 SWAP3 PUSH4 0x70A08231 PUSH1 0xE0 SHL DUP3 MSTORE ADDRESS PUSH1 0x4 DUP4 ADD MSTORE GAS STATICCALL SWAP2 DUP3 ISZERO PUSH2 0x2C0 JUMPI PUSH0 SWAP3 PUSH2 0x1100 JUMPI JUMPDEST POP PUSH1 0x24 CALLDATALOAD DUP3 LT PUSH2 0x10BB JUMPI PUSH1 0x20 SWAP3 PUSH2 0x1078 DUP3 PUSH2 0x1072 PUSH32 0xE25D4943D38F5C156F508FB56BF1B370F6725B109EDD7A2BDADE03608EC4E585 SWAP5 DUP7 GT PUSH2 0x20FD JUMP JUMPDEST DUP5 PUSH2 0x20AD JUMP JUMPDEST PUSH2 0x1084 DUP2 PUSH1 0xA SLOAD PUSH2 0x1FE8 JUMP JUMPDEST PUSH1 0xA SSTORE PUSH2 0x1092 PUSH1 0x9 SLOAD PUSH2 0x1DAE JUMP JUMPDEST PUSH1 0x9 SSTORE PUSH1 0x40 DUP1 MLOAD PUSH1 0x4 SWAP4 SWAP1 SWAP4 ADD CALLDATALOAD DUP4 MSTORE PUSH1 0x20 DUP4 ADD SWAP2 SWAP1 SWAP2 MSTORE TIMESTAMP SWAP1 DUP3 ADD MSTORE PUSH1 0x60 SWAP1 LOG1 PUSH1 0x40 MLOAD SWAP1 DUP2 MSTORE RETURN JUMPDEST PUSH1 0x40 MLOAD PUSH3 0x461BCD PUSH1 0xE5 SHL DUP2 MSTORE PUSH1 0x20 PUSH1 0x4 DUP3 ADD MSTORE PUSH1 0x1B PUSH1 0x24 DUP3 ADD MSTORE PUSH32 0x42656C6F77206D696E696D756D2066696E616C2062616C616E63650000000000 PUSH1 0x44 DUP3 ADD MSTORE PUSH1 0x64 SWAP1 REVERT JUMPDEST SWAP1 SWAP2 POP PUSH1 0x20 DUP2 RETURNDATASIZE PUSH1 0x20 GT PUSH2 0x112C JUMPI JUMPDEST DUP2 PUSH2 0x111C PUSH1 0x20 SWAP4 DUP4 PUSH2 0x1D74 JUMP JUMPDEST DUP2 ADD SUB SLT PUSH2 0x1BA JUMPI MLOAD SWAP1 DUP4 PUSH2 0x1035 JUMP JUMPDEST RETURNDATASIZE SWAP2 POP PUSH2 0x110F JUMP JUMPDEST PUSH1 0x40 MLOAD PUSH3 0x461BCD PUSH1 0xE5 SHL DUP2 MSTORE PUSH1 0x20 PUSH1 0x4 DUP3 ADD MSTORE PUSH1 0x19 PUSH1 0x24 DUP3 ADD MSTORE PUSH32 0x4D75737420656E64207769746820737461727420746F6B656E00000000000000 PUSH1 0x44 DUP3 ADD MSTORE PUSH1 0x64 SWAP1 REVERT JUMPDEST PUSH2 0x118B DUP2 DUP7 PUSH1 0x4 ADD CALLDATALOAD PUSH1 0x24 DUP9 ADD PUSH2 0x2193 JUMP JUMPDEST PUSH1 0xE0 DUP2 CALLDATASIZE SUB SLT PUSH2 0x1BA JUMPI PUSH1 0x40 MLOAD PUSH2 0x11A1 DUP2 PUSH2 0x1D3C JUMP JUMPDEST PUSH1 0x3 DUP3 CALLDATALOAD LT ISZERO PUSH2 0x1BA JUMPI DUP2 CALLDATALOAD DUP2 MSTORE PUSH2 0x11BB PUSH1 0x20 DUP4 ADD PUSH2 0x18A9 JUMP JUMPDEST PUSH1 0x20 DUP3 ADD MSTORE PUSH2 0x11CC PUSH1 0x40 DUP4 ADD PUSH2 0x18A9 JUMP JUMPDEST PUSH1 0x40 DUP3 ADD MSTORE PUSH1 0x60 DUP3 ADD CALLDATALOAD PUSH1 0x60 DUP3 ADD MSTORE PUSH1 0x80 DUP1 DUP4 ADD CALLDATALOAD DUP2 DUP4 ADD MSTORE PUSH1 0xA0 SWAP3 DUP4 DUP2 ADD CALLDATALOAD PUSH3 0xFFFFFF DUP2 AND DUP2 SUB PUSH2 0x1BA JUMPI DUP5 DUP5 ADD MSTORE PUSH1 0xC0 DUP2 ADD CALLDATALOAD PUSH8 0xFFFFFFFFFFFFFFFF DUP2 GT PUSH2 0x1BA JUMPI CALLDATASIZE PUSH1 0x1F DUP3 DUP5 ADD ADD SLT ISZERO PUSH2 0x1BA JUMPI PUSH8 0xFFFFFFFFFFFFFFFF DUP2 DUP4 ADD CALLDATALOAD GT PUSH2 0x1335 JUMPI PUSH1 0x40 MLOAD SWAP2 PUSH2 0x124A DUP3 DUP3 ADD CALLDATALOAD PUSH1 0x1F ADD PUSH1 0x1F NOT AND PUSH1 0x20 ADD DUP5 PUSH2 0x1D74 JUMP JUMPDEST DUP1 DUP3 ADD DUP1 CALLDATALOAD DUP1 DUP6 MSTORE CALLDATASIZE SWAP2 ADD PUSH1 0x20 ADD GT PUSH2 0x1BA JUMPI PUSH0 SWAP2 PUSH1 0x20 SWAP2 DUP1 DUP3 ADD DUP1 CALLDATALOAD SWAP1 DUP5 ADD DUP7 DUP6 ADD CALLDATACOPY ADD CALLDATALOAD DUP4 ADD ADD MSTORE PUSH1 0xC0 DUP4 ADD MSTORE DUP2 MLOAD PUSH1 0x3 DUP2 LT ISZERO PUSH2 0x1321 JUMPI PUSH2 0x12CC JUMPI PUSH1 0x20 DUP3 ADD MLOAD PUSH1 0x40 DUP4 ADD MLOAD SWAP2 DUP4 ADD MLOAD SWAP4 SWAP1 SWAP3 ADD MLOAD SWAP4 SWAP5 PUSH2 0x12C7 SWAP5 PUSH2 0x12C1 SWAP5 PUSH3 0xFFFFFF SWAP1 SWAP2 AND SWAP4 SWAP1 SWAP3 PUSH1 0x1 PUSH1 0x1 PUSH1 0xA0 SHL SUB SWAP1 DUP2 AND SWAP2 AND PUSH2 0x1B10 JUMP JUMPDEST SWAP2 PUSH2 0x1DAE JUMP JUMPDEST PUSH2 0xFC2 JUMP JUMPDEST SWAP2 POP DUP1 MLOAD PUSH1 0x3 DUP2 LT ISZERO PUSH2 0x1321 JUMPI PUSH1 0x1 EQ PUSH2 0x12EC JUMPI JUMPDEST POP POP PUSH2 0x12C7 SWAP1 PUSH2 0x1DAE JUMP JUMPDEST PUSH1 0x20 DUP2 ADD MLOAD PUSH1 0x40 DUP3 ADD MLOAD SWAP3 SWAP1 SWAP2 ADD MLOAD SWAP3 SWAP4 PUSH2 0x12C7 SWAP4 PUSH2 0x1319 SWAP4 SWAP1 SWAP3 PUSH1 0x1 PUSH1 0x1 PUSH1 0xA0 SHL SUB SWAP2 DUP3 AND SWAP2 AND PUSH2 0x1DBC JUMP JUMPDEST SWAP2 SWAP1 DUP7 PUSH2 0x12E1 JUMP JUMPDEST PUSH4 0x4E487B71 PUSH1 0xE0 SHL PUSH0 MSTORE PUSH1 0x21 PUSH1 0x4 MSTORE PUSH1 0x24 PUSH0 REVERT JUMPDEST PUSH4 0x4E487B71 PUSH1 0xE0 SHL PUSH0 MSTORE PUSH1 0x41 PUSH1 0x4 MSTORE PUSH1 0x24 PUSH0 REVERT JUMPDEST SWAP1 POP PUSH1 0x20 DUP2 RETURNDATASIZE PUSH1 0x20 GT PUSH2 0x1373 JUMPI JUMPDEST DUP2 PUSH2 0x1364 PUSH1 0x20 SWAP4 DUP4 PUSH2 0x1D74 JUMP JUMPDEST DUP2 ADD SUB SLT PUSH2 0x1BA JUMPI MLOAD DUP4 PUSH2 0xFAA JUMP JUMPDEST RETURNDATASIZE SWAP2 POP PUSH2 0x1357 JUMP JUMPDEST PUSH1 0x40 MLOAD PUSH3 0x461BCD PUSH1 0xE5 SHL DUP2 MSTORE PUSH1 0x20 PUSH1 0x4 DUP3 ADD MSTORE PUSH1 0x8 PUSH1 0x24 DUP3 ADD MSTORE PUSH8 0x4E6F207377617073 PUSH1 0xC0 SHL PUSH1 0x44 DUP3 ADD MSTORE PUSH1 0x64 SWAP1 REVERT JUMPDEST CALLVALUE PUSH2 0x1BA JUMPI PUSH1 0x80 CALLDATASIZE PUSH1 0x3 NOT ADD SLT PUSH2 0x1BA JUMPI PUSH1 0x20 PUSH2 0x459 PUSH2 0x13C9 PUSH2 0x1867 JUMP JUMPDEST PUSH2 0x13D1 PUSH2 0x187D JUMP JUMPDEST SWAP1 PUSH1 0x64 CALLDATALOAD SWAP2 PUSH1 0x44 CALLDATALOAD SWAP2 PUSH2 0x1DBC JUMP JUMPDEST CALLVALUE PUSH2 0x1BA JUMPI PUSH1 0xE0 CALLDATASIZE PUSH1 0x3 NOT ADD SLT PUSH2 0x1BA JUMPI PUSH2 0x13F8 PUSH2 0x1867 JUMP JUMPDEST PUSH2 0x1400 PUSH2 0x187D JUMP JUMPDEST PUSH1 0x64 CALLDATALOAD PUSH1 0x3 DUP2 LT ISZERO PUSH2 0x1BA JUMPI PUSH1 0x84 CALLDATALOAD SWAP3 PUSH1 0x3 DUP5 LT ISZERO PUSH2 0x1BA JUMPI PUSH2 0x1421 PUSH2 0x18BD JUMP JUMPDEST SWAP2 PUSH1 0x1 DUP1 PUSH1 0xA0 SHL SUB SWAP4 DUP5 PUSH0 SLOAD AND CALLER EQ SWAP4 PUSH2 0x143A DUP6 PUSH2 0x18F3 JUMP JUMPDEST PUSH1 0xFF PUSH1 0xD SLOAD AND ISZERO SWAP5 PUSH2 0x144B DUP7 PUSH2 0x1CFE JUMP JUMPDEST PUSH1 0x40 MLOAD SWAP8 DUP9 SWAP6 PUSH4 0x70A08231 PUSH1 0xE0 SHL SWAP6 DUP7 DUP9 MSTORE ADDRESS PUSH1 0x4 DUP10 ADD MSTORE DUP10 DUP3 AND SWAP10 DUP11 DUP10 PUSH1 0x24 PUSH1 0x20 SWAP15 DUP16 SWAP4 GAS STATICCALL SWAP10 DUP11 ISZERO PUSH2 0x2C0 JUMPI DUP13 SWAP10 PUSH0 SWAP12 PUSH2 0x16FA JUMPI JUMPDEST POP PUSH1 0x44 CALLDATALOAD SWAP6 PUSH2 0x1493 DUP8 DUP14 LT ISZERO PUSH2 0x20BA JUMP JUMPDEST PUSH0 SWAP4 DUP1 PUSH2 0x1554 JUMPI POP POP POP POP POP PUSH2 0x14AB DUP5 DUP5 DUP8 DUP5 PUSH2 0x192C JUMP JUMPDEST SWAP2 JUMPDEST DUP1 PUSH2 0x152B JUMPI POP PUSH2 0x14BC SWAP5 PUSH2 0x1B10 JUMP JUMPDEST POP JUMPDEST PUSH1 0x24 PUSH1 0x40 MLOAD DUP1 SWAP6 DUP2 SWAP4 DUP3 MSTORE ADDRESS PUSH1 0x4 DUP4 ADD MSTORE GAS STATICCALL DUP1 ISZERO PUSH2 0x2C0 JUMPI PUSH0 SWAP1 PUSH2 0x14FC JUMPI JUMPDEST PUSH2 0x14EE SWAP3 POP PUSH2 0x641 DUP3 DUP3 GT PUSH2 0x20FD JUMP JUMPDEST PUSH2 0xD2C PUSH1 0xC4 CALLDATALOAD DUP3 LT ISZERO PUSH2 0x2135 JUMP JUMPDEST POP DUP3 DUP3 DUP2 RETURNDATASIZE DUP4 GT PUSH2 0x1524 JUMPI JUMPDEST PUSH2 0x1512 DUP2 DUP4 PUSH2 0x1D74 JUMP JUMPDEST DUP2 ADD SUB SLT PUSH2 0x1BA JUMPI PUSH2 0x14EE SWAP2 MLOAD PUSH2 0x14DE JUMP JUMPDEST POP RETURNDATASIZE PUSH2 0x1508 JUMP JUMPDEST PUSH1 0x1 SWAP2 SWAP3 SWAP4 SWAP5 POP EQ PUSH2 0x1541 JUMPI JUMPDEST POP POP POP POP PUSH2 0x14BE JUMP JUMPDEST PUSH2 0x154A SWAP4 PUSH2 0x1DBC JUMP JUMPDEST POP DUP6 DUP1 DUP1 DUP1 PUSH2 0x1538 JUMP JUMPDEST SWAP4 SWAP6 SWAP4 PUSH1 0x1 EQ PUSH2 0x1567 JUMPI JUMPDEST POP POP POP PUSH2 0x14AD JUMP JUMPDEST PUSH2 0x1579 SWAP2 SWAP3 SWAP11 POP PUSH2 0x157E SWAP4 SWAP6 POP PUSH2 0x18F3 JUMP JUMPDEST PUSH2 0x1CFE JUMP JUMPDEST PUSH1 0x3 SLOAD PUSH1 0x40 MLOAD PUSH4 0x95EA7B3 PUSH1 0xE0 SHL DUP2 MSTORE SWAP1 DUP9 AND PUSH1 0x1 PUSH1 0x1 PUSH1 0xA0 SHL SUB AND PUSH1 0x4 DUP3 ADD MSTORE PUSH1 0x24 DUP2 ADD DUP5 SWAP1 MSTORE DUP11 DUP2 PUSH1 0x44 DUP2 PUSH0 DUP15 GAS CALL DUP1 ISZERO PUSH2 0x2C0 JUMPI PUSH2 0x16DD JUMPI JUMPDEST POP PUSH1 0x40 MLOAD SWAP7 PUSH2 0x15C8 DUP9 PUSH2 0x1D58 JUMP JUMPDEST PUSH1 0x2 DUP9 MSTORE PUSH1 0x40 CALLDATASIZE DUP13 DUP11 ADD CALLDATACOPY DUP10 PUSH2 0x15DD DUP10 PUSH2 0x1FA3 JUMP JUMPDEST MSTORE PUSH2 0x15E7 DUP9 PUSH2 0x1FC4 JUMP JUMPDEST SWAP1 DUP1 DUP8 AND DUP1 SWAP3 MSTORE PUSH1 0x3 SLOAD AND PUSH2 0x12C TIMESTAMP ADD SWAP9 DUP10 TIMESTAMP GT PUSH2 0x7E1 JUMPI PUSH0 SWAP2 PUSH2 0x1636 SWAP2 DUP4 PUSH1 0x40 MLOAD DUP1 SWAP14 DUP2 SWAP6 DUP3 SWAP5 PUSH4 0x38ED1739 PUSH1 0xE0 SHL DUP5 MSTORE DUP13 PUSH1 0x4 DUP6 ADD MSTORE DUP5 PUSH1 0x24 DUP6 ADD MSTORE PUSH1 0xA0 PUSH1 0x44 DUP6 ADD MSTORE PUSH1 0xA4 DUP5 ADD SWAP1 PUSH2 0x2071 JUMP JUMPDEST SWAP1 ADDRESS PUSH1 0x64 DUP5 ADD MSTORE PUSH1 0x84 DUP4 ADD MSTORE SUB SWAP3 GAS CALL SWAP8 DUP9 ISZERO PUSH2 0x2C0 JUMPI PUSH0 SWAP9 PUSH2 0x16C1 JUMPI JUMPDEST POP DUP8 MLOAD PUSH0 NOT DUP2 ADD SWAP9 SWAP1 DUP10 GT PUSH2 0x7E1 JUMPI DUP12 SWAP9 PUSH2 0x166E SWAP2 PUSH2 0x1FD4 JUMP JUMPDEST MLOAD SWAP1 PUSH2 0x167B PUSH1 0x8 SLOAD PUSH2 0x1DAE JUMP JUMPDEST PUSH1 0x8 SSTORE DUP11 PUSH0 DUP1 MLOAD PUSH1 0x20 PUSH2 0x21FF DUP4 CODECOPY DUP2 MLOAD SWAP2 MSTORE PUSH1 0x40 MLOAD DUP1 PUSH2 0x16B5 DUP7 DUP11 DUP4 PUSH1 0x60 SWAP1 PUSH1 0x1 SWAP3 SWAP5 SWAP4 PUSH1 0x80 DUP3 ADD SWAP6 DUP3 MSTORE PUSH1 0x20 DUP3 ADD MSTORE PUSH0 PUSH1 0x40 DUP3 ADD MSTORE ADD MSTORE JUMP JUMPDEST SUB SWAP1 LOG3 SWAP2 DUP12 DUP1 DUP1 PUSH2 0x155F JUMP JUMPDEST PUSH2 0x16D6 SWAP2 SWAP9 POP RETURNDATASIZE DUP1 PUSH0 DUP4 RETURNDATACOPY PUSH2 0x809 DUP2 DUP4 PUSH2 0x1D74 JUMP JUMPDEST SWAP7 DUP12 PUSH2 0x1654 JUMP JUMPDEST PUSH2 0x16F3 SWAP1 DUP12 RETURNDATASIZE DUP14 GT PUSH2 0xAA6 JUMPI PUSH2 0xA97 DUP2 DUP4 PUSH2 0x1D74 JUMP JUMPDEST POP DUP11 PUSH2 0x15BA JUMP JUMPDEST DUP11 DUP2 SWAP12 SWAP3 SWAP13 POP RETURNDATASIZE DUP4 GT PUSH2 0x1724 JUMPI JUMPDEST PUSH2 0x1712 DUP2 DUP4 PUSH2 0x1D74 JUMP JUMPDEST DUP2 ADD SUB SLT PUSH2 0x1BA JUMPI DUP12 SWAP9 MLOAD SWAP10 DUP14 PUSH2 0x1482 JUMP JUMPDEST POP RETURNDATASIZE PUSH2 0x1708 JUMP JUMPDEST CALLVALUE PUSH2 0x1BA JUMPI PUSH0 CALLDATASIZE PUSH1 0x3 NOT ADD SLT PUSH2 0x1BA JUMPI PUSH1 0x20 PUSH1 0xA SLOAD PUSH1 0x40 MLOAD SWAP1 DUP2 MSTORE RETURN JUMPDEST CALLVALUE PUSH2 0x1BA JUMPI PUSH0 CALLDATASIZE PUSH1 0x3 NOT ADD SLT PUSH2 0x1BA JUMPI PUSH1 0x4 SLOAD PUSH1 0x1 PUSH1 0x1 PUSH1 0xA0 SHL SUB SWAP2 SELFBALANCE SWAP2 DUP4 AND DUP1 ISZERO PUSH2 0x185E JUMPI DUP2 PUSH1 0x24 DUP2 PUSH1 0x20 SWAP4 PUSH4 0x70A08231 PUSH1 0xE0 SHL DUP3 MSTORE ADDRESS PUSH1 0x4 DUP4 ADD MSTORE GAS STATICCALL SWAP1 DUP2 ISZERO PUSH2 0x2C0 JUMPI PUSH0 SWAP2 PUSH2 0x182D JUMPI JUMPDEST POP SWAP2 JUMPDEST PUSH1 0x5 SLOAD AND DUP1 ISZERO PUSH2 0x1823 JUMPI PUSH1 0x20 PUSH1 0x24 SWAP2 PUSH1 0x40 MLOAD SWAP3 DUP4 DUP1 SWAP3 PUSH4 0x70A08231 PUSH1 0xE0 SHL DUP3 MSTORE ADDRESS PUSH1 0x4 DUP4 ADD MSTORE GAS STATICCALL DUP1 ISZERO PUSH2 0x2C0 JUMPI PUSH0 SWAP1 PUSH2 0x17F0 JUMPI JUMPDEST PUSH2 0x32A SWAP2 POP JUMPDEST PUSH1 0x40 MLOAD SWAP4 DUP5 SWAP4 DUP5 PUSH1 0x40 SWAP2 SWAP5 SWAP4 SWAP3 PUSH1 0x60 DUP3 ADD SWAP6 DUP3 MSTORE PUSH1 0x20 DUP3 ADD MSTORE ADD MSTORE JUMP JUMPDEST POP PUSH1 0x20 DUP2 RETURNDATASIZE DUP3 GT PUSH2 0x181B JUMPI JUMPDEST DUP2 PUSH2 0x1809 PUSH1 0x20 SWAP4 DUP4 PUSH2 0x1D74 JUMP JUMPDEST DUP2 ADD SUB SLT PUSH2 0x1BA JUMPI PUSH2 0x32A SWAP1 MLOAD PUSH2 0x17CD JUMP JUMPDEST RETURNDATASIZE SWAP2 POP PUSH2 0x17FC JUMP JUMPDEST POP PUSH2 0x32A PUSH0 PUSH2 0x17D3 JUMP JUMPDEST SWAP1 POP PUSH1 0x20 DUP2 RETURNDATASIZE DUP3 GT PUSH2 0x1856 JUMPI JUMPDEST DUP2 PUSH2 0x1847 PUSH1 0x20 SWAP4 DUP4 PUSH2 0x1D74 JUMP JUMPDEST DUP2 ADD SUB SLT PUSH2 0x1BA JUMPI MLOAD DUP4 PUSH2 0x1795 JUMP JUMPDEST RETURNDATASIZE SWAP2 POP PUSH2 0x183A JUMP JUMPDEST POP POP PUSH0 SWAP2 PUSH2 0x1798 JUMP JUMPDEST PUSH1 0x4 CALLDATALOAD SWAP1 PUSH1 0x1 PUSH1 0x1 PUSH1 0xA0 SHL SUB DUP3 AND DUP3 SUB PUSH2 0x1BA JUMPI JUMP JUMPDEST PUSH1 0x24 CALLDATALOAD SWAP1 PUSH1 0x1 PUSH1 0x1 PUSH1 0xA0 SHL SUB DUP3 AND DUP3 SUB PUSH2 0x1BA JUMPI JUMP JUMPDEST PUSH1 0x44 CALLDATALOAD SWAP1 PUSH1 0x1 PUSH1 0x1 PUSH1 0xA0 SHL SUB DUP3 AND DUP3 SUB PUSH2 0x1BA JUMPI JUMP JUMPDEST CALLDATALOAD SWAP1 PUSH1 0x1 PUSH1 0x1 PUSH1 0xA0 SHL SUB DUP3 AND DUP3 SUB PUSH2 0x1BA JUMPI JUMP JUMPDEST PUSH1 0xA4 CALLDATALOAD SWAP1 PUSH3 0xFFFFFF DUP3 AND DUP3 SUB PUSH2 0x1BA JUMPI JUMP JUMPDEST PUSH1 0x64 CALLDATALOAD SWAP1 PUSH3 0xFFFFFF DUP3 AND DUP3 SUB PUSH2 0x1BA JUMPI JUMP JUMPDEST PUSH1 0x84 CALLDATALOAD SWAP1 PUSH3 0xFFFFFF DUP3 AND DUP3 SUB PUSH2 0x1BA JUMPI JUMP JUMPDEST ISZERO PUSH2 0x18FA JUMPI JUMP JUMPDEST PUSH1 0x40 MLOAD PUSH3 0x461BCD PUSH1 0xE5 SHL DUP2 MSTORE PUSH1 0x20 PUSH1 0x4 DUP3 ADD MSTORE PUSH1 0xA PUSH1 0x24 DUP3 ADD MSTORE PUSH10 0x27B7363C9037BBB732B9 PUSH1 0xB1 SHL PUSH1 0x44 DUP3 ADD MSTORE PUSH1 0x64 SWAP1 REVERT JUMPDEST SWAP1 SWAP2 DUP1 SWAP4 SWAP3 PUSH1 0x1 DUP1 PUSH1 0xA0 SHL SUB DUP1 PUSH0 SWAP5 PUSH2 0x1949 DUP3 DUP8 SLOAD AND CALLER EQ PUSH2 0x18F3 JUMP JUMPDEST PUSH2 0x1958 PUSH1 0xFF PUSH1 0xD SLOAD AND ISZERO PUSH2 0x1CFE JUMP JUMPDEST PUSH1 0x1 SLOAD PUSH1 0x40 DUP1 MLOAD PUSH4 0x95EA7B3 PUSH1 0xE0 SHL DUP2 MSTORE SWAP2 DUP6 AND PUSH1 0x1 PUSH1 0x1 PUSH1 0xA0 SHL SUB AND PUSH1 0x4 DUP4 ADD MSTORE PUSH1 0x24 DUP3 ADD SWAP10 SWAP1 SWAP10 MSTORE PUSH1 0x20 SWAP9 SWAP2 SWAP1 SWAP3 AND SWAP6 SWAP1 SWAP4 SWAP1 SWAP2 DUP9 DUP2 PUSH1 0x44 DUP2 DUP7 DUP12 GAS CALL DUP1 ISZERO PUSH2 0x1B06 JUMPI SWAP1 DUP10 SWAP3 SWAP2 PUSH2 0x1AE9 JUMPI JUMPDEST POP DUP4 PUSH1 0x1 SLOAD AND DUP5 DUP5 DUP8 DUP10 DUP4 DUP3 MLOAD SWAP7 PUSH2 0x19BD DUP9 PUSH2 0x1D3C JUMP JUMPDEST DUP14 DUP9 MSTORE DUP2 DUP10 DUP10 ADD SWAP2 AND SWAP15 DUP16 DUP3 MSTORE DUP5 DUP10 ADD PUSH3 0xFFFFFF DUP1 SWAP3 AND DUP2 MSTORE DUP4 PUSH1 0x60 DUP12 ADD SWAP4 ADDRESS DUP6 MSTORE PUSH1 0x80 DUP13 ADD SWAP7 DUP8 MSTORE PUSH1 0xA0 DUP13 ADD SWAP8 DUP10 DUP10 MSTORE PUSH1 0xC0 DUP14 ADD SWAP10 DUP11 MSTORE MLOAD SWAP15 DUP16 SWAP13 DUP14 PUSH4 0x4E45AAF PUSH1 0xE0 SHL SWAP1 MSTORE MLOAD AND PUSH1 0x4 DUP14 ADD MSTORE MLOAD AND PUSH1 0x24 DUP12 ADD MSTORE MLOAD AND PUSH1 0x44 DUP10 ADD MSTORE MLOAD AND PUSH1 0x64 DUP8 ADD MSTORE MLOAD PUSH1 0x84 DUP7 ADD MSTORE MLOAD PUSH1 0xA4 DUP6 ADD MSTORE MLOAD AND PUSH1 0xC4 DUP4 ADD MSTORE DUP2 DUP5 GAS SWAP3 PUSH1 0xE4 SWAP4 CALL SWAP7 DUP8 ISZERO PUSH2 0x1ADD JUMPI DUP2 SWAP8 PUSH2 0x1A96 JUMPI JUMPDEST POP POP POP PUSH0 DUP1 MLOAD PUSH1 0x20 PUSH2 0x21FF DUP4 CODECOPY DUP2 MLOAD SWAP2 MSTORE SWAP2 PUSH2 0x1A90 DUP7 SWAP3 PUSH2 0x1A6B PUSH1 0x8 SLOAD PUSH2 0x1DAE JUMP JUMPDEST PUSH1 0x8 SSTORE MLOAD SWAP3 DUP4 SWAP3 DUP4 PUSH1 0x60 SWAP1 PUSH0 SWAP3 SWAP5 SWAP4 PUSH1 0x80 DUP3 ADD SWAP6 DUP3 MSTORE PUSH1 0x20 DUP3 ADD MSTORE DUP3 PUSH1 0x40 DUP3 ADD MSTORE ADD MSTORE JUMP JUMPDEST SUB SWAP1 LOG3 SWAP1 JUMP JUMPDEST SWAP1 SWAP2 DUP1 SWAP4 SWAP9 SWAP8 POP DUP2 RETURNDATASIZE DUP4 GT PUSH2 0x1AD6 JUMPI JUMPDEST PUSH2 0x1AB0 DUP2 DUP4 PUSH2 0x1D74 JUMP JUMPDEST DUP2 ADD SUB SLT PUSH2 0x1AD3 JUMPI POP MLOAD SWAP4 SWAP5 DUP2 PUSH2 0x1A90 PUSH0 DUP1 MLOAD PUSH1 0x20 PUSH2 0x21FF DUP4 CODECOPY DUP2 MLOAD SWAP2 MSTORE PUSH2 0x1A49 JUMP JUMPDEST DUP1 REVERT JUMPDEST POP RETURNDATASIZE PUSH2 0x1AA6 JUMP JUMPDEST POP DUP3 MLOAD SWAP1 RETURNDATASIZE SWAP1 DUP3 RETURNDATACOPY RETURNDATASIZE SWAP1 REVERT JUMPDEST PUSH2 0x1AFF SWAP1 DUP4 RETURNDATASIZE DUP6 GT PUSH2 0xAA6 JUMPI PUSH2 0xA97 DUP2 DUP4 PUSH2 0x1D74 JUMP JUMPDEST POP PUSH0 PUSH2 0x19A6 JUMP JUMPDEST DUP6 MLOAD RETURNDATASIZE DUP6 DUP3 RETURNDATACOPY RETURNDATASIZE SWAP1 REVERT JUMPDEST SWAP1 SWAP3 DUP3 PUSH2 0x1B71 SWAP6 SWAP5 PUSH2 0x1B2C PUSH1 0x1 DUP1 PUSH1 0xA0 SHL SUB PUSH0 SLOAD AND CALLER EQ PUSH2 0x18F3 JUMP JUMPDEST PUSH2 0x1B3B PUSH1 0xFF PUSH1 0xD SLOAD AND ISZERO PUSH2 0x1CFE JUMP JUMPDEST PUSH1 0x1 SLOAD PUSH1 0x40 MLOAD PUSH4 0x95EA7B3 PUSH1 0xE0 SHL DUP2 MSTORE PUSH1 0x1 PUSH1 0x1 PUSH1 0xA0 SHL SUB SWAP1 SWAP2 AND PUSH1 0x4 DUP3 ADD MSTORE PUSH1 0x24 DUP2 ADD SWAP3 SWAP1 SWAP3 MSTORE SWAP1 SWAP6 DUP7 SWAP2 SWAP1 DUP3 SWAP1 PUSH1 0x44 DUP3 ADD SWAP1 JUMP JUMPDEST PUSH1 0x20 SWAP9 DUP10 SWAP3 SWAP1 SWAP2 SUB DUP2 PUSH0 PUSH1 0x1 PUSH1 0x1 PUSH1 0xA0 SHL SUB DUP10 AND GAS CALL SWAP2 DUP3 ISZERO PUSH2 0x2C0 JUMPI DUP8 SWAP3 PUSH2 0x1CE1 JUMPI JUMPDEST POP PUSH1 0x1 SLOAD PUSH1 0x40 MLOAD PUSH1 0xE4 SWAP2 PUSH0 SWAP1 PUSH1 0x1 PUSH1 0x1 PUSH1 0xA0 SHL SUB AND PUSH2 0x1BB3 DUP4 PUSH2 0x1D3C JUMP JUMPDEST PUSH1 0x1 PUSH1 0x1 PUSH1 0xA0 SHL SUB DUP9 DUP2 AND DUP5 MSTORE SWAP5 DUP6 AND DUP7 DUP5 ADD DUP2 DUP2 MSTORE PUSH3 0xFFFFFF SWAP12 DUP13 AND PUSH1 0x40 DUP1 DUP8 ADD SWAP2 DUP3 MSTORE ADDRESS PUSH1 0x60 DUP9 ADD SWAP1 DUP2 MSTORE PUSH1 0x80 DUP9 ADD DUP15 DUP2 MSTORE PUSH1 0xA0 DUP10 ADD SWAP13 DUP14 MSTORE PUSH1 0xC0 DUP10 ADD DUP9 DUP2 MSTORE SWAP3 MLOAD PUSH4 0x4E45AAF PUSH1 0xE0 SHL DUP2 MSTORE SWAP9 MLOAD DUP12 AND PUSH1 0x4 DUP11 ADD MSTORE SWAP4 MLOAD DUP11 AND PUSH1 0x24 DUP10 ADD MSTORE SWAP2 MLOAD SWAP1 SWAP14 AND PUSH1 0x44 DUP8 ADD MSTORE MLOAD DUP8 AND PUSH1 0x64 DUP7 ADD MSTORE MLOAD PUSH1 0x84 DUP6 ADD MSTORE SWAP7 MLOAD PUSH1 0xA4 DUP5 ADD MSTORE SWAP9 MLOAD SWAP1 SWAP4 AND PUSH1 0xC4 DUP3 ADD MSTORE SWAP4 SWAP7 DUP5 SWAP3 DUP4 SWAP2 GAS CALL SWAP5 DUP6 ISZERO PUSH2 0x2C0 JUMPI PUSH0 SWAP6 PUSH2 0x1CA4 JUMPI JUMPDEST POP POP DUP4 PUSH0 DUP1 MLOAD PUSH1 0x20 PUSH2 0x21FF DUP4 CODECOPY DUP2 MLOAD SWAP2 MSTORE SWAP2 PUSH2 0x1C6F PUSH1 0x8 SLOAD PUSH2 0x1DAE JUMP JUMPDEST PUSH1 0x8 SSTORE PUSH1 0x40 DUP1 MLOAD SWAP5 DUP6 MSTORE PUSH1 0x20 DUP6 ADD SWAP3 SWAP1 SWAP3 MSTORE PUSH0 SWAP2 DUP5 ADD DUP3 SWAP1 MSTORE PUSH1 0x60 DUP5 ADD SWAP2 SWAP1 SWAP2 MSTORE PUSH1 0x1 PUSH1 0x1 PUSH1 0xA0 SHL SUB AND SWAP2 DUP1 PUSH1 0x80 DUP2 ADD PUSH2 0x1A90 JUMP JUMPDEST SWAP1 DUP1 SWAP3 SWAP6 POP DUP2 RETURNDATASIZE DUP4 GT PUSH2 0x1CDA JUMPI JUMPDEST PUSH2 0x1CBC DUP2 DUP4 PUSH2 0x1D74 JUMP JUMPDEST DUP2 ADD SUB SLT PUSH2 0x1BA JUMPI MLOAD SWAP3 PUSH0 DUP1 MLOAD PUSH1 0x20 PUSH2 0x21FF DUP4 CODECOPY DUP2 MLOAD SWAP2 MSTORE PUSH0 PUSH2 0x1C52 JUMP JUMPDEST POP RETURNDATASIZE PUSH2 0x1CB2 JUMP JUMPDEST PUSH2 0x1CF7 SWAP1 DUP4 RETURNDATASIZE DUP6 GT PUSH2 0xAA6 JUMPI PUSH2 0xA97 DUP2 DUP4 PUSH2 0x1D74 JUMP JUMPDEST POP PUSH0 PUSH2 0x1B95 JUMP JUMPDEST ISZERO PUSH2 0x1D05 JUMPI JUMP JUMPDEST PUSH1 0x40 MLOAD PUSH3 0x461BCD PUSH1 0xE5 SHL DUP2 MSTORE PUSH1 0x20 PUSH1 0x4 DUP3 ADD MSTORE PUSH1 0xF PUSH1 0x24 DUP3 ADD MSTORE PUSH15 0x10DBDB9D1C9858DD081C185D5CD959 PUSH1 0x8A SHL PUSH1 0x44 DUP3 ADD MSTORE PUSH1 0x64 SWAP1 REVERT JUMPDEST PUSH1 0xE0 DUP2 ADD SWAP1 DUP2 LT PUSH8 0xFFFFFFFFFFFFFFFF DUP3 GT OR PUSH2 0x1335 JUMPI PUSH1 0x40 MSTORE JUMP JUMPDEST PUSH1 0x60 DUP2 ADD SWAP1 DUP2 LT PUSH8 0xFFFFFFFFFFFFFFFF DUP3 GT OR PUSH2 0x1335 JUMPI PUSH1 0x40 MSTORE JUMP JUMPDEST SWAP1 PUSH1 0x1F DUP1 NOT SWAP2 ADD AND DUP2 ADD SWAP1 DUP2 LT PUSH8 0xFFFFFFFFFFFFFFFF DUP3 GT OR PUSH2 0x1335 JUMPI PUSH1 0x40 MSTORE JUMP JUMPDEST SWAP1 DUP2 PUSH1 0x20 SWAP2 SUB SLT PUSH2 0x1BA JUMPI MLOAD DUP1 ISZERO ISZERO DUP2 SUB PUSH2 0x1BA JUMPI SWAP1 JUMP JUMPDEST PUSH0 NOT DUP2 EQ PUSH2 0x7E1 JUMPI PUSH1 0x1 ADD SWAP1 JUMP JUMPDEST PUSH0 DUP1 SLOAD PUSH1 0x1 PUSH1 0x1 PUSH1 0xA0 SHL SUB SWAP7 SWAP6 SWAP4 SWAP5 SWAP3 DUP8 SWAP2 PUSH2 0x1DDB SWAP1 DUP4 AND CALLER EQ PUSH2 0x18F3 JUMP JUMPDEST PUSH2 0x1DEA PUSH1 0xFF PUSH1 0xD SLOAD AND ISZERO PUSH2 0x1CFE JUMP JUMPDEST PUSH1 0x3 SLOAD PUSH1 0x40 DUP1 MLOAD PUSH4 0x95EA7B3 PUSH1 0xE0 SHL DUP2 MSTORE SWAP2 DUP11 AND PUSH1 0x1 PUSH1 0x1 PUSH1 0xA0 SHL SUB AND PUSH1 0x4 DUP4 ADD MSTORE PUSH1 0x24 DUP3 ADD DUP7 SWAP1 MSTORE SWAP9 SWAP2 SWAP1 SWAP3 AND SWAP5 SWAP2 PUSH1 0x20 DUP2 DUP1 PUSH1 0x44 DUP2 ADD SUB DUP2 DUP8 DUP11 GAS CALL DUP1 ISZERO PUSH2 0x1F99 JUMPI PUSH2 0x1F7B JUMPI JUMPDEST POP DUP8 MLOAD SWAP1 PUSH2 0x1E40 DUP3 PUSH2 0x1D58 JUMP JUMPDEST PUSH1 0x2 DUP3 MSTORE DUP9 CALLDATASIZE PUSH1 0x20 DUP5 ADD CALLDATACOPY DUP6 PUSH2 0x1E55 DUP4 PUSH2 0x1FA3 JUMP JUMPDEST MSTORE DUP1 PUSH2 0x1E60 DUP4 PUSH2 0x1FC4 JUMP JUMPDEST SWAP8 AND DUP1 SWAP8 MSTORE PUSH1 0x3 SLOAD AND SWAP1 PUSH2 0x12C TIMESTAMP ADD SWAP3 DUP4 TIMESTAMP GT PUSH2 0x1F67 JUMPI SWAP2 PUSH2 0x1EAE SWAP2 DUP6 DUP1 SWAP5 DUP13 MLOAD SWAP7 DUP8 SWAP6 DUP7 SWAP5 DUP6 SWAP4 PUSH4 0x38ED1739 PUSH1 0xE0 SHL DUP6 MSTORE DUP13 PUSH1 0x4 DUP7 ADD MSTORE PUSH1 0x24 DUP6 ADD MSTORE PUSH1 0xA0 PUSH1 0x44 DUP6 ADD MSTORE PUSH1 0xA4 DUP5 ADD SWAP1 PUSH2 0x2071 JUMP JUMPDEST SWAP1 ADDRESS PUSH1 0x64 DUP5 ADD MSTORE PUSH1 0x84 DUP4 ADD MSTORE SUB SWAP3 GAS CALL SWAP1 DUP2 ISZERO PUSH2 0x1F5D JUMPI DUP3 SWAP2 PUSH2 0x1F43 JUMPI JUMPDEST POP DUP1 MLOAD PUSH0 NOT DUP2 ADD SWAP3 SWAP1 DUP4 GT PUSH2 0x1F2F JUMPI POP SWAP2 PUSH2 0x1EFA PUSH2 0x1A90 SWAP7 SWAP8 SWAP3 PUSH0 DUP1 MLOAD PUSH1 0x20 PUSH2 0x21FF DUP4 CODECOPY DUP2 MLOAD SWAP2 MSTORE SWAP5 PUSH2 0x1FD4 JUMP JUMPDEST MLOAD SWAP6 DUP7 SWAP3 PUSH2 0x1F09 PUSH1 0x8 SLOAD PUSH2 0x1DAE JUMP JUMPDEST PUSH1 0x8 SSTORE MLOAD SWAP3 DUP4 SWAP3 DUP4 PUSH1 0x60 SWAP1 PUSH1 0x1 SWAP3 SWAP5 SWAP4 PUSH1 0x80 DUP3 ADD SWAP6 DUP3 MSTORE PUSH1 0x20 DUP3 ADD MSTORE PUSH0 PUSH1 0x40 DUP3 ADD MSTORE ADD MSTORE JUMP JUMPDEST PUSH4 0x4E487B71 PUSH1 0xE0 SHL DUP2 MSTORE PUSH1 0x11 PUSH1 0x4 MSTORE PUSH1 0x24 SWAP1 REVERT JUMPDEST PUSH2 0x1F57 SWAP2 POP RETURNDATASIZE DUP1 DUP5 DUP4 RETURNDATACOPY PUSH2 0x809 DUP2 DUP4 PUSH2 0x1D74 JUMP JUMPDEST PUSH0 PUSH2 0x1ECC JUMP JUMPDEST DUP8 MLOAD RETURNDATASIZE DUP5 DUP3 RETURNDATACOPY RETURNDATASIZE SWAP1 REVERT JUMPDEST PUSH4 0x4E487B71 PUSH1 0xE0 SHL DUP6 MSTORE PUSH1 0x11 PUSH1 0x4 MSTORE PUSH1 0x24 DUP6 REVERT JUMPDEST PUSH2 0x1F92 SWAP1 PUSH1 0x20 RETURNDATASIZE DUP2 GT PUSH2 0xAA6 JUMPI PUSH2 0xA97 DUP2 DUP4 PUSH2 0x1D74 JUMP JUMPDEST POP PUSH0 PUSH2 0x1E33 JUMP JUMPDEST DUP10 MLOAD RETURNDATASIZE DUP7 DUP3 RETURNDATACOPY RETURNDATASIZE SWAP1 REVERT JUMPDEST DUP1 MLOAD ISZERO PUSH2 0x1FB0 JUMPI PUSH1 0x20 ADD SWAP1 JUMP JUMPDEST PUSH4 0x4E487B71 PUSH1 0xE0 SHL PUSH0 MSTORE PUSH1 0x32 PUSH1 0x4 MSTORE PUSH1 0x24 PUSH0 REVERT JUMPDEST DUP1 MLOAD PUSH1 0x1 LT ISZERO PUSH2 0x1FB0 JUMPI PUSH1 0x40 ADD SWAP1 JUMP JUMPDEST DUP1 MLOAD DUP3 LT ISZERO PUSH2 0x1FB0 JUMPI PUSH1 0x20 SWAP2 PUSH1 0x5 SHL ADD ADD SWAP1 JUMP JUMPDEST SWAP2 SWAP1 DUP3 ADD DUP1 SWAP3 GT PUSH2 0x7E1 JUMPI JUMP JUMPDEST SWAP1 PUSH1 0x20 SWAP1 DUP2 DUP4 DUP3 SUB SLT PUSH2 0x1BA JUMPI DUP3 MLOAD PUSH8 0xFFFFFFFFFFFFFFFF SWAP4 DUP5 DUP3 GT PUSH2 0x1BA JUMPI ADD DUP2 PUSH1 0x1F DUP3 ADD SLT ISZERO PUSH2 0x1BA JUMPI DUP1 MLOAD SWAP4 DUP5 GT PUSH2 0x1335 JUMPI DUP4 PUSH1 0x5 SHL SWAP1 PUSH1 0x40 MLOAD SWAP5 PUSH2 0x203F DUP6 DUP5 ADD DUP8 PUSH2 0x1D74 JUMP JUMPDEST DUP6 MSTORE DUP4 DUP1 DUP7 ADD SWAP3 DUP3 ADD ADD SWAP3 DUP4 GT PUSH2 0x1BA JUMPI DUP4 ADD SWAP1 JUMPDEST DUP3 DUP3 LT PUSH2 0x2062 JUMPI POP POP POP POP SWAP1 JUMP JUMPDEST DUP2 MLOAD DUP2 MSTORE SWAP1 DUP4 ADD SWAP1 DUP4 ADD PUSH2 0x2054 JUMP JUMPDEST SWAP1 DUP2 MLOAD DUP1 DUP3 MSTORE PUSH1 0x20 DUP1 DUP1 SWAP4 ADD SWAP4 ADD SWAP2 PUSH0 JUMPDEST DUP3 DUP2 LT PUSH2 0x2090 JUMPI POP POP POP POP SWAP1 JUMP JUMPDEST DUP4 MLOAD PUSH1 0x1 PUSH1 0x1 PUSH1 0xA0 SHL SUB AND DUP6 MSTORE SWAP4 DUP2 ADD SWAP4 SWAP3 DUP2 ADD SWAP3 PUSH1 0x1 ADD PUSH2 0x2082 JUMP JUMPDEST SWAP2 SWAP1 DUP3 SUB SWAP2 DUP3 GT PUSH2 0x7E1 JUMPI JUMP JUMPDEST ISZERO PUSH2 0x20C1 JUMPI JUMP JUMPDEST PUSH1 0x40 MLOAD PUSH3 0x461BCD PUSH1 0xE5 SHL DUP2 MSTORE PUSH1 0x20 PUSH1 0x4 DUP3 ADD MSTORE PUSH1 0x14 PUSH1 0x24 DUP3 ADD MSTORE PUSH20 0x496E73756666696369656E742062616C616E6365 PUSH1 0x60 SHL PUSH1 0x44 DUP3 ADD MSTORE PUSH1 0x64 SWAP1 REVERT JUMPDEST ISZERO PUSH2 0x2104 JUMPI JUMP JUMPDEST PUSH1 0x40 MLOAD PUSH3 0x461BCD PUSH1 0xE5 SHL DUP2 MSTORE PUSH1 0x20 PUSH1 0x4 DUP3 ADD MSTORE PUSH1 0x9 PUSH1 0x24 DUP3 ADD MSTORE PUSH9 0x139BC81C1C9BD99A5D PUSH1 0xBA SHL PUSH1 0x44 DUP3 ADD MSTORE PUSH1 0x64 SWAP1 REVERT JUMPDEST ISZERO PUSH2 0x213C JUMPI JUMP JUMPDEST PUSH1 0x40 MLOAD PUSH3 0x461BCD PUSH1 0xE5 SHL DUP2 MSTORE PUSH1 0x20 PUSH1 0x4 DUP3 ADD MSTORE PUSH1 0x14 PUSH1 0x24 DUP3 ADD MSTORE PUSH20 0x50726F6669742062656C6F77206D696E696D756D PUSH1 0x60 SHL PUSH1 0x44 DUP3 ADD MSTORE PUSH1 0x64 SWAP1 REVERT JUMPDEST SWAP1 ISZERO PUSH2 0x1FB0 JUMPI DUP1 CALLDATALOAD SWAP1 PUSH1 0xDE NOT DUP2 CALLDATASIZE SUB ADD DUP3 SLT ISZERO PUSH2 0x1BA JUMPI ADD SWAP1 JUMP JUMPDEST SWAP2 SWAP1 DUP2 LT ISZERO PUSH2 0x1FB0 JUMPI PUSH1 0x5 SHL DUP2 ADD CALLDATALOAD SWAP1 PUSH1 0xDE NOT DUP2 CALLDATASIZE SUB ADD DUP3 SLT ISZERO PUSH2 0x1BA JUMPI ADD SWAP1 JUMP JUMPDEST CALLDATALOAD PUSH1 0x1 PUSH1 0x1 PUSH1 0xA0 SHL SUB DUP2 AND DUP2 SUB PUSH2 0x1BA JUMPI SWAP1 JUMP JUMPDEST PUSH1 0x1 PUSH1 0x1 PUSH1 0xA0 SHL SUB SWAP2 DUP3 AND DUP2 MSTORE SWAP2 AND PUSH1 0x20 DUP3 ADD MSTORE PUSH3 0xFFFFFF SWAP2 SWAP1 SWAP2 AND PUSH1 0x40 DUP3 ADD MSTORE PUSH1 0x60 DUP2 ADD SWAP2 SWAP1 SWAP2 MSTORE PUSH0 PUSH1 0x80 DUP3 ADD MSTORE PUSH1 0xA0 ADD SWAP1 JUMP INVALID GAS DUP16 0xED 0xBA MULMOD 0xE9 0x4C MSTORE BLOCKHASH PUSH28 0x23C5D1EDA996A34A7F37FFB5B2F7EBD8025B3C93893DA26469706673 PC 0x22 SLT KECCAK256 DUP15 LT 0x5E 0xD9 CALLDATACOPY MOD RETURN SELFDESTRUCT PUSH29 0x778583CBE31E201DFE4A68A300896ADA446EDB1B611CC064736F6C6343 STOP ADDMOD EQ STOP CALLER "},"methodIdentifiers":{"DAI()":"e0bab4c4","USDC()":"89a30271","USDT()":"c54e44eb","WETH()":"ad5c4648","executeCrossDexArbitrage(address,address,uint256,uint8,uint8,uint24,uint256)":"0b1e98cf","executeIntraDexArbitrage(address,address,uint256,uint24,uint24,uint256)":"3f168afe","executeMultiSwap((uint8,address,address,uint256,uint256,uint24,bytes)[],uint256)":"139a2bbb","executeTriangularArbitrage(address,address,address,uint256,uint24,uint24,uint24,uint256)":"9ea29585","getBalances()":"00113e08","getConfig()":"c3f909d4","getStats()":"c59d4847","maxSlippageBps()":"c4aa7395","minProfitWei()":"2dba7804","owner()":"8da5cb5b","paused()":"5c975abb","quoteSushiSwap(address,address,uint256)":"9cc2ef39","quoteUniswapV3(address,address,uint256,uint24)":"9f4dcf75","setMaxSlippageBps(uint256)":"25fc1b3d","setMinProfitWei(uint256)":"4cf0c185","setPaused(bool)":"16c38b3c","setRouters(address,address,address)":"c4ddf1f7","setTokens(address,address,address,address)":"537820bf","simulateArbitrage(address,address,uint256,uint24,uint24)":"8c0f939f","successfulTrades()":"fc213996","sushiRouter()":"6d13582c","swapSushiSwap(address,address,uint256,uint256)":"0d55044b","swapUniswapV3(address,address,uint256,uint256,uint24)":"bc206c37","totalProfitWei()":"079a598b","totalTrades()":"e275c997","transferOwnership(address)":"f2fde38b","uniswapV3Quoter()":"4d20d0f8","uniswapV3Router()":"2c76d7a6","withdrawETH()":"e086e5ec","withdrawToken(address)":"89476069"}}}}}