{
  "_format": "hh3-artifact-1",
  "contractName": "LocksTreasuryLUSD",
  "sourceName": "contracts/DCBTreasury/v3/LocksTreasuryLUSD.sol",
  "abi": [
    {
      "inputs": [
        {
          "internalType": "address",
          "name": "_admin",
          "type": "address"
        },
        {
          "internalType": "address",
          "name": "_usdContract",
          "type": "address"
        }
      ],
      "stateMutability": "nonpayable",
      "type": "constructor"
    },
    {
      "inputs": [],
      "name": "AccessControlBadConfirmation",
      "type": "error"
    },
    {
      "inputs": [
        {
          "internalType": "address",
          "name": "account",
          "type": "address"
        },
        {
          "internalType": "bytes32",
          "name": "neededRole",
          "type": "bytes32"
        }
      ],
      "name": "AccessControlUnauthorizedAccount",
      "type": "error"
    },
    {
      "inputs": [],
      "name": "EnforcedPause",
      "type": "error"
    },
    {
      "inputs": [],
      "name": "ExpectedPause",
      "type": "error"
    },
    {
      "inputs": [],
      "name": "ReentrancyGuardReentrantCall",
      "type": "error"
    },
    {
      "anonymous": false,
      "inputs": [
        {
          "indexed": true,
          "internalType": "bytes32",
          "name": "lockId",
          "type": "bytes32"
        },
        {
          "indexed": true,
          "internalType": "address",
          "name": "lemxOperator",
          "type": "address"
        },
        {
          "indexed": false,
          "internalType": "bytes32",
          "name": "secondSignatureHash",
          "type": "bytes32"
        },
        {
          "indexed": false,
          "internalType": "uint256",
          "name": "timestamp",
          "type": "uint256"
        }
      ],
      "name": "LockAccepted",
      "type": "event"
    },
    {
      "anonymous": false,
      "inputs": [
        {
          "indexed": true,
          "internalType": "bytes32",
          "name": "lockId",
          "type": "bytes32"
        },
        {
          "indexed": true,
          "internalType": "bytes32",
          "name": "mintingId",
          "type": "bytes32"
        },
        {
          "indexed": false,
          "internalType": "uint256",
          "name": "amount",
          "type": "uint256"
        },
        {
          "indexed": false,
          "internalType": "bytes32",
          "name": "lusdTxHash",
          "type": "bytes32"
        },
        {
          "indexed": false,
          "internalType": "bytes32",
          "name": "thirdSignatureHash",
          "type": "bytes32"
        },
        {
          "indexed": true,
          "internalType": "address",
          "name": "mintedBy",
          "type": "address"
        },
        {
          "indexed": false,
          "internalType": "string",
          "name": "publicationCode",
          "type": "string"
        },
        {
          "indexed": false,
          "internalType": "uint256",
          "name": "timestamp",
          "type": "uint256"
        }
      ],
      "name": "LockConsumedForMinting",
      "type": "event"
    },
    {
      "anonymous": false,
      "inputs": [
        {
          "indexed": true,
          "internalType": "bytes32",
          "name": "lockId",
          "type": "bytes32"
        },
        {
          "indexed": false,
          "internalType": "uint256",
          "name": "totalMinted",
          "type": "uint256"
        },
        {
          "indexed": false,
          "internalType": "uint256",
          "name": "timestamp",
          "type": "uint256"
        }
      ],
      "name": "LockFullyConsumed",
      "type": "event"
    },
    {
      "anonymous": false,
      "inputs": [
        {
          "indexed": true,
          "internalType": "bytes32",
          "name": "lockId",
          "type": "bytes32"
        },
        {
          "indexed": false,
          "internalType": "uint256",
          "name": "reserveAmount",
          "type": "uint256"
        },
        {
          "indexed": false,
          "internalType": "uint256",
          "name": "timestamp",
          "type": "uint256"
        }
      ],
      "name": "LockMovedToReserve",
      "type": "event"
    },
    {
      "anonymous": false,
      "inputs": [
        {
          "indexed": true,
          "internalType": "bytes32",
          "name": "lockId",
          "type": "bytes32"
        },
        {
          "indexed": true,
          "internalType": "bytes32",
          "name": "usdInjectionId",
          "type": "bytes32"
        },
        {
          "indexed": false,
          "internalType": "string",
          "name": "authorizationCode",
          "type": "string"
        },
        {
          "indexed": false,
          "internalType": "uint256",
          "name": "amount",
          "type": "uint256"
        },
        {
          "indexed": true,
          "internalType": "address",
          "name": "beneficiary",
          "type": "address"
        },
        {
          "indexed": false,
          "internalType": "uint256",
          "name": "timestamp",
          "type": "uint256"
        }
      ],
      "name": "LockReceived",
      "type": "event"
    },
    {
      "anonymous": false,
      "inputs": [
        {
          "indexed": true,
          "internalType": "bytes32",
          "name": "lockId",
          "type": "bytes32"
        },
        {
          "indexed": false,
          "internalType": "uint256",
          "name": "approvedAmount",
          "type": "uint256"
        },
        {
          "indexed": false,
          "internalType": "uint256",
          "name": "remainingReserve",
          "type": "uint256"
        },
        {
          "indexed": false,
          "internalType": "uint256",
          "name": "timestamp",
          "type": "uint256"
        }
      ],
      "name": "PartialAmountApproved",
      "type": "event"
    },
    {
      "anonymous": false,
      "inputs": [
        {
          "indexed": false,
          "internalType": "address",
          "name": "account",
          "type": "address"
        }
      ],
      "name": "Paused",
      "type": "event"
    },
    {
      "anonymous": false,
      "inputs": [
        {
          "indexed": true,
          "internalType": "bytes32",
          "name": "role",
          "type": "bytes32"
        },
        {
          "indexed": true,
          "internalType": "bytes32",
          "name": "previousAdminRole",
          "type": "bytes32"
        },
        {
          "indexed": true,
          "internalType": "bytes32",
          "name": "newAdminRole",
          "type": "bytes32"
        }
      ],
      "name": "RoleAdminChanged",
      "type": "event"
    },
    {
      "anonymous": false,
      "inputs": [
        {
          "indexed": true,
          "internalType": "bytes32",
          "name": "role",
          "type": "bytes32"
        },
        {
          "indexed": true,
          "internalType": "address",
          "name": "account",
          "type": "address"
        },
        {
          "indexed": true,
          "internalType": "address",
          "name": "sender",
          "type": "address"
        }
      ],
      "name": "RoleGranted",
      "type": "event"
    },
    {
      "anonymous": false,
      "inputs": [
        {
          "indexed": true,
          "internalType": "bytes32",
          "name": "role",
          "type": "bytes32"
        },
        {
          "indexed": true,
          "internalType": "address",
          "name": "account",
          "type": "address"
        },
        {
          "indexed": true,
          "internalType": "address",
          "name": "sender",
          "type": "address"
        }
      ],
      "name": "RoleRevoked",
      "type": "event"
    },
    {
      "anonymous": false,
      "inputs": [
        {
          "indexed": false,
          "internalType": "address",
          "name": "account",
          "type": "address"
        }
      ],
      "name": "Unpaused",
      "type": "event"
    },
    {
      "inputs": [],
      "name": "CHAIN_ID",
      "outputs": [
        {
          "internalType": "uint256",
          "name": "",
          "type": "uint256"
        }
      ],
      "stateMutability": "view",
      "type": "function"
    },
    {
      "inputs": [],
      "name": "CONTRACT_NAME",
      "outputs": [
        {
          "internalType": "string",
          "name": "",
          "type": "string"
        }
      ],
      "stateMutability": "view",
      "type": "function"
    },
    {
      "inputs": [],
      "name": "DEFAULT_ADMIN_ROLE",
      "outputs": [
        {
          "internalType": "bytes32",
          "name": "",
          "type": "bytes32"
        }
      ],
      "stateMutability": "view",
      "type": "function"
    },
    {
      "inputs": [],
      "name": "LEMX_OPERATOR_ROLE",
      "outputs": [
        {
          "internalType": "bytes32",
          "name": "",
          "type": "bytes32"
        }
      ],
      "stateMutability": "view",
      "type": "function"
    },
    {
      "inputs": [],
      "name": "LOCK_MANAGER_ROLE",
      "outputs": [
        {
          "internalType": "bytes32",
          "name": "",
          "type": "bytes32"
        }
      ],
      "stateMutability": "view",
      "type": "function"
    },
    {
      "inputs": [],
      "name": "LUSD_CONTRACT",
      "outputs": [
        {
          "internalType": "address",
          "name": "",
          "type": "address"
        }
      ],
      "stateMutability": "view",
      "type": "function"
    },
    {
      "inputs": [],
      "name": "MINTING_ROLE",
      "outputs": [
        {
          "internalType": "bytes32",
          "name": "",
          "type": "bytes32"
        }
      ],
      "stateMutability": "view",
      "type": "function"
    },
    {
      "inputs": [],
      "name": "VERSION",
      "outputs": [
        {
          "internalType": "string",
          "name": "",
          "type": "string"
        }
      ],
      "stateMutability": "view",
      "type": "function"
    },
    {
      "inputs": [
        {
          "internalType": "bytes32",
          "name": "lockId",
          "type": "bytes32"
        }
      ],
      "name": "acceptLock",
      "outputs": [
        {
          "internalType": "bytes32",
          "name": "secondSignatureHash",
          "type": "bytes32"
        }
      ],
      "stateMutability": "nonpayable",
      "type": "function"
    },
    {
      "inputs": [
        {
          "internalType": "bytes32",
          "name": "lockId",
          "type": "bytes32"
        },
        {
          "internalType": "uint256",
          "name": "amount",
          "type": "uint256"
        }
      ],
      "name": "approvePartialAmount",
      "outputs": [],
      "stateMutability": "nonpayable",
      "type": "function"
    },
    {
      "inputs": [
        {
          "internalType": "string",
          "name": "",
          "type": "string"
        }
      ],
      "name": "authCodeToLock",
      "outputs": [
        {
          "internalType": "bytes32",
          "name": "",
          "type": "bytes32"
        }
      ],
      "stateMutability": "view",
      "type": "function"
    },
    {
      "inputs": [
        {
          "internalType": "bytes32",
          "name": "lockId",
          "type": "bytes32"
        },
        {
          "internalType": "uint256",
          "name": "amount",
          "type": "uint256"
        },
        {
          "internalType": "bytes32",
          "name": "lusdTxHash",
          "type": "bytes32"
        },
        {
          "internalType": "string",
          "name": "publicationCode",
          "type": "string"
        }
      ],
      "name": "consumeForMinting",
      "outputs": [
        {
          "internalType": "bytes32",
          "name": "mintingId",
          "type": "bytes32"
        },
        {
          "internalType": "bytes32",
          "name": "thirdSignatureHash",
          "type": "bytes32"
        }
      ],
      "stateMutability": "nonpayable",
      "type": "function"
    },
    {
      "inputs": [],
      "name": "getAllLockIds",
      "outputs": [
        {
          "internalType": "bytes32[]",
          "name": "",
          "type": "bytes32[]"
        }
      ],
      "stateMutability": "view",
      "type": "function"
    },
    {
      "inputs": [],
      "name": "getAllMintingRecordIds",
      "outputs": [
        {
          "internalType": "bytes32[]",
          "name": "",
          "type": "bytes32[]"
        }
      ],
      "stateMutability": "view",
      "type": "function"
    },
    {
      "inputs": [
        {
          "internalType": "string",
          "name": "authCode",
          "type": "string"
        }
      ],
      "name": "getLockByAuthCode",
      "outputs": [
        {
          "components": [
            {
              "internalType": "bytes32",
              "name": "lockId",
              "type": "bytes32"
            },
            {
              "internalType": "bytes32",
              "name": "usdInjectionId",
              "type": "bytes32"
            },
            {
              "internalType": "string",
              "name": "authorizationCode",
              "type": "string"
            },
            {
              "internalType": "uint256",
              "name": "originalAmount",
              "type": "uint256"
            },
            {
              "internalType": "uint256",
              "name": "availableAmount",
              "type": "uint256"
            },
            {
              "internalType": "uint256",
              "name": "consumedAmount",
              "type": "uint256"
            },
            {
              "internalType": "uint256",
              "name": "reserveAmount",
              "type": "uint256"
            },
            {
              "internalType": "address",
              "name": "beneficiary",
              "type": "address"
            },
            {
              "internalType": "address",
              "name": "dcbTreasury",
              "type": "address"
            },
            {
              "internalType": "address",
              "name": "lemxOperator",
              "type": "address"
            },
            {
              "internalType": "enum LocksTreasuryLUSD.LockStatus",
              "name": "status",
              "type": "uint8"
            },
            {
              "internalType": "bytes32",
              "name": "firstSignatureHash",
              "type": "bytes32"
            },
            {
              "internalType": "bytes32",
              "name": "secondSignatureHash",
              "type": "bytes32"
            },
            {
              "internalType": "bytes32",
              "name": "thirdSignatureHash",
              "type": "bytes32"
            },
            {
              "internalType": "uint256",
              "name": "receivedAt",
              "type": "uint256"
            },
            {
              "internalType": "uint256",
              "name": "acceptedAt",
              "type": "uint256"
            },
            {
              "internalType": "uint256",
              "name": "lastConsumedAt",
              "type": "uint256"
            },
            {
              "internalType": "uint256",
              "name": "fullyConsumedAt",
              "type": "uint256"
            },
            {
              "internalType": "bytes32[]",
              "name": "mintingTxHashes",
              "type": "bytes32[]"
            },
            {
              "internalType": "uint256[]",
              "name": "mintedAmounts",
              "type": "uint256[]"
            }
          ],
          "internalType": "struct LocksTreasuryLUSD.Lock",
          "name": "",
          "type": "tuple"
        }
      ],
      "stateMutability": "view",
      "type": "function"
    },
    {
      "inputs": [
        {
          "internalType": "bytes32",
          "name": "usdInjectionId",
          "type": "bytes32"
        }
      ],
      "name": "getLockByUSDInjection",
      "outputs": [
        {
          "components": [
            {
              "internalType": "bytes32",
              "name": "lockId",
              "type": "bytes32"
            },
            {
              "internalType": "bytes32",
              "name": "usdInjectionId",
              "type": "bytes32"
            },
            {
              "internalType": "string",
              "name": "authorizationCode",
              "type": "string"
            },
            {
              "internalType": "uint256",
              "name": "originalAmount",
              "type": "uint256"
            },
            {
              "internalType": "uint256",
              "name": "availableAmount",
              "type": "uint256"
            },
            {
              "internalType": "uint256",
              "name": "consumedAmount",
              "type": "uint256"
            },
            {
              "internalType": "uint256",
              "name": "reserveAmount",
              "type": "uint256"
            },
            {
              "internalType": "address",
              "name": "beneficiary",
              "type": "address"
            },
            {
              "internalType": "address",
              "name": "dcbTreasury",
              "type": "address"
            },
            {
              "internalType": "address",
              "name": "lemxOperator",
              "type": "address"
            },
            {
              "internalType": "enum LocksTreasuryLUSD.LockStatus",
              "name": "status",
              "type": "uint8"
            },
            {
              "internalType": "bytes32",
              "name": "firstSignatureHash",
              "type": "bytes32"
            },
            {
              "internalType": "bytes32",
              "name": "secondSignatureHash",
              "type": "bytes32"
            },
            {
              "internalType": "bytes32",
              "name": "thirdSignatureHash",
              "type": "bytes32"
            },
            {
              "internalType": "uint256",
              "name": "receivedAt",
              "type": "uint256"
            },
            {
              "internalType": "uint256",
              "name": "acceptedAt",
              "type": "uint256"
            },
            {
              "internalType": "uint256",
              "name": "lastConsumedAt",
              "type": "uint256"
            },
            {
              "internalType": "uint256",
              "name": "fullyConsumedAt",
              "type": "uint256"
            },
            {
              "internalType": "bytes32[]",
              "name": "mintingTxHashes",
              "type": "bytes32[]"
            },
            {
              "internalType": "uint256[]",
              "name": "mintedAmounts",
              "type": "uint256[]"
            }
          ],
          "internalType": "struct LocksTreasuryLUSD.Lock",
          "name": "",
          "type": "tuple"
        }
      ],
      "stateMutability": "view",
      "type": "function"
    },
    {
      "inputs": [
        {
          "internalType": "enum LocksTreasuryLUSD.LockStatus",
          "name": "status",
          "type": "uint8"
        }
      ],
      "name": "getLocksByStatus",
      "outputs": [
        {
          "internalType": "bytes32[]",
          "name": "",
          "type": "bytes32[]"
        }
      ],
      "stateMutability": "view",
      "type": "function"
    },
    {
      "inputs": [
        {
          "internalType": "bytes32",
          "name": "lockId",
          "type": "bytes32"
        }
      ],
      "name": "getMintingRecordsForLock",
      "outputs": [
        {
          "components": [
            {
              "internalType": "bytes32",
              "name": "mintingId",
              "type": "bytes32"
            },
            {
              "internalType": "bytes32",
              "name": "lockId",
              "type": "bytes32"
            },
            {
              "internalType": "uint256",
              "name": "amount",
              "type": "uint256"
            },
            {
              "internalType": "bytes32",
              "name": "lusdTxHash",
              "type": "bytes32"
            },
            {
              "internalType": "address",
              "name": "mintedBy",
              "type": "address"
            },
            {
              "internalType": "uint256",
              "name": "mintedAt",
              "type": "uint256"
            },
            {
              "internalType": "string",
              "name": "publicationCode",
              "type": "string"
            }
          ],
          "internalType": "struct LocksTreasuryLUSD.MintingRecord[]",
          "name": "",
          "type": "tuple[]"
        }
      ],
      "stateMutability": "view",
      "type": "function"
    },
    {
      "inputs": [
        {
          "internalType": "bytes32",
          "name": "role",
          "type": "bytes32"
        }
      ],
      "name": "getRoleAdmin",
      "outputs": [
        {
          "internalType": "bytes32",
          "name": "",
          "type": "bytes32"
        }
      ],
      "stateMutability": "view",
      "type": "function"
    },
    {
      "inputs": [],
      "name": "getStatistics",
      "outputs": [
        {
          "internalType": "uint256",
          "name": "_totalLocked",
          "type": "uint256"
        },
        {
          "internalType": "uint256",
          "name": "_totalAvailableForMinting",
          "type": "uint256"
        },
        {
          "internalType": "uint256",
          "name": "_totalConsumedForLUSD",
          "type": "uint256"
        },
        {
          "internalType": "uint256",
          "name": "_totalLocks",
          "type": "uint256"
        },
        {
          "internalType": "uint256",
          "name": "_totalMintingRecords",
          "type": "uint256"
        }
      ],
      "stateMutability": "view",
      "type": "function"
    },
    {
      "inputs": [
        {
          "internalType": "bytes32",
          "name": "role",
          "type": "bytes32"
        },
        {
          "internalType": "address",
          "name": "account",
          "type": "address"
        }
      ],
      "name": "grantRole",
      "outputs": [],
      "stateMutability": "nonpayable",
      "type": "function"
    },
    {
      "inputs": [
        {
          "internalType": "bytes32",
          "name": "role",
          "type": "bytes32"
        },
        {
          "internalType": "address",
          "name": "account",
          "type": "address"
        }
      ],
      "name": "hasRole",
      "outputs": [
        {
          "internalType": "bool",
          "name": "",
          "type": "bool"
        }
      ],
      "stateMutability": "view",
      "type": "function"
    },
    {
      "inputs": [
        {
          "internalType": "uint256",
          "name": "",
          "type": "uint256"
        }
      ],
      "name": "lockIds",
      "outputs": [
        {
          "internalType": "bytes32",
          "name": "",
          "type": "bytes32"
        }
      ],
      "stateMutability": "view",
      "type": "function"
    },
    {
      "inputs": [
        {
          "internalType": "bytes32",
          "name": "",
          "type": "bytes32"
        }
      ],
      "name": "locks",
      "outputs": [
        {
          "internalType": "bytes32",
          "name": "lockId",
          "type": "bytes32"
        },
        {
          "internalType": "bytes32",
          "name": "usdInjectionId",
          "type": "bytes32"
        },
        {
          "internalType": "string",
          "name": "authorizationCode",
          "type": "string"
        },
        {
          "internalType": "uint256",
          "name": "originalAmount",
          "type": "uint256"
        },
        {
          "internalType": "uint256",
          "name": "availableAmount",
          "type": "uint256"
        },
        {
          "internalType": "uint256",
          "name": "consumedAmount",
          "type": "uint256"
        },
        {
          "internalType": "uint256",
          "name": "reserveAmount",
          "type": "uint256"
        },
        {
          "internalType": "address",
          "name": "beneficiary",
          "type": "address"
        },
        {
          "internalType": "address",
          "name": "dcbTreasury",
          "type": "address"
        },
        {
          "internalType": "address",
          "name": "lemxOperator",
          "type": "address"
        },
        {
          "internalType": "enum LocksTreasuryLUSD.LockStatus",
          "name": "status",
          "type": "uint8"
        },
        {
          "internalType": "bytes32",
          "name": "firstSignatureHash",
          "type": "bytes32"
        },
        {
          "internalType": "bytes32",
          "name": "secondSignatureHash",
          "type": "bytes32"
        },
        {
          "internalType": "bytes32",
          "name": "thirdSignatureHash",
          "type": "bytes32"
        },
        {
          "internalType": "uint256",
          "name": "receivedAt",
          "type": "uint256"
        },
        {
          "internalType": "uint256",
          "name": "acceptedAt",
          "type": "uint256"
        },
        {
          "internalType": "uint256",
          "name": "lastConsumedAt",
          "type": "uint256"
        },
        {
          "internalType": "uint256",
          "name": "fullyConsumedAt",
          "type": "uint256"
        }
      ],
      "stateMutability": "view",
      "type": "function"
    },
    {
      "inputs": [],
      "name": "lusdMintingContract",
      "outputs": [
        {
          "internalType": "address",
          "name": "",
          "type": "address"
        }
      ],
      "stateMutability": "view",
      "type": "function"
    },
    {
      "inputs": [
        {
          "internalType": "uint256",
          "name": "",
          "type": "uint256"
        }
      ],
      "name": "mintingRecordIds",
      "outputs": [
        {
          "internalType": "bytes32",
          "name": "",
          "type": "bytes32"
        }
      ],
      "stateMutability": "view",
      "type": "function"
    },
    {
      "inputs": [
        {
          "internalType": "bytes32",
          "name": "",
          "type": "bytes32"
        }
      ],
      "name": "mintingRecords",
      "outputs": [
        {
          "internalType": "bytes32",
          "name": "mintingId",
          "type": "bytes32"
        },
        {
          "internalType": "bytes32",
          "name": "lockId",
          "type": "bytes32"
        },
        {
          "internalType": "uint256",
          "name": "amount",
          "type": "uint256"
        },
        {
          "internalType": "bytes32",
          "name": "lusdTxHash",
          "type": "bytes32"
        },
        {
          "internalType": "address",
          "name": "mintedBy",
          "type": "address"
        },
        {
          "internalType": "uint256",
          "name": "mintedAt",
          "type": "uint256"
        },
        {
          "internalType": "string",
          "name": "publicationCode",
          "type": "string"
        }
      ],
      "stateMutability": "view",
      "type": "function"
    },
    {
      "inputs": [
        {
          "internalType": "bytes32",
          "name": "lockId",
          "type": "bytes32"
        }
      ],
      "name": "moveToReserve",
      "outputs": [],
      "stateMutability": "nonpayable",
      "type": "function"
    },
    {
      "inputs": [],
      "name": "pause",
      "outputs": [],
      "stateMutability": "nonpayable",
      "type": "function"
    },
    {
      "inputs": [],
      "name": "paused",
      "outputs": [
        {
          "internalType": "bool",
          "name": "",
          "type": "bool"
        }
      ],
      "stateMutability": "view",
      "type": "function"
    },
    {
      "inputs": [
        {
          "internalType": "bytes32",
          "name": "usdInjectionId",
          "type": "bytes32"
        },
        {
          "internalType": "string",
          "name": "authorizationCode",
          "type": "string"
        },
        {
          "internalType": "uint256",
          "name": "amount",
          "type": "uint256"
        },
        {
          "internalType": "address",
          "name": "beneficiary",
          "type": "address"
        },
        {
          "internalType": "bytes32",
          "name": "firstSignatureHash",
          "type": "bytes32"
        }
      ],
      "name": "receiveLock",
      "outputs": [
        {
          "internalType": "bytes32",
          "name": "lockId",
          "type": "bytes32"
        }
      ],
      "stateMutability": "nonpayable",
      "type": "function"
    },
    {
      "inputs": [
        {
          "internalType": "bytes32",
          "name": "role",
          "type": "bytes32"
        },
        {
          "internalType": "address",
          "name": "callerConfirmation",
          "type": "address"
        }
      ],
      "name": "renounceRole",
      "outputs": [],
      "stateMutability": "nonpayable",
      "type": "function"
    },
    {
      "inputs": [
        {
          "internalType": "bytes32",
          "name": "role",
          "type": "bytes32"
        },
        {
          "internalType": "address",
          "name": "account",
          "type": "address"
        }
      ],
      "name": "revokeRole",
      "outputs": [],
      "stateMutability": "nonpayable",
      "type": "function"
    },
    {
      "inputs": [
        {
          "internalType": "address",
          "name": "_lusdMintingContract",
          "type": "address"
        }
      ],
      "name": "setLUSDMintingContract",
      "outputs": [],
      "stateMutability": "nonpayable",
      "type": "function"
    },
    {
      "inputs": [
        {
          "internalType": "bytes4",
          "name": "interfaceId",
          "type": "bytes4"
        }
      ],
      "name": "supportsInterface",
      "outputs": [
        {
          "internalType": "bool",
          "name": "",
          "type": "bool"
        }
      ],
      "stateMutability": "view",
      "type": "function"
    },
    {
      "inputs": [],
      "name": "totalAvailableForMinting",
      "outputs": [
        {
          "internalType": "uint256",
          "name": "",
          "type": "uint256"
        }
      ],
      "stateMutability": "view",
      "type": "function"
    },
    {
      "inputs": [],
      "name": "totalConsumedForLUSD",
      "outputs": [
        {
          "internalType": "uint256",
          "name": "",
          "type": "uint256"
        }
      ],
      "stateMutability": "view",
      "type": "function"
    },
    {
      "inputs": [],
      "name": "totalLocked",
      "outputs": [
        {
          "internalType": "uint256",
          "name": "",
          "type": "uint256"
        }
      ],
      "stateMutability": "view",
      "type": "function"
    },
    {
      "inputs": [],
      "name": "totalLocks",
      "outputs": [
        {
          "internalType": "uint256",
          "name": "",
          "type": "uint256"
        }
      ],
      "stateMutability": "view",
      "type": "function"
    },
    {
      "inputs": [],
      "name": "totalMintingRecords",
      "outputs": [
        {
          "internalType": "uint256",
          "name": "",
          "type": "uint256"
        }
      ],
      "stateMutability": "view",
      "type": "function"
    },
    {
      "inputs": [],
      "name": "unpause",
      "outputs": [],
      "stateMutability": "nonpayable",
      "type": "function"
    },
    {
      "inputs": [],
      "name": "usdContract",
      "outputs": [
        {
          "internalType": "address",
          "name": "",
          "type": "address"
        }
      ],
      "stateMutability": "view",
      "type": "function"
    },
    {
      "inputs": [
        {
          "internalType": "bytes32",
          "name": "",
          "type": "bytes32"
        }
      ],
      "name": "usdInjectionToLock",
      "outputs": [
        {
          "internalType": "bytes32",
          "name": "",
          "type": "bytes32"
        }
      ],
      "stateMutability": "view",
      "type": "function"
    },
    {
      "inputs": [
        {
          "internalType": "bytes32",
          "name": "lockId",
          "type": "bytes32"
        }
      ],
      "name": "verifySignatures",
      "outputs": [
        {
          "internalType": "bool",
          "name": "hasFirstSignature",
          "type": "bool"
        },
        {
          "internalType": "bool",
          "name": "hasSecondSignature",
          "type": "bool"
        },
        {
          "internalType": "bool",
          "name": "hasThirdSignature",
          "type": "bool"
        },
        {
          "internalType": "bytes32",
          "name": "firstSig",
          "type": "bytes32"
        },
        {
          "internalType": "bytes32",
          "name": "secondSig",
          "type": "bytes32"
        },
        {
          "internalType": "bytes32",
          "name": "thirdSig",
          "type": "bytes32"
        }
      ],
      "stateMutability": "view",
      "type": "function"
    }
  ],
  "bytecode": "0x6080346200015757601f6200313238819003918201601f19168301916001600160401b038311848410176200015c57808492604094855283398101031262000157576200005a6020620000528362000172565b920162000172565b60018055906001600160a01b03808216156200012257821615620000dd578062000088620000a79262000187565b50620000948162000207565b50620000a081620002a9565b5062000346565b5060028054610100600160a81b03191660089290921b610100600160a81b0316919091179055604051612d2e9081620003e48239f35b60405162461bcd60e51b815260206004820152601460248201527f496e76616c69642055534420636f6e74726163740000000000000000000000006044820152606490fd5b60405162461bcd60e51b815260206004820152600d60248201526c24b73b30b634b21030b236b4b760991b6044820152606490fd5b600080fd5b634e487b7160e01b600052604160045260246000fd5b51906001600160a01b03821682036200015757565b6001600160a01b031660008181527fad3228b676f7d3cd4284a5443f17f1962b36e491b30a40b2405849e597ba5fb5602052604081205490919060ff166200020357818052816020526040822081835260205260408220600160ff198254161790553391600080516020620031128339815191528180a4600190565b5090565b6001600160a01b031660008181527f4dd7b42a0ff8b6c4586c5cd44d694bb5b01cf10f34ddef5e696299956e1a900d60205260408120549091907f753db81da701e7075f12f3722a1b4ce0463b712c613aaeefd7aa6bbaa1ecb9829060ff16620002a457808352826020526040832082845260205260408320600160ff1982541617905560008051602062003112833981519152339380a4600190565b505090565b6001600160a01b031660008181527fc72f4923d80d4899a2acff54c4aed603c60355f432ef67f3f1d41e32417a5c2660205260408120549091907fedd99e294ddd0fe3e3a4a63edd3ba9feb6b0849e8d729617cb3d61a0d439b32a9060ff16620002a457808352826020526040832082845260205260408320600160ff1982541617905560008051602062003112833981519152339380a4600190565b6001600160a01b031660008181527f8e60bee186a35266000bcc8157baa7431bbc18a7b5341a690df59dae8d057fb460205260408120549091907fa4ec463140e04cceb4c413e3f5471bfb51926664fe46e1ac1de7401783fc6a9a9060ff16620002a457808352826020526040832082845260205260408320600160ff1982541617905560008051602062003112833981519152339380a460019056fe61010080604052600436101561001457600080fd5b60003560e01c90816301ffc9a714612400575080630dbf1afd146123a257806312b8859614612305578063248a9ca3146122d6578063298a840e1461225b5780632f2ff15d1461221c57806336568abe146121d5578063372d6b271461219557806338d44a1b1461215a57806339378446146120d75780633950b82a146120a85780633b1d547a1461203b5780633f4ba83a14611fd15780634d0e7dbf14611f485780635689141214611f2a5780635c975abb14611f07578063614d08f814611eb35780636782b5a714611e8657806373e885c214611c4457806374f8bffa14611af45780638456cb5914611a8757806385e1f4d014611a6a5780638ca2fbad14611a2f57806391d14854146119e257806396456367146118455780639ba408941461177e578063a217fddf14611762578063a2a2b53814611744578063aa7c96441461171b578063b664311a146116ef578063b702d0fd146116c6578063bc4ab7fb1461163f578063bca31b3014610efc578063c5d9d81414610cb3578063d2d18eac14610c95578063d547741f14610c54578063d5efe4be14610acb578063dc820bd914610aad578063dfc5df6d14610a8f578063ed5e843714610932578063ee672fa6146108f7578063f376448d146108c0578063f54ae5cc146102535763ffa1ad741461020457600080fd5b3461024e57600036600319011261024e5761024a604051610224816124db565b60058152640312e302e360dc1b602082015260405191829160208352602083019061267b565b0390f35b600080fd5b3461024e57608036600319011261024e576064356001600160401b03811161024e576102839036906004016126a0565b3360009081527f8e60bee186a35266000bcc8157baa7431bbc18a7b5341a690df59dae8d057fb460205260409020549091907fa4ec463140e04cceb4c413e3f5471bfb51926664fe46e1ac1de7401783fc6a9a9060ff16156108a257506102e8612b1a565b6004356000526009602052604060002091610308600e8401541515612b3d565b60ff600984015460a01c166006811015806107395760018214908115610895575b8115610882575b5061033b9150612b7d565b602435151580610872575b61034f90612bba565b6044351561083a576040516020810190600435825260243560408201526044356060820152828460808301376103c060ca828581013360601b6080820152426094820152754c5553445f4d494e54494e475f5349474e415455524560501b60b48201520360aa810184520182612511565b519020906008546040519060043560208301526024356040830152604435606083015242608083015260a082015260a081528060c08101106001600160401b0360c08301111761074f5760c0810160405260208151910120926104296024356004870154612bf7565b80600487015561043f6024356005880154612aec565b6005870155600686015542600f86015582600c8601556011850154600160401b81101561074f5761047f81600161049b93016011890155601188016128c6565b6044929192359083549060031b91821b91600019901b19161790565b90556012850154600160401b81101561074f576104c78160016104e393016012890155601288016128c6565b6024929192359083549060031b91821b91600019901b19161790565b905560048501546108205760098501805460ff60a01b1916600160a21b179055426010860155600385015460055461051b9190612bf7565b6005555b61052d602435600654612aec565b60065560405161053c816124c0565b848152602081016004358152604082016024358152606083016044358152608084019033825260a0850192428452610575368989612532565b60c0870190815260008b8152600b602052604090209651875594516001870155516002860155516003850155516004840180546001600160a01b0319166001600160a01b0392909216919091179055516005830155518051906001600160401b03821161074f576105e9600684015461259b565b601f81116107e0575b50602090601f8311600114610770576006929160009183610765575b50508160011b916000199060031b1c1916179101555b600c54600160401b81101561074f5784918261066361064c84600161069b9601600c5561288f565b819391549060031b91821b91600019901b19161790565b9055610670600854612ac7565b600855604051936024358552604435602086015285604086015260a0606086015260a0850191612af9565b4260808401527fa56f8ee0ad4b643bba315c85fa8ffa67f10257e31ce9d83a98f393406ab19db0339380600435930390a460ff600984015460a01c16926006841015610739576004604094146106fd575b506001805582519182526020820152f35b6005015483519081524260208201527faa90eb419d27d3cd7b0f67d0bef2d5fcaf4a3191cec1c559bbb1306ab90d83c68460043592a2836106ec565b634e487b7160e01b600052602160045260246000fd5b634e487b7160e01b600052604160045260246000fd5b01519050898061060e565b906006840160005260206000209160005b601f19851681106107c85750918391600193600695601f198116106107af575b505050811b01910155610624565b015160001960f88460031b161c191690558980806107a1565b91926020600181928685015181550194019201610781565b61081090600685016000526020600020601f850160051c81019160208610610816575b601f0160051c0190612ab0565b886105f2565b9091508190610803565b60098501805460ff60a01b1916600360a01b17905561051f565b60405162461bcd60e51b815260206004820152601060248201526f1516081a185cda081c995c5d5a5c995960821b6044820152606490fd5b5060048301546024351115610346565b905061073957600361033b911485610330565b5050600281146000610329565b6044906040519063e2517d3f60e01b82523360048301526024820152fd5b3461024e57602036600319011261024e57600435600c5481101561024e576108e960209161288f565b90546040519160031b1c8152f35b3461024e57600036600319011261024e5760206040517f753db81da701e7075f12f3722a1b4ce0463b712c613aaeefd7aa6bbaa1ecb9828152f35b3461024e57602036600319011261024e5760043560005260096020526040600020805460c0526001810154610969600283016125d5565b60e05260038201546080526004820154916005810154600682015460018060a01b0360078401541660018060a01b036008850154166009850154610a4e600a87015491600b88015493600c89015495600d8a015497600e8b0154996010600f8d01549c01549c6040518060a05260c0519052602060a05101526109fc61024080604060a051015260a0510160e05161267b565b9d608051606060a0510152608060a051015260a08051015260c060a051015260e060a051015261010060a051015260018060a01b03811661012060a051015260ff61014060a051019160a01c166126cd565b61016060a051015261018060a05101526101a060a05101526101c060a05101526101e060a051015261020060a051015261022060a051015260a05180910390f35b3461024e57600036600319011261024e576020600854604051908152f35b3461024e57600036600319011261024e576020600554604051908152f35b3461024e5760208060031936011261024e57610ae5612c04565b50600435600052600e815260406000205460005260098152604060002060405190610b0f826124a4565b8054825260126001918281015485850152610b2c600282016125d5565b60408501526003810154606085015260048101546080850152600581015460a0850152600681015460c0850152610b9a60ff60018060a01b038060078501541660e088015280600885015416610100880152600984015490811661012088015260a01c166101408601612aa4565b600a810154610160850152600b810154610180850152600c8101546101a0850152600d8101546101c0850152600e8101546101e0850152600f8101546102008501526010810154610220850152610bf360118201612c95565b6102408501520192604051918282865491828152019560005282600020926000905b828210610c3f5761024a8787610c2d818c0382612511565b610260820152604051918291826126da565b84548852968701969383019390830190610c15565b3461024e57604036600319011261024e57610c93600435610c7361248e565b90806000526000602052610c8e600160406000200154612974565b612a18565b005b3461024e57600036600319011261024e576020600754604051908152f35b3461024e5760208060031936011261024e576004358060005260098252601160406000200154610ce281612a8d565b90610cf06040519283612511565b808252601f19610cff82612a8d565b018460005b828110610eb65750505060008093600c54945b858110610dcf575b5050505090506040519082820192808352815180945260408301938160408260051b8601019301916000955b828710610d585785850386f35b909192938280610dbf600193603f198a820301865260e089519182518152848301518582015260408301516040820152606080840151908201526080878060a01b0381850151169082015260a080840151908201528160c08094015193820152019061267b565b9601920196019592919092610d4b565b610dd88161288f565b9054600391821b1c600052600b9081895260019184836040600020015414610e0c575b505050610e0790612ac7565b610d17565b600684969392610e8092610e22610ea09761288f565b905490831b1c6000528c5260406000209060405194610e40866124c0565b825486528201548d86015260028201546040860152810154606085015260048101546001600160a01b03166080850152600581015460a0850152016125d5565b60c0820152610e8f8288612ce4565b52610e9a8187612ce4565b50612ac7565b9183831015610eb157878080610dfb565b610d1f565b604051610ec2816124c0565b6000815260008382015260006040820152606060008183015260006080830152600060a083015260c0820152828287010152018590610d04565b3461024e5760a036600319011261024e576024356001600160401b03811161024e57610f2c9036906004016126a0565b606480359291906001600160a01b038416840361024e573360009081527fc72f4923d80d4899a2acff54c4aed603c60355f432ef67f3f1d41e32417a5c2660205260409020547fedd99e294ddd0fe3e3a4a63edd3ba9feb6b0849e8d729617cb3d61a0d439b32a9060ff16156108a25750610fa5612b1a565b604490813515611608576001600160a01b038516156115d05782156115995760405183858237602081858101600d8152030190205461155e57600435600052600e60205260406000205461151c575060075460405161104860b482602081019460043586528789604084013787820190873560408301526001600160601b03198b60601b1660608301524260748301526094820152036094810184520182612511565b51902092604051611058816124f6565b60008152604051611068816124f6565b6000815260405191611079836124a4565b868352600435602084015261108f368786612532565b60408401528435606084015284356080840152600060a0840152600060c084015260018060a01b03881660e08401523361010084015260006101208401526000610140840152608435610160840152600061018084015260006101a0840152426101c084015260006101e0840152600061020084015260006102208401526102408301526102608201528460005260096020526040600020815181556020820151600182015560408201518051906001600160401b03821161074f57819061115a600285015461259b565b601f81116114e7575b50602090601f83116001146114755760009261146a575b50508160011b916000199060031b1c19161760028201555b606082015160038201556080820151600482015560a0820151600582015560c082015160068083019190915560e08301516007830180546001600160a01b03199081166001600160a01b0393841617909155610100850151600885018054909216908316179055610120840151600984018054610140870151919490939290921691811015610739576001600160a81b03199092161760a09190911b60ff60a01b16179055610160820151600a820155610180820151600b8201556101a0820151600c8201556101c0820151600d8201556101e0820151600e820155610200820151600f82015561022082015160108201556102408201518051906001600160401b03821161074f57600160401b821161074f57601183015482601185015580831061143d575b5060200160118301600052602060002060005b838110611429575050505060126102609101910151908151916001600160401b03831161074f57600160401b831161074f57602090825484845580851061140c575b500190600052602060002060005b8381106113f85750505050600a5490600160401b82101561074f576020956113cd7fd76dd9d717f36d464a01065e766df46a2a0fdf6b9787fd1fdccaa43c1425c3d2928761137461064c876001849901600a55612842565b905584604051888382378a818a8101600d81520301902055600435600052600e8952846040600020556113a8600754612ac7565b6007556113b88635600454612aec565b60045560405196606088526060880191612af9565b9335858801524260408601526001600160a01b0316936004359381900390a460018055604051908152f35b60019060208451940193818401550161131c565b611423908460005285846000209182019101612ab0565b8961130e565b6001906020845194019381840155016112cc565b601184016000526020600020908382015b818301811061145e5750506112b9565b6000815560010161144e565b01519050898061117a565b9250600284016000526020600020906000935b601f19841685106114cc576001945083601f198116106114b3575b505050811b016002820155611192565b015160001960f88460031b161c191690558980806114a3565b81810151835560209485019460019093019290910190611488565b61151690600286016000526020600020601f850160051c8101916020861061081657601f0160051c0190612ab0565b8a611163565b907f496e6a656374696f6e20616c72656164792072656365697665640000000000006040519162461bcd60e51b835260206004840152601a6024840152820152fd5b9075105d5d1a0818dbd91948185b1c9958591e481d5cd95960521b6040519162461bcd60e51b83526020600484015260166024840152820152fd5b9071105d5d1a0818dbd919481c995c5d5a5c995960721b6040519162461bcd60e51b83526020600484015260126024840152820152fd5b9072496e76616c69642062656e656669636961727960681b6040519162461bcd60e51b83526020600484015260136024840152820152fd5b90710416d6f756e74206d757374206265203e20360741b6040519162461bcd60e51b83526020600484015260126024840152820152fd5b3461024e57600036600319011261024e5760405180600a5491828152602080910192600a6000527fc65a7bb8d6351c1cf70c95a316cc6a92839c986682d98bc35f958f4883f9d2a8916000905b8282106116af5761024a856116a381890382612511565b60405191829182612453565b83548652948501946001938401939091019061168c565b3461024e57600036600319011261024e576003546040516001600160a01b039091168152602090f35b3461024e57602036600319011261024e57600435600052600e6020526020604060002054604051908152f35b3461024e57602036600319011261024e57600435600a5481101561024e576108e9602091612842565b3461024e57600036600319011261024e576020600654604051908152f35b3461024e57600036600319011261024e57602060405160008152f35b3461024e57604036600319011261024e5760043560243561179d6128de565b816000526009602052604060002060ff600982015460a01c16916006831015610739576118198160046060946118008760027fb95f3f24f3c71e8901b9a36962184946af71ae01e387641681a9356b83b17094991490811561183a575b50612b7d565b8215158061182d575b61181290612bba565b0154612bf7565b6040519182526020820152426040820152a2005b5080820154831115611809565b60039150148a6117fa565b3461024e5760208060031936011261024e576004356001600160401b03811161024e57611877829136906004016126a0565b9190611881612c04565b508260405193849283378101600d81520301902054600052600981526040600020604051906118af826124a4565b80548252601260019182810154858501526118cc600282016125d5565b60408501526003810154606085015260048101546080850152600581015460a0850152600681015460c085015261193a60ff60018060a01b038060078501541660e088015280600885015416610100880152600984015490811661012088015260a01c166101408601612aa4565b600a810154610160850152600b810154610180850152600c8101546101a0850152600d8101546101c0850152600e8101546101e0850152600f810154610200850152601081015461022085015261199360118201612c95565b6102408501520192604051918282865491828152019560005282600020926000905b8282106119cd5761024a8787610c2d818c0382612511565b845488529687019693830193908301906119b5565b3461024e57604036600319011261024e576119fb61248e565b600435600052600060205260406000209060018060a01b0316600052602052602060ff604060002054166040519015158152f35b3461024e57600036600319011261024e5760206040517fedd99e294ddd0fe3e3a4a63edd3ba9feb6b0849e8d729617cb3d61a0d439b32a8152f35b3461024e57600036600319011261024e5760206040516103ed8152f35b3461024e57600036600319011261024e57611aa061293a565b60025460ff8116611ae25760019060ff1916176002557f62e78cea01bee320cd4e420270b5ea74000d11b0c9f74754ebdbfc544b05a2586020604051338152a1005b60405163d93c066560e01b8152600490fd5b3461024e5760208060031936011261024e57600660043581811015928361024e57600092600092600a54935b848110611be75750611b3185612a8d565b94611b3f6040519687612511565b808652611b4e601f1991612a8d565b01368487013760009160005b858110611b6f576040518061024a8982612453565b611b7881612842565b9054600391821b1c6000528860ff60098089526040600020015460a01c16906107395783811015610739578414611bb9575b50611bb490612ac7565b611b5a565b8194611be091611bcb611bb494612842565b9054911b1c611bda828b612ce4565b52612ac7565b9390611baa565b611bf081612842565b90549060031b1c6000528660ff60098087526040600020015460a01c16906107395783811015610739578214611c2f575b611c2a90612ac7565b611b20565b94611c3c611c2a91612ac7565b959050611c21565b3461024e5760208060031936011261024e57600435611c616128de565b611c69612b1a565b8060005260098252604060002090600d82015415611e5057600982019182549160ff8360a01c16600681101561073957611e185760028201916003810154906007810154956040518881019085825289600099885498611cc88a61259b565b9060019a8b81169081600014611df25750600114611db8575b5050828b611d4a936081938a611d799c9d9e9f526001600160601b03199060601b16908201523360601b60348201524260488201527f4c454d585f414343455054414e43455f5349474e4154555245000000000000006068820152036061810184520182612511565b5190206001600160a81b03199097163317600160a01b179055600b810186905542600e90910155600554612aec565b6005556040519083825242858301527fb61137d1aa96d5bcf2bae4f51e85a10e5d477de29a787f6799c123650ac9fe5460403393a38055604051908152f35b90919b50600052816000206000905b828210611dde575050820160400199826081611ce1565b805485830160400152908301908a01611dc7565b60ff191660408088019190915283151590930286019092019c5084915060819050611ce1565b60405162461bcd60e51b815260048101869052601060248201526f4c6f636b206e6f742070656e64696e6760801b6044820152606490fd5b60405162461bcd60e51b815260048101849052600e60248201526d131bd8dac81b9bdd08199bdd5b9960921b6044820152606490fd5b3461024e57600036600319011261024e5760025460405160089190911c6001600160a01b03168152602090f35b3461024e57600036600319011261024e5761024a604051611ed3816124db565b6013815272131bd8dadcc8151c99585cdd5c9e48131554d1606a1b602082015260405191829160208352602083019061267b565b3461024e57600036600319011261024e57602060ff600254166040519015158152f35b3461024e57600036600319011261024e576020600454604051908152f35b3461024e57602036600319011261024e57600435600052600b6020526040600020805461024a600183015492600281015490600381015460018060a01b0360048301541690611f9e6006600585015494016125d5565b936040519788978852602088015260408701526060860152608085015260a084015260e060c084015260e083019061267b565b3461024e57600036600319011261024e57611fea61293a565b60025460ff8116156120295760ff19166002557f5db9ee0a495bf2e6ff9c91a7834c1ba4fdd244a5e8aa4e537bd38aeae4b073aa6020604051338152a1005b604051638dfc202b60e01b8152600490fd5b3461024e57602036600319011261024e576004356001600160401b03811161024e573660238201121561024e57612095602061208281933690602481600401359101612532565b8160405193828580945193849201612578565b8101600d81520301902054604051908152f35b3461024e57600036600319011261024e576020604051738de60f88f19dad42dde0d9ed2eeba68269722a998152f35b3461024e57602036600319011261024e576004356001600160a01b0381169081900361024e5761210561293a565b8015612123576001600160601b0360a01b6003541617600355600080f35b60405162461bcd60e51b815260206004820152600f60248201526e496e76616c6964206164647265737360881b6044820152606490fd5b3461024e57600036600319011261024e5760206040517fa4ec463140e04cceb4c413e3f5471bfb51926664fe46e1ac1de7401783fc6a9a8152f35b3461024e57600036600319011261024e5760a060045460055460065460075490600854926040519485526020850152604084015260608301526080820152f35b3461024e57604036600319011261024e576121ee61248e565b336001600160a01b0382160361220a57610c9390600435612a18565b60405163334bd91960e11b8152600490fd5b3461024e57604036600319011261024e57610c9360043561223b61248e565b90806000526000602052612256600160406000200154612974565b61299a565b3461024e57600036600319011261024e5760405180600c5491828152602080910192600c6000527fdf6966c971051c3d54ec59162606531493a51404a002842f56009d7e5cf4a8c7916000905b8282106122bf5761024a856116a381890382612511565b8354865294850194600193840193909101906122a8565b3461024e57602036600319011261024e5760043560005260006020526020600160406000200154604051908152f35b3461024e57602036600319011261024e576004356123216128de565b8060005260096020526040600020600981019081549060ff8260a01c16906006821015610739577f2a3d44681d14cafaf6fdf77e17ea5dadb6769d43e01085c69ea84224df9b1abb9360409361237b600160069514612b3d565b60ff60a01b1916600160a11b179055600481015491018190558151908152426020820152a2005b3461024e57602036600319011261024e57600435600052600960205260c06040600020600a81015490600c600b82015491015490604051928015158452811515602085015282151560408501526060840152608083015260a0820152f35b3461024e57602036600319011261024e576004359063ffffffff60e01b821680920361024e57602091637965db0b60e01b8114908115612442575b5015158152f35b6301ffc9a760e01b1490508361243b565b6020908160408183019282815285518094520193019160005b82811061247a575050505090565b83518552938101939281019260010161246c565b602435906001600160a01b038216820361024e57565b61028081019081106001600160401b0382111761074f57604052565b60e081019081106001600160401b0382111761074f57604052565b604081019081106001600160401b0382111761074f57604052565b602081019081106001600160401b0382111761074f57604052565b90601f801991011681019081106001600160401b0382111761074f57604052565b9291926001600160401b03821161074f576040519161255b601f8201601f191660200184612511565b82948184528183011161024e578281602093846000960137010152565b60005b83811061258b5750506000910152565b818101518382015260200161257b565b90600182811c921680156125cb575b60208310146125b557565b634e487b7160e01b600052602260045260246000fd5b91607f16916125aa565b90604051918260008254926125e98461259b565b9081845260019485811690816000146126585750600114612615575b505061261392500383612511565b565b9093915060005260209081600020936000915b81831061264057505061261393508201013880612605565b85548884018501529485019487945091830191612628565b91505061261394506020925060ff191682840152151560051b8201013880612605565b9060209161269481518092818552858086019101612578565b601f01601f1916010190565b9181601f8401121561024e578235916001600160401b03831161024e576020838186019501011161024e57565b9060068210156107395752565b60209081815282518282015281830151604082015260408301519061270d610280928360608401526102a083019061267b565b9160608501516080830152608085015160a083015260a085015160c083015260c085015160e083015260018060a01b03808060e088015116610100908186015287015116610120908185015286015116610140908184015285015161277861016091828501906126cd565b85015161018090818401528501516101a090818401528501516101c090818401528501516101e0908184015285015161020090818401528501516102209081840152850151610240908184015285015192601f19956102609187858203018386015286808751928381520196019060005b81811061282e575050500151948284030191015281808451928381520193019160005b82811061281a575050505090565b83518552938101939281019260010161280c565b8251885296880196918801916001016127e9565b600a5481101561287957600a6000527fc65a7bb8d6351c1cf70c95a316cc6a92839c986682d98bc35f958f4883f9d2a80190600090565b634e487b7160e01b600052603260045260246000fd5b600c5481101561287957600c6000527fdf6966c971051c3d54ec59162606531493a51404a002842f56009d7e5cf4a8c70190600090565b80548210156128795760005260206000200190600090565b3360009081527f4dd7b42a0ff8b6c4586c5cd44d694bb5b01cf10f34ddef5e696299956e1a900d60205260409020547f753db81da701e7075f12f3722a1b4ce0463b712c613aaeefd7aa6bbaa1ecb9829060ff16156108a25750565b3360009081527fad3228b676f7d3cd4284a5443f17f1962b36e491b30a40b2405849e597ba5fb5602052604081205460ff16156108a25750565b80600052600060205260406000203360005260205260ff60406000205416156108a25750565b9060009180835282602052604083209160018060a01b03169182845260205260ff60408420541615600014612a1357808352826020526040832082845260205260408320600160ff198254161790557f2f8788117e7eff1d82e926ec794901d17c78024a50270940304540a733656f0d339380a4600190565b505090565b9060009180835282602052604083209160018060a01b03169182845260205260ff604084205416600014612a135780835282602052604083208284526020526040832060ff1981541690557ff6391f5c32d9c69d2a47ea670b442974b53935d1edc7fd64eb21e047a839171b339380a4600190565b6001600160401b03811161074f5760051b60200190565b60068210156107395752565b818110612abb575050565b60008155600101612ab0565b6000198114612ad65760010190565b634e487b7160e01b600052601160045260246000fd5b91908201809211612ad657565b908060209392818452848401376000828201840152601f01601f1916010190565b600260015414612b2b576002600155565b604051633ee5aeb560e01b8152600490fd5b15612b4457565b60405162461bcd60e51b8152602060048201526011602482015270131bd8dac81b9bdd081858d8d95c1d1959607a1b6044820152606490fd5b15612b8457565b60405162461bcd60e51b815260206004820152600e60248201526d496e76616c69642073746174757360901b6044820152606490fd5b15612bc157565b60405162461bcd60e51b815260206004820152600e60248201526d125b9d985b1a5908185b5bdd5b9d60921b6044820152606490fd5b91908203918211612ad657565b60405190612c11826124a4565b606061026083600080825280602083015283604083015280848301528060808301528060a08301528060c08301528060e08301528061010083015280610120830152806101408301528061016083015280610180830152806101a0830152806101c0830152806101e083015280610200830152610220820152826102408201520152565b9060405191828154918282526020928383019160005283600020936000905b828210612cca5750505061261392500383612511565b855484526001958601958895509381019390910190612cb4565b80518210156128795760209160051b01019056fea264697066735822122009e851d86a9ead9005aba3b2fdf9f0e195703aabfabeeeda241a010932e2607864736f6c634300081400332f8788117e7eff1d82e926ec794901d17c78024a50270940304540a733656f0d",
  "linkReferences": {},
  "deployedLinkReferences": {},
  "immutableReferences": {},
  "inputSourceName": "project/contracts/DCBTreasury/v3/LocksTreasuryLUSD.sol",
  "buildInfoId": "solc-0_8_20-a1c61539025f0654ad3a75bdb2b55239eb68e7f3"
}