{
  "_format": "hh3-artifact-1",
  "contractName": "IssuerController",
  "sourceName": "contracts/DCBTreasury/IssuerController.sol",
  "abi": [
    {
      "inputs": [
        {
          "internalType": "address",
          "name": "_lockBox",
          "type": "address"
        },
        {
          "internalType": "address",
          "name": "_lusd",
          "type": "address"
        }
      ],
      "stateMutability": "nonpayable",
      "type": "constructor"
    },
    {
      "inputs": [],
      "name": "AccessControlBadConfirmation",
      "type": "error"
    },
    {
      "inputs": [
        {
          "internalType": "address",
          "name": "account",
          "type": "address"
        },
        {
          "internalType": "bytes32",
          "name": "neededRole",
          "type": "bytes32"
        }
      ],
      "name": "AccessControlUnauthorizedAccount",
      "type": "error"
    },
    {
      "anonymous": false,
      "inputs": [
        {
          "indexed": false,
          "internalType": "uint256",
          "name": "oldRate",
          "type": "uint256"
        },
        {
          "indexed": false,
          "internalType": "uint256",
          "name": "newRate",
          "type": "uint256"
        }
      ],
      "name": "FeeRateUpdated",
      "type": "event"
    },
    {
      "anonymous": false,
      "inputs": [
        {
          "indexed": true,
          "internalType": "bytes32",
          "name": "lockId",
          "type": "bytes32"
        },
        {
          "indexed": true,
          "internalType": "address",
          "name": "recipient",
          "type": "address"
        },
        {
          "indexed": false,
          "internalType": "uint256",
          "name": "amount",
          "type": "uint256"
        },
        {
          "indexed": false,
          "internalType": "uint256",
          "name": "fee",
          "type": "uint256"
        }
      ],
      "name": "LUSDIssued",
      "type": "event"
    },
    {
      "anonymous": false,
      "inputs": [
        {
          "indexed": true,
          "internalType": "bytes32",
          "name": "role",
          "type": "bytes32"
        },
        {
          "indexed": true,
          "internalType": "bytes32",
          "name": "previousAdminRole",
          "type": "bytes32"
        },
        {
          "indexed": true,
          "internalType": "bytes32",
          "name": "newAdminRole",
          "type": "bytes32"
        }
      ],
      "name": "RoleAdminChanged",
      "type": "event"
    },
    {
      "anonymous": false,
      "inputs": [
        {
          "indexed": true,
          "internalType": "bytes32",
          "name": "role",
          "type": "bytes32"
        },
        {
          "indexed": true,
          "internalType": "address",
          "name": "account",
          "type": "address"
        },
        {
          "indexed": true,
          "internalType": "address",
          "name": "sender",
          "type": "address"
        }
      ],
      "name": "RoleGranted",
      "type": "event"
    },
    {
      "anonymous": false,
      "inputs": [
        {
          "indexed": true,
          "internalType": "bytes32",
          "name": "role",
          "type": "bytes32"
        },
        {
          "indexed": true,
          "internalType": "address",
          "name": "account",
          "type": "address"
        },
        {
          "indexed": true,
          "internalType": "address",
          "name": "sender",
          "type": "address"
        }
      ],
      "name": "RoleRevoked",
      "type": "event"
    },
    {
      "inputs": [],
      "name": "DEFAULT_ADMIN_ROLE",
      "outputs": [
        {
          "internalType": "bytes32",
          "name": "",
          "type": "bytes32"
        }
      ],
      "stateMutability": "view",
      "type": "function"
    },
    {
      "inputs": [],
      "name": "ISSUER_OPERATOR_ROLE",
      "outputs": [
        {
          "internalType": "bytes32",
          "name": "",
          "type": "bytes32"
        }
      ],
      "stateMutability": "view",
      "type": "function"
    },
    {
      "inputs": [],
      "name": "getAllIssuances",
      "outputs": [
        {
          "components": [
            {
              "internalType": "bytes32",
              "name": "lockId",
              "type": "bytes32"
            },
            {
              "internalType": "address",
              "name": "recipient",
              "type": "address"
            },
            {
              "internalType": "uint256",
              "name": "amount",
              "type": "uint256"
            },
            {
              "internalType": "uint256",
              "name": "fee",
              "type": "uint256"
            },
            {
              "internalType": "uint256",
              "name": "timestamp",
              "type": "uint256"
            }
          ],
          "internalType": "struct IssuerController.Issuance[]",
          "name": "",
          "type": "tuple[]"
        }
      ],
      "stateMutability": "view",
      "type": "function"
    },
    {
      "inputs": [
        {
          "internalType": "uint256",
          "name": "index",
          "type": "uint256"
        }
      ],
      "name": "getIssuance",
      "outputs": [
        {
          "components": [
            {
              "internalType": "bytes32",
              "name": "lockId",
              "type": "bytes32"
            },
            {
              "internalType": "address",
              "name": "recipient",
              "type": "address"
            },
            {
              "internalType": "uint256",
              "name": "amount",
              "type": "uint256"
            },
            {
              "internalType": "uint256",
              "name": "fee",
              "type": "uint256"
            },
            {
              "internalType": "uint256",
              "name": "timestamp",
              "type": "uint256"
            }
          ],
          "internalType": "struct IssuerController.Issuance",
          "name": "",
          "type": "tuple"
        }
      ],
      "stateMutability": "view",
      "type": "function"
    },
    {
      "inputs": [],
      "name": "getIssuanceCount",
      "outputs": [
        {
          "internalType": "uint256",
          "name": "",
          "type": "uint256"
        }
      ],
      "stateMutability": "view",
      "type": "function"
    },
    {
      "inputs": [
        {
          "internalType": "bytes32",
          "name": "role",
          "type": "bytes32"
        }
      ],
      "name": "getRoleAdmin",
      "outputs": [
        {
          "internalType": "bytes32",
          "name": "",
          "type": "bytes32"
        }
      ],
      "stateMutability": "view",
      "type": "function"
    },
    {
      "inputs": [
        {
          "internalType": "bytes32",
          "name": "role",
          "type": "bytes32"
        },
        {
          "internalType": "address",
          "name": "account",
          "type": "address"
        }
      ],
      "name": "grantRole",
      "outputs": [],
      "stateMutability": "nonpayable",
      "type": "function"
    },
    {
      "inputs": [
        {
          "internalType": "bytes32",
          "name": "role",
          "type": "bytes32"
        },
        {
          "internalType": "address",
          "name": "account",
          "type": "address"
        }
      ],
      "name": "hasRole",
      "outputs": [
        {
          "internalType": "bool",
          "name": "",
          "type": "bool"
        }
      ],
      "stateMutability": "view",
      "type": "function"
    },
    {
      "inputs": [],
      "name": "issuanceFeeRate",
      "outputs": [
        {
          "internalType": "uint256",
          "name": "",
          "type": "uint256"
        }
      ],
      "stateMutability": "view",
      "type": "function"
    },
    {
      "inputs": [
        {
          "internalType": "uint256",
          "name": "",
          "type": "uint256"
        }
      ],
      "name": "issuances",
      "outputs": [
        {
          "internalType": "bytes32",
          "name": "lockId",
          "type": "bytes32"
        },
        {
          "internalType": "address",
          "name": "recipient",
          "type": "address"
        },
        {
          "internalType": "uint256",
          "name": "amount",
          "type": "uint256"
        },
        {
          "internalType": "uint256",
          "name": "fee",
          "type": "uint256"
        },
        {
          "internalType": "uint256",
          "name": "timestamp",
          "type": "uint256"
        }
      ],
      "stateMutability": "view",
      "type": "function"
    },
    {
      "inputs": [
        {
          "internalType": "bytes32",
          "name": "lockId",
          "type": "bytes32"
        },
        {
          "internalType": "address",
          "name": "recipient",
          "type": "address"
        },
        {
          "internalType": "uint256",
          "name": "amount",
          "type": "uint256"
        }
      ],
      "name": "issueLUSD",
      "outputs": [],
      "stateMutability": "nonpayable",
      "type": "function"
    },
    {
      "inputs": [],
      "name": "lockBox",
      "outputs": [
        {
          "internalType": "address",
          "name": "",
          "type": "address"
        }
      ],
      "stateMutability": "view",
      "type": "function"
    },
    {
      "inputs": [],
      "name": "lusd",
      "outputs": [
        {
          "internalType": "address",
          "name": "",
          "type": "address"
        }
      ],
      "stateMutability": "view",
      "type": "function"
    },
    {
      "inputs": [
        {
          "internalType": "bytes32",
          "name": "role",
          "type": "bytes32"
        },
        {
          "internalType": "address",
          "name": "callerConfirmation",
          "type": "address"
        }
      ],
      "name": "renounceRole",
      "outputs": [],
      "stateMutability": "nonpayable",
      "type": "function"
    },
    {
      "inputs": [],
      "name": "reserveVault",
      "outputs": [
        {
          "internalType": "address",
          "name": "",
          "type": "address"
        }
      ],
      "stateMutability": "view",
      "type": "function"
    },
    {
      "inputs": [
        {
          "internalType": "bytes32",
          "name": "role",
          "type": "bytes32"
        },
        {
          "internalType": "address",
          "name": "account",
          "type": "address"
        }
      ],
      "name": "revokeRole",
      "outputs": [],
      "stateMutability": "nonpayable",
      "type": "function"
    },
    {
      "inputs": [
        {
          "internalType": "uint256",
          "name": "_rate",
          "type": "uint256"
        }
      ],
      "name": "setFeeRate",
      "outputs": [],
      "stateMutability": "nonpayable",
      "type": "function"
    },
    {
      "inputs": [
        {
          "internalType": "address",
          "name": "_vault",
          "type": "address"
        }
      ],
      "name": "setReserveVault",
      "outputs": [],
      "stateMutability": "nonpayable",
      "type": "function"
    },
    {
      "inputs": [
        {
          "internalType": "bytes4",
          "name": "interfaceId",
          "type": "bytes4"
        }
      ],
      "name": "supportsInterface",
      "outputs": [
        {
          "internalType": "bool",
          "name": "",
          "type": "bool"
        }
      ],
      "stateMutability": "view",
      "type": "function"
    },
    {
      "inputs": [],
      "name": "totalIssued",
      "outputs": [
        {
          "internalType": "uint256",
          "name": "",
          "type": "uint256"
        }
      ],
      "stateMutability": "view",
      "type": "function"
    }
  ],
  "bytecode": "0x6080346100a657601f610f5438819003918201601f19168301916001600160401b038311848410176100ab5780849260409485528339810103126100a657610052602061004b836100c1565b92016100c1565b600180546001600160a01b039384166001600160a01b03199182161790915560028054929093169116179055600060055561008c336100d5565b5061009633610153565b50604051610d4090816101f48239f35b600080fd5b634e487b7160e01b600052604160045260246000fd5b51906001600160a01b03821682036100a657565b6001600160a01b031660008181527fad3228b676f7d3cd4284a5443f17f1962b36e491b30a40b2405849e597ba5fb5602052604081205490919060ff1661014f57818052816020526040822081835260205260408220600160ff198254161790553391600080516020610f348339815191528180a4600190565b5090565b6001600160a01b031660008181527fb432b056fd1c94bf8256915b4ba366b423da35961260bf28640ba4c365ae066660205260408120549091907f7c7856addabc42b8f4e48fb1aa62e03afa209b877f897851b0ee1cc3334b09979060ff166101ee57808352826020526040832082845260205260408320600160ff19825416179055600080516020610f34833981519152339380a4600190565b50509056fe6080604081815260048036101561001557600080fd5b600092833560e01c90816301ffc9a714610a5357508063248a9ca314610a2a5780632f2ff15d14610a0157806336568abe146109ba57806345596e2e146109175780634cebfb5f146107d05780635d19b0d1146107a757806383ad71b41461078857806391d148541461074357806399ad68a71461071a578063a217fddf146106ff578063a456032a14610323578063a705245e146102d5578063ae5a609e1461029a578063ae82d65c1461027b578063b45d8459146101f2578063cef062fc146101c5578063d547741f14610187578063e47fa4be1461011f5763f5be3193146100ff57600080fd5b3461011b578260031936011261011b5760209250549051908152f35b8280fd5b50903461011b57602036600319011261011b57813592600654841015610184575061014b60a093610abd565b50805492600180861b03600183015416926002830154916003840154930154938151958652602086015284015260608301526080820152f35b80fd5b50903461011b578060031936011261011b576101c191356101bc60016101ab610aa7565b938387528660205286200154610b66565b610c0a565b5080f35b5050346101ee57816003193601126101ee5760035490516001600160a01b039091168152602090f35b5080fd5b503461011b57602036600319011261011b5761024061023a6102799260a0956080865161021e81610ca9565b8281528260208201528288820152826060820152015235610abd565b50610cc5565b91518092608080918051845260018060a01b03602082015116602085015260408101516040850152606081015160608501520151910152565bf35b5050346101ee57816003193601126101ee576020906006549051908152f35b5050346101ee57816003193601126101ee57602090517f7c7856addabc42b8f4e48fb1aa62e03afa209b877f897851b0ee1cc3334b09978152f35b8382346101ee5760203660031901126101ee57356001600160a01b0381169081900361031e57610303610b0e565b6bffffffffffffffffffffffff60a01b600354161760035580f35b600080fd5b509190346101ee5760603660031901126101ee578235610341610aa7565b91604435927f7c7856addabc42b8f4e48fb1aa62e03afa209b877f897851b0ee1cc3334b0997808652602090868252838720338852825260ff8488205416156106e157506001600160a01b0382811695909190861561069257801561064f57600554808202908282040361063c5761271090049283820394828611610629578160015416803b15610612578a8960448e838c519586948593633dddc37760e11b85528401528960248401525af1801561060857610616575b50816002541690813b15610612578751632280541960e11b8082526001600160a01b03909216818e0190815260208101899052604081018b9052919290918c91839182908490829060600103925af1801561060857908b916105f0575b5050841515806105e3575b610562575b5085519061047382610ca9565b878252838201898152878301878152606084019187835260808501934285526006546801000000000000000081101561054e578060016104b69201600655610abd565b96909661053b5751865590516001860180546001600160a01b0319169190921617905551600284015551600383015551908a01558854908101908110610528577f45c583f9818c13f0f8ee7c0c7f3eedb644a379182f9fafc19fcd88cd34b33e9395969798558351928352820152a380f35b634e487b7160e01b885260118952602488fd5b8f8f80602492634e487b7160e01b825252fd5b8f8f6041602492634e487b7160e01b835252fd5b8160025416826003541691813b156105df5788519081526001600160a01b03909216828d0190815260208101879052604081018a90528b91839182908490829060600103925af180156105d557908a916105bd575b50610466565b6105c690610c7f565b6105d15788386105b7565b8880fd5b87513d8c823e3d90fd5b8b80fd5b5081600354161515610461565b6105f990610c7f565b610604578938610456565b8980fd5b88513d8d823e3d90fd5b8a80fd5b610622909a919a610c7f565b98386103f9565b634e487b7160e01b8a5260118b5260248afd5b634e487b7160e01b895260118a52602489fd5b845162461bcd60e51b8152808a01839052601d60248201527f497373756572436f6e74726f6c6c65723a207a65726f20616d6f756e740000006044820152606490fd5b845162461bcd60e51b8152808a01839052602360248201527f497373756572436f6e74726f6c6c65723a20696e76616c696420726563697069604482015262195b9d60ea1b6064820152608490fd5b835163e2517d3f60e01b815233818a01526024810191909152604490fd5b5050346101ee57816003193601126101ee5751908152602090f35b5050346101ee57816003193601126101ee5760025490516001600160a01b039091168152602090f35b503461011b578160031936011261011b578160209360ff92610763610aa7565b903582528186528282206001600160a01b039091168252855220549151911615158152f35b5050346101ee57816003193601126101ee576020906005549051908152f35b5050346101ee57816003193601126101ee5760015490516001600160a01b039091168152602090f35b50913461018457806003193601126101845760065467ffffffffffffffff9182821161090457835192600595601f19603f85891b0116850191858310908311176108f1575084528183526006815293602080840193929091867ff652222313e28459528d920b65115c16c04f3efc82aaedc97be59f3f377c0d3f865b8483106108cb5750505050508351938185019282865251809352840192945b8281106108785784840385f35b9091928260a0826108bc6001948a51608080918051845260018060a01b03602082015116602085015260408101516040850152606081015160608501520151910152565b0196019101949291909461086b565b83866001926108de859d999a9b9d610cc5565b815201920192019190989695949861084c565b634e487b7160e01b835260419052602482fd5b634e487b7160e01b815260418552602490fd5b503461011b57602036600319011261011b57803590610934610b0e565b6103e882116109775750907f14914da2bf76024616fbe1859783fcd4dbddcb179b1f3a854949fbf920dcb95791600554908060055582519182526020820152a180f35b606490602084519162461bcd60e51b8352820152601e60248201527f497373756572436f6e74726f6c6c65723a2066656520746f6f206869676800006044820152fd5b509190346101ee57806003193601126101ee576109d5610aa7565b90336001600160a01b038316036109f257506101c1919235610c0a565b5163334bd91960e11b81528390fd5b50903461011b578060031936011261011b576101c19135610a2560016101ab610aa7565b610b8c565b503461011b57602036600319011261011b57816020936001923581528085522001549051908152f35b9250503461011b57602036600319011261011b573563ffffffff60e01b811680910361011b5760209250637965db0b60e01b8114908115610a96575b5015158152f35b6301ffc9a760e01b14905038610a8f565b602435906001600160a01b038216820361031e57565b600654811015610af8576005906006600052027ff652222313e28459528d920b65115c16c04f3efc82aaedc97be59f3f377c0d3f0190600090565b634e487b7160e01b600052603260045260246000fd5b3360009081527fad3228b676f7d3cd4284a5443f17f1962b36e491b30a40b2405849e597ba5fb5602052604081205460ff1615610b485750565b6044906040519063e2517d3f60e01b82523360048301526024820152fd5b80600052600060205260406000203360005260205260ff6040600020541615610b485750565b9060009180835282602052604083209160018060a01b03169182845260205260ff60408420541615600014610c0557808352826020526040832082845260205260408320600160ff198254161790557f2f8788117e7eff1d82e926ec794901d17c78024a50270940304540a733656f0d339380a4600190565b505090565b9060009180835282602052604083209160018060a01b03169182845260205260ff604084205416600014610c055780835282602052604083208284526020526040832060ff1981541690557ff6391f5c32d9c69d2a47ea670b442974b53935d1edc7fd64eb21e047a839171b339380a4600190565b67ffffffffffffffff8111610c9357604052565b634e487b7160e01b600052604160045260246000fd5b60a0810190811067ffffffffffffffff821117610c9357604052565b90604051610cd281610ca9565b8254815260018301546001600160a01b031660208201526002830154604082015260038301546060820152600490920154608083015256fea264697066735822122097751b39964d9037a29a5084c77f00354533911c2028eef62e267164250b127b64736f6c634300081400332f8788117e7eff1d82e926ec794901d17c78024a50270940304540a733656f0d",
  "linkReferences": {},
  "deployedLinkReferences": {},
  "immutableReferences": {},
  "inputSourceName": "project/contracts/DCBTreasury/IssuerController.sol",
  "buildInfoId": "solc-0_8_20-a1c61539025f0654ad3a75bdb2b55239eb68e7f3"
}