{
  "_format": "hh3-artifact-1",
  "contractName": "PriceOracle",
  "sourceName": "contracts/DCBTreasury/v3/PriceOracle.sol",
  "abi": [
    {
      "inputs": [],
      "stateMutability": "nonpayable",
      "type": "constructor"
    },
    {
      "inputs": [],
      "name": "AlreadyUpdater",
      "type": "error"
    },
    {
      "inputs": [],
      "name": "ContractPaused",
      "type": "error"
    },
    {
      "inputs": [],
      "name": "EmergencyModeActive",
      "type": "error"
    },
    {
      "inputs": [],
      "name": "InvalidHeartbeat",
      "type": "error"
    },
    {
      "inputs": [],
      "name": "InvalidPrice",
      "type": "error"
    },
    {
      "inputs": [],
      "name": "NoPendingAdmin",
      "type": "error"
    },
    {
      "inputs": [],
      "name": "NotPendingAdmin",
      "type": "error"
    },
    {
      "inputs": [],
      "name": "NotUpdater",
      "type": "error"
    },
    {
      "inputs": [],
      "name": "PriceDeviationTooHigh",
      "type": "error"
    },
    {
      "inputs": [],
      "name": "StalePrice",
      "type": "error"
    },
    {
      "inputs": [],
      "name": "TokenAlreadyRegistered",
      "type": "error"
    },
    {
      "inputs": [],
      "name": "TokenNotRegistered",
      "type": "error"
    },
    {
      "inputs": [],
      "name": "Unauthorized",
      "type": "error"
    },
    {
      "inputs": [],
      "name": "ZeroAddress",
      "type": "error"
    },
    {
      "anonymous": false,
      "inputs": [
        {
          "indexed": true,
          "internalType": "address",
          "name": "previousAdmin",
          "type": "address"
        },
        {
          "indexed": true,
          "internalType": "address",
          "name": "newAdmin",
          "type": "address"
        }
      ],
      "name": "AdminTransferCompleted",
      "type": "event"
    },
    {
      "anonymous": false,
      "inputs": [
        {
          "indexed": true,
          "internalType": "address",
          "name": "currentAdmin",
          "type": "address"
        },
        {
          "indexed": true,
          "internalType": "address",
          "name": "pendingAdmin",
          "type": "address"
        }
      ],
      "name": "AdminTransferInitiated",
      "type": "event"
    },
    {
      "anonymous": false,
      "inputs": [
        {
          "indexed": true,
          "internalType": "address",
          "name": "activatedBy",
          "type": "address"
        },
        {
          "indexed": false,
          "internalType": "uint256",
          "name": "timestamp",
          "type": "uint256"
        }
      ],
      "name": "EmergencyModeActivated",
      "type": "event"
    },
    {
      "anonymous": false,
      "inputs": [
        {
          "indexed": true,
          "internalType": "address",
          "name": "deactivatedBy",
          "type": "address"
        },
        {
          "indexed": false,
          "internalType": "uint256",
          "name": "timestamp",
          "type": "uint256"
        }
      ],
      "name": "EmergencyModeDeactivated",
      "type": "event"
    },
    {
      "anonymous": false,
      "inputs": [
        {
          "indexed": true,
          "internalType": "address",
          "name": "pausedBy",
          "type": "address"
        },
        {
          "indexed": false,
          "internalType": "uint256",
          "name": "timestamp",
          "type": "uint256"
        }
      ],
      "name": "Paused",
      "type": "event"
    },
    {
      "anonymous": false,
      "inputs": [
        {
          "indexed": true,
          "internalType": "address",
          "name": "token",
          "type": "address"
        },
        {
          "indexed": false,
          "internalType": "int256",
          "name": "expectedPrice",
          "type": "int256"
        },
        {
          "indexed": false,
          "internalType": "int256",
          "name": "actualPrice",
          "type": "int256"
        },
        {
          "indexed": false,
          "internalType": "uint256",
          "name": "deviationBps",
          "type": "uint256"
        },
        {
          "indexed": false,
          "internalType": "uint256",
          "name": "timestamp",
          "type": "uint256"
        }
      ],
      "name": "PriceDeviationAlert",
      "type": "event"
    },
    {
      "anonymous": false,
      "inputs": [
        {
          "indexed": true,
          "internalType": "address",
          "name": "token",
          "type": "address"
        },
        {
          "indexed": false,
          "internalType": "int256",
          "name": "oldPrice",
          "type": "int256"
        },
        {
          "indexed": false,
          "internalType": "int256",
          "name": "newPrice",
          "type": "int256"
        },
        {
          "indexed": false,
          "internalType": "uint80",
          "name": "roundId",
          "type": "uint80"
        },
        {
          "indexed": true,
          "internalType": "address",
          "name": "updater",
          "type": "address"
        },
        {
          "indexed": false,
          "internalType": "uint256",
          "name": "timestamp",
          "type": "uint256"
        }
      ],
      "name": "PriceUpdated",
      "type": "event"
    },
    {
      "anonymous": false,
      "inputs": [
        {
          "indexed": true,
          "internalType": "address",
          "name": "token",
          "type": "address"
        },
        {
          "indexed": false,
          "internalType": "uint256",
          "name": "heartbeat",
          "type": "uint256"
        },
        {
          "indexed": false,
          "internalType": "uint256",
          "name": "deviationThreshold",
          "type": "uint256"
        },
        {
          "indexed": true,
          "internalType": "address",
          "name": "updatedBy",
          "type": "address"
        }
      ],
      "name": "TokenConfigUpdated",
      "type": "event"
    },
    {
      "anonymous": false,
      "inputs": [
        {
          "indexed": true,
          "internalType": "address",
          "name": "token",
          "type": "address"
        },
        {
          "indexed": false,
          "internalType": "string",
          "name": "symbol",
          "type": "string"
        },
        {
          "indexed": false,
          "internalType": "bool",
          "name": "isStablecoin",
          "type": "bool"
        },
        {
          "indexed": false,
          "internalType": "int256",
          "name": "fixedPrice",
          "type": "int256"
        },
        {
          "indexed": true,
          "internalType": "address",
          "name": "registeredBy",
          "type": "address"
        }
      ],
      "name": "TokenRegistered",
      "type": "event"
    },
    {
      "anonymous": false,
      "inputs": [
        {
          "indexed": true,
          "internalType": "address",
          "name": "unpausedBy",
          "type": "address"
        },
        {
          "indexed": false,
          "internalType": "uint256",
          "name": "timestamp",
          "type": "uint256"
        }
      ],
      "name": "Unpaused",
      "type": "event"
    },
    {
      "anonymous": false,
      "inputs": [
        {
          "indexed": true,
          "internalType": "address",
          "name": "updater",
          "type": "address"
        },
        {
          "indexed": true,
          "internalType": "address",
          "name": "addedBy",
          "type": "address"
        }
      ],
      "name": "UpdaterAdded",
      "type": "event"
    },
    {
      "anonymous": false,
      "inputs": [
        {
          "indexed": true,
          "internalType": "address",
          "name": "updater",
          "type": "address"
        },
        {
          "indexed": true,
          "internalType": "address",
          "name": "removedBy",
          "type": "address"
        }
      ],
      "name": "UpdaterRemoved",
      "type": "event"
    },
    {
      "inputs": [],
      "name": "BPS_DENOMINATOR",
      "outputs": [
        {
          "internalType": "uint256",
          "name": "",
          "type": "uint256"
        }
      ],
      "stateMutability": "view",
      "type": "function"
    },
    {
      "inputs": [],
      "name": "LUSD_CONTRACT",
      "outputs": [
        {
          "internalType": "address",
          "name": "",
          "type": "address"
        }
      ],
      "stateMutability": "view",
      "type": "function"
    },
    {
      "inputs": [],
      "name": "LUSD_FIXED_PRICE",
      "outputs": [
        {
          "internalType": "int256",
          "name": "",
          "type": "int256"
        }
      ],
      "stateMutability": "view",
      "type": "function"
    },
    {
      "inputs": [],
      "name": "MAX_DEVIATION_BPS",
      "outputs": [
        {
          "internalType": "uint256",
          "name": "",
          "type": "uint256"
        }
      ],
      "stateMutability": "view",
      "type": "function"
    },
    {
      "inputs": [],
      "name": "PRICE_DECIMALS",
      "outputs": [
        {
          "internalType": "uint8",
          "name": "",
          "type": "uint8"
        }
      ],
      "stateMutability": "view",
      "type": "function"
    },
    {
      "inputs": [],
      "name": "VERSION",
      "outputs": [
        {
          "internalType": "string",
          "name": "",
          "type": "string"
        }
      ],
      "stateMutability": "view",
      "type": "function"
    },
    {
      "inputs": [],
      "name": "acceptAdmin",
      "outputs": [],
      "stateMutability": "nonpayable",
      "type": "function"
    },
    {
      "inputs": [],
      "name": "activateEmergencyMode",
      "outputs": [],
      "stateMutability": "nonpayable",
      "type": "function"
    },
    {
      "inputs": [
        {
          "internalType": "address",
          "name": "updater",
          "type": "address"
        }
      ],
      "name": "addUpdater",
      "outputs": [],
      "stateMutability": "nonpayable",
      "type": "function"
    },
    {
      "inputs": [],
      "name": "admin",
      "outputs": [
        {
          "internalType": "address",
          "name": "",
          "type": "address"
        }
      ],
      "stateMutability": "view",
      "type": "function"
    },
    {
      "inputs": [],
      "name": "currentRoundId",
      "outputs": [
        {
          "internalType": "uint80",
          "name": "",
          "type": "uint80"
        }
      ],
      "stateMutability": "view",
      "type": "function"
    },
    {
      "inputs": [],
      "name": "deactivateEmergencyMode",
      "outputs": [],
      "stateMutability": "nonpayable",
      "type": "function"
    },
    {
      "inputs": [
        {
          "internalType": "address",
          "name": "token",
          "type": "address"
        }
      ],
      "name": "deactivateToken",
      "outputs": [],
      "stateMutability": "nonpayable",
      "type": "function"
    },
    {
      "inputs": [],
      "name": "decimals",
      "outputs": [
        {
          "internalType": "uint8",
          "name": "",
          "type": "uint8"
        }
      ],
      "stateMutability": "pure",
      "type": "function"
    },
    {
      "inputs": [],
      "name": "defaultHeartbeat",
      "outputs": [
        {
          "internalType": "uint256",
          "name": "",
          "type": "uint256"
        }
      ],
      "stateMutability": "view",
      "type": "function"
    },
    {
      "inputs": [],
      "name": "deployedAt",
      "outputs": [
        {
          "internalType": "uint256",
          "name": "",
          "type": "uint256"
        }
      ],
      "stateMutability": "view",
      "type": "function"
    },
    {
      "inputs": [],
      "name": "description",
      "outputs": [
        {
          "internalType": "string",
          "name": "",
          "type": "string"
        }
      ],
      "stateMutability": "pure",
      "type": "function"
    },
    {
      "inputs": [],
      "name": "emergencyMode",
      "outputs": [
        {
          "internalType": "bool",
          "name": "",
          "type": "bool"
        }
      ],
      "stateMutability": "view",
      "type": "function"
    },
    {
      "inputs": [],
      "name": "getLUSDPrice",
      "outputs": [
        {
          "internalType": "int256",
          "name": "price",
          "type": "int256"
        },
        {
          "internalType": "uint256",
          "name": "timestamp",
          "type": "uint256"
        },
        {
          "internalType": "bool",
          "name": "isStale",
          "type": "bool"
        }
      ],
      "stateMutability": "view",
      "type": "function"
    },
    {
      "inputs": [
        {
          "internalType": "address",
          "name": "token",
          "type": "address"
        }
      ],
      "name": "getPriceFormatted",
      "outputs": [
        {
          "internalType": "string",
          "name": "",
          "type": "string"
        }
      ],
      "stateMutability": "view",
      "type": "function"
    },
    {
      "inputs": [
        {
          "internalType": "address",
          "name": "token",
          "type": "address"
        },
        {
          "internalType": "uint256",
          "name": "count",
          "type": "uint256"
        }
      ],
      "name": "getPriceHistory",
      "outputs": [
        {
          "components": [
            {
              "internalType": "int256",
              "name": "price",
              "type": "int256"
            },
            {
              "internalType": "uint256",
              "name": "timestamp",
              "type": "uint256"
            },
            {
              "internalType": "uint80",
              "name": "roundId",
              "type": "uint80"
            },
            {
              "internalType": "address",
              "name": "updater",
              "type": "address"
            }
          ],
          "internalType": "struct PriceOracle.PriceHistory[]",
          "name": "",
          "type": "tuple[]"
        }
      ],
      "stateMutability": "view",
      "type": "function"
    },
    {
      "inputs": [],
      "name": "getRegisteredTokens",
      "outputs": [
        {
          "internalType": "address[]",
          "name": "",
          "type": "address[]"
        }
      ],
      "stateMutability": "view",
      "type": "function"
    },
    {
      "inputs": [
        {
          "internalType": "uint80",
          "name": "_roundId",
          "type": "uint80"
        }
      ],
      "name": "getRoundData",
      "outputs": [
        {
          "internalType": "uint80",
          "name": "roundId",
          "type": "uint80"
        },
        {
          "internalType": "int256",
          "name": "answer",
          "type": "int256"
        },
        {
          "internalType": "uint256",
          "name": "startedAt",
          "type": "uint256"
        },
        {
          "internalType": "uint256",
          "name": "updatedAt",
          "type": "uint256"
        },
        {
          "internalType": "uint80",
          "name": "answeredInRound",
          "type": "uint80"
        }
      ],
      "stateMutability": "view",
      "type": "function"
    },
    {
      "inputs": [],
      "name": "getStatistics",
      "outputs": [
        {
          "internalType": "uint256",
          "name": "_totalUpdates",
          "type": "uint256"
        },
        {
          "internalType": "uint256",
          "name": "_tokenCount",
          "type": "uint256"
        },
        {
          "internalType": "uint80",
          "name": "_currentRoundId",
          "type": "uint80"
        },
        {
          "internalType": "uint256",
          "name": "_deployedAt",
          "type": "uint256"
        }
      ],
      "stateMutability": "view",
      "type": "function"
    },
    {
      "inputs": [],
      "name": "getTokenCount",
      "outputs": [
        {
          "internalType": "uint256",
          "name": "",
          "type": "uint256"
        }
      ],
      "stateMutability": "view",
      "type": "function"
    },
    {
      "inputs": [
        {
          "internalType": "address",
          "name": "token",
          "type": "address"
        }
      ],
      "name": "getTokenPrice",
      "outputs": [
        {
          "internalType": "int256",
          "name": "price",
          "type": "int256"
        },
        {
          "internalType": "uint256",
          "name": "timestamp",
          "type": "uint256"
        },
        {
          "internalType": "bool",
          "name": "isStale",
          "type": "bool"
        }
      ],
      "stateMutability": "view",
      "type": "function"
    },
    {
      "inputs": [
        {
          "internalType": "address",
          "name": "token",
          "type": "address"
        }
      ],
      "name": "isPriceFresh",
      "outputs": [
        {
          "internalType": "bool",
          "name": "",
          "type": "bool"
        }
      ],
      "stateMutability": "view",
      "type": "function"
    },
    {
      "inputs": [
        {
          "internalType": "address",
          "name": "",
          "type": "address"
        }
      ],
      "name": "isTokenRegistered",
      "outputs": [
        {
          "internalType": "bool",
          "name": "",
          "type": "bool"
        }
      ],
      "stateMutability": "view",
      "type": "function"
    },
    {
      "inputs": [
        {
          "internalType": "address",
          "name": "account",
          "type": "address"
        }
      ],
      "name": "isUpdater",
      "outputs": [
        {
          "internalType": "bool",
          "name": "",
          "type": "bool"
        }
      ],
      "stateMutability": "view",
      "type": "function"
    },
    {
      "inputs": [
        {
          "internalType": "address",
          "name": "token",
          "type": "address"
        }
      ],
      "name": "latestPrice",
      "outputs": [
        {
          "internalType": "int256",
          "name": "",
          "type": "int256"
        }
      ],
      "stateMutability": "view",
      "type": "function"
    },
    {
      "inputs": [],
      "name": "latestRoundData",
      "outputs": [
        {
          "internalType": "uint80",
          "name": "roundId",
          "type": "uint80"
        },
        {
          "internalType": "int256",
          "name": "answer",
          "type": "int256"
        },
        {
          "internalType": "uint256",
          "name": "startedAt",
          "type": "uint256"
        },
        {
          "internalType": "uint256",
          "name": "updatedAt",
          "type": "uint256"
        },
        {
          "internalType": "uint80",
          "name": "answeredInRound",
          "type": "uint80"
        }
      ],
      "stateMutability": "view",
      "type": "function"
    },
    {
      "inputs": [],
      "name": "maxHistoryLength",
      "outputs": [
        {
          "internalType": "uint256",
          "name": "",
          "type": "uint256"
        }
      ],
      "stateMutability": "view",
      "type": "function"
    },
    {
      "inputs": [],
      "name": "pause",
      "outputs": [],
      "stateMutability": "nonpayable",
      "type": "function"
    },
    {
      "inputs": [],
      "name": "paused",
      "outputs": [
        {
          "internalType": "bool",
          "name": "",
          "type": "bool"
        }
      ],
      "stateMutability": "view",
      "type": "function"
    },
    {
      "inputs": [],
      "name": "pendingAdmin",
      "outputs": [
        {
          "internalType": "address",
          "name": "",
          "type": "address"
        }
      ],
      "stateMutability": "view",
      "type": "function"
    },
    {
      "inputs": [
        {
          "internalType": "address",
          "name": "",
          "type": "address"
        },
        {
          "internalType": "uint256",
          "name": "",
          "type": "uint256"
        }
      ],
      "name": "priceHistory",
      "outputs": [
        {
          "internalType": "int256",
          "name": "price",
          "type": "int256"
        },
        {
          "internalType": "uint256",
          "name": "timestamp",
          "type": "uint256"
        },
        {
          "internalType": "uint80",
          "name": "roundId",
          "type": "uint80"
        },
        {
          "internalType": "address",
          "name": "updater",
          "type": "address"
        }
      ],
      "stateMutability": "view",
      "type": "function"
    },
    {
      "inputs": [
        {
          "internalType": "address",
          "name": "",
          "type": "address"
        }
      ],
      "name": "prices",
      "outputs": [
        {
          "internalType": "int256",
          "name": "price",
          "type": "int256"
        },
        {
          "internalType": "uint256",
          "name": "timestamp",
          "type": "uint256"
        },
        {
          "internalType": "uint80",
          "name": "roundId",
          "type": "uint80"
        },
        {
          "internalType": "bool",
          "name": "isValid",
          "type": "bool"
        },
        {
          "internalType": "address",
          "name": "updater",
          "type": "address"
        }
      ],
      "stateMutability": "view",
      "type": "function"
    },
    {
      "inputs": [
        {
          "internalType": "address",
          "name": "token",
          "type": "address"
        }
      ],
      "name": "reactivateToken",
      "outputs": [],
      "stateMutability": "nonpayable",
      "type": "function"
    },
    {
      "inputs": [
        {
          "internalType": "address",
          "name": "token",
          "type": "address"
        },
        {
          "internalType": "string",
          "name": "tokenSymbol",
          "type": "string"
        },
        {
          "internalType": "string",
          "name": "tokenName",
          "type": "string"
        },
        {
          "internalType": "uint8",
          "name": "tokenDecimals",
          "type": "uint8"
        },
        {
          "internalType": "int256",
          "name": "fixedPrice",
          "type": "int256"
        },
        {
          "internalType": "bool",
          "name": "isStablecoin",
          "type": "bool"
        },
        {
          "internalType": "uint256",
          "name": "heartbeat",
          "type": "uint256"
        },
        {
          "internalType": "uint256",
          "name": "deviationThreshold",
          "type": "uint256"
        },
        {
          "internalType": "address",
          "name": "externalFeed",
          "type": "address"
        }
      ],
      "name": "registerToken",
      "outputs": [],
      "stateMutability": "nonpayable",
      "type": "function"
    },
    {
      "inputs": [
        {
          "internalType": "uint256",
          "name": "",
          "type": "uint256"
        }
      ],
      "name": "registeredTokens",
      "outputs": [
        {
          "internalType": "address",
          "name": "",
          "type": "address"
        }
      ],
      "stateMutability": "view",
      "type": "function"
    },
    {
      "inputs": [
        {
          "internalType": "address",
          "name": "updater",
          "type": "address"
        }
      ],
      "name": "removeUpdater",
      "outputs": [],
      "stateMutability": "nonpayable",
      "type": "function"
    },
    {
      "inputs": [
        {
          "internalType": "uint256",
          "name": "heartbeat",
          "type": "uint256"
        }
      ],
      "name": "setDefaultHeartbeat",
      "outputs": [],
      "stateMutability": "nonpayable",
      "type": "function"
    },
    {
      "inputs": [
        {
          "internalType": "address",
          "name": "",
          "type": "address"
        }
      ],
      "name": "tokenConfigs",
      "outputs": [
        {
          "internalType": "string",
          "name": "symbol",
          "type": "string"
        },
        {
          "internalType": "string",
          "name": "name",
          "type": "string"
        },
        {
          "internalType": "uint8",
          "name": "tokenDecimals",
          "type": "uint8"
        },
        {
          "internalType": "int256",
          "name": "fixedPrice",
          "type": "int256"
        },
        {
          "internalType": "bool",
          "name": "isStablecoin",
          "type": "bool"
        },
        {
          "internalType": "bool",
          "name": "isActive",
          "type": "bool"
        },
        {
          "internalType": "uint256",
          "name": "heartbeat",
          "type": "uint256"
        },
        {
          "internalType": "uint256",
          "name": "deviationThreshold",
          "type": "uint256"
        },
        {
          "internalType": "address",
          "name": "externalFeed",
          "type": "address"
        }
      ],
      "stateMutability": "view",
      "type": "function"
    },
    {
      "inputs": [],
      "name": "totalUpdates",
      "outputs": [
        {
          "internalType": "uint256",
          "name": "",
          "type": "uint256"
        }
      ],
      "stateMutability": "view",
      "type": "function"
    },
    {
      "inputs": [
        {
          "internalType": "address",
          "name": "newAdmin",
          "type": "address"
        }
      ],
      "name": "transferAdmin",
      "outputs": [],
      "stateMutability": "nonpayable",
      "type": "function"
    },
    {
      "inputs": [],
      "name": "unpause",
      "outputs": [],
      "stateMutability": "nonpayable",
      "type": "function"
    },
    {
      "inputs": [
        {
          "internalType": "address",
          "name": "token",
          "type": "address"
        },
        {
          "internalType": "int256",
          "name": "newPrice",
          "type": "int256"
        }
      ],
      "name": "updatePrice",
      "outputs": [],
      "stateMutability": "nonpayable",
      "type": "function"
    },
    {
      "inputs": [
        {
          "internalType": "address[]",
          "name": "tokens",
          "type": "address[]"
        },
        {
          "internalType": "int256[]",
          "name": "newPrices",
          "type": "int256[]"
        }
      ],
      "name": "updatePricesBatch",
      "outputs": [],
      "stateMutability": "nonpayable",
      "type": "function"
    },
    {
      "inputs": [
        {
          "internalType": "address",
          "name": "token",
          "type": "address"
        },
        {
          "internalType": "uint256",
          "name": "heartbeat",
          "type": "uint256"
        },
        {
          "internalType": "uint256",
          "name": "deviationThreshold",
          "type": "uint256"
        }
      ],
      "name": "updateTokenConfig",
      "outputs": [],
      "stateMutability": "nonpayable",
      "type": "function"
    },
    {
      "inputs": [
        {
          "internalType": "address",
          "name": "",
          "type": "address"
        }
      ],
      "name": "updaters",
      "outputs": [
        {
          "internalType": "bool",
          "name": "",
          "type": "bool"
        }
      ],
      "stateMutability": "view",
      "type": "function"
    },
    {
      "inputs": [],
      "name": "version",
      "outputs": [
        {
          "internalType": "uint256",
          "name": "",
          "type": "uint256"
        }
      ],
      "stateMutability": "pure",
      "type": "function"
    }
  ],
  "bytecode": "0x60a0604052346200062c57600080546001600160a01b0319163390811782558152600560205260409020805460ff191660019081179091554260805262015180600355606460045580546001600160b01b0316600160b01b1790556200006462000631565b6004815263131554d160e21b60208201526200007f62000631565b600981526813195b5bdb881554d160ba1b60208201526040519161012083016001600160401b03811184821017620004425760405282526020820152600660408201526305f5e100606082015260016080820152600160a08201526201518060c0820152600060e08201526000610100820152738de60f88f19dad42dde0d9ed2eeba68269722a996000526006602052604060002090805191825160018060401b03811162000442578154600181811c9116801562000621575b60208210146200053e57601f8111620005d8575b506020601f82116001146200056b57819293946000926200055f575b50508160011b916000199060031b1c19161781555b60208201518051906001600160401b03821162000442576001830154600181811c9116801562000554575b60208210146200053e57601f8111620004f2575b50602090601f83116001146200047a576007939291600091836200046e575b50508160011b916000199060031b1c19161760018201555b6002810160ff60408501511660ff19825416179055606083015160038201556004810160808401511515815460ff61ff0060a0880151151560081b1692169061ffff19161717905560c0830151600582015560e08301516006820155019061010060018060a01b039101511660018060a01b0319825416179055600954680100000000000000008110156200044257600181018060095581101562000458577f6e1540171b6c0c960b71a7020d9f60077f6af931a8bbf590da0223dacf75c7af0180546001600160a01b031916738de60f88f19dad42dde0d9ed2eeba68269722a99908117909155600052600a6020527fe4bf586590f0c1f2b414a8dc332ac0b68cddedb0756e43419d0f7c90c7c42bb8805460ff191660019081179091555460405160b09190911c9060a081016001600160401b0381118282101762000442576040526305f5e1008152602081014281526040820192835260026060830192600184526080810192338452738de60f88f19dad42dde0d9ed2eeba68269722a996000526007602052604060002091518255516001820155019260018060501b039051166aff0000000000000000000084549351151560501b16916b010000000000000000000000600160f81b03905160581b169260ff60f81b1617171790556040513360007feea727eb6f741f10667c9ff77aa3a88a17a67fc7e7aedc3526b3f89e9d2da97e8180a36000337fccc62b456e636a792392942509bf838728082b6d41361e6730f6d2c24a06ccf08280a3612aca90816200065282396080518181816105be015261102e0152f35b634e487b7160e01b600052604160045260246000fd5b634e487b7160e01b600052603260045260246000fd5b015190503880620001dc565b906001840160005260206000209160005b601f1985168110620004d9575091839160019360079695601f19811610620004bf575b505050811b016001820155620001f4565b015160001960f88460031b161c19169055388080620004ae565b919260206001819286850151815501940192016200048b565b600184016000526020600020601f840160051c81016020851062000536575b601f830160051c8201811062000529575050620001bd565b6000815560010162000511565b508062000511565b634e487b7160e01b600052602260045260246000fd5b90607f1690620001a9565b01519050388062000169565b8260005260206000209060005b601f1984168110620005bf5750600193949583601f19811610620005a5575b505050811b0181556200017e565b015160001960f88460031b161c1916905538808062000597565b9091602060018192858a01518155019301910162000578565b826000526020600020601f830160051c81016020841062000619575b601f830160051c820181106200060c5750506200014d565b60008155600101620005f4565b5080620005f4565b90607f169062000139565b600080fd5b60408051919082016001600160401b03811183821017620004425760405256fe608080604052600436101561001357600080fd5b60003560e01c90816304b07a5e14611d34575080630905f56014611d0e5780630af1a39f14611cbf5780630d31916f14611c595780630e18b68114611bbf57806314cbd99314611af75780631b36949114611ad95780631b69dc5f14611a0d57806325c68403146119f157806326782247146119c857806326aa101f14611989578063313ce567146103ad5780633588712a146113ba57806335f63acb14611054578063372d6b2714610ffc5780633950b82a14610fcd57806339cbe9e514610faf5780633f4ba83a14610f5157806343d24a5e14610eb257806344e2711214610e7a5780634fdfb08614610e1057806353084eff14610e4f57806354a055c114610e1057806354fd4d5014610df45780635c975abb14610dce57806361f401e214610d5057806368173bcf14610c955780636d8e456c14610c765780637284e41614610bde57806375829def14610b5b57806378a8956714610b3d5780638456cb5914610ad757806389d3607a14610ab95780638fa9d54a14610a0257806399b20eaf146109a45780639a0ba2ea146109625780639a6fc8f5146108775780639cbe5efd14610856578063a1d5a3f01461082a578063b63b73c214610789578063ccdc74ee14610745578063cfed246b146106d1578063d009601014610658578063d02641a0146105fe578063e1a45218146105e1578063eae4c19f146105a6578063ed986660146103c9578063f1a640f8146103ad578063f851a44014610384578063feaf968c1461029f5763ffa1ad741461025057600080fd5b3461029a57600036600319011261029a5761029660405161027081611e7c565b60058152640332e302e360dc1b6020820152604051918291602083526020830190611f5e565b0390f35b600080fd5b3461029a57600036600319011261029a57738de60f88f19dad42dde0d9ed2eeba68269722a9960005260076020526040517f6d86b9cfe6d70a62923cc3e35ea88d0ea8da08ade219f7e0724cedfee0b72710906102fb81611e46565b815481526080600260018401549384602085015201546001600160501b038116604084015260ff8160501c161515606084015260018060a01b039060581c1691015260015460b01c90610296604051928392429082859293608092959460a08501966001600160501b0380941686526305f5e10060208701526040860152606085015216910152565b3461029a57600036600319011261029a576000546040516001600160a01b039091168152602090f35b3461029a57600036600319011261029a57602060405160088152f35b3461029a57604036600319011261029a576103e2611dda565b6024803560018060a01b038093169081600052602092600a845260ff6040600020541615610594578192600052600884526040600020805480931161058b575b61042b8461278b565b936104396040519586611e97565b808552601f196104488261278b565b018660005b8281106105595750505060005b8181106104ca57878787604051918083018184528251809152816040850193019160005b82811061048b5785850386f35b83518051865280830151868401526040808201516001600160501b0316908701526060908101518816908601526080909401939281019260010161047e565b6104d48286612064565b81810180911161054457906104ec61053f9285611ffb565b50896002604051926104fd84611e61565b8054845260018101548c85015201546001600160501b038116604084015260501c16606082015261052e82896127a2565b5261053981886127a2565b50612490565b61045a565b84634e487b7160e01b60005260116004526000fd5b60405161056581611e61565b60008152600083820152600060408201526000606082015282828a01015201879061044d565b92508192610422565b60405163259ba1ad60e01b8152600490fd5b3461029a57600036600319011261029a5760206040517f00000000000000000000000000000000000000000000000000000000000000008152f35b3461029a57600036600319011261029a5760206040516127108152f35b3461029a57602036600319011261029a57610617611dda565b6001600160a01b0381166000908152600a602052604090205460ff161561059457610643606091612087565b90604051928352602083015215156040820152f35b3461029a57600036600319011261029a576000546001600160a01b031633036106c0576001805461ffff60a01b191661010160a01b17905560405142815233907f16ea6c4a0ff7e3a4c096560a5a71632e344907cd03af0f6e655b409a61d549ef90602090a2005b6040516282b42960e81b8152600490fd5b3461029a57602036600319011261029a5760a06001600160a01b03806106f5611dda565b166000526007602052604060002090815491600260018201549101549060405193845260208401526001600160501b038116604084015260ff8160501c161515606084015260581c166080820152f35b3461029a57602036600319011261029a57600054600435906001600160a01b031633036106c057801561077757600355005b604051638f1825c960e01b8152600490fd5b3461029a57606036600319011261029a576107a2611dda565b60005460243591604435916001600160a01b039190821633036106c057169081600052600a60205260ff6040600020541615610594578215610777578160005260066020528060066040600020856005820155015560405192835260208301527f85092e7ce3945211f06dc13dbbd64db70423434e57d09449d98f94cf45da573960403393a3005b3461029a57600036600319011261029a5760606040516305f5e100815242602082015260006040820152f35b3461029a57600036600319011261029a57602060015460b01c604051908152f35b3461029a57602036600319011261029a576004356001600160501b03808216820361029a57738de60f88f19dad42dde0d9ed2eeba68269722a9960005260076020526040517f6d86b9cfe6d70a62923cc3e35ea88d0ea8da08ade219f7e0724cedfee0b72710916080906108ea83611e46565b8354835260026001850154948560208601520154908116604084015260ff8160501c161515606084015260018060a01b039060581c169101526102966040519282849382859293608092959460a08501966001600160501b0380941686526305f5e10060208701526040860152606085015216910152565b3461029a57602036600319011261029a5760043560095481101561029a5761098b60209161202d565b905460405160039290921b1c6001600160a01b03168152f35b3461029a57600036600319011261029a576000546001600160a01b031633036106c05760ff60a81b19600154166001556040514281527f081290595212b102be0fdb64c1ac6ebd5ae4f06a47328806981745f7d906b3b560203392a2005b3461029a57604036600319011261029a57610a1b611dda565b33600052600560205260ff604060002054161580610aa4575b6106c05760015460ff8160a01c16610a925760a81c60ff16610a80576001600160a01b0381166000908152600a602052604090205460ff161561059457610a7e906024359061249f565b005b6040516319e1bef560e01b8152600490fd5b60405163ab35696f60e01b8152600490fd5b506000546001600160a01b0316331415610a34565b3461029a57600036600319011261029a576020600354604051908152f35b3461029a57600036600319011261029a576000546001600160a01b031633036106c0576001805460ff60a01b1916600160a01b17905560405142815233907fab40a374bc51de372200a8bc981af8c9ecdc08dfdaef0bb6e09f88f3c616ef3d90602090a2005b3461029a57600036600319011261029a576020600954604051908152f35b3461029a57602036600319011261029a57610b74611dda565b6000546001600160a01b0390811691338390036106c05716908115610bcc57600180546001600160a01b031916831790557fb4d7bcb4d9a5d6ef6e827e3b1554e5a2578ad9ca843903d42b05d08bfa345894600080a3005b60405163d92e233d60e01b8152600490fd5b3461029a57600036600319011261029a5760405160608101908082106001600160401b03831117610c605761029691604052602981527f444342205472656173757279205072696365204f7261636c652076332e30202d60208201526808131554d10bd554d160ba1b6040820152604051918291602083526020830190611f5e565b634e487b7160e01b600052604160045260246000fd5b3461029a57600036600319011261029a5760206040516305f5e1008152f35b3461029a57602036600319011261029a57610cae611dda565b6000546001600160a01b039190821633036106c0571680600052600a60205260ff604060002054161561059457738de60f88f19dad42dde0d9ed2eeba68269722a998114610d12576000908152600660205260409020600401805461ff0019169055005b60405162461bcd60e51b815260206004820152601660248201527510d85b9b9bdd0819195858dd1a5d985d1948131554d160521b6044820152606490fd5b3461029a57604036600319011261029a57610d69611dda565b6024359060018060a01b0380911660005260086020526040600020805483101561029a57608092610d9991611ffb565b5090815491600260018201549101549060405193845260208401526001600160501b038116604084015260501c166060820152f35b3461029a57600036600319011261029a57602060ff60015460a01c166040519015158152f35b3461029a57600036600319011261029a57602060405160038152f35b3461029a57602036600319011261029a576001600160a01b03610e31611dda565b166000526005602052602060ff604060002054166040519015158152f35b3461029a57602036600319011261029a576020610e72610e6d611dda565b6121b5565b604051908152f35b3461029a57602036600319011261029a57610296610e9e610e99611dda565b6122be565b604051918291602083526020830190611f5e565b3461029a57602036600319011261029a57610ecb611dda565b6000546001600160a01b039190821633036106c057168015610bcc5780600052600560205260ff60406000205416610f3f578060005260056020526040600020600160ff1982541617905533907fccc62b456e636a792392942509bf838728082b6d41361e6730f6d2c24a06ccf0600080a3005b6040516332a0ef8560e01b8152600490fd5b3461029a57600036600319011261029a576000546001600160a01b031633036106c05760ff60a01b19600154166001556040514281527f3582d1828e26bf56bd801502bc021ac0bc8afb57c826e4986b45593c8fad389c60203392a2005b3461029a57600036600319011261029a576020600454604051908152f35b3461029a57600036600319011261029a576020604051738de60f88f19dad42dde0d9ed2eeba68269722a998152f35b3461029a57600036600319011261029a57608060025460095460015460b01c90604051928352602083015260408201527f00000000000000000000000000000000000000000000000000000000000000006060820152f35b3461029a57604036600319011261029a576001600160401b0360043581811161029a57611085903690600401611fcb565b909160243590811161029a5761109f903690600401611fcb565b919033600052600560205260ff6040600020541615806113a5575b6106c057600190815460ff8160a01c16610a925760a81c60ff16610a805783830361136e5760005b8381106110eb57005b6001600160a01b038061110761110284888b612721565b612731565b16600052600a60205260ff6040600020541680611359575b611133575b5061112e90612490565b6110e2565b8061114261110284888b612721565b166000526006602052604060002060405161115c81611e2a565b61116582611eb8565b8152611172868301611eb8565b602082015260ff6002830154166040820152600382015480606083015260048301549160ff80841615159384608084015260081c16151560a0820152600584015460c0820152600684015460e082015261010085600780960154169101528161134e575b5061134357816111e784888b612721565b6111f090612731565b16600052602052604060002080549085549060b0916001600160501b0360b01b81841c61121c90612478565b6001600160b01b0390921691841b16178755611239858a88612721565b3581554287820155865460029091018054600160581b600160f81b03196affffffffffffffffffffff199190911692841c92909217600160501b17919091163360581b600160581b600160f81b031617905561129684888b612721565b61129f90612731565b6112aa858a88612721565b3533908854841c906112bb936127b6565b6002546112c790612490565b6002556112d584888b612721565b6112de90612731565b926112ea858a88612721565b8754604080519586529135602086015290921c6001600160501b031691830191909152426060830152339216907f0748e79544fc3ad6bf93239a830ffffef59c013c901b825134b5596fe2ccc72890608090a386611124565b505061112e90612490565b6000915013896111d6565b506000611367838886612721565b351361111f565b60405162461bcd60e51b815260206004820152600f60248201526e098cadccee8d040dad2e6dac2e8c6d608b1b6044820152606490fd5b506000546001600160a01b03163314156110ba565b3461029a5761012036600319011261029a576113d4611dda565b6024356001600160401b03811161029a576113f3903690600401611f9e565b906044356001600160401b03811161029a57611413903690600401611f9e565b919060643560ff811680910361029a5760a43591821515830361029a5761010435916001600160a01b038316830361029a576000546001600160a01b031633036106c0576001600160a01b03881615610bcc576001600160a01b0388166000908152600a602052604090205460ff166119775760c435801561196a576114a890925b6114a0368a89612745565b973691612745565b604051966114b588611e2a565b87526020870152604086015260843560608601528215156080860152600160a086015260c085015260e43560e085015260018060a01b031661010084015260018060a01b038516600052600660205260406000209280518051906001600160401b038211610c605781906115298754611df0565b601f811161191a575b50602090601f83116001146118ae576000926118a3575b50508160011b916000199060031b1c19161784555b60208101518051906001600160401b038211610c605781906115836001880154611df0565b601f8111611850575b50602090601f83116001146117de576000926117d3575b50508160011b916000199060031b1c19161760018501555b6007600285019460ff6040840151169560ff199687825416179055606083015160038201556004810160808401511515815460ff61ff0060a0880151151560081b1692169061ffff19161717905560c0830151600582015560e08301516006820155019061010060018060a01b03910151166bffffffffffffffffffffffff60a01b82541617905560095492600160401b841015610c60576116848460017fe02609862bac6599f071d902030fe292adfa39a45e7763764d92f6cc1b0af3e1960160095561202d565b81546001600160a01b0389811660039390931b83811b91901b19909116179091556000908152600a6020526040812080549290921660011790915560843513156117c65761177d6084355b60015460b01c90604051906116e382611e46565b8152426020808301918252604080840194855260016060850181815233608087019081526001600160a01b038e1660009081526007909552929093209451855592519284019290925592516002929092018054935191516001600160f81b03199094166001600160501b03939093169290921790151560501b60ff60501b161760589290921b600160581b600160f81b0316919091179055565b8360405192606084528160608501526080840137600060808584010152151560208201526084356040820152608081339560018060a01b031694601f80199101168101030190a3005b61177d6305f5e1006116cf565b0151905088806115a3565b9250600187016000526020600020906000935b601f1984168510611835576001945083601f1981161061181c575b505050811b0160018501556115bb565b015160001960f88460031b161c1916905588808061180c565b818101518355602094850194600190930192909101906117f1565b909150600187016000526020600020601f840160051c81016020851061189c575b90849392915b601f830160051c8201811061188d57505061158c565b60008155859450600101611877565b5080611871565b015190508880611549565b9250866000526020600020906000935b601f19841685106118ff576001945083601f198116106118e6575b505050811b01845561155e565b015160001960f88460031b161c191690558880806118d9565b818101518355602094850194600190930192909101906118be565b909150866000526020600020601f840160051c810160208510611963575b90849392915b601f830160051c82018110611954575050611532565b6000815585945060010161193e565b5080611938565b506114a860035492611495565b604051633ea7ffd960e11b8152600490fd5b3461029a57602036600319011261029a576001600160a01b036119aa611dda565b16600052600a602052602060ff604060002054166040519015158152f35b3461029a57600036600319011261029a576001546040516001600160a01b039091168152602090f35b3461029a57600036600319011261029a57602060405160648152f35b3461029a57602036600319011261029a57611a976001600160a01b0380611a32611dda565b166000526006602052604060002090611a4a82611eb8565b91611a5760018201611eb8565b9060ff6002820154169260ff6003830154600484015490611aa56005860154946007600688015497015416966040519a8b9a610120808d528c0190611f5e565b908a820360208c0152611f5e565b96604089015260608801528181161515608088015260081c16151560a086015260c085015260e08401526101008301520390f35b3461029a57600036600319011261029a576020600254604051908152f35b3461029a57600036600319011261029a57604051806009548083526020809301809160096000527f6e1540171b6c0c960b71a7020d9f60077f6af931a8bbf590da0223dacf75c7af9060005b86828210611ba2578686611b5982880383611e97565b604051928392818401908285525180915260408401929160005b828110611b8257505050500390f35b83516001600160a01b031685528695509381019392810192600101611b73565b83546001600160a01b031685529093019260019283019201611b43565b3461029a57600036600319011261029a576001546001600160a01b03808216918215611c4757823303611c3557600054906bffffffffffffffffffffffff60a01b90848284161760005516600155167feea727eb6f741f10667c9ff77aa3a88a17a67fc7e7aedc3526b3f89e9d2da97e600080a3005b60405163058d9a1b60e01b8152600490fd5b604051635a29cd7d60e11b8152600490fd5b3461029a57602036600319011261029a57611c72611dda565b6000546001600160a01b039190821633036106c0571680600052600a60205260ff6040600020541615610594576000908152600660205260409020600401805461ff001916610100179055005b3461029a57602036600319011261029a57611cd8611dda565b6001600160a01b0381166000908152600a602052604090205460ff161561059457611d0460209161236d565b6040519015158152f35b3461029a57600036600319011261029a57602060ff60015460a81c166040519015158152f35b3461029a57602036600319011261029a57611d4d611dda565b6000546001600160a01b03929083163303611dcc57501680600052600560205260ff6040600020541615611dba57806000526005602052604060002060ff19815416905533907f253a35aa24fae91cd5cd3267c1809e4cdde7facdb7b7f75ba2e8e39b7fd570e2600080a3005b604051639a280f3960e01b8152600490fd5b6282b42960e81b8152600490fd5b600435906001600160a01b038216820361029a57565b90600182811c92168015611e20575b6020831014611e0a57565b634e487b7160e01b600052602260045260246000fd5b91607f1691611dff565b61012081019081106001600160401b03821117610c6057604052565b60a081019081106001600160401b03821117610c6057604052565b608081019081106001600160401b03821117610c6057604052565b604081019081106001600160401b03821117610c6057604052565b90601f801991011681019081106001600160401b03821117610c6057604052565b9060405191826000825492611ecc84611df0565b908184526001948581169081600014611f3b5750600114611ef8575b5050611ef692500383611e97565b565b9093915060005260209081600020936000915b818310611f23575050611ef693508201013880611ee8565b85548884018501529485019487945091830191611f0b565b915050611ef694506020925060ff191682840152151560051b8201013880611ee8565b919082519283825260005b848110611f8a575050826000602080949584010152601f8019910116010190565b602081830181015184830182015201611f69565b9181601f8401121561029a578235916001600160401b03831161029a576020838186019501011161029a57565b9181601f8401121561029a578235916001600160401b03831161029a576020808501948460051b01011161029a57565b8054821015612017576000526003602060002091020190600090565b634e487b7160e01b600052603260045260246000fd5b6009548110156120175760096000527f6e1540171b6c0c960b71a7020d9f60077f6af931a8bbf590da0223dacf75c7af0190600090565b9190820391821161207157565b634e487b7160e01b600052601160045260246000fd5b6001600160a01b03908116600081815260066020526040808220815195939092906120b187611e2a565b6120ba84611eb8565b87526120c860018501611eb8565b602088015260ff600285015416838801526003840154906060880191825260048501549760ff608082019981811615158b5260081c16151560a082015261010088600760058901549860c08501998a52600681015460e0860152015416910152825260076020528282209683519661213f88611e46565b88548852600189015494600260208a019a878c520154906001600160501b038216908a015260ff8160501c16151560608a015260581c166080880152511515806121ab575b61219f5750506121949042612064565b905110915192519190565b51955042945092915050565b5081815113612184565b60018060a01b03809116600090808252600a60205260409260ff84842054161561228857818352600660205283832084516121ef81611e2a565b6121f882611eb8565b815261220660018301611eb8565b602082015260ff60028301541686820152610100600383015493846060840152600760048501549460ff80871615159687608088015260081c16151560a0860152600581015460c0860152600681015460e08601520154169101528061227f575b612278575081526007602052205490565b9250505090565b50828113612267565b50738de60f88f19dad42dde0d9ed2eeba68269722a999150146122b5575163259ba1ad60e01b8152600490fd5b506305f5e10090565b60018060a01b0316738de60f88f19dad42dde0d9ed2eeba68269722a998114908115612337575b50612312576040516122f681611e7c565b600c81526b50726963652076617269657360a01b602082015290565b60405161231e81611e7c565b6009815268090c4b8c0c081554d160ba1b602082015290565b9050600052600a60205260ff6040600020541680612356575b386122e5565b50600660205260ff60046040600020015416612350565b60018060a01b038091168060005260066020526040918260002092805161239381611e2a565b61239c85611eb8565b81526123aa60018601611eb8565b602082015260ff600286015416828201526003850154606082015260048501549060ff80831615159283608084015260081c16151560a082015261010084600760058901549860c08501998a52600681015460e086015201541691015261246f576124689260005260076020526080816000209282519261242a84611e46565b8454845260026001860154958660208701520154906001600160501b0382169085015260ff8160501c161515606085015260581c1691015242612064565b9051101590565b50505050600190565b6001600160501b038091169081146120715760010190565b60001981146120715760010190565b60009081831315612710576001600160a01b038181168084526006602052604080852081519295939491936124d384611e2a565b6124dc82611eb8565b84526001936124ec858401611eb8565b602082015260ff600284015416868201526003830154906060810191825261010060048501549860ff608084019a81811615158c5260081c16151560a0840152600586015460c0840152600760068701549660e08501978852015416910152878252600760205281868120975115159182612705575b50506126fb578151151590816126f0575b50612675575b5083929161263b6126709261262d7f0748e79544fc3ad6bf93239a830ffffef59c013c901b825134b5596fe2ccc72897549684546001600160501b0360b01b6125c48260b01c612478565b6001600160b01b0390921660b092831b919091161786558b82554282870155855460029092018054600160581b600160f81b03196affffffffffffffffffffff19919091169390921c92909217600160501b17163360581b600160581b600160f81b0316179055565b339089845460b01c916127b6565b612646600254612490565b600255549151928352602083019590955260b01c6040820152426060820152339381906080820190565b0390a3565b8585546126828982612a3c565b92518311612692575b5050612579565b907f9c7a00d1d4c38699ab24a18ffbb84038263b759c3416932eff3929ac361280f160806103e8949388519081528b60208201528489820152426060820152a2116126df5738858161268b565b82516369e2517960e11b8152600490fd5b905085541338612573565b5050505050505050565b511390508138612562565b60405162bfc92160e01b8152600490fd5b91908110156120175760051b0190565b356001600160a01b038116810361029a5790565b9291926001600160401b038211610c60576040519161276e601f8201601f191660200184611e97565b82948184528183011161029a578281602093846000960137010152565b6001600160401b038111610c605760051b60200190565b80518210156120175760209160051b010190565b9190939260018060a01b03918260009416845260086020526040842093845496600497885411156128c6575b604051906127ef82611e61565b8152602081019042825260408101966001600160501b038095168852866060830196168652805490600160401b8210156128b3579061283391600182018155611ffb565b9390936128a157505182555160018201559351600290940180549251600160501b600160f01b03941660501b939093166001600160f01b031990921693167fffff0000000000000000000000000000000000000000ffffffffffffffffffff16929092179190911790559050565b634e487b7160e01b8152808a52602490fd5b634e487b7160e01b855260418b52602485fd5b959181959493915b85546000198101908111612a10578110156129b35760018082018083116129a0576128f99088611ffb565b506129048389611ffb565b61298e579087828261292196959403612926575b50505050612490565b6128ce565b61298593835482558084015490820155600280910192016001600160501b038154166001600160501b03198454161783555460501c16815490600160501b600160f01b039060501b16906001600160501b0361ffff60f01b0116179055565b38808781612918565b634e487b7160e01b8a52898c5260248afd5b634e487b7160e01b895260118b52602489fd5b5091959490929394855480156129fd57600019016129d18188611ffb565b6129eb5760028185809355826001820155015586556127e2565b634e487b7160e01b8452838a52602484fd5b634e487b7160e01b835260318952602483fd5b634e487b7160e01b885260118a52602488fd5b8181039291600013801582851316918412161761207157565b908115612a8d578180821315612a7e57612a5591612a23565b6127109081810291818305149015171561207157600160ff1b8114600019831416612071570590565b90612a8891612a23565b612a55565b505060009056fea2646970667358221220e0123f8c1951f278b99464922d3a4851b13413e93f617ad1c434c42c63c91d7264736f6c63430008140033",
  "linkReferences": {},
  "deployedLinkReferences": {},
  "immutableReferences": {
    "36075": [
      {
        "length": 32,
        "start": 1470
      },
      {
        "length": 32,
        "start": 4142
      }
    ]
  },
  "inputSourceName": "project/contracts/DCBTreasury/v3/PriceOracle.sol",
  "buildInfoId": "solc-0_8_20-a1c61539025f0654ad3a75bdb2b55239eb68e7f3"
}