{
  "_format": "hh3-artifact-1",
  "contractName": "DCBProxyAdmin",
  "sourceName": "contracts/DCBTreasury/v3/upgradeable/DCBProxy.sol",
  "abi": [
    {
      "inputs": [
        {
          "internalType": "address",
          "name": "_owner",
          "type": "address"
        }
      ],
      "stateMutability": "nonpayable",
      "type": "constructor"
    },
    {
      "anonymous": false,
      "inputs": [
        {
          "indexed": true,
          "internalType": "address",
          "name": "previousOwner",
          "type": "address"
        },
        {
          "indexed": true,
          "internalType": "address",
          "name": "newOwner",
          "type": "address"
        }
      ],
      "name": "OwnershipTransferStarted",
      "type": "event"
    },
    {
      "anonymous": false,
      "inputs": [
        {
          "indexed": true,
          "internalType": "address",
          "name": "previousOwner",
          "type": "address"
        },
        {
          "indexed": true,
          "internalType": "address",
          "name": "newOwner",
          "type": "address"
        }
      ],
      "name": "OwnershipTransferred",
      "type": "event"
    },
    {
      "anonymous": false,
      "inputs": [
        {
          "indexed": true,
          "internalType": "address",
          "name": "proxy",
          "type": "address"
        }
      ],
      "name": "ProxyRegistered",
      "type": "event"
    },
    {
      "inputs": [],
      "name": "acceptOwnership",
      "outputs": [],
      "stateMutability": "nonpayable",
      "type": "function"
    },
    {
      "inputs": [
        {
          "internalType": "address",
          "name": "proxy",
          "type": "address"
        }
      ],
      "name": "cancelProxyUpgrade",
      "outputs": [],
      "stateMutability": "nonpayable",
      "type": "function"
    },
    {
      "inputs": [
        {
          "internalType": "address",
          "name": "proxy",
          "type": "address"
        },
        {
          "internalType": "address",
          "name": "newImplementation",
          "type": "address"
        },
        {
          "internalType": "string",
          "name": "reason",
          "type": "string"
        }
      ],
      "name": "emergencyUpgradeProxy",
      "outputs": [],
      "stateMutability": "nonpayable",
      "type": "function"
    },
    {
      "inputs": [
        {
          "internalType": "address",
          "name": "proxy",
          "type": "address"
        }
      ],
      "name": "executeProxyUpgrade",
      "outputs": [],
      "stateMutability": "nonpayable",
      "type": "function"
    },
    {
      "inputs": [],
      "name": "getAllProxies",
      "outputs": [
        {
          "internalType": "address[]",
          "name": "",
          "type": "address[]"
        }
      ],
      "stateMutability": "view",
      "type": "function"
    },
    {
      "inputs": [
        {
          "internalType": "address",
          "name": "",
          "type": "address"
        }
      ],
      "name": "isProxy",
      "outputs": [
        {
          "internalType": "bool",
          "name": "",
          "type": "bool"
        }
      ],
      "stateMutability": "view",
      "type": "function"
    },
    {
      "inputs": [],
      "name": "owner",
      "outputs": [
        {
          "internalType": "address",
          "name": "",
          "type": "address"
        }
      ],
      "stateMutability": "view",
      "type": "function"
    },
    {
      "inputs": [],
      "name": "pendingOwner",
      "outputs": [
        {
          "internalType": "address",
          "name": "",
          "type": "address"
        }
      ],
      "stateMutability": "view",
      "type": "function"
    },
    {
      "inputs": [
        {
          "internalType": "uint256",
          "name": "",
          "type": "uint256"
        }
      ],
      "name": "proxies",
      "outputs": [
        {
          "internalType": "address",
          "name": "",
          "type": "address"
        }
      ],
      "stateMutability": "view",
      "type": "function"
    },
    {
      "inputs": [
        {
          "internalType": "address",
          "name": "proxy",
          "type": "address"
        }
      ],
      "name": "registerProxy",
      "outputs": [],
      "stateMutability": "nonpayable",
      "type": "function"
    },
    {
      "inputs": [
        {
          "internalType": "address",
          "name": "newOwner",
          "type": "address"
        }
      ],
      "name": "transferOwnership",
      "outputs": [],
      "stateMutability": "nonpayable",
      "type": "function"
    },
    {
      "inputs": [
        {
          "internalType": "address",
          "name": "proxy",
          "type": "address"
        },
        {
          "internalType": "address",
          "name": "newImplementation",
          "type": "address"
        }
      ],
      "name": "upgradeProxy",
      "outputs": [],
      "stateMutability": "nonpayable",
      "type": "function"
    }
  ],
  "bytecode": "0x6080346100af57601f61099338819003918201601f19168301916001600160401b038311848410176100b4578084926020946040528339810103126100af57516001600160a01b038116908190036100af57801561007a57600080546001600160a01b0319169190911790556040516108c890816100cb8239f35b60405162461bcd60e51b815260206004820152600d60248201526c24b73b30b634b21037bbb732b960991b6044820152606490fd5b600080fd5b634e487b7160e01b600052604160045260246000fdfe6080604081815260048036101561001557600080fd5b600092833560e01c908163297103881461073a575080632af0b1f1146106a157806379ba5097146105f9578063883edfb8146105075780638da5cb5b146104df578063abd90f851461049f57838163aed78f981461042457508063e101f0871461031a578063e30c3978146102ed57838163ee17588e146101f857508063f2fde38b1461014a5763fd940673146100ab57600080fd5b829134610146576020366003190112610146576100c6610775565b83546001600160a01b0391906100df90831633146107f3565b169182845260026020526100f860ff838620541661082b565b823b15610141578151631fa2588560e21b81529284918491829084905af190811561013857506101255750f35b61012e90610868565b6101355780f35b80fd5b513d84823e3d90fd5b505050fd5b5050fd5b50346101f45760203660031901126101f457610164610775565b83546001600160a01b03908116929161017e3385146107f3565b169283156101c1575050600180546001600160a01b031916831790557f38d16b8cac22d99fc7c124b9cd0de2d3fa1faef420bfe791d8c362d765e227008380a380f35b906020606492519162461bcd60e51b8352820152600d60248201526c24b73b30b634b21037bbb732b960991b6044820152fd5b8280fd5b9290503461014657606036600319011261014657610214610775565b61021c610790565b926044359367ffffffffffffffff928386116102e957366023870112156102e957858301359384116102e95736602485880101116102e95786546001600160a01b0391829161026e90831633146107f3565b1691828852600260205261028760ff878a20541661082b565b823b156102e557606488959182879360248a519b8c998a9889966353d830b360e11b885216908601528b8286015282604486015201848401378181018301849052601f01601f191681010301925af190811561013857506101255750f35b8780fd5b8680fd5b50503461031657816003193601126103165760015490516001600160a01b039091168152602090f35b5080fd5b50346101f45760203660031901126101f457610334610775565b83546001600160a01b039291839161034f90831633146107f3565b1692838552600260205260ff81862054166103ec5783855260026020528420805460ff1916600117905560035490680100000000000000008210156103d9575080600161039f92016003556107a6565b819291549060031b9184831b921b19161790557f63a40fb1ca0677d69a93f19d3e96304954abf2c58888d1a1f940d91d5a550a908280a280f35b634e487b7160e01b855260419052602484fd5b906020606492519162461bcd60e51b83528201526012602482015271105b1c9958591e481c9959da5cdd195c995960721b6044820152fd5b9290503461014657602036600319011261014657610440610775565b83546001600160a01b03919061045990831633146107f3565b1691828452600260205261047260ff838620541661082b565b823b15610141578151632af948b360e11b81529284918491829084905af190811561013857506101255750f35b50346101f45760203660031901126101f457359160035483101561013557506104c96020926107a6565b60018060a01b0391549060031b1c169051908152f35b505034610316578160031936011261031657905490516001600160a01b039091168152602090f35b509134610135578060031936011261013557815180916003549384835260208093018095600384527fc2575a0e9e593c00f959f8c92f12db2869c3395a3b0502d05e2516446f71f85b90845b868282106105dc5750505050849003601f01601f191684019567ffffffffffffffff8711858810176105c7575085815282865292518583018190528594938501939290915b8281106105a757505050500390f35b83516001600160a01b031685528695509381019392810192600101610598565b604190634e487b7160e01b6000525260246000fd5b83546001600160a01b031685529093019260019283019201610553565b50346101f457826003193601126101f457600154916001600160a01b0391828416913383900361066a57505083546001600160a01b0319808216831786559093166001558284161791167f8be0079c531659141344cd1fd0a4f28419497f9722a3daafe3b4186f6b6457e08380a380f35b906020606492519162461bcd60e51b835282015260116024820152702737ba103832b73234b7339037bbb732b960791b6044820152fd5b5090346101f457806003193601126101f457826106bc610775565b6106c4610790565b82546001600160a01b039283916106de90831633146107f3565b169081845260026020526106f760ff868620541661082b565b813b15610736578360249286519788958694630640223d60e11b865216908401525af1908115610138575061072a575080f35b61073390610868565b80f35b8380fd5b849084346101f45760203660031901126101f45760209260ff91906001600160a01b03610765610775565b1681526002855220541615158152f35b600435906001600160a01b038216820361078b57565b600080fd5b602435906001600160a01b038216820361078b57565b6003548110156107dd5760036000527fc2575a0e9e593c00f959f8c92f12db2869c3395a3b0502d05e2516446f71f85b0190600090565b634e487b7160e01b600052603260045260246000fd5b156107fa57565b60405162461bcd60e51b81526020600482015260096024820152682737ba1037bbb732b960b91b6044820152606490fd5b1561083257565b60405162461bcd60e51b815260206004820152600e60248201526d139bdd081c9959da5cdd195c995960921b6044820152606490fd5b67ffffffffffffffff811161087c57604052565b634e487b7160e01b600052604160045260246000fdfea2646970667358221220fe2694cb22d069cf4d3b5c9730be0f7e0fe75c1c3cc0a67885e0b8e1d4a0838264736f6c63430008140033",
  "linkReferences": {},
  "deployedLinkReferences": {},
  "immutableReferences": {},
  "inputSourceName": "project/contracts/DCBTreasury/v3/upgradeable/DCBProxy.sol",
  "buildInfoId": "solc-0_8_20-a1c61539025f0654ad3a75bdb2b55239eb68e7f3"
}