{
  "_format": "hh3-artifact-1",
  "contractName": "DCBProxy",
  "sourceName": "contracts/DCBTreasury/v3/upgradeable/DCBProxy.sol",
  "abi": [
    {
      "inputs": [
        {
          "internalType": "address",
          "name": "_implementation",
          "type": "address"
        },
        {
          "internalType": "address",
          "name": "_admin",
          "type": "address"
        },
        {
          "internalType": "bytes",
          "name": "_data",
          "type": "bytes"
        }
      ],
      "stateMutability": "nonpayable",
      "type": "constructor"
    },
    {
      "anonymous": false,
      "inputs": [
        {
          "indexed": true,
          "internalType": "address",
          "name": "previousAdmin",
          "type": "address"
        },
        {
          "indexed": true,
          "internalType": "address",
          "name": "newAdmin",
          "type": "address"
        }
      ],
      "name": "AdminChanged",
      "type": "event"
    },
    {
      "anonymous": false,
      "inputs": [
        {
          "indexed": true,
          "internalType": "address",
          "name": "newImplementation",
          "type": "address"
        },
        {
          "indexed": false,
          "internalType": "string",
          "name": "reason",
          "type": "string"
        }
      ],
      "name": "EmergencyUpgrade",
      "type": "event"
    },
    {
      "anonymous": false,
      "inputs": [
        {
          "indexed": true,
          "internalType": "address",
          "name": "cancelledImplementation",
          "type": "address"
        }
      ],
      "name": "UpgradeCancelled",
      "type": "event"
    },
    {
      "anonymous": false,
      "inputs": [
        {
          "indexed": true,
          "internalType": "address",
          "name": "newImplementation",
          "type": "address"
        },
        {
          "indexed": false,
          "internalType": "uint256",
          "name": "executeAfter",
          "type": "uint256"
        }
      ],
      "name": "UpgradeScheduled",
      "type": "event"
    },
    {
      "anonymous": false,
      "inputs": [
        {
          "indexed": true,
          "internalType": "address",
          "name": "implementation",
          "type": "address"
        },
        {
          "indexed": false,
          "internalType": "uint256",
          "name": "version",
          "type": "uint256"
        }
      ],
      "name": "Upgraded",
      "type": "event"
    },
    {
      "stateMutability": "payable",
      "type": "fallback"
    },
    {
      "inputs": [],
      "name": "EMERGENCY_TIMELOCK",
      "outputs": [
        {
          "internalType": "uint256",
          "name": "",
          "type": "uint256"
        }
      ],
      "stateMutability": "view",
      "type": "function"
    },
    {
      "inputs": [],
      "name": "UPGRADE_TIMELOCK",
      "outputs": [
        {
          "internalType": "uint256",
          "name": "",
          "type": "uint256"
        }
      ],
      "stateMutability": "view",
      "type": "function"
    },
    {
      "inputs": [],
      "name": "admin",
      "outputs": [
        {
          "internalType": "address",
          "name": "",
          "type": "address"
        }
      ],
      "stateMutability": "view",
      "type": "function"
    },
    {
      "inputs": [],
      "name": "cancelUpgrade",
      "outputs": [],
      "stateMutability": "nonpayable",
      "type": "function"
    },
    {
      "inputs": [
        {
          "internalType": "address",
          "name": "newAdmin",
          "type": "address"
        }
      ],
      "name": "changeAdmin",
      "outputs": [],
      "stateMutability": "nonpayable",
      "type": "function"
    },
    {
      "inputs": [
        {
          "internalType": "address",
          "name": "newImplementation",
          "type": "address"
        },
        {
          "internalType": "string",
          "name": "reason",
          "type": "string"
        }
      ],
      "name": "emergencyUpgrade",
      "outputs": [],
      "stateMutability": "nonpayable",
      "type": "function"
    },
    {
      "inputs": [],
      "name": "executeUpgrade",
      "outputs": [],
      "stateMutability": "nonpayable",
      "type": "function"
    },
    {
      "inputs": [],
      "name": "implementation",
      "outputs": [
        {
          "internalType": "address",
          "name": "",
          "type": "address"
        }
      ],
      "stateMutability": "view",
      "type": "function"
    },
    {
      "inputs": [],
      "name": "pendingImplementation",
      "outputs": [
        {
          "internalType": "address",
          "name": "",
          "type": "address"
        }
      ],
      "stateMutability": "view",
      "type": "function"
    },
    {
      "inputs": [
        {
          "internalType": "address",
          "name": "newImplementation",
          "type": "address"
        }
      ],
      "name": "scheduleUpgrade",
      "outputs": [],
      "stateMutability": "nonpayable",
      "type": "function"
    },
    {
      "inputs": [],
      "name": "upgradeTimestamp",
      "outputs": [
        {
          "internalType": "uint256",
          "name": "",
          "type": "uint256"
        }
      ],
      "stateMutability": "view",
      "type": "function"
    },
    {
      "inputs": [],
      "name": "version",
      "outputs": [
        {
          "internalType": "uint256",
          "name": "",
          "type": "uint256"
        }
      ],
      "stateMutability": "view",
      "type": "function"
    },
    {
      "stateMutability": "payable",
      "type": "receive"
    }
  ],
  "bytecode": "0x60406080815234620002435762000cd4803803806200001e8162000248565b92833981016060828203126200024357620000398262000284565b6020916200004983850162000284565b8585015190946001600160401b03821162000243570181601f820112156200024357805190620000836200007d8362000299565b62000248565b918083528583019386828401011162000243578386620000a49301620002b5565b6001600160a01b0383811695908615620001ff57811615620001cb57837f360894a13ba1a3210667c828492db98dca3e2076cc3735a920a3ca505d382bbc557fb53127684a568b3173ae13b9f8a6016e243e63b6e8ee1178d6a717850b5d61035551918262000148575b5050507f5887ab9161c3be2fe962b73e068a9f29082efb6daf2bfcbd3f064bc34d1ef1b790835160018152a2516109f99081620002db8239f35b916000929183925af43d15620001c2573d90620001696200007d8362000299565b9182523d60008484013e5b15620001825780806200010e565b60449250620001b4935193849262461bcd60e51b845280600485015282519283918260248701528686019101620002b5565b601f01601f19168101030190fd5b60609062000174565b865162461bcd60e51b815260048101869052600d60248201526c24b73b30b634b21030b236b4b760991b6044820152606490fd5b875162461bcd60e51b815260048101879052601660248201527f496e76616c696420696d706c656d656e746174696f6e000000000000000000006044820152606490fd5b600080fd5b6040519190601f01601f191682016001600160401b038111838210176200026e57604052565b634e487b7160e01b600052604160045260246000fd5b51906001600160a01b03821682036200024357565b6001600160401b0381116200026e57601f01601f191660200190565b60005b838110620002c95750506000910152565b8181015183820152602001620002b856fe60806040526004361015610018575b3661091457610914565b60003560e01c80630c80447a146100d857806325ed32ca146100d3578063396f7b23146100ce57806354fd4d50146100c957806355f29166146100c45780635c60da1b146100bf57806360d7442b146100ba5780637e896214146100b55780638f283970146100b0578063921bd6f0146100ab578063a7b06166146100a65763f851a4400361000e576106ff565b610590565b610565565b61049e565b61036a565b61034d565b610317565b610283565b610267565b610231565b610213565b6100f8565b600435906001600160a01b03821682036100f357565b600080fd5b346100f35760203660031901126100f3576101116100dd565b600080516020610964833981519152546001600160a01b0391906101389083163314610735565b8181169161014783151561076d565b600080516020610984833981519152541682146101d8578061016e610180923b15156107b2565b6000805160206109a483398151915255565b7fe1009627653eb47f7d0f3b4435749f7984a803c21f84a076cc4dcb0412cf066f6101d36101ad426107ef565b6101c38160008051602061094483398151915255565b6040519081529081906020820190565b0390a2005b60405162461bcd60e51b815260206004820152601360248201527229b0b6b29034b6b83632b6b2b73a30ba34b7b760691b6044820152606490fd5b346100f35760003660031901126100f35760206040516202a3008152f35b346100f35760003660031901126100f3576000805160206109a4833981519152546040516001600160a01b039091168152602090f35b346100f35760003660031901126100f357602060405160018152f35b346100f35760008060031936011261031457600080516020610964833981519152546001600160a01b03906102bb9082163314610735565b816000805160206109a483398151915291825416916102db831515610834565b5581600080516020610944833981519152557f3198dc80249fcfedbd0d06e1ff49a7695a51b006592328ce0b127cdeab77e9368280a280f35b80fd5b346100f35760003660031901126100f357600080516020610984833981519152546040516001600160a01b039091168152602090f35b346100f35760003660031901126100f35760206040516138408152f35b346100f35760003660031901126100f357600080516020610964833981519152546001600160a01b03906103a19082163314610735565b6000805160206109a483398151915254908116906103c0821515610834565b6000805160206109448339815191525490814210610462576103ef6103e761040193610815565b421115610875565b60008051602061098483398151915255565b61041860006000805160206109a483398151915255565b61042f600060008051602061094483398151915255565b604051600281527f5887ab9161c3be2fe962b73e068a9f29082efb6daf2bfcbd3f064bc34d1ef1b79080602081016101d3565b60405162461bcd60e51b8152602060048201526014602482015273151a5b595b1bd8dac81b9bdd08195e1c1a5c995960621b6044820152606490fd5b346100f35760203660031901126100f3576104b76100dd565b600080516020610964833981519152546001600160a01b03908116906104de338314610735565b821691821561053057610509906104f7838514156108db565b60008051602061096483398151915255565b7f7e644d79422f17c01e4894b5f4f588d331ebfa28653d42ae832dc59e38c9798f600080a3005b60405162461bcd60e51b815260206004820152600d60248201526c24b73b30b634b21030b236b4b760991b6044820152606490fd5b346100f35760003660031901126100f357602060008051602061094483398151915254604051908152f35b346100f35760403660031901126100f3576105a96100dd565b67ffffffffffffffff906024358281116100f357366023820112156100f35780600401359283116100f35736602484830101116100f357600080516020610964833981519152546001600160a01b03906106069082163314610735565b82169261061484151561076d565b610620833b15156107b2565b80156106c857837fc7da31d0ccc19b0cf80df64b5394b2bc83fb2a508e22586541deb98313e31fe260246101d3946106857fe1009627653eb47f7d0f3b4435749f7984a803c21f84a076cc4dcb0412cf066f976000805160206109a483398151915255565b6106b561069142610825565b956106a88760008051602061094483398151915255565b60405193849301836108b3565b0390a26040519081529081906020820190565b60405162461bcd60e51b815260206004820152600f60248201526e1499585cdbdb881c995c5d5a5c9959608a1b6044820152606490fd5b346100f35760003660031901126100f357600080516020610964833981519152546040516001600160a01b039091168152602090f35b1561073c57565b60405162461bcd60e51b81526020600482015260096024820152682737ba1030b236b4b760b91b6044820152606490fd5b1561077457565b60405162461bcd60e51b815260206004820152601660248201527524b73b30b634b21034b6b83632b6b2b73a30ba34b7b760511b6044820152606490fd5b156107b957565b60405162461bcd60e51b815260206004820152600e60248201526d139bdd08184818dbdb9d1c9858dd60921b6044820152606490fd5b906202a30082018092116107ff57565b634e487b7160e01b600052601160045260246000fd5b9062093a8082018092116107ff57565b9061384082018092116107ff57565b1561083b57565b60405162461bcd60e51b81526020600482015260126024820152714e6f2070656e64696e67207570677261646560701b6044820152606490fd5b1561087c57565b60405162461bcd60e51b815260206004820152600f60248201526e155c19dc98591948195e1c1a5c9959608a1b6044820152606490fd5b90918060409360208452816020850152848401376000828201840152601f01601f1916010190565b156108e257565b60405162461bcd60e51b815260206004820152600a60248201526929b0b6b29030b236b4b760b11b6044820152606490fd5b600080516020610984833981519152546000808092368280378136915af43d82803e1561093f573d90f35b3d90fdfe4910fdfa16fed3260ed0e7147f7cc6da11a60208b5b9406d12a635614ffd9143b53127684a568b3173ae13b9f8a6016e243e63b6e8ee1178d6a717850b5d6103360894a13ba1a3210667c828492db98dca3e2076cc3735a920a3ca505d382bbc9e5eddc59e0b171f57125ab86bee043d9128098c3a6b9adb4f2e86333c2f6f8ca26469706673582212206718b1c1059b7da7ac12cbd73a2ec7c32e786c424c717d3b5fd5ac978e94df6364736f6c63430008140033",
  "linkReferences": {},
  "deployedLinkReferences": {},
  "immutableReferences": {},
  "inputSourceName": "project/contracts/DCBTreasury/v3/upgradeable/DCBProxy.sol",
  "buildInfoId": "solc-0_8_20-a1c61539025f0654ad3a75bdb2b55239eb68e7f3"
}