{
  "_format": "hh3-artifact-1",
  "contractName": "LockBox",
  "sourceName": "contracts/DCBTreasury/v3/LockBox.sol",
  "abi": [
    {
      "inputs": [
        {
          "internalType": "address",
          "name": "_treasury",
          "type": "address"
        }
      ],
      "stateMutability": "nonpayable",
      "type": "constructor"
    },
    {
      "inputs": [],
      "name": "AlreadyApproved",
      "type": "error"
    },
    {
      "inputs": [],
      "name": "AlreadyOperator",
      "type": "error"
    },
    {
      "inputs": [],
      "name": "CliffNotReached",
      "type": "error"
    },
    {
      "inputs": [],
      "name": "ContractPaused",
      "type": "error"
    },
    {
      "inputs": [],
      "name": "EmergencyModeActive",
      "type": "error"
    },
    {
      "inputs": [],
      "name": "InsufficientApprovals",
      "type": "error"
    },
    {
      "inputs": [],
      "name": "InsufficientBalance",
      "type": "error"
    },
    {
      "inputs": [],
      "name": "InvalidDuration",
      "type": "error"
    },
    {
      "inputs": [],
      "name": "InvalidSigners",
      "type": "error"
    },
    {
      "inputs": [],
      "name": "LockNotActive",
      "type": "error"
    },
    {
      "inputs": [],
      "name": "LockNotFound",
      "type": "error"
    },
    {
      "inputs": [],
      "name": "LockNotUnlocked",
      "type": "error"
    },
    {
      "inputs": [],
      "name": "NoPendingAdmin",
      "type": "error"
    },
    {
      "inputs": [],
      "name": "NotBeneficiary",
      "type": "error"
    },
    {
      "inputs": [],
      "name": "NotDepositor",
      "type": "error"
    },
    {
      "inputs": [],
      "name": "NotOperator",
      "type": "error"
    },
    {
      "inputs": [],
      "name": "NotPendingAdmin",
      "type": "error"
    },
    {
      "inputs": [],
      "name": "NotRevocable",
      "type": "error"
    },
    {
      "inputs": [],
      "name": "NothingToRelease",
      "type": "error"
    },
    {
      "inputs": [],
      "name": "TransferFailed",
      "type": "error"
    },
    {
      "inputs": [],
      "name": "Unauthorized",
      "type": "error"
    },
    {
      "inputs": [],
      "name": "VestingNotStarted",
      "type": "error"
    },
    {
      "inputs": [],
      "name": "VestingRevoked",
      "type": "error"
    },
    {
      "inputs": [],
      "name": "ZeroAddress",
      "type": "error"
    },
    {
      "inputs": [],
      "name": "ZeroAmount",
      "type": "error"
    },
    {
      "anonymous": false,
      "inputs": [
        {
          "indexed": true,
          "internalType": "address",
          "name": "previousAdmin",
          "type": "address"
        },
        {
          "indexed": true,
          "internalType": "address",
          "name": "newAdmin",
          "type": "address"
        }
      ],
      "name": "AdminTransferCompleted",
      "type": "event"
    },
    {
      "anonymous": false,
      "inputs": [
        {
          "indexed": true,
          "internalType": "address",
          "name": "currentAdmin",
          "type": "address"
        },
        {
          "indexed": true,
          "internalType": "address",
          "name": "pendingAdmin",
          "type": "address"
        }
      ],
      "name": "AdminTransferInitiated",
      "type": "event"
    },
    {
      "anonymous": false,
      "inputs": [
        {
          "indexed": true,
          "internalType": "uint256",
          "name": "lockId",
          "type": "uint256"
        },
        {
          "indexed": true,
          "internalType": "address",
          "name": "oldBeneficiary",
          "type": "address"
        },
        {
          "indexed": true,
          "internalType": "address",
          "name": "newBeneficiary",
          "type": "address"
        },
        {
          "indexed": false,
          "internalType": "uint256",
          "name": "timestamp",
          "type": "uint256"
        }
      ],
      "name": "BeneficiaryChanged",
      "type": "event"
    },
    {
      "anonymous": false,
      "inputs": [
        {
          "indexed": true,
          "internalType": "address",
          "name": "activatedBy",
          "type": "address"
        },
        {
          "indexed": false,
          "internalType": "uint256",
          "name": "timestamp",
          "type": "uint256"
        }
      ],
      "name": "EmergencyModeActivated",
      "type": "event"
    },
    {
      "anonymous": false,
      "inputs": [
        {
          "indexed": true,
          "internalType": "address",
          "name": "deactivatedBy",
          "type": "address"
        },
        {
          "indexed": false,
          "internalType": "uint256",
          "name": "timestamp",
          "type": "uint256"
        }
      ],
      "name": "EmergencyModeDeactivated",
      "type": "event"
    },
    {
      "anonymous": false,
      "inputs": [
        {
          "indexed": true,
          "internalType": "uint256",
          "name": "lockId",
          "type": "uint256"
        },
        {
          "indexed": true,
          "internalType": "address",
          "name": "depositor",
          "type": "address"
        },
        {
          "indexed": false,
          "internalType": "uint256",
          "name": "amountReturned",
          "type": "uint256"
        },
        {
          "indexed": false,
          "internalType": "uint256",
          "name": "penaltyAmount",
          "type": "uint256"
        },
        {
          "indexed": false,
          "internalType": "uint256",
          "name": "timestamp",
          "type": "uint256"
        }
      ],
      "name": "EmergencyWithdrawal",
      "type": "event"
    },
    {
      "anonymous": false,
      "inputs": [
        {
          "indexed": true,
          "internalType": "uint256",
          "name": "lockId",
          "type": "uint256"
        },
        {
          "indexed": true,
          "internalType": "address",
          "name": "depositor",
          "type": "address"
        },
        {
          "indexed": true,
          "internalType": "address",
          "name": "beneficiary",
          "type": "address"
        },
        {
          "indexed": false,
          "internalType": "uint256",
          "name": "amount",
          "type": "uint256"
        },
        {
          "indexed": false,
          "internalType": "uint256",
          "name": "unlockTime",
          "type": "uint256"
        },
        {
          "indexed": false,
          "internalType": "enum LockBox.LockType",
          "name": "lockType",
          "type": "uint8"
        },
        {
          "indexed": false,
          "internalType": "string",
          "name": "refId",
          "type": "string"
        }
      ],
      "name": "LUSDLocked",
      "type": "event"
    },
    {
      "anonymous": false,
      "inputs": [
        {
          "indexed": true,
          "internalType": "uint256",
          "name": "lockId",
          "type": "uint256"
        },
        {
          "indexed": true,
          "internalType": "address",
          "name": "beneficiary",
          "type": "address"
        },
        {
          "indexed": false,
          "internalType": "uint256",
          "name": "amount",
          "type": "uint256"
        },
        {
          "indexed": true,
          "internalType": "address",
          "name": "releasedBy",
          "type": "address"
        },
        {
          "indexed": false,
          "internalType": "uint256",
          "name": "timestamp",
          "type": "uint256"
        }
      ],
      "name": "LUSDReleased",
      "type": "event"
    },
    {
      "anonymous": false,
      "inputs": [
        {
          "indexed": true,
          "internalType": "uint256",
          "name": "lockId",
          "type": "uint256"
        },
        {
          "indexed": true,
          "internalType": "address",
          "name": "signer",
          "type": "address"
        },
        {
          "indexed": false,
          "internalType": "uint256",
          "name": "currentApprovals",
          "type": "uint256"
        },
        {
          "indexed": false,
          "internalType": "uint256",
          "name": "requiredApprovals",
          "type": "uint256"
        }
      ],
      "name": "MultiSigApproval",
      "type": "event"
    },
    {
      "anonymous": false,
      "inputs": [
        {
          "indexed": true,
          "internalType": "address",
          "name": "operator",
          "type": "address"
        },
        {
          "indexed": true,
          "internalType": "address",
          "name": "addedBy",
          "type": "address"
        },
        {
          "indexed": false,
          "internalType": "uint256",
          "name": "timestamp",
          "type": "uint256"
        }
      ],
      "name": "OperatorAdded",
      "type": "event"
    },
    {
      "anonymous": false,
      "inputs": [
        {
          "indexed": true,
          "internalType": "address",
          "name": "operator",
          "type": "address"
        },
        {
          "indexed": true,
          "internalType": "address",
          "name": "removedBy",
          "type": "address"
        },
        {
          "indexed": false,
          "internalType": "uint256",
          "name": "timestamp",
          "type": "uint256"
        }
      ],
      "name": "OperatorRemoved",
      "type": "event"
    },
    {
      "anonymous": false,
      "inputs": [
        {
          "indexed": true,
          "internalType": "uint256",
          "name": "lockId",
          "type": "uint256"
        },
        {
          "indexed": true,
          "internalType": "address",
          "name": "beneficiary",
          "type": "address"
        },
        {
          "indexed": false,
          "internalType": "uint256",
          "name": "amount",
          "type": "uint256"
        },
        {
          "indexed": false,
          "internalType": "uint256",
          "name": "remaining",
          "type": "uint256"
        },
        {
          "indexed": false,
          "internalType": "uint256",
          "name": "timestamp",
          "type": "uint256"
        }
      ],
      "name": "PartialRelease",
      "type": "event"
    },
    {
      "anonymous": false,
      "inputs": [
        {
          "indexed": true,
          "internalType": "address",
          "name": "pausedBy",
          "type": "address"
        },
        {
          "indexed": false,
          "internalType": "uint256",
          "name": "timestamp",
          "type": "uint256"
        }
      ],
      "name": "Paused",
      "type": "event"
    },
    {
      "anonymous": false,
      "inputs": [
        {
          "indexed": true,
          "internalType": "address",
          "name": "oldTreasury",
          "type": "address"
        },
        {
          "indexed": true,
          "internalType": "address",
          "name": "newTreasury",
          "type": "address"
        }
      ],
      "name": "TreasuryUpdated",
      "type": "event"
    },
    {
      "anonymous": false,
      "inputs": [
        {
          "indexed": true,
          "internalType": "address",
          "name": "unpausedBy",
          "type": "address"
        },
        {
          "indexed": false,
          "internalType": "uint256",
          "name": "timestamp",
          "type": "uint256"
        }
      ],
      "name": "Unpaused",
      "type": "event"
    },
    {
      "anonymous": false,
      "inputs": [
        {
          "indexed": true,
          "internalType": "uint256",
          "name": "lockId",
          "type": "uint256"
        },
        {
          "indexed": true,
          "internalType": "address",
          "name": "beneficiary",
          "type": "address"
        },
        {
          "indexed": false,
          "internalType": "uint256",
          "name": "amount",
          "type": "uint256"
        },
        {
          "indexed": false,
          "internalType": "uint256",
          "name": "timestamp",
          "type": "uint256"
        }
      ],
      "name": "VestingClaimed",
      "type": "event"
    },
    {
      "anonymous": false,
      "inputs": [
        {
          "indexed": true,
          "internalType": "uint256",
          "name": "lockId",
          "type": "uint256"
        },
        {
          "indexed": false,
          "internalType": "uint256",
          "name": "totalAmount",
          "type": "uint256"
        },
        {
          "indexed": false,
          "internalType": "uint256",
          "name": "startTime",
          "type": "uint256"
        },
        {
          "indexed": false,
          "internalType": "uint256",
          "name": "cliffDuration",
          "type": "uint256"
        },
        {
          "indexed": false,
          "internalType": "uint256",
          "name": "vestingDuration",
          "type": "uint256"
        }
      ],
      "name": "VestingCreated",
      "type": "event"
    },
    {
      "inputs": [],
      "name": "BPS_DENOMINATOR",
      "outputs": [
        {
          "internalType": "uint256",
          "name": "",
          "type": "uint256"
        }
      ],
      "stateMutability": "view",
      "type": "function"
    },
    {
      "inputs": [],
      "name": "EMERGENCY_PENALTY_BPS",
      "outputs": [
        {
          "internalType": "uint256",
          "name": "",
          "type": "uint256"
        }
      ],
      "stateMutability": "view",
      "type": "function"
    },
    {
      "inputs": [],
      "name": "LUSD_CONTRACT",
      "outputs": [
        {
          "internalType": "address",
          "name": "",
          "type": "address"
        }
      ],
      "stateMutability": "view",
      "type": "function"
    },
    {
      "inputs": [],
      "name": "MAX_LOCK_DURATION",
      "outputs": [
        {
          "internalType": "uint256",
          "name": "",
          "type": "uint256"
        }
      ],
      "stateMutability": "view",
      "type": "function"
    },
    {
      "inputs": [],
      "name": "MIN_LOCK_DURATION",
      "outputs": [
        {
          "internalType": "uint256",
          "name": "",
          "type": "uint256"
        }
      ],
      "stateMutability": "view",
      "type": "function"
    },
    {
      "inputs": [],
      "name": "MIN_MULTISIG_APPROVALS",
      "outputs": [
        {
          "internalType": "uint256",
          "name": "",
          "type": "uint256"
        }
      ],
      "stateMutability": "view",
      "type": "function"
    },
    {
      "inputs": [],
      "name": "VERSION",
      "outputs": [
        {
          "internalType": "string",
          "name": "",
          "type": "string"
        }
      ],
      "stateMutability": "view",
      "type": "function"
    },
    {
      "inputs": [],
      "name": "acceptAdmin",
      "outputs": [],
      "stateMutability": "nonpayable",
      "type": "function"
    },
    {
      "inputs": [],
      "name": "activateEmergencyMode",
      "outputs": [],
      "stateMutability": "nonpayable",
      "type": "function"
    },
    {
      "inputs": [
        {
          "internalType": "address",
          "name": "operator",
          "type": "address"
        }
      ],
      "name": "addOperator",
      "outputs": [],
      "stateMutability": "nonpayable",
      "type": "function"
    },
    {
      "inputs": [],
      "name": "admin",
      "outputs": [
        {
          "internalType": "address",
          "name": "",
          "type": "address"
        }
      ],
      "stateMutability": "view",
      "type": "function"
    },
    {
      "inputs": [
        {
          "internalType": "uint256",
          "name": "lockId",
          "type": "uint256"
        }
      ],
      "name": "approveMultiSigRelease",
      "outputs": [],
      "stateMutability": "nonpayable",
      "type": "function"
    },
    {
      "inputs": [
        {
          "internalType": "address",
          "name": "",
          "type": "address"
        },
        {
          "internalType": "uint256",
          "name": "",
          "type": "uint256"
        }
      ],
      "name": "beneficiaryLocks",
      "outputs": [
        {
          "internalType": "uint256",
          "name": "",
          "type": "uint256"
        }
      ],
      "stateMutability": "view",
      "type": "function"
    },
    {
      "inputs": [
        {
          "internalType": "uint256",
          "name": "lockId",
          "type": "uint256"
        },
        {
          "internalType": "address",
          "name": "newBeneficiary",
          "type": "address"
        }
      ],
      "name": "changeBeneficiary",
      "outputs": [],
      "stateMutability": "nonpayable",
      "type": "function"
    },
    {
      "inputs": [
        {
          "internalType": "uint256",
          "name": "lockId",
          "type": "uint256"
        }
      ],
      "name": "claimVested",
      "outputs": [],
      "stateMutability": "nonpayable",
      "type": "function"
    },
    {
      "inputs": [
        {
          "internalType": "address",
          "name": "beneficiary",
          "type": "address"
        },
        {
          "internalType": "uint256",
          "name": "amount",
          "type": "uint256"
        },
        {
          "internalType": "uint256",
          "name": "duration",
          "type": "uint256"
        },
        {
          "internalType": "address[]",
          "name": "signers",
          "type": "address[]"
        },
        {
          "internalType": "uint256",
          "name": "requiredApprovals",
          "type": "uint256"
        },
        {
          "internalType": "string",
          "name": "refId",
          "type": "string"
        }
      ],
      "name": "createMultiSigLock",
      "outputs": [
        {
          "internalType": "uint256",
          "name": "lockId",
          "type": "uint256"
        }
      ],
      "stateMutability": "nonpayable",
      "type": "function"
    },
    {
      "inputs": [
        {
          "internalType": "address",
          "name": "beneficiary",
          "type": "address"
        },
        {
          "internalType": "uint256",
          "name": "amount",
          "type": "uint256"
        },
        {
          "internalType": "uint256",
          "name": "startTime",
          "type": "uint256"
        },
        {
          "internalType": "uint256",
          "name": "cliffDuration",
          "type": "uint256"
        },
        {
          "internalType": "uint256",
          "name": "vestingDuration",
          "type": "uint256"
        },
        {
          "internalType": "uint256",
          "name": "slicePeriod",
          "type": "uint256"
        },
        {
          "internalType": "bool",
          "name": "revocable",
          "type": "bool"
        },
        {
          "internalType": "string",
          "name": "refId",
          "type": "string"
        }
      ],
      "name": "createVestingLock",
      "outputs": [
        {
          "internalType": "uint256",
          "name": "lockId",
          "type": "uint256"
        }
      ],
      "stateMutability": "nonpayable",
      "type": "function"
    },
    {
      "inputs": [],
      "name": "deactivateEmergencyMode",
      "outputs": [],
      "stateMutability": "nonpayable",
      "type": "function"
    },
    {
      "inputs": [],
      "name": "deployedAt",
      "outputs": [
        {
          "internalType": "uint256",
          "name": "",
          "type": "uint256"
        }
      ],
      "stateMutability": "view",
      "type": "function"
    },
    {
      "inputs": [],
      "name": "emergencyMode",
      "outputs": [
        {
          "internalType": "bool",
          "name": "",
          "type": "bool"
        }
      ],
      "stateMutability": "view",
      "type": "function"
    },
    {
      "inputs": [
        {
          "internalType": "uint256",
          "name": "lockId",
          "type": "uint256"
        }
      ],
      "name": "emergencyWithdraw",
      "outputs": [],
      "stateMutability": "nonpayable",
      "type": "function"
    },
    {
      "inputs": [
        {
          "internalType": "address",
          "name": "beneficiary",
          "type": "address"
        }
      ],
      "name": "getBeneficiaryLocks",
      "outputs": [
        {
          "internalType": "uint256[]",
          "name": "",
          "type": "uint256[]"
        }
      ],
      "stateMutability": "view",
      "type": "function"
    },
    {
      "inputs": [],
      "name": "getLUSDBalance",
      "outputs": [
        {
          "internalType": "uint256",
          "name": "",
          "type": "uint256"
        }
      ],
      "stateMutability": "view",
      "type": "function"
    },
    {
      "inputs": [
        {
          "internalType": "uint256",
          "name": "lockId",
          "type": "uint256"
        }
      ],
      "name": "getLock",
      "outputs": [
        {
          "components": [
            {
              "internalType": "uint256",
              "name": "id",
              "type": "uint256"
            },
            {
              "internalType": "address",
              "name": "depositor",
              "type": "address"
            },
            {
              "internalType": "address",
              "name": "beneficiary",
              "type": "address"
            },
            {
              "internalType": "uint256",
              "name": "amount",
              "type": "uint256"
            },
            {
              "internalType": "uint256",
              "name": "originalAmount",
              "type": "uint256"
            },
            {
              "internalType": "uint256",
              "name": "lockTime",
              "type": "uint256"
            },
            {
              "internalType": "uint256",
              "name": "unlockTime",
              "type": "uint256"
            },
            {
              "internalType": "enum LockBox.LockStatus",
              "name": "status",
              "type": "uint8"
            },
            {
              "internalType": "enum LockBox.LockType",
              "name": "lockType",
              "type": "uint8"
            },
            {
              "internalType": "string",
              "name": "refId",
              "type": "string"
            },
            {
              "internalType": "bytes32",
              "name": "txHash",
              "type": "bytes32"
            }
          ],
          "internalType": "struct LockBox.Lock",
          "name": "",
          "type": "tuple"
        }
      ],
      "stateMutability": "view",
      "type": "function"
    },
    {
      "inputs": [
        {
          "internalType": "uint256",
          "name": "lockId",
          "type": "uint256"
        }
      ],
      "name": "getMultiSigConfig",
      "outputs": [
        {
          "components": [
            {
              "internalType": "uint256",
              "name": "lockId",
              "type": "uint256"
            },
            {
              "internalType": "uint256",
              "name": "requiredApprovals",
              "type": "uint256"
            },
            {
              "internalType": "uint256",
              "name": "currentApprovals",
              "type": "uint256"
            },
            {
              "internalType": "address[]",
              "name": "signers",
              "type": "address[]"
            }
          ],
          "internalType": "struct LockBox.MultiSigConfig",
          "name": "",
          "type": "tuple"
        }
      ],
      "stateMutability": "view",
      "type": "function"
    },
    {
      "inputs": [],
      "name": "getOperators",
      "outputs": [
        {
          "internalType": "address[]",
          "name": "",
          "type": "address[]"
        }
      ],
      "stateMutability": "view",
      "type": "function"
    },
    {
      "inputs": [
        {
          "internalType": "uint256",
          "name": "lockId",
          "type": "uint256"
        }
      ],
      "name": "getReleasableAmount",
      "outputs": [
        {
          "internalType": "uint256",
          "name": "",
          "type": "uint256"
        }
      ],
      "stateMutability": "view",
      "type": "function"
    },
    {
      "inputs": [
        {
          "internalType": "uint256",
          "name": "lockId",
          "type": "uint256"
        }
      ],
      "name": "getReleaseHistory",
      "outputs": [
        {
          "components": [
            {
              "internalType": "uint256",
              "name": "lockId",
              "type": "uint256"
            },
            {
              "internalType": "uint256",
              "name": "amount",
              "type": "uint256"
            },
            {
              "internalType": "address",
              "name": "releasedTo",
              "type": "address"
            },
            {
              "internalType": "address",
              "name": "releasedBy",
              "type": "address"
            },
            {
              "internalType": "uint256",
              "name": "timestamp",
              "type": "uint256"
            },
            {
              "internalType": "string",
              "name": "reason",
              "type": "string"
            }
          ],
          "internalType": "struct LockBox.ReleaseRecord[]",
          "name": "",
          "type": "tuple[]"
        }
      ],
      "stateMutability": "view",
      "type": "function"
    },
    {
      "inputs": [],
      "name": "getStatistics",
      "outputs": [
        {
          "internalType": "uint256",
          "name": "_lockCount",
          "type": "uint256"
        },
        {
          "internalType": "uint256",
          "name": "_totalLocked",
          "type": "uint256"
        },
        {
          "internalType": "uint256",
          "name": "_totalReleased",
          "type": "uint256"
        },
        {
          "internalType": "uint256",
          "name": "_totalEmergencyWithdrawals",
          "type": "uint256"
        },
        {
          "internalType": "uint256",
          "name": "_totalPenaltiesCollected",
          "type": "uint256"
        }
      ],
      "stateMutability": "view",
      "type": "function"
    },
    {
      "inputs": [
        {
          "internalType": "address",
          "name": "user",
          "type": "address"
        }
      ],
      "name": "getUserLocks",
      "outputs": [
        {
          "internalType": "uint256[]",
          "name": "",
          "type": "uint256[]"
        }
      ],
      "stateMutability": "view",
      "type": "function"
    },
    {
      "inputs": [
        {
          "internalType": "uint256",
          "name": "lockId",
          "type": "uint256"
        }
      ],
      "name": "getVestingSchedule",
      "outputs": [
        {
          "components": [
            {
              "internalType": "uint256",
              "name": "lockId",
              "type": "uint256"
            },
            {
              "internalType": "uint256",
              "name": "totalAmount",
              "type": "uint256"
            },
            {
              "internalType": "uint256",
              "name": "releasedAmount",
              "type": "uint256"
            },
            {
              "internalType": "uint256",
              "name": "startTime",
              "type": "uint256"
            },
            {
              "internalType": "uint256",
              "name": "cliffDuration",
              "type": "uint256"
            },
            {
              "internalType": "uint256",
              "name": "vestingDuration",
              "type": "uint256"
            },
            {
              "internalType": "uint256",
              "name": "slicePeriod",
              "type": "uint256"
            },
            {
              "internalType": "bool",
              "name": "revocable",
              "type": "bool"
            },
            {
              "internalType": "bool",
              "name": "revoked",
              "type": "bool"
            }
          ],
          "internalType": "struct LockBox.VestingSchedule",
          "name": "",
          "type": "tuple"
        }
      ],
      "stateMutability": "view",
      "type": "function"
    },
    {
      "inputs": [
        {
          "internalType": "address",
          "name": "account",
          "type": "address"
        }
      ],
      "name": "isOperator",
      "outputs": [
        {
          "internalType": "bool",
          "name": "",
          "type": "bool"
        }
      ],
      "stateMutability": "view",
      "type": "function"
    },
    {
      "inputs": [],
      "name": "lockCount",
      "outputs": [
        {
          "internalType": "uint256",
          "name": "",
          "type": "uint256"
        }
      ],
      "stateMutability": "view",
      "type": "function"
    },
    {
      "inputs": [
        {
          "internalType": "address",
          "name": "beneficiary",
          "type": "address"
        },
        {
          "internalType": "uint256",
          "name": "amount",
          "type": "uint256"
        },
        {
          "internalType": "uint256",
          "name": "duration",
          "type": "uint256"
        },
        {
          "internalType": "string",
          "name": "refId",
          "type": "string"
        }
      ],
      "name": "lockLUSD",
      "outputs": [
        {
          "internalType": "uint256",
          "name": "lockId",
          "type": "uint256"
        }
      ],
      "stateMutability": "nonpayable",
      "type": "function"
    },
    {
      "inputs": [
        {
          "internalType": "uint256",
          "name": "",
          "type": "uint256"
        }
      ],
      "name": "locks",
      "outputs": [
        {
          "internalType": "uint256",
          "name": "id",
          "type": "uint256"
        },
        {
          "internalType": "address",
          "name": "depositor",
          "type": "address"
        },
        {
          "internalType": "address",
          "name": "beneficiary",
          "type": "address"
        },
        {
          "internalType": "uint256",
          "name": "amount",
          "type": "uint256"
        },
        {
          "internalType": "uint256",
          "name": "originalAmount",
          "type": "uint256"
        },
        {
          "internalType": "uint256",
          "name": "lockTime",
          "type": "uint256"
        },
        {
          "internalType": "uint256",
          "name": "unlockTime",
          "type": "uint256"
        },
        {
          "internalType": "enum LockBox.LockStatus",
          "name": "status",
          "type": "uint8"
        },
        {
          "internalType": "enum LockBox.LockType",
          "name": "lockType",
          "type": "uint8"
        },
        {
          "internalType": "string",
          "name": "refId",
          "type": "string"
        },
        {
          "internalType": "bytes32",
          "name": "txHash",
          "type": "bytes32"
        }
      ],
      "stateMutability": "view",
      "type": "function"
    },
    {
      "inputs": [
        {
          "internalType": "uint256",
          "name": "",
          "type": "uint256"
        },
        {
          "internalType": "address",
          "name": "",
          "type": "address"
        }
      ],
      "name": "multiSigApprovals",
      "outputs": [
        {
          "internalType": "bool",
          "name": "",
          "type": "bool"
        }
      ],
      "stateMutability": "view",
      "type": "function"
    },
    {
      "inputs": [
        {
          "internalType": "uint256",
          "name": "",
          "type": "uint256"
        }
      ],
      "name": "multiSigConfigs",
      "outputs": [
        {
          "internalType": "uint256",
          "name": "lockId",
          "type": "uint256"
        },
        {
          "internalType": "uint256",
          "name": "requiredApprovals",
          "type": "uint256"
        },
        {
          "internalType": "uint256",
          "name": "currentApprovals",
          "type": "uint256"
        }
      ],
      "stateMutability": "view",
      "type": "function"
    },
    {
      "inputs": [
        {
          "internalType": "address",
          "name": "",
          "type": "address"
        }
      ],
      "name": "operators",
      "outputs": [
        {
          "internalType": "bool",
          "name": "",
          "type": "bool"
        }
      ],
      "stateMutability": "view",
      "type": "function"
    },
    {
      "inputs": [
        {
          "internalType": "uint256",
          "name": "",
          "type": "uint256"
        }
      ],
      "name": "operatorsList",
      "outputs": [
        {
          "internalType": "address",
          "name": "",
          "type": "address"
        }
      ],
      "stateMutability": "view",
      "type": "function"
    },
    {
      "inputs": [
        {
          "internalType": "uint256",
          "name": "lockId",
          "type": "uint256"
        },
        {
          "internalType": "uint256",
          "name": "amount",
          "type": "uint256"
        }
      ],
      "name": "partialRelease",
      "outputs": [],
      "stateMutability": "nonpayable",
      "type": "function"
    },
    {
      "inputs": [],
      "name": "pause",
      "outputs": [],
      "stateMutability": "nonpayable",
      "type": "function"
    },
    {
      "inputs": [],
      "name": "paused",
      "outputs": [
        {
          "internalType": "bool",
          "name": "",
          "type": "bool"
        }
      ],
      "stateMutability": "view",
      "type": "function"
    },
    {
      "inputs": [],
      "name": "pendingAdmin",
      "outputs": [
        {
          "internalType": "address",
          "name": "",
          "type": "address"
        }
      ],
      "stateMutability": "view",
      "type": "function"
    },
    {
      "inputs": [
        {
          "internalType": "uint256",
          "name": "",
          "type": "uint256"
        },
        {
          "internalType": "uint256",
          "name": "",
          "type": "uint256"
        }
      ],
      "name": "releaseHistory",
      "outputs": [
        {
          "internalType": "uint256",
          "name": "lockId",
          "type": "uint256"
        },
        {
          "internalType": "uint256",
          "name": "amount",
          "type": "uint256"
        },
        {
          "internalType": "address",
          "name": "releasedTo",
          "type": "address"
        },
        {
          "internalType": "address",
          "name": "releasedBy",
          "type": "address"
        },
        {
          "internalType": "uint256",
          "name": "timestamp",
          "type": "uint256"
        },
        {
          "internalType": "string",
          "name": "reason",
          "type": "string"
        }
      ],
      "stateMutability": "view",
      "type": "function"
    },
    {
      "inputs": [
        {
          "internalType": "uint256",
          "name": "lockId",
          "type": "uint256"
        }
      ],
      "name": "releaseLUSD",
      "outputs": [],
      "stateMutability": "nonpayable",
      "type": "function"
    },
    {
      "inputs": [
        {
          "internalType": "address",
          "name": "operator",
          "type": "address"
        }
      ],
      "name": "removeOperator",
      "outputs": [],
      "stateMutability": "nonpayable",
      "type": "function"
    },
    {
      "inputs": [
        {
          "internalType": "uint256",
          "name": "lockId",
          "type": "uint256"
        }
      ],
      "name": "revokeVesting",
      "outputs": [],
      "stateMutability": "nonpayable",
      "type": "function"
    },
    {
      "inputs": [
        {
          "internalType": "address",
          "name": "newTreasury",
          "type": "address"
        }
      ],
      "name": "setTreasury",
      "outputs": [],
      "stateMutability": "nonpayable",
      "type": "function"
    },
    {
      "inputs": [],
      "name": "totalEmergencyWithdrawals",
      "outputs": [
        {
          "internalType": "uint256",
          "name": "",
          "type": "uint256"
        }
      ],
      "stateMutability": "view",
      "type": "function"
    },
    {
      "inputs": [],
      "name": "totalLocked",
      "outputs": [
        {
          "internalType": "uint256",
          "name": "",
          "type": "uint256"
        }
      ],
      "stateMutability": "view",
      "type": "function"
    },
    {
      "inputs": [],
      "name": "totalPenaltiesCollected",
      "outputs": [
        {
          "internalType": "uint256",
          "name": "",
          "type": "uint256"
        }
      ],
      "stateMutability": "view",
      "type": "function"
    },
    {
      "inputs": [],
      "name": "totalReleased",
      "outputs": [
        {
          "internalType": "uint256",
          "name": "",
          "type": "uint256"
        }
      ],
      "stateMutability": "view",
      "type": "function"
    },
    {
      "inputs": [
        {
          "internalType": "address",
          "name": "newAdmin",
          "type": "address"
        }
      ],
      "name": "transferAdmin",
      "outputs": [],
      "stateMutability": "nonpayable",
      "type": "function"
    },
    {
      "inputs": [],
      "name": "treasury",
      "outputs": [
        {
          "internalType": "address",
          "name": "",
          "type": "address"
        }
      ],
      "stateMutability": "view",
      "type": "function"
    },
    {
      "inputs": [],
      "name": "unpause",
      "outputs": [],
      "stateMutability": "nonpayable",
      "type": "function"
    },
    {
      "inputs": [
        {
          "internalType": "address",
          "name": "",
          "type": "address"
        },
        {
          "internalType": "uint256",
          "name": "",
          "type": "uint256"
        }
      ],
      "name": "userLocks",
      "outputs": [
        {
          "internalType": "uint256",
          "name": "",
          "type": "uint256"
        }
      ],
      "stateMutability": "view",
      "type": "function"
    },
    {
      "inputs": [
        {
          "internalType": "uint256",
          "name": "",
          "type": "uint256"
        }
      ],
      "name": "vestingSchedules",
      "outputs": [
        {
          "internalType": "uint256",
          "name": "lockId",
          "type": "uint256"
        },
        {
          "internalType": "uint256",
          "name": "totalAmount",
          "type": "uint256"
        },
        {
          "internalType": "uint256",
          "name": "releasedAmount",
          "type": "uint256"
        },
        {
          "internalType": "uint256",
          "name": "startTime",
          "type": "uint256"
        },
        {
          "internalType": "uint256",
          "name": "cliffDuration",
          "type": "uint256"
        },
        {
          "internalType": "uint256",
          "name": "vestingDuration",
          "type": "uint256"
        },
        {
          "internalType": "uint256",
          "name": "slicePeriod",
          "type": "uint256"
        },
        {
          "internalType": "bool",
          "name": "revocable",
          "type": "bool"
        },
        {
          "internalType": "bool",
          "name": "revoked",
          "type": "bool"
        }
      ],
      "stateMutability": "view",
      "type": "function"
    }
  ],
  "bytecode": "0x60a0346200017557601f62003efd38819003918201601f19168301916001600160401b038311848410176200017a578084926020946040528339810103126200017557516001600160a01b0381169081900362000175578015620001635760018060a01b03196000913382845416178355816007541617600755338252600860205260408220600160ff19825416179055601054680100000000000000008110156200014f5760018101806010558110156200013b5760108352602083200190339082541617905542608052600160115560405133827feea727eb6f741f10667c9ff77aa3a88a17a67fc7e7aedc3526b3f89e9d2da97e8180a34281527f20c899c9053446f0d7a408c709f0196e2c26c6a985dcad854dc19ad567c4531f60203392a3604051613d6c90816200019182396080518161048a0152f35b634e487b7160e01b83526032600452602483fd5b634e487b7160e01b83526041600452602483fd5b60405163d92e233d60e01b8152600490fd5b600080fd5b634e487b7160e01b600052604160045260246000fdfe608080604052600436101561001357600080fd5b60003560e01c908163025d3c83146135bd575080630905f560146135975780630e18b6811461350257806310337bdd146134b857806313e7c9d81461216b578063204fd3b41461328e57806323a35de91461321657806326782247146131ed57806327a099d814613158578063372d6b27146131185780633950b82a146130e95780633ac6871614612b455780633f4ba83a14612ae7578063432b8e3514612a9a5780634f1bfc9e14612a7b5780635312ea8e1461283c57806355602fc01461261a57806356891412146125fc5780635a50c81f146123115780635c975abb146122eb57806361d027b3146122c257806365c223c7146122365780636d3cbe21146121aa5780636d70f7ae1461216b57806372c14e1f146120db5780637455a82b14611ca357806375829def14611c3257806378b4330f14611c145780637b831ca414611b905780637eaacdb014611b7257806380da328014611b305780638456cb5914611aaa5780638f9bcee814611a8d57806396a9d913146118155780639870d7fe1461174c57806399b20eaf146116ee5780639b10b6f5146116d0578063aa33fedb14611678578063ac8a584a146114fa578063b0070a30146113ff578063bc161f87146113b2578063beb8f88314611272578063cb55e59d14611167578063cd4d9cf614610feb578063d009601014610f83578063d498923c14610942578063d68f4dd114610768578063dd12820014610522578063e1a4521814610505578063e33b7de3146104e7578063e84c3357146104c9578063ea05dc8d146104ad578063eae4c19f14610472578063f0f44260146103db578063f4dadc611461030a578063f851a440146102e15763ffa1ad741461029257600080fd5b346102dc5760003660031901126102dc576102d86040516102b28161381c565b60058152640332e302e360dc1b60208201526040519182916020835260208301906138fe565b0390f35b600080fd5b346102dc5760003660031901126102dc576000546040516001600160a01b039091168152602090f35b346102dc5760203660031901126102dc5760043560005260096020526040600020805460018060a01b03916103d08360018301541693600283015416916103be600382015460048301546005840154600685015491600786015493600961037360088901613858565b970154986040519b8c9b8c5260208c015260408b015260608a0152608089015260a088015260c08701526103ad60e0870160ff831661393e565b60ff61010087019160081c1661394b565b610160806101208601528401906138fe565b906101408301520390f35b346102dc5760203660031901126102dc576103f461360c565b6000546001600160a01b0391908216330361046157811690811561044f57600754826001600160601b0360a01b821617600755167f4ab5be82436d353e61ca18726e984e561f5c1cc7c6d38b29d2553c790434705a600080a3005b60405163d92e233d60e01b8152600490fd5b6040516282b42960e81b8152600490fd5b346102dc5760003660031901126102dc5760206040517f00000000000000000000000000000000000000000000000000000000000000008152f35b346102dc5760003660031901126102dc57602060405160028152f35b346102dc5760003660031901126102dc576020600554604051908152f35b346102dc5760003660031901126102dc576020600454604051908152f35b346102dc5760003660031901126102dc5760206040516127108152f35b346102dc576020806003193601126102dc5760043561054660026011541415613958565b600260115560ff60015460a01c16610756578015801561074b575b61073957600052600981526040600020600a825260406000209060ff600782015460081c166003811015610723576001036104615760018101805490926001600160a01b0391821633141580610715575b61070357600781019081549160ff8316156106f15760ff8360081c166106df576101006105f49361ff00191617905560016105ec82613c8d565b910154613a82565b9081610602575b6001601155005b610659936003869401610616848254613a82565b905561062483600354613a82565b6003555460405163a9059cbb60e01b815291166001600160a01b03166004820152602481019190915291829081906044820190565b03816000738de60f88f19dad42dde0d9ed2eeba68269722a995af19182156106d3576000926106a6575b5050156106945780808080806105fb565b6040516312171d8360e31b8152600490fd5b6106c59250803d106106cc575b6106bd8183613837565b8101906139a4565b8180610683565b503d6106b3565b6040513d6000823e3d90fd5b6040516355cddcd160e11b8152600490fd5b604051639414820d60e01b8152600490fd5b604051633cc50b4560e01b8152600490fd5b5081600054163314156105b2565b634e487b7160e01b600052602160045260246000fd5b604051636086ee6f60e11b8152600490fd5b506002548111610561565b60405163ab35696f60e01b8152600490fd5b346102dc5760203660031901126102dc57600435600061014060405161078d816137ae565b8281528260208201528260408201528260608201528260808201528260a08201528260c08201528260e0820152826101008201526060610120820152015280158015610937575b6107395760005260096020526040600020604051906107f2826137ae565b8054825260018101546001600160a01b0390811660208401526002820154166040830152600381015460608301526004810154608083015260058082015460a0840152600682015460c0840152600782015460ff8116918210156107235760ff9160e085015260081c169060038210156107235760099161010084015261087b60088201613858565b61012084015201546101408201526040518091602082528051602083015260018060a01b03602082015116604083015260018060a01b03604082015116606083015260608101516080830152608081015160a083015260a081015160c083015260c081015160e08301526108f860e082015161010084019061393e565b61090c61010082015161012084019061394b565b61012081015161014061092c6101609283838701526101808601906138fe565b920151908301520390f35b5060025481116107d4565b346102dc5760c03660031901126102dc5761095b61360c565b6001600160401b03606435116102dc573660236064350112156102dc576001600160401b0360643560040135116102dc573660246064356004013560051b6064350101116102dc5760a4356001600160401b0381116102dc576109c2903690600401613715565b90916109d360026011541415613958565b600260115560015460ff8160a01c166107565760a81c60ff16610f71576001600160a01b0381161561044f5760243515610f5f5762015180604435108015610f50575b610f3e5760026064356004013510610f1b576002608435108015610f2d575b610f1b576040516323b872dd60e01b8152336004820152306024808301919091523560448201526020816064816000738de60f88f19dad42dde0d9ed2eeba68269722a995af19081156106d357600091610efc575b501561069457610a9b6002546139bc565b9182600255610aac604435426139cb565b91604051610ab9816137ae565b8481523360208201526001600160a01b03821660408201526024356060820181905260808201524260a082015260c08101849052600060e08201526002610100820152610b073684886139d8565b6101208201526000610140820152846000526009602052604060002090805182556001820160018060a01b03602083015116906001600160601b0360a01b9182825416179055600283019060018060a01b0360408401511690825416179055606081015160038301556080810151600483015560a0810151600583015560c081015160068301556007820160e0820151600581101561072357610baa9082613a1e565b61010082015160038110156107235761ff0082549160081b169061ff0019161790556101208101518051906001600160401b038211610e0357610bf06008850154613774565b601f8111610ebc575b50602090601f8311600114610e465791806009949261014094600092610e3b575b50508160011b916000199060031b1c19161760088501555b015191015560405194610c4486613801565b848652608435602087015260006040870152610c6560643560040135613c56565b610c726040519182613837565b60643560048101358252602401602082015b60246064356004013560051b60643501018210610e195750506060870190815285600052600b6020526040806000209780518955602081015160018a015501516002880155518051906001600160401b038211610e0357600160401b8211610e03576020600391828a015484848c0155808510610de4575b5001970160005260206000209660005b828110610dc757602088888882600080516020613d178339815191528a838b33600052600d8952610d41856040600020613a4d565b60018060a01b038316600052600e8952610d5f856040600020613a4d565b610d6d6024356003546139cb565b60035560405196602435885289880152600260408801526080606088015281608088015260a0870137600060a0858701015260018060a01b03169360a0813395601f80199101168101030190a46001601155604051908152f35b81516001600160a01b0316818a0155602090910190600101610d0c565b610dfd90848c0160005285846000209182019101613a36565b8a610cfc565b634e487b7160e01b600052604160045260246000fd5b81356001600160a01b03811690036102dc578135815260209182019101610c84565b015190508b80610c1a565b906008850160005260206000209160005b601f1985168110610ea4575092600994926001926101409583601f19811610610e8b575b505050811b016008850155610c32565b015160001960f88460031b161c191690558b8080610e7b565b91926020600181928685015181550194019201610e57565b610eec90600886016000526020600020601f850160051c81019160208610610ef2575b601f0160051c0190613a36565b89610bf9565b9091508190610edf565b610f15915060203d6020116106cc576106bd8183613837565b84610a8a565b604051635e231fff60e01b8152600490fd5b506064356004013560843511610a35565b604051637616640160e01b8152600490fd5b506312cc030060443511610a16565b604051631f2a200560e01b8152600490fd5b6040516319e1bef560e01b8152600490fd5b346102dc5760003660031901126102dc576000546001600160a01b03163303610461576001805461ffff60a01b191661010160a01b17905560405142815233907f16ea6c4a0ff7e3a4c096560a5a71632e344907cd03af0f6e655b409a61d549ef90602090a2005b346102dc576020806003193601126102dc576004358015801561115c575b61073957600052600f815260406000209081549161102683613c56565b926110346040519485613837565b8084528284018092600052836000206000915b8383106110f25750505050604051918083019381845251809452604083019360408160051b85010192916000955b8287106110825785850386f35b9091929382806110e2600193603f198a82030186528851805182528381015184830152858060a01b038060408301511660408401526060908183015116908301526080808201519083015260a0809101519160c0809282015201906138fe565b9601920196019592919092611075565b600686600192604099989951611107816137e6565b855481528486015483820152848060a01b0380600288015416604083015260038701541660608201526004860154608082015261114660058701613858565b60a0820152815201920192019190959495611047565b506002548111611009565b346102dc576020806003193601126102dc5760043560608060405161118b81613801565b6000815260008582015260006040820152015280158015611267575b61073957600052600b81526040600020604051906111c482613801565b8054825260019081810154848401908152600360028301549260408601938452016040518094878354928381520192600052876000209160005b8982821061124b57896102d88a8a8a611219838c0384613837565b6060850192835260405195869581875251908601525160408501525160608401525160808084015260a08301906136d8565b84546001600160a01b03168652909401939282019282016111fe565b5060025481116111a7565b346102dc5760203660031901126102dc57600435604051611292816137ca565b6000815260006020820152600060408201526000606082015260006080820152600060a0820152600060c0820152600060e0820152600061010080920152811580156113a7575b6107395761012091600052600a602052604060002090604051916112fc836137ca565b805492838152600182015491602082019283526002810154604083019081526003820154606084019081526004830154906080850191825260058401549260a08601938452600760068601549560c0880196875201549660ff8960e0890198828b1615158a52019860081c1615158852604051998a525160208a01525160408901525160608801525160808701525160a08601525160c085015251151560e084015251151590820152f35b5060025482116112d9565b346102dc5760403660031901126102dc576113cb613622565b600435600052600c60205260406000209060018060a01b0316600052602052602060ff604060002054166040519015158152f35b346102dc5760403660031901126102dc5760043561141b613622565b811580156114ef575b610739576001600160a01b0390811691821561044f57806000526009602052604060002082600182015416331415806114e1575b6107035760ff6007820154166005811015610723576114cf57602060027fb2aad337329b4c2a45b26c6776032a9fb5a0a5a9bd1391e10ab75de1ba638405920193845494866001600160601b0360a01b871617905585600052600e82526114c3846040600020613a4d565b604051944286521693a4005b6040516304a417d360e31b8152600490fd5b508260005416331415611458565b506002548211611424565b346102dc5760203660031901126102dc5761151361360c565b6000546001600160a01b039190821633036104615781169081600052600860205260ff6040600020541615611666576000828152600860205260408120805460ff191690555b6010908154918282101561165d5783928561157384613638565b969054600397881b1c161461159457505061158f9192506139bc565b611559565b9092916000199180830191908211611647576115c3846115b66115e294613638565b905490891b1c1691613638565b90919082549060031b9160018060a01b03809116831b921b1916179055565b825480156116315701926115f584613638565b81939154921b1b19169055555b604051904282527fa85b3d3497f1e4522d447f02e1a1d16506431ba902da11611a51d8502400e4ea60203393a3005b634e487b7160e01b600052603160045260246000fd5b634e487b7160e01b600052601160045260246000fd5b50505050611602565b604051631f0853c160e21b8152600490fd5b346102dc5760403660031901126102dc5761169161360c565b6001600160a01b03166000908152600d60205260409020805460243591908210156102dc576020916116c291613685565b90546040519160031b1c8152f35b346102dc5760003660031901126102dc576020600254604051908152f35b346102dc5760003660031901126102dc576000546001600160a01b031633036104615760ff60a81b19600154166001556040514281527f081290595212b102be0fdb64c1ac6ebd5ae4f06a47328806981745f7d906b3b560203392a2005b346102dc5760203660031901126102dc5761176561360c565b6000546001600160a01b03908116330361046157811690811561044f5781600052600860205260ff60406000205416611803578160005260086020526040600020600160ff1982541617905560105490600160401b821015610e03576115c38260016117d49401601055613638565b604051904282527f20c899c9053446f0d7a408c709f0196e2c26c6a985dcad854dc19ad567c4531f60203393a3005b60405163ad45d80760e01b8152600490fd5b346102dc5761182336613742565b9061183360026011541415613958565b600260115560ff60015460a01c166107565780158015611a82575b6107395780600052602060098152604060002092600784019384549460ff86166005811015610723576114cf5760068201544210611a7057600282019060018060a01b03928383541633141580611a58575b6104615784158015611a4b575b611a3957600301966118c0858954613a82565b808955611a2b5750805460ff191660011790555b6118e083600354613a82565b6003556118ef836004546139cb565b6004908155815460405163a9059cbb60e01b81529084166001600160a01b0316918101919091526024810184905284816044816000738de60f88f19dad42dde0d9ed2eeba68269722a995af19081156106d357600091611a0e575b5015610694576119de7f456855d4972409c25ebde14df327b05e80d62c2e0f37bc7c0aa53440cad1e9a09486600052600f81526040600020848454169160405192611994846137e6565b898452878285015260408401523360608401524260808401526e5061727469616c2072656c6561736560881b604051916119cd8361381c565b600f835282015260a0830152613a8f565b54169354611a046040519283924291846040919493926060820195825260208201520152565b0390a36001601155005b611a259150853d87116106cc576106bd8183613837565b8761194a565b60ff191660021790556118d4565b604051631e9acf1760e31b8152600490fd5b50600381015485116118ad565b50336000526008865260ff60406000205416156118a0565b60405163052949eb60e31b8152600490fd5b50600254811161184e565b346102dc5760003660031901126102dc5760206040516103e88152f35b346102dc5760003660031901126102dc5733600052600860205260ff604060002054161580611b1b575b610461576001805460ff60a01b1916600160a01b17905560405142815233907fab40a374bc51de372200a8bc981af8c9ecdc08dfdaef0bb6e09f88f3c616ef3d90602090a2005b506000546001600160a01b0316331415611ad4565b346102dc5760203660031901126102dc576004356010548110156102dc57611b59602091613638565b905460405160039290921b1c6001600160a01b03168152f35b346102dc5760003660031901126102dc576020600654604051908152f35b346102dc576020806003193601126102dc576001600160a01b03611bb261360c565b16600052600e8152604060002090604051908181845491828152019360005281600020916000905b828210611bfd576102d885611bf181890382613837565b6040519182918261369d565b835486529485019460019384019390910190611bda565b346102dc5760003660031901126102dc576020604051620151808152f35b346102dc5760203660031901126102dc57611c4b61360c565b6000546001600160a01b039081169133839003610461571690811561044f57600180546001600160a01b031916831790557fb4d7bcb4d9a5d6ef6e827e3b1554e5a2578ad9ca843903d42b05d08bfa345894600080a3005b346102dc5760803660031901126102dc57611cbc61360c565b6064356001600160401b0381116102dc57611cdb903690600401613715565b90611ceb60026011541415613958565b600260115560015460ff8160a01c166107565760a81c60ff16610f71576001600160a01b0383161561044f5760243515610f5f57620151806044351080156120cc575b610f3e576040516323b872dd60e01b8152336004820152306024808301919091523560448201526020816064816000738de60f88f19dad42dde0d9ed2eeba68269722a995af19081156106d3576000916120ad575b501561069457611d946002546139bc565b9182600255611da5604435426139cb565b9160405190611db3826137ae565b8482523360208301526001600160a01b03861660408301526024356060830181905260808301524260a083015260c08201849052600060e08301819052610100830152611e013684836139d8565b6101208301526000610140830152846000526009602052604060002095825187556001870160018060a01b03602085015116906001600160601b0360a01b9182825416179055600288019060018060a01b0360408601511690825416179055606083015160038801556080830151600488015560a0830151600588015560c083015160068801556007870160e0840151600581101561072357611ea49082613a1e565b61010084015160038110156107235761ff0082549160081b169061ff0019161790556101208301518051926001600160401b038411610e03578888948793611ef1600860209d0154613774565b601f811161207a575b508b90601f8311600114611fee57978260099361014093600080516020613d178339815191529a9b600092611fe3575b50508160011b916000199060031b1c19161760088501555b015191015533600052600d8952611f5d856040600020613a4d565b60018060a01b038316600052600e8952611f7b856040600020613a4d565b611f896024356003546139cb565b60035560405196602435885289880152600060408801526080606088015281608088015260a0870137600060a0858701015260018060a01b03169360a0813395601f80199101168101030190a46001601155604051908152f35b015190508f80611f2a565b979190600884016000528c6000209860005b601f198416811061205d575082600080516020613d17833981519152999a6009959360019361014096601f19811610612044575b505050811b016008850155611f42565b015160001960f88460031b161c191690558f8080612034565b828201518b556001909a01998d99508b9750918e01918e01612000565b6120a790600885016000528d600020601f850160051c8101918f8610610ef257601f0160051c0190613a36565b8c611efa565b6120c6915060203d6020116106cc576106bd8183613837565b84611d83565b506312cc030060443511611d2e565b346102dc576120e936613742565b90600052600f60205260406000209081548110156102dc5761210a91613758565b5080546102d860018301549260018060a01b0390816002820154169160038201541661213d600560048401549301613858565b926040519687968752602087015260408601526060850152608084015260c060a084015260c08301906138fe565b346102dc5760203660031901126102dc576001600160a01b0361218c61360c565b166000526008602052602060ff604060002054166040519015158152f35b346102dc5760203660031901126102dc57600435600052600a602052610120604060002060ff815491600181015490600281015460038201546004830154906005840154926007600686015495015495604051988952602089015260408801526060870152608086015260a085015260c0840152818116151560e084015260081c161515610100820152f35b346102dc5760003660031901126102dc576040516370a0823160e01b8152306004820152602081602481738de60f88f19dad42dde0d9ed2eeba68269722a995afa80156106d357600090612290575b602090604051908152f35b506020813d82116122ba575b816122a960209383613837565b810103126102dc5760209051612285565b3d915061229c565b346102dc5760003660031901126102dc576007546040516001600160a01b039091168152602090f35b346102dc5760003660031901126102dc57602060ff60015460a01c166040519015158152f35b346102dc576020806003193601126102dc576004359060019160ff835460a01c1661075657801580156125f1575b6107395780600052600982526040600020600b8352604060002060078201549160ff8360081c169260039384811015610723576002036104615760ff166005811015610723576114cf57600601544210611a705782600052600c8452604060002033600052845260ff604060002054166125df576000808383018054915b8281106125a5575b505050156104615782600052600c8452604060002033600052845260406000209060ff1991868382541617905585600282019161240283546139bc565b8093550154906040518181528287820152857fc993e60c6bf9dbd562b8c3796f50de8d9e54439cf55afc37e33ffef7405ed90460403393a3101561244257005b6002918360005260098552604060002091818301966000885498556007840191825416179055612473868254613a82565b9055612481856004546139cb565b60049081559101805460405163a9059cbb60e01b81526001600160a01b0391821693810193909352602483018690529184816044816000738de60f88f19dad42dde0d9ed2eeba68269722a995af19081156106d357600091612588575b50156106945782600052600f84526125526040600020838354169060405191612506836137e6565b8683528888840152604083015233606083015242608083015260405161252b8161381c565b60118152704d756c74692d7369672072656c6561736560781b8882015260a0830152613a8f565b54169160405193845242908401527fee4f1597a069de5169c1598ea3a34fbf93aa95c448f397a38c4c469e87162b6360403394a4005b61259f9150853d87116106cc576106bd8183613837565b866124de565b6125af8183613685565b905490871b1c6001600160a01b031633146125d2576125cd906139bc565b6123bd565b50505050848680806123c5565b60405163080fc0bd60e11b8152600490fd5b50600254811161233f565b346102dc5760003660031901126102dc576020600354604051908152f35b346102dc576020806003193601126102dc576004359061263f60026011541415613958565b600260115560ff60015460a01c166107565781158015612831575b610739578160005260098152604060002091600783019283549360ff85166005811015610723576114cf5760068201544210611a7057600282019060018060a01b03928383541633141580612821575b80612809575b610461576003600191019660008854985560ff19161790556126d485600354613a82565b6003556126e3856004546139cb565b6004908155815460405163a9059cbb60e01b81529084166001600160a01b0316918101919091526024810186905284816044816000738de60f88f19dad42dde0d9ed2eeba68269722a995af19081156106d3576000916127ec575b50156106945782600052600f84526127b16040600020838354169060405191612766836137e6565b8683528888840152604083015233606083015242608083015260405161278b8161381c565b601081526f5374616e646172642072656c6561736560801b8882015260a0830152613a8f565b54169160405193845242908401527fee4f1597a069de5169c1598ea3a34fbf93aa95c448f397a38c4c469e87162b6360403394a46001601155005b6128039150853d87116106cc576106bd8183613837565b8661273e565b50336000526008865260ff60406000205416156126b0565b50836001820154163314156126aa565b50600254821161265a565b346102dc576020806003193601126102dc5760043561286060026011541415613958565b600260115580158015612a70575b6107395780600052600982526040600020916007830180549360ff85166005811015610723576114cf5760018101805490936001600160a01b0392909183163303610703576003019283546103e8918282029282840414821517156116475760036127106128f594049960006128e48c86613a82565b985560ff1916179055600354613a82565b6003556129036005546139bc565b600555612912866006546139cb565b600655826129e8575b85612969575b507f9fe476d87d76336f0e6c18d6bae9af001073b3c6d759b8159120b43a9a6a54e092541693611a046040519283924291846040919493926060820195825260208201520152565b60075460405163a9059cbb60e01b81529083166001600160a01b031660048201526024810187905281816044816000738de60f88f19dad42dde0d9ed2eeba68269722a995af19182156106d3576000926129cb575b5050156106945785612921565b6129e19250803d106106cc576106bd8183613837565b86806129be565b835460405163a9059cbb60e01b81529083166001600160a01b031660048201526024810184905281816044816000738de60f88f19dad42dde0d9ed2eeba68269722a995af19081156106d357600091612a53575b5061291b576040516312171d8360e31b8152600490fd5b612a6a9150823d84116106cc576106bd8183613837565b87612a3c565b50600254811161286e565b346102dc5760003660031901126102dc5760206040516312cc03008152f35b346102dc5760203660031901126102dc57600435600052600b602052604060002080546102d860026001840154930154604051938493846040919493926060820195825260208201520152565b346102dc5760003660031901126102dc576000546001600160a01b031633036104615760ff60a01b19600154166001556040514281527f3582d1828e26bf56bd801502bc021ac0bc8afb57c826e4986b45593c8fad389c60203392a2005b346102dc576101003660031901126102dc57612b5f61360c565b60c43580151581036102dc5760e4356001600160401b0381116102dc57612b8a903690600401613715565b91612b9a60026011541415613958565b600260115560015460ff8160a01c166107565760a81c60ff16610f7157604435916001600160a01b0385161561044f5760243515610f5f576084351580156130da575b610f3e5760a4351580156130cd575b610f3e574283106130c5575b6040516323b872dd60e01b8152336004820152306024808301919091523560448201526020816064816000738de60f88f19dad42dde0d9ed2eeba68269722a995af19081156106d3576000916130a6575b501561069457612c5a6002546139bc565b9384600255612c6b608435856139cb565b9560405196612c79886137ae565b8688523360208901526001600160a01b03821660408901526024356060890181905260808901524260a089015260c0880152600060e08801526001610100880152612cc53683856139d8565b6101208801526000610140880152856000526009602052604060002093875185556001850160018060a01b0360208a015116906001600160601b0360a01b9182825416179055600286019060018060a01b0360408b01511690825416179055606088015160038601556080880151600486015560a0880151600586015560c088015160068601556007850160e0890151600581101561072357612d689082613a1e565b61010089015160038110156107235761ff0082549160081b169061ff001916179055610120880151948551986001600160401b038a11610e03576020998997612db46008850154613774565b601f8111613073575b508b90601f8311600114612fc157936009610140600080516020613d17833981519152958560809c9a968e9f9c9a967f7f0f953ce812305bde5a2ef103bec5aa9d8f0293294040bbe17b2b4ae5fe35629f9a600092612fb6575b50508160011b916000199060031b1c19161760088501555b015191015560405190612e41826137ca565b8482526024358d830152600060408301528760608301526064358983015260843560a083015260a43560c0830152151560e082015261010081016000815284600052600a8d5260e060076040600020845181558f850151600182015560408501516002820155606085015160038201558b850151600482015560a0850151600582015560c085015160068201550192015115159060ff61ff0084549251151560081b1692169061ffff19161717905533600052600d8b52612f06836040600020613a4d565b60018060a01b038116600052600e8b52612f24836040600020613a4d565b612f326024356003546139cb565b60035583612f42608435886139cb565b956040519660243588528d88015260016040880152886060880152818988015260a0870137600060a0858701015260018060a01b03169360a0813395601f80199101168101030190a46040519060243582528682015260643560408201526084356060820152a26001601155604051908152f35b015190503880612e17565b90600885016000528c6000209160005b601f19851681106130595750610140600080516020613d17833981519152956001868e9f9c9a967f7f0f953ce812305bde5a2ef103bec5aa9d8f0293294040bbe17b2b4ae5fe35629f9a9660809f9d9996600997601f19811610613040575b505050811b016008850155612e2f565b015160001960f88460031b161c19169055388080613030565b8183015184558d9b50600190930192918e01918e01612fd1565b6130a090600886016000528d600020601f850160051c8101918f8610610ef257601f0160051c0190613a36565b8c612dbd565b6130bf915060203d6020116106cc576106bd8183613837565b86612c49565b429250612bf8565b5060843560a43511612bec565b506312cc030060843511612bdd565b346102dc5760003660031901126102dc576020604051738de60f88f19dad42dde0d9ed2eeba68269722a998152f35b346102dc5760003660031901126102dc5760a060025460035460045460055490600654926040519485526020850152604084015260608301526080820152f35b346102dc5760003660031901126102dc576040518060105480825282602080930160106000527f1b6847dc741a1b0cd08d278845f9d819d87b734759afb55fe2de5cb82a9ae6729260005b858282106131ce575050506131ba92500383613837565b6102d86040519282849384528301906136d8565b85546001600160a01b03168452600195860195889550930192016131a3565b346102dc5760003660031901126102dc576001546040516001600160a01b039091168152602090f35b346102dc576020806003193601126102dc576001600160a01b0361323861360c565b16600052600d8152604060002090604051908181845491828152019360005281600020916000905b828210613277576102d885611bf181890382613837565b835486529485019460019384019390910190613260565b346102dc576020806003193601126102dc5760043560026132b3816011541415613958565b8060115560ff60015460a01c1661075657811580156134ae575b610739578160005260098352604060002090600a845260406000209160078101805460ff8160081c166003811015610723576001036104615760ff166005811015610723578381151591826134a3575b50506114cf5781830180546001600160a01b039591949190861633036134915760ff600782015460081c166106df578161335682613c8d565b91019361336585548093613a82565b94851561347f57613378866003946139cb565b905501613386848254613a82565b809155156000146134715750805460ff191660011790555b6133aa81600354613a82565b6003556133b9816004546139cb565b6004908155825460405163a9059cbb60e01b81529085166001600160a01b0316918101919091526024810182905285816044816000738de60f88f19dad42dde0d9ed2eeba68269722a995af19081156106d357600091613454575b5015610694577f7ded9b4f6588494bd521c4b18e19dc97cba82271614e2ea6c7d6d99f813672709260409254169482519182524290820152a36001601155005b61346b9150863d88116106cc576106bd8183613837565b86613414565b815460ff191617905561339e565b60405163b10205ed60e01b8152600490fd5b60405163644d871f60e01b8152600490fd5b14159050838861331d565b50805482116132cd565b346102dc5760403660031901126102dc576134d161360c565b6001600160a01b03166000908152600e60205260409020805460243591908210156102dc576020916116c291613685565b346102dc5760003660031901126102dc576001546001600160a01b038082169182156135855782330361357357600054906001600160601b0360a01b90848284161760005516600155167feea727eb6f741f10667c9ff77aa3a88a17a67fc7e7aedc3526b3f89e9d2da97e600080a3005b60405163058d9a1b60e01b8152600490fd5b604051635a29cd7d60e11b8152600490fd5b346102dc5760003660031901126102dc57602060ff60015460a81c166040519015158152f35b346102dc5760203660031901126102dc576004359081158015613601575b6135f25760206135ea83613c12565b604051908152f35b636086ee6f60e11b8152600490fd5b5060025482116135db565b600435906001600160a01b03821682036102dc57565b602435906001600160a01b03821682036102dc57565b60105481101561366f5760106000527f1b6847dc741a1b0cd08d278845f9d819d87b734759afb55fe2de5cb82a9ae6720190600090565b634e487b7160e01b600052603260045260246000fd5b805482101561366f5760005260206000200190600090565b6020908160408183019282815285518094520193019160005b8281106136c4575050505090565b8351855293810193928101926001016136b6565b90815180825260208080930193019160005b8281106136f8575050505090565b83516001600160a01b0316855293810193928101926001016136ea565b9181601f840112156102dc578235916001600160401b0383116102dc57602083818601950101116102dc57565b60409060031901126102dc576004359060243590565b805482101561366f576000526006602060002091020190600090565b90600182811c921680156137a4575b602083101461378e57565b634e487b7160e01b600052602260045260246000fd5b91607f1691613783565b61016081019081106001600160401b03821117610e0357604052565b61012081019081106001600160401b03821117610e0357604052565b60c081019081106001600160401b03821117610e0357604052565b608081019081106001600160401b03821117610e0357604052565b604081019081106001600160401b03821117610e0357604052565b90601f801991011681019081106001600160401b03821117610e0357604052565b906040519182600082549261386c84613774565b9081845260019485811690816000146138db5750600114613898575b505061389692500383613837565b565b9093915060005260209081600020936000915b8183106138c357505061389693508201013880613888565b855488840185015294850194879450918301916138ab565b91505061389694506020925060ff191682840152151560051b8201013880613888565b919082519283825260005b84811061392a575050826000602080949584010152601f8019910116010190565b602081830181015184830182015201613909565b9060058210156107235752565b9060038210156107235752565b1561395f57565b60405162461bcd60e51b815260206004820152601f60248201527f5265656e7472616e637947756172643a207265656e7472616e742063616c6c006044820152606490fd5b908160209103126102dc575180151581036102dc5790565b60001981146116475760010190565b9190820180921161164757565b9291926001600160401b038211610e035760405191613a01601f8201601f191660200184613837565b8294818452818301116102dc578281602093846000960137010152565b9060058110156107235760ff80198354169116179055565b818110613a41575050565b60008155600101613a36565b8054600160401b811015610e0357613a6a91600182018155613685565b819291549060031b91821b91600019901b1916179055565b9190820391821161164757565b8054600160401b811015610e0357613aae906001928382018155613758565b613bfc578251815560a06005602092838601518582015560028101600180851b039081604089015116906001600160601b03861b91828254161790556003830191606089015116908254161790556080860151600482015501930151908151916001600160401b038311610e0357613b268554613774565b601f8111613bcc575b5081601f8411600114613b695750928293918392600094613b5e575b50501b916000199060031b1c1916179055565b015192503880613b4b565b919083601f1981168760005284600020946000905b88838310613bb25750505010613b99575b505050811b019055565b015160001960f88460031b161c19169055388080613b8f565b858701518855909601959485019487935090810190613b7e565b613bf6908660005283600020601f860160051c810191858710610ef257601f0160051c0190613a36565b38613b2f565b634e487b7160e01b600052600060045260246000fd5b600052600a6020526040600020805415613c505760ff600782015460081c16613c5057806002613c44613c4d93613c8d565b91015490613a82565b90565b50600090565b6001600160401b038111610e035760051b60200190565b8115613c77570490565b634e487b7160e01b600052601260045260246000fd5b600381015490814210613d0f57613ca86004820154836139cb565b4210613d0f57600581015491613cbe83826139cb565b421015613d0557613ce9613cd460019242613a82565b613ce360068501548092613c6d565b94613c6d565b91015482810292818404149015171561164757613c4d91613c6d565b5060019150015490565b505060009056fedbf46826e45e25e2abde5d8991ed34af57b0cf6d0fc2ff83534fc28d6c69c6efa264697066735822122080217697cfed9f56b604dc0ec0d7cf203e40454778c905398fd5e3bc422a6f7864736f6c63430008140033",
  "linkReferences": {},
  "deployedLinkReferences": {},
  "immutableReferences": {
    "29725": [
      {
        "length": 32,
        "start": 1162
      }
    ]
  },
  "inputSourceName": "project/contracts/DCBTreasury/v3/LockBox.sol",
  "buildInfoId": "solc-0_8_20-a1c61539025f0654ad3a75bdb2b55239eb68e7f3"
}