{
  "_format": "hh3-artifact-1",
  "contractName": "SimpleBankRegistry",
  "sourceName": "contracts/DCBTreasury/SimpleBankRegistry.sol",
  "abi": [
    {
      "inputs": [],
      "stateMutability": "nonpayable",
      "type": "constructor"
    },
    {
      "anonymous": false,
      "inputs": [
        {
          "indexed": true,
          "internalType": "bytes32",
          "name": "bankId",
          "type": "bytes32"
        },
        {
          "indexed": false,
          "internalType": "string",
          "name": "name",
          "type": "string"
        },
        {
          "indexed": false,
          "internalType": "address",
          "name": "signer",
          "type": "address"
        }
      ],
      "name": "BankRegistered",
      "type": "event"
    },
    {
      "anonymous": false,
      "inputs": [
        {
          "indexed": true,
          "internalType": "bytes32",
          "name": "bankId",
          "type": "bytes32"
        },
        {
          "indexed": false,
          "internalType": "bool",
          "name": "active",
          "type": "bool"
        }
      ],
      "name": "BankUpdated",
      "type": "event"
    },
    {
      "inputs": [],
      "name": "admin",
      "outputs": [
        {
          "internalType": "address",
          "name": "",
          "type": "address"
        }
      ],
      "stateMutability": "view",
      "type": "function"
    },
    {
      "inputs": [
        {
          "internalType": "uint256",
          "name": "",
          "type": "uint256"
        }
      ],
      "name": "bankIds",
      "outputs": [
        {
          "internalType": "bytes32",
          "name": "",
          "type": "bytes32"
        }
      ],
      "stateMutability": "view",
      "type": "function"
    },
    {
      "inputs": [
        {
          "internalType": "bytes32",
          "name": "",
          "type": "bytes32"
        }
      ],
      "name": "banks",
      "outputs": [
        {
          "internalType": "bytes32",
          "name": "bankId",
          "type": "bytes32"
        },
        {
          "internalType": "string",
          "name": "name",
          "type": "string"
        },
        {
          "internalType": "string",
          "name": "swiftCode",
          "type": "string"
        },
        {
          "internalType": "address",
          "name": "signer",
          "type": "address"
        },
        {
          "internalType": "bool",
          "name": "active",
          "type": "bool"
        },
        {
          "internalType": "uint256",
          "name": "registeredAt",
          "type": "uint256"
        }
      ],
      "stateMutability": "view",
      "type": "function"
    },
    {
      "inputs": [
        {
          "internalType": "bytes32",
          "name": "_bankId",
          "type": "bytes32"
        }
      ],
      "name": "getBank",
      "outputs": [
        {
          "components": [
            {
              "internalType": "bytes32",
              "name": "bankId",
              "type": "bytes32"
            },
            {
              "internalType": "string",
              "name": "name",
              "type": "string"
            },
            {
              "internalType": "string",
              "name": "swiftCode",
              "type": "string"
            },
            {
              "internalType": "address",
              "name": "signer",
              "type": "address"
            },
            {
              "internalType": "bool",
              "name": "active",
              "type": "bool"
            },
            {
              "internalType": "uint256",
              "name": "registeredAt",
              "type": "uint256"
            }
          ],
          "internalType": "struct SimpleBankRegistry.Bank",
          "name": "",
          "type": "tuple"
        }
      ],
      "stateMutability": "view",
      "type": "function"
    },
    {
      "inputs": [],
      "name": "getBankCount",
      "outputs": [
        {
          "internalType": "uint256",
          "name": "",
          "type": "uint256"
        }
      ],
      "stateMutability": "view",
      "type": "function"
    },
    {
      "inputs": [
        {
          "internalType": "bytes32",
          "name": "_bankId",
          "type": "bytes32"
        }
      ],
      "name": "isBankActive",
      "outputs": [
        {
          "internalType": "bool",
          "name": "",
          "type": "bool"
        }
      ],
      "stateMutability": "view",
      "type": "function"
    },
    {
      "inputs": [
        {
          "internalType": "string",
          "name": "_name",
          "type": "string"
        },
        {
          "internalType": "string",
          "name": "_swiftCode",
          "type": "string"
        },
        {
          "internalType": "address",
          "name": "_signer",
          "type": "address"
        }
      ],
      "name": "registerBank",
      "outputs": [
        {
          "internalType": "bytes32",
          "name": "",
          "type": "bytes32"
        }
      ],
      "stateMutability": "nonpayable",
      "type": "function"
    },
    {
      "inputs": [
        {
          "internalType": "address",
          "name": "newAdmin",
          "type": "address"
        }
      ],
      "name": "setAdmin",
      "outputs": [],
      "stateMutability": "nonpayable",
      "type": "function"
    },
    {
      "inputs": [
        {
          "internalType": "address",
          "name": "",
          "type": "address"
        }
      ],
      "name": "signerToBank",
      "outputs": [
        {
          "internalType": "bytes32",
          "name": "",
          "type": "bytes32"
        }
      ],
      "stateMutability": "view",
      "type": "function"
    },
    {
      "inputs": [
        {
          "internalType": "bytes32",
          "name": "_bankId",
          "type": "bytes32"
        },
        {
          "internalType": "bool",
          "name": "_active",
          "type": "bool"
        }
      ],
      "name": "updateBankStatus",
      "outputs": [],
      "stateMutability": "nonpayable",
      "type": "function"
    }
  ],
  "bytecode": "0x6080806040523461002857600080546001600160a01b03191633179055610c5d908161002e8239f35b600080fdfe6080604052600436101561001257600080fd5b60003560e01c80630b8df10f146108ba5780631db4f9c11461088257806326ef0d10146107e95780632e44715d146107cb5780633ffbc96a14610794578063704b6c021461074d5780638d1c1bdf14610713578063d0b685a914610607578063f68f7357146100b85763f851a4401461008a57600080fd5b346100b35760003660031901126100b3576000546040516001600160a01b039091168152602090f35b600080fd5b346100b35760603660031901126100b35760043567ffffffffffffffff81116100b3576100e9903690600401610b66565b60243567ffffffffffffffff81116100b357610109903690600401610b66565b604435939192906001600160a01b03851685036100b35761013560018060a01b03600054163314610b94565b6001600160a01b038516156105c2576001600160a01b03851660009081526002602052604090205461056d5760405160208101908385833761019760408285878201818b60208301600081523701426020820152036020810184520182610a48565b519020936101c8604051916101ab83610a2c565b8683526101b9368688610be0565b93602084019485523691610be0565b604082015260018060a01b0386166060820152600160808201524260a0820152846000526001602052604060002091815183555180519067ffffffffffffffff82116103c257819061021d60018601546109f2565b601f811161051a575b50602090601f83116001146104a85760009261049d575b50508160011b916000199060031b1c19161760018301555b604081015180519067ffffffffffffffff82116103c25761027960028501546109f2565b601f8111610456575b50602090601f83116001146103e35791806004949260a0946000926103d8575b50508160011b916000199060031b1c19161760028501555b6060810151600385018054608084015160ff60a01b90151560a01b166001861b600019019093166bffffffffffffffffffffffff861b9091161760ff60a01b191691909117905501519101556001600160a01b038416600090815260026020526040902083905560035490680100000000000000008210156103c257606084938260209761036f8660017f9a48fd54464f653f19dc93bf41e82dce9e6877121a02873489b4635887169bbc98016003556109a5565b81549060031b9089821b91600019901b1916179055604051948593604085528160408601528585013760008383018501526001600160a01b031688830152601f01601f19168101030190a2604051908152f35b634e487b7160e01b600052604160045260246000fd5b015190508a806102a2565b90601f198316916002860160005260206000209260005b81811061043e575092600192859260a0966004989610610425575b505050811b0160028501556102ba565b015160001960f88460031b161c191690558a8080610415565b929360206001819287860151815501950193016103fa565b600285016000526020600020601f840160051c810160208510610496575b601f830160051c8201811061048a575050610282565b60008155600101610474565b5080610474565b01519050888061023d565b9250600185016000526020600020906000935b601f19841685106104ff576001945083601f198116106104e6575b505050811b016001830155610255565b015160001960f88460031b161c191690558880806104d6565b818101518355602094850194600190930192909101906104bb565b909150600185016000526020600020601f840160051c810160208510610566575b90849392915b601f830160051c82018110610557575050610226565b60008155859450600101610541565b508061053b565b60405162461bcd60e51b815260206004820152602760248201527f42616e6b52656769737472793a207369676e657220616c7265616479207265676044820152661a5cdd195c995960ca1b6064820152608490fd5b60405162461bcd60e51b815260206004820152601c60248201527f42616e6b52656769737472793a20696e76616c6964207369676e6572000000006044820152606490fd5b346100b3576020806003193601126100b357600060a060405161062981610a2c565b8281526060848201526060604082015282606082015282608082015201526004356000526001815260406000206040519061066382610a2c565b8054825261067360018201610a6a565b83830190815261068560028301610a6a565b91604084019283526003810154906106f960608601946106e6600460018060a01b0394858716895260ff60808b019760a01c161515875201549560a08901968752604051998a99818b5251908a01525160c060408a015260e0890190610b10565b9051878203601f19016060890152610b10565b935116608085015251151560a08401525160c08301520390f35b346100b35760203660031901126100b3576001600160a01b03610734610b50565b1660005260026020526020604060002054604051908152f35b346100b35760203660031901126100b357610766610b50565b600054906001600160a01b03906107803383851614610b94565b6001600160a01b0319909216911617600055005b346100b35760203660031901126100b3576004356000526001602052602060ff60036040600020015460a01c166040519015158152f35b346100b35760003660031901126100b3576020600354604051908152f35b346100b35760203660031901126100b35760043560005260016020526040600020805461081860018301610a6a565b9161082560028201610a6a565b60ff61085f6004600385015494015492610851604051978897885260c0602089015260c0880190610b10565b908682036040880152610b10565b9260018060a01b038116606086015260a01c161515608084015260a08301520390f35b346100b35760203660031901126100b3576004356003548110156100b3576108ab6020916109a5565b90549060031b1c604051908152f35b346100b35760403660031901126100b357600435602435801515908181036100b3576108f160018060a01b03600054163314610b94565b82600052600160205260406000205415610960576000838152600160209081526040909120600301805460ff60a01b191692151560a01b60ff60a01b16929092179091557f350b823ccb1cd7f798d3f0d3a2be1947f91696275ba3b6d907401868063c000b91604051908152a2005b60405162461bcd60e51b815260206004820152601c60248201527f42616e6b52656769737472793a2062616e6b206e6f7420666f756e64000000006044820152606490fd5b6003548110156109dc5760036000527fc2575a0e9e593c00f959f8c92f12db2869c3395a3b0502d05e2516446f71f85b0190600090565b634e487b7160e01b600052603260045260246000fd5b90600182811c92168015610a22575b6020831014610a0c57565b634e487b7160e01b600052602260045260246000fd5b91607f1691610a01565b60c0810190811067ffffffffffffffff8211176103c257604052565b90601f8019910116810190811067ffffffffffffffff8211176103c257604052565b9060405191826000825492610a7e846109f2565b908184526001948581169081600014610aed5750600114610aaa575b5050610aa892500383610a48565b565b9093915060005260209081600020936000915b818310610ad5575050610aa893508201013880610a9a565b85548884018501529485019487945091830191610abd565b915050610aa894506020925060ff191682840152151560051b8201013880610a9a565b919082519283825260005b848110610b3c575050826000602080949584010152601f8019910116010190565b602081830181015184830182015201610b1b565b600435906001600160a01b03821682036100b357565b9181601f840112156100b35782359167ffffffffffffffff83116100b357602083818601950101116100b357565b15610b9b57565b60405162461bcd60e51b815260206004820152601760248201527f42616e6b52656769737472793a206e6f742061646d696e0000000000000000006044820152606490fd5b92919267ffffffffffffffff82116103c25760405191610c0a601f8201601f191660200184610a48565b8294818452818301116100b357828160209384600096013701015256fea26469706673582212206189f2c3d53937d5e688ff7f80e92b8dbe8ecbe66168ef7d794fe8cb18304f1d64736f6c63430008140033",
  "linkReferences": {},
  "deployedLinkReferences": {},
  "immutableReferences": {},
  "inputSourceName": "project/contracts/DCBTreasury/SimpleBankRegistry.sol",
  "buildInfoId": "solc-0_8_20-a1c61539025f0654ad3a75bdb2b55239eb68e7f3"
}