{
  "_format": "hh3-artifact-1",
  "contractName": "CustodyFactory",
  "sourceName": "contracts/DCBTreasury/CustodyVault.sol",
  "abi": [
    {
      "inputs": [
        {
          "internalType": "address",
          "name": "_usdToken",
          "type": "address"
        },
        {
          "internalType": "address",
          "name": "_bankRegistry",
          "type": "address"
        }
      ],
      "stateMutability": "nonpayable",
      "type": "constructor"
    },
    {
      "inputs": [],
      "name": "AccessControlBadConfirmation",
      "type": "error"
    },
    {
      "inputs": [
        {
          "internalType": "address",
          "name": "account",
          "type": "address"
        },
        {
          "internalType": "bytes32",
          "name": "neededRole",
          "type": "bytes32"
        }
      ],
      "name": "AccessControlUnauthorizedAccount",
      "type": "error"
    },
    {
      "anonymous": false,
      "inputs": [
        {
          "indexed": true,
          "internalType": "bytes32",
          "name": "role",
          "type": "bytes32"
        },
        {
          "indexed": true,
          "internalType": "bytes32",
          "name": "previousAdminRole",
          "type": "bytes32"
        },
        {
          "indexed": true,
          "internalType": "bytes32",
          "name": "newAdminRole",
          "type": "bytes32"
        }
      ],
      "name": "RoleAdminChanged",
      "type": "event"
    },
    {
      "anonymous": false,
      "inputs": [
        {
          "indexed": true,
          "internalType": "bytes32",
          "name": "role",
          "type": "bytes32"
        },
        {
          "indexed": true,
          "internalType": "address",
          "name": "account",
          "type": "address"
        },
        {
          "indexed": true,
          "internalType": "address",
          "name": "sender",
          "type": "address"
        }
      ],
      "name": "RoleGranted",
      "type": "event"
    },
    {
      "anonymous": false,
      "inputs": [
        {
          "indexed": true,
          "internalType": "bytes32",
          "name": "role",
          "type": "bytes32"
        },
        {
          "indexed": true,
          "internalType": "address",
          "name": "account",
          "type": "address"
        },
        {
          "indexed": true,
          "internalType": "address",
          "name": "sender",
          "type": "address"
        }
      ],
      "name": "RoleRevoked",
      "type": "event"
    },
    {
      "anonymous": false,
      "inputs": [
        {
          "indexed": true,
          "internalType": "bytes32",
          "name": "bankId",
          "type": "bytes32"
        },
        {
          "indexed": false,
          "internalType": "address",
          "name": "vault",
          "type": "address"
        },
        {
          "indexed": false,
          "internalType": "uint256",
          "name": "vaultIndex",
          "type": "uint256"
        }
      ],
      "name": "VaultCreated",
      "type": "event"
    },
    {
      "inputs": [],
      "name": "DEFAULT_ADMIN_ROLE",
      "outputs": [
        {
          "internalType": "bytes32",
          "name": "",
          "type": "bytes32"
        }
      ],
      "stateMutability": "view",
      "type": "function"
    },
    {
      "inputs": [],
      "name": "FACTORY_ROLE",
      "outputs": [
        {
          "internalType": "bytes32",
          "name": "",
          "type": "bytes32"
        }
      ],
      "stateMutability": "view",
      "type": "function"
    },
    {
      "inputs": [
        {
          "internalType": "uint256",
          "name": "",
          "type": "uint256"
        }
      ],
      "name": "allVaults",
      "outputs": [
        {
          "internalType": "address",
          "name": "",
          "type": "address"
        }
      ],
      "stateMutability": "view",
      "type": "function"
    },
    {
      "inputs": [],
      "name": "bankRegistry",
      "outputs": [
        {
          "internalType": "address",
          "name": "",
          "type": "address"
        }
      ],
      "stateMutability": "view",
      "type": "function"
    },
    {
      "inputs": [
        {
          "internalType": "bytes32",
          "name": "",
          "type": "bytes32"
        },
        {
          "internalType": "uint256",
          "name": "",
          "type": "uint256"
        }
      ],
      "name": "bankVaults",
      "outputs": [
        {
          "internalType": "address",
          "name": "",
          "type": "address"
        }
      ],
      "stateMutability": "view",
      "type": "function"
    },
    {
      "inputs": [
        {
          "internalType": "bytes32",
          "name": "bankId",
          "type": "bytes32"
        }
      ],
      "name": "createVault",
      "outputs": [
        {
          "internalType": "address",
          "name": "",
          "type": "address"
        }
      ],
      "stateMutability": "nonpayable",
      "type": "function"
    },
    {
      "inputs": [],
      "name": "getAllVaults",
      "outputs": [
        {
          "internalType": "address[]",
          "name": "",
          "type": "address[]"
        }
      ],
      "stateMutability": "view",
      "type": "function"
    },
    {
      "inputs": [
        {
          "internalType": "bytes32",
          "name": "bankId",
          "type": "bytes32"
        }
      ],
      "name": "getBankVaults",
      "outputs": [
        {
          "internalType": "address[]",
          "name": "",
          "type": "address[]"
        }
      ],
      "stateMutability": "view",
      "type": "function"
    },
    {
      "inputs": [
        {
          "internalType": "bytes32",
          "name": "role",
          "type": "bytes32"
        }
      ],
      "name": "getRoleAdmin",
      "outputs": [
        {
          "internalType": "bytes32",
          "name": "",
          "type": "bytes32"
        }
      ],
      "stateMutability": "view",
      "type": "function"
    },
    {
      "inputs": [],
      "name": "getVaultCount",
      "outputs": [
        {
          "internalType": "uint256",
          "name": "",
          "type": "uint256"
        }
      ],
      "stateMutability": "view",
      "type": "function"
    },
    {
      "inputs": [
        {
          "internalType": "bytes32",
          "name": "role",
          "type": "bytes32"
        },
        {
          "internalType": "address",
          "name": "account",
          "type": "address"
        }
      ],
      "name": "grantRole",
      "outputs": [],
      "stateMutability": "nonpayable",
      "type": "function"
    },
    {
      "inputs": [
        {
          "internalType": "bytes32",
          "name": "role",
          "type": "bytes32"
        },
        {
          "internalType": "address",
          "name": "account",
          "type": "address"
        }
      ],
      "name": "hasRole",
      "outputs": [
        {
          "internalType": "bool",
          "name": "",
          "type": "bool"
        }
      ],
      "stateMutability": "view",
      "type": "function"
    },
    {
      "inputs": [
        {
          "internalType": "bytes32",
          "name": "role",
          "type": "bytes32"
        },
        {
          "internalType": "address",
          "name": "callerConfirmation",
          "type": "address"
        }
      ],
      "name": "renounceRole",
      "outputs": [],
      "stateMutability": "nonpayable",
      "type": "function"
    },
    {
      "inputs": [
        {
          "internalType": "bytes32",
          "name": "role",
          "type": "bytes32"
        },
        {
          "internalType": "address",
          "name": "account",
          "type": "address"
        }
      ],
      "name": "revokeRole",
      "outputs": [],
      "stateMutability": "nonpayable",
      "type": "function"
    },
    {
      "inputs": [
        {
          "internalType": "bytes4",
          "name": "interfaceId",
          "type": "bytes4"
        }
      ],
      "name": "supportsInterface",
      "outputs": [
        {
          "internalType": "bool",
          "name": "",
          "type": "bool"
        }
      ],
      "stateMutability": "view",
      "type": "function"
    },
    {
      "inputs": [],
      "name": "usdToken",
      "outputs": [
        {
          "internalType": "address",
          "name": "",
          "type": "address"
        }
      ],
      "stateMutability": "view",
      "type": "function"
    }
  ],
  "bytecode": "0x6080346100a157601f611d3f38819003918201601f19168301916001600160401b038311848410176100a65780849260409485528339810103126100a157610052602061004b836100bc565b92016100bc565b600180546001600160a01b039384166001600160a01b03199182161790915560028054929093169116179055610087336100d0565b506100913361014e565b50604051611b3090816101ef8239f35b600080fd5b634e487b7160e01b600052604160045260246000fd5b51906001600160a01b03821682036100a157565b6001600160a01b031660008181527fad3228b676f7d3cd4284a5443f17f1962b36e491b30a40b2405849e597ba5fb5602052604081205490919060ff1661014a57818052816020526040822081835260205260408220600160ff198254161790553391600080516020611d1f8339815191528180a4600190565b5090565b6001600160a01b031660008181527faae065819044e7c1f6f3a25fcf56eec95d9ef9dcbfbb8eb1f8a4a273b3bd014660205260408120549091907fdfbefbf47cfe66b701d8cfdbce1de81c821590819cb07e71cb01b6602fb0ee279060ff166101e957808352826020526040832082845260205260408320600160ff19825416179055600080516020611d1f833981519152339380a4600190565b50509056fe608060408181526004918236101561001657600080fd5b600092833560e01c91826301ffc9a71461067b5750816304a0fb171461064057816308fa94cb146105b057816317799f36146103bb578163248a9ca3146103915781632f2ff15d1461037357816336568abe14610338578163494d3f57146102e757816374d4e491146102c95781639094a91e1461026b57816391d148541461023157816397331bf91461017657508063a217fddf1461015c578063d547741f14610128578063f436ad73146101005763f897a22b146100d557600080fd5b346100fc57816003193601126100fc5760015490516001600160a01b039091168152602090f35b5080fd5b50346100fc57816003193601126100fc5760025490516001600160a01b039091168152602090f35b50346100fc5760016101589161015361014036610712565b939092838752866020528620015461076b565b61082d565b5080f35b50346100fc57816003193601126100fc5751908152602090f35b8383346100fc57816003193601126100fc57805190818454908181526020809101918686527f8a35acfbc15ff81a39ae7d344fd709f28e8600b4aa8c65c6b64bfe7fe36bd19b9186905b8282106102115750505050829003601f01601f191682019267ffffffffffffffff8411838510176101fe57508291826101fa9252826106ce565b0390f35b634e487b7160e01b815260418552602490fd5b83546001600160a01b0316855293840193600193840193909101906101c0565b5050346100fc5760ff8160209361024736610712565b9082528186528282206001600160a01b039091168252855220549151911615158152f35b9050346102c55760203660031901126102c55780359080548210156102c1576020935260018060a01b03907f8a35acfbc15ff81a39ae7d344fd709f28e8600b4aa8c65c6b64bfe7fe36bd19b0154169051908152f35b8380fd5b8280fd5b9050346102c557826003193601126102c55760209250549051908152f35b828434610335578160031936011261033557602435923581526003602052818120908154841015610335575060209261031f9161073d565b60018060a01b0391549060031b1c169051908152f35b80fd5b8383346100fc5761034836610712565b91336001600160a01b038416036103645750906101589161082d565b5163334bd91960e11b81528490fd5b5050346100fc5760016101589161038c61014036610712565b6107af565b9050346102c55760203660031901126102c557816020936001923581528085522001549051908152f35b8383346100fc57602092836003193601126102c5578035907fdfbefbf47cfe66b701d8cfdbce1de81c821590819cb07e71cb01b6602fb0ee27808552848652838520338652865260ff848620541615610593575060015483516001600160a01b0395916112588083019188169067ffffffffffffffff831184841017610574579183916060936108a384398782528a820152338882015203019082f08015610587578382526003875285858320911695815468010000000000000000928382101561057457906104909160018201815561073d565b819291549060031b9189831b921b1916179055825490811015610561576001810180845581101561054e577f8a35acfbc15ff81a39ae7d344fd709f28e8600b4aa8c65c6b64bfe7fe36bd19b0180546001600160a01b03191686179055828152600386528381205460001981019290831161053b575050827f163aed7085e6bcdcd5cbcdf1ac593174c032dd81e79351c32bb69e2f090d4a559181519086825287820152a251908152f35b634e487b7160e01b825260119052602490fd5b506032602492634e487b7160e01b835252fd5b506041602492634e487b7160e01b835252fd5b634e487b7160e01b855260418652602485fd5b508351903d90823e3d90fd5b6044925083519163e2517d3f60e01b835233908301526024820152fd5b8383346100fc57602090816003193601126102c55783358352600382528083208151928381835491828152019286528186209186905b8282106106205750505050829003601f01601f191682019267ffffffffffffffff8411838510176101fe57508291826101fa9252826106ce565b83546001600160a01b0316855293840193600193840193909101906105e6565b5050346100fc57816003193601126100fc57602090517fdfbefbf47cfe66b701d8cfdbce1de81c821590819cb07e71cb01b6602fb0ee278152f35b8491346102c55760203660031901126102c5573563ffffffff60e01b81168091036102c55760209250637965db0b60e01b81149081156106bd575b5015158152f35b6301ffc9a760e01b149050836106b6565b6020908160408183019282815285518094520193019160005b8281106106f5575050505090565b83516001600160a01b0316855293810193928101926001016106e7565b604090600319011261073857600435906024356001600160a01b03811681036107385790565b600080fd5b80548210156107555760005260206000200190600090565b634e487b7160e01b600052603260045260246000fd5b80600052600060205260406000203360005260205260ff60406000205416156107915750565b6044906040519063e2517d3f60e01b82523360048301526024820152fd5b9060009180835282602052604083209160018060a01b03169182845260205260ff6040842054161560001461082857808352826020526040832082845260205260408320600160ff198254161790557f2f8788117e7eff1d82e926ec794901d17c78024a50270940304540a733656f0d339380a4600190565b505090565b9060009180835282602052604083209160018060a01b03169182845260205260ff6040842054166000146108285780835282602052604083208284526020526040832060ff1981541690557ff6391f5c32d9c69d2a47ea670b442974b53935d1edc7fd64eb21e047a839171b339380a460019056fe608034620000b057601f6200125838819003918201601f19168301916001600160401b03831184841017620000b557808492606094604052833981010312620000b05780516200009f916200006560406200005d60208401620000cb565b9201620000cb565b9160015560018060a01b03199060018060a01b0316816002541617600255339060035416176003556200009881620000e0565b5062000160565b506040516110359081620002038239f35b600080fd5b634e487b7160e01b600052604160045260246000fd5b51906001600160a01b0382168203620000b057565b6001600160a01b031660008181527fad3228b676f7d3cd4284a5443f17f1962b36e491b30a40b2405849e597ba5fb5602052604081205490919060ff166200015c57818052816020526040822081835260205260408220600160ff198254161790553391600080516020620012388339815191528180a4600190565b5090565b6001600160a01b031660008181527fee57cd81e84075558e8fcc182a1f4393f91fc97f963a136e66b7f949a62f319f60205260408120549091907f97667070c54ef182b0f5858b034beac1b6f3089aa2d3188bb1e8929f4fa9b9299060ff16620001fd57808352826020526040832082845260205260408320600160ff1982541617905560008051602062001238833981519152339380a4600190565b50509056fe6080604081815260048036101561001557600080fd5b600092833560e01c90816301ffc9a714610a9e5750806312b5834914610a07578063248a9ca3146109de5780632549e0b1146108de5780632f2ff15d146109b557806336568abe1461096e578063496a36f21461091c5780634b319713146108fd57806356891412146108de578063809dab6a146108ba57806391d14854146108755780639363a1411461085657806393b0719d1461079f5780639f9fb96814610710578063a217fddf146106f5578063b02c43d01461068f578063c45a015514610666578063d547741f14610628578063d7008ad414610609578063f1215d25146102c9578063f3fef3a3146101b3578063f5b541a614610178578063f897a22b1461014b5763ff50abdc1461012b57600080fd5b3461014757826003193601126101475760209250549051908152f35b8280fd5b50503461017457816003193601126101745760025490516001600160a01b039091168152602090f35b5080fd5b505034610174578160031936011261017457602090517f97667070c54ef182b0f5858b034beac1b6f3089aa2d3188bb1e8929f4fa9b9298152f35b50346101475781600319360112610147576001600160a01b038135818116939192908490036102c557602435928580528560205282862033875260205260ff8387205416156102a85761020f84610208610f74565b1015610f13565b6002541682519163a9059cbb60e01b602084015285602484015284604484015260448352608083019083821067ffffffffffffffff83111761029557507f7084f5476618d8e60b11ef0d7d3f06914655adb8793e28ff7f018d4c76d505d59492849261027e9260209652610eab565b61028a82600654610e7b565b60065551908152a280f35b634e487b7160e01b885260419052602487fd5b5084604492519163e2517d3f60e01b835233908301526024820152fd5b8480fd5b509034610147578060031936011261014757813560249182359067ffffffffffffffff91828111610605573660238201121561060557808601359183831161060157858201918684369201011161060157610322610ce8565b84156105c05760025481516323b872dd60e01b60208083019190915233828a01523060448301526064808301899052825297916001600160a01b031660a08201878111838210176105ae5784526103799190610eab565b815161038481610bee565b868152878101428152601f19601f870116968451926103a58b8a0185610c20565b87845287878c8601378c8b8986010152858101938452600754926801000000000000000084101561059c576103e1600194858101600755610b63565b92909261058a57906002929151825551848201550192518051918211610578578c8b61040d8654610bb4565b91601f8311610530575b915050508a908d601f84116001146104ce57918394918493946104c3575b50501b916000199060031b1c19161790555b610452868954610e7b565b88556007546000198101989089116104b2575050606083808296947f117302e304d6f8b6572a504ffd77af7eecd451a8e00331a5c694489b07b9142699989685808e97519b8c9a8b528a015288015283870137840101528101030190a280f35b634e487b7160e01b8a526011905288fd5b015192503880610435565b8581528c81209291908490601f198216908f5b8883831061051857505050106104ff575b505050811b019055610447565b015160001960f88460031b161c191690553880806104f2565b8686015188559096019594850194879350018f6104e1565b86815220601f840160051c8101918d851061056e575b601f0160051c019084908f5b8382106105635790508d9150610417565b81550184908f610552565b9091508190610546565b634e487b7160e01b8d5260418c52848dfd5b50634e487b7160e01b8e528d8d52858efd5b634e487b7160e01b8e5260418d52858efd5b634e487b7160e01b8c5260418b52838cfd5b5162461bcd60e51b81526020818801526019818701527f437573746f64795661756c743a207a65726f20616d6f756e74000000000000006044820152606490fd5b8780fd5b8680fd5b5050346101745781600319360112610174576020906001549051908152f35b509034610147578060031936011261014757610662913561065d600161064c610af2565b938387528660205286200154610d62565b610e06565b5080f35b50503461017457816003193601126101745760035490516001600160a01b039091168152602090f35b508290346101745760203660031901126101745735906007548210156106f257506106b990610b63565b50906106ee82549160606106d4600260018701549601610c42565b918051958695865260208601528401526060830190610b23565b0390f35b80fd5b50503461017457816003193601126101745751908152602090f35b503461014757602036600319011261014757606082809461074694519061073682610bee565b8082526020820152015235610b63565b50906106ee81519161075783610bee565b8354835261077360026001860154956020860196875201610c42565b908084019182528051948594602086525160208601525190840152516060808401526080830190610b23565b50919034610174576107b036610b0d565b6107b8610ce8565b6005549482861061080157506107f0827fb8814802a164b708c68d5cc9456b53e5ffafe54215788fe66b08a21274d02afd9596610e9e565b60055582519182526020820152a180f35b608490602085519162461bcd60e51b8352820152602960248201527f437573746f64795661756c743a20696e73756666696369656e74206c6f636b65604482015268642062616c616e636560b81b6064820152fd5b5050346101745781600319360112610174576020906007549051908152f35b50346101475781600319360112610147578160209360ff92610895610af2565b903582528186528282206001600160a01b039091168252855220549151911615158152f35b5050346101745781600319360112610174576020906108d7610f74565b9051908152f35b5050346101745781600319360112610174576020906005549051908152f35b5050346101745781600319360112610174576020906006549051908152f35b505034610174577f7fa68068a8a33824e35790bf4856ec6fed6da80b048f3e38221680fc9b8b4d1e9061094e36610b0d565b610956610ce8565b61096282610208610f74565b6107f082600554610e7b565b50919034610174578060031936011261017457610989610af2565b90336001600160a01b038316036109a65750610662919235610e06565b5163334bd91960e11b81528390fd5b50903461014757806003193601126101475761066291356109d9600161064c610af2565b610d88565b503461014757602036600319011261014757816020936001923581528085522001549051908152f35b50903461014757826003193601126101475760025481516370a0823160e01b81523093810193909352602090839060249082906001600160a01b03165afa918215610a94578392610a5d575b6020838351908152f35b9091506020813d8211610a8c575b81610a7860209383610c20565b810103126101475760209250519038610a53565b3d9150610a6b565b81513d85823e3d90fd5b92505034610147576020366003190112610147573563ffffffff60e01b81168091036101475760209250637965db0b60e01b8114908115610ae1575b5015158152f35b6301ffc9a760e01b14905038610ada565b602435906001600160a01b0382168203610b0857565b600080fd5b6040906003190112610b08576004359060243590565b919082519283825260005b848110610b4f575050826000602080949584010152601f8019910116010190565b602081830181015184830182015201610b2e565b600754811015610b9e576003906007600052027fa66cc928b5edb82af9bd49922954155ab7b0942694bea4ce44661d9a8736c6880190600090565b634e487b7160e01b600052603260045260246000fd5b90600182811c92168015610be4575b6020831014610bce57565b634e487b7160e01b600052602260045260246000fd5b91607f1691610bc3565b6060810190811067ffffffffffffffff821117610c0a57604052565b634e487b7160e01b600052604160045260246000fd5b90601f8019910116810190811067ffffffffffffffff821117610c0a57604052565b9060405191826000825492610c5684610bb4565b908184526001948581169081600014610cc55750600114610c82575b5050610c8092500383610c20565b565b9093915060005260209081600020936000915b818310610cad575050610c8093508201013880610c72565b85548884018501529485019487945091830191610c95565b915050610c8094506020925060ff191682840152151560051b8201013880610c72565b3360009081527fee57cd81e84075558e8fcc182a1f4393f91fc97f963a136e66b7f949a62f319f60205260409020547f97667070c54ef182b0f5858b034beac1b6f3089aa2d3188bb1e8929f4fa9b9299060ff1615610d445750565b6044906040519063e2517d3f60e01b82523360048301526024820152fd5b80600052600060205260406000203360005260205260ff6040600020541615610d445750565b9060009180835282602052604083209160018060a01b03169182845260205260ff60408420541615600014610e0157808352826020526040832082845260205260408320600160ff198254161790557f2f8788117e7eff1d82e926ec794901d17c78024a50270940304540a733656f0d339380a4600190565b505090565b9060009180835282602052604083209160018060a01b03169182845260205260ff604084205416600014610e015780835282602052604083208284526020526040832060ff1981541690557ff6391f5c32d9c69d2a47ea670b442974b53935d1edc7fd64eb21e047a839171b339380a4600190565b91908201809211610e8857565b634e487b7160e01b600052601160045260246000fd5b91908203918211610e8857565b906000602091828151910182855af115610f07576000513d610efe57506001600160a01b0381163b155b610edc5750565b604051635274afe760e01b81526001600160a01b039091166004820152602490fd5b60011415610ed5565b6040513d6000823e3d90fd5b15610f1a57565b60405162461bcd60e51b815260206004820152602c60248201527f437573746f64795661756c743a20696e73756666696369656e7420617661696c60448201526b61626c652062616c616e636560a01b6064820152608490fd5b6002546040516370a0823160e01b815230600482015290602090829060249082906001600160a01b03165afa908115610f0757600091610fce575b5060055480821115610fc757610fc491610e9e565b90565b5050600090565b906020823d8211610ff7575b81610fe760209383610c20565b810103126106f257505138610faf565b3d9150610fda56fea264697066735822122050b16bb5e89d7970b6d830b88b3a7e59952a60fad5543d5b99dda3cd89fa808e64736f6c634300081400332f8788117e7eff1d82e926ec794901d17c78024a50270940304540a733656f0da2646970667358221220dfe63e516b933dd42e16a7c527d386655578dbd0dbba1c34a8befeb6c159070b64736f6c634300081400332f8788117e7eff1d82e926ec794901d17c78024a50270940304540a733656f0d",
  "linkReferences": {},
  "deployedLinkReferences": {},
  "immutableReferences": {},
  "inputSourceName": "project/contracts/DCBTreasury/CustodyVault.sol",
  "buildInfoId": "solc-0_8_20-a1c61539025f0654ad3a75bdb2b55239eb68e7f3"
}