{
  "_format": "hh3-artifact-1",
  "contractName": "PriceOracle",
  "sourceName": "contracts/DCBTreasury/v2/PriceOracle.sol",
  "abi": [
    {
      "inputs": [
        {
          "internalType": "address",
          "name": "_admin",
          "type": "address"
        },
        {
          "internalType": "address[]",
          "name": "_initialOperators",
          "type": "address[]"
        }
      ],
      "stateMutability": "nonpayable",
      "type": "constructor"
    },
    {
      "inputs": [],
      "name": "ContractPaused",
      "type": "error"
    },
    {
      "inputs": [],
      "name": "InsufficientSources",
      "type": "error"
    },
    {
      "inputs": [],
      "name": "InvalidConfiguration",
      "type": "error"
    },
    {
      "inputs": [],
      "name": "InvalidPrice",
      "type": "error"
    },
    {
      "inputs": [],
      "name": "NotAdmin",
      "type": "error"
    },
    {
      "inputs": [],
      "name": "NotOperator",
      "type": "error"
    },
    {
      "inputs": [],
      "name": "PriceDeviationTooHigh",
      "type": "error"
    },
    {
      "inputs": [],
      "name": "PriceOutOfBounds",
      "type": "error"
    },
    {
      "inputs": [],
      "name": "SourceAlreadyExists",
      "type": "error"
    },
    {
      "inputs": [],
      "name": "SourceNotFound",
      "type": "error"
    },
    {
      "inputs": [],
      "name": "ZeroAddress",
      "type": "error"
    },
    {
      "anonymous": false,
      "inputs": [
        {
          "indexed": true,
          "internalType": "address",
          "name": "previousAdmin",
          "type": "address"
        },
        {
          "indexed": true,
          "internalType": "address",
          "name": "newAdmin",
          "type": "address"
        }
      ],
      "name": "AdminTransferred",
      "type": "event"
    },
    {
      "anonymous": false,
      "inputs": [
        {
          "indexed": true,
          "internalType": "int256",
          "name": "current",
          "type": "int256"
        },
        {
          "indexed": true,
          "internalType": "uint256",
          "name": "roundId",
          "type": "uint256"
        },
        {
          "indexed": false,
          "internalType": "uint256",
          "name": "updatedAt",
          "type": "uint256"
        }
      ],
      "name": "AnswerUpdated",
      "type": "event"
    },
    {
      "anonymous": false,
      "inputs": [
        {
          "indexed": false,
          "internalType": "string",
          "name": "param",
          "type": "string"
        },
        {
          "indexed": false,
          "internalType": "uint256",
          "name": "value",
          "type": "uint256"
        }
      ],
      "name": "ConfigUpdated",
      "type": "event"
    },
    {
      "anonymous": false,
      "inputs": [
        {
          "indexed": false,
          "internalType": "int256",
          "name": "price",
          "type": "int256"
        },
        {
          "indexed": false,
          "internalType": "bool",
          "name": "enabled",
          "type": "bool"
        }
      ],
      "name": "ManualPriceSet",
      "type": "event"
    },
    {
      "anonymous": false,
      "inputs": [
        {
          "indexed": true,
          "internalType": "uint256",
          "name": "roundId",
          "type": "uint256"
        },
        {
          "indexed": true,
          "internalType": "address",
          "name": "startedBy",
          "type": "address"
        },
        {
          "indexed": false,
          "internalType": "uint256",
          "name": "startedAt",
          "type": "uint256"
        }
      ],
      "name": "NewRound",
      "type": "event"
    },
    {
      "anonymous": false,
      "inputs": [
        {
          "indexed": true,
          "internalType": "address",
          "name": "operator",
          "type": "address"
        }
      ],
      "name": "OperatorAdded",
      "type": "event"
    },
    {
      "anonymous": false,
      "inputs": [
        {
          "indexed": true,
          "internalType": "address",
          "name": "operator",
          "type": "address"
        }
      ],
      "name": "OperatorRemoved",
      "type": "event"
    },
    {
      "anonymous": false,
      "inputs": [
        {
          "indexed": true,
          "internalType": "address",
          "name": "source",
          "type": "address"
        },
        {
          "indexed": false,
          "internalType": "string",
          "name": "name",
          "type": "string"
        },
        {
          "indexed": false,
          "internalType": "uint256",
          "name": "weight",
          "type": "uint256"
        }
      ],
      "name": "PriceSourceAdded",
      "type": "event"
    },
    {
      "anonymous": false,
      "inputs": [
        {
          "indexed": true,
          "internalType": "address",
          "name": "source",
          "type": "address"
        }
      ],
      "name": "PriceSourceRemoved",
      "type": "event"
    },
    {
      "anonymous": false,
      "inputs": [
        {
          "indexed": true,
          "internalType": "address",
          "name": "source",
          "type": "address"
        },
        {
          "indexed": false,
          "internalType": "bool",
          "name": "isActive",
          "type": "bool"
        }
      ],
      "name": "PriceSourceStatusChanged",
      "type": "event"
    },
    {
      "anonymous": false,
      "inputs": [
        {
          "indexed": true,
          "internalType": "address",
          "name": "source",
          "type": "address"
        },
        {
          "indexed": false,
          "internalType": "int256",
          "name": "price",
          "type": "int256"
        },
        {
          "indexed": false,
          "internalType": "uint256",
          "name": "timestamp",
          "type": "uint256"
        }
      ],
      "name": "PriceSubmitted",
      "type": "event"
    },
    {
      "inputs": [],
      "name": "ISSUER",
      "outputs": [
        {
          "internalType": "string",
          "name": "",
          "type": "string"
        }
      ],
      "stateMutability": "view",
      "type": "function"
    },
    {
      "inputs": [],
      "name": "VERSION",
      "outputs": [
        {
          "internalType": "string",
          "name": "",
          "type": "string"
        }
      ],
      "stateMutability": "view",
      "type": "function"
    },
    {
      "inputs": [
        {
          "internalType": "address",
          "name": "operator",
          "type": "address"
        }
      ],
      "name": "addOperator",
      "outputs": [],
      "stateMutability": "nonpayable",
      "type": "function"
    },
    {
      "inputs": [
        {
          "internalType": "address",
          "name": "source",
          "type": "address"
        },
        {
          "internalType": "string",
          "name": "name",
          "type": "string"
        },
        {
          "internalType": "uint256",
          "name": "weight",
          "type": "uint256"
        }
      ],
      "name": "addPriceSource",
      "outputs": [],
      "stateMutability": "nonpayable",
      "type": "function"
    },
    {
      "inputs": [],
      "name": "admin",
      "outputs": [
        {
          "internalType": "address",
          "name": "",
          "type": "address"
        }
      ],
      "stateMutability": "view",
      "type": "function"
    },
    {
      "inputs": [],
      "name": "decimals",
      "outputs": [
        {
          "internalType": "uint8",
          "name": "",
          "type": "uint8"
        }
      ],
      "stateMutability": "view",
      "type": "function"
    },
    {
      "inputs": [],
      "name": "description",
      "outputs": [
        {
          "internalType": "string",
          "name": "",
          "type": "string"
        }
      ],
      "stateMutability": "view",
      "type": "function"
    },
    {
      "inputs": [],
      "name": "disableManualPrice",
      "outputs": [],
      "stateMutability": "nonpayable",
      "type": "function"
    },
    {
      "inputs": [],
      "name": "forceUpdate",
      "outputs": [],
      "stateMutability": "nonpayable",
      "type": "function"
    },
    {
      "inputs": [],
      "name": "getAllOperators",
      "outputs": [
        {
          "internalType": "address[]",
          "name": "",
          "type": "address[]"
        }
      ],
      "stateMutability": "view",
      "type": "function"
    },
    {
      "inputs": [],
      "name": "getAllPriceSources",
      "outputs": [
        {
          "internalType": "address[]",
          "name": "",
          "type": "address[]"
        }
      ],
      "stateMutability": "view",
      "type": "function"
    },
    {
      "inputs": [],
      "name": "getConfig",
      "outputs": [
        {
          "internalType": "uint256",
          "name": "_maxPriceDeviation",
          "type": "uint256"
        },
        {
          "internalType": "uint256",
          "name": "_minSources",
          "type": "uint256"
        },
        {
          "internalType": "uint256",
          "name": "_updateInterval",
          "type": "uint256"
        },
        {
          "internalType": "int256",
          "name": "_minPrice",
          "type": "int256"
        },
        {
          "internalType": "int256",
          "name": "_maxPrice",
          "type": "int256"
        },
        {
          "internalType": "bool",
          "name": "_useManualPrice",
          "type": "bool"
        },
        {
          "internalType": "int256",
          "name": "_manualPrice",
          "type": "int256"
        }
      ],
      "stateMutability": "view",
      "type": "function"
    },
    {
      "inputs": [
        {
          "internalType": "address",
          "name": "source",
          "type": "address"
        }
      ],
      "name": "getPriceSource",
      "outputs": [
        {
          "internalType": "string",
          "name": "name",
          "type": "string"
        },
        {
          "internalType": "int256",
          "name": "latestPrice",
          "type": "int256"
        },
        {
          "internalType": "uint256",
          "name": "lastUpdate",
          "type": "uint256"
        },
        {
          "internalType": "bool",
          "name": "isActive",
          "type": "bool"
        },
        {
          "internalType": "uint256",
          "name": "weight",
          "type": "uint256"
        },
        {
          "internalType": "uint256",
          "name": "successCount",
          "type": "uint256"
        },
        {
          "internalType": "uint256",
          "name": "failCount",
          "type": "uint256"
        }
      ],
      "stateMutability": "view",
      "type": "function"
    },
    {
      "inputs": [
        {
          "internalType": "uint80",
          "name": "_roundId",
          "type": "uint80"
        }
      ],
      "name": "getRoundData",
      "outputs": [
        {
          "internalType": "uint80",
          "name": "roundId",
          "type": "uint80"
        },
        {
          "internalType": "int256",
          "name": "answer",
          "type": "int256"
        },
        {
          "internalType": "uint256",
          "name": "startedAt",
          "type": "uint256"
        },
        {
          "internalType": "uint256",
          "name": "updatedAt",
          "type": "uint256"
        },
        {
          "internalType": "uint80",
          "name": "answeredInRound",
          "type": "uint80"
        }
      ],
      "stateMutability": "view",
      "type": "function"
    },
    {
      "inputs": [],
      "name": "getStats",
      "outputs": [
        {
          "internalType": "uint256",
          "name": "_totalUpdates",
          "type": "uint256"
        },
        {
          "internalType": "uint256",
          "name": "_lastAggregationTime",
          "type": "uint256"
        },
        {
          "internalType": "uint256",
          "name": "_sourcesCount",
          "type": "uint256"
        },
        {
          "internalType": "uint256",
          "name": "_operatorsCount",
          "type": "uint256"
        },
        {
          "internalType": "uint80",
          "name": "_latestRoundId",
          "type": "uint80"
        }
      ],
      "stateMutability": "view",
      "type": "function"
    },
    {
      "inputs": [
        {
          "internalType": "address",
          "name": "",
          "type": "address"
        }
      ],
      "name": "isOperator",
      "outputs": [
        {
          "internalType": "bool",
          "name": "",
          "type": "bool"
        }
      ],
      "stateMutability": "view",
      "type": "function"
    },
    {
      "inputs": [],
      "name": "isPriceStale",
      "outputs": [
        {
          "internalType": "bool",
          "name": "",
          "type": "bool"
        }
      ],
      "stateMutability": "view",
      "type": "function"
    },
    {
      "inputs": [],
      "name": "lastAggregationTime",
      "outputs": [
        {
          "internalType": "uint256",
          "name": "",
          "type": "uint256"
        }
      ],
      "stateMutability": "view",
      "type": "function"
    },
    {
      "inputs": [],
      "name": "latestAnswer",
      "outputs": [
        {
          "internalType": "int256",
          "name": "",
          "type": "int256"
        }
      ],
      "stateMutability": "view",
      "type": "function"
    },
    {
      "inputs": [],
      "name": "latestRoundData",
      "outputs": [
        {
          "internalType": "uint80",
          "name": "roundId",
          "type": "uint80"
        },
        {
          "internalType": "int256",
          "name": "answer",
          "type": "int256"
        },
        {
          "internalType": "uint256",
          "name": "startedAt",
          "type": "uint256"
        },
        {
          "internalType": "uint256",
          "name": "updatedAt",
          "type": "uint256"
        },
        {
          "internalType": "uint80",
          "name": "answeredInRound",
          "type": "uint80"
        }
      ],
      "stateMutability": "view",
      "type": "function"
    },
    {
      "inputs": [],
      "name": "latestRoundId",
      "outputs": [
        {
          "internalType": "uint80",
          "name": "",
          "type": "uint80"
        }
      ],
      "stateMutability": "view",
      "type": "function"
    },
    {
      "inputs": [],
      "name": "latestTimestamp",
      "outputs": [
        {
          "internalType": "uint256",
          "name": "",
          "type": "uint256"
        }
      ],
      "stateMutability": "view",
      "type": "function"
    },
    {
      "inputs": [],
      "name": "manualPrice",
      "outputs": [
        {
          "internalType": "int256",
          "name": "",
          "type": "int256"
        }
      ],
      "stateMutability": "view",
      "type": "function"
    },
    {
      "inputs": [],
      "name": "maxPrice",
      "outputs": [
        {
          "internalType": "int256",
          "name": "",
          "type": "int256"
        }
      ],
      "stateMutability": "view",
      "type": "function"
    },
    {
      "inputs": [],
      "name": "maxPriceDeviation",
      "outputs": [
        {
          "internalType": "uint256",
          "name": "",
          "type": "uint256"
        }
      ],
      "stateMutability": "view",
      "type": "function"
    },
    {
      "inputs": [],
      "name": "minPrice",
      "outputs": [
        {
          "internalType": "int256",
          "name": "",
          "type": "int256"
        }
      ],
      "stateMutability": "view",
      "type": "function"
    },
    {
      "inputs": [],
      "name": "minSources",
      "outputs": [
        {
          "internalType": "uint256",
          "name": "",
          "type": "uint256"
        }
      ],
      "stateMutability": "view",
      "type": "function"
    },
    {
      "inputs": [
        {
          "internalType": "uint256",
          "name": "",
          "type": "uint256"
        }
      ],
      "name": "operators",
      "outputs": [
        {
          "internalType": "address",
          "name": "",
          "type": "address"
        }
      ],
      "stateMutability": "view",
      "type": "function"
    },
    {
      "inputs": [],
      "name": "pause",
      "outputs": [],
      "stateMutability": "nonpayable",
      "type": "function"
    },
    {
      "inputs": [],
      "name": "paused",
      "outputs": [
        {
          "internalType": "bool",
          "name": "",
          "type": "bool"
        }
      ],
      "stateMutability": "view",
      "type": "function"
    },
    {
      "inputs": [
        {
          "internalType": "uint256",
          "name": "",
          "type": "uint256"
        }
      ],
      "name": "priceSourceAddresses",
      "outputs": [
        {
          "internalType": "address",
          "name": "",
          "type": "address"
        }
      ],
      "stateMutability": "view",
      "type": "function"
    },
    {
      "inputs": [
        {
          "internalType": "address",
          "name": "operator",
          "type": "address"
        }
      ],
      "name": "removeOperator",
      "outputs": [],
      "stateMutability": "nonpayable",
      "type": "function"
    },
    {
      "inputs": [
        {
          "internalType": "address",
          "name": "source",
          "type": "address"
        }
      ],
      "name": "removePriceSource",
      "outputs": [],
      "stateMutability": "nonpayable",
      "type": "function"
    },
    {
      "inputs": [
        {
          "internalType": "int256",
          "name": "price",
          "type": "int256"
        },
        {
          "internalType": "bool",
          "name": "enabled",
          "type": "bool"
        }
      ],
      "name": "setManualPrice",
      "outputs": [],
      "stateMutability": "nonpayable",
      "type": "function"
    },
    {
      "inputs": [
        {
          "internalType": "uint256",
          "name": "deviation",
          "type": "uint256"
        }
      ],
      "name": "setMaxPriceDeviation",
      "outputs": [],
      "stateMutability": "nonpayable",
      "type": "function"
    },
    {
      "inputs": [
        {
          "internalType": "uint256",
          "name": "_minSources",
          "type": "uint256"
        }
      ],
      "name": "setMinSources",
      "outputs": [],
      "stateMutability": "nonpayable",
      "type": "function"
    },
    {
      "inputs": [
        {
          "internalType": "int256",
          "name": "_minPrice",
          "type": "int256"
        },
        {
          "internalType": "int256",
          "name": "_maxPrice",
          "type": "int256"
        }
      ],
      "name": "setPriceBounds",
      "outputs": [],
      "stateMutability": "nonpayable",
      "type": "function"
    },
    {
      "inputs": [
        {
          "internalType": "address",
          "name": "source",
          "type": "address"
        },
        {
          "internalType": "bool",
          "name": "isActive",
          "type": "bool"
        }
      ],
      "name": "setPriceSourceStatus",
      "outputs": [],
      "stateMutability": "nonpayable",
      "type": "function"
    },
    {
      "inputs": [
        {
          "internalType": "address",
          "name": "source",
          "type": "address"
        },
        {
          "internalType": "uint256",
          "name": "weight",
          "type": "uint256"
        }
      ],
      "name": "setPriceSourceWeight",
      "outputs": [],
      "stateMutability": "nonpayable",
      "type": "function"
    },
    {
      "inputs": [
        {
          "internalType": "uint256",
          "name": "interval",
          "type": "uint256"
        }
      ],
      "name": "setUpdateInterval",
      "outputs": [],
      "stateMutability": "nonpayable",
      "type": "function"
    },
    {
      "inputs": [
        {
          "internalType": "int256",
          "name": "price",
          "type": "int256"
        }
      ],
      "name": "submitPrice",
      "outputs": [],
      "stateMutability": "nonpayable",
      "type": "function"
    },
    {
      "inputs": [],
      "name": "totalUpdates",
      "outputs": [
        {
          "internalType": "uint256",
          "name": "",
          "type": "uint256"
        }
      ],
      "stateMutability": "view",
      "type": "function"
    },
    {
      "inputs": [
        {
          "internalType": "address",
          "name": "newAdmin",
          "type": "address"
        }
      ],
      "name": "transferAdmin",
      "outputs": [],
      "stateMutability": "nonpayable",
      "type": "function"
    },
    {
      "inputs": [],
      "name": "unpause",
      "outputs": [],
      "stateMutability": "nonpayable",
      "type": "function"
    },
    {
      "inputs": [],
      "name": "updateInterval",
      "outputs": [
        {
          "internalType": "uint256",
          "name": "",
          "type": "uint256"
        }
      ],
      "stateMutability": "view",
      "type": "function"
    },
    {
      "inputs": [
        {
          "internalType": "int256",
          "name": "price",
          "type": "int256"
        }
      ],
      "name": "updatePriceDirect",
      "outputs": [],
      "stateMutability": "nonpayable",
      "type": "function"
    },
    {
      "inputs": [],
      "name": "useManualPrice",
      "outputs": [
        {
          "internalType": "bool",
          "name": "",
          "type": "bool"
        }
      ],
      "stateMutability": "view",
      "type": "function"
    },
    {
      "inputs": [],
      "name": "version",
      "outputs": [
        {
          "internalType": "uint256",
          "name": "",
          "type": "uint256"
        }
      ],
      "stateMutability": "view",
      "type": "function"
    }
  ],
  "bytecode": "0x6080604052346200076457620029f2803803806200001d8162000769565b9283398101604082820312620007645762000038826200078f565b602083015190926001600160401b0382116200076457019080601f8301121562000764578151916001600160401b0383116200062e578260051b906020806200008381850162000769565b8096815201928201019283116200076457602001905b828210620007495750506064600755506001600855610e106009556305e69ec0600a556306052340600b556001600160a01b038216156200073757600080546001600160a01b0319166001600160a01b03841690811782558152600560205260409020805460ff191660011790556200011282620007a4565b7fac6fa858e9350a46cec16539926e0fde25b7629f84b5a72bffaae4df888ae86d906001600160a01b03831682600080a260005b81518110156200023d576001600160a01b036200016482846200080f565b51161515806200020e575b6200019e575b6000198114620001885760010162000146565b634e487b7160e01b600052601160045260246000fd5b6001600160a01b03620001b282846200080f565b51166000908152600560205260409020805460ff19166001179055620001ed6001600160a01b03620001e583856200080f565b5116620007a4565b6001600160a01b036200020182846200080f565b511683600080a262000175565b506001600160a01b036200022382846200080f565b5116600052600560205260ff60406000205416156200016f565b600280546001600160501b0319166001179055604051849060a081016001600160401b038111828210176200062e57604090815260018083526305f5e100602080850191825242858501818152606087019182526080870185815260008690529490925294517fcc69885fda6bcc1a4ace058b4a62bf5e179ea78fd58a1ccd71c22cc9b688792f80546001600160501b039283166001600160501b03199182161790915592517fcc69885fda6bcc1a4ace058b4a62bf5e179ea78fd58a1ccd71c22cc9b68879305590517fcc69885fda6bcc1a4ace058b4a62bf5e179ea78fd58a1ccd71c22cc9b68879315593517fcc69885fda6bcc1a4ace058b4a62bf5e179ea78fd58a1ccd71c22cc9b68879325590517fcc69885fda6bcc1a4ace058b4a62bf5e179ea78fd58a1ccd71c22cc9b68879338054919094169116179091555161010081018181106001600160401b038211176200062e5760409081526001600160a01b038316825280519081016001600160401b038111828210176200062e57604052600581526420b236b4b760d91b602082015260208201526305f5e10060408201524260608201526001608082015261271060a0820152600160c0820152600060e082015260018060a01b038216600052600360205260406000209060018060a01b0381511660018060a01b0319835416178255602081015180519060018060401b0382116200062e576001840154600181811c911680156200072c575b60208210146200071657601f8111620006ca575b50602090601f8311600114620006505791806007949260e09460009262000644575b50508160011b916000199060031b1c19161760018501555b6040810151600285015560608101516003850155600484016080820151151560ff8019835416911617905560a0810151600585015560c081015160068501550151910155600454680100000000000000008110156200062e5760018101806004558110156200061857600460009081527f8a35acfbc15ff81a39ae7d344fd709f28e8600b4aa8c65c6b64bfe7fe36bd19b9190910180546001600160a01b0319166001600160a01b038416908117909155604051927fb9249a01df4223ae1bd0a00f179398adf5b1526d8cee0a03575328c4f9877b8e92608092907ff8ccb027dfcd135e000e9d45e6cc2d662578a8825d4c45b5e32e0adf67e79ec68180a360408085526005908501526420b236b4b760d91b606085015261271060208501526001600160a01b031692a260016305f5e1007f0559884fd3a460db3073b7fc896cc77986f16e378210ded43186175bf646fc5f6020604051428152a36040516121cd9081620008258239f35b634e487b7160e01b600052603260045260246000fd5b634e487b7160e01b600052604160045260246000fd5b01519050878062000494565b906001850160005260206000209160005b601f1985168110620006b15750926007949260019260e09583601f1981161062000697575b505050811b016001850155620004ac565b015160001960f88460031b161c1916905587808062000686565b9192602060018192868501518155019401920162000661565b600185016000526020600020601f840160051c8101602085106200070e575b601f830160051c820181106200070157505062000472565b60008155600101620006e9565b5080620006e9565b634e487b7160e01b600052602260045260246000fd5b90607f16906200045e565b60405163d92e233d60e01b8152600490fd5b6020809162000758846200078f565b81520191019062000099565b600080fd5b6040519190601f01601f191682016001600160401b038111838210176200062e57604052565b51906001600160a01b03821682036200076457565b600654680100000000000000008110156200062e576001810180600655811015620006185760066000527ff652222313e28459528d920b65115c16c04f3efc82aaedc97be59f3f377c0d3f0180546001600160a01b0319166001600160a01b03909216919091179055565b8051821015620006185760209160051b01019056fe608080604052600436101561001357600080fd5b60003560e01c90816303bdb947146116d2575080630643a70b1461165b57806308caff42146115b95780630f351d2d1461152357806311a8f413146114fc57806312697f46146111555780631b369491146111375780632f5df725146110f2578063313ce567146110d65780633acaa0d71461108b5780633f4ba83a1461105b5780634339b42114610ffd57806350d25bcd14610fe257806351a3451a14610fc457806354fd4d5014610fa8578063563bff9a14610f8a5780635c975abb14610f64578063623b654914610da75780636d70f7ae14610d685780637124c68314610ce35780637284e41614610c9857806375829def14610c165780637fa48c9614610bb95780638205bf6a14610b965780638456cb5914610b62578063975b866214610b445780639870d7fe14610b0e578063989614a814610ae55780639a6fc8f514610a315780639ee4c05714610999578063a2c9d6301461097b578063aaa38ac31461092e578063ac8a584a146107ac578063bc7884ad14610682578063c3f909d41461062c578063c59d4847146105e3578063c73f556514610581578063cbc5f88b146104fd578063d911c6321461046d578063ddc8aec2146103b8578063e28d490614610376578063e38d6b5c14610358578063e45be8eb1461033a578063e82ba40614610317578063f851a440146102ee578063fd2c80ae146102d0578063feaf968c1461027e5763ffa1ad741461022f57600080fd5b346102795760003660031901126102795761027560405161024f81611a8a565b60058152640322e302e360dc1b6020820152604051918291602083526020830190611ac8565b0390f35b600080fd5b346102795760003660031901126102795761027561029a611bd0565b604080516001600160501b03968716815260208101959095528401929092526060830152909116608082015290819060a0820190565b34610279576000366003190112610279576020600954604051908152f35b34610279576000366003190112610279576000546040516001600160a01b039091168152602090f35b3461027957600036600319011261027957602060ff600d54166040519015158152f35b34610279576000366003190112610279576020600a54604051908152f35b34610279576000366003190112610279576020600b54604051908152f35b34610279576020366003190112610279576004356006548110156102795761039f602091611b55565b905460405160039290921b1c6001600160a01b03168152f35b3461027957602036600319011261027957600054600435906001600160a01b0316330361045b5780158015610450575b61043e576080817f12c9dccd129ff783f1c8228eacdfa8e334ddecb7ec5c9a79ec662a4aed3d012a926008556040519060408252600a6040830152696d696e536f757263657360b01b60608301526020820152a1005b60405163c52a9bd360e01b8152600490fd5b5060045481116103e8565b604051637bfa4b9f60e01b8152600490fd5b3461027957600036600319011261027957604051806006549182815260208091019260066000527ff652222313e28459528d920b65115c16c04f3efc82aaedc97be59f3f377c0d3f916000905b8282106104dd57610275856104d181890382611aa6565b60405191829182611b8c565b83546001600160a01b0316865294850194600193840193909101906104ba565b3461027957600036600319011261027957604051806004549182815260208091019260046000527f8a35acfbc15ff81a39ae7d344fd709f28e8600b4aa8c65c6b64bfe7fe36bd19b916000905b82821061056157610275856104d181890382611aa6565b83546001600160a01b03168652948501946001938401939091019061054a565b34610279576000366003190112610279576000546001600160a01b0316330361045b5760ff19600d5416600d557f2954aa8aa2013e251bbba43dd4f1be746fbe11be8c775afd409499f44f877e906040600c54815190815260006020820152a1005b346102795760003660031901126102795760a0600e54600f54600454600654906001600160501b0360025416926040519485526020850152604084015260608301526080820152f35b346102795760003660031901126102795760e0600754600854600954600a54600b549060ff600d541692600c54946040519687526020870152604086015260608501526080840152151560a083015260c0820152f35b3461027957602080600319360112610279576001600160a01b036106a4611a2c565b1660005260038152604060002060019182820191600281015490600381015460ff6004830154166005830154916007600685015494015494604051976000998154916106ef83611cfc565b808c529282811690811561078a575060011461074f575b5050506107188861072c9a0389611aa6565b60405198899860e08a5260e08a0190611ac8565b96880152604087015215156060860152608085015260a084015260c08301520390f35b6000908152898120909b505b828c1061077757505050610718888861072c9b8201019a610706565b80548c8c018b01529a89019a810161075b565b60ff19168b8d0152505050151560051b8801870198506107188861072c610706565b34610279576020366003190112610279576107c5611a2c565b6000546001600160a01b0391908216330361045b5781169081600052600560205260ff604060002054161561091c576000828152600560205260408120805460ff19169055905b6006918254808210156109135782908561082584611b55565b939054600394851b1c1614610847575050610841919250611ced565b9061080c565b600019939192918185019182116108fd576108939361086861087493611b55565b9054911b1c1691611b55565b90919082549060031b9160018060a01b03809116831b921b1916179055565b815480156108e75701906108be6108a983611b55565b81549060018060a01b039060031b1b19169055565b555b7f80c0b871b97b595b16a7741c1b06fed0c6f6f558639f18ccbce50724325dc40d600080a2005b634e487b7160e01b600052603160045260246000fd5b634e487b7160e01b600052601160045260246000fd5b505050506108c0565b604051631f0853c160e21b8152600490fd5b346102795760403660031901126102795760005460243590600435906001600160a01b0316330361045b5760008113801590610971575b61043e57600a55600b55005b5080821315610965565b34610279576000366003190112610279576020600c54604051908152f35b3461027957602036600319011261027957600054600435906001600160a01b0316330361045b5780158015610a26575b61043e576080817f12c9dccd129ff783f1c8228eacdfa8e334ddecb7ec5c9a79ec662a4aed3d012a926007556040519060408252601160408301527036b0bc283934b1b2a232bb34b0ba34b7b760791b60608301526020820152a1005b506103e881116109c9565b34610279576020366003190112610279576004356001600160501b0390818116809103610279576000526001602052604060002090610275608060405193610a7885611a6e565b8381541693848652600182015495866020820152600283015491826040830152600460038501549485606085015201541693849101526040519586958693608093969591929660a08601976001600160501b03809516875260208701526040860152606085015216910152565b34610279576020366003190112610279576004356004548110156102795761039f602091611b08565b3461027957602036600319011261027957610b27611a2c565b6000546001600160a01b0316330361045b57610b4290611d7f565b005b34610279576000366003190112610279576020600754604051908152f35b34610279576000366003190112610279576000546001600160a01b0316330361045b57600d805461ff001916610100179055005b34610279576000366003190112610279576020610bb1611cbf565b604051908152f35b3461027957602036600319011261027957600054600435906001600160a01b0316330361045b57600a5481128015610c0b575b610bf957610b4290612094565b604051636e4ba61d60e01b8152600490fd5b50600b548113610bec565b3461027957602036600319011261027957610c2f611a2c565b600054906001600160a01b03808316913383900361045b5716918215610c86576001600160a01b031916821760009081557ff8ccb027dfcd135e000e9d45e6cc2d662578a8825d4c45b5e32e0adf67e79ec69080a3005b60405163d92e233d60e01b8152600490fd5b3461027957600036600319011261027957610275604051610cb881611a8a565b600a8152691554d1080bc81554d11560b21b6020820152604051918291602083526020830190611ac8565b3461027957602036600319011261027957600054600435906001600160a01b0316330361045b57603c811061043e576080817f12c9dccd129ff783f1c8228eacdfa8e334ddecb7ec5c9a79ec662a4aed3d012a926009556040519060408252600e60408301526d1d5c19185d19525b9d195c9d985b60921b60608301526020820152a1005b34610279576020366003190112610279576001600160a01b03610d89611a2c565b166000526005602052602060ff604060002054166040519015158152f35b3461027957602036600319011261027957610dc0611a2c565b6000546001600160a01b0391908216330361045b578116908160005260039081602052806040600020541615610f53576004546008541015610f415782600052816020526040600020916000835560006007600194858101610e228154611cfc565b9081610f05575b505082600282015582848201558260048201558260058201558260068201550155826000905b610e7c575b847ff69636ef86ccf39d9112c4d859e1fef11f85e37c0bca4f5dd5d343bd2556882e600080a2005b60045480821015610eff578584610e9284611b08565b905490861b1c1614610eae5750610ea890611ced565b83610e4f565b9091929350600019938482019182116108fd57610edd93610ed161087493611b08565b9054911b1c1691611b08565b60045480156108e75701610ef36108a982611b08565b60045581808080610e54565b50610e54565b81601f869311600114610f1c5750555b8780610e29565b908083918252610f3a601f60208420940160051c84018b8501611d36565b5555610f15565b6040516308c73f7d60e31b8152600490fd5b60405162f14f6960e61b8152600490fd5b3461027957600036600319011261027957602060ff600d5460081c166040519015158152f35b34610279576000366003190112610279576020600f54604051908152f35b3461027957600036600319011261027957602060405160018152f35b34610279576000366003190112610279576020600854604051908152f35b34610279576000366003190112610279576020610bb1611c7d565b346102795760003660031901126102795761027560405161101d81611a8a565b601b81527f4469676974616c20436f6d6d65726369616c2042616e6b204c746400000000006020820152604051918291602083526020830190611ac8565b34610279576000366003190112610279576000546001600160a01b0316330361045b57600d805461ff0019169055005b346102795760003660031901126102795733600052600560205260ff6040600020541615806110c1575b61091c57610b42611e47565b506000546001600160a01b03163314156110b5565b3461027957600036600319011261027957602060405160088152f35b34610279576000366003190112610279576001600160501b03600254166000526001602052602061112b60036040600020015442611d72565b60095410604051908152f35b34610279576000366003190112610279576020600e54604051908152f35b346102795760603660031901126102795761116e611a2c565b60243567ffffffffffffffff811161027957366023820112156102795767ffffffffffffffff81600401351161027957366024826004013583010111610279576000546001600160a01b0316330361045b576001600160a01b03821615610c86576001600160a01b03828116600090815260036020526040902054166114ea576044351580156114dd575b61043e576040519161120a83611a51565b6001600160a01b03811683526040516112316004840135601f01601f191660200182611aa6565b600483013580825260248401602083013760006020846004013583010152602084015260006040840152600060608401526001608084015260443560a0840152600060c0840152600060e084015260018060a01b0381166000526003602052604060002060018060a01b038451166bffffffffffffffffffffffff60a01b825416178155602084015180519067ffffffffffffffff82116114c7576112d96001840154611cfc565b601f8111611487575b50602090601f83116001146113f057958260079360e0937fb9249a01df4223ae1bd0a00f179398adf5b1526d8cee0a03575328c4f9877b8e98996000926113e5575b50508160011b916000199060031b1c19161760018501555b604081015160028501556060810151600385015561136f60808201511515600486019060ff801983541691151516179055565b60a0810151600585015560c08101516006850155015191015561139181611d4d565b60606040518092604082528560040135604083015285600401356024870184840137600060049096013582810184019690965260443560208301526001600160a01b031694601f01601f19168101030190a2005b015190508980611324565b906001840160005260206000209160005b601f198516811061146f57508360e0937fb9249a01df4223ae1bd0a00f179398adf5b1526d8cee0a03575328c4f9877b8e989993600193600797601f19811610611456575b505050811b01600185015561133c565b015160001960f88460031b161c19169055898080611446565b91926020600181928685015181550194019201611401565b6114b790600185016000526020600020601f850160051c810191602086106114bd575b601f0160051c0190611d36565b866112e2565b90915081906114aa565b634e487b7160e01b600052604160045260246000fd5b50612710604435116111f9565b604051636f82db4560e01b8152600490fd5b346102795760003660031901126102795760206001600160501b0360025416604051908152f35b346102795760403660031901126102795760043561153f611a42565b6000546001600160a01b0316330361045b5780806115a3575b610bf957816040917f2954aa8aa2013e251bbba43dd4f1be746fbe11be8c775afd409499f44f877e9093600c55151560ff19600d541660ff821617600d5582519182526020820152a1005b50600a548212806115585750600b548213611558565b34610279576040366003190112610279576115d2611a2c565b6115da611a42565b6000546001600160a01b0392908316330361045b578216918260005260036020526040600020541615610f535760207ff34621112e3b41142c0330ec0135d70730e5e2bdc0eaaad3aa98bc253a3a19219183600052600382526116508160046040600020019060ff801983541691151516179055565b6040519015158152a2005b3461027957604036600319011261027957611674611a2c565b600054602435916001600160a01b03918216330361045b578116908160005260036020526040600020541615610f5357811580156116c7575b61043e576000526003602052600560406000200155600080f35b5061271082116116ad565b346102795760203660031901126102795733600052600560205260ff604060002054161580611a17575b611a085760ff600d5460081c166119f657600a546004351280156119e9575b610bf95733600090815260036020526040902080546001600160a01b03166119c6575060405161174a81611a51565b33815260405161175981611a8a565b600881526727b832b930ba37b960c11b6020820152602082015260043560408201524260608201526001608082015261271060a0820152600160c0820152600060e082015233600052600360205260406000209060018060a01b038151166bffffffffffffffffffffffff60a01b835416178255602081015180519067ffffffffffffffff82116114c7576117f16001850154611cfc565b601f8111611991575b50602090601f831160011461191c5791806007949260e094600092611911575b50508160011b916000199060031b1c19161760018501555b604081015160028501556060810151600385015561186560808201511515600486019060ff801983541691151516179055565b60a0810151600585015560c08101516006850155015191015561188733611d4d565b60405160408152600860408201526727b832b930ba37b960c11b606082015261271060208201527fb9249a01df4223ae1bd0a00f179398adf5b1526d8cee0a03575328c4f9877b8e60803392a25b60405160043581524260208201527fe62719f34eabfc6d76029c27fc5878944ba01b5483bd3288c119046898b4b94e60403392a2610b42611e47565b01519050868061181a565b906001850160005260206000209160005b601f19851681106119795750926007949260019260e09583601f19811610611960575b505050811b016001850155611832565b015160001960f88460031b161c19169055868080611950565b9192602060018192868501518155019401920161192d565b6119c090600186016000526020600020601f850160051c810191602086106114bd57601f0160051c0190611d36565b846117fa565b6006906004356002820155426003820155016119e28154611ced565b90556118d5565b50600b546004351361171b565b60405163ab35696f60e01b8152600490fd5b631f0853c160e21b8152600490fd5b506000546001600160a01b03163314156116fc565b600435906001600160a01b038216820361027957565b60243590811515820361027957565b610100810190811067ffffffffffffffff8211176114c757604052565b60a0810190811067ffffffffffffffff8211176114c757604052565b6040810190811067ffffffffffffffff8211176114c757604052565b90601f8019910116810190811067ffffffffffffffff8211176114c757604052565b919082519283825260005b848110611af4575050826000602080949584010152601f8019910116010190565b602081830181015184830182015201611ad3565b600454811015611b3f5760046000527f8a35acfbc15ff81a39ae7d344fd709f28e8600b4aa8c65c6b64bfe7fe36bd19b0190600090565b634e487b7160e01b600052603260045260246000fd5b600654811015611b3f5760066000527ff652222313e28459528d920b65115c16c04f3efc82aaedc97be59f3f377c0d3f0190600090565b6020908160408183019282815285518094520193019160005b828110611bb3575050505090565b83516001600160a01b031685529381019392810192600101611ba5565b60ff600d541680611c71575b611c45576001600160501b03806002541660005260016020526040600020608060405193611c0985611a6e565b83835416808652600184015495866020820152600285015495866040830152600460038701549687606085015201541693849101529493929190565b6001600160501b0360025416600c54918160005260016020526002604060002001549180939291429190565b506000600c5413611bdc565b60ff600d541680611cb3575b611cad576001600160501b0360025416600052600160205260016040600020015490565b600c5490565b506000600c5413611c89565b60ff600d5416611ce9576001600160501b0360025416600052600160205260036040600020015490565b4290565b60001981146108fd5760010190565b90600182811c92168015611d2c575b6020831014611d1657565b634e487b7160e01b600052602260045260246000fd5b91607f1691611d0b565b818110611d41575050565b60008155600101611d36565b60045490600160401b8210156114c757610874826001611d709401600455611b08565b565b919082039182116108fd57565b6001600160a01b038116908115610c8657600090828252600560205260408220805460ff8116611e0f5760ff19166001179055600654600160401b811015611dfb577fac6fa858e9350a46cec16539926e0fde25b7629f84b5a72bffaae4df888ae86d9291610874826001611df79401600655611b55565b80a2565b634e487b7160e01b83526041600452602483fd5b5050505050565b8115611e3157600160ff1b81146000198314166108fd570590565b634e487b7160e01b600052601260045260246000fd5b60008081826004938454905b818110611f62575050600854111580611f59575b611e7057505050565b611e7991611e16565b906001600160501b0360025416600052600160205260016040600020015460008113611ecb575b5050600a5481121580611ebf575b611eb6575b50565b611d7090612094565b50600b54811315611eae565b8083036000821284821281169085831390151617611f4457612710808202918205148285141715611f445790611f0091611e16565b9060008212611f1a575b5060075410611eb3573880611ea0565b600160ff1b8214611f2f575060000338611f0a565b601190634e487b7160e01b6000525260246000fd5b601183634e487b7160e01b6000525260246000fd5b50801515611e67565b611f6b81611b08565b90549060039160018060a01b0391831b1c166000528060205260406000209060ff88830154169081612084575b8161206b575b50611fb3575b50611fae90611ced565b611e53565b92611fc090949194611ced565b92600560028201549101549586820291600160ff1b8814600082121661205657808305881490151715612041576000828201928312911290801582169115161761202c579481018091116120175792611fae611fa4565b601186634e487b7160e01b6000525260246000fd5b601187634e487b7160e01b6000525260246000fd5b601188634e487b7160e01b6000525260246000fd5b601189634e487b7160e01b6000525260246000fd5b612079915082015442611d72565b600954101538611f9e565b9050600060028301541390611f98565b6002546001600160501b03908181168281146108fd5760018391011690816001600160501b0319809216176002558260046040516120d181611a6e565b8481526020810187815260408201428152606083019142835260808401978089526000526001602052856040600020945116878554161784555160018401555160028301555160038201550192511690825416179055612132600e54611ced565b600e5542600f556002541690604051428152827f0109fc6f55cf40689f02fbaad7af7fe7bbac8a3d2186600afc7d3e10cac6027160203393a37f0559884fd3a460db3073b7fc896cc77986f16e378210ded43186175bf646fc5f6020604051428152a356fea264697066735822122097832b067bf7c203cca5cc8d89f4e33465d8490e2aa4268625c97964ae69e14964736f6c63430008140033",
  "linkReferences": {},
  "deployedLinkReferences": {},
  "immutableReferences": {},
  "inputSourceName": "project/contracts/DCBTreasury/v2/PriceOracle.sol",
  "buildInfoId": "solc-0_8_20-a1c61539025f0654ad3a75bdb2b55239eb68e7f3"
}