{
  "_format": "hh3-artifact-1",
  "contractName": "BankRegistry",
  "sourceName": "contracts/DCBTreasury/v2/BankRegistry.sol",
  "abi": [
    {
      "inputs": [
        {
          "internalType": "address",
          "name": "_admin",
          "type": "address"
        },
        {
          "internalType": "address[]",
          "name": "_initialApprovers",
          "type": "address[]"
        },
        {
          "internalType": "uint256",
          "name": "_requiredApprovals",
          "type": "uint256"
        }
      ],
      "stateMutability": "nonpayable",
      "type": "constructor"
    },
    {
      "inputs": [],
      "name": "AlreadyVoted",
      "type": "error"
    },
    {
      "inputs": [],
      "name": "ApprovalAlreadyExecuted",
      "type": "error"
    },
    {
      "inputs": [],
      "name": "ApprovalExpired",
      "type": "error"
    },
    {
      "inputs": [],
      "name": "ApprovalNotFound",
      "type": "error"
    },
    {
      "inputs": [],
      "name": "BankAlreadyRegistered",
      "type": "error"
    },
    {
      "inputs": [],
      "name": "BankNotActive",
      "type": "error"
    },
    {
      "inputs": [],
      "name": "BankNotRegistered",
      "type": "error"
    },
    {
      "inputs": [],
      "name": "CannotRemoveApprover",
      "type": "error"
    },
    {
      "inputs": [],
      "name": "EmptyString",
      "type": "error"
    },
    {
      "inputs": [],
      "name": "InsufficientApprovals",
      "type": "error"
    },
    {
      "inputs": [],
      "name": "InvalidBIC",
      "type": "error"
    },
    {
      "inputs": [],
      "name": "InvalidCountryCode",
      "type": "error"
    },
    {
      "inputs": [],
      "name": "InvalidRequiredApprovals",
      "type": "error"
    },
    {
      "inputs": [],
      "name": "NotAdmin",
      "type": "error"
    },
    {
      "inputs": [],
      "name": "NotApprover",
      "type": "error"
    },
    {
      "inputs": [],
      "name": "ZeroAddress",
      "type": "error"
    },
    {
      "anonymous": false,
      "inputs": [
        {
          "indexed": true,
          "internalType": "address",
          "name": "previousAdmin",
          "type": "address"
        },
        {
          "indexed": true,
          "internalType": "address",
          "name": "newAdmin",
          "type": "address"
        }
      ],
      "name": "AdminTransferred",
      "type": "event"
    },
    {
      "anonymous": false,
      "inputs": [
        {
          "indexed": true,
          "internalType": "uint256",
          "name": "approvalId",
          "type": "uint256"
        },
        {
          "indexed": true,
          "internalType": "address",
          "name": "bankAddress",
          "type": "address"
        },
        {
          "indexed": false,
          "internalType": "uint256",
          "name": "timestamp",
          "type": "uint256"
        }
      ],
      "name": "ApprovalExecuted",
      "type": "event"
    },
    {
      "anonymous": false,
      "inputs": [
        {
          "indexed": true,
          "internalType": "uint256",
          "name": "approvalId",
          "type": "uint256"
        },
        {
          "indexed": false,
          "internalType": "uint256",
          "name": "timestamp",
          "type": "uint256"
        }
      ],
      "name": "ApprovalRejected",
      "type": "event"
    },
    {
      "anonymous": false,
      "inputs": [
        {
          "indexed": true,
          "internalType": "uint256",
          "name": "approvalId",
          "type": "uint256"
        },
        {
          "indexed": true,
          "internalType": "address",
          "name": "proposedBank",
          "type": "address"
        },
        {
          "indexed": false,
          "internalType": "string",
          "name": "name",
          "type": "string"
        },
        {
          "indexed": true,
          "internalType": "address",
          "name": "proposer",
          "type": "address"
        },
        {
          "indexed": false,
          "internalType": "uint256",
          "name": "expiresAt",
          "type": "uint256"
        }
      ],
      "name": "ApprovalRequested",
      "type": "event"
    },
    {
      "anonymous": false,
      "inputs": [
        {
          "indexed": true,
          "internalType": "address",
          "name": "approver",
          "type": "address"
        },
        {
          "indexed": false,
          "internalType": "uint256",
          "name": "timestamp",
          "type": "uint256"
        }
      ],
      "name": "ApproverAdded",
      "type": "event"
    },
    {
      "anonymous": false,
      "inputs": [
        {
          "indexed": true,
          "internalType": "address",
          "name": "approver",
          "type": "address"
        },
        {
          "indexed": false,
          "internalType": "uint256",
          "name": "timestamp",
          "type": "uint256"
        }
      ],
      "name": "ApproverRemoved",
      "type": "event"
    },
    {
      "anonymous": false,
      "inputs": [
        {
          "indexed": true,
          "internalType": "bytes32",
          "name": "bankId",
          "type": "bytes32"
        },
        {
          "indexed": true,
          "internalType": "address",
          "name": "bankAddress",
          "type": "address"
        },
        {
          "indexed": false,
          "internalType": "string",
          "name": "name",
          "type": "string"
        },
        {
          "indexed": false,
          "internalType": "string",
          "name": "bic",
          "type": "string"
        },
        {
          "indexed": false,
          "internalType": "string",
          "name": "country",
          "type": "string"
        },
        {
          "indexed": false,
          "internalType": "enum BankRegistry.ComplianceLevel",
          "name": "complianceLevel",
          "type": "uint8"
        },
        {
          "indexed": false,
          "internalType": "uint256",
          "name": "timestamp",
          "type": "uint256"
        }
      ],
      "name": "BankRegistered",
      "type": "event"
    },
    {
      "anonymous": false,
      "inputs": [
        {
          "indexed": true,
          "internalType": "address",
          "name": "bankAddress",
          "type": "address"
        },
        {
          "indexed": false,
          "internalType": "enum BankRegistry.BankStatus",
          "name": "oldStatus",
          "type": "uint8"
        },
        {
          "indexed": false,
          "internalType": "enum BankRegistry.BankStatus",
          "name": "newStatus",
          "type": "uint8"
        },
        {
          "indexed": false,
          "internalType": "uint256",
          "name": "timestamp",
          "type": "uint256"
        }
      ],
      "name": "BankStatusChanged",
      "type": "event"
    },
    {
      "anonymous": false,
      "inputs": [
        {
          "indexed": true,
          "internalType": "address",
          "name": "bankAddress",
          "type": "address"
        },
        {
          "indexed": false,
          "internalType": "string",
          "name": "name",
          "type": "string"
        },
        {
          "indexed": false,
          "internalType": "string",
          "name": "bic",
          "type": "string"
        },
        {
          "indexed": false,
          "internalType": "enum BankRegistry.ComplianceLevel",
          "name": "complianceLevel",
          "type": "uint8"
        },
        {
          "indexed": false,
          "internalType": "uint256",
          "name": "timestamp",
          "type": "uint256"
        }
      ],
      "name": "BankUpdated",
      "type": "event"
    },
    {
      "anonymous": false,
      "inputs": [
        {
          "indexed": false,
          "internalType": "uint256",
          "name": "oldValue",
          "type": "uint256"
        },
        {
          "indexed": false,
          "internalType": "uint256",
          "name": "newValue",
          "type": "uint256"
        }
      ],
      "name": "RequiredApprovalsChanged",
      "type": "event"
    },
    {
      "anonymous": false,
      "inputs": [
        {
          "indexed": true,
          "internalType": "uint256",
          "name": "approvalId",
          "type": "uint256"
        },
        {
          "indexed": true,
          "internalType": "address",
          "name": "voter",
          "type": "address"
        },
        {
          "indexed": false,
          "internalType": "bool",
          "name": "approved",
          "type": "bool"
        },
        {
          "indexed": false,
          "internalType": "uint256",
          "name": "currentApprovals",
          "type": "uint256"
        },
        {
          "indexed": false,
          "internalType": "uint256",
          "name": "currentRejections",
          "type": "uint256"
        }
      ],
      "name": "VoteCast",
      "type": "event"
    },
    {
      "inputs": [],
      "name": "ISSUER",
      "outputs": [
        {
          "internalType": "string",
          "name": "",
          "type": "string"
        }
      ],
      "stateMutability": "view",
      "type": "function"
    },
    {
      "inputs": [],
      "name": "NAME",
      "outputs": [
        {
          "internalType": "string",
          "name": "",
          "type": "string"
        }
      ],
      "stateMutability": "view",
      "type": "function"
    },
    {
      "inputs": [],
      "name": "VERSION",
      "outputs": [
        {
          "internalType": "string",
          "name": "",
          "type": "string"
        }
      ],
      "stateMutability": "view",
      "type": "function"
    },
    {
      "inputs": [],
      "name": "activeBanksCount",
      "outputs": [
        {
          "internalType": "uint256",
          "name": "",
          "type": "uint256"
        }
      ],
      "stateMutability": "view",
      "type": "function"
    },
    {
      "inputs": [
        {
          "internalType": "address",
          "name": "approver",
          "type": "address"
        }
      ],
      "name": "addApprover",
      "outputs": [],
      "stateMutability": "nonpayable",
      "type": "function"
    },
    {
      "inputs": [],
      "name": "admin",
      "outputs": [
        {
          "internalType": "address",
          "name": "",
          "type": "address"
        }
      ],
      "stateMutability": "view",
      "type": "function"
    },
    {
      "inputs": [],
      "name": "approvalValidityPeriod",
      "outputs": [
        {
          "internalType": "uint256",
          "name": "",
          "type": "uint256"
        }
      ],
      "stateMutability": "view",
      "type": "function"
    },
    {
      "inputs": [
        {
          "internalType": "uint256",
          "name": "",
          "type": "uint256"
        }
      ],
      "name": "approvers",
      "outputs": [
        {
          "internalType": "address",
          "name": "",
          "type": "address"
        }
      ],
      "stateMutability": "view",
      "type": "function"
    },
    {
      "inputs": [
        {
          "internalType": "bytes32",
          "name": "",
          "type": "bytes32"
        }
      ],
      "name": "bankIdToAddress",
      "outputs": [
        {
          "internalType": "address",
          "name": "",
          "type": "address"
        }
      ],
      "stateMutability": "view",
      "type": "function"
    },
    {
      "inputs": [
        {
          "internalType": "address",
          "name": "bankAddress",
          "type": "address"
        }
      ],
      "name": "deactivateBank",
      "outputs": [],
      "stateMutability": "nonpayable",
      "type": "function"
    },
    {
      "inputs": [
        {
          "internalType": "uint256",
          "name": "approvalId",
          "type": "uint256"
        }
      ],
      "name": "executeApproval",
      "outputs": [],
      "stateMutability": "nonpayable",
      "type": "function"
    },
    {
      "inputs": [],
      "name": "getAllApprovers",
      "outputs": [
        {
          "internalType": "address[]",
          "name": "",
          "type": "address[]"
        }
      ],
      "stateMutability": "view",
      "type": "function"
    },
    {
      "inputs": [],
      "name": "getAllBanks",
      "outputs": [
        {
          "internalType": "address[]",
          "name": "",
          "type": "address[]"
        }
      ],
      "stateMutability": "view",
      "type": "function"
    },
    {
      "inputs": [
        {
          "internalType": "address",
          "name": "bankAddress",
          "type": "address"
        }
      ],
      "name": "getBank",
      "outputs": [
        {
          "internalType": "bytes32",
          "name": "bankId",
          "type": "bytes32"
        },
        {
          "internalType": "string",
          "name": "name",
          "type": "string"
        },
        {
          "internalType": "string",
          "name": "bic",
          "type": "string"
        },
        {
          "internalType": "string",
          "name": "country",
          "type": "string"
        },
        {
          "internalType": "address",
          "name": "walletAddress",
          "type": "address"
        },
        {
          "internalType": "address",
          "name": "signerAddress",
          "type": "address"
        },
        {
          "internalType": "enum BankRegistry.BankStatus",
          "name": "status",
          "type": "uint8"
        },
        {
          "internalType": "enum BankRegistry.ComplianceLevel",
          "name": "complianceLevel",
          "type": "uint8"
        },
        {
          "internalType": "uint256",
          "name": "registeredAt",
          "type": "uint256"
        },
        {
          "internalType": "uint256",
          "name": "lastUpdatedAt",
          "type": "uint256"
        }
      ],
      "stateMutability": "view",
      "type": "function"
    },
    {
      "inputs": [
        {
          "internalType": "uint256",
          "name": "approvalId",
          "type": "uint256"
        }
      ],
      "name": "getPendingApproval",
      "outputs": [
        {
          "internalType": "address",
          "name": "proposedBankAddress",
          "type": "address"
        },
        {
          "internalType": "string",
          "name": "name",
          "type": "string"
        },
        {
          "internalType": "string",
          "name": "bic",
          "type": "string"
        },
        {
          "internalType": "string",
          "name": "country",
          "type": "string"
        },
        {
          "internalType": "enum BankRegistry.ComplianceLevel",
          "name": "complianceLevel",
          "type": "uint8"
        },
        {
          "internalType": "address",
          "name": "proposer",
          "type": "address"
        },
        {
          "internalType": "uint256",
          "name": "createdAt",
          "type": "uint256"
        },
        {
          "internalType": "uint256",
          "name": "expiresAt",
          "type": "uint256"
        },
        {
          "internalType": "uint256",
          "name": "approvalsCount",
          "type": "uint256"
        },
        {
          "internalType": "uint256",
          "name": "rejectionsCount",
          "type": "uint256"
        },
        {
          "internalType": "bool",
          "name": "executed",
          "type": "bool"
        },
        {
          "internalType": "bool",
          "name": "rejected",
          "type": "bool"
        }
      ],
      "stateMutability": "view",
      "type": "function"
    },
    {
      "inputs": [],
      "name": "getStats",
      "outputs": [
        {
          "internalType": "uint256",
          "name": "_totalBanksRegistered",
          "type": "uint256"
        },
        {
          "internalType": "uint256",
          "name": "_activeBanksCount",
          "type": "uint256"
        },
        {
          "internalType": "uint256",
          "name": "_approversCount",
          "type": "uint256"
        },
        {
          "internalType": "uint256",
          "name": "_requiredApprovals",
          "type": "uint256"
        },
        {
          "internalType": "uint256",
          "name": "_pendingApprovalsCount",
          "type": "uint256"
        }
      ],
      "stateMutability": "view",
      "type": "function"
    },
    {
      "inputs": [
        {
          "internalType": "uint256",
          "name": "approvalId",
          "type": "uint256"
        },
        {
          "internalType": "address",
          "name": "approver",
          "type": "address"
        }
      ],
      "name": "getVote",
      "outputs": [
        {
          "internalType": "bool",
          "name": "hasVoted",
          "type": "bool"
        },
        {
          "internalType": "bool",
          "name": "votedYes",
          "type": "bool"
        }
      ],
      "stateMutability": "view",
      "type": "function"
    },
    {
      "inputs": [
        {
          "internalType": "address",
          "name": "",
          "type": "address"
        }
      ],
      "name": "isApprover",
      "outputs": [
        {
          "internalType": "bool",
          "name": "",
          "type": "bool"
        }
      ],
      "stateMutability": "view",
      "type": "function"
    },
    {
      "inputs": [
        {
          "internalType": "address",
          "name": "bankAddress",
          "type": "address"
        }
      ],
      "name": "isBankActive",
      "outputs": [
        {
          "internalType": "bool",
          "name": "",
          "type": "bool"
        }
      ],
      "stateMutability": "view",
      "type": "function"
    },
    {
      "inputs": [
        {
          "internalType": "address",
          "name": "bankAddress",
          "type": "address"
        }
      ],
      "name": "isBankRegistered",
      "outputs": [
        {
          "internalType": "bool",
          "name": "",
          "type": "bool"
        }
      ],
      "stateMutability": "view",
      "type": "function"
    },
    {
      "inputs": [],
      "name": "nextApprovalId",
      "outputs": [
        {
          "internalType": "uint256",
          "name": "",
          "type": "uint256"
        }
      ],
      "stateMutability": "view",
      "type": "function"
    },
    {
      "inputs": [
        {
          "internalType": "address",
          "name": "bankAddress",
          "type": "address"
        },
        {
          "internalType": "string",
          "name": "name",
          "type": "string"
        },
        {
          "internalType": "string",
          "name": "bic",
          "type": "string"
        },
        {
          "internalType": "string",
          "name": "country",
          "type": "string"
        },
        {
          "internalType": "enum BankRegistry.ComplianceLevel",
          "name": "complianceLevel",
          "type": "uint8"
        }
      ],
      "name": "proposeBankRegistration",
      "outputs": [
        {
          "internalType": "uint256",
          "name": "approvalId",
          "type": "uint256"
        }
      ],
      "stateMutability": "nonpayable",
      "type": "function"
    },
    {
      "inputs": [
        {
          "internalType": "address",
          "name": "bankAddress",
          "type": "address"
        }
      ],
      "name": "reactivateBank",
      "outputs": [],
      "stateMutability": "nonpayable",
      "type": "function"
    },
    {
      "inputs": [
        {
          "internalType": "address",
          "name": "bankAddress",
          "type": "address"
        },
        {
          "internalType": "string",
          "name": "name",
          "type": "string"
        },
        {
          "internalType": "string",
          "name": "bic",
          "type": "string"
        },
        {
          "internalType": "string",
          "name": "country",
          "type": "string"
        },
        {
          "internalType": "enum BankRegistry.ComplianceLevel",
          "name": "complianceLevel",
          "type": "uint8"
        }
      ],
      "name": "registerBankDirect",
      "outputs": [
        {
          "internalType": "bytes32",
          "name": "bankId",
          "type": "bytes32"
        }
      ],
      "stateMutability": "nonpayable",
      "type": "function"
    },
    {
      "inputs": [
        {
          "internalType": "uint256",
          "name": "",
          "type": "uint256"
        }
      ],
      "name": "registeredBanks",
      "outputs": [
        {
          "internalType": "address",
          "name": "",
          "type": "address"
        }
      ],
      "stateMutability": "view",
      "type": "function"
    },
    {
      "inputs": [
        {
          "internalType": "address",
          "name": "approver",
          "type": "address"
        }
      ],
      "name": "removeApprover",
      "outputs": [],
      "stateMutability": "nonpayable",
      "type": "function"
    },
    {
      "inputs": [],
      "name": "requiredApprovals",
      "outputs": [
        {
          "internalType": "uint256",
          "name": "",
          "type": "uint256"
        }
      ],
      "stateMutability": "view",
      "type": "function"
    },
    {
      "inputs": [
        {
          "internalType": "uint256",
          "name": "period",
          "type": "uint256"
        }
      ],
      "name": "setApprovalValidityPeriod",
      "outputs": [],
      "stateMutability": "nonpayable",
      "type": "function"
    },
    {
      "inputs": [
        {
          "internalType": "address",
          "name": "bankAddress",
          "type": "address"
        },
        {
          "internalType": "uint256",
          "name": "limit",
          "type": "uint256"
        }
      ],
      "name": "setBankTransactionLimit",
      "outputs": [],
      "stateMutability": "nonpayable",
      "type": "function"
    },
    {
      "inputs": [
        {
          "internalType": "uint256",
          "name": "required",
          "type": "uint256"
        }
      ],
      "name": "setRequiredApprovals",
      "outputs": [],
      "stateMutability": "nonpayable",
      "type": "function"
    },
    {
      "inputs": [
        {
          "internalType": "address",
          "name": "bankAddress",
          "type": "address"
        }
      ],
      "name": "suspendBank",
      "outputs": [],
      "stateMutability": "nonpayable",
      "type": "function"
    },
    {
      "inputs": [],
      "name": "totalBanksRegistered",
      "outputs": [
        {
          "internalType": "uint256",
          "name": "",
          "type": "uint256"
        }
      ],
      "stateMutability": "view",
      "type": "function"
    },
    {
      "inputs": [
        {
          "internalType": "address",
          "name": "newAdmin",
          "type": "address"
        }
      ],
      "name": "transferAdmin",
      "outputs": [],
      "stateMutability": "nonpayable",
      "type": "function"
    },
    {
      "inputs": [
        {
          "internalType": "address",
          "name": "bankAddress",
          "type": "address"
        },
        {
          "internalType": "string",
          "name": "name",
          "type": "string"
        },
        {
          "internalType": "string",
          "name": "bic",
          "type": "string"
        },
        {
          "internalType": "enum BankRegistry.ComplianceLevel",
          "name": "complianceLevel",
          "type": "uint8"
        }
      ],
      "name": "updateBank",
      "outputs": [],
      "stateMutability": "nonpayable",
      "type": "function"
    },
    {
      "inputs": [
        {
          "internalType": "address",
          "name": "bankAddress",
          "type": "address"
        },
        {
          "internalType": "address",
          "name": "newSigner",
          "type": "address"
        }
      ],
      "name": "updateBankSigner",
      "outputs": [],
      "stateMutability": "nonpayable",
      "type": "function"
    },
    {
      "inputs": [
        {
          "internalType": "uint256",
          "name": "approvalId",
          "type": "uint256"
        },
        {
          "internalType": "bool",
          "name": "approve",
          "type": "bool"
        }
      ],
      "name": "vote",
      "outputs": [],
      "stateMutability": "nonpayable",
      "type": "function"
    }
  ],
  "bytecode": "0x60406080815234620002d7576200328a803803806200001e81620002f2565b928339810191606082840312620002d7576200003a8262000318565b92602092838101519160018060401b0392838111620002d757820181601f82011215620002d7578051938411620002dc578360051b9086806200007f818501620002f2565b809781520192820101928311620002d7579086808795949301915b838310620002b65750505050015162093a806009556001600160a01b03858116949092908515620002a557821562000294578151936001948581018091116200027e5784116200026d578793879383889488946000988860018060a01b03198b5416178a55888a5260049485845262000122898c209260ff19938a858254161790556200032d565b8989514281527fcc3fb7dac428a6cfc717adb183eacce0df78f2307bb76f86da610899fc3fbc6a968791a28a9b5b62000195575b50505050505060065560085551917ff8ccb027dfcd135e000e9d45e6cc2d662578a8825d4c45b5e32e0adf67e79ec68180a3612ec69081620003c48239f35b80518c1015620002675788838c8e82620001b08287620003ae565b511615158062000244575b620001ed575b505050506000198c14620001da579a87019a8762000150565b634e487b7160e01b8b526011865260248bfd5b62000223936200021b9284620002048489620003ae565b511681528b8a52208c8782541617905584620003ae565b51166200032d565b82620002308d83620003ae565b511685858b51428152a288838c8e620001c1565b5082620002528287620003ae565b5116825289885260ff848320541615620001bb565b62000156565b8551631601b89360e01b8152600490fd5b634e487b7160e01b600052601160045260246000fd5b8451631601b89360e01b8152600490fd5b845163d92e233d60e01b8152600490fd5b8293949550620002c7829362000318565b815201910186869493926200009a565b600080fd5b634e487b7160e01b600052604160045260246000fd5b6040519190601f01601f191682016001600160401b03811183821017620002dc57604052565b51906001600160a01b0382168203620002d757565b60055468010000000000000000811015620002dc576001810180600555811015620003985760056000527f036b6384b5eca791c62761152d0c79bb0604c104a5fb6f4eb0703f3154bb3db00180546001600160a01b0319166001600160a01b03909216919091179055565b634e487b7160e01b600052603260045260246000fd5b8051821015620003985760209160051b01019056fe608080604052600436101561001357600080fd5b60003560e01c90816309853a2f14612142575080630ca730cf1461210e578063140dddf0146120f0578063209b1e3914612026578063222a242e14611fb7578063273debe214611f0957806333979a7b14611b215780634339b42114611ac3578063459c080014611aa557806364200a4614611a8757806365d8bf8014611a035780636b9c96f31461122d5780636cf4c88f146110bb5780636d218e481461107c57806374ac87701461102c57806375829def14610fbc57806381bd54ca14610ee057806383e0c31d14610dda5780638ad3dbc414610a57578063951c8a07146109c757806399c1aadc146109a95780639bccd84814610961578063a3f4df7e1461090f578063b16455c01461088e578063b646c1941461083d578063b8f3c149146107e2578063bc3f931f1461077e578063bf8bfda1146106ad578063c59d48471461064a578063c9d27afe1461044f578063d3650fb81461040d578063e1d9b57c1461036d578063eefd655b14610241578063f851a44014610218578063fa09bdc6146101fa5763ffa1ad74146101ab57600080fd5b346101f55760003660031901126101f5576101f16040516101cb81612288565b60058152640322e302e360dc1b6020820152604051918291602083526020830190612302565b0390f35b600080fd5b346101f55760003660031901126101f5576020600b54604051908152f35b346101f55760003660031901126101f5576000546040516001600160a01b039091168152602090f35b346101f55760203660031901126101f55760043560005260076020526102ba604060002060018060a01b0360ff8160018401541692600581015492600682015460078301546008840154916009850154936103236004610315600a890154986040519d8e806102b3816002860161258e565b03906122be565b6102e9604051916102d9836102d2816003850161258e565b03846122be565b6102d2604051809681930161258e565b6103076040519e8f9e8f908152610180908160208201520190612302565b8d810360408f015290612302565b908b820360608d0152612302565b9761033360808b01898316612378565b60081c1660a089015260c088015260e0870152610100860152610120850152818116151561014085015260081c1615156101608301520390f35b346101f55760403660031901126101f55761038661218e565b6000546001600160a01b039190821633036103fb57166000526001602052604060002060ff600582015460a01c1660058110156103e557156103d357602435600b82015542600790910155005b604051634abed95d60e01b8152600490fd5b634e487b7160e01b600052602160045260246000fd5b604051637bfa4b9f60e01b8152600490fd5b346101f55760203660031901126101f5576004356005548110156101f557610436602091612385565b905460405160039290921b1c6001600160a01b03168152f35b346101f55760403660031901126101f5576004356024358015158082036101f557336000526020906004825260ff6040600020541615610638576000848152600783526040902060018101546001600160a01b031615610626576007810154421161061457600a810193845460ff8116908115610606575b506105f457600b82013360005280855260ff604060002054166105e257336000528452604060002060ff1990600182825416179055600c8301855260406000209081541660ff85161790556000146105cd5760088101610527815461255e565b90555b60096008820154910191825460405191825282858301526040820152857f77a255f45c79d26605c257d8dfc37f9a619f53963ddbed1e95aa0aab1c801cee60603393a360065411156105bf575b60055490549060011c1061058757005b7f1310f9f0b012ea357778bf3b5c8a611a49de4f2268733f6fd200dbd3551227ad9161010061ff0019825416179055604051428152a2005b6105c8846126ae565b610577565b600981016105db815461255e565b905561052a565b604051637c9a1cf960e01b8152600490fd5b6040516323f72ced60e21b8152600490fd5b60ff915060081c16876104c7565b604051634aad99a560e11b8152600490fd5b604051633d60bbdd60e21b8152600490fd5b604051630197e13360e61b8152600490fd5b346101f55760003660031901126101f557600a54600b54906005546006546008549160001983019283116106975760a0946040519485526020850152604084015260608301526080820152f35b634e487b7160e01b600052601160045260246000fd5b346101f55760203660031901126101f5576106c661218e565b6000546001600160a01b039190821633036103fb571680600052600160205260406000206005810160ff815460a01c1660058110156103e55780156103d3577f5f700185bb4f35f3c4185be2bb3bf149132f8226b42745a4fb70f514430fc4f5926060926002831461076b575b805460ff60a01b1916600160a21b17905542600791909101556040519061075b90829061236b565b60046020820152426040820152a2005b610776600b54612624565b600b55610733565b346101f55760403660031901126101f55760406107996121a4565b6004356000526007602052816000209060018060a01b0316600052600b8101602052600c60ff836000205416910160205260ff8260002054168251911515825215156020820152f35b346101f55760203660031901126101f5576004356003548110156101f55760036000527fc2575a0e9e593c00f959f8c92f12db2869c3395a3b0502d05e2516446f71f85b01546040516001600160a01b039091168152602090f35b346101f55760203660031901126101f55761085661218e565b6000546001600160a01b0390811633036103fb5781161561087c5761087a90612631565b005b60405163d92e233d60e01b8152600490fd5b346101f55760403660031901126101f5576108a761218e565b6108af6121a4565b6000546001600160a01b039190821633036103fb57811691821561087c571660005260016020526040600020906005820190815460ff8160a01c1660058110156103e557156103d3576001600160a01b0319161790554260079190910155005b346101f55760003660031901126101f5576101f160405161092f81612288565b60118152704443422042616e6b20526567697374727960781b6020820152604051918291602083526020830190612302565b346101f55760203660031901126101f557600054600435906001600160a01b031633036103fb5762015180811061099757600955005b604051631601b89360e01b8152600490fd5b346101f55760003660031901126101f5576020600654604051908152f35b346101f55760003660031901126101f557604051806003549182815260208091019260036000527fc2575a0e9e593c00f959f8c92f12db2869c3395a3b0502d05e2516446f71f85b916000905b828210610a37576101f185610a2b818903826122be565b60405191829182612327565b83546001600160a01b031686529485019460019384019390910190610a14565b346101f55760803660031901126101f557610a7061218e565b6001600160401b03906024358281116101f557610a919036906004016121ba565b92906044358281116101f557610aab9036906004016121ba565b90946064359460048610156101f5576000546001600160a01b039190821633036103fb57169485600052600194602093868552604060002095600587019460ff865460a01c1660058110156103e557156103d35780610d18575b505080610ba2575b50507fd3bf9adbd27f414a73648820f552ee7a6c1bd2756f9e554ac50b3dd25f1bb366959650610b6e949392600260ff610b879484610b7c95610b92575b504260078801555460a81c1694604051978897608089526080890190830161258e565b92878403908801520161258e565b916040840190612378565b4260608301520390a2005b610b9c90826124d6565b8b610b4b565b610bb5610bb036838c6123d2565b612e78565b15610d065760028601918111610cf057610bd981610bd38454612424565b8461245e565b6000601f8211600114610c5857610b8794610b7c94610b6e999897948460029560ff957fd3bf9adbd27f414a73648820f552ee7a6c1bd2756f9e554ac50b3dd25f1bb3669e9f600092610c4d575b5050600019600383901b1c1916908b1b1790555b94509450508897508194959650610b0d565b013590508f80610c27565b601f1982169083600052866000209160005b818110610cdb57509489989794610b6e9a8560ff957fd3bf9adbd27f414a73648820f552ee7a6c1bd2756f9e554ac50b3dd25f1bb3669e9f610b879b96600299610b7c9c10610cc1575b505050811b019055610c3b565b0135600019600384901b60f8161c191690558f8080610cb4565b8c8301358455928a0192918801918801610c6a565b634e487b7160e01b600052604160045260246000fd5b60405163e047bb4560e01b8152600490fd5b838111610cf0578089890192610d3882610d328654612424565b8661245e565b600090601f8311600114610d7457600092610d69575b5050600019600383901b1c191690891b1790555b8980610b05565b013590508c80610d4e565b8b935084600052896000209160005b8b601f1986168210610dc457505083601f19811610610daa575b505050811b019055610d62565b0135600019600384901b60f8161c191690558c8080610d9d565b8284013585558e96909401939182019101610d83565b346101f55760203660031901126101f5576001600160a01b0380610dfc61218e565b16600052600160205260406000209081549080600484015416906005840154610ed0600686015491600787015493610ea06003610e926040519a610e4e8c610e47816001850161258e565b038d6122be565b610e66604051916102d9836102d2816002850161258e565b610e846040519c8d9c8d5260208d61014091829101528d0190612302565b908b820360408d0152612302565b9089820360608b0152612302565b956080880152811660a0870152610ec060c0870160ff8360a01c1661236b565b60ff60e087019160a81c16612378565b6101008401526101208301520390f35b346101f55760203660031901126101f557610ef961218e565b6000546001600160a01b039190821633036103fb57168060005260016020526040600020600581019081549060ff8260a01c169060058210156103e55781156103d35760028203610faa577f5f700185bb4f35f3c4185be2bb3bf149132f8226b42745a4fb70f514430fc4f593606093600360a01b9060ff60a01b1916179055600742910155610f8a600b54612624565b600b55610f9a604051809261236b565b60036020820152426040820152a2005b6040516323fb390f60e01b8152600490fd5b346101f55760203660031901126101f557610fd561218e565b600054906001600160a01b0380831691338390036103fb571691821561087c576001600160a01b031916821760009081557ff8ccb027dfcd135e000e9d45e6cc2d662578a8825d4c45b5e32e0adf67e79ec69080a3005b346101f55760203660031901126101f5576001600160a01b0361104d61218e565b16600052600160205260ff60056040600020015460a01c1660058110156103e557602090600260405191148152f35b346101f55760203660031901126101f5576001600160a01b0361109d61218e565b166000526004602052602060ff604060002054166040519015158152f35b346101f55760203660031901126101f5576110d461218e565b6000546001600160a01b039190821633036103fb5781169081600052600460205260ff6040600020541615610638576005908154600654101561121b5790826000526004602052604060002060ff19815416905560005b815490818110156112125783918561114283612385565b969054600397881b1c1614611166575061115e9192935061255e565b91909161112b565b6000199181830191821161069757611191846111846111b094612385565b905490891b1c1691612385565b90919082549060031b9160018060a01b03809116831b921b1916179055565b825480156111fc5701926111c384612385565b81939154921b1b19169055555b7f92cde62e3c3bc304c56d68824c7559081c133d0b650e7afecd708ca217e9bae86020604051428152a2005b634e487b7160e01b600052603160045260246000fd5b505050506111d0565b6040516362df0a6560e01b8152600490fd5b346101f55761123b366121e7565b94909660018060a09894981b036000541633036103fb576001600160a01b0381161561087c5761126c3683856123d2565b51156119f15761127d3685876123d2565b51156119f15760018060a01b038116600052600160205260ff60056040600020015460a01c1660058110156103e5576119df576112be610bb03686886123d2565b15610d065760026112d0368a8a6123d2565b51036119cd576112f66112e43684866123d2565b6112ef3687896123d2565b9083612e05565b96604051986113048a61226c565b888a526113123685876123d2565b60208b01526113223687896123d2565b60408b01526113323682846123d2565b60608b01526001600160a01b03831660808b0181905260a08b0152600260c08b01526113618860e08c01612418565b426101008b0152426101208b0152426101408b0152604051611382816122a3565b600081526101608b0152604051611398816122a3565b600081526101808b015260006101a08b015260018060a01b03831660005260016020526040600020958a51875560208b01518051906001600160401b038211610cf05781906113f7826113ee60018d0154612424565b60018d0161245e565b602090601f831160011461195b57600092611950575b50508160011b916000199060031b1c19161760018801555b60408b01518051906001600160401b038211610cf05781906114578261144e60028d0154612424565b60028d0161245e565b602090601f83116001146118de576000926118d3575b50508160011b916000199060031b1c19161760028801555b60608b01518051906001600160401b038211610cf05781906114b7826114ae60038d0154612424565b60038d0161245e565b602090601f831160011461186157600092611856575b50508160011b916000199060031b1c19161760038801555b60808b01516004880180546001600160a01b03199081166001600160a01b039384161790915560a08d01516005808b0180549093169190931617815560c08d015190918110156103e55761153990826124b2565b60e08c015160048110156103e557611550916124d6565b6101008b015160068801556101208b015160078801556101408b015160088801556101608b015180516001600160401b038111610cf0578060098a019261159b82610d328654612424565b602090601f83116001146117f0576000926117e5575b50508160011b916000199060031b1c19161790555b6101808b01519687519b6001600160401b038d11610cf0578c8c996115fd60209f6115f4600a870154612424565b600a870161245e565b8e90601f831160011461171e5793600b6101a06116df957faa9c80476c14275d36bf8b665d2248c0cf95f26af4fe28a80f6b8ff944ab1b879e9f95806116f89c9a966116ed9c9a600092611713575b50508160011b916000199060031b1c191617600a8501555b01519101558b60005260028f52604060002060018060a01b0389166bffffffffffffffffffffffff60a01b82541617905561169e886124fa565b6116a9600a5461255e565b600a556116b7600b5461255e565b600b556116d16040519a8b9a60a08c5260a08c019161256d565b9189830360208b015261256d565b91868303604088015261256d565b966060840190612378565b4260808301526001600160a01b0316940390a3604051908152f35b01519050388061164c565b9b9493929190600a84016000528f6000209c60005b601f19841681106117b157506101a06116f89997947faa9c80476c14275d36bf8b665d2248c0cf95f26af4fe28a80f6b8ff944ab1b879e9f856001916116df9996600b966116ed9e9c99601f19811610611798575b505050811b01600a850155611664565b015160001960f88460031b161c19169055388080611788565b929496989a9c5090929496989a9c6020600181928685015181550194019201908f9c9a98969492919d9b999795939d611733565b015190508e806115b1565b6000858152602081209350601f198516905b81811061183e5750908460019594939210611825575b505050811b0190556115c6565b015160001960f88460031b161c191690558e8080611818565b92936020600181928786015181550195019301611802565b015190508d806114cd565b925060038a016000526020600020906000935b601f19841685106118b8576001945083601f1981161061189f575b505050811b0160038801556114e5565b015160001960f88460031b161c191690558d808061188f565b81810151835560209485019460019093019290910190611874565b015190508d8061146d565b925060028a016000526020600020906000935b601f1984168510611935576001945083601f1981161061191c575b505050811b016002880155611485565b015160001960f88460031b161c191690558d808061190c565b818101518355602094850194600190930192909101906118f1565b015190508d8061140d565b925060018a016000526020600020906000935b601f19841685106119b2576001945083601f19811610611999575b505050811b016001880155611425565b015160001960f88460031b161c191690558d8080611989565b8181015183556020948501946001909301929091019061196e565b6040516304e7559960e21b8152600490fd5b60405163016a63e160e21b8152600490fd5b60405163ecd7b0d160e01b8152600490fd5b346101f55760003660031901126101f557604051806005549182815260208091019260056000527f036b6384b5eca791c62761152d0c79bb0604c104a5fb6f4eb0703f3154bb3db0916000905b828210611a67576101f185610a2b818903826122be565b83546001600160a01b031686529485019460019384019390910190611a50565b346101f55760003660031901126101f5576020600a54604051908152f35b346101f55760003660031901126101f5576020600854604051908152f35b346101f55760003660031901126101f5576101f1604051611ae381612288565b601b81527f4469676974616c20436f6d6d65726369616c2042616e6b204c746400000000006020820152604051918291602083526020830190612302565b346101f557611b2f366121e7565b909660018060a09894989695961b0390816000541633141580611ef0575b610638571693841561087c57611b643687856123d2565b51156119f157611b753682866123d2565b51156119f157846000526001602098818a5260ff60056040600020015460a01c1660058110156103e5576119df57611bb1610bb03685896123d2565b15610d06576002611bc336838c6123d2565b51036119cd5760085498611bd68a61255e565b60085560008a815260078c52604090208a815583810180546001600160a01b0319168a179055966001600160401b0394858b11610cf0578c8b60028b0191611c2882611c228554612424565b8561245e565b600090601f8311600114611e875750600091611e7c575b5060001960038e901b1c19168c871b1790555b858111610cf057808d60038b0193611c7483611c6e8754612424565b8761245e565b600091601f8411600114611e165750600092611e0b575b5050600019600383901b1c191690851b1790555b60048701938211610cf057611cb882610d328654612424565b600090601f8311600114611da457928293918392600094611d99575b50501b916000199060031b1c19161790555b600583019060048110156103e55781546001600160a81b03191660ff91909116173360081b610100600160a81b0316179055426006830181905560095481019490851061069757611d867f6be819818d576d472b6117146ee82be0f317009a0e56fa6c156bfe34c94ce1b492600a858860078b98015560006008820155600060098201550161ffff1981541690556040519260408452604084019161256d565b94878201528033950390a4604051908152f35b013592508c80611cd4565b8b9183601f1981168760005284600020946000905b88838310611df15750505010611dd7575b505050811b019055611ce6565b0135600019600384901b60f8161c191690558a8080611dca565b868601358855909601959384019387935090810190611db9565b013590508e80611c8b565b91889450601f1984168660005283600020936000905b828210611e635750508411611e49575b505050811b019055611c9f565b0135600019600384901b60f8161c191690558e8080611e3c565b8385013586558b97909501949283019290810190611e2c565b90508901358f611c3f565b60008481528181209390918a8e5b601f1984168510611ed857505050601f198116109050611ebe575b5050858c811b019055611c52565b8a013560001960038f901b60f8161c191690558e80611eb0565b85013586559094019392830192918201918a8e611e95565b5033600052600460205260ff6040600020541615611b4d565b346101f55760203660031901126101f557600054600435906001600160a01b0390811633141580611f9e575b610638578160005260076020526040600020906001820154161561062657600a81015460ff8116908115611f90575b506105f4576008015460065411611f7e5761087a906126ae565b604051638af69cf160e01b8152600490fd5b60ff915060081c1683611f64565b5033600052600460205260ff6040600020541615611f35565b346101f55760203660031901126101f557600054600435906001600160a01b031633036103fb5780156109975760055481116109975760407ffe8415ddc48736ac548277db19239174daa7df382596d5b25cfdc4c5f3729ae091600654908060065582519182526020820152a1005b346101f55760203660031901126101f55761203f61218e565b6000546001600160a01b039190821633036103fb57168060005260016020526040600020600581019081549060ff8260a01c169060058210156103e55781156103d35760038203610faa577f5f700185bb4f35f3c4185be2bb3bf149132f8226b42745a4fb70f514430fc4f593606093600160a11b9060ff60a01b19161790556007429101556120d0600b5461255e565b600b556120e0604051809261236b565b60026020820152426040820152a2005b346101f55760003660031901126101f5576020600954604051908152f35b346101f55760203660031901126101f5576004356000526002602052602060018060a01b0360406000205416604051908152f35b346101f55760203660031901126101f5576001600160a01b0361216361218e565b16600052600160205260ff60056040600020015460a01c169060058210156103e55760209115158152f35b600435906001600160a01b03821682036101f557565b602435906001600160a01b03821682036101f557565b9181601f840112156101f5578235916001600160401b0383116101f557602083818601950101116101f557565b60a06003198201126101f5576004356001600160a01b03811681036101f557916001600160401b036024358181116101f55783612226916004016121ba565b939093926044358381116101f55782612241916004016121ba565b939093926064359182116101f55761225b916004016121ba565b909160843560048110156101f55790565b6101c081019081106001600160401b03821117610cf057604052565b604081019081106001600160401b03821117610cf057604052565b602081019081106001600160401b03821117610cf057604052565b90601f801991011681019081106001600160401b03821117610cf057604052565b60005b8381106122f25750506000910152565b81810151838201526020016122e2565b9060209161231b815180928185528580860191016122df565b601f01601f1916010190565b6020908160408183019282815285518094520193019160005b82811061234e575050505090565b83516001600160a01b031685529381019392810192600101612340565b9060058210156103e55752565b9060048210156103e55752565b6005548110156123bc5760056000527f036b6384b5eca791c62761152d0c79bb0604c104a5fb6f4eb0703f3154bb3db00190600090565b634e487b7160e01b600052603260045260246000fd5b9291926001600160401b038211610cf057604051916123fb601f8201601f1916602001846122be565b8294818452818301116101f5578281602093846000960137010152565b60048210156103e55752565b90600182811c92168015612454575b602083101461243e57565b634e487b7160e01b600052602260045260246000fd5b91607f1691612433565b90601f811161246c57505050565b600091825260208220906020601f850160051c830194106124a8575b601f0160051c01915b82811061249d57505050565b818155600101612491565b9092508290612488565b9060058110156103e557815460ff60a01b191660a09190911b60ff60a01b16179055565b9060048110156103e557815460ff60a81b191660a89190911b60ff60a81b16179055565b600354600160401b811015610cf05760018101806003558110156123bc5760036000527fc2575a0e9e593c00f959f8c92f12db2869c3395a3b0502d05e2516446f71f85b0180546001600160a01b0319166001600160a01b03909216919091179055565b60001981146106975760010190565b908060209392818452848401376000828201840152601f01601f1916010190565b906000929180549161259f83612424565b91828252600193848116908160001461260157506001146125c1575b50505050565b90919394506000526020928360002092846000945b8386106125ed5750505050010190388080806125bb565b8054858701830152940193859082016125d6565b9294505050602093945060ff191683830152151560051b010190388080806125bb565b8015610697576000190190565b6001600160a01b0381166000818152600460205260409020805491929160ff81166125bb5760ff1916600117905560055490600160401b821015610cf0576111918260016126829401600555612385565b7fcc3fb7dac428a6cfc717adb183eacce0df78f2307bb76f86da610899fc3fbc6a6020604051428152a2565b9081600052600760205260406000209160018060a01b036001840154169261270c6040516126ea816126e3816002870161258e565b03826122be565b60405190612706826126ff816003880161258e565b03836122be565b86612e05565b60ff6005830154169461278f604051966127258861226c565b83885260405161273c816126e38160028a0161258e565b6020890152604051612755816126e38160038a0161258e565b604089015260405161276e816126e38160048a0161258e565b60608901528260808901528260a0890152600260c089015260e08801612418565b4261010087015242610120870152426101408701526040516127b0816122a3565b600081526101608701526040516127c6816122a3565b6000815261018087015260006101a0870152600052600160205260406000208551815560208601518051906001600160401b038211610cf057819061281b826128126001870154612424565b6001870161245e565b602090601f8311600114612d9357600092612d88575b50508160011b916000199060031b1c19161760018201555b60408601518051906001600160401b038211610cf057819061287b826128726002870154612424565b6002870161245e565b602090601f8311600114612d1657600092612d0b575b50508160011b916000199060031b1c19161760028201555b60608601518051906001600160401b038211610cf05781906128db826128d26003870154612424565b6003870161245e565b602090601f8311600114612c9957600092612c8e575b50508160011b916000199060031b1c19161760038201555b60808601516004820180546001600160a01b03199081166001600160a01b039384161790915560a0880151600580850180549093169190931617905560c0870151908110156103e55761295f90600583016124b2565b60e086015160048110156103e55761297a90600583016124d6565b6101008601516006820155610120860151600782015561014086015160088201556101608601518051906001600160401b038211610cf05781906129ce826129c56009870154612424565b6009870161245e565b602090601f8311600114612c1c57600092612c11575b50508160011b916000199060031b1c19161760098201555b6101808601519586516001600160401b038111610cf057612a2d81612a24600a860154612424565b600a860161245e565b6020601f8211600114612b985791816101a092600b94612b4d9a9b600092612b8d575b50508160011b916000199060031b1c191617600a8501555b0151910155600182018054600083815260026020526040902080546001600160a01b0319166001600160a01b039283161790559054612aa791166124fa565b612ab2600a5461255e565b600a55612ac0600b5461255e565b600b55600a8201600160ff198254161790557faa9c80476c14275d36bf8b665d2248c0cf95f26af4fe28a80f6b8ff944ab1b8760018060a01b03600184015416948360ff60058896015416612b5860405193849360a085526004612b3e612b2d60a088016002850161258e565b87810360208901526003840161258e565b9186830360408801520161258e565b916060840190612378565b4260808301520390a37f0c5efcd8e7653754beef29c75d705f1a80f7b935919c22fe532f51ca61b20a416020604051428152a3565b015190503880612a50565b600a840160005260206000209860005b601f1984168110612bf9575082612b4d999a600b95936001936101a096601f19811610612be0575b505050811b01600a850155612a68565b015160001960f88460031b161c19169055388080612bd0565b828201518b556001909a019960209283019201612ba8565b0151905038806129e4565b9250600984016000526020600020906000935b601f1984168510612c73576001945083601f19811610612c5a575b505050811b0160098201556129fc565b015160001960f88460031b161c19169055388080612c4a565b81810151835560209485019460019093019290910190612c2f565b0151905038806128f1565b9250600384016000526020600020906000935b601f1984168510612cf0576001945083601f19811610612cd7575b505050811b016003820155612909565b015160001960f88460031b161c19169055388080612cc7565b81810151835560209485019460019093019290910190612cac565b015190503880612891565b9250600284016000526020600020906000935b601f1984168510612d6d576001945083601f19811610612d54575b505050811b0160028201556128a9565b015160001960f88460031b161c19169055388080612d44565b81810151835560209485019460019093019290910190612d29565b015190503880612831565b9250600184016000526020600020906000935b601f1984168510612dea576001945083601f19811610612dd1575b505050811b016001820155612849565b015160001960f88460031b161c19169055388080612dc1565b81810151835560209485019460019093019290910190612da6565b91906074612e729160405193849160208301966bffffffffffffffffffffffff199060601b168752612e418151809260206034870191016122df565b8201612e578251809360206034850191016122df565b014660348201524260548201520360548101845201826122be565b51902090565b5160088114908115612e88575090565b600b9150149056fea2646970667358221220071de051d80adbf0d40b468f2982b54ebda9056fc5b7cff697d3e1099e5f396264736f6c63430008140033",
  "linkReferences": {},
  "deployedLinkReferences": {},
  "immutableReferences": {},
  "inputSourceName": "project/contracts/DCBTreasury/v2/BankRegistry.sol",
  "buildInfoId": "solc-0_8_20-a1c61539025f0654ad3a75bdb2b55239eb68e7f3"
}