{"contracts/SettlementRegistry.sol":{"SettlementRegistry":{"abi":[{"inputs":[{"internalType":"address","name":"admin","type":"address"}],"stateMutability":"nonpayable","type":"constructor"},{"inputs":[],"name":"AccessControlBadConfirmation","type":"error"},{"inputs":[{"internalType":"address","name":"account","type":"address"},{"internalType":"bytes32","name":"neededRole","type":"bytes32"}],"name":"AccessControlUnauthorizedAccount","type":"error"},{"anonymous":false,"inputs":[{"indexed":true,"internalType":"bytes32","name":"role","type":"bytes32"},{"indexed":true,"internalType":"bytes32","name":"previousAdminRole","type":"bytes32"},{"indexed":true,"internalType":"bytes32","name":"newAdminRole","type":"bytes32"}],"name":"RoleAdminChanged","type":"event"},{"anonymous":false,"inputs":[{"indexed":true,"internalType":"bytes32","name":"role","type":"bytes32"},{"indexed":true,"internalType":"address","name":"account","type":"address"},{"indexed":true,"internalType":"address","name":"sender","type":"address"}],"name":"RoleGranted","type":"event"},{"anonymous":false,"inputs":[{"indexed":true,"internalType":"bytes32","name":"role","type":"bytes32"},{"indexed":true,"internalType":"address","name":"account","type":"address"},{"indexed":true,"internalType":"address","name":"sender","type":"address"}],"name":"RoleRevoked","type":"event"},{"anonymous":false,"inputs":[{"indexed":true,"internalType":"bytes32","name":"holdId","type":"bytes32"},{"indexed":false,"internalType":"uint256","name":"amount","type":"uint256"},{"indexed":false,"internalType":"address","name":"beneficiary","type":"address"},{"indexed":false,"internalType":"bytes32","name":"iso20022Hash","type":"bytes32"},{"indexed":false,"internalType":"bytes3","name":"iso4217","type":"bytes3"}],"name":"SettlementCreated","type":"event"},{"anonymous":false,"inputs":[{"indexed":true,"internalType":"bytes32","name":"holdId","type":"bytes32"},{"indexed":true,"internalType":"enum SettlementRegistry.Status","name":"oldStatus","type":"uint8"},{"indexed":true,"internalType":"enum SettlementRegistry.Status","name":"newStatus","type":"uint8"},{"indexed":false,"internalType":"uint256","name":"amount","type":"uint256"},{"indexed":false,"internalType":"address","name":"beneficiary","type":"address"},{"indexed":false,"internalType":"bytes32","name":"iso20022Hash","type":"bytes32"},{"indexed":false,"internalType":"bytes3","name":"iso4217","type":"bytes3"},{"indexed":false,"internalType":"uint256","name":"timestamp","type":"uint256"}],"name":"StatusUpdated","type":"event"},{"inputs":[],"name":"DEFAULT_ADMIN_ROLE","outputs":[{"internalType":"bytes32","name":"","type":"bytes32"}],"stateMutability":"view","type":"function"},{"inputs":[],"name":"OPERATOR_ROLE","outputs":[{"internalType":"bytes32","name":"","type":"bytes32"}],"stateMutability":"view","type":"function"},{"inputs":[{"internalType":"bytes32","name":"holdId","type":"bytes32"},{"internalType":"uint256","name":"amount","type":"uint256"},{"internalType":"address","name":"beneficiary","type":"address"},{"internalType":"bytes32","name":"iso20022Hash","type":"bytes32"},{"internalType":"bytes3","name":"iso4217","type":"bytes3"}],"name":"createSettlement","outputs":[],"stateMutability":"nonpayable","type":"function"},{"inputs":[{"internalType":"bytes32","name":"holdId","type":"bytes32"}],"name":"exists","outputs":[{"internalType":"bool","name":"","type":"bool"}],"stateMutability":"view","type":"function"},{"inputs":[{"internalType":"bytes32","name":"role","type":"bytes32"}],"name":"getRoleAdmin","outputs":[{"internalType":"bytes32","name":"","type":"bytes32"}],"stateMutability":"view","type":"function"},{"inputs":[{"internalType":"bytes32","name":"holdId","type":"bytes32"}],"name":"getSettlement","outputs":[{"components":[{"internalType":"enum SettlementRegistry.Status","name":"status","type":"uint8"},{"internalType":"uint256","name":"amount","type":"uint256"},{"internalType":"address","name":"beneficiary","type":"address"},{"internalType":"bytes32","name":"iso20022Hash","type":"bytes32"},{"internalType":"bytes3","name":"iso4217","type":"bytes3"},{"internalType":"uint256","name":"timestamp","type":"uint256"},{"internalType":"bytes32","name":"txRef","type":"bytes32"}],"internalType":"struct SettlementRegistry.Settlement","name":"","type":"tuple"}],"stateMutability":"view","type":"function"},{"inputs":[{"internalType":"bytes32","name":"holdId","type":"bytes32"}],"name":"getStatus","outputs":[{"internalType":"enum SettlementRegistry.Status","name":"","type":"uint8"}],"stateMutability":"view","type":"function"},{"inputs":[{"internalType":"bytes32","name":"role","type":"bytes32"},{"internalType":"address","name":"account","type":"address"}],"name":"grantRole","outputs":[],"stateMutability":"nonpayable","type":"function"},{"inputs":[{"internalType":"bytes32","name":"role","type":"bytes32"},{"internalType":"address","name":"account","type":"address"}],"name":"hasRole","outputs":[{"internalType":"bool","name":"","type":"bool"}],"stateMutability":"view","type":"function"},{"inputs":[{"internalType":"bytes32","name":"role","type":"bytes32"},{"internalType":"address","name":"callerConfirmation","type":"address"}],"name":"renounceRole","outputs":[],"stateMutability":"nonpayable","type":"function"},{"inputs":[{"internalType":"bytes32","name":"role","type":"bytes32"},{"internalType":"address","name":"account","type":"address"}],"name":"revokeRole","outputs":[],"stateMutability":"nonpayable","type":"function"},{"inputs":[{"internalType":"bytes32","name":"holdId","type":"bytes32"}],"name":"setDelivered","outputs":[],"stateMutability":"nonpayable","type":"function"},{"inputs":[{"internalType":"bytes32","name":"holdId","type":"bytes32"}],"name":"setFailed","outputs":[],"stateMutability":"nonpayable","type":"function"},{"inputs":[{"internalType":"bytes32","name":"holdId","type":"bytes32"},{"internalType":"bytes32","name":"txRef","type":"bytes32"}],"name":"setMinted","outputs":[],"stateMutability":"nonpayable","type":"function"},{"inputs":[{"internalType":"bytes32","name":"","type":"bytes32"}],"name":"settlements","outputs":[{"internalType":"enum SettlementRegistry.Status","name":"status","type":"uint8"},{"internalType":"uint256","name":"amount","type":"uint256"},{"internalType":"address","name":"beneficiary","type":"address"},{"internalType":"bytes32","name":"iso20022Hash","type":"bytes32"},{"internalType":"bytes3","name":"iso4217","type":"bytes3"},{"internalType":"uint256","name":"timestamp","type":"uint256"},{"internalType":"bytes32","name":"txRef","type":"bytes32"}],"stateMutability":"view","type":"function"},{"inputs":[{"internalType":"bytes4","name":"interfaceId","type":"bytes4"}],"name":"supportsInterface","outputs":[{"internalType":"bool","name":"","type":"bool"}],"stateMutability":"view","type":"function"}],"evm":{"bytecode":{"linkReferences":{},"object":"608060405234801561001057600080fd5b5060405161102b38038061102b83398101604081905261002f9161017c565b6001600160a01b0381166100935760405162461bcd60e51b815260206004820152602160248201527f536574746c656d656e7452656769737472793a2061646d696e206973207a65726044820152606f60f81b606482015260840160405180910390fd5b61009e6000826100d0565b506100c97f97667070c54ef182b0f5858b034beac1b6f3089aa2d3188bb1e8929f4fa9b929826100d0565b50506101ac565b6000828152602081815260408083206001600160a01b038516845290915281205460ff16610172576000838152602081815260408083206001600160a01b03861684529091529020805460ff1916600117905561012a3390565b6001600160a01b0316826001600160a01b0316847f2f8788117e7eff1d82e926ec794901d17c78024a50270940304540a733656f0d60405160405180910390a4506001610176565b5060005b92915050565b60006020828403121561018e57600080fd5b81516001600160a01b03811681146101a557600080fd5b9392505050565b610e70806101bb6000396000f3fe608060405234801561001057600080fd5b50600436106101005760003560e01c8063815533bd11610097578063c3e6ace011610066578063c3e6ace014610293578063d547741f146102b3578063d6235acf146102c6578063f5b541a6146102d957600080fd5b8063815533bd14610252578063890091de1461026557806391d1485414610278578063a217fddf1461028b57600080fd5b806336568abe116100d357806336568abe146101e957806338a699a4146101fc578063480bcc921461020f5780635de28ae01461022257600080fd5b806301bc95e21461010557806301ffc9a714610180578063248a9ca3146101a35780632f2ff15d146101d4575b600080fd5b610164610113366004610b91565b6001602081905260009182526040909120805491810154600282015460038301546004840154600585015460069095015460ff9096169593946001600160a01b0390931693919260e89190911b9187565b6040516101779796959493929190610be2565b60405180910390f35b61019361018e366004610c33565b6102ee565b6040519015158152602001610177565b6101c66101b1366004610b91565b60009081526020819052604090206001015490565b604051908152602001610177565b6101e76101e2366004610c80565b610325565b005b6101e76101f7366004610c80565b610350565b61019361020a366004610b91565b610388565b6101e761021d366004610b91565b6103b6565b610245610230366004610b91565b60009081526001602052604090205460ff1690565b6040516101779190610cac565b6101e7610260366004610cba565b6104d1565b6101e7610273366004610b91565b6107b3565b610193610286366004610c80565b61082c565b6101c6600081565b6102a66102a1366004610b91565b610855565b6040516101779190610d1b565b6101e76102c1366004610c80565b61092c565b6101e76102d4366004610d80565b610951565b6101c6600080516020610e1b83398151915281565b60006001600160e01b03198216637965db0b60e01b148061031f57506301ffc9a760e01b6001600160e01b03198316145b92915050565b60008281526020819052604090206001015461034081610a4a565b61034a8383610a57565b50505050565b6001600160a01b03811633146103795760405163334bd91960e11b815260040160405180910390fd5b6103838282610ae9565b505050565b60008060008381526001602052604090205460ff1660048111156103ae576103ae610baa565b141592915050565b600080516020610e1b8339815191526103ce81610a4a565b600082815260016020819052604090912090815460ff1660048111156103f6576103f6610baa565b148061041757506002815460ff16600481111561041557610415610baa565b145b61043c5760405162461bcd60e51b815260040161043390610da2565b60405180910390fd5b8054600460ff1982168117835542600584015560ff909116905b81600481111561046857610468610baa565b60018401546002850154600386015460048701546040518a947f16c6e2a7b885e8732ed6c0077b7f2a0f66e657470ae8d55f3ebb21f97da5f791946104c39491936001600160a01b039091169260e89190911b904290610de4565b60405180910390a450505050565b600080516020610e1b8339815191526104e981610a4a565b60008681526001602052604081205460ff16600481111561050c5761050c610baa565b146105645760405162461bcd60e51b815260206004820152602260248201527f536574746c656d656e7452656769737472793a20616c72656164792065786973604482015261747360f01b6064820152608401610433565b600085116105bf5760405162461bcd60e51b815260206004820152602260248201527f536574746c656d656e7452656769737472793a20616d6f756e74206973207a65604482015261726f60f01b6064820152608401610433565b6001600160a01b0384166106255760405162461bcd60e51b815260206004820152602760248201527f536574746c656d656e7452656769737472793a2062656e6566696369617279206044820152666973207a65726f60c81b6064820152608401610433565b6040805160e081018252600180825260208083018990526001600160a01b03881683850152606083018790526001600160e81b0319861660808401524260a0840152600060c084018190528a8152908290529290922081518154929391929091839160ff19169083600481111561069e5761069e610baa565b021790555060208281015160018301556040808401516002840180546001600160a01b0319166001600160a01b03928316179055606080860151600386015560808087015160048701805462ffffff191660e89290921c91909117905560a0870151600587015560c09096015160069095019490945581518a81529089169281019290925281018690526001600160e81b031985169181019190915287917f162a04ce43e6117f6da611bfa15f6370654db0a89ba273781ec6c78b99059e04910160405180910390a260016000877f16c6e2a7b885e8732ed6c0077b7f2a0f66e657470ae8d55f3ebb21f97da5f79188888888426040516107a3959493929190610de4565b60405180910390a4505050505050565b600080516020610e1b8339815191526107cb81610a4a565b60008281526001602052604090206002815460ff1660048111156107f1576107f1610baa565b1461080e5760405162461bcd60e51b815260040161043390610da2565b8054600360ff1982168117835542600584015560ff90911690610456565b6000918252602082815260408084206001600160a01b0393909316845291905290205460ff1690565b6040805160e081018252600080825260208201819052918101829052606081018290526080810182905260a0810182905260c081019190915260008281526001602052604090819020815160e081019092528054829060ff1660048111156108bf576108bf610baa565b60048111156108d0576108d0610baa565b81526001820154602082015260028201546001600160a01b0316604082015260038201546060820152600482015460e81b6001600160e81b0319166080820152600582015460a082015260069091015460c09091015292915050565b60008281526020819052604090206001015461094781610a4a565b61034a8383610ae9565b600080516020610e1b83398151915261096981610a4a565b600083815260016020819052604090912090815460ff16600481111561099157610991610baa565b146109ae5760405162461bcd60e51b815260040161043390610da2565b8054600260ff198216811783556006830185905542600584015560ff909116908160048111156109e0576109e0610baa565b60018401546002850154600386015460048701546040518b947f16c6e2a7b885e8732ed6c0077b7f2a0f66e657470ae8d55f3ebb21f97da5f79194610a3b9491936001600160a01b039091169260e89190911b904290610de4565b60405180910390a45050505050565b610a548133610b54565b50565b6000610a63838361082c565b610ae1576000838152602081815260408083206001600160a01b03861684529091529020805460ff19166001179055610a993390565b6001600160a01b0316826001600160a01b0316847f2f8788117e7eff1d82e926ec794901d17c78024a50270940304540a733656f0d60405160405180910390a450600161031f565b50600061031f565b6000610af5838361082c565b15610ae1576000838152602081815260408083206001600160a01b0386168085529252808320805460ff1916905551339286917ff6391f5c32d9c69d2a47ea670b442974b53935d1edc7fd64eb21e047a839171b9190a450600161031f565b610b5e828261082c565b610b8d5760405163e2517d3f60e01b81526001600160a01b038216600482015260248101839052604401610433565b5050565b600060208284031215610ba357600080fd5b5035919050565b634e487b7160e01b600052602160045260246000fd5b60058110610bde57634e487b7160e01b600052602160045260246000fd5b9052565b60e08101610bf0828a610bc0565b60208201979097526001600160a01b0395909516604086015260608501939093526001600160e81b031991909116608084015260a083015260c090910152919050565b600060208284031215610c4557600080fd5b81356001600160e01b031981168114610c5d57600080fd5b9392505050565b80356001600160a01b0381168114610c7b57600080fd5b919050565b60008060408385031215610c9357600080fd5b82359150610ca360208401610c64565b90509250929050565b6020810161031f8284610bc0565b600080600080600060a08688031215610cd257600080fd5b8535945060208601359350610ce960408701610c64565b92506060860135915060808601356001600160e81b031981168114610d0d57600080fd5b809150509295509295909350565b600060e082019050610d2e828451610bc0565b6020830151602083015260018060a01b0360408401511660408301526060830151606083015262ffffff60e81b608084015116608083015260a083015160a083015260c083015160c083015292915050565b60008060408385031215610d9357600080fd5b50508035926020909101359150565b60208082526022908201527f536574746c656d656e7452656769737472793a20696e76616c69642073746174604082015261757360f01b606082015260800190565b9485526001600160a01b0393909316602085015260408401919091526001600160e81b0319166060830152608082015260a0019056fe97667070c54ef182b0f5858b034beac1b6f3089aa2d3188bb1e8929f4fa9b929a264697066735822122052bca7f60ae16fcf9a8b6b28eef69b4864afb3030c9b881a9362b83c9065251264736f6c63430008140033","opcodes":"PUSH1 0x80 PUSH1 0x40 MSTORE CALLVALUE DUP1 ISZERO PUSH2 0x10 JUMPI PUSH1 0x0 DUP1 REVERT JUMPDEST POP PUSH1 0x40 MLOAD PUSH2 0x102B CODESIZE SUB DUP1 PUSH2 0x102B DUP4 CODECOPY DUP2 ADD PUSH1 0x40 DUP2 SWAP1 MSTORE PUSH2 0x2F SWAP2 PUSH2 0x17C JUMP JUMPDEST PUSH1 0x1 PUSH1 0x1 PUSH1 0xA0 SHL SUB DUP2 AND PUSH2 0x93 JUMPI PUSH1 0x40 MLOAD PUSH3 0x461BCD PUSH1 0xE5 SHL DUP2 MSTORE PUSH1 0x20 PUSH1 0x4 DUP3 ADD MSTORE PUSH1 0x21 PUSH1 0x24 DUP3 ADD MSTORE PUSH32 0x536574746C656D656E7452656769737472793A2061646D696E206973207A6572 PUSH1 0x44 DUP3 ADD MSTORE PUSH1 0x6F PUSH1 0xF8 SHL PUSH1 0x64 DUP3 ADD MSTORE PUSH1 0x84 ADD PUSH1 0x40 MLOAD DUP1 SWAP2 SUB SWAP1 REVERT JUMPDEST PUSH2 0x9E PUSH1 0x0 DUP3 PUSH2 0xD0 JUMP JUMPDEST POP PUSH2 0xC9 PUSH32 0x97667070C54EF182B0F5858B034BEAC1B6F3089AA2D3188BB1E8929F4FA9B929 DUP3 PUSH2 0xD0 JUMP JUMPDEST POP POP PUSH2 0x1AC JUMP JUMPDEST PUSH1 0x0 DUP3 DUP2 MSTORE PUSH1 0x20 DUP2 DUP2 MSTORE PUSH1 0x40 DUP1 DUP4 KECCAK256 PUSH1 0x1 PUSH1 0x1 PUSH1 0xA0 SHL SUB DUP6 AND DUP5 MSTORE SWAP1 SWAP2 MSTORE DUP2 KECCAK256 SLOAD PUSH1 0xFF AND PUSH2 0x172 JUMPI PUSH1 0x0 DUP4 DUP2 MSTORE PUSH1 0x20 DUP2 DUP2 MSTORE PUSH1 0x40 DUP1 DUP4 KECCAK256 PUSH1 0x1 PUSH1 0x1 PUSH1 0xA0 SHL SUB DUP7 AND DUP5 MSTORE SWAP1 SWAP2 MSTORE SWAP1 KECCAK256 DUP1 SLOAD PUSH1 0xFF NOT AND PUSH1 0x1 OR SWAP1 SSTORE PUSH2 0x12A CALLER SWAP1 JUMP JUMPDEST PUSH1 0x1 PUSH1 0x1 PUSH1 0xA0 SHL SUB AND DUP3 PUSH1 0x1 PUSH1 0x1 PUSH1 0xA0 SHL SUB AND DUP5 PUSH32 0x2F8788117E7EFF1D82E926EC794901D17C78024A50270940304540A733656F0D PUSH1 0x40 MLOAD PUSH1 0x40 MLOAD DUP1 SWAP2 SUB SWAP1 LOG4 POP PUSH1 0x1 PUSH2 0x176 JUMP JUMPDEST POP PUSH1 0x0 JUMPDEST SWAP3 SWAP2 POP POP JUMP JUMPDEST PUSH1 0x0 PUSH1 0x20 DUP3 DUP5 SUB SLT ISZERO PUSH2 0x18E JUMPI PUSH1 0x0 DUP1 REVERT JUMPDEST DUP2 MLOAD PUSH1 0x1 PUSH1 0x1 PUSH1 0xA0 SHL SUB DUP2 AND DUP2 EQ PUSH2 0x1A5 JUMPI PUSH1 0x0 DUP1 REVERT JUMPDEST SWAP4 SWAP3 POP POP POP JUMP JUMPDEST PUSH2 0xE70 DUP1 PUSH2 0x1BB PUSH1 0x0 CODECOPY PUSH1 0x0 RETURN INVALID PUSH1 0x80 PUSH1 0x40 MSTORE CALLVALUE DUP1 ISZERO PUSH2 0x10 JUMPI PUSH1 0x0 DUP1 REVERT JUMPDEST POP PUSH1 0x4 CALLDATASIZE LT PUSH2 0x100 JUMPI PUSH1 0x0 CALLDATALOAD PUSH1 0xE0 SHR DUP1 PUSH4 0x815533BD GT PUSH2 0x97 JUMPI DUP1 PUSH4 0xC3E6ACE0 GT PUSH2 0x66 JUMPI DUP1 PUSH4 0xC3E6ACE0 EQ PUSH2 0x293 JUMPI DUP1 PUSH4 0xD547741F EQ PUSH2 0x2B3 JUMPI DUP1 PUSH4 0xD6235ACF EQ PUSH2 0x2C6 JUMPI DUP1 PUSH4 0xF5B541A6 EQ PUSH2 0x2D9 JUMPI PUSH1 0x0 DUP1 REVERT JUMPDEST DUP1 PUSH4 0x815533BD EQ PUSH2 0x252 JUMPI DUP1 PUSH4 0x890091DE EQ PUSH2 0x265 JUMPI DUP1 PUSH4 0x91D14854 EQ PUSH2 0x278 JUMPI DUP1 PUSH4 0xA217FDDF EQ PUSH2 0x28B JUMPI PUSH1 0x0 DUP1 REVERT JUMPDEST DUP1 PUSH4 0x36568ABE GT PUSH2 0xD3 JUMPI DUP1 PUSH4 0x36568ABE EQ PUSH2 0x1E9 JUMPI DUP1 PUSH4 0x38A699A4 EQ PUSH2 0x1FC JUMPI DUP1 PUSH4 0x480BCC92 EQ PUSH2 0x20F JUMPI DUP1 PUSH4 0x5DE28AE0 EQ PUSH2 0x222 JUMPI PUSH1 0x0 DUP1 REVERT JUMPDEST DUP1 PUSH4 0x1BC95E2 EQ PUSH2 0x105 JUMPI DUP1 PUSH4 0x1FFC9A7 EQ PUSH2 0x180 JUMPI DUP1 PUSH4 0x248A9CA3 EQ PUSH2 0x1A3 JUMPI DUP1 PUSH4 0x2F2FF15D EQ PUSH2 0x1D4 JUMPI JUMPDEST PUSH1 0x0 DUP1 REVERT JUMPDEST PUSH2 0x164 PUSH2 0x113 CALLDATASIZE PUSH1 0x4 PUSH2 0xB91 JUMP JUMPDEST PUSH1 0x1 PUSH1 0x20 DUP2 SWAP1 MSTORE PUSH1 0x0 SWAP2 DUP3 MSTORE PUSH1 0x40 SWAP1 SWAP2 KECCAK256 DUP1 SLOAD SWAP2 DUP2 ADD SLOAD PUSH1 0x2 DUP3 ADD SLOAD PUSH1 0x3 DUP4 ADD SLOAD PUSH1 0x4 DUP5 ADD SLOAD PUSH1 0x5 DUP6 ADD SLOAD PUSH1 0x6 SWAP1 SWAP6 ADD SLOAD PUSH1 0xFF SWAP1 SWAP7 AND SWAP6 SWAP4 SWAP5 PUSH1 0x1 PUSH1 0x1 PUSH1 0xA0 SHL SUB SWAP1 SWAP4 AND SWAP4 SWAP2 SWAP3 PUSH1 0xE8 SWAP2 SWAP1 SWAP2 SHL SWAP2 DUP8 JUMP JUMPDEST PUSH1 0x40 MLOAD PUSH2 0x177 SWAP8 SWAP7 SWAP6 SWAP5 SWAP4 SWAP3 SWAP2 SWAP1 PUSH2 0xBE2 JUMP JUMPDEST PUSH1 0x40 MLOAD DUP1 SWAP2 SUB SWAP1 RETURN JUMPDEST PUSH2 0x193 PUSH2 0x18E CALLDATASIZE PUSH1 0x4 PUSH2 0xC33 JUMP JUMPDEST PUSH2 0x2EE JUMP JUMPDEST PUSH1 0x40 MLOAD SWAP1 ISZERO ISZERO DUP2 MSTORE PUSH1 0x20 ADD PUSH2 0x177 JUMP JUMPDEST PUSH2 0x1C6 PUSH2 0x1B1 CALLDATASIZE PUSH1 0x4 PUSH2 0xB91 JUMP JUMPDEST PUSH1 0x0 SWAP1 DUP2 MSTORE PUSH1 0x20 DUP2 SWAP1 MSTORE PUSH1 0x40 SWAP1 KECCAK256 PUSH1 0x1 ADD SLOAD SWAP1 JUMP JUMPDEST PUSH1 0x40 MLOAD SWAP1 DUP2 MSTORE PUSH1 0x20 ADD PUSH2 0x177 JUMP JUMPDEST PUSH2 0x1E7 PUSH2 0x1E2 CALLDATASIZE PUSH1 0x4 PUSH2 0xC80 JUMP JUMPDEST PUSH2 0x325 JUMP JUMPDEST STOP JUMPDEST PUSH2 0x1E7 PUSH2 0x1F7 CALLDATASIZE PUSH1 0x4 PUSH2 0xC80 JUMP JUMPDEST PUSH2 0x350 JUMP JUMPDEST PUSH2 0x193 PUSH2 0x20A CALLDATASIZE PUSH1 0x4 PUSH2 0xB91 JUMP JUMPDEST PUSH2 0x388 JUMP JUMPDEST PUSH2 0x1E7 PUSH2 0x21D CALLDATASIZE PUSH1 0x4 PUSH2 0xB91 JUMP JUMPDEST PUSH2 0x3B6 JUMP JUMPDEST PUSH2 0x245 PUSH2 0x230 CALLDATASIZE PUSH1 0x4 PUSH2 0xB91 JUMP JUMPDEST PUSH1 0x0 SWAP1 DUP2 MSTORE PUSH1 0x1 PUSH1 0x20 MSTORE PUSH1 0x40 SWAP1 KECCAK256 SLOAD PUSH1 0xFF AND SWAP1 JUMP JUMPDEST PUSH1 0x40 MLOAD PUSH2 0x177 SWAP2 SWAP1 PUSH2 0xCAC JUMP JUMPDEST PUSH2 0x1E7 PUSH2 0x260 CALLDATASIZE PUSH1 0x4 PUSH2 0xCBA JUMP JUMPDEST PUSH2 0x4D1 JUMP JUMPDEST PUSH2 0x1E7 PUSH2 0x273 CALLDATASIZE PUSH1 0x4 PUSH2 0xB91 JUMP JUMPDEST PUSH2 0x7B3 JUMP JUMPDEST PUSH2 0x193 PUSH2 0x286 CALLDATASIZE PUSH1 0x4 PUSH2 0xC80 JUMP JUMPDEST PUSH2 0x82C JUMP JUMPDEST PUSH2 0x1C6 PUSH1 0x0 DUP2 JUMP JUMPDEST PUSH2 0x2A6 PUSH2 0x2A1 CALLDATASIZE PUSH1 0x4 PUSH2 0xB91 JUMP JUMPDEST PUSH2 0x855 JUMP JUMPDEST PUSH1 0x40 MLOAD PUSH2 0x177 SWAP2 SWAP1 PUSH2 0xD1B JUMP JUMPDEST PUSH2 0x1E7 PUSH2 0x2C1 CALLDATASIZE PUSH1 0x4 PUSH2 0xC80 JUMP JUMPDEST PUSH2 0x92C JUMP JUMPDEST PUSH2 0x1E7 PUSH2 0x2D4 CALLDATASIZE PUSH1 0x4 PUSH2 0xD80 JUMP JUMPDEST PUSH2 0x951 JUMP JUMPDEST PUSH2 0x1C6 PUSH1 0x0 DUP1 MLOAD PUSH1 0x20 PUSH2 0xE1B DUP4 CODECOPY DUP2 MLOAD SWAP2 MSTORE DUP2 JUMP JUMPDEST PUSH1 0x0 PUSH1 0x1 PUSH1 0x1 PUSH1 0xE0 SHL SUB NOT DUP3 AND PUSH4 0x7965DB0B PUSH1 0xE0 SHL EQ DUP1 PUSH2 0x31F JUMPI POP PUSH4 0x1FFC9A7 PUSH1 0xE0 SHL PUSH1 0x1 PUSH1 0x1 PUSH1 0xE0 SHL SUB NOT DUP4 AND EQ JUMPDEST SWAP3 SWAP2 POP POP JUMP JUMPDEST PUSH1 0x0 DUP3 DUP2 MSTORE PUSH1 0x20 DUP2 SWAP1 MSTORE PUSH1 0x40 SWAP1 KECCAK256 PUSH1 0x1 ADD SLOAD PUSH2 0x340 DUP2 PUSH2 0xA4A JUMP JUMPDEST PUSH2 0x34A DUP4 DUP4 PUSH2 0xA57 JUMP JUMPDEST POP POP POP POP JUMP JUMPDEST PUSH1 0x1 PUSH1 0x1 PUSH1 0xA0 SHL SUB DUP2 AND CALLER EQ PUSH2 0x379 JUMPI PUSH1 0x40 MLOAD PUSH4 0x334BD919 PUSH1 0xE1 SHL DUP2 MSTORE PUSH1 0x4 ADD PUSH1 0x40 MLOAD DUP1 SWAP2 SUB SWAP1 REVERT JUMPDEST PUSH2 0x383 DUP3 DUP3 PUSH2 0xAE9 JUMP JUMPDEST POP POP POP JUMP JUMPDEST PUSH1 0x0 DUP1 PUSH1 0x0 DUP4 DUP2 MSTORE PUSH1 0x1 PUSH1 0x20 MSTORE PUSH1 0x40 SWAP1 KECCAK256 SLOAD PUSH1 0xFF AND PUSH1 0x4 DUP2 GT ISZERO PUSH2 0x3AE JUMPI PUSH2 0x3AE PUSH2 0xBAA JUMP JUMPDEST EQ ISZERO SWAP3 SWAP2 POP POP JUMP JUMPDEST PUSH1 0x0 DUP1 MLOAD PUSH1 0x20 PUSH2 0xE1B DUP4 CODECOPY DUP2 MLOAD SWAP2 MSTORE PUSH2 0x3CE DUP2 PUSH2 0xA4A JUMP JUMPDEST PUSH1 0x0 DUP3 DUP2 MSTORE PUSH1 0x1 PUSH1 0x20 DUP2 SWAP1 MSTORE PUSH1 0x40 SWAP1 SWAP2 KECCAK256 SWAP1 DUP2 SLOAD PUSH1 0xFF AND PUSH1 0x4 DUP2 GT ISZERO PUSH2 0x3F6 JUMPI PUSH2 0x3F6 PUSH2 0xBAA JUMP JUMPDEST EQ DUP1 PUSH2 0x417 JUMPI POP PUSH1 0x2 DUP2 SLOAD PUSH1 0xFF AND PUSH1 0x4 DUP2 GT ISZERO PUSH2 0x415 JUMPI PUSH2 0x415 PUSH2 0xBAA JUMP JUMPDEST EQ JUMPDEST PUSH2 0x43C JUMPI PUSH1 0x40 MLOAD PUSH3 0x461BCD PUSH1 0xE5 SHL DUP2 MSTORE PUSH1 0x4 ADD PUSH2 0x433 SWAP1 PUSH2 0xDA2 JUMP JUMPDEST PUSH1 0x40 MLOAD DUP1 SWAP2 SUB SWAP1 REVERT JUMPDEST DUP1 SLOAD PUSH1 0x4 PUSH1 0xFF NOT DUP3 AND DUP2 OR DUP4 SSTORE TIMESTAMP PUSH1 0x5 DUP5 ADD SSTORE PUSH1 0xFF SWAP1 SWAP2 AND SWAP1 JUMPDEST DUP2 PUSH1 0x4 DUP2 GT ISZERO PUSH2 0x468 JUMPI PUSH2 0x468 PUSH2 0xBAA JUMP JUMPDEST PUSH1 0x1 DUP5 ADD SLOAD PUSH1 0x2 DUP6 ADD SLOAD PUSH1 0x3 DUP7 ADD SLOAD PUSH1 0x4 DUP8 ADD SLOAD PUSH1 0x40 MLOAD DUP11 SWAP5 PUSH32 0x16C6E2A7B885E8732ED6C0077B7F2A0F66E657470AE8D55F3EBB21F97DA5F791 SWAP5 PUSH2 0x4C3 SWAP5 SWAP2 SWAP4 PUSH1 0x1 PUSH1 0x1 PUSH1 0xA0 SHL SUB SWAP1 SWAP2 AND SWAP3 PUSH1 0xE8 SWAP2 SWAP1 SWAP2 SHL SWAP1 TIMESTAMP SWAP1 PUSH2 0xDE4 JUMP JUMPDEST PUSH1 0x40 MLOAD DUP1 SWAP2 SUB SWAP1 LOG4 POP POP POP POP JUMP JUMPDEST PUSH1 0x0 DUP1 MLOAD PUSH1 0x20 PUSH2 0xE1B DUP4 CODECOPY DUP2 MLOAD SWAP2 MSTORE PUSH2 0x4E9 DUP2 PUSH2 0xA4A JUMP JUMPDEST PUSH1 0x0 DUP7 DUP2 MSTORE PUSH1 0x1 PUSH1 0x20 MSTORE PUSH1 0x40 DUP2 KECCAK256 SLOAD PUSH1 0xFF AND PUSH1 0x4 DUP2 GT ISZERO PUSH2 0x50C JUMPI PUSH2 0x50C PUSH2 0xBAA JUMP JUMPDEST EQ PUSH2 0x564 JUMPI PUSH1 0x40 MLOAD PUSH3 0x461BCD PUSH1 0xE5 SHL DUP2 MSTORE PUSH1 0x20 PUSH1 0x4 DUP3 ADD MSTORE PUSH1 0x22 PUSH1 0x24 DUP3 ADD MSTORE PUSH32 0x536574746C656D656E7452656769737472793A20616C72656164792065786973 PUSH1 0x44 DUP3 ADD MSTORE PUSH2 0x7473 PUSH1 0xF0 SHL PUSH1 0x64 DUP3 ADD MSTORE PUSH1 0x84 ADD PUSH2 0x433 JUMP JUMPDEST PUSH1 0x0 DUP6 GT PUSH2 0x5BF JUMPI PUSH1 0x40 MLOAD PUSH3 0x461BCD PUSH1 0xE5 SHL DUP2 MSTORE PUSH1 0x20 PUSH1 0x4 DUP3 ADD MSTORE PUSH1 0x22 PUSH1 0x24 DUP3 ADD MSTORE PUSH32 0x536574746C656D656E7452656769737472793A20616D6F756E74206973207A65 PUSH1 0x44 DUP3 ADD MSTORE PUSH2 0x726F PUSH1 0xF0 SHL PUSH1 0x64 DUP3 ADD MSTORE PUSH1 0x84 ADD PUSH2 0x433 JUMP JUMPDEST PUSH1 0x1 PUSH1 0x1 PUSH1 0xA0 SHL SUB DUP5 AND PUSH2 0x625 JUMPI PUSH1 0x40 MLOAD PUSH3 0x461BCD PUSH1 0xE5 SHL DUP2 MSTORE PUSH1 0x20 PUSH1 0x4 DUP3 ADD MSTORE PUSH1 0x27 PUSH1 0x24 DUP3 ADD MSTORE PUSH32 0x536574746C656D656E7452656769737472793A2062656E656669636961727920 PUSH1 0x44 DUP3 ADD MSTORE PUSH7 0x6973207A65726F PUSH1 0xC8 SHL PUSH1 0x64 DUP3 ADD MSTORE PUSH1 0x84 ADD PUSH2 0x433 JUMP JUMPDEST PUSH1 0x40 DUP1 MLOAD PUSH1 0xE0 DUP2 ADD DUP3 MSTORE PUSH1 0x1 DUP1 DUP3 MSTORE PUSH1 0x20 DUP1 DUP4 ADD DUP10 SWAP1 MSTORE PUSH1 0x1 PUSH1 0x1 PUSH1 0xA0 SHL SUB DUP9 AND DUP4 DUP6 ADD MSTORE PUSH1 0x60 DUP4 ADD DUP8 SWAP1 MSTORE PUSH1 0x1 PUSH1 0x1 PUSH1 0xE8 SHL SUB NOT DUP7 AND PUSH1 0x80 DUP5 ADD MSTORE TIMESTAMP PUSH1 0xA0 DUP5 ADD MSTORE PUSH1 0x0 PUSH1 0xC0 DUP5 ADD DUP2 SWAP1 MSTORE DUP11 DUP2 MSTORE SWAP1 DUP3 SWAP1 MSTORE SWAP3 SWAP1 SWAP3 KECCAK256 DUP2 MLOAD DUP2 SLOAD SWAP3 SWAP4 SWAP2 SWAP3 SWAP1 SWAP2 DUP4 SWAP2 PUSH1 0xFF NOT AND SWAP1 DUP4 PUSH1 0x4 DUP2 GT ISZERO PUSH2 0x69E JUMPI PUSH2 0x69E PUSH2 0xBAA JUMP JUMPDEST MUL OR SWAP1 SSTORE POP PUSH1 0x20 DUP3 DUP2 ADD MLOAD PUSH1 0x1 DUP4 ADD SSTORE PUSH1 0x40 DUP1 DUP5 ADD MLOAD PUSH1 0x2 DUP5 ADD DUP1 SLOAD PUSH1 0x1 PUSH1 0x1 PUSH1 0xA0 SHL SUB NOT AND PUSH1 0x1 PUSH1 0x1 PUSH1 0xA0 SHL SUB SWAP3 DUP4 AND OR SWAP1 SSTORE PUSH1 0x60 DUP1 DUP7 ADD MLOAD PUSH1 0x3 DUP7 ADD SSTORE PUSH1 0x80 DUP1 DUP8 ADD MLOAD PUSH1 0x4 DUP8 ADD DUP1 SLOAD PUSH3 0xFFFFFF NOT AND PUSH1 0xE8 SWAP3 SWAP1 SWAP3 SHR SWAP2 SWAP1 SWAP2 OR SWAP1 SSTORE PUSH1 0xA0 DUP8 ADD MLOAD PUSH1 0x5 DUP8 ADD SSTORE PUSH1 0xC0 SWAP1 SWAP7 ADD MLOAD PUSH1 0x6 SWAP1 SWAP6 ADD SWAP5 SWAP1 SWAP5 SSTORE DUP2 MLOAD DUP11 DUP2 MSTORE SWAP1 DUP10 AND SWAP3 DUP2 ADD SWAP3 SWAP1 SWAP3 MSTORE DUP2 ADD DUP7 SWAP1 MSTORE PUSH1 0x1 PUSH1 0x1 PUSH1 0xE8 SHL SUB NOT DUP6 AND SWAP2 DUP2 ADD SWAP2 SWAP1 SWAP2 MSTORE DUP8 SWAP2 PUSH32 0x162A04CE43E6117F6DA611BFA15F6370654DB0A89BA273781EC6C78B99059E04 SWAP2 ADD PUSH1 0x40 MLOAD DUP1 SWAP2 SUB SWAP1 LOG2 PUSH1 0x1 PUSH1 0x0 DUP8 PUSH32 0x16C6E2A7B885E8732ED6C0077B7F2A0F66E657470AE8D55F3EBB21F97DA5F791 DUP9 DUP9 DUP9 DUP9 TIMESTAMP PUSH1 0x40 MLOAD PUSH2 0x7A3 SWAP6 SWAP5 SWAP4 SWAP3 SWAP2 SWAP1 PUSH2 0xDE4 JUMP JUMPDEST PUSH1 0x40 MLOAD DUP1 SWAP2 SUB SWAP1 LOG4 POP POP POP POP POP POP JUMP JUMPDEST PUSH1 0x0 DUP1 MLOAD PUSH1 0x20 PUSH2 0xE1B DUP4 CODECOPY DUP2 MLOAD SWAP2 MSTORE PUSH2 0x7CB DUP2 PUSH2 0xA4A JUMP JUMPDEST PUSH1 0x0 DUP3 DUP2 MSTORE PUSH1 0x1 PUSH1 0x20 MSTORE PUSH1 0x40 SWAP1 KECCAK256 PUSH1 0x2 DUP2 SLOAD PUSH1 0xFF AND PUSH1 0x4 DUP2 GT ISZERO PUSH2 0x7F1 JUMPI PUSH2 0x7F1 PUSH2 0xBAA JUMP JUMPDEST EQ PUSH2 0x80E JUMPI PUSH1 0x40 MLOAD PUSH3 0x461BCD PUSH1 0xE5 SHL DUP2 MSTORE PUSH1 0x4 ADD PUSH2 0x433 SWAP1 PUSH2 0xDA2 JUMP JUMPDEST DUP1 SLOAD PUSH1 0x3 PUSH1 0xFF NOT DUP3 AND DUP2 OR DUP4 SSTORE TIMESTAMP PUSH1 0x5 DUP5 ADD SSTORE PUSH1 0xFF SWAP1 SWAP2 AND SWAP1 PUSH2 0x456 JUMP JUMPDEST PUSH1 0x0 SWAP2 DUP3 MSTORE PUSH1 0x20 DUP3 DUP2 MSTORE PUSH1 0x40 DUP1 DUP5 KECCAK256 PUSH1 0x1 PUSH1 0x1 PUSH1 0xA0 SHL SUB SWAP4 SWAP1 SWAP4 AND DUP5 MSTORE SWAP2 SWAP1 MSTORE SWAP1 KECCAK256 SLOAD PUSH1 0xFF AND SWAP1 JUMP JUMPDEST PUSH1 0x40 DUP1 MLOAD PUSH1 0xE0 DUP2 ADD DUP3 MSTORE PUSH1 0x0 DUP1 DUP3 MSTORE PUSH1 0x20 DUP3 ADD DUP2 SWAP1 MSTORE SWAP2 DUP2 ADD DUP3 SWAP1 MSTORE PUSH1 0x60 DUP2 ADD DUP3 SWAP1 MSTORE PUSH1 0x80 DUP2 ADD DUP3 SWAP1 MSTORE PUSH1 0xA0 DUP2 ADD DUP3 SWAP1 MSTORE PUSH1 0xC0 DUP2 ADD SWAP2 SWAP1 SWAP2 MSTORE PUSH1 0x0 DUP3 DUP2 MSTORE PUSH1 0x1 PUSH1 0x20 MSTORE PUSH1 0x40 SWAP1 DUP2 SWAP1 KECCAK256 DUP2 MLOAD PUSH1 0xE0 DUP2 ADD SWAP1 SWAP3 MSTORE DUP1 SLOAD DUP3 SWAP1 PUSH1 0xFF AND PUSH1 0x4 DUP2 GT ISZERO PUSH2 0x8BF JUMPI PUSH2 0x8BF PUSH2 0xBAA JUMP JUMPDEST PUSH1 0x4 DUP2 GT ISZERO PUSH2 0x8D0 JUMPI PUSH2 0x8D0 PUSH2 0xBAA JUMP JUMPDEST DUP2 MSTORE PUSH1 0x1 DUP3 ADD SLOAD PUSH1 0x20 DUP3 ADD MSTORE PUSH1 0x2 DUP3 ADD SLOAD PUSH1 0x1 PUSH1 0x1 PUSH1 0xA0 SHL SUB AND PUSH1 0x40 DUP3 ADD MSTORE PUSH1 0x3 DUP3 ADD SLOAD PUSH1 0x60 DUP3 ADD MSTORE PUSH1 0x4 DUP3 ADD SLOAD PUSH1 0xE8 SHL PUSH1 0x1 PUSH1 0x1 PUSH1 0xE8 SHL SUB NOT AND PUSH1 0x80 DUP3 ADD MSTORE PUSH1 0x5 DUP3 ADD SLOAD PUSH1 0xA0 DUP3 ADD MSTORE PUSH1 0x6 SWAP1 SWAP2 ADD SLOAD PUSH1 0xC0 SWAP1 SWAP2 ADD MSTORE SWAP3 SWAP2 POP POP JUMP JUMPDEST PUSH1 0x0 DUP3 DUP2 MSTORE PUSH1 0x20 DUP2 SWAP1 MSTORE PUSH1 0x40 SWAP1 KECCAK256 PUSH1 0x1 ADD SLOAD PUSH2 0x947 DUP2 PUSH2 0xA4A JUMP JUMPDEST PUSH2 0x34A DUP4 DUP4 PUSH2 0xAE9 JUMP JUMPDEST PUSH1 0x0 DUP1 MLOAD PUSH1 0x20 PUSH2 0xE1B DUP4 CODECOPY DUP2 MLOAD SWAP2 MSTORE PUSH2 0x969 DUP2 PUSH2 0xA4A JUMP JUMPDEST PUSH1 0x0 DUP4 DUP2 MSTORE PUSH1 0x1 PUSH1 0x20 DUP2 SWAP1 MSTORE PUSH1 0x40 SWAP1 SWAP2 KECCAK256 SWAP1 DUP2 SLOAD PUSH1 0xFF AND PUSH1 0x4 DUP2 GT ISZERO PUSH2 0x991 JUMPI PUSH2 0x991 PUSH2 0xBAA JUMP JUMPDEST EQ PUSH2 0x9AE JUMPI PUSH1 0x40 MLOAD PUSH3 0x461BCD PUSH1 0xE5 SHL DUP2 MSTORE PUSH1 0x4 ADD PUSH2 0x433 SWAP1 PUSH2 0xDA2 JUMP JUMPDEST DUP1 SLOAD PUSH1 0x2 PUSH1 0xFF NOT DUP3 AND DUP2 OR DUP4 SSTORE PUSH1 0x6 DUP4 ADD DUP6 SWAP1 SSTORE TIMESTAMP PUSH1 0x5 DUP5 ADD SSTORE PUSH1 0xFF SWAP1 SWAP2 AND SWAP1 DUP2 PUSH1 0x4 DUP2 GT ISZERO PUSH2 0x9E0 JUMPI PUSH2 0x9E0 PUSH2 0xBAA JUMP JUMPDEST PUSH1 0x1 DUP5 ADD SLOAD PUSH1 0x2 DUP6 ADD SLOAD PUSH1 0x3 DUP7 ADD SLOAD PUSH1 0x4 DUP8 ADD SLOAD PUSH1 0x40 MLOAD DUP12 SWAP5 PUSH32 0x16C6E2A7B885E8732ED6C0077B7F2A0F66E657470AE8D55F3EBB21F97DA5F791 SWAP5 PUSH2 0xA3B SWAP5 SWAP2 SWAP4 PUSH1 0x1 PUSH1 0x1 PUSH1 0xA0 SHL SUB SWAP1 SWAP2 AND SWAP3 PUSH1 0xE8 SWAP2 SWAP1 SWAP2 SHL SWAP1 TIMESTAMP SWAP1 PUSH2 0xDE4 JUMP JUMPDEST PUSH1 0x40 MLOAD DUP1 SWAP2 SUB SWAP1 LOG4 POP POP POP POP POP JUMP JUMPDEST PUSH2 0xA54 DUP2 CALLER PUSH2 0xB54 JUMP JUMPDEST POP JUMP JUMPDEST PUSH1 0x0 PUSH2 0xA63 DUP4 DUP4 PUSH2 0x82C JUMP JUMPDEST PUSH2 0xAE1 JUMPI PUSH1 0x0 DUP4 DUP2 MSTORE PUSH1 0x20 DUP2 DUP2 MSTORE PUSH1 0x40 DUP1 DUP4 KECCAK256 PUSH1 0x1 PUSH1 0x1 PUSH1 0xA0 SHL SUB DUP7 AND DUP5 MSTORE SWAP1 SWAP2 MSTORE SWAP1 KECCAK256 DUP1 SLOAD PUSH1 0xFF NOT AND PUSH1 0x1 OR SWAP1 SSTORE PUSH2 0xA99 CALLER SWAP1 JUMP JUMPDEST PUSH1 0x1 PUSH1 0x1 PUSH1 0xA0 SHL SUB AND DUP3 PUSH1 0x1 PUSH1 0x1 PUSH1 0xA0 SHL SUB AND DUP5 PUSH32 0x2F8788117E7EFF1D82E926EC794901D17C78024A50270940304540A733656F0D PUSH1 0x40 MLOAD PUSH1 0x40 MLOAD DUP1 SWAP2 SUB SWAP1 LOG4 POP PUSH1 0x1 PUSH2 0x31F JUMP JUMPDEST POP PUSH1 0x0 PUSH2 0x31F JUMP JUMPDEST PUSH1 0x0 PUSH2 0xAF5 DUP4 DUP4 PUSH2 0x82C JUMP JUMPDEST ISZERO PUSH2 0xAE1 JUMPI PUSH1 0x0 DUP4 DUP2 MSTORE PUSH1 0x20 DUP2 DUP2 MSTORE PUSH1 0x40 DUP1 DUP4 KECCAK256 PUSH1 0x1 PUSH1 0x1 PUSH1 0xA0 SHL SUB DUP7 AND DUP1 DUP6 MSTORE SWAP3 MSTORE DUP1 DUP4 KECCAK256 DUP1 SLOAD PUSH1 0xFF NOT AND SWAP1 SSTORE MLOAD CALLER SWAP3 DUP7 SWAP2 PUSH32 0xF6391F5C32D9C69D2A47EA670B442974B53935D1EDC7FD64EB21E047A839171B SWAP2 SWAP1 LOG4 POP PUSH1 0x1 PUSH2 0x31F JUMP JUMPDEST PUSH2 0xB5E DUP3 DUP3 PUSH2 0x82C JUMP JUMPDEST PUSH2 0xB8D JUMPI PUSH1 0x40 MLOAD PUSH4 0xE2517D3F PUSH1 0xE0 SHL DUP2 MSTORE PUSH1 0x1 PUSH1 0x1 PUSH1 0xA0 SHL SUB DUP3 AND PUSH1 0x4 DUP3 ADD MSTORE PUSH1 0x24 DUP2 ADD DUP4 SWAP1 MSTORE PUSH1 0x44 ADD PUSH2 0x433 JUMP JUMPDEST POP POP JUMP JUMPDEST PUSH1 0x0 PUSH1 0x20 DUP3 DUP5 SUB SLT ISZERO PUSH2 0xBA3 JUMPI PUSH1 0x0 DUP1 REVERT JUMPDEST POP CALLDATALOAD SWAP2 SWAP1 POP JUMP JUMPDEST PUSH4 0x4E487B71 PUSH1 0xE0 SHL PUSH1 0x0 MSTORE PUSH1 0x21 PUSH1 0x4 MSTORE PUSH1 0x24 PUSH1 0x0 REVERT JUMPDEST PUSH1 0x5 DUP2 LT PUSH2 0xBDE JUMPI PUSH4 0x4E487B71 PUSH1 0xE0 SHL PUSH1 0x0 MSTORE PUSH1 0x21 PUSH1 0x4 MSTORE PUSH1 0x24 PUSH1 0x0 REVERT JUMPDEST SWAP1 MSTORE JUMP JUMPDEST PUSH1 0xE0 DUP2 ADD PUSH2 0xBF0 DUP3 DUP11 PUSH2 0xBC0 JUMP JUMPDEST PUSH1 0x20 DUP3 ADD SWAP8 SWAP1 SWAP8 MSTORE PUSH1 0x1 PUSH1 0x1 PUSH1 0xA0 SHL SUB SWAP6 SWAP1 SWAP6 AND PUSH1 0x40 DUP7 ADD MSTORE PUSH1 0x60 DUP6 ADD SWAP4 SWAP1 SWAP4 MSTORE PUSH1 0x1 PUSH1 0x1 PUSH1 0xE8 SHL SUB NOT SWAP2 SWAP1 SWAP2 AND PUSH1 0x80 DUP5 ADD MSTORE PUSH1 0xA0 DUP4 ADD MSTORE PUSH1 0xC0 SWAP1 SWAP2 ADD MSTORE SWAP2 SWAP1 POP JUMP JUMPDEST PUSH1 0x0 PUSH1 0x20 DUP3 DUP5 SUB SLT ISZERO PUSH2 0xC45 JUMPI PUSH1 0x0 DUP1 REVERT JUMPDEST DUP2 CALLDATALOAD PUSH1 0x1 PUSH1 0x1 PUSH1 0xE0 SHL SUB NOT DUP2 AND DUP2 EQ PUSH2 0xC5D JUMPI PUSH1 0x0 DUP1 REVERT JUMPDEST SWAP4 SWAP3 POP POP POP JUMP JUMPDEST DUP1 CALLDATALOAD PUSH1 0x1 PUSH1 0x1 PUSH1 0xA0 SHL SUB DUP2 AND DUP2 EQ PUSH2 0xC7B JUMPI PUSH1 0x0 DUP1 REVERT JUMPDEST SWAP2 SWAP1 POP JUMP JUMPDEST PUSH1 0x0 DUP1 PUSH1 0x40 DUP4 DUP6 SUB SLT ISZERO PUSH2 0xC93 JUMPI PUSH1 0x0 DUP1 REVERT JUMPDEST DUP3 CALLDATALOAD SWAP2 POP PUSH2 0xCA3 PUSH1 0x20 DUP5 ADD PUSH2 0xC64 JUMP JUMPDEST SWAP1 POP SWAP3 POP SWAP3 SWAP1 POP JUMP JUMPDEST PUSH1 0x20 DUP2 ADD PUSH2 0x31F DUP3 DUP5 PUSH2 0xBC0 JUMP JUMPDEST PUSH1 0x0 DUP1 PUSH1 0x0 DUP1 PUSH1 0x0 PUSH1 0xA0 DUP7 DUP9 SUB SLT ISZERO PUSH2 0xCD2 JUMPI PUSH1 0x0 DUP1 REVERT JUMPDEST DUP6 CALLDATALOAD SWAP5 POP PUSH1 0x20 DUP7 ADD CALLDATALOAD SWAP4 POP PUSH2 0xCE9 PUSH1 0x40 DUP8 ADD PUSH2 0xC64 JUMP JUMPDEST SWAP3 POP PUSH1 0x60 DUP7 ADD CALLDATALOAD SWAP2 POP PUSH1 0x80 DUP7 ADD CALLDATALOAD PUSH1 0x1 PUSH1 0x1 PUSH1 0xE8 SHL SUB NOT DUP2 AND DUP2 EQ PUSH2 0xD0D JUMPI PUSH1 0x0 DUP1 REVERT JUMPDEST DUP1 SWAP2 POP POP SWAP3 SWAP6 POP SWAP3 SWAP6 SWAP1 SWAP4 POP JUMP JUMPDEST PUSH1 0x0 PUSH1 0xE0 DUP3 ADD SWAP1 POP PUSH2 0xD2E DUP3 DUP5 MLOAD PUSH2 0xBC0 JUMP JUMPDEST PUSH1 0x20 DUP4 ADD MLOAD PUSH1 0x20 DUP4 ADD MSTORE PUSH1 0x1 DUP1 PUSH1 0xA0 SHL SUB PUSH1 0x40 DUP5 ADD MLOAD AND PUSH1 0x40 DUP4 ADD MSTORE PUSH1 0x60 DUP4 ADD MLOAD PUSH1 0x60 DUP4 ADD MSTORE PUSH3 0xFFFFFF PUSH1 0xE8 SHL PUSH1 0x80 DUP5 ADD MLOAD AND PUSH1 0x80 DUP4 ADD MSTORE PUSH1 0xA0 DUP4 ADD MLOAD PUSH1 0xA0 DUP4 ADD MSTORE PUSH1 0xC0 DUP4 ADD MLOAD PUSH1 0xC0 DUP4 ADD MSTORE SWAP3 SWAP2 POP POP JUMP JUMPDEST PUSH1 0x0 DUP1 PUSH1 0x40 DUP4 DUP6 SUB SLT ISZERO PUSH2 0xD93 JUMPI PUSH1 0x0 DUP1 REVERT JUMPDEST POP POP DUP1 CALLDATALOAD SWAP3 PUSH1 0x20 SWAP1 SWAP2 ADD CALLDATALOAD SWAP2 POP JUMP JUMPDEST PUSH1 0x20 DUP1 DUP3 MSTORE PUSH1 0x22 SWAP1 DUP3 ADD MSTORE PUSH32 0x536574746C656D656E7452656769737472793A20696E76616C69642073746174 PUSH1 0x40 DUP3 ADD MSTORE PUSH2 0x7573 PUSH1 0xF0 SHL PUSH1 0x60 DUP3 ADD MSTORE PUSH1 0x80 ADD SWAP1 JUMP JUMPDEST SWAP5 DUP6 MSTORE PUSH1 0x1 PUSH1 0x1 PUSH1 0xA0 SHL SUB SWAP4 SWAP1 SWAP4 AND PUSH1 0x20 DUP6 ADD MSTORE PUSH1 0x40 DUP5 ADD SWAP2 SWAP1 SWAP2 MSTORE PUSH1 0x1 PUSH1 0x1 PUSH1 0xE8 SHL SUB NOT AND PUSH1 0x60 DUP4 ADD MSTORE PUSH1 0x80 DUP3 ADD MSTORE PUSH1 0xA0 ADD SWAP1 JUMP INVALID SWAP8 PUSH7 0x7070C54EF182B0 CREATE2 DUP6 DUP12 SUB 0x4B 0xEA 0xC1 0xB6 RETURN ADDMOD SWAP11 LOG2 0xD3 XOR DUP12 0xB1 0xE8 SWAP3 SWAP16 0x4F 0xA9 0xB9 0x29 LOG2 PUSH5 0x6970667358 0x22 SLT KECCAK256 MSTORE 0xBC 0xA7 0xF6 EXP 0xE1 PUSH16 0xCF9A8B6B28EEF69B4864AFB3030C9B88 BYTE SWAP4 PUSH3 0xB83C90 PUSH6 0x251264736F6C PUSH4 0x43000814 STOP CALLER "},"methodIdentifiers":{"DEFAULT_ADMIN_ROLE()":"a217fddf","OPERATOR_ROLE()":"f5b541a6","createSettlement(bytes32,uint256,address,bytes32,bytes3)":"815533bd","exists(bytes32)":"38a699a4","getRoleAdmin(bytes32)":"248a9ca3","getSettlement(bytes32)":"c3e6ace0","getStatus(bytes32)":"5de28ae0","grantRole(bytes32,address)":"2f2ff15d","hasRole(bytes32,address)":"91d14854","renounceRole(bytes32,address)":"36568abe","revokeRole(bytes32,address)":"d547741f","setDelivered(bytes32)":"890091de","setFailed(bytes32)":"480bcc92","setMinted(bytes32,bytes32)":"d6235acf","settlements(bytes32)":"01bc95e2","supportsInterface(bytes4)":"01ffc9a7"}}}}}