{
  "_format": "hh3-artifact-1",
  "contractName": "LUSDMinting",
  "sourceName": "contracts/DCBTreasury/v3/LUSDMinting.sol",
  "abi": [
    {
      "inputs": [
        {
          "internalType": "address",
          "name": "_admin",
          "type": "address"
        },
        {
          "internalType": "address",
          "name": "_usdContract",
          "type": "address"
        },
        {
          "internalType": "address",
          "name": "_locksTreasuryContract",
          "type": "address"
        }
      ],
      "stateMutability": "nonpayable",
      "type": "constructor"
    },
    {
      "inputs": [],
      "name": "AccessControlBadConfirmation",
      "type": "error"
    },
    {
      "inputs": [
        {
          "internalType": "address",
          "name": "account",
          "type": "address"
        },
        {
          "internalType": "bytes32",
          "name": "neededRole",
          "type": "bytes32"
        }
      ],
      "name": "AccessControlUnauthorizedAccount",
      "type": "error"
    },
    {
      "inputs": [],
      "name": "EnforcedPause",
      "type": "error"
    },
    {
      "inputs": [],
      "name": "ExpectedPause",
      "type": "error"
    },
    {
      "inputs": [],
      "name": "ReentrancyGuardReentrantCall",
      "type": "error"
    },
    {
      "anonymous": false,
      "inputs": [
        {
          "indexed": true,
          "internalType": "bytes32",
          "name": "entryId",
          "type": "bytes32"
        },
        {
          "indexed": false,
          "internalType": "bytes32",
          "name": "usdInjectionId",
          "type": "bytes32"
        },
        {
          "indexed": false,
          "internalType": "bytes32",
          "name": "lockId",
          "type": "bytes32"
        },
        {
          "indexed": false,
          "internalType": "bytes32",
          "name": "finalTxHash",
          "type": "bytes32"
        },
        {
          "indexed": false,
          "internalType": "uint256",
          "name": "usdAmount",
          "type": "uint256"
        },
        {
          "indexed": false,
          "internalType": "uint256",
          "name": "lusdMinted",
          "type": "uint256"
        },
        {
          "indexed": false,
          "internalType": "string",
          "name": "authorizationCode",
          "type": "string"
        },
        {
          "indexed": false,
          "internalType": "string",
          "name": "publicationCode",
          "type": "string"
        },
        {
          "indexed": false,
          "internalType": "uint256",
          "name": "timestamp",
          "type": "uint256"
        }
      ],
      "name": "CompleteAuditTrail",
      "type": "event"
    },
    {
      "anonymous": false,
      "inputs": [
        {
          "indexed": true,
          "internalType": "bytes32",
          "name": "entryId",
          "type": "bytes32"
        },
        {
          "indexed": true,
          "internalType": "bytes32",
          "name": "finalTxHash",
          "type": "bytes32"
        },
        {
          "indexed": false,
          "internalType": "string",
          "name": "publicationCode",
          "type": "string"
        },
        {
          "indexed": false,
          "internalType": "uint256",
          "name": "amount",
          "type": "uint256"
        },
        {
          "indexed": true,
          "internalType": "address",
          "name": "beneficiary",
          "type": "address"
        },
        {
          "indexed": false,
          "internalType": "uint256",
          "name": "timestamp",
          "type": "uint256"
        }
      ],
      "name": "LUSDMinted",
      "type": "event"
    },
    {
      "anonymous": false,
      "inputs": [
        {
          "indexed": true,
          "internalType": "bytes32",
          "name": "requestId",
          "type": "bytes32"
        },
        {
          "indexed": true,
          "internalType": "bytes32",
          "name": "lockId",
          "type": "bytes32"
        },
        {
          "indexed": false,
          "internalType": "uint256",
          "name": "amount",
          "type": "uint256"
        },
        {
          "indexed": true,
          "internalType": "address",
          "name": "beneficiary",
          "type": "address"
        },
        {
          "indexed": false,
          "internalType": "string",
          "name": "authorizationCode",
          "type": "string"
        },
        {
          "indexed": false,
          "internalType": "uint256",
          "name": "timestamp",
          "type": "uint256"
        }
      ],
      "name": "MintRequestCreated",
      "type": "event"
    },
    {
      "anonymous": false,
      "inputs": [
        {
          "indexed": false,
          "internalType": "address",
          "name": "account",
          "type": "address"
        }
      ],
      "name": "Paused",
      "type": "event"
    },
    {
      "anonymous": false,
      "inputs": [
        {
          "indexed": true,
          "internalType": "bytes32",
          "name": "entryId",
          "type": "bytes32"
        },
        {
          "indexed": false,
          "internalType": "string",
          "name": "publicationCode",
          "type": "string"
        },
        {
          "indexed": false,
          "internalType": "bytes32",
          "name": "finalTxHash",
          "type": "bytes32"
        },
        {
          "indexed": false,
          "internalType": "uint256",
          "name": "amount",
          "type": "uint256"
        },
        {
          "indexed": false,
          "internalType": "address",
          "name": "beneficiary",
          "type": "address"
        },
        {
          "indexed": false,
          "internalType": "bytes32",
          "name": "firstSignature",
          "type": "bytes32"
        },
        {
          "indexed": false,
          "internalType": "bytes32",
          "name": "secondSignature",
          "type": "bytes32"
        },
        {
          "indexed": false,
          "internalType": "bytes32",
          "name": "thirdSignature",
          "type": "bytes32"
        },
        {
          "indexed": false,
          "internalType": "uint256",
          "name": "timestamp",
          "type": "uint256"
        }
      ],
      "name": "PublishedToMintExplorer",
      "type": "event"
    },
    {
      "anonymous": false,
      "inputs": [
        {
          "indexed": true,
          "internalType": "bytes32",
          "name": "role",
          "type": "bytes32"
        },
        {
          "indexed": true,
          "internalType": "bytes32",
          "name": "previousAdminRole",
          "type": "bytes32"
        },
        {
          "indexed": true,
          "internalType": "bytes32",
          "name": "newAdminRole",
          "type": "bytes32"
        }
      ],
      "name": "RoleAdminChanged",
      "type": "event"
    },
    {
      "anonymous": false,
      "inputs": [
        {
          "indexed": true,
          "internalType": "bytes32",
          "name": "role",
          "type": "bytes32"
        },
        {
          "indexed": true,
          "internalType": "address",
          "name": "account",
          "type": "address"
        },
        {
          "indexed": true,
          "internalType": "address",
          "name": "sender",
          "type": "address"
        }
      ],
      "name": "RoleGranted",
      "type": "event"
    },
    {
      "anonymous": false,
      "inputs": [
        {
          "indexed": true,
          "internalType": "bytes32",
          "name": "role",
          "type": "bytes32"
        },
        {
          "indexed": true,
          "internalType": "address",
          "name": "account",
          "type": "address"
        },
        {
          "indexed": true,
          "internalType": "address",
          "name": "sender",
          "type": "address"
        }
      ],
      "name": "RoleRevoked",
      "type": "event"
    },
    {
      "anonymous": false,
      "inputs": [
        {
          "indexed": false,
          "internalType": "address",
          "name": "account",
          "type": "address"
        }
      ],
      "name": "Unpaused",
      "type": "event"
    },
    {
      "inputs": [],
      "name": "CHAIN_ID",
      "outputs": [
        {
          "internalType": "uint256",
          "name": "",
          "type": "uint256"
        }
      ],
      "stateMutability": "view",
      "type": "function"
    },
    {
      "inputs": [],
      "name": "CONTRACT_NAME",
      "outputs": [
        {
          "internalType": "string",
          "name": "",
          "type": "string"
        }
      ],
      "stateMutability": "view",
      "type": "function"
    },
    {
      "inputs": [],
      "name": "DEFAULT_ADMIN_ROLE",
      "outputs": [
        {
          "internalType": "bytes32",
          "name": "",
          "type": "bytes32"
        }
      ],
      "stateMutability": "view",
      "type": "function"
    },
    {
      "inputs": [],
      "name": "EXPLORER_MANAGER_ROLE",
      "outputs": [
        {
          "internalType": "bytes32",
          "name": "",
          "type": "bytes32"
        }
      ],
      "stateMutability": "view",
      "type": "function"
    },
    {
      "inputs": [],
      "name": "EXPLORER_URL",
      "outputs": [
        {
          "internalType": "string",
          "name": "",
          "type": "string"
        }
      ],
      "stateMutability": "view",
      "type": "function"
    },
    {
      "inputs": [],
      "name": "LUSD_CONTRACT",
      "outputs": [
        {
          "internalType": "address",
          "name": "",
          "type": "address"
        }
      ],
      "stateMutability": "view",
      "type": "function"
    },
    {
      "inputs": [],
      "name": "MINTER_ROLE",
      "outputs": [
        {
          "internalType": "bytes32",
          "name": "",
          "type": "bytes32"
        }
      ],
      "stateMutability": "view",
      "type": "function"
    },
    {
      "inputs": [],
      "name": "VERSION",
      "outputs": [
        {
          "internalType": "string",
          "name": "",
          "type": "string"
        }
      ],
      "stateMutability": "view",
      "type": "function"
    },
    {
      "inputs": [
        {
          "internalType": "bytes32",
          "name": "lockId",
          "type": "bytes32"
        },
        {
          "internalType": "uint256",
          "name": "amount",
          "type": "uint256"
        },
        {
          "internalType": "string",
          "name": "authorizationCode",
          "type": "string"
        }
      ],
      "name": "createMintRequest",
      "outputs": [
        {
          "internalType": "bytes32",
          "name": "requestId",
          "type": "bytes32"
        }
      ],
      "stateMutability": "nonpayable",
      "type": "function"
    },
    {
      "inputs": [
        {
          "internalType": "bytes32",
          "name": "requestId",
          "type": "bytes32"
        },
        {
          "internalType": "bytes32",
          "name": "providedTxHash",
          "type": "bytes32"
        },
        {
          "internalType": "uint256",
          "name": "blockNumber",
          "type": "uint256"
        },
        {
          "internalType": "string",
          "name": "bankName",
          "type": "string"
        },
        {
          "internalType": "string",
          "name": "bankId",
          "type": "string"
        },
        {
          "internalType": "bytes32",
          "name": "usdInjectionId",
          "type": "bytes32"
        },
        {
          "internalType": "uint256",
          "name": "usdInjectedAt",
          "type": "uint256"
        },
        {
          "internalType": "uint256",
          "name": "lockAcceptedAt",
          "type": "uint256"
        },
        {
          "internalType": "bytes32",
          "name": "firstSignature",
          "type": "bytes32"
        },
        {
          "internalType": "bytes32",
          "name": "secondSignature",
          "type": "bytes32"
        }
      ],
      "name": "executeMint",
      "outputs": [
        {
          "internalType": "bytes32",
          "name": "entryId",
          "type": "bytes32"
        },
        {
          "internalType": "string",
          "name": "publicationCode",
          "type": "string"
        }
      ],
      "stateMutability": "nonpayable",
      "type": "function"
    },
    {
      "inputs": [
        {
          "internalType": "bytes32",
          "name": "",
          "type": "bytes32"
        }
      ],
      "name": "explorerEntries",
      "outputs": [
        {
          "internalType": "bytes32",
          "name": "entryId",
          "type": "bytes32"
        },
        {
          "internalType": "bytes32",
          "name": "finalTxHash",
          "type": "bytes32"
        },
        {
          "internalType": "uint256",
          "name": "blockNumber",
          "type": "uint256"
        },
        {
          "internalType": "uint256",
          "name": "blockTimestamp",
          "type": "uint256"
        },
        {
          "internalType": "string",
          "name": "publicationCode",
          "type": "string"
        },
        {
          "internalType": "uint256",
          "name": "mintedAmount",
          "type": "uint256"
        },
        {
          "internalType": "address",
          "name": "beneficiary",
          "type": "address"
        },
        {
          "internalType": "address",
          "name": "mintedBy",
          "type": "address"
        },
        {
          "internalType": "bytes32",
          "name": "lockId",
          "type": "bytes32"
        },
        {
          "internalType": "bytes32",
          "name": "usdInjectionId",
          "type": "bytes32"
        },
        {
          "internalType": "string",
          "name": "authorizationCode",
          "type": "string"
        },
        {
          "internalType": "bytes32",
          "name": "firstSignature",
          "type": "bytes32"
        },
        {
          "internalType": "bytes32",
          "name": "secondSignature",
          "type": "bytes32"
        },
        {
          "internalType": "bytes32",
          "name": "thirdSignature",
          "type": "bytes32"
        },
        {
          "internalType": "string",
          "name": "bankName",
          "type": "string"
        },
        {
          "internalType": "string",
          "name": "bankId",
          "type": "string"
        },
        {
          "internalType": "uint256",
          "name": "usdInjectedAt",
          "type": "uint256"
        },
        {
          "internalType": "uint256",
          "name": "lockAcceptedAt",
          "type": "uint256"
        },
        {
          "internalType": "uint256",
          "name": "mintedAt",
          "type": "uint256"
        },
        {
          "internalType": "enum LUSDMinting.MintStatus",
          "name": "status",
          "type": "uint8"
        },
        {
          "internalType": "address",
          "name": "lusdContract",
          "type": "address"
        }
      ],
      "stateMutability": "view",
      "type": "function"
    },
    {
      "inputs": [
        {
          "internalType": "uint256",
          "name": "",
          "type": "uint256"
        }
      ],
      "name": "explorerEntryIds",
      "outputs": [
        {
          "internalType": "bytes32",
          "name": "",
          "type": "bytes32"
        }
      ],
      "stateMutability": "view",
      "type": "function"
    },
    {
      "inputs": [],
      "name": "getAllExplorerEntryIds",
      "outputs": [
        {
          "internalType": "bytes32[]",
          "name": "",
          "type": "bytes32[]"
        }
      ],
      "stateMutability": "view",
      "type": "function"
    },
    {
      "inputs": [
        {
          "internalType": "bytes32",
          "name": "entryId",
          "type": "bytes32"
        }
      ],
      "name": "getAuditTrail",
      "outputs": [
        {
          "internalType": "bytes32",
          "name": "usdInjectionId",
          "type": "bytes32"
        },
        {
          "internalType": "bytes32",
          "name": "lockId",
          "type": "bytes32"
        },
        {
          "internalType": "bytes32",
          "name": "finalTxHash",
          "type": "bytes32"
        },
        {
          "internalType": "uint256",
          "name": "usdAmount",
          "type": "uint256"
        },
        {
          "internalType": "uint256",
          "name": "lusdMinted",
          "type": "uint256"
        },
        {
          "internalType": "string",
          "name": "authorizationCode",
          "type": "string"
        },
        {
          "internalType": "string",
          "name": "publicationCode",
          "type": "string"
        },
        {
          "internalType": "bytes32",
          "name": "firstSignature",
          "type": "bytes32"
        },
        {
          "internalType": "bytes32",
          "name": "secondSignature",
          "type": "bytes32"
        },
        {
          "internalType": "bytes32",
          "name": "thirdSignature",
          "type": "bytes32"
        },
        {
          "internalType": "uint256",
          "name": "usdInjectedAt",
          "type": "uint256"
        },
        {
          "internalType": "uint256",
          "name": "lockAcceptedAt",
          "type": "uint256"
        },
        {
          "internalType": "uint256",
          "name": "mintedAt",
          "type": "uint256"
        }
      ],
      "stateMutability": "view",
      "type": "function"
    },
    {
      "inputs": [
        {
          "internalType": "bytes32",
          "name": "lockId",
          "type": "bytes32"
        }
      ],
      "name": "getEntryByLockId",
      "outputs": [
        {
          "components": [
            {
              "internalType": "bytes32",
              "name": "entryId",
              "type": "bytes32"
            },
            {
              "internalType": "bytes32",
              "name": "finalTxHash",
              "type": "bytes32"
            },
            {
              "internalType": "uint256",
              "name": "blockNumber",
              "type": "uint256"
            },
            {
              "internalType": "uint256",
              "name": "blockTimestamp",
              "type": "uint256"
            },
            {
              "internalType": "string",
              "name": "publicationCode",
              "type": "string"
            },
            {
              "internalType": "uint256",
              "name": "mintedAmount",
              "type": "uint256"
            },
            {
              "internalType": "address",
              "name": "beneficiary",
              "type": "address"
            },
            {
              "internalType": "address",
              "name": "mintedBy",
              "type": "address"
            },
            {
              "internalType": "bytes32",
              "name": "lockId",
              "type": "bytes32"
            },
            {
              "internalType": "bytes32",
              "name": "usdInjectionId",
              "type": "bytes32"
            },
            {
              "internalType": "string",
              "name": "authorizationCode",
              "type": "string"
            },
            {
              "internalType": "bytes32",
              "name": "firstSignature",
              "type": "bytes32"
            },
            {
              "internalType": "bytes32",
              "name": "secondSignature",
              "type": "bytes32"
            },
            {
              "internalType": "bytes32",
              "name": "thirdSignature",
              "type": "bytes32"
            },
            {
              "internalType": "string",
              "name": "bankName",
              "type": "string"
            },
            {
              "internalType": "string",
              "name": "bankId",
              "type": "string"
            },
            {
              "internalType": "uint256",
              "name": "usdInjectedAt",
              "type": "uint256"
            },
            {
              "internalType": "uint256",
              "name": "lockAcceptedAt",
              "type": "uint256"
            },
            {
              "internalType": "uint256",
              "name": "mintedAt",
              "type": "uint256"
            },
            {
              "internalType": "enum LUSDMinting.MintStatus",
              "name": "status",
              "type": "uint8"
            },
            {
              "internalType": "address",
              "name": "lusdContract",
              "type": "address"
            }
          ],
          "internalType": "struct LUSDMinting.MintExplorerEntry",
          "name": "",
          "type": "tuple"
        }
      ],
      "stateMutability": "view",
      "type": "function"
    },
    {
      "inputs": [
        {
          "internalType": "string",
          "name": "pubCode",
          "type": "string"
        }
      ],
      "name": "getEntryByPublicationCode",
      "outputs": [
        {
          "components": [
            {
              "internalType": "bytes32",
              "name": "entryId",
              "type": "bytes32"
            },
            {
              "internalType": "bytes32",
              "name": "finalTxHash",
              "type": "bytes32"
            },
            {
              "internalType": "uint256",
              "name": "blockNumber",
              "type": "uint256"
            },
            {
              "internalType": "uint256",
              "name": "blockTimestamp",
              "type": "uint256"
            },
            {
              "internalType": "string",
              "name": "publicationCode",
              "type": "string"
            },
            {
              "internalType": "uint256",
              "name": "mintedAmount",
              "type": "uint256"
            },
            {
              "internalType": "address",
              "name": "beneficiary",
              "type": "address"
            },
            {
              "internalType": "address",
              "name": "mintedBy",
              "type": "address"
            },
            {
              "internalType": "bytes32",
              "name": "lockId",
              "type": "bytes32"
            },
            {
              "internalType": "bytes32",
              "name": "usdInjectionId",
              "type": "bytes32"
            },
            {
              "internalType": "string",
              "name": "authorizationCode",
              "type": "string"
            },
            {
              "internalType": "bytes32",
              "name": "firstSignature",
              "type": "bytes32"
            },
            {
              "internalType": "bytes32",
              "name": "secondSignature",
              "type": "bytes32"
            },
            {
              "internalType": "bytes32",
              "name": "thirdSignature",
              "type": "bytes32"
            },
            {
              "internalType": "string",
              "name": "bankName",
              "type": "string"
            },
            {
              "internalType": "string",
              "name": "bankId",
              "type": "string"
            },
            {
              "internalType": "uint256",
              "name": "usdInjectedAt",
              "type": "uint256"
            },
            {
              "internalType": "uint256",
              "name": "lockAcceptedAt",
              "type": "uint256"
            },
            {
              "internalType": "uint256",
              "name": "mintedAt",
              "type": "uint256"
            },
            {
              "internalType": "enum LUSDMinting.MintStatus",
              "name": "status",
              "type": "uint8"
            },
            {
              "internalType": "address",
              "name": "lusdContract",
              "type": "address"
            }
          ],
          "internalType": "struct LUSDMinting.MintExplorerEntry",
          "name": "",
          "type": "tuple"
        }
      ],
      "stateMutability": "view",
      "type": "function"
    },
    {
      "inputs": [
        {
          "internalType": "bytes32",
          "name": "txHash",
          "type": "bytes32"
        }
      ],
      "name": "getEntryByTxHash",
      "outputs": [
        {
          "components": [
            {
              "internalType": "bytes32",
              "name": "entryId",
              "type": "bytes32"
            },
            {
              "internalType": "bytes32",
              "name": "finalTxHash",
              "type": "bytes32"
            },
            {
              "internalType": "uint256",
              "name": "blockNumber",
              "type": "uint256"
            },
            {
              "internalType": "uint256",
              "name": "blockTimestamp",
              "type": "uint256"
            },
            {
              "internalType": "string",
              "name": "publicationCode",
              "type": "string"
            },
            {
              "internalType": "uint256",
              "name": "mintedAmount",
              "type": "uint256"
            },
            {
              "internalType": "address",
              "name": "beneficiary",
              "type": "address"
            },
            {
              "internalType": "address",
              "name": "mintedBy",
              "type": "address"
            },
            {
              "internalType": "bytes32",
              "name": "lockId",
              "type": "bytes32"
            },
            {
              "internalType": "bytes32",
              "name": "usdInjectionId",
              "type": "bytes32"
            },
            {
              "internalType": "string",
              "name": "authorizationCode",
              "type": "string"
            },
            {
              "internalType": "bytes32",
              "name": "firstSignature",
              "type": "bytes32"
            },
            {
              "internalType": "bytes32",
              "name": "secondSignature",
              "type": "bytes32"
            },
            {
              "internalType": "bytes32",
              "name": "thirdSignature",
              "type": "bytes32"
            },
            {
              "internalType": "string",
              "name": "bankName",
              "type": "string"
            },
            {
              "internalType": "string",
              "name": "bankId",
              "type": "string"
            },
            {
              "internalType": "uint256",
              "name": "usdInjectedAt",
              "type": "uint256"
            },
            {
              "internalType": "uint256",
              "name": "lockAcceptedAt",
              "type": "uint256"
            },
            {
              "internalType": "uint256",
              "name": "mintedAt",
              "type": "uint256"
            },
            {
              "internalType": "enum LUSDMinting.MintStatus",
              "name": "status",
              "type": "uint8"
            },
            {
              "internalType": "address",
              "name": "lusdContract",
              "type": "address"
            }
          ],
          "internalType": "struct LUSDMinting.MintExplorerEntry",
          "name": "",
          "type": "tuple"
        }
      ],
      "stateMutability": "view",
      "type": "function"
    },
    {
      "inputs": [
        {
          "internalType": "uint256",
          "name": "count",
          "type": "uint256"
        }
      ],
      "name": "getRecentEntries",
      "outputs": [
        {
          "components": [
            {
              "internalType": "bytes32",
              "name": "entryId",
              "type": "bytes32"
            },
            {
              "internalType": "bytes32",
              "name": "finalTxHash",
              "type": "bytes32"
            },
            {
              "internalType": "uint256",
              "name": "blockNumber",
              "type": "uint256"
            },
            {
              "internalType": "uint256",
              "name": "blockTimestamp",
              "type": "uint256"
            },
            {
              "internalType": "string",
              "name": "publicationCode",
              "type": "string"
            },
            {
              "internalType": "uint256",
              "name": "mintedAmount",
              "type": "uint256"
            },
            {
              "internalType": "address",
              "name": "beneficiary",
              "type": "address"
            },
            {
              "internalType": "address",
              "name": "mintedBy",
              "type": "address"
            },
            {
              "internalType": "bytes32",
              "name": "lockId",
              "type": "bytes32"
            },
            {
              "internalType": "bytes32",
              "name": "usdInjectionId",
              "type": "bytes32"
            },
            {
              "internalType": "string",
              "name": "authorizationCode",
              "type": "string"
            },
            {
              "internalType": "bytes32",
              "name": "firstSignature",
              "type": "bytes32"
            },
            {
              "internalType": "bytes32",
              "name": "secondSignature",
              "type": "bytes32"
            },
            {
              "internalType": "bytes32",
              "name": "thirdSignature",
              "type": "bytes32"
            },
            {
              "internalType": "string",
              "name": "bankName",
              "type": "string"
            },
            {
              "internalType": "string",
              "name": "bankId",
              "type": "string"
            },
            {
              "internalType": "uint256",
              "name": "usdInjectedAt",
              "type": "uint256"
            },
            {
              "internalType": "uint256",
              "name": "lockAcceptedAt",
              "type": "uint256"
            },
            {
              "internalType": "uint256",
              "name": "mintedAt",
              "type": "uint256"
            },
            {
              "internalType": "enum LUSDMinting.MintStatus",
              "name": "status",
              "type": "uint8"
            },
            {
              "internalType": "address",
              "name": "lusdContract",
              "type": "address"
            }
          ],
          "internalType": "struct LUSDMinting.MintExplorerEntry[]",
          "name": "",
          "type": "tuple[]"
        }
      ],
      "stateMutability": "view",
      "type": "function"
    },
    {
      "inputs": [
        {
          "internalType": "bytes32",
          "name": "role",
          "type": "bytes32"
        }
      ],
      "name": "getRoleAdmin",
      "outputs": [
        {
          "internalType": "bytes32",
          "name": "",
          "type": "bytes32"
        }
      ],
      "stateMutability": "view",
      "type": "function"
    },
    {
      "inputs": [],
      "name": "getStatistics",
      "outputs": [
        {
          "internalType": "uint256",
          "name": "_totalMinted",
          "type": "uint256"
        },
        {
          "internalType": "uint256",
          "name": "_totalMintOperations",
          "type": "uint256"
        },
        {
          "internalType": "uint256",
          "name": "_totalExplorerEntries",
          "type": "uint256"
        },
        {
          "internalType": "uint256",
          "name": "_lusdTotalSupply",
          "type": "uint256"
        }
      ],
      "stateMutability": "view",
      "type": "function"
    },
    {
      "inputs": [
        {
          "internalType": "bytes32",
          "name": "role",
          "type": "bytes32"
        },
        {
          "internalType": "address",
          "name": "account",
          "type": "address"
        }
      ],
      "name": "grantRole",
      "outputs": [],
      "stateMutability": "nonpayable",
      "type": "function"
    },
    {
      "inputs": [
        {
          "internalType": "bytes32",
          "name": "role",
          "type": "bytes32"
        },
        {
          "internalType": "address",
          "name": "account",
          "type": "address"
        }
      ],
      "name": "hasRole",
      "outputs": [
        {
          "internalType": "bool",
          "name": "",
          "type": "bool"
        }
      ],
      "stateMutability": "view",
      "type": "function"
    },
    {
      "inputs": [
        {
          "internalType": "bytes32",
          "name": "",
          "type": "bytes32"
        }
      ],
      "name": "lockIdToEntry",
      "outputs": [
        {
          "internalType": "bytes32",
          "name": "",
          "type": "bytes32"
        }
      ],
      "stateMutability": "view",
      "type": "function"
    },
    {
      "inputs": [],
      "name": "locksTreasuryContract",
      "outputs": [
        {
          "internalType": "address",
          "name": "",
          "type": "address"
        }
      ],
      "stateMutability": "view",
      "type": "function"
    },
    {
      "inputs": [],
      "name": "lusd",
      "outputs": [
        {
          "internalType": "contract ILUSD",
          "name": "",
          "type": "address"
        }
      ],
      "stateMutability": "view",
      "type": "function"
    },
    {
      "inputs": [
        {
          "internalType": "bytes32",
          "name": "lockId",
          "type": "bytes32"
        },
        {
          "internalType": "uint256",
          "name": "amount",
          "type": "uint256"
        },
        {
          "internalType": "address",
          "name": "beneficiary",
          "type": "address"
        },
        {
          "internalType": "bytes32",
          "name": "txHash",
          "type": "bytes32"
        },
        {
          "internalType": "string",
          "name": "authorizationCode",
          "type": "string"
        },
        {
          "internalType": "string",
          "name": "bankName",
          "type": "string"
        },
        {
          "internalType": "bytes32",
          "name": "firstSignature",
          "type": "bytes32"
        },
        {
          "internalType": "bytes32",
          "name": "secondSignature",
          "type": "bytes32"
        }
      ],
      "name": "mintAndPublish",
      "outputs": [
        {
          "internalType": "bytes32",
          "name": "entryId",
          "type": "bytes32"
        },
        {
          "internalType": "string",
          "name": "publicationCode",
          "type": "string"
        }
      ],
      "stateMutability": "nonpayable",
      "type": "function"
    },
    {
      "inputs": [
        {
          "internalType": "uint256",
          "name": "",
          "type": "uint256"
        }
      ],
      "name": "mintRequestIds",
      "outputs": [
        {
          "internalType": "bytes32",
          "name": "",
          "type": "bytes32"
        }
      ],
      "stateMutability": "view",
      "type": "function"
    },
    {
      "inputs": [
        {
          "internalType": "bytes32",
          "name": "",
          "type": "bytes32"
        }
      ],
      "name": "mintRequests",
      "outputs": [
        {
          "internalType": "bytes32",
          "name": "requestId",
          "type": "bytes32"
        },
        {
          "internalType": "bytes32",
          "name": "lockId",
          "type": "bytes32"
        },
        {
          "internalType": "uint256",
          "name": "amount",
          "type": "uint256"
        },
        {
          "internalType": "address",
          "name": "beneficiary",
          "type": "address"
        },
        {
          "internalType": "string",
          "name": "authorizationCode",
          "type": "string"
        },
        {
          "internalType": "enum LUSDMinting.MintStatus",
          "name": "status",
          "type": "uint8"
        },
        {
          "internalType": "uint256",
          "name": "createdAt",
          "type": "uint256"
        },
        {
          "internalType": "uint256",
          "name": "processedAt",
          "type": "uint256"
        },
        {
          "internalType": "bytes32",
          "name": "resultTxHash",
          "type": "bytes32"
        },
        {
          "internalType": "string",
          "name": "publicationCode",
          "type": "string"
        }
      ],
      "stateMutability": "view",
      "type": "function"
    },
    {
      "inputs": [],
      "name": "pause",
      "outputs": [],
      "stateMutability": "nonpayable",
      "type": "function"
    },
    {
      "inputs": [],
      "name": "paused",
      "outputs": [
        {
          "internalType": "bool",
          "name": "",
          "type": "bool"
        }
      ],
      "stateMutability": "view",
      "type": "function"
    },
    {
      "inputs": [
        {
          "internalType": "string",
          "name": "",
          "type": "string"
        }
      ],
      "name": "publicationCodeToEntry",
      "outputs": [
        {
          "internalType": "bytes32",
          "name": "",
          "type": "bytes32"
        }
      ],
      "stateMutability": "view",
      "type": "function"
    },
    {
      "inputs": [
        {
          "internalType": "bytes32",
          "name": "role",
          "type": "bytes32"
        },
        {
          "internalType": "address",
          "name": "callerConfirmation",
          "type": "address"
        }
      ],
      "name": "renounceRole",
      "outputs": [],
      "stateMutability": "nonpayable",
      "type": "function"
    },
    {
      "inputs": [
        {
          "internalType": "bytes32",
          "name": "role",
          "type": "bytes32"
        },
        {
          "internalType": "address",
          "name": "account",
          "type": "address"
        }
      ],
      "name": "revokeRole",
      "outputs": [],
      "stateMutability": "nonpayable",
      "type": "function"
    },
    {
      "inputs": [
        {
          "internalType": "address",
          "name": "_locksTreasuryContract",
          "type": "address"
        }
      ],
      "name": "setLocksTreasuryContract",
      "outputs": [],
      "stateMutability": "nonpayable",
      "type": "function"
    },
    {
      "inputs": [
        {
          "internalType": "address",
          "name": "_usdContract",
          "type": "address"
        }
      ],
      "name": "setUSDContract",
      "outputs": [],
      "stateMutability": "nonpayable",
      "type": "function"
    },
    {
      "inputs": [
        {
          "internalType": "bytes4",
          "name": "interfaceId",
          "type": "bytes4"
        }
      ],
      "name": "supportsInterface",
      "outputs": [
        {
          "internalType": "bool",
          "name": "",
          "type": "bool"
        }
      ],
      "stateMutability": "view",
      "type": "function"
    },
    {
      "inputs": [],
      "name": "totalExplorerEntries",
      "outputs": [
        {
          "internalType": "uint256",
          "name": "",
          "type": "uint256"
        }
      ],
      "stateMutability": "view",
      "type": "function"
    },
    {
      "inputs": [],
      "name": "totalMintOperations",
      "outputs": [
        {
          "internalType": "uint256",
          "name": "",
          "type": "uint256"
        }
      ],
      "stateMutability": "view",
      "type": "function"
    },
    {
      "inputs": [],
      "name": "totalMinted",
      "outputs": [
        {
          "internalType": "uint256",
          "name": "",
          "type": "uint256"
        }
      ],
      "stateMutability": "view",
      "type": "function"
    },
    {
      "inputs": [
        {
          "internalType": "bytes32",
          "name": "",
          "type": "bytes32"
        }
      ],
      "name": "txHashToEntry",
      "outputs": [
        {
          "internalType": "bytes32",
          "name": "",
          "type": "bytes32"
        }
      ],
      "stateMutability": "view",
      "type": "function"
    },
    {
      "inputs": [],
      "name": "unpause",
      "outputs": [],
      "stateMutability": "nonpayable",
      "type": "function"
    },
    {
      "inputs": [],
      "name": "usdContract",
      "outputs": [
        {
          "internalType": "address",
          "name": "",
          "type": "address"
        }
      ],
      "stateMutability": "view",
      "type": "function"
    },
    {
      "inputs": [
        {
          "internalType": "bytes32",
          "name": "entryId",
          "type": "bytes32"
        }
      ],
      "name": "verifyEntrySignatures",
      "outputs": [
        {
          "internalType": "bool",
          "name": "hasAllSignatures",
          "type": "bool"
        },
        {
          "internalType": "bytes32",
          "name": "firstSig",
          "type": "bytes32"
        },
        {
          "internalType": "bytes32",
          "name": "secondSig",
          "type": "bytes32"
        },
        {
          "internalType": "bytes32",
          "name": "thirdSig",
          "type": "bytes32"
        }
      ],
      "stateMutability": "view",
      "type": "function"
    }
  ],
  "bytecode": "0x6080346200013c57601f62003a7438819003918201601f19168301916001600160401b0383118484101762000141578084926060946040528339810103126200013c576200004d8162000157565b906200006a6040620000626020840162000157565b920162000157565b60018055906001600160a01b0390838216156200010757620000b984620000a6738de60f88f19dad42dde0d9ed2eeba68269722a99966200016c565b50620000b281620001ec565b506200028e565b5060025490610100600160a81b039060081b1690610100600160a81b0319161760025560018060a01b03199116816003541617600355600454161760045560405161372890816200032c8239f35b60405162461bcd60e51b815260206004820152600d60248201526c24b73b30b634b21030b236b4b760991b6044820152606490fd5b600080fd5b634e487b7160e01b600052604160045260246000fd5b51906001600160a01b03821682036200013c57565b6001600160a01b031660008181527fad3228b676f7d3cd4284a5443f17f1962b36e491b30a40b2405849e597ba5fb5602052604081205490919060ff16620001e857818052816020526040822081835260205260408220600160ff19825416179055339160008051602062003a548339815191528180a4600190565b5090565b6001600160a01b031660008181527f0781d7cac9c378efa22a7481e4d4d29704a680ddf504b3bc50b517700ee11e6c60205260408120549091907f9f2df0fed2c77648de5860a4cc508cd0818c85b8b8a1ab4ceeef8d981c8956a69060ff166200028957808352826020526040832082845260205260408320600160ff1982541617905560008051602062003a54833981519152339380a4600190565b505090565b6001600160a01b031660008181527ffaf39b87e6ddba00ffb4f51660a143c0e55cc308c045907480fee9ac692d50cf60205260408120549091907f646cb2a89016d9305d1ec37350d4905b229b46ba9742ee6d86fc274aad6af9fa9060ff166200028957808352826020526040832082845260205260408320600160ff1982541617905560008051602062003a54833981519152339380a460019056fe61018080604052600436101561001457600080fd5b60003560e01c90816301ffc9a714612c78575080630d39e46d14612bae578063111ac93b14612b5057806318043db514612b275780631f23618c14612af0578063248a9ca314612ac1578063254d088f14612a495780632f2ff15d14612a0a57806331970582146129b957806336568abe1461297257806336dffb9714612905578063372d6b27146128605780633950b82a146128315780633f4ba83a146127c757806341c319a0146122f15780635c975abb146122ce578063614d08f8146122815780636782b5a7146122545780636981cee8146119685780636f72775e146118fd57806373a8ce8b1461181d5780637c1db48f146117d05780638456cb591461176357806385e1f4d0146117465780638b8846fa146117015780638e6b000e146116d557806391d148541461168857806399ad68a71461165f57806399f223a314611641578063a217fddf14611625578063a2309ff814611607578063bf08c382146114a2578063c21df16c14611467578063c283e01d1461140b578063c2b0ad4b1461119d578063cd8a2f8f1461117f578063d539139314611144578063d547741f14611103578063d9aa752414610f10578063de8ac85914610e5a578063f1c41b9e14610274578063f64fe702146102485763ffa1ad74146101f957600080fd5b346102435760003660031901126102435761023f60405161021981612d21565b60058152640312e302e360dc1b6020820152604051918291602083526020830190612e41565b0390f35b600080fd5b3461024357602036600319011261024357600435600052600d6020526020604060002054604051908152f35b3461024357610140366003190112610243576064356001600160401b038111610243576102a5903690600401612f1c565b906084356001600160401b038111610243576102c5903690600401612f1c565b9290916102d06130c7565b6102d8613435565b600435600052600a6020526040600020600681015415610e215760058101549360ff851660048110156109b057610de65761031660243515156132d8565b600182015495600283015461034d61035b61033242848c613469565b9960405192839160208301958d42923392602435918a613317565b03601f198101835282612d57565b5190209360028861034d6103816007546040519283916020830195429060243588613382565b5190209760ff1916176005850155426007850155602435600885015587516001600160401b038111610a96576103ba6009860154612ccb565b601f8111610d9f575b506020601f8211600114610d27579181610497926104a4969594600091610d1c575b508160011b916000199060031b1c19161760098701555b6002860154600387015460018801546040519a9290916001600160a01b0316906104258c612d05565b8c8c5260243560208d015260443560408d01524260608d01528d60808d015260a08c015260c08b01523360e08b01526101008a015260a4356101208a015261046f60048801612d78565b6101408a0152610104356101608a0152610124356101808a0152876101a08a01523691612ed6565b6101c08701523691612ed6565b6101e084015260c43561020084015260e435610220840152426102408401526002610260840152738de60f88f19dad42dde0d9ed2eeba68269722a9961028084015283600052600860205260406000208351815560208401516001820155604084015160028201556060840151600382015560808401518051906001600160401b038211610a9657819061053b6004850154612ccb565b601f8111610cc9575b50602090601f8311600114610c5757600092610c4c575b50508160011b916000199060031b1c19161760048201555b60a0840151600582015560c08401516006820180546001600160a01b039283166001600160a01b03199182161790915560e0860151600784018054919093169116179055610100840151600882015561012084015160098201556101408401518051906001600160401b038211610a965781906105f3600a850154612ccb565b601f8111610bf9575b50602090601f8311600114610b8757600092610b7c575b50508160011b916000199060031b1c191617600a8201555b610160840151600b820155610180840151600c8201556101a0840151600d8201556101c08401518051906001600160401b038211610a96578190610672600e850154612ccb565b601f8111610b29575b50602090601f8311600114610ab757600092610aac575b50508160011b916000199060031b1c191617600e8201555b6101e08401518051906001600160401b038211610a965781906106d0600f850154612ccb565b601f8111610a43575b50602090601f83116001146109d1576000926109c6575b50508160011b916000199060031b1c191617600f8201555b61020084015160108201556102208401516011820155610240840151601282015561026084015160048110156109b057859461074b601361077294019283613289565b61028001518154610100600160a81b03191660089190911b610100600160a81b0316179055565b61077b836132a1565b8260405160208188516107918183858d01612e1e565b8101600c815203019020556001810154600052600d60205282604060002055602435600052600e602052826040600020556107d260028201546005546133ac565b6005556107e06006546133b9565b6006556107ee6007546133b9565b600755827f7b17fa0c37714bde6af5a0d3fe66746981cfd6819dfabd6cef7ebcfc5f445c9260028301549360018060a01b03600385015416908189857fda05fdf7fba50794bca8257361c9f28c4c3dbc40e3c56faa640c8e18d77e2dd66040518061085f602435958d4291846133c8565b0390a461088360405192839242918c61012435918b610104359260243590896133ea565b0390a26001810154916040519260a435845260208401526024356040840152806060840152608083015261010060a08301526000906004810154906108c782612ccb565b91826101008601526001811690816000146109885750600114610945575b5050908061091c83827fc495aa4122c496438d45f0a9004ed80ed5e0bae90d9919c1fe26a7ffaf36f8fe950360c084015287612e41565b4260e08301520390a26001805561023f6040519283928352604060208401526040830190612e41565b6004016000908152602081209092505b81831061096d5750508101610120018161091c6108e5565b80546101208585010152859450602090920191600101610955565b60ff19166101208087019190915292151560051b8501909201925083915061091c90506108e5565b634e487b7160e01b600052602160045260246000fd5b0151905088806106f0565b9250600f84016000526020600020906000935b601f1984168510610a28576001945083601f19811610610a0f575b505050811b01600f820155610708565b015160001960f88460031b161c191690558880806109ff565b818101518355602094850194600190930192909101906109e4565b909150600f84016000526020600020601f840160051c810160208510610a8f575b90849392915b601f830160051c82018110610a805750506106d9565b60008155859450600101610a6a565b5080610a64565b634e487b7160e01b600052604160045260246000fd5b015190508880610692565b9250600e84016000526020600020906000935b601f1984168510610b0e576001945083601f19811610610af5575b505050811b01600e8201556106aa565b015160001960f88460031b161c19169055888080610ae5565b81810151835560209485019460019093019290910190610aca565b909150600e84016000526020600020601f840160051c810160208510610b75575b90849392915b601f830160051c82018110610b6657505061067b565b60008155859450600101610b50565b5080610b4a565b015190508880610613565b9250600a84016000526020600020906000935b601f1984168510610bde576001945083601f19811610610bc5575b505050811b01600a82015561062b565b015160001960f88460031b161c19169055888080610bb5565b81810151835560209485019460019093019290910190610b9a565b909150600a84016000526020600020601f840160051c810160208510610c45575b90849392915b601f830160051c82018110610c365750506105fc565b60008155859450600101610c20565b5080610c1a565b01519050888061055b565b9250600484016000526020600020906000935b601f1984168510610cae576001945083601f19811610610c95575b505050811b016004820155610573565b015160001960f88460031b161c19169055888080610c85565b81810151835560209485019460019093019290910190610c6a565b909150600484016000526020600020601f840160051c810160208510610d15575b90849392915b601f830160051c82018110610d06575050610544565b60008155859450600101610cf0565b5080610cea565b90508b01518c6103e5565b6009860160005260206000209060005b8b601f1985168210610d87575050826104a49695949260019261049795601f19811610610d6e575b5050811b0160098701556103fc565b8d015160001960f88460031b161c191690558c80610d5f565b60018394602093948493015181550193019101610d37565b600986016000526020600020601f830160051c810160208410610ddf575b601f830160051c82018110610dd35750506103c3565b60008155600101610dbd565b5080610dbd565b60405162461bcd60e51b815260206004820152601360248201527252657175657374206e6f742070656e64696e6760681b6044820152606490fd5b60405162461bcd60e51b815260206004820152601160248201527014995c5d595cdd081b9bdd08199bdd5b99607a1b6044820152606490fd5b3461024357600036600319011261024357604051806009548083526020809301809160096000527f6e1540171b6c0c960b71a7020d9f60077f6af931a8bbf590da0223dacf75c7af9060005b86828210610efc578686610ebc82880383612d57565b604051928392818401908285525180915260408401929160005b828110610ee557505050500390f35b835185528695509381019392810192600101610ed6565b835485529093019260019283019201610ea6565b346102435760203660031901126102435760043560005260086020526110ab60406000208061012052611099815491610f616004600183015492600281015461016052600381015460c05201612d78565b61012051600581015460068201546007830154600884015460098501546001600160a01b0393841697969290931694919361106f939092610fa490600a01612d78565b916101205196600b88015499611038600c8a015498610fca600e600d8d01549c01612d78565b9b610fda600f6101205101612d78565b9f601361012051601081015460e052601181015461014052601281015460a052015461010052604051806080525260206080510152610160516040608051015260c051606060805101526102a0806080805101526080510190612e41565b9560a0608051015260c0608051015260e0608051015261010060805101526101206080510152608051610140818403910152612e41565b93610160608051015261018060805101526101a060805101526080516101c0818403910152612e41565b906080516101e0818403910152612e41565b60e051610200608051015261014051610220608051015260a05161024060805101526110e36102606080510160ff6101005116612e66565b60018060a01b036101005160081c16610280608051015260805180910390f35b3461024357604036600319011261024357611142600435611122612eaa565b9080600052600060205261113d600160406000200154613123565b6131c7565b005b346102435760003660031901126102435760206040517f9f2df0fed2c77648de5860a4cc508cd0818c85b8b8a1ab4ceeef8d981c8956a68152f35b34610243576000366003190112610243576020600754604051908152f35b3461024357602080600319360112610243576004356009805490818311611402575b6111ca839293613689565b926111d86040519485612d57565b828452601f196111e784613689565b018560005b8281106113e6575050506000198181019180831160005b86811061126857604080518a81528951818c01819052600092600582901b83018101918c8e01918e9085015b82871061123c5785850386f35b909192938280611258600193603f198a82030186528851612f49565b960192019601959291909261122f565b816113d0578381840301908582116113d0576112866113cb92612e73565b9054600391821b1c6000526008808c52604060002090604051926112a984612d05565b8254845260018301548e8501526002830154604085015282015460608401526112d460048301612d78565b6080840152600582015460a084015260068201546001600160a01b0390811660c08501526007830154811660e0850152818301546101008501528a83015461012085015291601390611328600a8201612d78565b610140860152600b810154610160860152600c810154610180860152600d8101546101a086015261135b600e8201612d78565b6101c086015261136d600f8201612d78565b6101e08601526010810154610200860152601181015461022086015260128101546102408601520154906113a860ff8316610260860161327d565b1c166102808201526113ba828b6136a0565b526113c5818a6136a0565b506133b9565b611203565b634e487b7160e01b600052601160045260246000fd5b6113f19593956135ec565b8282890101520186909492946111ec565b915080916111bf565b3461024357602036600319011261024357611424612ec0565b61142c61306f565b6114406001600160a01b03821615156136b4565b60028054610100600160a81b03191660089290921b610100600160a81b0316919091179055005b346102435760003660031901126102435760206040517f646cb2a89016d9305d1ec37350d4905b229b46ba9742ee6d86fc274aad6af9fa8152f35b3461024357602080600319360112610243576114bc6135ec565b50600435600052600e815260406000205460005260088152604060002090604051916114e783612d05565b80548352600181015482840152600281015460408401526003810154606084015261151460048201612d78565b6080840152600581015460a084015260068101546001600160a01b0390811660c08501526007820154811660e0850152600882015461010085015260098201546101208501529060139061156a600a8201612d78565b610140860152600b810154610160860152600c810154610180860152600d8101546101a086015261159d600e8201612d78565b6101c08601526115af600f8201612d78565b6101e086015260108101546102008601526011810154610220860152601281015461024086015201546115e960ff8216610260860161327d565b60081c1661028083015261023f604051928284938452830190612f49565b34610243576000366003190112610243576020600554604051908152f35b3461024357600036600319011261024357602060405160008152f35b34610243576000366003190112610243576020600654604051908152f35b34610243576000366003190112610243576004546040516001600160a01b039091168152602090f35b34610243576040366003190112610243576116a1612eaa565b600435600052600060205260406000209060018060a01b0316600052602052602060ff604060002054166040519015158152f35b3461024357602036600319011261024357600435600052600e6020526020604060002054604051908152f35b34610243576020806003193601126102435761171b6135ec565b50600435600052600d815260406000205460005260088152604060002090604051916114e783612d05565b346102435760003660031901126102435760206040516103ed8152f35b346102435760003660031901126102435761177c61306f565b60025460ff81166117be5760019060ff1916176002557f62e78cea01bee320cd4e420270b5ea74000d11b0c9f74754ebdbfc544b05a2586020604051338152a1005b60405163d93c066560e01b8152600490fd5b34610243576020366003190112610243576117e9612ec0565b6117f161306f565b6001600160a01b03166118058115156136b4565b6001600160601b0360a01b6003541617600355600080f35b3461024357602036600319011261024357600435600052600860205260206040600020600981015490600881015490600181015490600581015490600b81015493600c8201546118d5600d840154926118c76010860154956011810154976012820154996118996004611892600a8601612d78565b9401612d78565b946040519e8f9e8f908152015260408d01528060608d015260808c01526101a08060a08d01528b0190612e41565b9089820360c08b0152612e41565b9560e08801526101008701526101208601526101408501526101608401526101808301520390f35b3461024357602080600319360112610243576004356001600160401b0381116102435761192f82913690600401612f1c565b91906119396135ec565b508260405193849283378101600c8152030190205460005260088152604060002090604051916114e783612d05565b3461024357610100366003190112610243576044356001600160a01b0381169003610243576084356001600160401b038111610243576119ac903690600401612f1c565b9060a4356001600160401b038111610243576119cc903690600401612f1c565b6119d79391936130c7565b6119df613435565b6119ec602435151561323c565b6044356001600160a01b03161561221957611a0a60643515156132d8565b611aef611a1c42602435600435613469565b946040516020810190611a3e8161034d42338c6064356024356004358a613317565b51902092611ac9600754604051611a638161034d60208201948d429060643588613382565b5190209660405196611a7488612d05565b8888526064356020890152436040890152426060890152608088018a905260243560a08901526044356001600160a01b031660c08901523360e089015260043561010089015260006101208901523691612ed6565b61014086015260c43561016086015260e435610180860152836101a08601523691612ed6565b6101c0830152604051611b0181612d3c565b600081526101e083015260006102008301526000610220830152426102408301526002610260830152738de60f88f19dad42dde0d9ed2eeba68269722a996102808301528260005260086020526040600020918051835560208101516001840155604081015160028401556060810151600384015560808101518051906001600160401b038211610a96578190611b9b6004870154612ccb565b601f81116121c6575b50602090601f831160011461215457600092612149575b50508160011b916000199060031b1c19161760048401555b60a0810151600584015560c08101516006840180546001600160a01b039283166001600160a01b03199182161790915560e0830151600786018054919093169116179055610100810151600884015561012081015160098401556101408101518051906001600160401b038211610a96578190611c53600a870154612ccb565b601f81116120f6575b50602090601f831160011461208457600092612079575b50508160011b916000199060031b1c191617600a8401555b610160810151600b840155610180810151600c8401556101a0810151600d8401556101c08101518051906001600160401b038211610a96578190611cd2600e870154612ccb565b601f8111612026575b50602090601f8311600114611fb457600092611fa9575b50508160011b916000199060031b1c191617600e8401555b6101e08101518051906001600160401b038211610a96578190611d30600f870154612ccb565b601f8111611f56575b50602090601f8311600114611ee457600092611ed9575b50508160011b916000199060031b1c191617600f8401555b6102008101516010840155610220810151601184015561024081015160128401556102608101519160048310156109b057611dd17f7b17fa0c37714bde6af5a0d3fe66746981cfd6819dfabd6cef7ebcfc5f445c9293611eb69361074b60138998019283613289565b611dda846132a1565b8360405160208181611df28b83815193849201612e1e565b8101600c81520301902055600435600052600d60205283604060002055606435600052600e60205283604060002055611e2f6024356005546133ac565b600555611e3d6006546133b9565b600655611e4b6007546133b9565b6007556040516044356001600160a01b0316906064359086907fda05fdf7fba50794bca8257361c9f28c4c3dbc40e3c56faa640c8e18d77e2dd69080611e95426024358e846133c8565b0390a4604051918291429060e43560c4356044356024356064358d896133ea565b0390a26001805561023f6040519283928352604060208401526040830190612e41565b015190508780611d50565b9250600f86016000526020600020906000935b601f1984168510611f3b576001945083601f19811610611f22575b505050811b01600f840155611d68565b015160001960f88460031b161c19169055878080611f12565b81810151835560209485019460019093019290910190611ef7565b909150600f86016000526020600020601f840160051c810160208510611fa2575b90849392915b601f830160051c82018110611f93575050611d39565b60008155859450600101611f7d565b5080611f77565b015190508780611cf2565b9250600e86016000526020600020906000935b601f198416851061200b576001945083601f19811610611ff2575b505050811b01600e840155611d0a565b015160001960f88460031b161c19169055878080611fe2565b81810151835560209485019460019093019290910190611fc7565b909150600e86016000526020600020601f840160051c810160208510612072575b90849392915b601f830160051c82018110612063575050611cdb565b6000815585945060010161204d565b5080612047565b015190508780611c73565b9250600a86016000526020600020906000935b601f19841685106120db576001945083601f198116106120c2575b505050811b01600a840155611c8b565b015160001960f88460031b161c191690558780806120b2565b81810151835560209485019460019093019290910190612097565b909150600a86016000526020600020601f840160051c810160208510612142575b90849392915b601f830160051c82018110612133575050611c5c565b6000815585945060010161211d565b5080612117565b015190508780611bbb565b9250600486016000526020600020906000935b601f19841685106121ab576001945083601f19811610612192575b505050811b016004840155611bd3565b015160001960f88460031b161c19169055878080612182565b81810151835560209485019460019093019290910190612167565b909150600486016000526020600020601f840160051c810160208510612212575b90849392915b601f830160051c82018110612203575050611ba4565b600081558594506001016121ed565b50806121e7565b60405162461bcd60e51b8152602060048201526013602482015272496e76616c69642062656e656669636961727960681b6044820152606490fd5b346102435760003660031901126102435760025460405160089190911c6001600160a01b03168152602090f35b346102435760003660031901126102435761023f6040516122a181612d21565b600c81526b4c555344204d696e74696e6760a01b6020820152604051918291602083526020830190612e41565b3461024357600036600319011261024357602060ff600254166040519015158152f35b34610243576060366003190112610243576044356001600160401b03811161024357612321903690600401612f1c565b9061232a6130c7565b612337602435151561323c565b600435156127905760065460405161238160a08260208101946004358652602435604083015287876060840137878201904260608301526080820152036080810184520182612d57565b5190209060405161014081018181106001600160401b03821117610a965760405282815260208101906004358252604081016024358152606082013381526123ca368887612ed6565b9160808401928352600060a08501524260c0850152600060e085015260006101008501526040516123fa81612d3c565b6000815261012085015286600052600a60205260406000209484518655516001860155516002850155600384019060018060a01b039051166001600160601b0360a01b825416179055518051906001600160401b038211610a965781906124646004860154612ccb565b601f811161273d575b50602090601f83116001146126cb576000926126c0575b50508160011b916000199060031b1c19161760048301555b60a08101519060048210156109b0576124bb6101209260058501613289565b60c0810151600684015560e08101516007840155610100810151600884015501518051906001600160401b038211610a96576124fa6009840154612ccb565b601f8111612679575b50602090601f831160011461260b576009929160009183612600575b50508160011b916000199060031b1c1916179101555b600b5492600160401b841015610a96576001840180600b558410156125ea5782602094600b6000527f0175b7a638427703f0dbe7bb9bbf987a2551717b34e79f33b5b1008d1fa01db90155806040519260243584526060868501528160608501526080840137600060808284010152426040830152827f8de45341a69a372006c2a6108e8d4f807b8b22b774ba887ccb421ad2788610d1339360808160043595601f80199101168101030190a4604051908152f35b634e487b7160e01b600052603260045260246000fd5b01519050878061251f565b90601f198316916009850160005260206000209260005b81811061266157509160019391856009969410612648575b505050811b01910155612535565b015160001960f88460031b161c1916905587808061263a565b92936020600181928786015181550195019301612622565b600984016000526020600020601f840160051c8101602085106126b9575b601f830160051c820181106126ad575050612503565b60008155600101612697565b5080612697565b015190508780612484565b9250600485016000526020600020906000935b601f1984168510612722576001945083601f19811610612709575b505050811b01600483015561249c565b015160001960f88460031b161c191690558780806126f9565b818101518355602094850194600190930192909101906126de565b909150600485016000526020600020601f840160051c810160208510612789575b90849392915b601f830160051c8201811061277a57505061246d565b60008155859450600101612764565b508061275e565b60405162461bcd60e51b815260206004820152600f60248201526e125b9d985b1a59081b1bd8dac81251608a1b6044820152606490fd5b34610243576000366003190112610243576127e061306f565b60025460ff81161561281f5760ff19166002557f5db9ee0a495bf2e6ff9c91a7834c1ba4fdd244a5e8aa4e537bd38aeae4b073aa6020604051338152a1005b604051638dfc202b60e01b8152600490fd5b34610243576000366003190112610243576020604051738de60f88f19dad42dde0d9ed2eeba68269722a998152f35b34610243576000366003190112610243576004600554600654600754602060018060a01b03855416604051958680926318160ddd60e01b82525afa9182156128f9576000926128c5575b60809450604051938452602084015260408301526060820152f35b91506020843d82116128f1575b816128df60209383612d57565b810103126102435760809351916128aa565b3d91506128d2565b6040513d6000823e3d90fd5b34610243576020366003190112610243576004356001600160401b03811161024357366023820112156102435761295f602061294c81933690602481600401359101612ed6565b8160405193828580945193849201612e1e565b8101600c81520301902054604051908152f35b346102435760403660031901126102435761298b612eaa565b336001600160a01b038216036129a757611142906004356131c7565b60405163334bd91960e11b8152600490fd5b3461024357602036600319011261024357600435600b5481101561024357602090600b6000527f0175b7a638427703f0dbe7bb9bbf987a2551717b34e79f33b5b1008d1fa01db90154604051908152f35b3461024357604036600319011261024357611142600435612a29612eaa565b90806000526000602052612a44600160406000200154613123565b613149565b3461024357602036600319011261024357600435600052600860205260806040600020600b8101548015159182612ab3575b82612aa5575b600d600c820154910154916040519315158452602084015260408301526060820152f35b600d81015415159250612a81565b600c81015415159250612a7b565b346102435760203660031901126102435760043560005260006020526020600160406000200154604051908152f35b346102435760203660031901126102435760043560095481101561024357612b19602091612e73565b90546040519160031b1c8152f35b34610243576000366003190112610243576003546040516001600160a01b039091168152602090f35b346102435760003660031901126102435761023f604051612b7081612d21565b601e81527f68747470733a2f2f6578706c6f7265722e6c656d6f6e636861696e2e696f00006020820152604051918291602083526020830190612e41565b3461024357602036600319011261024357600435600052600a6020526040600020805461023f600183015492600281015460018060a01b0360038301541691612bf960048201612d78565b9260ff60058301541693612c5a612c4f600685015492600786015494612c26600960088901549801612d78565b976040519c8d9c8d5260208d015260408c015260608b01526101408060808c01528a0190612e41565b9560a0890190612e66565b60c087015260e0860152610100850152838203610120850152612e41565b34610243576020366003190112610243576004359063ffffffff60e01b821680920361024357602091637965db0b60e01b8114908115612cba575b5015158152f35b6301ffc9a760e01b14905083612cb3565b90600182811c92168015612cfb575b6020831014612ce557565b634e487b7160e01b600052602260045260246000fd5b91607f1691612cda565b6102a081019081106001600160401b03821117610a9657604052565b604081019081106001600160401b03821117610a9657604052565b602081019081106001600160401b03821117610a9657604052565b90601f801991011681019081106001600160401b03821117610a9657604052565b9060405191826000825492612d8c84612ccb565b908184526001948581169081600014612dfb5750600114612db8575b5050612db692500383612d57565b565b9093915060005260209081600020936000915b818310612de3575050612db693508201013880612da8565b85548884018501529485019487945091830191612dcb565b915050612db694506020925060ff191682840152151560051b8201013880612da8565b60005b838110612e315750506000910152565b8181015183820152602001612e21565b90602091612e5a81518092818552858086019101612e1e565b601f01601f1916010190565b9060048210156109b05752565b6009548110156125ea5760096000527f6e1540171b6c0c960b71a7020d9f60077f6af931a8bbf590da0223dacf75c7af0190600090565b602435906001600160a01b038216820361024357565b600435906001600160a01b038216820361024357565b9291926001600160401b038211610a965760405191612eff601f8201601f191660200184612d57565b829481845281830111610243578281602093846000960137010152565b9181601f84011215610243578235916001600160401b038311610243576020838186019501011161024357565b9081518152602082015160208201526040820151604082015260608201516060820152612f8560808301516102a0806080850152830190612e41565b9160a081015160a083015261302c613018612fe360018060a01b03958660c08601511660c08701528660e08601511660e087015261010080860151908701526101208086015190870152610140808601519087830390880152612e41565b610160808501519086015261018080850151908601526101a080850151908601526101c0808501519086830390870152612e41565b6101e0808401519085830390860152612e41565b926102008083015190840152610220808301519084015261024080830151908401526130616102608084015190850190612e66565b610280809201511691015290565b3360009081527fad3228b676f7d3cd4284a5443f17f1962b36e491b30a40b2405849e597ba5fb5602052604081205460ff16156130a95750565b6044906040519063e2517d3f60e01b82523360048301526024820152fd5b3360009081527f0781d7cac9c378efa22a7481e4d4d29704a680ddf504b3bc50b517700ee11e6c60205260409020547f9f2df0fed2c77648de5860a4cc508cd0818c85b8b8a1ab4ceeef8d981c8956a69060ff16156130a95750565b80600052600060205260406000203360005260205260ff60406000205416156130a95750565b9060009180835282602052604083209160018060a01b03169182845260205260ff604084205416156000146131c257808352826020526040832082845260205260408320600160ff198254161790557f2f8788117e7eff1d82e926ec794901d17c78024a50270940304540a733656f0d339380a4600190565b505090565b9060009180835282602052604083209160018060a01b03169182845260205260ff6040842054166000146131c25780835282602052604083208284526020526040832060ff1981541690557ff6391f5c32d9c69d2a47ea670b442974b53935d1edc7fd64eb21e047a839171b339380a4600190565b1561324357565b60405162461bcd60e51b81526020600482015260126024820152710416d6f756e74206d757374206265203e20360741b6044820152606490fd5b60048210156109b05752565b9060048110156109b05760ff80198354169116179055565b600954600160401b811015610a96578060016132c09201600955612e73565b819291549060031b91821b91600019901b1916179055565b156132df57565b60405162461bcd60e51b815260206004820152601060248201526f1516081a185cda081c995c5d5a5c995960821b6044820152606490fd5b9160b09694939183526020830152604082015261333e825180936020606085019101612e1e565b01916001600160601b03199060601b16606083015260748201527f4c5553445f46494e414c5f4d494e54494e475f5349474e41545552450000000060948201520190565b6060949291815261339c8251809360208085019101612e1e565b0191602083015260408201520190565b919082018092116113d057565b60001981146113d05760010190565b6133e060409295949395606083526060830190612e41565b9460208201520152565b949198979693909261340760e09794610100808952880190612e41565b602087019a909a5260408601526001600160a01b03166060850152608084015260a083015260c08201520152565b600260015414613446576002600155565b604051633ee5aeb560e01b8152600490fd5b9081518110156125ea570160200190565b919091600754604051926020948585019384526040850152606084015260808301524460a083015260a0825260c08201908282106001600160401b03831117610a965760e0908260405283519020926134c183612d21565b60108352019183368437604051906134d882612d21565b601082526f181899199a1a9b1b9c1ca0a121a222a360811b8583015260005b6008811061353d57505050635055422d60e01b9261353a9261352a60249360405196879485015251809285850190612e1e565b8101036004810184520182612d57565b90565b858110156125ea576001600160f81b031982821a60048261356383831c60ff1688613458565b51169260019285841b94868604600214871517156135d75761359791600f9160001a61358f888d613458565b531688613458565b51169183018093116135c25750906135b76135bd939260001a9187613458565b536133b9565b6134f7565b601190634e487b7160e01b6000525260246000fd5b601184634e487b7160e01b6000525260246000fd5b604051906135f982612d05565b81610280600091828152826020820152826040820152826060820152606060808201528260a08201528260c08201528260e0820152826101008201528261012082015260606101408201528261016082015282610180820152826101a082015260606101c082015260606101e0820152826102008201528261022082015282610240820152826102608201520152565b6001600160401b038111610a965760051b60200190565b80518210156125ea5760209160051b010190565b156136bb57565b60405162461bcd60e51b815260206004820152600f60248201526e496e76616c6964206164647265737360881b6044820152606490fdfea2646970667358221220a80afa7addff5e7e66b0255105f550fd1ec90d1af29071a46a264bec067e0ca664736f6c634300081400332f8788117e7eff1d82e926ec794901d17c78024a50270940304540a733656f0d",
  "linkReferences": {},
  "deployedLinkReferences": {},
  "immutableReferences": {},
  "inputSourceName": "project/contracts/DCBTreasury/v3/LUSDMinting.sol",
  "buildInfoId": "solc-0_8_20-a1c61539025f0654ad3a75bdb2b55239eb68e7f3"
}