{
  "_format": "hh3-artifact-1",
  "contractName": "USDLockBox",
  "sourceName": "contracts/DCBTreasury/USDLockBox.sol",
  "abi": [
    {
      "inputs": [],
      "stateMutability": "nonpayable",
      "type": "constructor"
    },
    {
      "inputs": [],
      "name": "AccessControlBadConfirmation",
      "type": "error"
    },
    {
      "inputs": [
        {
          "internalType": "address",
          "name": "account",
          "type": "address"
        },
        {
          "internalType": "bytes32",
          "name": "neededRole",
          "type": "bytes32"
        }
      ],
      "name": "AccessControlUnauthorizedAccount",
      "type": "error"
    },
    {
      "inputs": [],
      "name": "ECDSAInvalidSignature",
      "type": "error"
    },
    {
      "inputs": [
        {
          "internalType": "uint256",
          "name": "length",
          "type": "uint256"
        }
      ],
      "name": "ECDSAInvalidSignatureLength",
      "type": "error"
    },
    {
      "inputs": [
        {
          "internalType": "bytes32",
          "name": "s",
          "type": "bytes32"
        }
      ],
      "name": "ECDSAInvalidSignatureS",
      "type": "error"
    },
    {
      "inputs": [],
      "name": "InvalidShortString",
      "type": "error"
    },
    {
      "inputs": [
        {
          "internalType": "string",
          "name": "str",
          "type": "string"
        }
      ],
      "name": "StringTooLong",
      "type": "error"
    },
    {
      "anonymous": false,
      "inputs": [],
      "name": "EIP712DomainChanged",
      "type": "event"
    },
    {
      "anonymous": false,
      "inputs": [
        {
          "indexed": true,
          "internalType": "bytes32",
          "name": "lockId",
          "type": "bytes32"
        },
        {
          "indexed": false,
          "internalType": "address",
          "name": "bankSigner",
          "type": "address"
        }
      ],
      "name": "LockApproved",
      "type": "event"
    },
    {
      "anonymous": false,
      "inputs": [
        {
          "indexed": true,
          "internalType": "bytes32",
          "name": "lockId",
          "type": "bytes32"
        }
      ],
      "name": "LockCanceled",
      "type": "event"
    },
    {
      "anonymous": false,
      "inputs": [
        {
          "indexed": true,
          "internalType": "bytes32",
          "name": "lockId",
          "type": "bytes32"
        },
        {
          "indexed": false,
          "internalType": "uint256",
          "name": "lusdMinted",
          "type": "uint256"
        }
      ],
      "name": "LockConsumed",
      "type": "event"
    },
    {
      "anonymous": false,
      "inputs": [
        {
          "indexed": true,
          "internalType": "bytes32",
          "name": "lockId",
          "type": "bytes32"
        },
        {
          "indexed": true,
          "internalType": "bytes32",
          "name": "bankId",
          "type": "bytes32"
        },
        {
          "indexed": false,
          "internalType": "uint256",
          "name": "amount",
          "type": "uint256"
        }
      ],
      "name": "LockRequested",
      "type": "event"
    },
    {
      "anonymous": false,
      "inputs": [
        {
          "indexed": true,
          "internalType": "bytes32",
          "name": "role",
          "type": "bytes32"
        },
        {
          "indexed": true,
          "internalType": "bytes32",
          "name": "previousAdminRole",
          "type": "bytes32"
        },
        {
          "indexed": true,
          "internalType": "bytes32",
          "name": "newAdminRole",
          "type": "bytes32"
        }
      ],
      "name": "RoleAdminChanged",
      "type": "event"
    },
    {
      "anonymous": false,
      "inputs": [
        {
          "indexed": true,
          "internalType": "bytes32",
          "name": "role",
          "type": "bytes32"
        },
        {
          "indexed": true,
          "internalType": "address",
          "name": "account",
          "type": "address"
        },
        {
          "indexed": true,
          "internalType": "address",
          "name": "sender",
          "type": "address"
        }
      ],
      "name": "RoleGranted",
      "type": "event"
    },
    {
      "anonymous": false,
      "inputs": [
        {
          "indexed": true,
          "internalType": "bytes32",
          "name": "role",
          "type": "bytes32"
        },
        {
          "indexed": true,
          "internalType": "address",
          "name": "account",
          "type": "address"
        },
        {
          "indexed": true,
          "internalType": "address",
          "name": "sender",
          "type": "address"
        }
      ],
      "name": "RoleRevoked",
      "type": "event"
    },
    {
      "inputs": [],
      "name": "APPROVER_ROLE",
      "outputs": [
        {
          "internalType": "bytes32",
          "name": "",
          "type": "bytes32"
        }
      ],
      "stateMutability": "view",
      "type": "function"
    },
    {
      "inputs": [],
      "name": "BANK_SIGNER_ROLE",
      "outputs": [
        {
          "internalType": "bytes32",
          "name": "",
          "type": "bytes32"
        }
      ],
      "stateMutability": "view",
      "type": "function"
    },
    {
      "inputs": [],
      "name": "DAES_SIGNER_ROLE",
      "outputs": [
        {
          "internalType": "bytes32",
          "name": "",
          "type": "bytes32"
        }
      ],
      "stateMutability": "view",
      "type": "function"
    },
    {
      "inputs": [],
      "name": "DEFAULT_ADMIN_ROLE",
      "outputs": [
        {
          "internalType": "bytes32",
          "name": "",
          "type": "bytes32"
        }
      ],
      "stateMutability": "view",
      "type": "function"
    },
    {
      "inputs": [],
      "name": "ISSUER_ROLE",
      "outputs": [
        {
          "internalType": "bytes32",
          "name": "",
          "type": "bytes32"
        }
      ],
      "stateMutability": "view",
      "type": "function"
    },
    {
      "inputs": [],
      "name": "LOCK_TYPEHASH",
      "outputs": [
        {
          "internalType": "bytes32",
          "name": "",
          "type": "bytes32"
        }
      ],
      "stateMutability": "view",
      "type": "function"
    },
    {
      "inputs": [
        {
          "internalType": "bytes32",
          "name": "lockId",
          "type": "bytes32"
        },
        {
          "internalType": "bytes",
          "name": "bankSignature",
          "type": "bytes"
        },
        {
          "internalType": "uint256",
          "name": "deadline",
          "type": "uint256"
        }
      ],
      "name": "approveLock",
      "outputs": [],
      "stateMutability": "nonpayable",
      "type": "function"
    },
    {
      "inputs": [
        {
          "internalType": "bytes32",
          "name": "lockId",
          "type": "bytes32"
        }
      ],
      "name": "cancelLock",
      "outputs": [],
      "stateMutability": "nonpayable",
      "type": "function"
    },
    {
      "inputs": [
        {
          "internalType": "bytes32",
          "name": "lockId",
          "type": "bytes32"
        },
        {
          "internalType": "uint256",
          "name": "lusdAmount",
          "type": "uint256"
        }
      ],
      "name": "consumeLock",
      "outputs": [],
      "stateMutability": "nonpayable",
      "type": "function"
    },
    {
      "inputs": [],
      "name": "eip712Domain",
      "outputs": [
        {
          "internalType": "bytes1",
          "name": "fields",
          "type": "bytes1"
        },
        {
          "internalType": "string",
          "name": "name",
          "type": "string"
        },
        {
          "internalType": "string",
          "name": "version",
          "type": "string"
        },
        {
          "internalType": "uint256",
          "name": "chainId",
          "type": "uint256"
        },
        {
          "internalType": "address",
          "name": "verifyingContract",
          "type": "address"
        },
        {
          "internalType": "bytes32",
          "name": "salt",
          "type": "bytes32"
        },
        {
          "internalType": "uint256[]",
          "name": "extensions",
          "type": "uint256[]"
        }
      ],
      "stateMutability": "view",
      "type": "function"
    },
    {
      "inputs": [],
      "name": "getAllLocks",
      "outputs": [
        {
          "components": [
            {
              "internalType": "bytes32",
              "name": "lockId",
              "type": "bytes32"
            },
            {
              "internalType": "bytes32",
              "name": "bankId",
              "type": "bytes32"
            },
            {
              "internalType": "address",
              "name": "custodyVault",
              "type": "address"
            },
            {
              "internalType": "uint256",
              "name": "amount",
              "type": "uint256"
            },
            {
              "internalType": "uint256",
              "name": "requestedAt",
              "type": "uint256"
            },
            {
              "internalType": "uint256",
              "name": "lockedAt",
              "type": "uint256"
            },
            {
              "internalType": "uint256",
              "name": "consumedAt",
              "type": "uint256"
            },
            {
              "internalType": "string",
              "name": "isoReference",
              "type": "string"
            },
            {
              "internalType": "enum USDLockBox.LockStatus",
              "name": "status",
              "type": "uint8"
            },
            {
              "internalType": "address",
              "name": "bankSigner",
              "type": "address"
            },
            {
              "internalType": "address",
              "name": "daesSigner",
              "type": "address"
            },
            {
              "internalType": "uint256",
              "name": "approvedLUSD",
              "type": "uint256"
            }
          ],
          "internalType": "struct USDLockBox.Lock[]",
          "name": "",
          "type": "tuple[]"
        }
      ],
      "stateMutability": "view",
      "type": "function"
    },
    {
      "inputs": [],
      "name": "getDomainSeparator",
      "outputs": [
        {
          "internalType": "bytes32",
          "name": "",
          "type": "bytes32"
        }
      ],
      "stateMutability": "view",
      "type": "function"
    },
    {
      "inputs": [
        {
          "internalType": "bytes32",
          "name": "lockId",
          "type": "bytes32"
        }
      ],
      "name": "getLock",
      "outputs": [
        {
          "components": [
            {
              "internalType": "bytes32",
              "name": "lockId",
              "type": "bytes32"
            },
            {
              "internalType": "bytes32",
              "name": "bankId",
              "type": "bytes32"
            },
            {
              "internalType": "address",
              "name": "custodyVault",
              "type": "address"
            },
            {
              "internalType": "uint256",
              "name": "amount",
              "type": "uint256"
            },
            {
              "internalType": "uint256",
              "name": "requestedAt",
              "type": "uint256"
            },
            {
              "internalType": "uint256",
              "name": "lockedAt",
              "type": "uint256"
            },
            {
              "internalType": "uint256",
              "name": "consumedAt",
              "type": "uint256"
            },
            {
              "internalType": "string",
              "name": "isoReference",
              "type": "string"
            },
            {
              "internalType": "enum USDLockBox.LockStatus",
              "name": "status",
              "type": "uint8"
            },
            {
              "internalType": "address",
              "name": "bankSigner",
              "type": "address"
            },
            {
              "internalType": "address",
              "name": "daesSigner",
              "type": "address"
            },
            {
              "internalType": "uint256",
              "name": "approvedLUSD",
              "type": "uint256"
            }
          ],
          "internalType": "struct USDLockBox.Lock",
          "name": "",
          "type": "tuple"
        }
      ],
      "stateMutability": "view",
      "type": "function"
    },
    {
      "inputs": [],
      "name": "getLockCount",
      "outputs": [
        {
          "internalType": "uint256",
          "name": "",
          "type": "uint256"
        }
      ],
      "stateMutability": "view",
      "type": "function"
    },
    {
      "inputs": [
        {
          "internalType": "enum USDLockBox.LockStatus",
          "name": "status",
          "type": "uint8"
        }
      ],
      "name": "getLocksByStatus",
      "outputs": [
        {
          "components": [
            {
              "internalType": "bytes32",
              "name": "lockId",
              "type": "bytes32"
            },
            {
              "internalType": "bytes32",
              "name": "bankId",
              "type": "bytes32"
            },
            {
              "internalType": "address",
              "name": "custodyVault",
              "type": "address"
            },
            {
              "internalType": "uint256",
              "name": "amount",
              "type": "uint256"
            },
            {
              "internalType": "uint256",
              "name": "requestedAt",
              "type": "uint256"
            },
            {
              "internalType": "uint256",
              "name": "lockedAt",
              "type": "uint256"
            },
            {
              "internalType": "uint256",
              "name": "consumedAt",
              "type": "uint256"
            },
            {
              "internalType": "string",
              "name": "isoReference",
              "type": "string"
            },
            {
              "internalType": "enum USDLockBox.LockStatus",
              "name": "status",
              "type": "uint8"
            },
            {
              "internalType": "address",
              "name": "bankSigner",
              "type": "address"
            },
            {
              "internalType": "address",
              "name": "daesSigner",
              "type": "address"
            },
            {
              "internalType": "uint256",
              "name": "approvedLUSD",
              "type": "uint256"
            }
          ],
          "internalType": "struct USDLockBox.Lock[]",
          "name": "",
          "type": "tuple[]"
        }
      ],
      "stateMutability": "view",
      "type": "function"
    },
    {
      "inputs": [
        {
          "internalType": "bytes32",
          "name": "role",
          "type": "bytes32"
        }
      ],
      "name": "getRoleAdmin",
      "outputs": [
        {
          "internalType": "bytes32",
          "name": "",
          "type": "bytes32"
        }
      ],
      "stateMutability": "view",
      "type": "function"
    },
    {
      "inputs": [
        {
          "internalType": "bytes32",
          "name": "role",
          "type": "bytes32"
        },
        {
          "internalType": "address",
          "name": "account",
          "type": "address"
        }
      ],
      "name": "grantRole",
      "outputs": [],
      "stateMutability": "nonpayable",
      "type": "function"
    },
    {
      "inputs": [
        {
          "internalType": "bytes32",
          "name": "role",
          "type": "bytes32"
        },
        {
          "internalType": "address",
          "name": "account",
          "type": "address"
        }
      ],
      "name": "hasRole",
      "outputs": [
        {
          "internalType": "bool",
          "name": "",
          "type": "bool"
        }
      ],
      "stateMutability": "view",
      "type": "function"
    },
    {
      "inputs": [
        {
          "internalType": "uint256",
          "name": "",
          "type": "uint256"
        }
      ],
      "name": "lockIds",
      "outputs": [
        {
          "internalType": "bytes32",
          "name": "",
          "type": "bytes32"
        }
      ],
      "stateMutability": "view",
      "type": "function"
    },
    {
      "inputs": [
        {
          "internalType": "bytes32",
          "name": "",
          "type": "bytes32"
        }
      ],
      "name": "locks",
      "outputs": [
        {
          "internalType": "bytes32",
          "name": "lockId",
          "type": "bytes32"
        },
        {
          "internalType": "bytes32",
          "name": "bankId",
          "type": "bytes32"
        },
        {
          "internalType": "address",
          "name": "custodyVault",
          "type": "address"
        },
        {
          "internalType": "uint256",
          "name": "amount",
          "type": "uint256"
        },
        {
          "internalType": "uint256",
          "name": "requestedAt",
          "type": "uint256"
        },
        {
          "internalType": "uint256",
          "name": "lockedAt",
          "type": "uint256"
        },
        {
          "internalType": "uint256",
          "name": "consumedAt",
          "type": "uint256"
        },
        {
          "internalType": "string",
          "name": "isoReference",
          "type": "string"
        },
        {
          "internalType": "enum USDLockBox.LockStatus",
          "name": "status",
          "type": "uint8"
        },
        {
          "internalType": "address",
          "name": "bankSigner",
          "type": "address"
        },
        {
          "internalType": "address",
          "name": "daesSigner",
          "type": "address"
        },
        {
          "internalType": "uint256",
          "name": "approvedLUSD",
          "type": "uint256"
        }
      ],
      "stateMutability": "view",
      "type": "function"
    },
    {
      "inputs": [
        {
          "internalType": "bytes32",
          "name": "role",
          "type": "bytes32"
        },
        {
          "internalType": "address",
          "name": "callerConfirmation",
          "type": "address"
        }
      ],
      "name": "renounceRole",
      "outputs": [],
      "stateMutability": "nonpayable",
      "type": "function"
    },
    {
      "inputs": [
        {
          "internalType": "bytes32",
          "name": "bankId",
          "type": "bytes32"
        },
        {
          "internalType": "address",
          "name": "custodyVault",
          "type": "address"
        },
        {
          "internalType": "uint256",
          "name": "amount",
          "type": "uint256"
        },
        {
          "internalType": "string",
          "name": "isoReference",
          "type": "string"
        }
      ],
      "name": "requestLock",
      "outputs": [
        {
          "internalType": "bytes32",
          "name": "",
          "type": "bytes32"
        }
      ],
      "stateMutability": "nonpayable",
      "type": "function"
    },
    {
      "inputs": [
        {
          "internalType": "bytes32",
          "name": "role",
          "type": "bytes32"
        },
        {
          "internalType": "address",
          "name": "account",
          "type": "address"
        }
      ],
      "name": "revokeRole",
      "outputs": [],
      "stateMutability": "nonpayable",
      "type": "function"
    },
    {
      "inputs": [
        {
          "internalType": "bytes4",
          "name": "interfaceId",
          "type": "bytes4"
        }
      ],
      "name": "supportsInterface",
      "outputs": [
        {
          "internalType": "bool",
          "name": "",
          "type": "bool"
        }
      ],
      "stateMutability": "view",
      "type": "function"
    },
    {
      "inputs": [],
      "name": "totalConsumed",
      "outputs": [
        {
          "internalType": "uint256",
          "name": "",
          "type": "uint256"
        }
      ],
      "stateMutability": "view",
      "type": "function"
    },
    {
      "inputs": [],
      "name": "totalLocked",
      "outputs": [
        {
          "internalType": "uint256",
          "name": "",
          "type": "uint256"
        }
      ],
      "stateMutability": "view",
      "type": "function"
    }
  ],
  "bytecode": "0x610160604090808252346200019d576200001981620001a2565b6014815260208101907f444342205472656173757279204c6f636b426f7800000000000000000000000082528251926200005384620001a2565b6001845260208401603160f81b81526200006d83620004b7565b936101209485526200007f866200068e565b93610140948552519020948560e05251902093610100948086524660a05282519060208201927f8b73c3c69bb8fe3d512ecc4cf759cc79239f7b179b0ffacaa9a75d522b39400f84528483015260608201524660808201523060a082015260a0815260c0810181811060018060401b03821117620001875783525190206080523060c0526200010e33620001be565b506200011a336200023e565b506200012633620002e0565b5062000132336200037d565b506200013e336200041a565b505191611f09938462000847853960805184611d13015260a05184611ddf015260c05184611cdd015260e05184611d6201525183611d88015251826105b6015251816105df0152f35b634e487b7160e01b600052604160045260246000fd5b600080fd5b604081019081106001600160401b038211176200018757604052565b6001600160a01b031660008181527fad3228b676f7d3cd4284a5443f17f1962b36e491b30a40b2405849e597ba5fb5602052604081205490919060ff166200023a57818052816020526040822081835260205260408220600160ff198254161790553391600080516020620027508339815191528180a4600190565b5090565b6001600160a01b031660008181527fbafef967d7d96742165ad769fbd2c8b2cd228c2e43a17a49140676dceeb3819960205260408120549091907f18c91702cf6781978f804a614ca001d6704b85525053161d5a209ec0a4df07099060ff16620002db57808352826020526040832082845260205260408320600160ff1982541617905560008051602062002750833981519152339380a4600190565b505090565b6001600160a01b031660008181527fcefb586a0ed0961e847f663f5a44275b6176cbaf6900621847bec0cbf47895f360205260408120549091907f10cb5ac71c54fdb759e82bbde508aef641fc4bad70051952915c8eff4693152a9060ff16620002db57808352826020526040832082845260205260408320600160ff1982541617905560008051602062002750833981519152339380a4600190565b6001600160a01b031660008181527ff9c002f57bb53b4d861ae1ef1369a8087d06c8210e4846f897918d0e534663ce60205260408120549091907f114e74f6ea3bd819998f78687bfcb11b140da08e9b7d222fa9c1f1ba1f2aa1229060ff16620002db57808352826020526040832082845260205260408320600160ff1982541617905560008051602062002750833981519152339380a4600190565b6001600160a01b031660008181527f388301e6ac71f158ac8b29c21de3d490adc31828b570ec3663983f6bee199fa060205260408120549091907f408a36151f841709116a4e8aca4e0202874f7f54687dcb863b1ea4672dc9d8cf9060ff16620002db57808352826020526040832082845260205260408320600160ff1982541617905560008051602062002750833981519152339380a4600190565b805160209081811015620005545750601f825111620004f35780825192015190808310620004e457501790565b82600019910360031b1b161790565b90604051809263305a27a960e01b82528060048301528251908160248401526000935b8285106200053a575050604492506000838284010152601f80199101168101030190fd5b848101820151868601604401529381019385935062000516565b9192916001600160401b038111620001875760019182548381811c9116801562000683575b828210146200066d57601f811162000634575b5080601f8311600114620005cc575081929394600092620005c0575b5050600019600383901b1c191690821b17905560ff90565b015190503880620005a8565b90601f198316958460005282600020926000905b8882106200061c575050838596971062000602575b505050811b01905560ff90565b015160001960f88460031b161c19169055388080620005f5565b808785968294968601518155019501930190620005e0565b8360005283601f83600020920160051c820191601f850160051c015b828110620006605750506200058c565b6000815501849062000650565b634e487b7160e01b600052602260045260246000fd5b90607f169062000579565b8051602090818110156200071c5750601f825111620006bb5780825192015190808310620004e457501790565b90604051809263305a27a960e01b82528060048301528251908160248401526000935b82851062000702575050604492506000838284010152601f80199101168101030190fd5b8481018201518686016044015293810193859350620006de565b906001600160401b0382116200018757600254926001938481811c911680156200083b575b838210146200066d57601f811162000801575b5081601f841160011462000795575092829391839260009462000789575b50501b916000199060031b1c19161760025560ff90565b01519250388062000772565b919083601f198116600260005284600020946000905b88838310620007e65750505010620007cc575b505050811b0160025560ff90565b015160001960f88460031b161c19169055388080620007be565b858701518855909601959485019487935090810190620007ab565b600260005284601f84600020920160051c820191601f860160051c015b8281106200082e57505062000754565b600081550185906200081e565b90607f16906200074156fe608080604052600436101561001357600080fd5b60e090600035821c90816301ffc9a7146114b1575080631000d009146114935780631999362414611072578063248a9ca3146110435780632f2ff15d14611004578063319f33d014610fc957806336568abe14610f825780634245962b14610f475780635689141214610f295780637458f50414610dc257806374f8bffa14610bdd57806379f46f3a146108ad5780637ae49421146108725780637bbb86ee146106fb57806382aefa24146106c057806384b0196e1461059f57806391d148541461055257806394493c4314610534578063a217fddf14610518578063aa7c9644146104e1578063b2924620146104a6578063d547741f14610465578063d6f27b5814610375578063ed24911d14610352578063ed5e84371461026c5763ffa2fd021461013f57600080fd5b346102675760003660031901126102675760045461015c81611e60565b9160005b82811061017957604051806101758682611634565b0390f35b8061018661026292611696565b9054600391821b1c600052600a602091808352604060002090604051936101ac856117b3565b8254855260018301549085015260018060a01b0390816002840154166040860152820154606085015260048201546080850152600582015460a0850152600682015460c085015260405161020e81610207816007870161171d565b03826117ec565b87850152806008808401549061022b60ff83166101008901611b3a565b1c1661012085015260098201541661014084015201546101608201526102518287611ebf565b5261025c8186611ebf565b50611eb0565b610160565b600080fd5b5034610267576020366003190112610267576020906004356000526003825260406000209081549160018101549060018060a01b03610326816002840154169460038401549060048501546005860154600687015491604051946102de866102d78160078d0161171d565b03876117ec565b60088901549a600a8960098c0154169a01549a6040519e8f9e8f908152015260408d015260608c015260808b015260a08a015260c08901526101808091890152870190611548565b93610338610100870160ff8316611588565b60081c166101208501526101408401526101608301520390f35b3461026757600036600319011261026757602061036d611cda565b604051908152f35b50346102675760203660031901126102675761017590610393611e05565b506004356000526003602052600a6040600020604051926103b3846117b3565b815484526001820154602085015260018060a01b03908160028401541660408601526003830154606086015260048301546080860152600583015460a0860152600683015460c08601526040519061041982610412816007880161171d565b03836117ec565b85015280600883015461043360ff82166101008801611b3a565b60081c166101208501526009820154166101408401520154610160820152604051918291602083526020830190611595565b34610267576040366003190112610267576104a4600435610484611504565b9080600052600060205261049f60016040600020015461180e565b6118b2565b005b346102675760003660031901126102675760206040517f77a23ac99d9c7b03439b65f74a196842ea43c96d1df9ee089af369e47016f36a8152f35b34610267576020366003190112610267576004356004548110156102675761050a602091611696565b90546040519160031b1c8152f35b3461026757600036600319011261026757602060405160008152f35b34610267576000366003190112610267576020600454604051908152f35b346102675760403660031901126102675761056b611504565b600435600052600060205260406000209060018060a01b0316600052602052602060ff604060002054166040519015158152f35b5034610267576000366003190112610267576105da7f000000000000000000000000000000000000000000000000000000000000000061193f565b6106037f0000000000000000000000000000000000000000000000000000000000000000611a39565b604051906020908183019383851067ffffffffffffffff8611176106aa579493929061065d8391856040526000845261064f604051988998600f60f81b8a5280868b0152890190611548565b908782036040890152611548565b91466060870152306080870152600060a087015285830360c0870152519182815201929160005b82811061069357505050500390f35b835185528695509381019392810192600101610684565b634e487b7160e01b600052604160045260246000fd5b346102675760003660031901126102675760206040517f114e74f6ea3bd819998f78687bfcb11b140da08e9b7d222fa9c1f1ba1f2aa1228152f35b34610267576040366003190112610267573360009081527ff9c002f57bb53b4d861ae1ef1369a8087d06c8210e4846f897918d0e534663ce602052604090205460043590602435907f114e74f6ea3bd819998f78687bfcb11b140da08e9b7d222fa9c1f1ba1f2aa1229060ff16156108545750816000526003602052604060002061078881541515611b46565b600881019182549260ff8416600581101561083e576002036107f95760036020936107ed92827f4a001d8c7b412bf3a632cadfb20e28a727d3c9bdefc580ad046b4babec89b28f9760ff191617905542600682015583600a8201550154600654611b92565b600655604051908152a2005b60405162461bcd60e51b815260206004820152601a60248201527f4c6f636b426f783a206c6f636b206e6f7420617070726f7665640000000000006044820152606490fd5b634e487b7160e01b600052602160045260246000fd5b6044906040519063e2517d3f60e01b82523360048301526024820152fd5b346102675760003660031901126102675760206040517f18c91702cf6781978f804a614ca001d6704b85525053161d5a209ec0a4df07098152f35b5034610267576060366003190112610267576004359067ffffffffffffffff602435818111610267576108e490369060040161151a565b3360009081527fcefb586a0ed0961e847f663f5a44275b6176cbaf6900621847bec0cbf47895f360209081526040909120549094907f10cb5ac71c54fdb759e82bbde508aef641fc4bad70051952915c8eff4693152a9060ff16156108545750856000526003855260406000209161095e83541515611b46565b600883019182549160ff8316600581101561083e57600103610b98576044354211610b535788908860018701549760018060a01b03948560028a0154169960038a01549a60076109b88c610207604051809481930161171d565b85815191012091604051958601977f77a23ac99d9c7b03439b65f74a196842ea43c96d1df9ee089af369e47016f36a89526040870152606086015260808501528a60a085015260443560c0850152818401528252610100820199828b10908b11176106aa576042610a5f94610a5993610a689c604052519020610a39611cda565b906040519161190160f01b83526002830152602282015220923691611af3565b90611b9f565b90979197611c6b565b7f18c91702cf6781978f804a614ca001d6704b85525053161d5a209ec0a4df070960005260008752604060002095169485600052865260ff6040600020541615610b0e57610b02927f3ee4ec051365c8cfe6e1faa89f7a23d8e3f0556bda3c073be4ebf9a2e3ff121f96959492600260099360ff191617905542600582015501336001600160601b0360a01b825416179055600554611b92565b600555604051908152a2005b60405162461bcd60e51b815260048101879052601f60248201527f4c6f636b426f783a20696e76616c69642062616e6b207369676e6174757265006044820152606490fd5b60405162461bcd60e51b815260048101899052601a60248201527f4c6f636b426f783a207369676e617475726520657870697265640000000000006044820152606490fd5b60405162461bcd60e51b815260048101899052601c60248201527f4c6f636b426f783a20696e76616c6964206c6f636b20737461747573000000006044820152606490fd5b5034610267576020908160031936011261026757600435600580821015938461026757600454926000805b858110610d685750610c1990611e60565b9460009260005b868110610c3557604051806101758a82611634565b610c3e81611696565b9054600391821b1c60005280835260ff8a600892828460406000200154169161083e578982101561083e57878a9214610c84575b50505050610c7f90611eb0565b610c20565b849892610d5e9492600a92610c9b610c7f98611696565b905490821b1c60005280895260406000209260405195610cba876117b3565b8454875260018501548b88015260018060a01b039384938460028801541660408a015286015460608901526004860154608089015285015460a0880152600685015460c0880152604051610d15816102078160078a0161171d565b8c880152610d2d818601549283166101008901611b3a565b1c166101208501526009820154166101408401520154610160820152610d53828c611ebf565b5261025c818b611ebf565b9490388781610c72565b610d7181611696565b9054600391821b1c60005284528760ff600860406000200154169061083e578581101561083e578314610dad575b610da890611eb0565b610c08565b90610dba610da891611eb0565b919050610d9f565b34610267576020366003190112610267573360009081527f388301e6ac71f158ac8b29c21de3d490adc31828b570ec3663983f6bee199fa06020526040902054600435907f408a36151f841709116a4e8aca4e0202874f7f54687dcb863b1ea4672dc9d8cf9060ff161561085457508060005260036020526040600020610e4b81541515611b46565b600881019060ff82541660058110158061083e57600182148015610f1c575b15610ede5761083e57600214610eae575b50805460ff191660041790557f038a3441dc65a4430218e1dc20e1e7f3c933b8a39a52f77297b5e3ad37d239de600080a2005b60030154600554908103908111610ec85760055582610e7b565b634e487b7160e01b600052601160045260246000fd5b60405162461bcd60e51b8152602060048201526016602482015275131bd8dad09bde0e8818d85b9b9bdd0818d85b98d95b60521b6044820152606490fd5b5050600060028214610e6a565b34610267576000366003190112610267576020600554604051908152f35b346102675760003660031901126102675760206040517f408a36151f841709116a4e8aca4e0202874f7f54687dcb863b1ea4672dc9d8cf8152f35b3461026757604036600319011261026757610f9b611504565b336001600160a01b03821603610fb7576104a4906004356118b2565b60405163334bd91960e11b8152600490fd5b346102675760003660031901126102675760206040517f10cb5ac71c54fdb759e82bbde508aef641fc4bad70051952915c8eff4693152a8152f35b34610267576040366003190112610267576104a4600435611023611504565b9080600052600060205261103e60016040600020015461180e565b611834565b346102675760203660031901126102675760043560005260006020526020600160406000200154604051908152f35b50346102675760803660031901126102675761108c611504565b9060643567ffffffffffffffff8111610267576110ad90369060040161151a565b3360009081527fbafef967d7d96742165ad769fbd2c8b2cd228c2e43a17a49140676dceeb3819960205260409020549192917f18c91702cf6781978f804a614ca001d6704b85525053161d5a209ec0a4df07099060ff16156108545750604051602081019060043582526001600160601b03198660601b16604082015260443560548201524260748201528285609483013761115c6094828581016000838201520360748101845201826117ec565b5190209283600052600360205260406000205461144e576111c09160405195611184876117b3565b85875260043560208801526001600160a01b031660408701526044356060870152426080870152600060a0870181905260c08701523691611af3565b818401526001610100840152336101208401526000610140840152600061016084015281600052600360205260406000209083518255602084015160018301556002820160018060a01b036040860151166001600160601b0360a01b825416179055606084015160038301556080840151600483015560a0840151600583015560c0840151600683015583015192835167ffffffffffffffff81116106aa5761126c60078401546116e3565b601f8111611407575b506020601f821160011461139857819293949560009261138d575b50508160011b916000199060031b1c19161760078301555b6101008101516008830191600582101561083e578261016092600a945460ff610100600160a81b0361012086015160081b169216906affffffffffffffffffffff60a81b16171790556009840160018060a01b03610140830151166001600160601b0360a01b825416179055015191015560045490680100000000000000008210156106aa5761134082600160209401600455611696565b81549060031b9083821b91600019901b19161790556040516044358152817fd0f68cc201f7760f9d48592f148b8034f0a5a95d7ca61abd74ea394c8c1a07828460043593a3604051908152f35b015190503880611290565b6007840160005260206000209060005b601f19841681106113ef575060019394959683601f198116106113d6575b505050811b0160078301556112a8565b015160001960f88460031b161c191690553880806113c6565b9091602060018192858b0151815501930191016113a8565b600784016000526020600020601f830160051c810160208410611447575b601f830160051c8201811061143b575050611275565b60008155600101611425565b5080611425565b60405162461bcd60e51b815260206004820152601c60248201527f4c6f636b426f783a206c6f636b20616c726561647920657869737473000000006044820152606490fd5b34610267576000366003190112610267576020600654604051908152f35b34610267576020366003190112610267576004359063ffffffff60e01b821680920361026757602091637965db0b60e01b81149081156114f3575b5015158152f35b6301ffc9a760e01b149050836114ec565b602435906001600160a01b038216820361026757565b9181601f840112156102675782359167ffffffffffffffff8311610267576020838186019501011161026757565b919082519283825260005b848110611574575050826000602080949584010152601f8019910116010190565b602081830181015184830182015201611553565b90600582101561083e5752565b90815181526020820151602082015260018060a01b0391826040820151166040830152606081015160608301526080810151608083015260a081015160a083015260c081015160c08301526115f960e08201516101808060e0860152840190611548565b9261160d6101008084015190850190611588565b61012081818401511690840152610140908183015116908301526101608091015191015290565b602080820190808352835180925260408301928160408460051b8301019501936000915b8483106116685750505050505090565b9091929394958480611686600193603f198682030187528a51611595565b9801930193019194939290611658565b6004548110156116cd5760046000527f8a35acfbc15ff81a39ae7d344fd709f28e8600b4aa8c65c6b64bfe7fe36bd19b0190600090565b634e487b7160e01b600052603260045260246000fd5b90600182811c92168015611713575b60208310146116fd57565b634e487b7160e01b600052602260045260246000fd5b91607f16916116f2565b906000929180549161172e836116e3565b9182825260019384811690816000146117905750600114611750575b50505050565b90919394506000526020928360002092846000945b83861061177c57505050500101903880808061174a565b805485870183015294019385908201611765565b9294505050602093945060ff191683830152151560051b0101903880808061174a565b610180810190811067ffffffffffffffff8211176106aa57604052565b6040810190811067ffffffffffffffff8211176106aa57604052565b90601f8019910116810190811067ffffffffffffffff8211176106aa57604052565b80600052600060205260406000203360005260205260ff60406000205416156108545750565b9060009180835282602052604083209160018060a01b03169182845260205260ff604084205416156000146118ad57808352826020526040832082845260205260408320600160ff198254161790557f2f8788117e7eff1d82e926ec794901d17c78024a50270940304540a733656f0d339380a4600190565b505090565b9060009180835282602052604083209160018060a01b03169182845260205260ff6040842054166000146118ad5780835282602052604083208284526020526040832060ff1981541690557ff6391f5c32d9c69d2a47ea670b442974b53935d1edc7fd64eb21e047a839171b339380a4600190565b67ffffffffffffffff81116106aa5760051b60200190565b60ff811461197d5760ff811690601f821161196b5760405191611961836117d0565b8252602082015290565b604051632cd44ac360e21b8152600490fd5b50604051600081600191825492611993846116e3565b80845293818116908115611a1757506001146119ba575b506119b7925003826117ec565b90565b600081815291507fb10e2d527612073b26eecdfd717e6a320cf44b4afac2b0732d9fcbe2b7fa0cf65b8483106119fc57506119b79350508101602001386119aa565b819350908160209254838589010152019101909184926119e3565b9050602092506119b794915060ff191682840152151560051b820101386119aa565b60ff8114611a5b5760ff811690601f821161196b5760405191611961836117d0565b50604051600254816000611a6e836116e3565b80835292600190818116908115611a175750600114611a9457506119b7925003826117ec565b6002600090815291507f405787fa12a823e0f2b7631cc41b3ba8828b3321ca811111fa75cd3aa3bb5ace5b848310611ad857506119b79350508101602001386119aa565b81935090816020925483858901015201910190918492611abf565b92919267ffffffffffffffff82116106aa5760405191611b1d601f8201601f1916602001846117ec565b829481845281830111610267578281602093846000960137010152565b600582101561083e5752565b15611b4d57565b60405162461bcd60e51b815260206004820152601760248201527f4c6f636b426f783a206c6f636b206e6f7420666f756e640000000000000000006044820152606490fd5b91908201809211610ec857565b8151919060418303611bd057611bc992506020820151906060604084015193015160001a90611bdb565b9192909190565b505060009160029190565b91907f7fffffffffffffffffffffffffffffff5d576e7357a4501ddfe92f46681b20a08411611c5f57926020929160ff608095604051948552168484015260408301526060820152600092839182805260015afa15611c535780516001600160a01b03811615611c4a57918190565b50809160019190565b604051903d90823e3d90fd5b50505060009160039190565b600481101561083e5780611c7d575050565b60018103611c975760405163f645eedf60e01b8152600490fd5b60028103611cb85760405163fce698f760e01b815260048101839052602490fd5b600314611cc25750565b602490604051906335e2f38360e21b82526004820152fd5b307f00000000000000000000000000000000000000000000000000000000000000006001600160a01b03161480611ddc575b15611d35577f000000000000000000000000000000000000000000000000000000000000000090565b60405160208101907f8b73c3c69bb8fe3d512ecc4cf759cc79239f7b179b0ffacaa9a75d522b39400f82527f000000000000000000000000000000000000000000000000000000000000000060408201527f000000000000000000000000000000000000000000000000000000000000000060608201524660808201523060a082015260a0815260c0810181811067ffffffffffffffff8211176106aa5760405251902090565b507f00000000000000000000000000000000000000000000000000000000000000004614611d0c565b60405190611e12826117b3565b816101606000918281528260208201528260408201528260608201528260808201528260a08201528260c0820152606060e08201528261010082015282610120820152826101408201520152565b90611e6a82611927565b611e7760405191826117ec565b8281528092611e88601f1991611927565b019060005b828110611e9957505050565b602090611ea4611e05565b82828501015201611e8d565b6000198114610ec85760010190565b80518210156116cd5760209160051b01019056fea2646970667358221220e5847e67fc0543c567ac693e4c9ed461353ed7da13854f9f2b6658eee2cf880e64736f6c634300081400332f8788117e7eff1d82e926ec794901d17c78024a50270940304540a733656f0d",
  "linkReferences": {},
  "deployedLinkReferences": {},
  "immutableReferences": {
    "4423": [
      {
        "length": 32,
        "start": 7443
      }
    ],
    "4425": [
      {
        "length": 32,
        "start": 7647
      }
    ],
    "4427": [
      {
        "length": 32,
        "start": 7389
      }
    ],
    "4429": [
      {
        "length": 32,
        "start": 7522
      }
    ],
    "4431": [
      {
        "length": 32,
        "start": 7560
      }
    ],
    "4434": [
      {
        "length": 32,
        "start": 1462
      }
    ],
    "4437": [
      {
        "length": 32,
        "start": 1503
      }
    ]
  },
  "inputSourceName": "project/contracts/DCBTreasury/USDLockBox.sol",
  "buildInfoId": "solc-0_8_20-a1c61539025f0654ad3a75bdb2b55239eb68e7f3"
}