{
  "_format": "hh3-artifact-1",
  "contractName": "SimpleLUSD",
  "sourceName": "contracts/DCBTreasury/SimpleLUSD.sol",
  "abi": [
    {
      "inputs": [],
      "stateMutability": "nonpayable",
      "type": "constructor"
    },
    {
      "anonymous": false,
      "inputs": [
        {
          "indexed": true,
          "internalType": "address",
          "name": "owner",
          "type": "address"
        },
        {
          "indexed": true,
          "internalType": "address",
          "name": "spender",
          "type": "address"
        },
        {
          "indexed": false,
          "internalType": "uint256",
          "name": "value",
          "type": "uint256"
        }
      ],
      "name": "Approval",
      "type": "event"
    },
    {
      "anonymous": false,
      "inputs": [
        {
          "indexed": true,
          "internalType": "address",
          "name": "from",
          "type": "address"
        },
        {
          "indexed": false,
          "internalType": "uint256",
          "name": "amount",
          "type": "uint256"
        },
        {
          "indexed": false,
          "internalType": "string",
          "name": "redemptionRef",
          "type": "string"
        }
      ],
      "name": "BurnedForRedemption",
      "type": "event"
    },
    {
      "anonymous": false,
      "inputs": [
        {
          "indexed": true,
          "internalType": "address",
          "name": "to",
          "type": "address"
        },
        {
          "indexed": false,
          "internalType": "uint256",
          "name": "amount",
          "type": "uint256"
        },
        {
          "indexed": true,
          "internalType": "bytes32",
          "name": "lockId",
          "type": "bytes32"
        }
      ],
      "name": "MintedFromLock",
      "type": "event"
    },
    {
      "anonymous": false,
      "inputs": [
        {
          "indexed": true,
          "internalType": "address",
          "name": "from",
          "type": "address"
        },
        {
          "indexed": true,
          "internalType": "address",
          "name": "to",
          "type": "address"
        },
        {
          "indexed": false,
          "internalType": "uint256",
          "name": "value",
          "type": "uint256"
        }
      ],
      "name": "Transfer",
      "type": "event"
    },
    {
      "inputs": [
        {
          "internalType": "address",
          "name": "minter",
          "type": "address"
        }
      ],
      "name": "addMinter",
      "outputs": [],
      "stateMutability": "nonpayable",
      "type": "function"
    },
    {
      "inputs": [],
      "name": "admin",
      "outputs": [
        {
          "internalType": "address",
          "name": "",
          "type": "address"
        }
      ],
      "stateMutability": "view",
      "type": "function"
    },
    {
      "inputs": [
        {
          "internalType": "address",
          "name": "",
          "type": "address"
        },
        {
          "internalType": "address",
          "name": "",
          "type": "address"
        }
      ],
      "name": "allowance",
      "outputs": [
        {
          "internalType": "uint256",
          "name": "",
          "type": "uint256"
        }
      ],
      "stateMutability": "view",
      "type": "function"
    },
    {
      "inputs": [
        {
          "internalType": "address",
          "name": "spender",
          "type": "address"
        },
        {
          "internalType": "uint256",
          "name": "value",
          "type": "uint256"
        }
      ],
      "name": "approve",
      "outputs": [
        {
          "internalType": "bool",
          "name": "",
          "type": "bool"
        }
      ],
      "stateMutability": "nonpayable",
      "type": "function"
    },
    {
      "inputs": [
        {
          "internalType": "address",
          "name": "",
          "type": "address"
        }
      ],
      "name": "balanceOf",
      "outputs": [
        {
          "internalType": "uint256",
          "name": "",
          "type": "uint256"
        }
      ],
      "stateMutability": "view",
      "type": "function"
    },
    {
      "inputs": [
        {
          "internalType": "uint256",
          "name": "amount",
          "type": "uint256"
        },
        {
          "internalType": "string",
          "name": "redemptionRef",
          "type": "string"
        }
      ],
      "name": "burnForRedemption",
      "outputs": [],
      "stateMutability": "nonpayable",
      "type": "function"
    },
    {
      "inputs": [],
      "name": "decimals",
      "outputs": [
        {
          "internalType": "uint8",
          "name": "",
          "type": "uint8"
        }
      ],
      "stateMutability": "view",
      "type": "function"
    },
    {
      "inputs": [],
      "name": "getCirculatingSupply",
      "outputs": [
        {
          "internalType": "uint256",
          "name": "",
          "type": "uint256"
        }
      ],
      "stateMutability": "view",
      "type": "function"
    },
    {
      "inputs": [],
      "name": "issuerController",
      "outputs": [
        {
          "internalType": "address",
          "name": "",
          "type": "address"
        }
      ],
      "stateMutability": "view",
      "type": "function"
    },
    {
      "inputs": [
        {
          "internalType": "address",
          "name": "to",
          "type": "address"
        },
        {
          "internalType": "uint256",
          "name": "amount",
          "type": "uint256"
        },
        {
          "internalType": "bytes32",
          "name": "lockId",
          "type": "bytes32"
        }
      ],
      "name": "mintFromLock",
      "outputs": [],
      "stateMutability": "nonpayable",
      "type": "function"
    },
    {
      "inputs": [
        {
          "internalType": "address",
          "name": "",
          "type": "address"
        }
      ],
      "name": "minters",
      "outputs": [
        {
          "internalType": "bool",
          "name": "",
          "type": "bool"
        }
      ],
      "stateMutability": "view",
      "type": "function"
    },
    {
      "inputs": [],
      "name": "name",
      "outputs": [
        {
          "internalType": "string",
          "name": "",
          "type": "string"
        }
      ],
      "stateMutability": "view",
      "type": "function"
    },
    {
      "inputs": [
        {
          "internalType": "address",
          "name": "minter",
          "type": "address"
        }
      ],
      "name": "removeMinter",
      "outputs": [],
      "stateMutability": "nonpayable",
      "type": "function"
    },
    {
      "inputs": [
        {
          "internalType": "address",
          "name": "newAdmin",
          "type": "address"
        }
      ],
      "name": "setAdmin",
      "outputs": [],
      "stateMutability": "nonpayable",
      "type": "function"
    },
    {
      "inputs": [
        {
          "internalType": "address",
          "name": "_controller",
          "type": "address"
        }
      ],
      "name": "setIssuerController",
      "outputs": [],
      "stateMutability": "nonpayable",
      "type": "function"
    },
    {
      "inputs": [],
      "name": "symbol",
      "outputs": [
        {
          "internalType": "string",
          "name": "",
          "type": "string"
        }
      ],
      "stateMutability": "view",
      "type": "function"
    },
    {
      "inputs": [],
      "name": "totalBurned",
      "outputs": [
        {
          "internalType": "uint256",
          "name": "",
          "type": "uint256"
        }
      ],
      "stateMutability": "view",
      "type": "function"
    },
    {
      "inputs": [],
      "name": "totalMintedFromLocks",
      "outputs": [
        {
          "internalType": "uint256",
          "name": "",
          "type": "uint256"
        }
      ],
      "stateMutability": "view",
      "type": "function"
    },
    {
      "inputs": [],
      "name": "totalSupply",
      "outputs": [
        {
          "internalType": "uint256",
          "name": "",
          "type": "uint256"
        }
      ],
      "stateMutability": "view",
      "type": "function"
    },
    {
      "inputs": [
        {
          "internalType": "address",
          "name": "to",
          "type": "address"
        },
        {
          "internalType": "uint256",
          "name": "value",
          "type": "uint256"
        }
      ],
      "name": "transfer",
      "outputs": [
        {
          "internalType": "bool",
          "name": "",
          "type": "bool"
        }
      ],
      "stateMutability": "nonpayable",
      "type": "function"
    },
    {
      "inputs": [
        {
          "internalType": "address",
          "name": "from",
          "type": "address"
        },
        {
          "internalType": "address",
          "name": "to",
          "type": "address"
        },
        {
          "internalType": "uint256",
          "name": "value",
          "type": "uint256"
        }
      ],
      "name": "transferFrom",
      "outputs": [
        {
          "internalType": "bool",
          "name": "",
          "type": "bool"
        }
      ],
      "stateMutability": "nonpayable",
      "type": "function"
    }
  ],
  "bytecode": "0x6080604052346100fd5760006100158154610102565b601f81116100d3575b507f4c656d6f6e20555344000000000000000000000000000000000000000000001281556001805461004f90610102565b601f81116100a7575b50600863131554d160e21b018155604060ff199260068460025416176002553360018060a01b0319600654161760065533815260086020522091825416179055604051610bab908161013d8239f35b81835281601f60208520920160051c8201915b8281106100c8575050610058565b8481550182906100ba565b818052601f60208320910160051c8101905b8181106100f2575061001e565b8281556001016100e5565b600080fd5b90600182811c92168015610132575b602083101461011c57565b634e487b7160e01b600052602260045260246000fd5b91607f169161011156fe608060408181526004918236101561001657600080fd5b600092833560e01c91826306fdde031461094b57508163095ea7b3146108da57816316771910146107ce57816318160ddd1461069c57816323b872dd146106bb5781632b112e491461069c5781633092afd514610652578163313ce567146106305781634500a8321461050b578163704b6c02146104ba57816370a08231146104845781638549beb31461041e57816395d89b41146102fe578163983b2d56146102b1578163a5477f5114610288578163a9059cbb146101f857508063af50c2a8146101da578063d89135cd146101bc578063dd62ed3e14610174578063f46eccc4146101375763f851a4401461010c57600080fd5b3461013357816003193601126101335760065490516001600160a01b039091168152602090f35b5080fd5b50346101335760203660031901126101335760209160ff9082906001600160a01b03610161610a6a565b1681526008855220541690519015158152f35b503461013357806003193601126101335780602092610191610a6a565b610199610a85565b6001600160a01b0391821683526005865283832091168252845220549051908152f35b5034610133578160031936011261013357602090600a549051908152f35b50346101335781600319360112610133576020906009549051908152f35b90503461028457816003193601126102845760209282610216610a6a565b916024359233825284875261023084848420541015610a9b565b338252848752828220610244858254610ae7565b90556001600160a01b0316808252938652208054610263908390610b0a565b90558251908152600080516020610b56833981519152843392a35160018152f35b8280fd5b50503461013357816003193601126101335760075490516001600160a01b039091168152602090f35b505034610133576020366003190112610133576102cc610a6a565b6006546001600160a01b0391906102e69083163314610b17565b16825260086020528120805460ff1916600117905580f35b83833461013357816003193601126101335780519082600180549081811c90808316928315610414575b6020938484108114610401578388529081156103e55750600114610390575b505050829003601f01601f191682019267ffffffffffffffff84118385101761037d5750829182610379925282610a21565b0390f35b634e487b7160e01b815260418552602490fd5b8087529192508591837fb10e2d527612073b26eecdfd717e6a320cf44b4afac2b0732d9fcbe2b7fa0cf65b8385106103d15750505050830101858080610347565b8054888601830152930192849082016103bb565b60ff1916878501525050151560051b8401019050858080610347565b634e487b7160e01b895260228a52602489fd5b91607f1691610328565b50503461013357602036600319011261013357610439610a6a565b6006546001600160a01b0391906104539083163314610b17565b16806bffffffffffffffffffffffff60a01b6007541617600755825260086020528120600160ff1982541617905580f35b9050346102845760203660031901126102845760209282916001600160a01b036104ac610a6a565b168252845220549051908152f35b8334610508576020366003190112610508576104d4610a6a565b600654906001600160a01b03906104ee3383851614610b17565b16906bffffffffffffffffffffffff60a01b161760065580f35b80fd5b90503461028457606036600319011261028457610526610a6a565b9160243592338552600860205260ff8286205416801561061c575b8015610608575b156105d25761055984600354610b0a565b60035560018060a01b031691828552602052808420610579848254610b0a565b905561058783600954610b0a565b6009558184600080516020610b5683398151915260208451878152a3519182527fb8bb5c4290eab5d6b650696ce9471b444414fc876bed5edd4cfdb02021c3eae0602060443593a380f35b815162461bcd60e51b8152602081850152601060248201526f262aa9a21d103737ba1036b4b73a32b960811b6044820152606490fd5b506007546001600160a01b03163314610548565b506006546001600160a01b03163314610541565b50503461013357816003193601126101335760209060ff600254169051908152f35b5050346101335760203660031901126101335761066d610a6a565b6006546001600160a01b0391906106879083163314610b17565b16825260086020528120805460ff1916905580f35b5050346101335781600319360112610133576020906003549051908152f35b905034610284576060366003190112610284576106d6610a6a565b6106de610a85565b936044359060018060a01b038093169283825260209685885261070684888520541015610a9b565b84835260058852868320338452885283878420541061078b5782600080516020610b5683398151915294928892878b9652888652838320610748868254610ae7565b90551696878252845281812061075f848254610b0a565b90558581526005845281812033825284522061077c828254610ae7565b90558551908152a35160018152f35b865162461bcd60e51b8152808701899052601c60248201527f4c5553443a20696e73756666696369656e7420616c6c6f77616e6365000000006044820152606490fd5b90503461028457816003193601126102845780356024359167ffffffffffffffff938484116108d657366023850112156108d657838201359485116108d65736602486860101116108d6577f778210931d3d6f823475c3504131540fcb2f3cfd249bae7cd4d820b5b596300c93856024928194338a528060205261085787838c20541015610a9b565b61086387600354610ae7565b600355338a5260205280892061087a878254610ae7565b905561088886600a54610b0a565b600a55888151878152600080516020610b5683398151915260203392a3805195865280602087015285015201606083013783606084830101526060813394601f80199101168101030190a280f35b8580fd5b505034610133578060031936011261013357602091816108f8610a6a565b91602435918291338152600587528181209460018060a01b0316948582528752205582519081527f8c5be1e5ebec7d5bd14f71427d1e84f3dd0314c0f7b2291e5b200ac8c7c3b925843392a35160018152f35b84908434610284578260031936011261028457828354600181811c90808316928315610a17575b6020938484108114610401578388529081156103e557506001146109c257505050829003601f01601f191682019267ffffffffffffffff84118385101761037d5750829182610379925282610a21565b8680529192508591837f290decd9548b62a8d60345a988386fc84ba6bc95484008f6362f93160ef3e5635b838510610a035750505050830101858080610347565b8054888601830152930192849082016109ed565b91607f1691610972565b6020808252825181830181905290939260005b828110610a5657505060409293506000838284010152601f8019910116010190565b818101860151848201604001528501610a34565b600435906001600160a01b0382168203610a8057565b600080fd5b602435906001600160a01b0382168203610a8057565b15610aa257565b60405162461bcd60e51b815260206004820152601a60248201527f4c5553443a20696e73756666696369656e742062616c616e63650000000000006044820152606490fd5b91908203918211610af457565b634e487b7160e01b600052601160045260246000fd5b91908201809211610af457565b15610b1e57565b60405162461bcd60e51b815260206004820152600f60248201526e262aa9a21d103737ba1030b236b4b760891b6044820152606490fdfeddf252ad1be2c89b69c2b068fc378daa952ba7f163c4a11628f55a4df523b3efa264697066735822122062fb86ec1fe7362ed0d924ebd84f517cbb73efc53d4668486080185c5daedead64736f6c63430008140033",
  "linkReferences": {},
  "deployedLinkReferences": {},
  "immutableReferences": {},
  "inputSourceName": "project/contracts/DCBTreasury/SimpleLUSD.sol",
  "buildInfoId": "solc-0_8_20-a1c61539025f0654ad3a75bdb2b55239eb68e7f3"
}