{
  "_format": "hh3-artifact-1",
  "contractName": "LockBox",
  "sourceName": "contracts/DCBTreasury/LockBox.sol",
  "abi": [
    {
      "inputs": [
        {
          "internalType": "address",
          "name": "_usdToken",
          "type": "address"
        }
      ],
      "stateMutability": "nonpayable",
      "type": "constructor"
    },
    {
      "anonymous": false,
      "inputs": [
        {
          "indexed": true,
          "internalType": "address",
          "name": "previousAdmin",
          "type": "address"
        },
        {
          "indexed": true,
          "internalType": "address",
          "name": "newAdmin",
          "type": "address"
        }
      ],
      "name": "AdminTransferred",
      "type": "event"
    },
    {
      "anonymous": false,
      "inputs": [
        {
          "indexed": true,
          "internalType": "bytes32",
          "name": "lockId",
          "type": "bytes32"
        }
      ],
      "name": "EmergencyCancelled",
      "type": "event"
    },
    {
      "anonymous": false,
      "inputs": [
        {
          "indexed": false,
          "internalType": "uint256",
          "name": "oldValue",
          "type": "uint256"
        },
        {
          "indexed": false,
          "internalType": "uint256",
          "name": "newValue",
          "type": "uint256"
        }
      ],
      "name": "EmergencyDelayChanged",
      "type": "event"
    },
    {
      "anonymous": false,
      "inputs": [
        {
          "indexed": true,
          "internalType": "bytes32",
          "name": "lockId",
          "type": "bytes32"
        },
        {
          "indexed": true,
          "internalType": "address",
          "name": "to",
          "type": "address"
        },
        {
          "indexed": false,
          "internalType": "uint256",
          "name": "amount",
          "type": "uint256"
        }
      ],
      "name": "EmergencyExecuted",
      "type": "event"
    },
    {
      "anonymous": false,
      "inputs": [
        {
          "indexed": true,
          "internalType": "bytes32",
          "name": "lockId",
          "type": "bytes32"
        },
        {
          "indexed": true,
          "internalType": "address",
          "name": "requester",
          "type": "address"
        },
        {
          "indexed": false,
          "internalType": "uint256",
          "name": "availableAt",
          "type": "uint256"
        }
      ],
      "name": "EmergencyRequested",
      "type": "event"
    },
    {
      "anonymous": false,
      "inputs": [
        {
          "indexed": true,
          "internalType": "bytes32",
          "name": "lockId",
          "type": "bytes32"
        },
        {
          "indexed": true,
          "internalType": "address",
          "name": "signer",
          "type": "address"
        },
        {
          "indexed": false,
          "internalType": "uint256",
          "name": "currentApprovals",
          "type": "uint256"
        }
      ],
      "name": "LockApproved",
      "type": "event"
    },
    {
      "anonymous": false,
      "inputs": [
        {
          "indexed": false,
          "internalType": "uint256",
          "name": "oldValue",
          "type": "uint256"
        },
        {
          "indexed": false,
          "internalType": "uint256",
          "name": "newValue",
          "type": "uint256"
        }
      ],
      "name": "RequiredSignaturesChanged",
      "type": "event"
    },
    {
      "anonymous": false,
      "inputs": [
        {
          "indexed": true,
          "internalType": "address",
          "name": "signer",
          "type": "address"
        }
      ],
      "name": "SignerAdded",
      "type": "event"
    },
    {
      "anonymous": false,
      "inputs": [
        {
          "indexed": true,
          "internalType": "address",
          "name": "signer",
          "type": "address"
        }
      ],
      "name": "SignerRemoved",
      "type": "event"
    },
    {
      "anonymous": false,
      "inputs": [
        {
          "indexed": true,
          "internalType": "bytes32",
          "name": "lockId",
          "type": "bytes32"
        },
        {
          "indexed": true,
          "internalType": "address",
          "name": "depositor",
          "type": "address"
        },
        {
          "indexed": true,
          "internalType": "address",
          "name": "beneficiary",
          "type": "address"
        },
        {
          "indexed": false,
          "internalType": "uint256",
          "name": "amount",
          "type": "uint256"
        },
        {
          "indexed": false,
          "internalType": "uint256",
          "name": "unlockTime",
          "type": "uint256"
        },
        {
          "indexed": false,
          "internalType": "string",
          "name": "lockReference",
          "type": "string"
        }
      ],
      "name": "USDLocked",
      "type": "event"
    },
    {
      "anonymous": false,
      "inputs": [
        {
          "indexed": true,
          "internalType": "bytes32",
          "name": "lockId",
          "type": "bytes32"
        },
        {
          "indexed": true,
          "internalType": "address",
          "name": "beneficiary",
          "type": "address"
        },
        {
          "indexed": false,
          "internalType": "uint256",
          "name": "amount",
          "type": "uint256"
        },
        {
          "indexed": false,
          "internalType": "uint256",
          "name": "timestamp",
          "type": "uint256"
        }
      ],
      "name": "USDReleased",
      "type": "event"
    },
    {
      "inputs": [
        {
          "internalType": "address",
          "name": "_signer",
          "type": "address"
        }
      ],
      "name": "addSigner",
      "outputs": [],
      "stateMutability": "nonpayable",
      "type": "function"
    },
    {
      "inputs": [],
      "name": "admin",
      "outputs": [
        {
          "internalType": "address",
          "name": "",
          "type": "address"
        }
      ],
      "stateMutability": "view",
      "type": "function"
    },
    {
      "inputs": [
        {
          "internalType": "bytes32",
          "name": "_lockId",
          "type": "bytes32"
        }
      ],
      "name": "approveLockRelease",
      "outputs": [],
      "stateMutability": "nonpayable",
      "type": "function"
    },
    {
      "inputs": [
        {
          "internalType": "bytes32",
          "name": "_lockId",
          "type": "bytes32"
        }
      ],
      "name": "cancelEmergencyRequest",
      "outputs": [],
      "stateMutability": "nonpayable",
      "type": "function"
    },
    {
      "inputs": [],
      "name": "emergencyDelay",
      "outputs": [
        {
          "internalType": "uint256",
          "name": "",
          "type": "uint256"
        }
      ],
      "stateMutability": "view",
      "type": "function"
    },
    {
      "inputs": [
        {
          "internalType": "bytes32",
          "name": "",
          "type": "bytes32"
        }
      ],
      "name": "emergencyRequests",
      "outputs": [
        {
          "internalType": "uint256",
          "name": "",
          "type": "uint256"
        }
      ],
      "stateMutability": "view",
      "type": "function"
    },
    {
      "inputs": [
        {
          "internalType": "bytes32",
          "name": "_lockId",
          "type": "bytes32"
        },
        {
          "internalType": "address",
          "name": "_to",
          "type": "address"
        }
      ],
      "name": "executeEmergencyWithdrawal",
      "outputs": [],
      "stateMutability": "nonpayable",
      "type": "function"
    },
    {
      "inputs": [
        {
          "internalType": "bytes32",
          "name": "_lockId",
          "type": "bytes32"
        }
      ],
      "name": "executeRelease",
      "outputs": [],
      "stateMutability": "nonpayable",
      "type": "function"
    },
    {
      "inputs": [],
      "name": "getAllLockIds",
      "outputs": [
        {
          "internalType": "bytes32[]",
          "name": "",
          "type": "bytes32[]"
        }
      ],
      "stateMutability": "view",
      "type": "function"
    },
    {
      "inputs": [],
      "name": "getAllSigners",
      "outputs": [
        {
          "internalType": "address[]",
          "name": "",
          "type": "address[]"
        }
      ],
      "stateMutability": "view",
      "type": "function"
    },
    {
      "inputs": [
        {
          "internalType": "bytes32",
          "name": "_lockId",
          "type": "bytes32"
        }
      ],
      "name": "getLockDetails",
      "outputs": [
        {
          "internalType": "address",
          "name": "depositor",
          "type": "address"
        },
        {
          "internalType": "address",
          "name": "beneficiary",
          "type": "address"
        },
        {
          "internalType": "uint256",
          "name": "amount",
          "type": "uint256"
        },
        {
          "internalType": "uint256",
          "name": "unlockTime",
          "type": "uint256"
        },
        {
          "internalType": "bool",
          "name": "isActive",
          "type": "bool"
        },
        {
          "internalType": "uint256",
          "name": "approvalsCount",
          "type": "uint256"
        }
      ],
      "stateMutability": "view",
      "type": "function"
    },
    {
      "inputs": [],
      "name": "getLockedBalance",
      "outputs": [
        {
          "internalType": "uint256",
          "name": "",
          "type": "uint256"
        }
      ],
      "stateMutability": "view",
      "type": "function"
    },
    {
      "inputs": [],
      "name": "getSignerCount",
      "outputs": [
        {
          "internalType": "uint256",
          "name": "",
          "type": "uint256"
        }
      ],
      "stateMutability": "view",
      "type": "function"
    },
    {
      "inputs": [],
      "name": "getStats",
      "outputs": [
        {
          "internalType": "uint256",
          "name": "_totalLocked",
          "type": "uint256"
        },
        {
          "internalType": "uint256",
          "name": "_totalReleased",
          "type": "uint256"
        },
        {
          "internalType": "uint256",
          "name": "_lockCount",
          "type": "uint256"
        },
        {
          "internalType": "uint256",
          "name": "_currentBalance",
          "type": "uint256"
        }
      ],
      "stateMutability": "view",
      "type": "function"
    },
    {
      "inputs": [
        {
          "internalType": "bytes32",
          "name": "_lockId",
          "type": "bytes32"
        },
        {
          "internalType": "address",
          "name": "_signer",
          "type": "address"
        }
      ],
      "name": "hasApproved",
      "outputs": [
        {
          "internalType": "bool",
          "name": "",
          "type": "bool"
        }
      ],
      "stateMutability": "view",
      "type": "function"
    },
    {
      "inputs": [
        {
          "internalType": "bytes32",
          "name": "_lockId",
          "type": "bytes32"
        }
      ],
      "name": "isReleasable",
      "outputs": [
        {
          "internalType": "bool",
          "name": "",
          "type": "bool"
        }
      ],
      "stateMutability": "view",
      "type": "function"
    },
    {
      "inputs": [],
      "name": "lockCount",
      "outputs": [
        {
          "internalType": "uint256",
          "name": "",
          "type": "uint256"
        }
      ],
      "stateMutability": "view",
      "type": "function"
    },
    {
      "inputs": [
        {
          "internalType": "uint256",
          "name": "",
          "type": "uint256"
        }
      ],
      "name": "lockIds",
      "outputs": [
        {
          "internalType": "bytes32",
          "name": "",
          "type": "bytes32"
        }
      ],
      "stateMutability": "view",
      "type": "function"
    },
    {
      "inputs": [
        {
          "internalType": "address",
          "name": "_beneficiary",
          "type": "address"
        },
        {
          "internalType": "uint256",
          "name": "_amount",
          "type": "uint256"
        },
        {
          "internalType": "uint256",
          "name": "_unlockTime",
          "type": "uint256"
        },
        {
          "internalType": "string",
          "name": "_lockReference",
          "type": "string"
        }
      ],
      "name": "lockUSD",
      "outputs": [
        {
          "internalType": "bytes32",
          "name": "lockId",
          "type": "bytes32"
        }
      ],
      "stateMutability": "nonpayable",
      "type": "function"
    },
    {
      "inputs": [
        {
          "internalType": "address",
          "name": "_depositor",
          "type": "address"
        },
        {
          "internalType": "address",
          "name": "_beneficiary",
          "type": "address"
        },
        {
          "internalType": "uint256",
          "name": "_amount",
          "type": "uint256"
        },
        {
          "internalType": "uint256",
          "name": "_unlockTime",
          "type": "uint256"
        },
        {
          "internalType": "string",
          "name": "_lockReference",
          "type": "string"
        }
      ],
      "name": "lockUSDDirect",
      "outputs": [
        {
          "internalType": "bytes32",
          "name": "lockId",
          "type": "bytes32"
        }
      ],
      "stateMutability": "nonpayable",
      "type": "function"
    },
    {
      "inputs": [
        {
          "internalType": "bytes32",
          "name": "",
          "type": "bytes32"
        }
      ],
      "name": "locks",
      "outputs": [
        {
          "internalType": "bytes32",
          "name": "lockId",
          "type": "bytes32"
        },
        {
          "internalType": "address",
          "name": "depositor",
          "type": "address"
        },
        {
          "internalType": "address",
          "name": "beneficiary",
          "type": "address"
        },
        {
          "internalType": "uint256",
          "name": "amount",
          "type": "uint256"
        },
        {
          "internalType": "uint256",
          "name": "lockTime",
          "type": "uint256"
        },
        {
          "internalType": "uint256",
          "name": "unlockTime",
          "type": "uint256"
        },
        {
          "internalType": "bool",
          "name": "isActive",
          "type": "bool"
        },
        {
          "internalType": "bool",
          "name": "isReleased",
          "type": "bool"
        },
        {
          "internalType": "string",
          "name": "lockReference",
          "type": "string"
        },
        {
          "internalType": "uint256",
          "name": "approvalsCount",
          "type": "uint256"
        }
      ],
      "stateMutability": "view",
      "type": "function"
    },
    {
      "inputs": [
        {
          "internalType": "bytes32",
          "name": "_lockId",
          "type": "bytes32"
        }
      ],
      "name": "releaseLockDirect",
      "outputs": [],
      "stateMutability": "nonpayable",
      "type": "function"
    },
    {
      "inputs": [
        {
          "internalType": "address",
          "name": "_signer",
          "type": "address"
        }
      ],
      "name": "removeSigner",
      "outputs": [],
      "stateMutability": "nonpayable",
      "type": "function"
    },
    {
      "inputs": [
        {
          "internalType": "bytes32",
          "name": "_lockId",
          "type": "bytes32"
        }
      ],
      "name": "requestEmergencyWithdrawal",
      "outputs": [],
      "stateMutability": "nonpayable",
      "type": "function"
    },
    {
      "inputs": [],
      "name": "requiredSignatures",
      "outputs": [
        {
          "internalType": "uint256",
          "name": "",
          "type": "uint256"
        }
      ],
      "stateMutability": "view",
      "type": "function"
    },
    {
      "inputs": [
        {
          "internalType": "uint256",
          "name": "_delay",
          "type": "uint256"
        }
      ],
      "name": "setEmergencyDelay",
      "outputs": [],
      "stateMutability": "nonpayable",
      "type": "function"
    },
    {
      "inputs": [
        {
          "internalType": "uint256",
          "name": "_required",
          "type": "uint256"
        }
      ],
      "name": "setRequiredSignatures",
      "outputs": [],
      "stateMutability": "nonpayable",
      "type": "function"
    },
    {
      "inputs": [
        {
          "internalType": "uint256",
          "name": "",
          "type": "uint256"
        }
      ],
      "name": "signerList",
      "outputs": [
        {
          "internalType": "address",
          "name": "",
          "type": "address"
        }
      ],
      "stateMutability": "view",
      "type": "function"
    },
    {
      "inputs": [
        {
          "internalType": "address",
          "name": "",
          "type": "address"
        }
      ],
      "name": "signers",
      "outputs": [
        {
          "internalType": "bool",
          "name": "",
          "type": "bool"
        }
      ],
      "stateMutability": "view",
      "type": "function"
    },
    {
      "inputs": [],
      "name": "totalLocked",
      "outputs": [
        {
          "internalType": "uint256",
          "name": "",
          "type": "uint256"
        }
      ],
      "stateMutability": "view",
      "type": "function"
    },
    {
      "inputs": [],
      "name": "totalReleased",
      "outputs": [
        {
          "internalType": "uint256",
          "name": "",
          "type": "uint256"
        }
      ],
      "stateMutability": "view",
      "type": "function"
    },
    {
      "inputs": [
        {
          "internalType": "address",
          "name": "newAdmin",
          "type": "address"
        }
      ],
      "name": "transferAdmin",
      "outputs": [],
      "stateMutability": "nonpayable",
      "type": "function"
    },
    {
      "inputs": [
        {
          "internalType": "address",
          "name": "_newToken",
          "type": "address"
        }
      ],
      "name": "updateUSDToken",
      "outputs": [],
      "stateMutability": "nonpayable",
      "type": "function"
    },
    {
      "inputs": [],
      "name": "usdToken",
      "outputs": [
        {
          "internalType": "contract IERC20",
          "name": "",
          "type": "address"
        }
      ],
      "stateMutability": "view",
      "type": "function"
    }
  ],
  "bytecode": "0x6080346200019c57601f6200259538819003918201601f19168301916001600160401b03831184841017620001a1578084926020946040528339810103126200019c57516001600160a01b038116908190036200019c5762093a806007558015620001575760018060a01b03196000918183541617825533816001541617600155338252600460205260408220600160ff1982541617905560055468010000000000000000811015620001435760018101806005558110156200012f5760058352602083200190339082541617905560016006556040519033817ff8ccb027dfcd135e000e9d45e6cc2d662578a8825d4c45b5e32e0adf67e79ec68180a37f47d1c22a25bb3a5d4e481b9b1e6944c2eade3181a0a20b495ed61d35b5323f24339180a26123dd9081620001b88239f35b634e487b7160e01b83526032600452602483fd5b634e487b7160e01b83526041600452602483fd5b60405162461bcd60e51b815260206004820152601e60248201527f4c6f636b426f783a20696e76616c696420746f6b656e206164647265737300006044820152606490fd5b600080fd5b634e487b7160e01b600052604160045260246000fdfe608080604052600436101561001357600080fd5b60003560e01c9081630557ac4114611db3575080630e316ab714611bbd578063154b71ae14611b4257806323cdc3f114611af25780632549e0b114611a6a578063255f3154146119f457806334476f79146116c357806348ddc5fe1461160457806356891412146115e6578063577ed7e1146115a4578063736c0d5b1461156557806375829def146114a35780637d2b9cc0146113895780637f862a11146112d05780638d068043146112b25780638e830d4d146111795780639b10b6f51461115b578063a552528a14610ff3578063aa7c964414610fa2578063b715be8114610f84578063bc4ab7fb14610ece578063bc7f479814610b45578063c59d484714610aa5578063c799147b14610976578063d42f2f35146108ae578063ddba1b931461065c578063e33b7de31461063e578063eb12d61e146104cb578063ed5e84371461036f578063edeb3f4414610351578063f462005b1461025b578063f851a44014610232578063f897a22b146102095763fa7d9bdd1461019557600080fd5b34610204576020366003190112610204576102026004356101c160018060a01b03600154163314612169565b8060005260026020526101fd600560406000206101f360ff60068301546101e98282166121b5565b60081c1615612201565b015442101561224d565b612291565b005b600080fd5b34610204576000366003190112610204576000546040516001600160a01b039091168152602090f35b34610204576000366003190112610204576001546040516001600160a01b039091168152602090f35b34610204576020806003193601126102045760043561028560018060a01b03600154163314612169565b80600052600282526102a660ff6006604060002001546101e98282166121b5565b8060005260088252604060002054610300577f67adb5544d258f1bc214b58c1566da814ba0b586130b35f870a54e5ba891f9d36102e56007544261213d565b928260005260088152836040600020556040519384523393a3005b60405162461bcd60e51b8152600481018390526024808201527f4c6f636b426f783a20656d657267656e637920616c72656164792072657175656044820152631cdd195960e21b6064820152608490fd5b34610204576000366003190112610204576020600754604051908152f35b346102045760203660031901126102045760043560005260026020526040600020805460018060a01b039160018381830154169360028301541691600381015460048201546005830154916006840154936007810195604051966000918154916103d883611ecd565b808b52928281169081156104a05750600114610461575b5050509160088796949261040b6104569960ff98960389611e07565b0154976040519a8b9a8b5260208b015260408a01526060890152608088015260a0870152818116151560c087015260081c16151560e085015261014080610100860152840190611f07565b906101208301520390f35b6000908152602081209093505b82841061048857505050860160200160088261040b6103ef565b805460208b860181019190915290930192810161046e565b60ff19166020808d019190915293151560051b8b0190930193506008925084915061040b90506103ef565b34610204576020366003190112610204576104e4611ddb565b6001546001600160a01b03906104fd9082163314612169565b81169081156105f95781600052600460205260ff604060002054166105b4578160005260046020526040600020600160ff1982541617905560055490600160401b82101561059e576105588260016105779401600555611e80565b90919082549060031b9160018060a01b03809116831b921b1916179055565b7f47d1c22a25bb3a5d4e481b9b1e6944c2eade3181a0a20b495ed61d35b5323f24600080a2005b634e487b7160e01b600052604160045260246000fd5b60405162461bcd60e51b815260206004820152601960248201527f4c6f636b426f783a20616c72656164792061207369676e6572000000000000006044820152606490fd5b60405162461bcd60e51b815260206004820152601860248201527f4c6f636b426f783a20696e76616c6964206164647265737300000000000000006044820152606490fd5b34610204576000366003190112610204576020600a54604051908152f35b3461020457604036600319011261020457600435610678611df1565b60015490916001600160a01b03916106939083163314612169565b80600052602060028152604060002060068101938454946106b660ff87166121b5565b6106c660ff8760081c1615612201565b84600052600884526040600020541561086b5784600052600884526040600020544210610826578187169586156107e15761ffff1916610100179055600084815260088452604080822082905581546003949094018054915163a9059cbb60e01b81526001600160a01b039990991660048a015260248901919091529596949592849286926044928492165af19283156107d5577f73e427fbefc7f810a4172174bf11154925b5842a97d559e8cdb31b1f7f273b249361078e916000916107a8575b5061209a565b61079b8154600a5461213d565b600a5554604051908152a3005b6107c89150843d86116107ce575b6107c08183611e07565b810190612082565b87610788565b503d6107b6565b6040513d6000823e3d90fd5b60405162461bcd60e51b815260048101869052601a60248201527f4c6f636b426f783a20696e76616c696420726563697069656e740000000000006044820152606490fd5b60405162461bcd60e51b815260048101859052601960248201527f4c6f636b426f783a2064656c6179206e6f7420706173736564000000000000006044820152606490fd5b6064846040519062461bcd60e51b825280600483015260248201527f4c6f636b426f783a20656d657267656e6379206e6f74207265717565737465646044820152fd5b3461020457600036600319011261020457604051806005548083526020809301809160056000527f036b6384b5eca791c62761152d0c79bb0604c104a5fb6f4eb0703f3154bb3db09060005b8682821061095957868661091082880383611e07565b604051928392818401908285525180915260408401929160005b82811061093957505050500390f35b83516001600160a01b03168552869550938101939281019260010161092a565b83546001600160a01b0316855290930192600192830192016108fa565b346102045760203660031901126102045760043560018060a01b036001541633148015610a8d575b15610a3957806000526002602052600860406000206109d160ff60068301546109c88282166121b5565b841c1615612201565b6109e1600582015442101561224d565b0154600654116109f45761020290612291565b60405162461bcd60e51b815260206004820152601f60248201527f4c6f636b426f783a20696e73756666696369656e7420617070726f76616c73006044820152606490fd5b60405162461bcd60e51b815260206004820152602660248201527f4c6f636b426f783a2063616c6c6572206973206e6f742061646d696e206f722060448201526539b4b3b732b960d11b6064820152608490fd5b5033600052600460205260ff6040600020541661099e565b34610204576000366003190112610204576024600954600a54600b54602060018060a01b0360005416604051958680926370a0823160e01b82523060048301525afa9182156107d557600092610b11575b60809450604051938452602084015260408301526060820152f35b91506020843d8211610b3d575b81610b2b60209383611e07565b81010312610204576080935191610af6565b3d9150610b1e565b346102045760a036600319011261020457610b5e611ddb565b610b66611df1565b9060843567ffffffffffffffff811161020457610b87903690600401611e29565b90610b9d60018060a01b03600154163314612169565b610bb16001600160a01b0384161515611f47565b610bbe6044351515611f93565b610bcb4260643511611fde565b600b54604051606083811b6bffffffffffffffffffffffff19908116602084019081529187901b1660348301526044356048830152606435606883015242608883015260a880830193909352918152610c2560c882611e07565b51902091826000526002602052610c4760ff6006604060002001541615612036565b600080546040516323b872dd60e01b81526001600160a01b03858116600483015230602483015260448035908301529092602092849260649284929091165af180156107d557610c9e91600091610eaf575061209a565b8260005260026020526040600020838155600181016001600160601b0360a01b9060018060a01b03851682825416179055600282019060018060a01b038716908254161790556044356003820155426004820155606435600582015560068101600161ffff19825416179055815167ffffffffffffffff811161059e57610d286007830154611ecd565b601f8111610e64575b5094849160209687601f8211600114610ddf576008610dc9938360008051602061238883398151915296946000948591610dd4575b508160011b9185199060031b1c19161760078201555b0155610d87846120e6565b610d92600b5461212e565b600b55610da360443560095461213d565b6009556040516001600160a01b039182169690911694909182916064356044358461214a565b0390a4604051908152f35b90508901518d610d66565b60078301600052886000209060005b601f1984168110610e4a5750610dc9936001846000946008946000805160206123888339815191529997601f19811610610e32575b5050811b016007820155610d7c565b8b0151861960f88460031b161c191690558d80610e23565b878201518355899650600190920191908a01908a01610dee565b600783016000526020600020601f830160051c81019160208410610ea5575b601f0160051c01905b818110610e995750610d31565b60008155600101610e8c565b9091508190610e83565b610ec8915060203d6020116107ce576107c08183611e07565b86610788565b3461020457600036600319011261020457604051806003548083526020809301809160036000527fc2575a0e9e593c00f959f8c92f12db2869c3395a3b0502d05e2516446f71f85b9060005b86828210610f70578686610f3082880383611e07565b604051928392818401908285525180915260408401929160005b828110610f5957505050500390f35b835185528695509381019392810192600101610f4a565b835485529093019260019283019201610f1a565b34610204576000366003190112610204576020600554604051908152f35b34610204576020366003190112610204576004356003548110156102045760209060036000527fc2575a0e9e593c00f959f8c92f12db2869c3395a3b0502d05e2516446f71f85b0154604051908152f35b34610204576020806003193601126102045760043590336000526004815260ff6040600020541615611117578160005260028152604060002061104160ff60068301546101e98282166121b5565b600981013360005280835260ff604060002054166110d2579060089161106d600583015442101561224d565b3360005283526040600020600160ff19825416179055019061108f825461212e565b809255827fd859837061964fd3451cb22503f3b58e88cc356922026981397821b7e03da935604051928484523393a360065411156110c957005b61020290612291565b60405162461bcd60e51b815260048101849052601960248201527f4c6f636b426f783a20616c726561647920617070726f766564000000000000006044820152606490fd5b6064906040519062461bcd60e51b82526004820152601d60248201527f4c6f636b426f783a2063616c6c6572206973206e6f74207369676e65720000006044820152fd5b34610204576000366003190112610204576020600b54604051908152f35b346102045760208060031936011261020457611193611ddb565b6001546001600160a01b039182916111ae9083163314612169565b1691821561126e5760248160005493604051928380926370a0823160e01b825230600483015287165afa9081156107d557600091611241575b506111fd57506001600160a01b03191617600055005b6064906040519062461bcd60e51b82526004820152601b60248201527f4c6f636b426f783a20686173206163746976652062616c616e636500000000006044820152fd5b90508181813d8311611267575b6112588183611e07565b810103126102045751846111e7565b503d61124e565b6064906040519062461bcd60e51b82526004820152601e60248201527f4c6f636b426f783a20696e76616c696420746f6b656e206164647265737300006044820152fd5b34610204576000366003190112610204576020600654604051908152f35b34610204576020366003190112610204576004356112f960018060a01b03600154163314612169565b8060005260086020526040600020541561134457806000526008602052600060408120557faca715ee8486991a0434ae970d7398267671fedabf3020d53ced52c9490425c9600080a2005b60405162461bcd60e51b815260206004820152601d60248201527f4c6f636b426f783a206e6f20656d657267656e637920726571756573740000006044820152606490fd5b34610204576020366003190112610204576004356113b260018060a01b03600154163314612169565b801561144b5760055481116113fa5760407f98d8faeedf88f6341105a65c72ee2d5ad053386b2012b676290811538b267a4f91600654908060065582519182526020820152a1005b60405162461bcd60e51b815260206004820152602360248201527f4c6f636b426f783a2063616e6e6f7420657863656564207369676e657220636f6044820152621d5b9d60ea1b6064820152608490fd5b60405162461bcd60e51b815260206004820152602a60248201527f4c6f636b426f783a206d7573742072657175697265206174206c656173742031604482015269207369676e617475726560b01b6064820152608490fd5b34610204576020366003190112610204576114bc611ddb565b600154906001600160a01b03808316916114d7338414612169565b16918215611515576001600160a01b03191682176001557ff8ccb027dfcd135e000e9d45e6cc2d662578a8825d4c45b5e32e0adf67e79ec6600080a3005b60405162461bcd60e51b815260206004820152602260248201527f4c6f636b426f783a206e65772061646d696e206973207a65726f206164647265604482015261737360f01b6064820152608490fd5b34610204576020366003190112610204576001600160a01b03611586611ddb565b166000526004602052602060ff604060002054166040519015158152f35b3461020457602036600319011261020457600435600554811015610204576115cd602091611e80565b905460405160039290921b1c6001600160a01b03168152f35b34610204576000366003190112610204576020600954604051908152f35b346102045760203660031901126102045760043561162d60018060a01b03600154163314612169565b6201518081106116705760407f50ce4cac7d15d4f00dc8d0dcff44b7d864c1df8aa7d4b81e9b8b4346588968f691600754908060075582519182526020820152a1005b60405162461bcd60e51b815260206004820152602560248201527f4c6f636b426f783a2064656c6179206d757374206265206174206c6561737420604482015264312064617960d81b6064820152608490fd5b34610204576080366003190112610204576116dc611ddb565b6044359067ffffffffffffffff60243560643582811161020457611704903690600401611e29565b6001600160a01b0393808516939161171d851515611f47565b611728841515611f93565b611733428811611fde565b600b5496604051928361178660209a8b830193858a4292338894929060a89694926001600160601b0319809260601b16875260601b16601486015260288501526048840152606883015260888201520190565b039361179a601f1995868101835282611e07565b5190209687600052600289526117bb60ff6006604060002001541615612036565b600080546040516323b872dd60e01b815233600482015230602482015260448101899052928b928492606492849291165af180156107d557611804916000916119d7575061209a565b866000526002885260406000208781556001948582016001600160601b0360a01b903382825416179055886002840191825416179055866003830155426004830155826005830155600682018661ffff198254161790556007820195845191821161059e5789956118758854611ecd565b601f811161197d575b508b90601f84116001146119035750968280600894600096946000805160206123888339815191529a9b88936118f8575b501b9186199060031b1c19161790555b01556118ca846120e6565b6118d5600b5461212e565b600b556118e48560095461213d565b600955610dc960405192839233978461214a565b8a01519250386118af565b8392931690886000528c600020918d6000905b828210611965575050926000805160206123888339815191529899926008959282600098961061194d575b5050811b0190556118bf565b890151871960f88460031b161c191690558e80611941565b8984015185558e9a509386019392830192018e611916565b9091929394959650876000528b600020601f850160051c8101918d86106119cd575b90601f8d99989796959493920160051c01905b8181106119bf575061187e565b600081558c985083016119b2565b909150819061199f565b6119ee91508a3d8c116107ce576107c08183611e07565b8a610788565b3461020457602036600319011261020457600435600052600260205260c0604060002060018060a01b03908160018201541691600282015416906003810154600582015490600860ff600685015416930154936040519586526020860152604085015260608401521515608083015260a0820152f35b34610204576000366003190112610204576000546040516370a0823160e01b815230600482015290602090829060249082906001600160a01b03165afa80156107d557600090611ac0575b602090604051908152f35b506020813d8211611aea575b81611ad960209383611e07565b810103126102045760209051611ab5565b3d9150611acc565b3461020457604036600319011261020457611b0b611df1565b600435600052600260205260096040600020019060018060a01b0316600052602052602060ff604060002054166040519015158152f35b346102045760203660031901126102045760043560005260026020526020604060002060068101549060ff82169182611bae575b5081611b9f575b81611b8e575b506040519015158152f35b600891500154600654111582611b83565b60058101544210159150611b7d565b60081c60ff1615915083611b76565b3461020457602036600319011261020457611bd6611ddb565b600180546001600160a01b03928391611bf29083163314612169565b169182600052600460205260ff6040600020541615611d7657600580546006541015611d1e576000848152600460205260408120805460ff19169055835b611c5d575b847f3525e22824a8a7df2c9a6029941c824cf95b6447f1e13d5128fd3826d35afe8b600080a2005b815480821015611d1857839086611c7384611e80565b939054600394851b1c1614611c93575050611c8d9061212e565b83611c30565b90945091929160001991828201918211611d025761055884611cb7611cc494611e80565b905490891b1c1691611e80565b82548015611cec570192611cd784611e80565b81939154921b1b191690555581808080611c35565b634e487b7160e01b600052603160045260246000fd5b634e487b7160e01b600052601160045260246000fd5b50611c35565b60405162461bcd60e51b815260206004820152602a60248201527f4c6f636b426f783a2063616e6e6f742072656d6f76652c20776f756c6420627260448201526965616b2071756f72756d60b01b6064820152608490fd5b60405162461bcd60e51b81526020600482015260156024820152742637b1b5a137bc1d103737ba10309039b4b3b732b960591b6044820152606490fd5b3461020457602036600319011261020457602090600435600052600882526040600020548152f35b600435906001600160a01b038216820361020457565b602435906001600160a01b038216820361020457565b90601f8019910116810190811067ffffffffffffffff82111761059e57604052565b81601f820112156102045780359067ffffffffffffffff821161059e5760405192611e5e601f8401601f191660200185611e07565b8284526020838301011161020457816000926020809301838601378301015290565b600554811015611eb75760056000527f036b6384b5eca791c62761152d0c79bb0604c104a5fb6f4eb0703f3154bb3db00190600090565b634e487b7160e01b600052603260045260246000fd5b90600182811c92168015611efd575b6020831014611ee757565b634e487b7160e01b600052602260045260246000fd5b91607f1691611edc565b919082519283825260005b848110611f33575050826000602080949584010152601f8019910116010190565b602081830181015184830182015201611f12565b15611f4e57565b60405162461bcd60e51b815260206004820152601c60248201527f4c6f636b426f783a20696e76616c69642062656e6566696369617279000000006044820152606490fd5b15611f9a57565b606460405162461bcd60e51b815260206004820152602060248201527f4c6f636b426f783a20616d6f756e74206d75737420626520706f7369746976656044820152fd5b15611fe557565b60405162461bcd60e51b815260206004820152602360248201527f4c6f636b426f783a20756e6c6f636b2074696d65206d7573742062652066757460448201526275726560e81b6064820152608490fd5b1561203d57565b60405162461bcd60e51b815260206004820152601a60248201527f4c6f636b426f783a206c6f636b20494420636f6c6c6973696f6e0000000000006044820152606490fd5b90816020910312610204575180151581036102045790565b156120a157565b60405162461bcd60e51b815260206004820152601860248201527f4c6f636b426f783a207472616e73666572206661696c656400000000000000006044820152606490fd5b600354600160401b81101561059e576001810180600355811015611eb75760036000527fc2575a0e9e593c00f959f8c92f12db2869c3395a3b0502d05e2516446f71f85b0155565b6000198114611d025760010190565b91908201809211611d0257565b6121669392606092825260208201528160408201520190611f07565b90565b1561217057565b60405162461bcd60e51b815260206004820152601c60248201527f4c6f636b426f783a2063616c6c6572206973206e6f742061646d696e000000006044820152606490fd5b156121bc57565b60405162461bcd60e51b815260206004820152601860248201527f4c6f636b426f783a206c6f636b206e6f742061637469766500000000000000006044820152606490fd5b1561220857565b60405162461bcd60e51b815260206004820152601960248201527f4c6f636b426f783a20616c72656164792072656c6561736564000000000000006044820152606490fd5b1561225457565b60405162461bcd60e51b8152602060048201526015602482015274131bd8dad09bde0e881cdd1a5b1b081b1bd8dad959605a1b6044820152606490fd5b600081815260026020818152604080842060068101805461ffff19166101001790558454938101805460039092018054935163a9059cbb60e01b81526001600160a01b039384166004820152602481019490945296959194909391929190829086168185816044810103925af191821561237b577fdf37662a7447b4158b2a6349c4709f3ae6001951a28edd11b3dde84d41b7a8d294926040949261233b929161235d575061209a565b6123488654600a5461213d565b600a55541693548151908152426020820152a3565b612375915060203d81116107ce576107c08183611e07565b38610788565b604051903d90823e3d90fdfe0157a9e78215a8f614203fef4244fa7708ebc92ef1ab6037bcd79f85be750c68a2646970667358221220fe6ade3045ff6b637562404ae123b9a036b9bf3a2113968ebe30c732b1151f9964736f6c63430008140033",
  "linkReferences": {},
  "deployedLinkReferences": {},
  "immutableReferences": {},
  "inputSourceName": "project/contracts/DCBTreasury/LockBox.sol",
  "buildInfoId": "solc-0_8_20-a1c61539025f0654ad3a75bdb2b55239eb68e7f3"
}