{
  "_format": "hh-sol-artifact-1",
  "contractName": "BridgeMinter",
  "sourceName": "contracts/BridgeMinter.sol",
  "abi": [
    {
      "inputs": [
        {
          "internalType": "address",
          "name": "_usdToken",
          "type": "address"
        },
        {
          "internalType": "address",
          "name": "_registry",
          "type": "address"
        },
        {
          "internalType": "address",
          "name": "admin",
          "type": "address"
        }
      ],
      "stateMutability": "nonpayable",
      "type": "constructor"
    },
    {
      "inputs": [],
      "name": "AccessControlBadConfirmation",
      "type": "error"
    },
    {
      "inputs": [
        {
          "internalType": "address",
          "name": "account",
          "type": "address"
        },
        {
          "internalType": "bytes32",
          "name": "neededRole",
          "type": "bytes32"
        }
      ],
      "name": "AccessControlUnauthorizedAccount",
      "type": "error"
    },
    {
      "inputs": [],
      "name": "ECDSAInvalidSignature",
      "type": "error"
    },
    {
      "inputs": [
        {
          "internalType": "uint256",
          "name": "length",
          "type": "uint256"
        }
      ],
      "name": "ECDSAInvalidSignatureLength",
      "type": "error"
    },
    {
      "inputs": [
        {
          "internalType": "bytes32",
          "name": "s",
          "type": "bytes32"
        }
      ],
      "name": "ECDSAInvalidSignatureS",
      "type": "error"
    },
    {
      "inputs": [],
      "name": "InvalidShortString",
      "type": "error"
    },
    {
      "inputs": [
        {
          "internalType": "string",
          "name": "str",
          "type": "string"
        }
      ],
      "name": "StringTooLong",
      "type": "error"
    },
    {
      "anonymous": false,
      "inputs": [],
      "name": "EIP712DomainChanged",
      "type": "event"
    },
    {
      "anonymous": false,
      "inputs": [
        {
          "indexed": true,
          "internalType": "bytes32",
          "name": "holdId",
          "type": "bytes32"
        },
        {
          "indexed": true,
          "internalType": "address",
          "name": "operator",
          "type": "address"
        }
      ],
      "name": "HoldUsed",
      "type": "event"
    },
    {
      "anonymous": false,
      "inputs": [
        {
          "indexed": true,
          "internalType": "bytes32",
          "name": "holdId",
          "type": "bytes32"
        },
        {
          "indexed": false,
          "internalType": "uint256",
          "name": "amount",
          "type": "uint256"
        },
        {
          "indexed": true,
          "internalType": "address",
          "name": "beneficiary",
          "type": "address"
        },
        {
          "indexed": false,
          "internalType": "bytes32",
          "name": "iso20022Hash",
          "type": "bytes32"
        },
        {
          "indexed": false,
          "internalType": "bytes3",
          "name": "iso4217",
          "type": "bytes3"
        },
        {
          "indexed": true,
          "internalType": "address",
          "name": "signer",
          "type": "address"
        },
        {
          "indexed": false,
          "internalType": "uint256",
          "name": "timestamp",
          "type": "uint256"
        }
      ],
      "name": "Minted",
      "type": "event"
    },
    {
      "anonymous": false,
      "inputs": [
        {
          "indexed": true,
          "internalType": "bytes32",
          "name": "role",
          "type": "bytes32"
        },
        {
          "indexed": true,
          "internalType": "bytes32",
          "name": "previousAdminRole",
          "type": "bytes32"
        },
        {
          "indexed": true,
          "internalType": "bytes32",
          "name": "newAdminRole",
          "type": "bytes32"
        }
      ],
      "name": "RoleAdminChanged",
      "type": "event"
    },
    {
      "anonymous": false,
      "inputs": [
        {
          "indexed": true,
          "internalType": "bytes32",
          "name": "role",
          "type": "bytes32"
        },
        {
          "indexed": true,
          "internalType": "address",
          "name": "account",
          "type": "address"
        },
        {
          "indexed": true,
          "internalType": "address",
          "name": "sender",
          "type": "address"
        }
      ],
      "name": "RoleGranted",
      "type": "event"
    },
    {
      "anonymous": false,
      "inputs": [
        {
          "indexed": true,
          "internalType": "bytes32",
          "name": "role",
          "type": "bytes32"
        },
        {
          "indexed": true,
          "internalType": "address",
          "name": "account",
          "type": "address"
        },
        {
          "indexed": true,
          "internalType": "address",
          "name": "sender",
          "type": "address"
        }
      ],
      "name": "RoleRevoked",
      "type": "event"
    },
    {
      "inputs": [],
      "name": "DAES_SIGNER_ROLE",
      "outputs": [
        {
          "internalType": "bytes32",
          "name": "",
          "type": "bytes32"
        }
      ],
      "stateMutability": "view",
      "type": "function"
    },
    {
      "inputs": [],
      "name": "DEFAULT_ADMIN_ROLE",
      "outputs": [
        {
          "internalType": "bytes32",
          "name": "",
          "type": "bytes32"
        }
      ],
      "stateMutability": "view",
      "type": "function"
    },
    {
      "inputs": [],
      "name": "MINT_AUTHORIZATION_TYPEHASH",
      "outputs": [
        {
          "internalType": "bytes32",
          "name": "",
          "type": "bytes32"
        }
      ],
      "stateMutability": "view",
      "type": "function"
    },
    {
      "inputs": [],
      "name": "OPERATOR_ROLE",
      "outputs": [
        {
          "internalType": "bytes32",
          "name": "",
          "type": "bytes32"
        }
      ],
      "stateMutability": "view",
      "type": "function"
    },
    {
      "inputs": [],
      "name": "eip712Domain",
      "outputs": [
        {
          "internalType": "bytes1",
          "name": "fields",
          "type": "bytes1"
        },
        {
          "internalType": "string",
          "name": "name",
          "type": "string"
        },
        {
          "internalType": "string",
          "name": "version",
          "type": "string"
        },
        {
          "internalType": "uint256",
          "name": "chainId",
          "type": "uint256"
        },
        {
          "internalType": "address",
          "name": "verifyingContract",
          "type": "address"
        },
        {
          "internalType": "bytes32",
          "name": "salt",
          "type": "bytes32"
        },
        {
          "internalType": "uint256[]",
          "name": "extensions",
          "type": "uint256[]"
        }
      ],
      "stateMutability": "view",
      "type": "function"
    },
    {
      "inputs": [],
      "name": "getDomainSeparator",
      "outputs": [
        {
          "internalType": "bytes32",
          "name": "",
          "type": "bytes32"
        }
      ],
      "stateMutability": "view",
      "type": "function"
    },
    {
      "inputs": [],
      "name": "getMintAuthorizationTypehash",
      "outputs": [
        {
          "internalType": "bytes32",
          "name": "",
          "type": "bytes32"
        }
      ],
      "stateMutability": "pure",
      "type": "function"
    },
    {
      "inputs": [
        {
          "internalType": "address",
          "name": "account",
          "type": "address"
        }
      ],
      "name": "getNonce",
      "outputs": [
        {
          "internalType": "uint256",
          "name": "",
          "type": "uint256"
        }
      ],
      "stateMutability": "view",
      "type": "function"
    },
    {
      "inputs": [
        {
          "internalType": "bytes32",
          "name": "role",
          "type": "bytes32"
        }
      ],
      "name": "getRoleAdmin",
      "outputs": [
        {
          "internalType": "bytes32",
          "name": "",
          "type": "bytes32"
        }
      ],
      "stateMutability": "view",
      "type": "function"
    },
    {
      "inputs": [
        {
          "internalType": "bytes32",
          "name": "role",
          "type": "bytes32"
        },
        {
          "internalType": "address",
          "name": "account",
          "type": "address"
        }
      ],
      "name": "grantRole",
      "outputs": [],
      "stateMutability": "nonpayable",
      "type": "function"
    },
    {
      "inputs": [
        {
          "internalType": "bytes32",
          "name": "role",
          "type": "bytes32"
        },
        {
          "internalType": "address",
          "name": "account",
          "type": "address"
        }
      ],
      "name": "hasRole",
      "outputs": [
        {
          "internalType": "bool",
          "name": "",
          "type": "bool"
        }
      ],
      "stateMutability": "view",
      "type": "function"
    },
    {
      "inputs": [
        {
          "internalType": "bytes32",
          "name": "holdId",
          "type": "bytes32"
        }
      ],
      "name": "isHoldUsed",
      "outputs": [
        {
          "internalType": "bool",
          "name": "",
          "type": "bool"
        }
      ],
      "stateMutability": "view",
      "type": "function"
    },
    {
      "inputs": [
        {
          "components": [
            {
              "internalType": "bytes32",
              "name": "holdId",
              "type": "bytes32"
            },
            {
              "internalType": "uint256",
              "name": "amount",
              "type": "uint256"
            },
            {
              "internalType": "address",
              "name": "beneficiary",
              "type": "address"
            },
            {
              "internalType": "bytes32",
              "name": "iso20022Hash",
              "type": "bytes32"
            },
            {
              "internalType": "bytes3",
              "name": "iso4217",
              "type": "bytes3"
            },
            {
              "internalType": "uint256",
              "name": "deadline",
              "type": "uint256"
            },
            {
              "internalType": "uint256",
              "name": "nonce",
              "type": "uint256"
            }
          ],
          "internalType": "struct BridgeMinter.MintAuthorization",
          "name": "auth",
          "type": "tuple"
        },
        {
          "internalType": "bytes",
          "name": "signature",
          "type": "bytes"
        }
      ],
      "name": "mintWithAuthorization",
      "outputs": [
        {
          "internalType": "bool",
          "name": "",
          "type": "bool"
        }
      ],
      "stateMutability": "nonpayable",
      "type": "function"
    },
    {
      "inputs": [
        {
          "internalType": "address",
          "name": "",
          "type": "address"
        }
      ],
      "name": "nonces",
      "outputs": [
        {
          "internalType": "uint256",
          "name": "",
          "type": "uint256"
        }
      ],
      "stateMutability": "view",
      "type": "function"
    },
    {
      "inputs": [],
      "name": "registry",
      "outputs": [
        {
          "internalType": "contract SettlementRegistry",
          "name": "",
          "type": "address"
        }
      ],
      "stateMutability": "view",
      "type": "function"
    },
    {
      "inputs": [
        {
          "internalType": "bytes32",
          "name": "role",
          "type": "bytes32"
        },
        {
          "internalType": "address",
          "name": "callerConfirmation",
          "type": "address"
        }
      ],
      "name": "renounceRole",
      "outputs": [],
      "stateMutability": "nonpayable",
      "type": "function"
    },
    {
      "inputs": [
        {
          "internalType": "bytes32",
          "name": "role",
          "type": "bytes32"
        },
        {
          "internalType": "address",
          "name": "account",
          "type": "address"
        }
      ],
      "name": "revokeRole",
      "outputs": [],
      "stateMutability": "nonpayable",
      "type": "function"
    },
    {
      "inputs": [
        {
          "internalType": "bytes4",
          "name": "interfaceId",
          "type": "bytes4"
        }
      ],
      "name": "supportsInterface",
      "outputs": [
        {
          "internalType": "bool",
          "name": "",
          "type": "bool"
        }
      ],
      "stateMutability": "view",
      "type": "function"
    },
    {
      "inputs": [],
      "name": "usdToken",
      "outputs": [
        {
          "internalType": "contract USDToken",
          "name": "",
          "type": "address"
        }
      ],
      "stateMutability": "view",
      "type": "function"
    },
    {
      "inputs": [
        {
          "internalType": "bytes32",
          "name": "",
          "type": "bytes32"
        }
      ],
      "name": "usedHolds",
      "outputs": [
        {
          "internalType": "bool",
          "name": "",
          "type": "bool"
        }
      ],
      "stateMutability": "view",
      "type": "function"
    }
  ],
  "bytecode": "0x6101a06040523480156200001257600080fd5b5060405162001a7438038062001a748339810160408190526200003591620003ef565b6040518060400160405280601581526020017f4441455320555344204272696467654d696e7465720000000000000000000000815250604051806040016040528060018152602001603160f81b8152506200009b600183620002a860201b90919060201c565b61012052620000ac816002620002a8565b61014052815160208084019190912060e052815190820120610100524660a0526200013a60e05161010051604080517f8b73c3c69bb8fe3d512ecc4cf759cc79239f7b179b0ffacaa9a75d522b39400f60208201529081019290925260608201524660808201523060a082015260009060c00160405160208183030381529060405280519060200120905090565b60805250503060c0526001600160a01b0383166200019f5760405162461bcd60e51b815260206004820152601b60248201527f4272696467654d696e7465723a20746f6b656e206973207a65726f000000000060448201526064015b60405180910390fd5b6001600160a01b038216620001f75760405162461bcd60e51b815260206004820152601e60248201527f4272696467654d696e7465723a207265676973747279206973207a65726f0000604482015260640162000196565b6001600160a01b0381166200024f5760405162461bcd60e51b815260206004820152601b60248201527f4272696467654d696e7465723a2061646d696e206973207a65726f0000000000604482015260640162000196565b6001600160a01b038084166101605282166101805262000271600082620002e1565b506200029e7f97667070c54ef182b0f5858b034beac1b6f3089aa2d3188bb1e8929f4fa9b92982620002e1565b505050506200061f565b6000602083511015620002c857620002c0836200038f565b9050620002db565b81620002d58482620004de565b5060ff90505b92915050565b6000828152602081815260408083206001600160a01b038516845290915281205460ff1662000386576000838152602081815260408083206001600160a01b03861684529091529020805460ff191660011790556200033d3390565b6001600160a01b0316826001600160a01b0316847f2f8788117e7eff1d82e926ec794901d17c78024a50270940304540a733656f0d60405160405180910390a4506001620002db565b506000620002db565b600080829050601f81511115620003bd578260405163305a27a960e01b8152600401620001969190620005aa565b8051620003ca82620005fa565b179392505050565b80516001600160a01b0381168114620003ea57600080fd5b919050565b6000806000606084860312156200040557600080fd5b6200041084620003d2565b92506200042060208501620003d2565b91506200043060408501620003d2565b90509250925092565b634e487b7160e01b600052604160045260246000fd5b600181811c908216806200046457607f821691505b6020821081036200048557634e487b7160e01b600052602260045260246000fd5b50919050565b601f821115620004d957600081815260208120601f850160051c81016020861015620004b45750805b601f850160051c820191505b81811015620004d557828155600101620004c0565b5050505b505050565b81516001600160401b03811115620004fa57620004fa62000439565b62000512816200050b84546200044f565b846200048b565b602080601f8311600181146200054a5760008415620005315750858301515b600019600386901b1c1916600185901b178555620004d5565b600085815260208120601f198616915b828110156200057b578886015182559484019460019091019084016200055a565b50858210156200059a5787850151600019600388901b60f8161c191681555b5050505050600190811b01905550565b600060208083528351808285015260005b81811015620005d957858101830151858201604001528201620005bb565b506000604082860101526040601f19601f8301168501019250505092915050565b80516020808301519190811015620004855760001960209190910360031b1b16919050565b60805160a05160c05160e05161010051610120516101405161016051610180516113cf620006a56000396000818161022a0152818161083401526109c3015260008181610384015261090d01526000610c3e01526000610c1101526000610d9501526000610d6d01526000610cc801526000610cf201526000610d1c01526113cf6000f3fe608060405234801561001057600080fd5b506004361061012c5760003560e01c806391d14854116100ad578063de1c1b0111610071578063de1c1b0114610303578063ed24911d1461032a578063f096518f14610332578063f5b541a614610358578063f897a22b1461037f57600080fd5b806391d148541461029f578063a217fddf146102b2578063bc438bd7146102ba578063d0231800146102dd578063d547741f146102f057600080fd5b8063319f33d0116100f4578063319f33d0146101eb57806336568abe146102125780637b103999146102255780637ecebe001461026457806384b0196e1461028457600080fd5b806301ffc9a7146101315780630bcb3adb14610159578063248a9ca31461017c5780632d0335ab146101ad5780632f2ff15d146101d6575b600080fd5b61014461013f36600461110a565b6103a6565b60405190151581526020015b60405180910390f35b61014461016736600461113b565b60036020526000908152604090205460ff1681565b61019f61018a36600461113b565b60009081526020819052604090206001015490565b604051908152602001610150565b61019f6101bb366004611170565b6001600160a01b031660009081526004602052604090205490565b6101e96101e436600461118b565b6103dd565b005b61019f7f10cb5ac71c54fdb759e82bbde508aef641fc4bad70051952915c8eff4693152a81565b6101e961022036600461118b565b610408565b61024c7f000000000000000000000000000000000000000000000000000000000000000081565b6040516001600160a01b039091168152602001610150565b61019f610272366004611170565b60046020526000908152604090205481565b61028c610440565b60405161015097969594939291906111fd565b6101446102ad36600461118b565b610486565b61019f600081565b6101446102c836600461113b565b60009081526003602052604090205460ff1690565b6101446102eb366004611293565b6104af565b6101e96102fe36600461118b565b610acc565b61019f7f8b0ddfd2e6640accc10aad0d16a48a7f98c12c33fb928966daaead3c52181f7381565b61019f610af1565b7f8b0ddfd2e6640accc10aad0d16a48a7f98c12c33fb928966daaead3c52181f7361019f565b61019f7f97667070c54ef182b0f5858b034beac1b6f3089aa2d3188bb1e8929f4fa9b92981565b61024c7f000000000000000000000000000000000000000000000000000000000000000081565b60006001600160e01b03198216637965db0b60e01b14806103d757506301ffc9a760e01b6001600160e01b03198316145b92915050565b6000828152602081905260409020600101546103f881610b00565b6104028383610b0d565b50505050565b6001600160a01b03811633146104315760405163334bd91960e11b815260040160405180910390fd5b61043b8282610b9f565b505050565b600060608060008060006060610454610c0a565b61045c610c37565b60408051600080825260208201909252600f60f81b9b939a50919850469750309650945092509050565b6000918252602082815260408084206001600160a01b0393909316845291905290205460ff1690565b60007f97667070c54ef182b0f5858b034beac1b6f3089aa2d3188bb1e8929f4fa9b9296104db81610b00565b8460a0013542111561052c5760405162461bcd60e51b8152602060048201526015602482015274109c9a5919d9535a5b9d195c8e88195e1c1a5c9959605a1b60448201526064015b60405180910390fd5b843560009081526003602052604090205460ff16156105975760405162461bcd60e51b815260206004820152602160248201527f4272696467654d696e7465723a20686f6c64496420616c7265616479207573656044820152601960fa1b6064820152608401610523565b60008560200135116105eb5760405162461bcd60e51b815260206004820152601c60248201527f4272696467654d696e7465723a20616d6f756e74206973207a65726f000000006044820152606401610523565b60006105fd6060870160408801611170565b6001600160a01b03160361065d5760405162461bcd60e51b815260206004820152602160248201527f4272696467654d696e7465723a2062656e6566696369617279206973207a65726044820152606f60f81b6064820152608401610523565b60007f8b0ddfd2e6640accc10aad0d16a48a7f98c12c33fb928966daaead3c52181f738635602088013561069760608a0160408b01611170565b60608a01356106ac60a08c0160808d0161131f565b60408051602081019790975286019490945260608501929092526001600160a01b0316608084015260a0838101919091526001600160e81b031990911660c0838101919091529088013560e083015287013561010082015261012001604051602081830303815290604052805190602001209050600061072b82610c64565b9050600061076f8288888080601f016020809104026020016040519081016040528093929190818152602001838380828437600092019190915250610c9192505050565b905061079b7f10cb5ac71c54fdb759e82bbde508aef641fc4bad70051952915c8eff4693152a82610486565b6107e75760405162461bcd60e51b815260206004820152601c60248201527f4272696467654d696e7465723a20696e76616c6964207369676e6572000000006044820152606401610523565b8735600081815260036020526040808220805460ff19166001179055513392917f5d84ac322883221ea7d82ebcdf9d09118db5ea063701db22deef35c6b88ca96591a36001600160a01b037f00000000000000000000000000000000000000000000000000000000000000001663815533bd893560208b013561087060608d0160408e01611170565b8c606001358d6080016020810190610888919061131f565b6040516001600160e01b031960e088901b168152600481019590955260248501939093526001600160a01b03909116604484015260648301526001600160e81b031916608482015260a401600060405180830381600087803b1580156108ed57600080fd5b505af1158015610901573d6000803e3d6000fd5b50506001600160a01b037f00000000000000000000000000000000000000000000000000000000000000001691506340c10f19905061094660608b0160408c01611170565b6040516001600160e01b031960e084901b1681526001600160a01b03909116600482015260208b01356024820152604401600060405180830381600087803b15801561099157600080fd5b505af11580156109a5573d6000803e3d6000fd5b505060405163d6235acf60e01b81528a3560048201523360248201527f00000000000000000000000000000000000000000000000000000000000000006001600160a01b0316925063d6235acf9150604401600060405180830381600087803b158015610a1157600080fd5b505af1158015610a25573d6000803e3d6000fd5b5050506001600160a01b0382169050610a4460608a0160408b01611170565b6001600160a01b031689600001357f172010ca8989dd8e48e7c8f370f76f7cc2ddb8c6ef88d6d42c4159f5196d6aed8b602001358c606001358d6080016020810190610a90919061131f565b6040805193845260208401929092526001600160e81b0319169082015242606082015260800160405180910390a4506001979650505050505050565b600082815260208190526040902060010154610ae781610b00565b6104028383610b9f565b6000610afb610cbb565b905090565b610b0a8133610de6565b50565b6000610b198383610486565b610b97576000838152602081815260408083206001600160a01b03861684529091529020805460ff19166001179055610b4f3390565b6001600160a01b0316826001600160a01b0316847f2f8788117e7eff1d82e926ec794901d17c78024a50270940304540a733656f0d60405160405180910390a45060016103d7565b5060006103d7565b6000610bab8383610486565b15610b97576000838152602081815260408083206001600160a01b0386168085529252808320805460ff1916905551339286917ff6391f5c32d9c69d2a47ea670b442974b53935d1edc7fd64eb21e047a839171b9190a45060016103d7565b6060610afb7f00000000000000000000000000000000000000000000000000000000000000006001610e23565b6060610afb7f00000000000000000000000000000000000000000000000000000000000000006002610e23565b60006103d7610c71610cbb565b8360405161190160f01b8152600281019290925260228201526042902090565b600080600080610ca18686610ece565b925092509250610cb18282610f1b565b5090949350505050565b6000306001600160a01b037f000000000000000000000000000000000000000000000000000000000000000016148015610d1457507f000000000000000000000000000000000000000000000000000000000000000046145b15610d3e57507f000000000000000000000000000000000000000000000000000000000000000090565b610afb604080517f8b73c3c69bb8fe3d512ecc4cf759cc79239f7b179b0ffacaa9a75d522b39400f60208201527f0000000000000000000000000000000000000000000000000000000000000000918101919091527f000000000000000000000000000000000000000000000000000000000000000060608201524660808201523060a082015260009060c00160405160208183030381529060405280519060200120905090565b610df08282610486565b610e1f5760405163e2517d3f60e01b81526001600160a01b038216600482015260248101839052604401610523565b5050565b606060ff8314610e3d57610e3683610fd4565b90506103d7565b818054610e4990611349565b80601f0160208091040260200160405190810160405280929190818152602001828054610e7590611349565b8015610ec25780601f10610e9757610100808354040283529160200191610ec2565b820191906000526020600020905b815481529060010190602001808311610ea557829003601f168201915b505050505090506103d7565b60008060008351604103610f085760208401516040850151606086015160001a610efa88828585611013565b955095509550505050610f14565b50508151600091506002905b9250925092565b6000826003811115610f2f57610f2f611383565b03610f38575050565b6001826003811115610f4c57610f4c611383565b03610f6a5760405163f645eedf60e01b815260040160405180910390fd5b6002826003811115610f7e57610f7e611383565b03610f9f5760405163fce698f760e01b815260048101829052602401610523565b6003826003811115610fb357610fb3611383565b03610e1f576040516335e2f38360e21b815260048101829052602401610523565b60606000610fe1836110e2565b604080516020808252818301909252919250600091906020820181803683375050509182525060208101929092525090565b600080807f7fffffffffffffffffffffffffffffff5d576e7357a4501ddfe92f46681b20a084111561104e57506000915060039050826110d8565b604080516000808252602082018084528a905260ff891692820192909252606081018790526080810186905260019060a0016020604051602081039080840390855afa1580156110a2573d6000803e3d6000fd5b5050604051601f1901519150506001600160a01b0381166110ce575060009250600191508290506110d8565b9250600091508190505b9450945094915050565b600060ff8216601f8111156103d757604051632cd44ac360e21b815260040160405180910390fd5b60006020828403121561111c57600080fd5b81356001600160e01b03198116811461113457600080fd5b9392505050565b60006020828403121561114d57600080fd5b5035919050565b80356001600160a01b038116811461116b57600080fd5b919050565b60006020828403121561118257600080fd5b61113482611154565b6000806040838503121561119e57600080fd5b823591506111ae60208401611154565b90509250929050565b6000815180845260005b818110156111dd576020818501810151868301820152016111c1565b506000602082860101526020601f19601f83011685010191505092915050565b60ff60f81b881681526000602060e08184015261121d60e084018a6111b7565b838103604085015261122f818a6111b7565b606085018990526001600160a01b038816608086015260a0850187905284810360c0860152855180825283870192509083019060005b8181101561128157835183529284019291840191600101611265565b50909c9b505050505050505050505050565b60008060008385036101008112156112aa57600080fd5b60e08112156112b857600080fd5b5083925060e084013567ffffffffffffffff808211156112d757600080fd5b818601915086601f8301126112eb57600080fd5b8135818111156112fa57600080fd5b87602082850101111561130c57600080fd5b6020830194508093505050509250925092565b60006020828403121561133157600080fd5b81356001600160e81b03198116811461113457600080fd5b600181811c9082168061135d57607f821691505b60208210810361137d57634e487b7160e01b600052602260045260246000fd5b50919050565b634e487b7160e01b600052602160045260246000fdfea2646970667358221220223a7eec58bc744bbb3ea3c0fb80db31074eca407d4714bbca9fe7b997770de864736f6c63430008140033",
  "linkReferences": {},
  "deployedLinkReferences": {}
}